:020000040800F2
:1000000000000820591E0008491D00084D1D000869
:10001000791D00087B1D00087D1D00080000000000
:1000200000000000000000000000000051960008E1
:100030007F1D000800000000F19600085597000899
:10004000A91E0008A91E0008A91E0008A91E000874
:10005000A91E0008A91E0008A91E0008A91E000864
:10006000A91E0008811D0008A91E0008A91E00087D
:10007000A91E0008A91E0008A91E0008A91E000844
:10008000B51D0008A91E0008A91E0008A91E000829
:10009000A91E0008A91E0008A91E0008C11D00080D
:1000A000A91E0008A91E0008A91E0008A91E000814
:1000B000A91E0008A91E0008A91E0008A91E000804
:1000C000A91E0008A91E0008A91E0008A91E0008F4
:1000D000A91E0008A91E0008F51D0008A91E000899
:1000E000A91E0008A91E0008A91E0008A91E0008D4
:1000F000A91E0008A91E0008A91E0008A91E0008C4
:10010000A91E0008011E0008A91E0008A91E00085B
:10011000A91E0008A91E0008A91E00080D1E00083F
:10012000191E0008A91E0008A91E0008251E0008A7
:10013000A91E0008A91E0008A91E0008A91E000883
:10014000A91E0008A91E0008A91E0008A91E000873
:10015000A91E0008311E0008A91E0008A91E0008DB
:10016000A91E0008A91E0008A91E0008A91E000853
:10017000A91E0008A91E0008A91E0008A91E000843
:10018000A91E0008A91E0008A91E0008A91E000833
:10019000A91E0008A91E0008A91E0008A91E000823
:1001A000A91E0008A91E0008A91E0008A91E000813
:1001B000A91E0008A91E0008A91E0008A91E000803
:1001C000A91E0008A91E000800000000A91E0008C2
:1001D000A91E0008A91E0008A91E0008A91E0008E3
:1001E000A91E0008A91E0008A91E0008A91E0008D3
:0801F000A91E0008A91E000869
:1002000010B5054C237833B9044B13B10448AFF350
:1002100000800123237010BD0401002000000000B5
:10022000B056010808B5034B1BB103490348AFF3AF
:10023000008008BD0000000008010020B056010841
:1002400081F0004102E000BF83F0004330B54FEA87
:1002500041044FEA430594EA050F08BF90EA020FF4
:100260001FBF54EA000C55EA020C7FEA645C7FEA87
:10027000655C00F0E2804FEA5454D4EB5555B8BFAA
:100280006D420CDD2C4480EA020281EA030382EA1B
:10029000000083EA010180EA020281EA0303362DAD
:1002A00088BF30BD11F0004F4FEA01314FF4801C80
:1002B0004CEA113102D0404261EB410113F0004F92
:1002C0004FEA03334CEA133302D0524263EB430349
:1002D00094EA050F00F0A780A4F10104D5F1200EE7
:1002E0000DDB02FA0EFC22FA05F2801841F1000142
:1002F00003FA0EF2801843FA05F359410EE0A5F116
:1003000020050EF1200E012A03FA0EFC28BF4CF046
:10031000020C43FA05F3C01851EBE37101F00045FC
:1003200007D54FF0000EDCF1000C7EEB00006EEB09
:100330000101B1F5801F1BD3B1F5001F0CD3490893
:100340005FEA30004FEA3C0C04F101044FEA4452EA
:1003500012F5800F80F09A80BCF1004F08BF5FEA71
:10036000500C50F1000041EB045141EA050130BD51
:100370005FEA4C0C404141EB0101013C28BFB1F563
:10038000801FE9D291F0000F04BF01460020B1FAAE
:1003900081F308BF2033A3F10B03B3F120020CDA81
:1003A0000C3208DD02F1140CC2F10C0201FA0CF05F
:1003B00021FA02F10CE002F11402D8BFC2F1200CC4
:1003C00001FA02F120FA0CFCDCBF41EA0C0190407A
:1003D000E41AA2BF01EB0451294330BD6FEA0404C3
:1003E0001F3C1CDA0C340EDC04F11404C4F12002AE
:1003F00020FA04F001FA02F340EA030021FA04F3C0
:1004000045EA030130BDC4F10C04C4F1200220FA16
:1004100002F001FA04F340EA0300294630BD21FA54
:1004200004F0294630BD94F0000F83F4801306BF1A
:1004300081F480110134013D4EE77FEA645C18BF0E
:100440007FEA655C29D094EA050F08BF90EA020FA5
:1004500005D054EA000C04BF1946104630BD91EA9D
:10046000030F1EBF0021002030BD5FEA545C05D1A0
:100470004000494128BF41F0004130BD14F58004DF
:100480003CBF01F5801130BD01F0004545F0FE4153
:1004900041F470014FF0000030BD7FEA645C1ABF88
:1004A000194610467FEA655C1CBF0B46024650EABF
:1004B000013406BF52EA033591EA030F41F40021EB
:1004C00030BD00BF90F0000F04BF0021704730B571
:1004D0004FF4806404F132044FF000054FF0000146
:1004E00050E700BF90F0000F04BF0021704730B507
:1004F0004FF4806404F1320410F0004548BF4042DC
:100500004FF000013EE700BF42004FEAE2014FEA30
:1005100031014FEA02701FBF12F07F4393F07F4F0B
:1005200081F06051704732F07F4208BF704793F00E
:100530007F4F04BF41F40021704730B54FF4607421
:1005400001F0004521F000411CE700BF50EA010224
:1005500008BF704730B54FF000050AE050EA0102CD
:1005600008BF704730B511F0004502D5404261EB3D
:1005700041014FF4806404F132045FEA915C3FF47E
:10058000D8AE4FF003025FEADC0C18BF03325FEA1B
:10059000DC0C18BF033202EBDC02C2F1200300FACC
:1005A00003FC20FA02F001FA03FE40EA0E0021FAF1
:1005B00002F11444BDE600BF53B94AB9002908BF8F
:1005C00000281CBF4FF0FF314FF0FF3000F06EB934
:1005D000ADF1080C6DE904CE00F006F8DDF804E09A
:1005E000DDE9022304B070472DE9F047089D044679
:1005F0008C46002B40F083808A42174647D9B2FAD6
:1006000082F242B1C2F1200024FA00F091409740FA
:1006100040EA010C94404FEA1748230CBCFBF8F663
:100620001FFA87FE08FB16C143EA014306FB0EF1E1
:10063000994209D9FB1806F1FF3080F019819942DF
:1006400040F21681023E3B445B1AA4B2B3FBF8F0C1
:1006500008FB103344EA034400FB0EFEA64509D90B
:100660003C1900F1FF3380F00581A64540F202817C
:1006700002383C4440EA0640A4EB0E0400261DB1BB
:10068000D4400023C5E900433146BDE8F08702B9F4
:10069000FFDEB2FA82F2002A50D1CB1B4FEA174E8E
:1006A0001FFA87F80126B3FBFEFC210C0EFB1C335E
:1006B00041EA034108FB0CF38B4207D979180CF18E
:1006C000FF3002D28B4200F2E9808446C91AA3B2FD
:1006D000B1FBFEF00EFB101143EA014408FB00F8E9
:1006E000A04507D93C1900F1FF3302D2A04500F222
:1006F000D9801846A4EB080440EA0C40BFE78B42BF
:1007000009D9002D00F0B1800026C5E9000130466E
:100710003146BDE8F087B3FA83F6002E4AD18B420A
:1007200002D3824200F2B880841A61EB03010120F7
:100730008C46002DA8D0C5E9004CA5E7C2F12003E6
:1007400020FA03F6974001FA02F04FEA174ED9401B
:100750003043030CB1FBFEF61FFA87F80EFB1611AF
:1007600043EA014306FB08F1994204FA02F409D96D
:10077000FB1806F1FF3C80F08D80994240F28A80A0
:10078000023E3B445B1A81B2B3FBFEF00EFB10331A
:1007900041EA034100FB08F38B4207D9791800F1C5
:1007A000FF3C73D28B4271D902383944CB1A40EAEC
:1007B000064678E7C6F1200C03FA06F422FA0CF399
:1007C0001C4320FA0CF701FA06F34FEA144E21FA03
:1007D0000CF11F433B0CB1FBFEF91FFA84F80EFB32
:1007E000191143EA014109FB08FA8A4502FA06F2A7
:1007F00000FA06F308D9611809F1FF3048D28A459A
:1008000046D9A9F102092144A1EB0A01BFB2B1FB0B
:10081000FEF00EFB101147EA014700FB08F8B8454F
:1008200007D9E71900F1FF312ED2B8452CD902388B
:10083000274440EA0940A7EB0807A0FB02894F457F
:10084000C64649461AD317D05DB1B3EB0E0267EB2B
:10085000010707FA0CFCF2404CEA0202F740C5E936
:10086000002700263146BDE8F0872E4628460BE7D4
:100870000646E9E61846FDE64345E5D2B8EB020E2A
:1008800069EB04010138DFE70846D2E760468DE7EF
:100890008146B9E7664675E730464AE7ACF1020C97
:1008A000394413E702383C4424E700BF704700BFD7
:1008B000034B0360034B0B6080231360704700BF42
:1008C0002003002020010020034B0360034B0B603A
:1008D0004FF4807313607047740700207403002086
:1008E000694D83B508F0C0F805F5DD56674A042365
:1008F000019037466648C0E900232023C0E902334F
:1009000002F096FA0421634C0DEB010008F0CCF9DB
:100910005F4802F0B5FA604813F017FC5F4813F027
:1009200009F95F4813F0F2FC5E4812F0C3FA94ED47
:10093000000AA4F1B40013F091FC94F86813A4F138
:10094000B40013F031FCA4F69C1013F0F3F8A4F5F6
:10095000A07013F0DBFC04F55B7012F0ABFA94F8B6
:100960000C3594EDFA0AA4F1980003EB83035B00C5
:1009700007EE903AF8EEE77AC6ED007A13F06EFCD7
:1009800094F85017A4F1980013F00EFCA4F58860B9
:1009900012F0A8FBA4F55E7012F0A4FBA4F23C4296
:1009A000A4F55D73A4F52C7092ED000AD3ED007AE6
:1009B00030EE270A12F065FB95F8AE3D95F8762EDD
:1009C00053EA020134D0934238BF134685F83E3FC4
:1009D00095F8163D012B02D1334812F0C9FB95F86A
:1009E000DE3D012B02D1314812F0C2FB95F8183DD3
:1009F0002F4C003BA4F2654018BF0123237095F8EB
:100A0000E03D003B18BF012384F8E83313F0B6FE45
:100A100095F8AE3C94F8312B6BB172B9A4F64560F1
:100A200085F897320EF0C7FC012384F8313B04E0CF
:100A300085F83E1FCCE7002AF7D11E4C1E4B94EDE3
:100A4000006A04F26450A3F11802B7EEC66AA2F17C
:100A500018019FED095B86EE057B9FED096B27EE84
:100A6000067BB7EEC77B87ED007A12F0BDFC04F57C
:100A7000F86013F031FD45E700000000006AF8401F
:100A80000000000000408F4088B40020003000408B
:100A9000ACAE0020C4C50020ACC400207CB800204F
:100AA0005CC4002048C5002084C100204CC2002046
:100AB00059C5002070C800205CB70020074CA4F581
:100AC000777508B50EF05AFC0028FBD020460EF0D2
:100AD00070FC28460CF0C8FAF4E700BF64B80020A8
:100AE0002DE9FF41002444F61F6707F0BDFF039086
:100AF0000A2103A808F0D8F8BC42164D4FF00006B2
:100B000094BF0A340024A84698BFA4B298F80430D1
:100B1000B342EDDDEB7DB3B92A8BB2F5FA7F15D088
:100B2000B2F5FA6F14D0642A08BF0A231344B4FB49
:100B3000F3F203FB124333B9281D01900BF0ACFE16
:100B400001980EF038FC01361835DFE71423EDE785
:100B50001E23EBE788B400202DE9F043624E85B0F8
:100B60000024DFF8C09106F57A7807F07DFF039046
:100B70000134322103A8A4B208F096F8132C02D94C
:100B800000240BF041FC594813F062FD3046584FE9
:100B900011F0EDFC78B1574B1B78012B40F08880A9
:100BA000554A13783BB10023082102F214601370F8
:100BB00000930EF009FC404611F0D9FC88B14F4873
:100BC0000378012B0DD190F8BA3100F5DD7243B1F5
:100BD0000023272180F8BA3100F2E63000930EF0AE
:100BE000F3FB304611F0C6FCD0B1002501230DF116
:100BF0000B025C218DF80B302B46414800950EF01E
:100C000058FC3C4A2B465D2102F2CE7000950EF056
:100C100050FC02225C213A480EF0A9FC394B1D70B1
:100C2000404611F0A7FCD0B1002501230DF10B02C5
:100C30005E218DF80B302B46314800950EF039FCC3
:100C40002E4A2B465F2102F2E63000950EF031FC71
:100C500002225E212A480EF08AFC2B4B1D702B4885
:100C60000EF090FF2A480EF08DFF2A4D2A480EF014
:100C700089FF2A480EF086FFD5ED327A95ED000AFD
:100C800005F5C67030EE270A12F0FBF905F5157070
:100C90000EF0D2FC05F525700EF0CEFC07F5E05203
:100CA0001378272B12D8013313700BF015FC5FE774
:100CB000022B80D11A4A1378002B3FF47CAF00231B
:100CC000092102F5BF601370009372E741F60143FA
:100CD000FA5C0AB10022FA5400224FF480614846BF
:100CE00002F08EF8E1E700BF48C5002030D00020B8
:100CF00088B400204AC5002004C7002032C9002063
:100D000018CD00205CC5002044C90020D4BF0020BD
:100D10001CC0002088C1002064C00020ACC000209E
:100D200020C7002000080240F0B56425F9B0192062
:100D300000240EF0F3FCB2EE040A904B03224FF4B1
:100D40007A7104A800954FF47A760EF0B9FCB2EEF1
:100D5000040A8B4B04224FF47A7108A800950A27E5
:100D60000EF0AEFCB2EE040A864B05224FF47A7107
:100D70000CA800950EF0A4FCB2EE040A824B0622E9
:100D80004FF47A7110A800950EF09AFC9FED7F0A3F
:100D90007F4B07223221009414A80EF091FC9FEDA6
:100DA0007B0A7C4B08223221009418A80EF088FCA4
:100DB000B7EE000A784B0922322100941CA80EF0ED
:100DC0007FFCB7EE000A754B0A221921009420A877
:100DD0000EF076FCB7EE000A714B0B22192100943D
:100DE00024A80EF06DFCB2EE040A6E4B0C224FF4F8
:100DF0007A71009428A80EF063FC9FED640A6A4B98
:100E00000D224FF47A7100942CA80EF059FC9FED3E
:100E10005F0A664B0E224FF47A71009430A80EF0F0
:100E20004FFCB2EE040A624B0F224FF47A71009429
:100E300034A80EF045FCB2EE040A5E4B10224FF4CB
:100E40007A71009438A801240EF03AFCB2EE040A3C
:100E5000594B112232213CA800960EF031FCB2EE23
:100E6000040A564B1222322140A800960EF028FCAC
:100E7000B2EE040A524B1322322144A800960EF01F
:100E80001FFCB2EE040A4F4B1422322148A80096F0
:100E90000EF016FCB7EE000A4B4B152229464CA863
:100EA00000940EF00DFCB7EE000A484B16222946BE
:100EB00050A800940EF004FCB7EE000A444B172231
:100EC000294654A800940EF0FBFBB7EE000A414BF4
:100ED0001822294658A800940EF0F2FB9FED3E0A16
:100EE0003E4B192232215CA800970EF0E9FB9FEDE2
:100EF0003A0A3B4B1A22322160A800970EF0E0FB21
:100F0000B7EE000A374B1B22C82164A800940EF0EC
:100F1000D7FBB7EE000A344B1C22C82168A8009406
:100F20000EF0CEFBB7EE000A304B1D2231466CA806
:100F300000940EF0C5FBB7EE000A2D4B1E22314681
:100F400070A800940EF0BCFBB7EE000A294B1F22DC
:100F5000294674A800940EF0B3FB0EF027FD18B1DB
:100F6000254B186807F0C4FC07F07EFD039019219B
:100F700003A807F099FE0EF003FCF8E720C000205C
:100F8000D8BF0020B0C0002068C000200000C842C8
:100F900050C2002088C10020F8C0002088B800207E
:100FA00034BC00207CD0002080D0002084D00020E1
:100FB00044D0002048D000205CC4002084C400201D
:100FC00020C500203CC500204CC5002054C5002091
:100FD00034C900203CC9002000007A4408C6002023
:100FE000F0C900202CC7002014CB00202CC8002002
:100FF00034C800200CC50020D8070020F0B5B9B0D7
:101000002C220021022509A8012613F043FC1422FA
:10101000002102A813F03EFC9022002114A813F036
:1010200039FC274B4FF4800106271A6C07A80024CF
:1010300042F080521A641B6C03F080530093009BB3
:10104000204B1A6842F440421A6009221B6812972A
:1010500003F440430193019B4FF48033CDE9072310
:101060000823CDE90E134FF4C073CDE90C65CDE92B
:10107000103501F043FF01F009FF0F23394602A8A4
:10108000CDE902354FF4C053CDE904434FF480530A
:10109000069302F027F90C4B14A81C961493C02356
:1010A000279419934FF00063CDE91A55CDE91E64DA
:1010B000CDE92544CDE9333402F0F2F939B0F0BD81
:1010C0000038024000700040C001A0002DE9F04F40
:1010D00095B0C94D00F0E9FE0024FFF78FFF142200
:1010E00000210DA813F0D6FB2B6B00224EF290517D
:1010F00043F01003C148012610272B634FF0040969
:101100002B6B4FF007084FF0050A4FF0600B03F010
:1011100010030493049B2B6B43F004032B632B6B92
:1011200003F004030593059B2B6B43F080032B63B3
:101130002B6B03F080030693069B2B6B43F001039C
:101140002B632B6B03F001030793079B2B6B43F07F
:1011500002032B632B6B03F002030893089B2B6B9A
:1011600043F008032B632B6B03F008030993099BDF
:1011700001F046FE002248F20341A14801F040FE82
:10118000002224219F4801F03BFE0DA99B481094AA
:101190000F96CDE90D7601F047FD48F203430DA906
:1011A0009748CDE90D36CDE90F4401F03DFD0DA97D
:1011B00093480F94CDE90D9401F036FD2822924B0F
:1011C0000DA98F480F94CDE90D2301F02DFD43F2B9
:1011D00002030DA98B480F94CDE90D3401F024FDD5
:1011E00024230DA98748CDE90D36CDE90F4401F040
:1011F0001BFD4EF280530DA98048CDE90D36CDE997
:101200000F4401F011FD22460721092001F0CEFA1A
:10121000092001F0FDFA22460721172001F0C6FA45
:10122000172001F0F5FA2B6B2246072143F4001337
:1012300038462B632B6B03F400130293029B2B6B3A
:1012400043F480032B632B6B062503F48003039385
:10125000039B01F0ABFA384601F0DAFA2246072187
:10126000382001F0A3FA382001F0D2FA22460621F4
:101270003B2001F09BFA3B2001F0CAFA22460621EE
:10128000452001F093FA452001F0C2FA3A46214682
:101290000DA813F0FFFA5D4F5D494FF44033384617
:1012A000BC6087F82040FC62FC607C613E61BE61EE
:1012B000C7F81C8087F83060C7E90013554BBB6244
:1012C00000F022FE0DA93846CDF83C90CDE90D6620
:1012D00000F09AFF02230DA93846CDE90D3300F046
:1012E00093FF03230DA938460E93CDF8349000F0F8
:1012F0008BFF0DA93846CDE90DA900F085FF0DA99A
:101300003846CDE90D5A00F07FFF0DA938464FF061
:10131000200ACDE90D8500F077FF0E230DA9384690
:101320004FF44027CDE90D3800F06EFF3A483B4BB3
:10133000C0E900354FF48013C0E904734FF08073A7
:10134000374F83614FF480738383C0E9024401F017
:1013500001F8344B344A4FF4804C1C61C3E900243B
:101360005022C3E90244C3E905C204F051FFDFF88B
:10137000C4E02E484FF48273C0E900E34FF4E06309
:10138000846044610463C0E903344FF40073C0E92E
:10139000063A0823C0E908444363C0E90A4803F059
:1013A00077F821461C220DA80C94CDE90A4413F0CD
:1013B00071FA1F4A4FF496633846C7F808A0BC611B
:1013C000C7E90024C7E9033403F08EFD0AA93846B3
:1013D0000A940C9403F0C6FE08230DA938460F9416
:1013E0001A461194CDE90DB403F0D0FD384600F053
:1013F0007DFB1C2220E000BF0038024000100240AC
:10140000000802400004024000001110C0B3002098
:10141000002001400100000F94D200200064004031
:1014200080AF0020BCAE0020002C01408CD00020FA
:10143000000400400034014021460DA8724F0C9476
:10144000CDE90A4413F026FA704B3846C7F808A0D5
:10145000BC61DFF81CA2C7E900344FF49663C7E90A
:10146000033403F041FD0AA938460A940C9403F0B2
:1014700079FE0C220DA938460F941194CDE90DB4D4
:1014800003F084FD384600F031FB61484FF4E1235E
:101490000C27DFF8E0B1C0E90449C0E900A34FF42C
:1014A000E139C0E90244C0E90644C0E9084404F057
:1014B0002BFB5848584B04614462C0E90039C0E92D
:1014C0000244C0E90574C0E9074404F01DFB534819
:1014D000302384608461C0E900B34FF6FF73C0E934
:1014E000033403F0E7FC04F041FE4D484D4BC0E9E6
:1014F0000244C0E90039C0E90447C0E90644C0E934
:10150000084404F001FB4848484A4FF482734FF402
:10151000007184604661C0E900234FF4E063C0E9D4
:1015200003342823C0E90844C0E90613C0E90A4887
:10153000C0E90C4402F0ACFF04F1804408F0C0FAAA
:101540003B4A04F50434936843F48053936009F0F4
:101550006FF809F0D5FA09F075FB09F0D5FB09F031
:101560008DFC09F0ABFC09F0D9FC09F0F7FC09F09F
:1015700001FD09F027FD0AF01FFF09F0A9FE0AF09E
:10158000E1FC0AF031FF4FF40051204601F03DFC30
:10159000642000F0A7FC013DF5D1264B4FF44072CA
:1015A0002549012401930423244800932B4607F086
:1015B00071F9234B4FF4C072224901932B46224804
:1015C000009407F067F9214B4FF42072204921481D
:1015D000CDE900432B4607F05DF91F4B4FF44072F5
:1015E0001E491F48CDE900432B4607F053F91D4B18
:1015F0004FF4A0621C491D48CDE900432B4607F07B
:1016000049F906F04DF9FEE740AF0020000C00401C
:1016100014D200202CAE002000480040BCD2002094
:1016200008B4002000100140B0D10020003001407B
:10163000002004E0D4070020D8560108E108000883
:10164000D0070020E5560108590B0008CC07002000
:10165000F0560108E10A0008C8070020FB560108FF
:10166000BD0A0008D807002006570108290D000808
:101670000044004000200040074B41F27F029A5C8A
:1016800012B9064812F0F5BB012A01BF41F27E01F2
:101690005A5C01325A54704788B40020ACC4002010
:1016A0000268034B9A4201D100F00ABC704700BFA8
:1016B00000140040704700000D4B82B00F216FF006
:1016C00001001A6C42F080521A641A6C02F08052C7
:1016D0000092009A5A6C42F480425A6400225B6C79
:1016E00003F480430193019B02B001F05FB800BF97
:1016F0000038024070B588B006461422002103A8C5
:1017000013F0C8F83268294B9A424CD103F58C3358
:101710000025032403A95A6C254842F480725A64B8
:101720005A6C02F480720092009A1A6B42F0010225
:101730001A631A6B02F001020192019A1A6B42F0CD
:1017400004021A631B6B059503F004030293029BCA
:10175000F623CDE9033401F067FA102303A91548F5
:101760000595CDE9033401F05FFA134C134B4FF4A8
:1017700080624FF480412046C4E900354FF4805325
:10178000C4E904234FF48073C4E906134FF4803393
:10179000C4E90255C4E9083501F072F808B1FFF751
:1017A00089FFB463A66308B070BD00BF002001408C
:1017B0000000024000080240F0D000201064024007
:1017C00010B588B004461422002103A813F062F873
:1017D0002268144B9A4222D103F5EA3300211248C1
:1017E0001A6C42F000721A641A6C02F000720192D4
:1017F000019A1A6B42F001021A634FF4C0521B6B3C
:1018000003F001030293029B0223CDE90323032388
:10181000CDE90513092303A9079301F005FA08B0E0
:1018200010BD00BF00640040000002402DE9F043FD
:1018300089B005461422002103A813F02BF82A686A
:101840004D4B9A4240F0948003F586330C244FF0C0
:10185000020900265A6C03270DEB0401474842F4A5
:1018600000624FF004085A645A6C02F4006200925D
:10187000009A1A6B42F004021A631A6B02F0040217
:101880000192019A1A6B42F008021A631B6B0794CB
:1018900003F008030293029B4FF48853CDE90567D8
:1018A000CDE9033901F0C0F90DEB04013448079488
:1018B000344CCDE90389CDE9056701F0B5F94FF066
:1018C0000063DFF8CCE04FF480694FF480424FF4BE
:1018D00000012046A762C4E900E34FF48053C4E945
:1018E00004932023C4E906234FF40033C4E90838E5
:1018F0004FF40013C4E90266C4E90B1300F0C0FF03
:1019000008B1FFF7D7FE4FF000631F4A2C64402157
:10191000A5634FF480601D4C4FF480464FF40037B0
:101920004FF0030CC4E900230023C4E902134FF471
:101930008053C4E9040320232046C4E9066304233A
:10194000C4E908734FF40003C4E90AC34FF4001359
:10195000236300F095FF08B1FFF7ACFE31200022B1
:101960000621EC63A56300F021FF312000F050FF59
:1019700009B0BDE8F08300BF002C01400008024020
:10198000000C024050D10020A0640240FCD2002094
:101990005864024014220021F0B58BB004460DEBD0
:1019A000020012F077FF23682D4A934235D12D4B68
:1019B0000227002603255A6C052405A92A4842F46B
:1019C00080525A645A6C02F480520092009A1A6B48
:1019D00042F008021A631A6B02F008020192019A9F
:1019E0001A6B42F002021A631B6B099403F00203A4
:1019F0000293029B8023CDE90765CDE9053701F00D
:101A000013F9182305A919480994CDE90537CDE93B
:101A1000076501F009F90BB0F0BD154A9342FAD100
:101A2000104B002113485A6C42F400525A645A6C0D
:101A300002F400520392039A1A6B42F010021A63E6
:101A400064221B6B03F010030493049B0223CDE973
:101A500005230323CDE90713052305A90993D8E737
:101A60000030014000380240000C024000040240F7
:101A70000034014000100240036882B00E4A9342D5
:101A80000BD10E4B1A6C42F002021A641B6C03F06D
:101A900002030093009B02B07047094A9342FAD1B7
:101AA000064B1A6C42F008021A641B6C03F0080320
:101AB0000193019BEFE700BF0004004000380240A3
:101AC000000C0040026882B0074B9A420AD103F52D
:101AD00006331A6C42F480721A641B6C03F4807330
:101AE0000193019B02B070470020004010B588B000
:101AF00004461422002103A812F0CCFE2368194AE0
:101B0000934217D1184B012118481A6B42F0020278
:101B10001A6300221B6B03F002030193019B022353
:101B2000CDE9031303A90793CDE9052201F07CF861
:101B300008B010BD0E4A9342FAD10B4B03A90D48D1
:101B40001A6B42F001021A6308221B6B03F00103B7
:101B50000293029B0223CDE9032300220793CDE9E0
:101B60000522E3E700040040003802400004024080
:101B7000000C00400000024070B58CB006461422F4
:101B8000002107A812F086FE3368494A934222D109
:101B9000484B00215A6C42F010025A645A6C02F011
:101BA00010020192019A1A6B42F002021A634FF47A
:101BB00040421B6B03F002030293029B0223CDE918
:101BC00007230323CDE90913042307A93A480B93FC
:101BD00001F02AF848E0394A934247D1354B60205A
:101BE000002507A91A6C364C42F400321A641A6CAC
:101BF00002F400320392039A1A6B42F008021A634D
:101C00001B6B03F008030493049B0223CDE9070335
:101C100003232C48CDE9095307230B9301F004F863
:101C20004FF00063DFF8A4C04FF4807E2046A5612A
:101C30006562C4E900C34FF48063C4E904354FF41E
:101C40008033C4E90255C4E907E300F019FE08B186
:101C5000FFF730FD262000220721F466A66300F07E
:101C6000A5FD262000F0D4FD0CB070BD164A9342AD
:101C7000FAD1104B00211A6C42F480221A641A6CBB
:101C800002F480220592059A1A6B42F002021A634E
:101C90004FF440621B6B03F002030693069B022382
:101CA000CDE907230323CDE9091307238DE700BFFF
:101CB000001001400038024000040240004400408F
:101CC00030930020000C0240004800408860024031
:101CD00010B5014688B00022372000F067FD37209C
:101CE00000F096FD144B01A903A81A6C134C42F0A6
:101CF00020021A641B6C03F020030293029B01F084
:101D0000B1FB01F08FFB0E4B4000236040F2E73344
:101D1000E3600C4BB0FBF3F0013800236060204619
:101D20002361A36003F0C6F820B9204602F092FFB9
:101D300008B010BD0120FBE7003802405CD3002052
:101D40000014004040420F00704700000C2107487B
:101D500008B503F0D5F902210548002201F050F83A
:101D60000821044803F0CCF9FEE700BF40AF002093
:101D70000008024080AF0020FEE7FEE7FEE7704764
:101D800008B50421094801F035F8094A01284FF047
:101D90000800B2F85E3F0CBF013303F1FF331BB202
:101DA000A2F85E3FBDE8084001F036B800080240E6
:101DB00088B40020014800F077BE00BF30930020B7
:101DC00008B50221094801F015F8094A01284FF029
:101DD0002000B2F89E3F0CBF03F1FF3301331BB26A
:101DE000A2F89E3FBDE8084001F016B8000402408A
:101DF00088B40020014803F0E9BA00BF14D20020E3
:101E0000014802F08FB900BFBCAE0020014802F0CB
:101E10003BBF00BF5CD30020014800F045BE00BFBF
:101E2000F0D00020014800F03FBE00BF50D100209C
:101E3000014800F039BE00BFFCD20020054BD3F8AA
:101E4000882042F47002C3F888204FF000629A6044
:101E5000704700BF00ED00E0DFF834D0002103E060
:101E60000C4B5B58435004310B480C4B42189A42C0
:101E7000F6D30B4A02E0002342F8043B094B9A4296
:101E8000F9D3FFF7DBFF12F0B9FCFFF71FF970473A
:101E900000000820385D0108000000200401002037
:101EA000040100208CFF0020FEE708B5032000F0AD
:101EB0006BFC0020FFF70CFFFFF7FEFB002008BDC6
:101EC000034A044B11681B780B441360704700BF32
:101ED0009CD3002004000020014B1868704700BF0D
:101EE0009CD3002038B50446FFF7F6FF0546631C77
:101EF0001EBF044B1B78E418FFF7EEFF431BA34201
:101F0000FAD338BD0400002038B50446002800F09C
:101F10009B80056C25B9FFF7EDFB656484F83C50A8
:101F2000236CDB0600F18E80236C23F4885323F0AE
:101F3000020343F002032364444B5A6822F4403204
:101F40005A605A6861680A435A60236821695A686E
:101F500022F480725A605A6842EA0122A1685A60EB
:101F60005A6822F040725A605A680A43E1685A601F
:101F70009A6822F400629A609A680A4334499A6027
:101F8000A26A8A4252D0996821F07061996099687A
:101F90000A43E16A9A609A6822F040529A609A680D
:101FA0000A439A609A68A16922F002029A609A68CC
:101FB00042EA41029A6094F82020002A3ED05A68F2
:101FC000616A42F4006201395A605A6822F4604240
:101FD0005A605A6842EA41325A600020DA6AE1697E
:101FE00022F470020139DA62DA6A42EA0152DA62F4
:101FF0009A6822F400729A609A6894F8301042EA63
:10200000412261699A609A6822F480629A609A68B3
:1020100042EA81229A606064236C23F0030343F058
:1020200001032364002384F83C3038BD9A6822F011
:1020300070629A609A6822F04052B2E75A6822F4BD
:102040000062C9E70120EDE70120EEE7002301402F
:102050000100000F37B5134600220446019290F8A4
:102060003C20012A73D00122056880F83C20AA6830
:10207000D00705D5AA68D20715D4002003B030BD1B
:10208000AA6842F00102AA60324A1068324AB0FBE4
:10209000F2F000EB40000190019A002AEAD0019A88
:1020A000013A0192F8E7206C20F4E06020F0010092
:1020B00040F4807020646A68500505D5206C20F4D7
:1020C000405040F480502064226C12F4805202D0C0
:1020D000626C22F0060262640022A06B84F83C204D
:1020E0001E4AC2631E4A02641E4AC2646FF0220284
:1020F0002A606A6842F080626A60AA6842F480726C
:10210000AA600A4605F14C0100F03AFC164A5368F1
:1021100013F01F0F236808D1986810F04050ACD11D
:102120009A6842F080429A60A8E710498B4207D132
:10213000996811F0405F03D1996841F0804199603E
:102140005268D20699D40A4A934296D1E4E7022013
:1021500094E700BF0000002040420F009B210008D0
:10216000792100088521000800230140002001405A
:102170000022014070477047806B08B5FFF7FBFFF6
:1021800008BD7047806B08B540230364436C43F07F
:1021900004034364FFF7F5FF08BD836B1A6C12F06C
:1021A000500F1A6C10B523D142F400721A641A68E9
:1021B000916811F0405F17D19969A9B9D16A11F4FA
:1021C000700F02D0916848050ED4516821F02001AB
:1021D00051601A6C22F480721A641A6CD10403D410
:1021E0001A6C42F001021A641846FFF7C3FF10BDD3
:1021F000D20603D51846FFF7C4FFF8E79B6BBDE88E
:102200001040DB6C184700000023F7B5019390F8ED
:102210003C30012B75D0012380F83C300D680368F9
:10222000AEB2092D8A6806EB46043AD9B5F1004FE3
:1022300037D01E3C4FF0070CDF680CFA04FC27EA8D
:102240000C07DF603E4FBD4226D1DC6844EA0264E1
:10225000DC604968062901EB810230D8053A1F2469
:10226000596B944006FA02F221EA04015963596B52
:102270000A435A63334A934208D1B5F1004F42D121
:10228000D2F8043323F44003C2F80433002380F867
:102290003C30184603B0F0BDDF6802FA04F43C435A
:1022A000D6E74FF0070C1F690CFA04FC02FA04F49D
:1022B00027EA0C071F611F693C431C61C9E70C2911
:1022C0004FF01F010BD8233A1C6B914006FA02F223
:1022D00024EA01011963196B0A431A63CAE7413AF8
:1022E000DC6A914006FA02F224EA0101D962D96A55
:1022F0000A43DA62BEE7144A536843F4800353602A
:10230000C4E70220C6E7122DF5D00D4B9D4201D047
:10231000112DBBD10C499D424A6842F400024A602B
:10232000B4D10A4B0A4A1B68B3FBF2F20A235343A7
:102330000193019B002BA9D0019B013BF8E700BF53
:102340001200001000200140002301400000002086
:1023500040420F0038B5044600286ED090F8203077
:102360000BB9FFF72DFA2268136823F002031360FC
:10237000FFF7B2FD054623685A68910751D41A68E1
:1023800042F001021A60FFF7A7FD054623685A686C
:10239000D20754D5227E0020012A1A680CBF42F0D1
:1023A000800222F080021A60627E012A1A680CBF45
:1023B00042F0400222F040021A60A27E012A1A680E
:1023C0000CBF42F0200222F020021A60E27E012AB5
:1023D0001A680CBF22F0100242F010021A60227F2D
:1023E000012A1A680CBF42F0080222F008021A60A3
:1023F000627F012A1A680CBF42F0040222F0040234
:102400001A60D4E902210A4321690A4361690A4337
:10241000616801390A43DA610123606284F820307F
:1024200038BDFFF759FD401B0A28A4D9636A43F45D
:1024300000336362052384F820300120F0E7FFF7C2
:102440004BFD401B0A28A1D9F0E7000070B590F8B9
:102450002030013B012B77D803683E4A3E48934227
:102460000CBF13460346D3F80022834242F0010218
:10247000C3F800220CD1D3F8002222F47C52C3F816
:102480000022D3F80022486A42EA0022C3F8002260
:102490004A690124D3F81C5202F01F0004FA00F02C
:1024A00025EA0005C443C3F81C52CD6985BBD3F8A7
:1024B0000C5203EBC202CE682540C3F80C528D8843
:1024C00045EA06458E68C2F840520D8845EA064541
:1024D000C2F844528A696ABBD3F804222240C3F886
:1024E00004220A6952BBD3F814221440C3F81442E0
:1024F0000A6A012A04D1D3F81C221043C3F81C0233
:10250000D3F80022002022F00102C3F8002270BD9F
:10251000012DDFD1D3F80C5203EBC2020E68054344
:10252000C3F80C528D8845EA06458E68C2F84052C1
:102530008D89CBE7D3F804220243D0E7D3F81422E5
:102540000243C3F81422D3E7436A43F4802343626F
:102550000120DCE7003400400064004070B590F8D2
:1025600020300446012BDDB220D10268022380F81E
:102570002030136823F001031360FFF7ADFC06461B
:1025800023685B6813F0010302D11D4663620BE010
:10259000FFF7A2FC801B0A28F2D9636A43F40033D8
:1025A0006362052384F82030284670BD436A012504
:1025B00043F400234362F7E7F0B590F82050066833
:1025C000013DB468012D40D814F0E05F39D0C4F368
:1025D00001640125032C05D1436A43F400034362DF
:1025E000012028E0A5401D6004F11803D1E902078D
:1025F00010BB086847EA40501B01F05006EB04137B
:102600000D692001C3F88451097D012905D1D3F852
:10261000841141F48071C3F884115168064400208C
:10262000C6F88C111268C6F88821D3F8802142F0D0
:102630000102C3F88021F0BD4D68384340EAC5006F
:10264000DAE7436A43F40013C9E7436A43F480239B
:10265000C5E790F82030013B012B0CD8036898683F
:102660009A68C0F380609B68120148BF0130DB00AC
:1026700002D50130704700207047F0B590F8204037
:10268000013C012C6CD8066841B9F468A40707D155
:10269000436A43F400134362012056E03469F5E7CE
:1026A00006EB01150C01D5F8B07107F0040797602F
:1026B000002F4BD1D5F8B0717F0D1760D5F8B071F0
:1026C000264407F00207D760D5F8B47107F00F076A
:1026D0001761D5F8B471D5F8B451C7F307272D0C9D
:1026E00097615561D6F8B8211A7002682244D2F871
:1026F000B821120A5A7002682244D2F8B821120C8A
:102700009A7002682244D2F8B821120EDA70026878
:102710002244D2F8BC211A7102682244D2F8BC21AA
:10272000120A5A7102682244D2F8BC21120C9A7122
:1027300002681444D4F8BC21120EDA71036851B94E
:10274000DA6842F02002DA600020F0BDD5F8B071FE
:10275000FF085760B2E71A6942F020021A61F3E7F6
:10276000436A43F4802396E790F82030013B012B25
:1027700007D8036819B9D86800F0030070471869D2
:10278000FAE700207047000007490302CA6803F413
:10279000E06322F4E0621204120C134343F0BF63BF
:1027A00043F40033CB60704700ED00E0164B30B5CA
:1027B000DC68C4F30224C4F10705231D042D28BFDF
:1027C0000425062B4FF0FF338CBF033C002403FA93
:1027D00005F5002803FA04F321EA050122EA0302C1
:1027E00001FA04F141EA02034FEA0313DBB206DB0C
:1027F00000F1604000F5614080F8003330BD00F02A
:102800000F00024A1354F9E700ED00E014ED00E078
:10281000002808DB4209012300F01F0003FA00F042
:10282000014B43F82200704700E100E000280DDB77
:102830004309012200F01F00203302FA00F0044A8D
:1028400042F82300BFF34F8FBFF36F8F704700BF75
:1028500000E100E0036802461820D9B21039B1FB4C
:10286000F0F010B5054C5F29205CD06523F47F7033
:1028700020F0030088BF0430906510BD2657010882
:1028800070B50446FFF728FB0546002C73D00023E3
:10289000226884F83430022384F83530136823F03A
:1028A0000103136021680B68D8072FD40B68334DE0
:1028B000A0691D40D4E901231343E2681343226950
:1028C000134362691343E26903431343226A1343C8
:1028D000626A042A43EA050302BFD4E90B56354372
:1028E0002B43042A0B604B6923F0070343EA0203DE
:1028F00033D1A26AE56A13437DB390B9012A21D08E
:1029000032F0020229D1EA0127D51EE0FFF7E4FAEE
:10291000401B0528C6D920230320636584F83500B1
:1029200070BDB0F5005F14D1032A16D801A050F88D
:1029300022F000BF4B290008072900084B29000896
:1029400045290008B5F1C07F07D140230120636508
:10295000E4E7022AF9D9032AD5D04B612046FFF7D4
:1029600079FFE26D3F23934083600020012360657F
:1029700084F83530D4E70120D2E700BF3F8010E073
:1029800070B590F83440866D012C34D001240025B8
:1029900080F8344090F83540012C4FF0020428D1E3
:1029A00080F8354004684565256825F48025256054
:1029B00063608368402B19D1A260E160C26D3F2340
:1029C0009340B360236843F016032360636943F0C8
:1029D00080036361036C1BB1236843F00803236029
:1029E0002368002043F00103236070BDA160E26012
:1029F000E4E780F834500220F7E770B50446866DAE
:102A0000FFF76AFA054694F83530022B06D080238A
:102A100001206365002384F8343070BD23681A6890
:102A200022F016021A605A6922F080025A61226C62
:102A30000AB9A26C1AB11A6822F008021A601A6860
:102A400022F001021A6023681B6813F001030AD107
:102A5000E16D3F2218468A40B260012284F834308A
:102A600084F83520D9E7FFF737FA401B0528EAD963
:102A7000202303206365002384F8350084F8343074
:102A8000CBE790F83530022B03D08023436501203B
:102A900070470268052380F835300020136823F062
:102AA00001031360704700000023F7B5019308226B
:102AB0005B4B0446856D1F68C36D2E689A40324299
:102AC0000CD001680868400708D5086820F00400A9
:102AD0000860AA60626D42F00102626501229A40BC
:102AE000324208D021684969090604D5AA60626D9E
:102AF00042F00202626504229A40324208D0216804
:102B00000968880704D5AA60626D42F00402626514
:102B100010229A40324210D02368196809070CD558
:102B2000AA601A68500337D51B68190301D4236CB7
:102B300000E0A36C0BB120469847E16D20228A404B
:102B400032423AD023681868C60636D5AA6094F88F
:102B50003520052A1A6827D122F016021A605A6910
:102B600022F080025A61226C0AB9A26C1AB11A686A
:102B700022F008021A603F238B40AB60002384F8E8
:102B80003430012384F83530236D002B45D02046A6
:102B900003B0BDE8F04018471A68D205C7D41A68D8
:102BA00022F008021A60C2E7500327D51B681903F8
:102BB00031D4636C0BB120469847636D6BB3636D82
:102BC000DA0719D54FF416532268B7FBF3F705233C
:102BD00084F83530136823F001031360019B01333F
:102BE000BB42019302D81368DB07F7D4002384F8B3
:102BF0003430012384F83530E36CC6E71A6812F4E8
:102C0000807208D1196821F010011960012384F83D
:102C1000342084F83530E36BCCE703B0F0BD00BF5F
:102C200000000020406D70472DE9F74F0023DFF8CA
:102C3000BC816C4ADFF8B89101240D689C4004EA1D
:102C40000506AC4340F0B4804C684FEA430E0325C0
:102C500024F0100C05FA0EF50CF1FF37ED43012FAF
:102C600011D8876807EA050ACF6807FA0EF747EA1E
:102C70000A078760476827EA060AC4F300179F40DF
:102C800047EA0A074760C768BCF1020F07EA050A6E
:102C90008F6807FA0EF747EA0A07C76016D14FEAAE
:102CA000D30A03F0070B4FF00F0C00EB8A0A4FEA30
:102CB0008B0BDAF820700CFA0BFC27EA0C0C0F696E
:102CC00007FA0BF747EA0C07CAF8207007683D407F
:102CD00004F0030707FA0EFE4EEA05050560E5005D
:102CE00066D5D8F8445023F0030703F0030C4FF0E7
:102CF0000F0E45F4804507F180474FEA8C0CC8F869
:102D0000445007F59C37D8F8445005F480450195A8
:102D1000019D0EFA0CF5D7F808A02AEA050E324DEF
:102D2000A8424CD005F58065A8424AD005F58065DB
:102D3000A84248D005F58065A84246D005F58065D3
:102D4000A84244D0484544D005F50065A84242D089
:102D500005F58065A84240D005F58065A8423ED0C3
:102D600005F58065A8420CBF09250A2505FA0CF572
:102D700014F4803F45EA0E05BD606FEA060715684A
:102D80000CBF3D40354314F4003F156055680CBF3F
:102D90003D40354314F4801F556095680CBF3D409D
:102DA0003543A4029560D56854BF3D403543D56096
:102DB0000133102B7FF440AF03B0BDE8F08F002546
:102DC000D4E70125D2E70225D0E70325CEE7042585
:102DD000CCE70525CAE70625C8E70725C6E7082585
:102DE000C4E700BF003C0140000002400038024040
:102DF000001402400369194214BF012000207047EB
:102E00000AB1816170470904FBE743690B4218BFAF
:102E10000904816170477047044A5169014208B54D
:102E200002D05061FFF7F7FF08BD00BF003C014032
:102E300038B5044610B303684CF6CC421A6045F22C
:102E400055521A6042685A6082689A60FFF744F8E7
:102E500005462268D36833B91069E168884209D011
:102E60001161184638BDFFF737F8401B3028F0D9FC
:102E70000320F7E74AF6AA211160F2E70120F1E703
:102E800003684AF6AA2200201A607047194B37B52A
:102E90001A6C194C42F080521A641B6C03F0805378
:102EA0000193019B236843F480332360FFF714F8F8
:102EB00005466368DA030CD523680F4D43F40033ED
:102EC0002360FFF709F804466B689B030AD50020CE
:102ED00006E0FFF701F8401BB0F57A7FE9D903203F
:102EE00003B030BDFEF7F8FF001BB0F57A7FEBD9D9
:102EF000F5E700BF00380240007000402DE9F341C3
:102F0000044640B30368D80710D42368990764D4F3
:102F10002368190700F1AA8023685A0700F1CB80C3
:102F2000A269002A40F0348100202BE0964B9A6879
:102F300002F00C02042A07D09A6802F00C02082A58
:102F40000BD15A68520208D58F4B1B689B03DCD506
:102F50006368002BD9D1012014E06268B2F5803F8C
:102F600013D11A6842F480321A60FEF7B5FF864E1C
:102F7000054633689F03C8D4FEF7AEFF401B6428A4
:102F8000F7D9032002B0BDE8F0817F4D2B6892B9DC
:102F900023F480332B602B6823F480232B60FEF70F
:102FA0009BFF06462B689803AFD5FEF795FF801B65
:102FB0006428F7D9E5E7B2F5A02F07D143F48023C1
:102FC0002B602B6843F480332B60CEE723F48033EF
:102FD0002B602B6823F48023F6E76B4B9A6812F082
:102FE0000C0F07D09A6802F00C02082A11D15A6817
:102FF00051020ED4644B1A68920702D5E268012A86
:10300000A9D11A68216922F0F80242EAC1021A60C5
:103010007EE7E268C2B11A685B4D42F001021A60B5
:10302000FEF75AFF06462B689F0707D52B682269D3
:1030300023F0F80343EAC2032B6069E7FEF74CFF75
:10304000801B0228EFD99CE71A684F4E22F001023C
:103050001A60FEF741FF0546336898077FF558AFC1
:10306000FEF73AFF401B0228F6D98AE76369464D0E
:1030700083B16B6F43F001036B67FEF72DFF0646CC
:103080006B6F9B073FF548AFFEF726FF801B0228BA
:10309000F6D976E76B6F23F001036B67FEF71CFF31
:1030A00006466B6F9F077FF537AFFEF715FF801B56
:1030B0000228F6D965E7344B1A6CD00027D41A6C75
:1030C000012742F080521A641B6C03F08053019375
:1030D000019B2E4D2B68D9051BD5A3682A4D012BCA
:1030E00027D12B6F43F001032B6741F28838FEF79D
:1030F000F3FE254E0546336F9B073FD5002F3FF467
:103100000FAF214A136C23F08053136408E70027A4
:10311000DFE72B6843F480732B60FEF7DDFE064685
:103120002B68DA05D9D4FEF7D7FE801B6428F7D9BF
:1031300027E7ABB92B6F41F2883823F001032B67E7
:103140002B6F23F004032B67FEF7C6FE06462B6F9A
:103150009807D3D5FEF7C0FE801B4045F7D910E78E
:10316000052B2B6F03D143F004032B67B9E723F042
:1031700001032B672B6F23F00403B5E7FEF7ACFECA
:10318000401B4045B7D9FCE60038024000700040C3
:103190003C4DAB6803F00C03082B42D02B68022A8D
:1031A00023F080732B602FD1FEF796FE06462B6826
:1031B000990123D4D4E907321343626A43EA8213A4
:1031C000E26A43EA0263226B43EA0273A26A52088C
:1031D000013A43EA02436B602B6843F080732B6033
:1031E000FEF77AFE274D04462B689A013FF59CAE08
:1031F000FEF772FE001B0228F6D9C2E6FEF76CFE4F
:10320000801B0228D3D9BCE6FEF766FE04462B6875
:103210009B017FF589AEFEF75FFE001B0228F6D901
:10322000AFE6012A6B683FF496AE03F48002E169D1
:103230008A427FF490AE03F03F02216A8A427FF413
:103240008AAE47F6C072616A1A40B2EB811F7FF402
:1032500082AEA26A03F440315208013AB1EB024F48
:103260007FF479AE03F07062E16AB2EB016F7FF434
:1032700072AE03F0E043226BB3EB027F3FF454AE37
:1032800069E600BF00380240134908B58B6803F0B7
:103290000C03042B1BD0082B1BD14A684B684968D0
:1032A00002F03F0213F48003C1F388111ABF0B48E8
:1032B00000230B48A1FB0001FDF77EF9064B5B687C
:1032C000C3F3014301335B00B0FBF3F008BD0348D7
:1032D000FCE70348FAE700BF0038024000127A001A
:1032E0000024F4002DE9F0410D46044610B90120F8
:1032F000BDE8F081464A136803F00F038B4228D3E0
:103300002268970730D4D00744D4414A136803F0A9
:103310000F03AB4267D82268510770D4130707D553
:103320003C4A2169936823F4604343EAC1039360F4
:10333000FFF7AAFF374B384A9B68C3F30313D35CEC
:10334000D840364B1860364B1868FEF7C1FC002099
:10335000CEE7136823F00F030B431360136803F0E9
:103360000F038B42C3D1CBE712F0040F294B03D0DC
:10337000996841F4E0519960160703D5996841F4C2
:10338000604199602349A0688B6823F0F0030343F0
:103390008B60B8E761681F4B01291A681BD112F4D2
:1033A000003FA4D09A6841F288381A4F22F00302F5
:1033B0000A439A60FEF790FD0646BB68626803F018
:1033C0000C03B3EB820FA0D0FEF786FD801B4045B7
:1033D000F3D903208CE7022902D112F0007FE0E745
:1033E00012F0020FDDE7136823F00F032B43136085
:1033F000136803F00F03AB427FF479AF8BE7054905
:10340000E0688B6823F4E05303438B6086E700BFDA
:10341000003C0240003802400E5701080000002026
:1034200008000020044B054A9B68C3F38223D35C49
:10343000034A1068D8407047003802401E57010800
:1034400000000020044B054A9B68C3F34233D35C61
:10345000034A1068D8407047003802401E570108E0
:10346000000000200F2303600B4B9A6802F0030258
:1034700042609A6802F0F00282609A6802F4E052B8
:10348000C2609B68DB0803F4E0530361034B1B68D5
:1034900003F00F030B60704700380240003C02400D
:1034A00003682DE9F74313F0010604460BD0BA4A2E
:1034B000916821F400019160466B91683143B6FA3E
:1034C00086F67609916013F4002512D0B249E56BB7
:1034D000D1F88C20B5F5801F22F4401208BF0126D8
:1034E00042EA050216BFB5FA85F500256D09C1F857
:1034F0008C20D90210D5A848216CD0F88C20B1F5C9
:10350000800F22F4400242EA0102C0F88C2000F051
:10351000A881002908BF012513F0807F18BF01266C
:103520009A0631D59C4B9D4F1A6C42F080521A641A
:103530001B6C03F080530193019B3B6843F4807341
:103540003B60FEF7C9FC80463B68DB0540F18B81A0
:10355000914F3B6F13F4407340F09081236B03F461
:103560004072B2F5407F8C4A40F0AE81916823F002
:10357000704021F4F81120F4407001439160C3F3CE
:103580000B03116F0B4313672368DA060CD5824ACD
:10359000D2F88C1021F08071C2F88C10D2F88C1007
:1035A000A06B0143C2F88C105F0408D57A49606EA5
:1035B000D1F8902022F440320243C1F89020180440
:1035C00008D57549A06ED1F8902022F4402202431C
:1035D000C1F89020D90308D56F49E06ED1F890204A
:1035E00022F440120243C1F890209A0308D56A4998
:1035F000206FD1F8902022F440020243C1F89020BD
:103600005F0608D56449606CD1F8902022F003026F
:103610000243C1F89020180608D55F49A06CD1F884
:10362000902022F00C020243C1F89020D90508D561
:103630005949E06CD1F8902022F030020243C1F8E1
:1036400090209A0508D55449206DD1F8902022F099
:10365000C0020243C1F890205F0508D54E49606D55
:10366000D1F8902022F440720243C1F8902018054E
:1036700008D54949A06DD1F8902022F44062024358
:10368000C1F89020D90408D54349E06DD1F89020C5
:1036900022F440520243C1F890209A0408D53E49D2
:1036A000206ED1F8902022F440420243C1F89020CD
:1036B0005F0208D53849A06FD1F8902022F08062CF
:1036C0000243C1F8902098020CD53348E16FD0F83E
:1036D0009020B1F1006F22F0006208BF01250A437B
:1036E000C0F8902013F0080F18BF0125590308D522
:1036F0002949606FD1F8902022F040720243C1F84E
:1037000090201A0209D52449D4F88000D1F89020DD
:1037100022F080520243C1F890205F0109D51E4972
:10372000D4F88400D1F8902022F000520243C1F86E
:103730009020180109D51849D4F88800D1F88C20B8
:1037400022F000720243C1F88C20D90040F13E8182
:10375000114A012ED4F88C10D2F88C3023F08063FB
:1037600043EA0103C2F88C3000F0B280012D76D11B
:10377000094D2B682E4623F080532B60FEF7ACFBDF
:1037800007462B689B0000F12E812268150307D5A0
:10379000E36B4BB104E000BF003802400070004012
:1037A000D0021CD5236CD3B9D6F88830D6F888104F
:1037B00003F4403301F0E0410B43616943EA8113B4
:1037C000A16943EA0163C6F88830D6F88C30A16A53
:1037D00023F4F853013943EA0123C6F88C309102EF
:1037E00015D5E36FB3F1006F11D18649D1F8883058
:1037F000D1F8880003F0706300F0E0400343606993
:1038000043EA8013206A43EA0043C1F88830120774
:1038100019D57C4AD2F88810D2F8883001F070614E
:1038200003F440330B43616943EA8113E16943EADE
:103830000173C2F88830D2F88C30E16A23F4403347
:103840000B43C2F88C306F4C236843F080532360E5
:10385000FEF742FB054623689B0040F1CB80002029
:1038600009E0012658E6FEF737FBA0EB08006428C4
:103870007FF66AAE032003B0BDE8F083226B02F44A
:1038800040729A423FF46AAE3B6F3A6F23F4407342
:1038900042F480323A673A6F22F480323A673B67EB
:1038A0003B6FD8077FF55AAEFEF716FB41F2883919
:1038B00080463B6F99073FF551AEFEF70DFBA0EB3D
:1038C00008004845F5D9D5E7916821F4F81155E687
:1038D0004C4E336823F080633360FEF7FDFA0746F1
:1038E00033681A0178D42268D30712D5636B83B981
:1038F000D6F88430D6F8841003F4403301F07061B8
:103900000B43616843EA8113A16843EA0173C6F877
:103910008430170303D5E36BB3F5801F05D0D602BF
:103920001ED5236CB3F5800F1AD13649D1F88430F7
:10393000D1F8840003F4403300F0E04003436068B2
:1039400043EA8013E06843EA0063C1F88430D1F8A9
:103950008C00636A20F01F00013B0343C1F88C30E8
:10396000D00111D52749D1F88430D1F8840003F073
:10397000706300F0E0400343606843EA801320690D
:1039800043EA0043C1F8843091010DD52369626890
:103990001B0443EA8213E26843EA0263A26843EA33
:1039A0000273184AC2F88430164E336843F08063BD
:1039B0003360FEF791FA074633681A013FF5D6AE39
:1039C000FEF78AFAC01B6428F6D953E7012E3FF4AC
:1039D0007FAFB3F1007FC7E6FEF77EFAC01B642815
:1039E0007FF67EAF46E7FEF777FAC01B64287FF6C6
:1039F000C8AE3FE7FEF770FA401B64287FF62BAF96
:103A000038E700BF00380240836B1A68D36B43F479
:103A10008073D363704700002DE9F041044686B0FF
:103A200015461F4641B9836B012643F0006383634B
:103A3000304606B0BDE8F08190F83430012BDEB29C
:103A400078D100233A448363C06D824204D9A36BCA
:103A500043F00073A363EBE7D4F800C00322206CAB
:103A60004FEA472884F83420CCF82C30DCF83C208E
:103A700042F49572CCF83C20304AC263304AC0E927
:103A800013230A464FEA98030CF18001FEF778FFF2
:103A9000226860B1D36B23F49573D363294B93638E
:103AA000A36B43F08043A36384F83460C0E7D36A18
:103AB0004FF40071104643F00803D362636C012B8E
:103AC00018BF6D0202F07FF948B123681D4A9A635E
:103AD000A36B18430123A06384F83430A8E74FF0A8
:103AE000FF339022049069462068CDE90038022314
:103AF000CDE902230123059302F052F9012F12D9D7
:103B0000822329462068236302F08DF9A0B123683F
:103B10000C4A9A63A36B18430123A06384F83430E2
:103B20000023236384E7812329462068236302F06E
:103B300062F9EBE702267BE7064679E7733C00086B
:103B400085400008FF0540002DE9F041044686B09D
:103B500015461E46884641B9836B012743F0006332
:103B60008363384606B0BDE8F08190F83430012B0D
:103B7000DFB275D1AB19C16D00228B42826304D9CB
:103B8000836B43F000738363EBE70323354980F8CD
:103B900034300068C262C36B43F01A03C363E36B43
:103BA000D9633149C3E91312636C4FF40071012BDF
:103BB00018BF6D0202F007F90346206843B12B4A93
:103BC0008263A06B0343A363012384F83430C8E706
:103BD000012E12D9A0232946236302F054F9054689
:103BE000226880B1214B93630123A06B0543A56339
:103BF00084F8343000232363B3E7902329462363FA
:103C000002F029F9EBE7D36A76028032414643F0AD
:103C10000803E06B42F8543CB308FEF7B1FE78B1FC
:103C20002368DA6B22F01A02DA63104A9A63A36BF4
:103C300043F08043A363012384F83430256390E785
:103C40004FF0FF33694620682F460495CDE90036D2
:103C50009023CDE902350123059302F0A1F880E716
:103C600002277EE7093A000885400008FF0540006A
:103C7000704710B5846B236B822B09D1206802F04A
:103C80001BF928B1A36B1843A0632046FFF7F0FF90
:103C900023682046DA6A22F00802DA6240F23A52D9
:103CA0009A63012384F834300023236302F0A3FADB
:103CB00010BD0000436E9A0F0A70C3F383624A700E
:103CC000C3F301628A70C3F30742CA70C3F30722C9
:103CD000DBB20A714B71836E1A0DCA80C3F30342C3
:103CE0000A72C3F3C0324A72C3F380328A72C3F3DA
:103CF0004032CA72C3F300320A7300224A73426C24
:103D000010B5002A6BD140F6FC74C26E04EA83033E
:103D100043EA92730B61C2F3C2630B75C2F3026391
:103D20004B75C2F342538B75C2F38243C2F3C23266
:103D3000CB750A760B690A7E013302F00702023264
:103D4000934043650A7A02F00F040122A240826583
:103D5000520A5343C3654FF400730366C36EC3F343
:103D600080324A76C3F3C61203F07F038A76CB769D
:103D7000036F0020DA0F0A77C3F341724A77C3F367
:103D800082628A77C3F38352CA77C3F3405281F8C1
:103D90002020C3F3004281F8210081F82220C3F3E0
:103DA000C03281F82320C3F3803281F82420C3F38A
:103DB000403281F82520C3F3003281F82620C3F376
:103DC000812281F82720C3F30122C3F3460381F83F
:103DD000282081F82930012381F82A3010BD012ADA
:103DE0000FD11B04B0F86E2003F47C1313430B6156
:103DF0000B6901339B024365C3654FF40073836510
:103E0000ABE70368054A9A63836B43F0805383638F
:103E1000012380F834301846E0E700BFFF0540007A
:103E20002DE9F041002398B004460B93CDE9093306
:103E3000CDE9073376230C930AAB93E8070007AB71
:103E40008DE8070020680ECB01F064FF054650BBEB
:103E50002068436823F48073436001F07FFF20688B
:103E6000436843F480734360069502F057F80546B3
:103E700098B9206802F078F830B12068A56402F0A3
:103E80004DF890B1054608E00123A36400212068A5
:103E900002F0A6F860B14FF08055012084F834009C
:103EA000A36B1D43A56301259BE0A36C012BEDD003
:103EB0004FF6FE760021DFF84481374614E0206893
:103EC00002F08EF805460028E7D14146206802F04E
:103ED0009FF80028DFD12946206801F05EFF069B8D
:103EE0000546C10F01330693069BB34201D8002952
:103EF000E5D0069BBB420CD8C5F380750123206832
:103F00006564ADF8163001F031FF28B94FF08060DC
:103F10006DE04FF08075C0E7636C032B43D02068E1
:103F200002F08FF8002862D10146206801F035FFC9
:103F300004216067206801F030FF0821A067206835
:103F400001F02BFF0C21E067206801F026FF636C75
:103F5000C4F88000032B26D00DF11601206802F072
:103F60009BF8002843D1636C2068032B1BD0BDF85D
:103F700016102165090402F079F8002837D10146AE
:103F8000206801F00AFF04216066206801F005FF47
:103F90000821A066206801F000FF0C21E06620687F
:103FA00001F0FBFE20670421206801F0F6FE0DA958
:103FB000000DE0642046FFF77DFE0546A8B9226D9E
:103FC00003462068120401F091FF80B904F1100348
:103FD00093E80700231D8DE8070020680ECB01F051
:103FE00099FE284618B0BDE8F0814FF080500125B9
:103FF00084F83450A16B0843A063F2E7000010C1BD
:1040000010B5044608B9012010BD90F8343003F013
:10401000FF0213B90277FDF709FC0323204684F859
:104020003430FFF7FDFE0028EDD10123A0632063AB
:1040300084F83430E8E7436C0B60836C4B60C36CEE
:104040008B60036DCB60436D0B61836D4B61C36D02
:104050008B61036E0020CB617047016D10B50904C0
:104060000446006802F06AF830B90146206801F0A1
:1040700094FEC0F3432010BDA16B0843A063002051
:10408000F7E7000010B5846BFEF7CCFD022826D0C0
:10409000236C5A6DE36B012A5B6D01D0012B1BD1A0
:1040A000236820460E4A9A63DA6B22F49D72DA6323
:1040B000A36B43F08043A363FFF7CFFF05380128CC
:1040C00005D8206801F0F8FEA36B1843A063012314
:1040D00084F83430002323632046FFF7C9FD10BD68
:1040E000FF05400010B5846B40F23A522368204629
:1040F0009A63FFF7B2FF0123053884F834300023B8
:104100000128236305D8206801F0D6FEA36B18436D
:10411000A063A36B204613B902F065F810BDFFF74A
:10412000A7FDFBE72DE9F341056B04460068436BEF
:104130001F041FD52E071DD5E76AC7B1A66A351D16
:1041400006F124082068043501F000FE05F8080C8B
:10415000030A05F8073C030C000E05F8063C05F8B9
:10416000050C4545EED12036203FA662E76202B03D
:10417000BDE8F081436BD90544D54FF480732A071D
:104180008363C36B23F4414323F03A03C363C36ADD
:1041900023F00103C3621AD515F0220F08D001F0F5
:1041A0008BFE28B1A36B1843A0632046FFF760FD88
:1041B000236840F23A5220469A63012384F834304F
:1041C00000232363AB071AD002F015F8CFE72F06C0
:1041D000CDD5AE0608D501F06FFE28B1A36B18430C
:1041E000A0632046FFF744FDA807C0D122682046FF
:1041F000D36A23F00803D362012384F8343001F03A
:10420000F6FFB4E7436B590426D52A0724D5676A1D
:10421000002FACD0266A351D06F1240815F8043CA1
:10422000043501A92068019315F8072C43EA0223FD
:10423000019315F8062C43EA0243019315F8052C67
:1042400043EA0263019301F084FD4545E6D120363F
:10425000203F266267628AE7436B13F03A0F86D0ED
:10426000436B9B0703D5A36B43F00203A363436B2C
:104270001F0703D5A36B43F00803A363436B9E069C
:1042800003D5A36B43F02003A363436BD90603D587
:10429000A36B43F01003A36340F23A538363C36BF1
:1042A00023F49D73C36301F007FEA36B2A0740EA62
:1042B0000300A06308D50123204684F8343000238E
:1042C0002363FFF7D5FC52E72B067FF550AF15F0BF
:1042D000300F0BD0E06B104B0365FEF7D2FB0028CC
:1042E0003FF445AFE06BFFF7FDFE40E715F0030537
:1042F00009D0206C094B0365FEF7C3FB00283FF48F
:1043000036AF206CEFE70123A563204684F83430F4
:10431000256301F068FF2AE7E54000082143000813
:10432000FFF7E0BE03685A6822F0E0025A60426874
:10433000B2F5827F0AD18268B2F5004F02D0B2F5A1
:10434000806F03D11A6822F040021A60826AB2F5C7
:10435000005F07D11A6822F400521A601A6842F40A
:1043600000521A60012380F85D30002380F85C3031
:104370000320704770B504460D46164622689068C3
:1043800010F0800000D170BD6B1CF8D0FDF7A4FDCB
:10439000801B8542F2D82046BDE87040FFF7C2BFBF
:1043A000F8B505460C4616461F462B68986820400F
:1043B00000D1F8BDB4F5C06F00D11A7B721CF5D0E6
:1043C000FDF78AFDC01B8642EFD82846BDE8F840BD
:1043D000FFF7A8BF13464268B2F5827F73B5044663
:1043E0000E460BD18268B2F5004F02D0B2F5806F55
:1043F00004D12068026822F0400202601A46314669
:1044000020460193FFF7B6FF019B054628B1236EB6
:10441000032543F02003236612E06268B2F5827F31
:104420000ED1A268B2F5004F02D0B2F5806F07D16D
:1044300032464FF4C0612046FFF7B2FF0028E6D1B4
:10444000284602B070BD37B5134601920D460A46A4
:104450004FF4C0510446FFF7A3FF019B28B1236E20
:10446000032043F02003236610E01A462946204625
:104470000193FFF77FFF019B0028F0D12A464FF4FC
:10448000C0612046FFF78CFF0028E8D103B030BDA3
:1044900070B5044600284AD00023836290F85D304E
:1044A00003F0FF021BB980F85C20FDF773FA0223CA
:1044B0002268E56884F85D301368B5F5E06F23F095
:1044C000400313604FF0000333D84FF4805100D005
:1044D000A362236B2BB9B5F5E06F8CBF02230123D8
:1044E0002363A069D4E901363343266933436669FF
:1044F0003343E6693343266A3343A66A334300F401
:104500000076000C334300F004001360636A2B4311
:10451000656B2B43034300200B435360D36923F4A3
:104520000063D3610123206684F85D3070BD0120F3
:10453000FCE71946B5F5706FC9E72DE9F7431F464B
:1045400090F85C3004460D46012B904600F0B28096
:10455000012380F85C30FDF7BFFC94F85D308146A4
:10456000012BD8B240F0A480002D5FD0B8F1000F2D
:104570005CD003232668A56384F85D300023A4F88B
:104580003C8023662364A4F83E80A4F84430A4F859
:104590004630C4E91333A368B3F5004F03D1336841
:1045A00043F48043336033685B0603D4336843F0DD
:1045B00040033360E2686368B2F5E06F3FD913B13E
:1045C000B8F1010F07D135F8023BF360A563E38F23
:1045D000013B9BB2E387E38F9BB2A3B94A463946BE
:1045E0002046FFF730FF00285FD1A36833B901935D
:1045F0002368DA6801929B680193019B206E003862
:1046000018BF012012E0226893689D0705D5A36BAF
:1046100033F8021BD160A363D9E7FDF75DFCA0EB83
:104620000900B842D7D3781CD5D00320012384F8E1
:104630005D30002384F85C3003B0BDE8F08313B133
:10464000B8F1010F13D1E38F9BB2012B06D935F8D6
:10465000023BF360A563E38F023B06E02B783373E4
:10466000A36B0133A363E38F013B9BB2E387E38F2B
:104670009BB2002BB2D02268936899070CD5E18FCA
:10468000A36B89B2012904D933F8021BD160A3635B
:10469000E1E71B781373E3E7FDF71EFCA0EB0900CD
:1046A000B842E4D37B1CE2D0BFE7202323669CE71B
:1046B0000220BBE70220BFE72DE9F8431F4690F830
:1046C0005C3004460D46012B1646DDF8208000F0D4
:1046D0001781012380F85C30FDF7FEFB94F85D2024
:1046E00081466368012AD1B20AD0B3F5827F40F0D7
:1046F0000581A268002A40F00181042940F0FE8073
:10470000002D47D0002E45D0002F43D094F85D20D7
:10471000042A02D0052284F85D20E1680022266484
:10472000B1F5E06F26682266A4F84470A4F84670DC
:10473000A563E787A787C4E91322726801D8012F10
:104740002AD922F4805272603268500603D432684B
:1047500042F040023260B1F5E06F58D90BB1012F41
:1047600007D135F8023BF360E38FA563013B9BB2B1
:10477000E3870125E38F9BB28BB9B4F846309BB237
:104780006BB94A4641462046FFF75DFE002836D009
:1047900020232366012032E042F48052D3E72168CF
:1047A0008B689A070DD5E38F9BB253B14DB1A36BC4
:1047B000002533F8022BCA60A363E38F013B9BB251
:1047C000E3878A6812F001020FD0B4F846309BB23A
:1047D0005BB1C9681546236C23F8021B2364B4F847
:1047E0004630013B9BB2A4F84630FDF775FBA0EBC9
:1047F00009004045BED3B8F1FF3FBBD003200123E1
:1048000084F85D30002384F85C30BDE8F8830BB198
:10481000012F0BD1E38F9BB2012B53D935F8023B0B
:10482000F360E38FA563023B9BB2E3870125E38F2F
:104830009BB223B9B4F846309BB2002BA1D02268BA
:1048400093689B0711D5E38F9BB273B16DB1E18F74
:10485000A36B89B201293DD933F8021BD160A36350
:10486000E38F023B9BB20025E3872268936813F035
:1048700001031DD0B4F8461089B2C9B1B4F846009E
:10488000216C80B201282DD9D06821F8020B216457
:10489000B4F84610023989B2A4F84610B4F84610AC
:1048A00089B2012903D8516841F4805151601D46F5
:1048B000FDF712FBA0EB09004045B8D3B8F1FF3F6C
:1048C000B5D09BE72B783373A36B0133A363E38FDE
:1048D000013BA9E71B781373A36B0133A363E38F39
:1048E000013BBFE7127B0A70226C01322264B4F8EC
:1048F0004620013A92B2A4F84620D8E702207EE78B
:10490000022082E72DE9F3411D46436804468846AC
:10491000B3F5827F16460CD1836853B9042380F81F
:104920005D30134600950A46FFF7C6FE02B0BDE8AB
:10493000F08194F85C30012B00F08D80012384F825
:104940005C30FDF7C9FA94F85D300746012BD8B208
:104950007FD1B8F1000F6AD0002E68D00423E2683E
:10496000216884F85D300023B2F5E06FC4F8408020
:104970002366A363A4F84660A387E387A4F8446092
:10498000C4E913334B688CBF23F4805343F4805342
:104990004B60A368B3F5004F03D10B6823F4804349
:1049A0000B600B685E0603D40B6843F040030B609A
:1049B000B2F5E06F23D9B4F846309BB223B3236835
:1049C0009A68D2073AD5DA68236C23F8022B23645D
:1049D000B4F84630013B9BB2A4F84630EBE72368BD
:1049E0009A68D0071BD51B7B226C1370236C013394
:1049F0002364B4F84630013B9BB2A4F84630B4F8C7
:104A000046309BB2002BEAD13A4629462046FFF7B2
:104A1000E1FCD8B9206E003818BF012007E0FDF78F
:104A20005BFAC01BA842EAD3691CE8D0032001232B
:104A300084F85D30002384F85C3077E7FDF74CFAAA
:104A4000C01BA842B7D36B1CB5D0EFE72023236669
:104A5000E0E70220EBE7022068E70000036A23F0AA
:104A6000010370B50362036A4268846923F002039C
:104A70000D6824F4803424F073042C438D682B4398
:104A80000E4DA84202D00E4EB04211D123F00803C1
:104A9000CE68A84243EA060323F0040302D0084D7F
:104AA000A84205D122F44072D1E9055635432A4384
:104AB00042604A6884614263036270BD0000014045
:104AC00000040140036A23F4807370B50362036A33
:104AD0004268C46923F400730D6824F4803424F020
:104AE00073042C438D6843EA0523114DA84203D07B
:104AF00005F58065A84214D1CD6823F4006343EA2C
:104B000005230B4DA84223F4806303D005F580658F
:104B1000A84206D122F44052D1E90556354342EA73
:104B2000051242604A68C461C263036270BD00BF7F
:104B300000000140036A23F4805330B50362026A27
:104B40004468C36922F400520D6823F0807323F493
:104B5000E64343EA05238D6842EA0532084DA84240
:104B600003D005F58065A84204D124F480444D6942
:104B700044EA85144460C3614B680364026230BD3B
:104B800000000140036A23F4803330B50362026AF7
:104B90004468436D22F400320D6823F4803323F01F
:104BA00070032B438D6842EA0542094DA84203D0A9
:104BB00005F58065A84204D124F480344D6944EAA7
:104BC0000524446043654B688365026230BD00BFC5
:104BD00000000140036A23F4801330B50362026AC7
:104BE0004468436D22F400120D6823F0807323F4AF
:104BF000E04343EA05238D6842EA0552084DA84286
:104C000003D005F58065A84204D124F480244D69C1
:104C100044EA8524446043654B68C365026230BD45
:104C2000000001400223026880F83D30084B916883
:104C30000B40062B06D0B3F5803F03D0136843F03A
:104C400001031360012380F83D300020704700BF4E
:104C5000070001000368DA6842F00102DA60074ADF
:104C600099680A40062A06D0B2F5803F03D01A6838
:104C700042F001021A600020704700BF07000100E7
:104C8000704770477047704703681A69910710B5FD
:104C900004460FD5DA6892070CD56FF002021A614C
:104CA000012202779B69990700F08580FFF7E9FFF1
:104CB0000023237723681A69520710D5DA68500752
:104CC0000DD56FF0040220461A61022222779B69FB
:104CD00013F4407F75D0FFF7D4FF002323772368B8
:104CE0001A6911070FD5DA6812070CD56FF00802A0
:104CF00020461A6104222277DB699B0767D0FFF701
:104D0000C0FF0023237723681A69D00610D5DA681C
:104D1000D1060DD56FF0100220461A6108222277C5
:104D2000DB6913F4407F58D0FFF7ABFF00232377F4
:104D300023681A69D20708D5DA68D00705D56FF05D
:104D4000010220461A61FCF7ABFC23681A691106C0
:104D500008D5DA68120605D56FF0800220461A6180
:104D600000F04BFA23681A69D00508D5DA681106F5
:104D700005D56FF4807220461A6100F03FFA23686F
:104D80001A69520608D5DA68500605D56FF0400258
:104D900020461A61FFF777FF23681A69910622D52A
:104DA000DA6892061FD56FF0200220461A61BDE82E
:104DB000104000F021BAFFF763FF2046FFF762FFC3
:104DC00076E7FFF75DFF2046FFF75CFF85E7FFF71B
:104DD00057FF2046FFF756FF93E7FFF751FF2046A6
:104DE000FFF750FFA2E710BD304A0368904212D08F
:104DF000B0F1804F0FD0A2F57C4290420BD002F56B
:104E00008062904207D002F58062904203D002F5A2
:104E10007842904219D14A6823F070031343234A21
:104E2000904229D0B0F1804F26D0A2F57C4290422A
:104E300022D002F5806290421ED002F5806290423C
:104E40001AD002F57842904216D0194A904213D0F7
:104E500002F5806290420FD002F5806290420BD042
:104E6000A2F59832904207D002F58062904203D0BA
:104E700002F58062904203D123F44073CA68134361
:104E80004A6923F08003134303608B68C3620B6895
:104E90008362064B984203D003F58063984201D1A8
:104EA0000B69036301234361704700BF00000140A9
:104EB0000040014010B50446A0B190F83D3003F029
:104EC000FF021BB980F83C20FCF7FCFD02232068A0
:104ED000211D84F83D30FFF787FF0123002084F86F
:104EE0003D3010BD0120FCE710B50446A0B190F89C
:104EF0003D3003F0FF021BB980F83C20FCF7BCFDFD
:104F000002232068211D84F83D30FFF76DFF012347
:104F1000002084F83D3010BD0120FCE7036A23F037
:104F2000100370B50362036A4268846923F02003AA
:104F30000D6824F0807424F4E64444EA05248D6866
:104F400043EA0513104DA84203D005F58065A84239
:104F500014D1CD6823F0800343EA05130A4DA8421B
:104F600023F0400303D005F58065A84206D122F462
:104F70004062D1E90556354342EA850242604A68FB
:104F800084618263036270BD0000014038B590F80F
:104F90003C3004460220012B12D001230C2A84F855
:104FA0003D0084F83C3054D00BD8042A2FD0082A76
:104FB0003ED0DAB10123002084F83D3084F83C0073
:104FC00038BD102A56D0142AF4D12068FFF702FE0B
:104FD000236809695A6D42F400625A655A6D22F4D9
:104FE00080625A655A6D42EA012252E02068FFF75A
:104FF00035FD236809699A6942F008029A619A6945
:1050000022F004029A619A690A439A61D2E7206801
:10501000FFF784FF236809699A6942F400629A6184
:105020009A6922F480629A619A6942EA0122ECE765
:105030002068FFF747FD23680969DA6942F0080232
:10504000DA61DA6922F00402DA61DA690A43DA61C4
:10505000B0E72068FFF76EFD23680969DA6942F45A
:105060000062DA61DA6922F48062DA61DA6942EABE
:105070000122ECE72068FFF785FD236809695A6D76
:1050800042F008025A655A6D22F004025A655A6DC0
:105090000A435A658EE701F01F01036A10B5012427
:1050A0008A408C4023EA04030362036A1A430262C3
:1050B00010BD000010B5044601220068FFF7EBFFA9
:1050C00023680C4A934203D002F58062934203D1D5
:1050D0005A6C42F400425A649968074A0A40062A08
:1050E00006D0B2F5803F03D01A6842F001021A6080
:1050F000002010BD0000014007000100FFF7DABFEB
:1051000010B5044600220068FFF7C5FF2368144A63
:10511000934203D002F5806293420DD1196A41F2A5
:105120001112114208D1196A40F24442114203D1CE
:105130005A6C22F400425A64196A41F21112114267
:1051400008D1196A40F24442114203D11A6822F090
:1051500001021A600123002084F83D3010BD00BF19
:105160000000014030B590F83C30012B4FF00203B5
:105170003DD080F83D301F4D0368AB425A689C68B3
:1051800003D005F58065AB4203D122F470024D686F
:105190002A430D6822F070022A435A60154A93424E
:1051A0001AD0B3F1804F17D0A2F57C42934213D0AE
:1051B00002F5806293420FD002F5806293420BD0D9
:1051C00002F57842934207D002F57052934203D021
:1051D000A2F59432934204D1896824F080020A43F4
:1051E0009A60012380F83D30002380F83C30184657
:1051F00030BD00BF00000140704770477047036832
:105200001A6822F490721A609A6822F001029A6079
:10521000202383670023036670470000F8B5876F7B
:105220000446202F39D129B322B390F87030012BD6
:1052300033D00125002622234165C66780F87050CF
:10524000A0F858208367C06EB0B1154BD4F800C0E9
:10525000C363144B0364144BC0E9133613460A4668
:105260000CF12401FDF78CFB30B1102384F8706041
:10527000E367676701200FE02368002084F870006F
:105280001A6842F480721A609A6842F001029A60C9
:105290009A6842F040029A60F8BD0220FCE700BF25
:1052A00029530008635300086F53000838B503689A
:1052B0000446426F856F996809061AD5212A18D1CC
:1052C0009A68806E22F080029A6058B1FDF795FBD3
:1052D00040B1A06EFDF7A6FC202803D110230320C7
:1052E000E36738BD2268136823F0C00313602023EE
:1052F00063672368986810F04000F2D0222D10D127
:105300009A68E06E22F040029A6038B1FDF775FBB2
:1053100020B1E06EFDF786FC2028DFD02046FFF7A5
:105320006EFF0020DDE7704708B50346806BDB6940
:10533000B3F5807F11D00023A0F85A3003681A68B3
:1053400022F480721A609A6822F001029A609A68C8
:1053500022F040029A6020238367FCF78DF908BD94
:105360007047806B08B5FFF7FBFF08BD7047806B87
:105370000368426F816F10B59C6824060AD5212A04
:1053800008D10022A0F852201A6822F0C0021A6048
:10539000202242679B685B0606D5222904D10023A0
:1053A000A0F85A30FFF72BFFC36F43F01003C36719
:1053B000FFF7DCFF10BD08B5806B0023A0F85A3062
:1053C000A0F85230FFF7D2FF08BD7047036870B5F0
:1053D000DA6940F60F061968044632429D6809D121
:1053E000960670D58E066ED5036E002B66D0BDE88E
:1053F0007040184705F0010001F49076064362D032
:10540000D50707D5CE0505D501251D62E56F45F009
:105410000105E567950706D528B102251D62E56FF0
:1054200045F00405E567560706D528B104251D6239
:10543000E56F45F00205E567150709D501F0200580
:10544000284305D008201862E06F40F00800E067AC
:10545000160508D54D0106D54FF400601862E36FBC
:1054600043F02003E367E36F43B3900605D5890655
:1054700003D5236E0BB12046984723682046E56F7D
:105480009B6805F0280503F040031D4317D0FFF784
:10549000B6FE23689A6852060DD59A68E06E22F02F
:1054A00040029A6038B11A4B0365FDF7EAFA28B159
:1054B000E06E036D9BE72046FFF758FF70BDFFF7D6
:1054C00055FFE567FAE7D60208D5680206D54FF41E
:1054D000801220461A62FFF778FFEFE7160606D51E
:1054E0000D0604D5636E002BE8D020467FE75006FA
:1054F000E4D54A06E2D51A68204622F040021A6036
:105500002023636700236366FFF70DFFD6E700BF24
:10551000B75300080268816838B50446C36900695A
:1055200015680143606901439F4819432840256A73
:105530000143E0681160516821F44051014351601A
:10554000A1699068294320F4306001439160974934
:105550008A421CD1964AD2F8902002F00302013A06
:10556000022A00F203819349B3F5004F8A5C40F0B0
:10557000AC80082A00F29E80DFE812F00101FB00F7
:10558000E9009C00F5009C009C009C0031008A49C9
:105590008A4206D1864A8949D2F8902002F00C024C
:1055A000E2E787498A421FD1814AD2F8902002F06F
:1055B0003002202A00F0C8800BD8002A00F0DC80DE
:1055C000102A00F0CD80B3F5004F73D001200023E6
:1055D0009DE0302AF7D1B3F5004F40F0B08062680B
:1055E000530803F58033B8E076498A420FD1704AF8
:1055F000D2F8902002F0C002802A00F0A58004D8E2
:10560000002A00F0B980402ADBE7C02AE2E76E49B1
:105610008A4212D1664AD2F8902002F44072B2F562
:10562000007F00F0918005D8002A00F0A580B2F537
:10563000807FC6E7B2F5407FCCE764498A4211D14A
:105640005B4AD2F8902002F44062B2F5006F7BD042
:1056500005D8002A00F08A80B2F5806FB1E7B2F574
:10566000406FB7E75A498A4210D1514AD2F8902088
:1056700002F44052B2F5005F66D004D8002A7BD015
:10568000B2F5805F9DE7B2F5405FA3E751498A42DA
:1056900099D1474AD2F8902002F44042B2F5004F27
:1056A00052D004D8002A67D0B2F5804F89E7B2F50E
:1056B000404F8FE7012000236BE023F00F02C3F37C
:1056C000420321681343CB606AE0082A3FF67EAFAD
:1056D00001A353F822F000BFFD560008215700082F
:1056E00027570008CD55000839570008CD55000848
:1056F000CD550008CD5500083F570008FDF792FE34
:10570000636800EB5300B0FBF3F39BB20020A3F1FE
:1057100010014FF6EF72914241D82268D3603FE00A
:10572000FDF790FEECE76268530803F5740303F598
:105730001053B3FBF2F3E8E7FDF7A6FDE0E762687C
:10574000530803F50043F4E7B3F5004FEBD162686B
:10575000530803F1F47303F59043B3FBF2F316E03F
:10576000B3F5004FE8D1FDF78FFD0AE0B3F5004F28
:10577000D6D1FDF767FE04E0B3F5004FBED1FDF7CB
:1057800051FE63685A0802EB4000B0FBF3F39BB292
:105790000020A3F110014FF6EF7291428DD9012044
:1057A0000023C4E9183338BDF369FFEF001001404E
:1057B000003802402E5701080044004031570108CC
:1057C00000480040004C00400050004000140140E0
:1057D00000780040007C0040436ADA0710B506D527
:1057E0000168846A4A6822F4003222434A609C07B6
:1057F00006D50168C46A4A6822F4803222434A60AE
:10580000590706D50168046B4A6822F480222243B6
:105810004A601A0706D50168446B4A6822F40042C0
:1058200022434A60DC0606D50168846B8A6822F44C
:10583000805222438A60990606D50168C46B8A6843
:1058400022F4005222438A605A0610D50168046C83
:105850004A68B4F5801F22F4801242EA04024A60CA
:1058600005D14A68446C22F4C00222434A601B06F8
:1058700006D50268816C536823F400230B43536000
:1058800010BD2DE9F041DDF8188004460E4615469E
:105890001F462268D36936EA03030CBF01230023A5
:1058A000AB4201D000201AE0B8F1FF3FF2D0FCF784
:1058B00013FBC01B40452068036802D8B8F1000FF5
:1058C0000FD123F4D0730360836823F00103836056
:1058D00020236367A3670023032084F87030BDE8AA
:1058E000F0815A07D5D5C3691B05D2D54FF40063A3
:1058F0000362036823F4D0730360836823F0010319
:10590000836020236367A367E367E4E72DE9FF4132
:105910009846436F04460E46202B17464DD100296A
:1059200049D0002A47D090F87030012B45D0012390
:10593000002580F870302123C5674367FCF7CCFA57
:10594000A2680346A4F85070B2F5805FA4F85270C4
:1059500003D122690AB935461646002284F8702020
:10596000B4F85220CDF8008092B23AB940212046D6
:10597000FFF787FF50B92023636708E000228021EA
:1059800020460393FFF77DFF039B18B1032004B06B
:10599000BDE8F08121685EB935F8022BC2F3080238
:1059A0008A62B4F85220013A92B2A4F85220D7E7A2
:1059B00016F8012BF4E70120E9E70220E7E72DE9DB
:1059C000F7431F46836F04460D46202B164666D1CB
:1059D000002962D0002A60D090F87030012B5ED090
:1059E00001234FF0000880F870302223C0F87C803B
:1059F0008367FCF771FAA3688146A4F85860B3F591
:105A0000805FA4F85A601CD12269C2B940F2FF122B
:105A1000A4F85C20B3F5805FB4F85C8022D12369E0
:105A200003BB2E461D46002384F87030B4F85A207C
:105A300090B2C8B92023A36703B0BDE8F083FF226A
:105A4000E6E723B92269002AF9D07F22E0E7B3F123
:105A5000805F04D12269002AF7D03F22D8E7A4F85A
:105A60005C80D7E70026DEE74B4600222021204657
:105A70000097FFF706FFA0B923685B6A08EA0303F3
:105A800045B926F8023BB4F85A20013A92B2A4F87C
:105A90005A20CBE705F8013BF5E70120CCE70220CF
:105AA000CAE70320C8E730B50025044685B0C567BE
:105AB000FCF712FA226803461268110714D4226810
:105AC0001268520709D56FF07E424FF480012046DC
:105AD00000920022FFF7D5FE98B9202300206367CB
