:020000040800F2
:1000000000000820C15D0008455D0008475D00084C
:10001000495D00084B5D00084D5D000800000000D0
:1000200000000000000000000000000091D2000865
:100030004F5D00080000000031D3000895D3000890
:10004000115E0008115E0008115E0008115E0008D4
:10005000115E0008115E0008115E0008115E0008C4
:10006000115E0008115E0008115E0008115E0008B4
:10007000115E0008115E0008515D0008115E000865
:10008000115E0008115E0008115E0008115E000894
:10009000115E0008115E0008115E0008115E000884
:1000A000115E0008115E0008115E0008115E000874
:1000B000115E0008115E0008115E0008115E000864
:1000C000115E0008115E0008115E0008115E000854
:1000D000115E0008115E0008115E0008115E000844
:1000E000115E0008115E0008115E0008115E000834
:1000F000115E0008115E0008115E0008115E000824
:10010000115E00085D5D0008115E0008115E0008C8
:10011000115E0008115E0008115E0008695D0008AC
:10012000755D0008115E0008115E0008815D000821
:10013000115E0008115E0008115E0008115E0008E3
:10014000115E0008115E0008115E0008115E0008D3
:10015000115E00088D5D0008115E0008115E000848
:10016000115E0008115E0008115E0008115E0008B3
:10017000115E0008115E0008115E0008115E0008A3
:10018000115E0008115E0008995D0008115E00080C
:10019000115E0008115E0008115E0008115E000883
:1001A000115E0008115E0008115E0008115E000873
:1001B000115E0008115E0008115E0008115E000863
:1001C000115E0008115E000800000000115E0008CA
:1001D000115E0008115E0008115E0008115E000843
:1001E000115E0008115E0008115E0008115E000833
:0801F000115E0008115E000819
:1002000010B5054C237833B9044B13B10448AFF350
:1002100000800123237010BD0401002000000000B5
:100220004846010808B5034B1BB103490348AFF327
:10023000008008BD000000000801002048460108B9
:1002400081F0004102E000BF83F0004330B54FEA87
:1002500041044FEA430594EA050F08BF90EA020FF4
:100260001FBF54EA000C55EA020C7FEA645C7FEA87
:10027000655C00F0E2804FEA5454D4EB5555B8BFAA
:100280006D420CDD2C4480EA020281EA030382EA1B
:10029000000083EA010180EA020281EA0303362DAD
:1002A00088BF30BD11F0004F4FEA01314FF4801C80
:1002B0004CEA113102D0404261EB410113F0004F92
:1002C0004FEA03334CEA133302D0524263EB430349
:1002D00094EA050F00F0A780A4F10104D5F1200EE7
:1002E0000DDB02FA0EFC22FA05F2801841F1000142
:1002F00003FA0EF2801843FA05F359410EE0A5F116
:1003000020050EF1200E012A03FA0EFC28BF4CF046
:10031000020C43FA05F3C01851EBE37101F00045FC
:1003200007D54FF0000EDCF1000C7EEB00006EEB09
:100330000101B1F5801F1BD3B1F5001F0CD3490893
:100340005FEA30004FEA3C0C04F101044FEA4452EA
:1003500012F5800F80F09A80BCF1004F08BF5FEA71
:10036000500C50F1000041EB045141EA050130BD51
:100370005FEA4C0C404141EB0101013C28BFB1F563
:10038000801FE9D291F0000F04BF01460020B1FAAE
:1003900081F308BF2033A3F10B03B3F120020CDA81
:1003A0000C3208DD02F1140CC2F10C0201FA0CF05F
:1003B00021FA02F10CE002F11402D8BFC2F1200CC4
:1003C00001FA02F120FA0CFCDCBF41EA0C0190407A
:1003D000E41AA2BF01EB0451294330BD6FEA0404C3
:1003E0001F3C1CDA0C340EDC04F11404C4F12002AE
:1003F00020FA04F001FA02F340EA030021FA04F3C0
:1004000045EA030130BDC4F10C04C4F1200220FA16
:1004100002F001FA04F340EA0300294630BD21FA54
:1004200004F0294630BD94F0000F83F4801306BF1A
:1004300081F480110134013D4EE77FEA645C18BF0E
:100440007FEA655C29D094EA050F08BF90EA020FA5
:1004500005D054EA000C04BF1946104630BD91EA9D
:10046000030F1EBF0021002030BD5FEA545C05D1A0
:100470004000494128BF41F0004130BD14F58004DF
:100480003CBF01F5801130BD01F0004545F0FE4153
:1004900041F470014FF0000030BD7FEA645C1ABF88
:1004A000194610467FEA655C1CBF0B46024650EABF
:1004B000013406BF52EA033591EA030F41F40021EB
:1004C00030BD00BF90F0000F04BF0021704730B571
:1004D0004FF4806404F132044FF000054FF0000146
:1004E00050E700BF90F0000F04BF0021704730B507
:1004F0004FF4806404F1320410F0004548BF4042DC
:100500004FF000013EE700BF42004FEAE2014FEA30
:1005100031014FEA02701FBF12F07F4393F07F4F0B
:1005200081F06051704732F07F4208BF704793F00E
:100530007F4F04BF41F40021704730B54FF4607421
:1005400001F0004521F000411CE700BF50EA010224
:1005500008BF704730B54FF000050AE050EA0102CD
:1005600008BF704730B511F0004502D5404261EB3D
:1005700041014FF4806404F132045FEA915C3FF47E
:10058000D8AE4FF003025FEADC0C18BF03325FEA1B
:10059000DC0C18BF033202EBDC02C2F1200300FACC
:1005A00003FC20FA02F001FA03FE40EA0E0021FAF1
:1005B00002F11444BDE600BF53B94AB9002908BF8F
:1005C00000281CBF4FF0FF314FF0FF3000F06EB934
:1005D000ADF1080C6DE904CE00F006F8DDF804E09A
:1005E000DDE9022304B070472DE9F047089D044679
:1005F0008C46002B40F083808A42174647D9B2FAD6
:1006000082F242B1C2F1200024FA00F091409740FA
:1006100040EA010C94404FEA1748230CBCFBF8F663
:100620001FFA87FE08FB16C143EA014306FB0EF1E1
:10063000994209D9FB1806F1FF3080F019819942DF
:1006400040F21681023E3B445B1AA4B2B3FBF8F0C1
:1006500008FB103344EA034400FB0EFEA64509D90B
:100660003C1900F1FF3380F00581A64540F202817C
:1006700002383C4440EA0640A4EB0E0400261DB1BB
:10068000D4400023C5E900433146BDE8F08702B9F4
:10069000FFDEB2FA82F2002A50D1CB1B4FEA174E8E
:1006A0001FFA87F80126B3FBFEFC210C0EFB1C335E
:1006B00041EA034108FB0CF38B4207D979180CF18E
:1006C000FF3002D28B4200F2E9808446C91AA3B2FD
:1006D000B1FBFEF00EFB101143EA014408FB00F8E9
:1006E000A04507D93C1900F1FF3302D2A04500F222
:1006F000D9801846A4EB080440EA0C40BFE78B42BF
:1007000009D9002D00F0B1800026C5E9000130466E
:100710003146BDE8F087B3FA83F6002E4AD18B420A
:1007200002D3824200F2B880841A61EB03010120F7
:100730008C46002DA8D0C5E9004CA5E7C2F12003E6
:1007400020FA03F6974001FA02F04FEA174ED9401B
:100750003043030CB1FBFEF61FFA87F80EFB1611AF
:1007600043EA014306FB08F1994204FA02F409D96D
:10077000FB1806F1FF3C80F08D80994240F28A80A0
:10078000023E3B445B1A81B2B3FBFEF00EFB10331A
:1007900041EA034100FB08F38B4207D9791800F1C5
:1007A000FF3C73D28B4271D902383944CB1A40EAEC
:1007B000064678E7C6F1200C03FA06F422FA0CF399
:1007C0001C4320FA0CF701FA06F34FEA144E21FA03
:1007D0000CF11F433B0CB1FBFEF91FFA84F80EFB32
:1007E000191143EA014109FB08FA8A4502FA06F2A7
:1007F00000FA06F308D9611809F1FF3048D28A459A
:1008000046D9A9F102092144A1EB0A01BFB2B1FB0B
:10081000FEF00EFB101147EA014700FB08F8B8454F
:1008200007D9E71900F1FF312ED2B8452CD902388B
:10083000274440EA0940A7EB0807A0FB02894F457F
:10084000C64649461AD317D05DB1B3EB0E0267EB2B
:10085000010707FA0CFCF2404CEA0202F740C5E936
:10086000002700263146BDE8F0872E4628460BE7D4
:100870000646E9E61846FDE64345E5D2B8EB020E2A
:1008800069EB04010138DFE70846D2E760468DE7EF
:100890008146B9E7664675E730464AE7ACF1020C97
:1008A000394413E702383C4424E700BF704700BFD7
:1008B0002DE9F04FE24C85B000264FF0320A204679
:1008C0000723012240F2032100F8046F0225009360
:1008D00033464FF004084FF4FA7901274FF4FA6BCE
:1008E000CDE9016A0DF035FE2279334600951044BA
:1008F00040F201210122207104F11C00CDE9016ABE
:100900000DF027FE2279334640F202211044CDF843
:1009100000800122207104F13400CDE9016A0DF05C
:1009200018FE2279052340F2192110440122009378
:100930003346207104F14C00CDE901560DF009FE5B
:1009400022793346009510444FF40871012220713A
:1009500004F16400CDE901560DF0FBFD2279072377
:1009600040F211211044012200933346207104F11A
:100970007C00CDE901690DF0ECFD2279334640F2AF
:100980003121104400973A46207104F19400CDE9DA
:1009900001560DF0DEFD217908233A46084440F265
:1009A000062100933346207104F1AC00CDE9016AC1
:1009B0000DF0CFFD217964233A460844CDF800803C
:1009C0004FF40571207104F1C400CDE90163334691
:1009D0000DF0BFFD217933463A46084400974FF4A5
:1009E0002671207104F1DC00CDE9016B0DF0B1FD41
:1009F000217933463A46084400974FF466712071D6
:100A000004F1F400CDE9016B0DF0A3FD217933462B
:100A10003A46084440F6980100974FF0030B2071C6
:100A200004F58670CDE9016198210DF092FD2179E0
:100A300033463A46084440F6FC010097207104F51D
:100A40009270CDE901614FF4CC710DF082FD2179F6
:100A500005233A46084440F2117100933346207151
:100A600004F59E70CDE901690DF073FD21793346DF
:100A70003A460844009540F20131207104F5AA700D
:100A8000CDE9016A0DF065FD217964233A460844F9
:100A9000CDF8008040F20231207104F5B670CDE946
:100AA000016333460DF055FD217907233A4608448A
:100AB00040F2033100933346207104F5C270CDE952
:100AC000016A0DF046FD217907233A46084440F2B9
:100AD000113100933346207104F5CE70CDE90169E0
:100AE0000DF037FD217933463A46084400954FF41E
:100AF0004871207104F5DA70CDE901560DF029FD39
:100B0000217964233A460844CDF8008040F2193137
:100B1000207104F5E670CDE9016333460DF019FD4F
:100B2000217933463A460844CDF800B04FF483713A
:100B3000207104F5F270CDE9016A0DF00AFD21790A
:100B400033463A46084400974FF48A71207104F501
:100B5000FE70CDE901560DF0FCFC217933463A4692
:100B6000084400974FF48971207104F50570CDE9B0
:100B700001690DF0EEFC217933463A460844CDF880
:100B800000B040F20511207104F50B70CDE9016A47
:100B90000DF0DFFC217933463A460844009740F2D5
:100BA0001311207104F51170CDE901560DF0D1FC3F
:100BB000217933463A460844009740F211112071DA
:100BC00004F51770CDE901690DF0C3FC21793346B6
:100BD0003A460844CDF8008041F20301207104F543
:100BE0001D70CDE9016A0DF0B4FC217908233A4665
:100BF0000844144900933346207104F52F70CDE961
:100C000001560DF0A6FC217908233A4608440E4906
:100C100000933346207104F53570CDE901560DF08F
:100C200098FC217908233A46084440F634010093A1
:100C30003346207104F53B7040F6020506E000BF24
:100C400024B400200505050006050500CDE9016175
:100C500040490DF07EFC217907233A4608444FF4C1
:100C6000C02100933346207104F54170CDE9016540
:100C70000DF06FFC217933463A4608443649CDE9F8
:100C800001650625207104F5477000950DF061FCA3
:100C9000217964233A46084400953049207104F5CF
:100CA0004D70CDE9016333460DF053FC2179334695
:100CB0003A460844CDF800B02949207104F5537034
:100CC000CDE901690DF045FC217933463A460844E7
:100CD000CDF800803946207104F55F70CDE9016AD6
:100CE0000DF037FC217933463A4608444FF47A71C7
:100CF0000095207104F52370CDE901614FF40021C6
:100D00000DF027FC217933463A460844CDF800B06F
:100D10001449207104F52970CDE901690DF019FC21
:100D2000217964233A4608440F49CDE9016305233C
:100D3000207104F55970009333460DF00AFC2379B5
:100D40001844C0B22828207194BF0020012005B0AB
:100D5000BDE8F08F0705050001000600020006004F
:100D600011000600120006001300060030B5012233
:100D700087B0FF2142480DF05FFF10B1012007B09E
:100D800030BD404C94F8423BBBB101231421642296
:100D90000190DFED3D1A04F644309FED3C1ADFED83
:100DA0003C0A9FED3C0A0092CDE904330A23CDE9C9
:100DB00002311E23194611F0BDFE0122FF213648E3
:100DC0000DF03AFF0028D9D194F8D23BB3B10123FA
:100DD00014220190DFED2C1A9FED2C1ADFED2C0A66
:100DE0009FED2C0A2D48CDE904330A23CDE90232C8
:100DF00064221E230092194611F09CFE0122FF215D
:100E000027480DF019FF0028B8D194F88A3BA3B108
:100E10000123142164220190DFED1B1A9FED1B1AA0
:100E2000DFED1B0A9FED1B0A1E480092CDE904333B
:100E30000A23CDE9023111F07DFE0122FF211A487B
:100E40000DF0FAFE0546002898D194F81A0C0028F7
:100E500095D00123142164221448DFED0B1A9FED75
:100E60000B1ADFED0B0A9FED0B0A01950092CDE9FD
:100E700004330A23CDE9023111F05CFE28467EE7F7
:100E800058BF002024B4002000002043000070C29E
:100E900000008C420000B442E8BF0020F8BF0020F0
:100EA000A0BF0020B0BF002030C0002040C0002004
:100EB0002DE9F04F2D4DB2EE040A87B00122DFED8F
:100EC0002C0A00212B48012712F0E4FB95F86C3C1A
:100ED000044685F8E07CBBB340F2E2464FF00008E0
:100EE0004FF0020B4FF008094FF0280ADFED221AED
:100EF0009FED221AFA23DFED220A324639469FED92
:100F0000210A05F54760CDF804800096CDE904B8C4
:100F1000CDE9029A11F00EFEDFED171A9FED171AB8
:100F20004FF4FA73DFED180A3246FA219FED170AE3
:100F300005F6A84085F8977CCDE904B8CDE9029A7A
:100F4000CDE9006711F0F6FDB2EE040A0022DFEDF4
:100F5000080A02210E4812F09DFB2043C0B200385F
:100F600018BF012007B0BDE8F08F00BF24B40020F7
:100F70000000D34378C0002000008C420000000035
:100F8000000064420000704233333F4200003A42A6
:100F900008C100200023B7EE000AFF211A4610B551
:100FA000174C204611F0C8F8034608B1012010BDC7
:100FB0000246B7EE000AFF2104F1C80011F0BCF8A8
:100FC00003460028F2D10246B7EE000AFF2104F5DD
:100FD000C87011F0B1F803460028E7D102469FED32
:100FE000090A012104F5167011F0A6F80028DDD1D8
:100FF000054BC4F86C32012384F87132D7E700BF87
:1010000098C1002029059D3D3333D33F30B50124DD
:1010100085B00C4D00239FED0C0A21462846042282
:1010200000948DED030A0DF0C3FB05F14000002391
:101030009DED030A0422022100940DF0B9FB00206B
:1010400005B030BDB8C40020CDCC4C3D1FB500224A
:10105000012402239FED110A542111480092CDE989
:10106000014411F019FA034610B1012004B010BD7B
:10107000024600909FED090A5521CDE9014009483B
:1010800011F00AFA0028F0D1074B142283F8D84750
:1010900083F8244BA3F81C2BE8E700BF6F12833BB7
:1010A00000B80020ACBB002024B4002013B50A24F3
:1010B0000022B7EE000A042302210A48009412F02D
:1010C00085F9024660B9B7EE000A042301210648FB
:1010D000009412F07BF9003818BF012002B010BD57
:1010E0000120FBE738C5002060C50020012104482D
:1010F00008B511F05EFE003818BF012008BD00BF22
:1011000088C5002013B50124B7EE000A4FF4FA7326
:101110000B4A54210B48009412F02CF870B900903F
:10112000B7EE000A4FF4FA73074A5521074812F048
:1011300021F8003818BF012002B010BD2046FBE79F
:10114000400C0040ECC500203C04004008C60020D4
:101150002DE9F04FC64C01279FEDC61A0022A4F1DD
:101160008B03A4F19B0AA4F14009DFEDC30A5421CB
:101170009FEDC20A20462DED0A8B8FB00C93A4F18F
:101180006C03CDF834A00B93A4F1780304970A9371
:101190006FF45E63CDF80C90E3180993A4F67C23FA
:1011A0000893A4F684230793A4F6E4530693A4F6C5
:1011B00018630593A4F1C8030293A4F1EC03CDE9ED
:1011C000007363230DF024FE28B101200FB0BDECA5
:1011D0000A8BBDE8F08FAA49B7EE008AD4ED2F7ACA
:1011E000F3EE0E9AC4F8E4124FF0000CA5494FF04C
:1011F00080489FEDA57AB3EE04AAC4F8EC12B0EED5
:10120000481AA24927EE877ADFEDA18AC4F8641153
:10121000A04967EEA87AA04DC4F868119F49A04B79
:10122000A04ADFF8CCB2C4F82812DFED9FBA9F497C
:101230009FED9FCA9FED9FBADFED9FAA9FED9F9AFA
:10124000C4F82C31C4F84431C4F83C2184F8E002DD
:1012500084F83803C4F83C1384ED1A7AC4ED1B7A81
:10126000C4ED55BAC4F828B1C4F83051C4F860517F
:10127000C4F840B1C4F8485184ED4DCAC4F838519F
:10128000C4F8E8C284ED5BBAC4F8708184ED898A41
:10129000C4ED149AC4ED17AA84ED189A84ED158A4A
:1012A00084ED168A84F8247384F84003C4F88C33E0
:1012B000834B8449C4F8B433C4F8BC33824BC4F8BC
:1012C0004413C4F8C433814B8149C4F8C8334FF088
:1012D0007D53C4F86413C4F87023C4F87823C4F8A9
:1012E0009C33A4F18A037B497B4A7C4EC4F8681383
:1012F000C4F89013552184F8980384F8A603C4F821
:10130000B8233A46C4F848B3C4EDD39AC4F850633E
:10131000C4F85853C4F874C3C4F8805384ED6CAA5D
:1013200084EDF08A84EDE88A0C93A4F15C03CDF897
:1013300034A00B93A4F16403DFED4F0A0A93A4F6E3
:1013400035239FED4E0A0993A4F5DA630893A4F5BB
:10135000DB630793A4F638230693A4F66C23CDE948
:101360000403A4F1A00304F57A70CDF80C90029365
:10137000A4F1C403CDE9007363230DF049FD0028F7
:101380007FF423AF04F2A44304F5A9625449D3EDDA
:10139000007A04F58A6367EEA88A67EE8C7AC3ED5B
:1013A000008A04F25443C3ED007A04F23C53C3EDC7
:1013B00000BA04F5A2631E6004F2145383ED00AA80
:1013C00004F5A3631D60474B136004F5A562166026
:1013D00004F22C5282ED00AA04F5A662156004F214
:1013E0001C52116004F5A4623F49156004F22452B6
:1013F000C2F800B004F24C52116004F5AA623B49F5
:10140000C2F8008004F2545282ED00BA04F5AB62D7
:1014100082ED008A04F20C6282ED008A04F5C26259
:1014200082ED009A04F21462116004F58762C2ED45
:10143000009A04F24442C2ED00AA04F5896282EDEA
:10144000009A04F23C42C2F8008004F5886282ED02
:10145000008A04F5DB62166004F2DC62166004F5B3
:10146000DC6204F2E464C2F800802360AEE600BFF0
:1014700024C600206666263F000040426F12833B70
:101480000000C8430000B44200409844CDCCCC3D9D
:1014900000004844CDCCCC3E000020419A99193E32
:1014A0000000C842000048424260E53BC3F5A83F47
:1014B00000007A44F4FDD43D8FC2F53D9A99993EDF
:1014C000BD1F2438728A0E3CADB9FDBF9D7D7B3FA8
:1014D0000000A04000004041BD1FA4380000A04211
:1014E000000096430000C0400AD7A33C9A99193FD8
:1014F000000070422DE9F04F6C2185B0DB480DF003
:1015000040F80646002840F0B2833821D7480DF055
:101510002BF90228D64C05D13921D4480DF026F9F3
:10152000A4F818043B21D1480DF01EF9022805D17A
:101530003C21CE480DF01AF9A4F8C4074021CB484D
:101540000DF012F9012840F093824121C7480DF0B7
:1015500014F94FF4616241F6A841B0FBF2F3635015
:1015600041F6A44102FB13033C22B3FBF2F36350A8
:10157000B0FBF2F302FB1300BE4B18604521BB48E1
:101580000DF0F2F8012840F07F824621B7480DF0B7
:1015900000F9B94B83ED000A4A21B4480DF0E4F894
:1015A000012840F07D824B21B0480DF0F2F8B34B9A
:1015B00083ED000A4F21AD480DF0D6F8012840F028
:1015C0007B825021A9480DF0D8F84FF4616241F6B2
:1015D000D041B0FBF2F3635041F6CC4102FB130360
:1015E0003C22B3FBF2F36350B0FBF2F302FB1300B7
:1015F00041F6C843E05054219C480DF0B5F801284D
:1016000040F06682552199480DF0B7F84FF46162B9
:101610009B49B0FBF2F30B6041F6DC4102FB130384
:101620003C22B3FBF2F36350B0FBF2F302FB130076
:1016300041F6D843E050934D00218C480DF0A9F8B5
:10164000042105F5C26085ED000A0DF0A2F808211D
:1016500005F5C26085ED010A0DF086F8012841F21A
:10166000BC3200F24182A054874D002128460EF082
:10167000EFFA074628BB034685F8BC0105F5DE7284
:101680000821009005F5FA600CF082FF4FF0040885
:101690007E4B05F5E072394605F5FA60C5F8C031B4
:1016A000C5F8C4314346CDF800800CF071FF4346C5
:1016B00005F5E272414605F5FA60CDF800800CF0C0
:1016C00067FF092169480DF04FF8012841F2D8322F
:1016D00000F21482A0546E4D0A2164480DF059F8AE
:1016E0002F460E2105F2F45085ED000A0DF051F859
:1016F0000121A5F5EE70043785ED010A0EF0A8FA78
:10170000002840F00582614B2A464FF00408092169
:1017100042F804393B6041F2D833E052034600906E
:1017200005F2F4500CF034FF43462A460A2105F234
:10173000F450CDF800800CF02BFF43463A460E21C2
:1017400005F2F450CDF800800CF022FF514D1F211E
:10175000464841F2A4770DF01CF805F10408232156
:1017600005F50A7005F1840B85ED000A0DF011F8FE
:10177000282105F50A7088ED000A0DF00AF82721E6
:1017800005F50A708BED000A05F188090CF0ECFFF5
:101790002C21E05505F50A7005F18C0A0CF0F9FFD3
:1017A000302105F50A7089ED000A0CF0F2FFE35DC7
:1017B0008AED000A012B08D900232A1F272105F5ED
:1017C0000A70E35500930CF0E3FE022132480EF05C
:1017D0003FFA074600283DD100232E4A1F212B60E7
:1017E0000425CBF8003002F50A70CAF80030C9F8B9
:1017F0000030C8F800302B4600950CF0C9FE274A8F
:101800002B46232102F5097000950CF0C1FE244AF5
:101810002B462C2102F5D07000950CF0B9FE214A20
:101820002B46302102F5CE7000950CF0B1FE1E4A19
:101830002B46282102F5D27000950CF0A9FE41F24A
:10184000A4731A4A2721E7543B4602F50B70009710
:101850000CF09EFE5A2105480CF086FF41F212273B
:101860000128E05540F2598122E000BFF4CD00206C
:1018700024B40020C4D00020D0D00020D4D0002038
:1018800004D10020E4C7002024C600200000344317
:1018900000C80020CCCB00200CCA0020D0CB0020F8
:1018A00054CC002058CC002050CC0020C8CB0020C5
:1018B000002341F212225A21A354CC4A009302F28F
:1018C000BE700CF065FE5B21C9480CF04DFF41F283
:1018D000FA570128E05540F25481002341F2FA52B0
:1018E0005B21A354C34A009302F2D6300CF050FEA1
:1018F0006021BF480CF038FF01288DF80F0040F23E
:10190000918100230DF10F0260218DF80F300093BB
:10191000B7480CF03DFE1221B5480CF025FF022817
:1019200011D11321B2480CF01FFF282888BF0520D1
:101930009FEDB17A07EE900AB04BF8EE677A67EE4A
:10194000877AC3ED007A1421A9480CF00DFF022814
:1019500011D11521A6480CF007FF282888BF0220C6
:10196000B2EE047AA64B07EE900AF8EE677A67EEBD
:10197000877AC3ED007A16219D480CF0F5FE022807
:1019800009D117219A480CF0EFFE07289D4B8ABF1A
:10199000012218701A70622195480CF0E5FE0228A9
:1019A00013D1632192480CF0DFFE431E9FED927A23
:1019B000DBB2172B944B28BF0A2007EE900AF8EEF3
:1019C000677A67EE877AC3ED007A642188480CF065
:1019D000CBFE022811D1652185480CF0C5FE0928EF
:1019E00088BF0120B2EE047A884B07EE900AF8EE29
:1019F000677A67EE877AC3ED007A66217C480CF03F
:101A0000B3FE022813D1672179480CF0ADFE831E86
:101A1000B2EE047ADBB2132B7D4B28BF052007EE14
:101A2000900AF8EE677A67EE877AC3ED007A68214C
:101A30006F480CF099FE022816D169216C480CF011
:101A400093FE0A2800F211810128034638BF0123C2
:101A5000DBB207EE903AB2EE047A6E4BF8EE677A9C
:101A600067EE877AC3ED007A304605B0BDE8F08FA7
:101A700001230DF10F0240215D488DF80F30002346
:101A800000930CF085FD79E501230DF10F0245214E
:101A900057488DF80F30002300930CF079FD7BE55B
:101AA00001230DF10F024A2151488DF80F30002318
:101AB00000930CF06DFD7DE501230DF10F024F2128
:101AC0004B488DF80F30002300930CF061FD92E538
:101AD00001230DF10F02542145488DF80F300023EA
:101AE00000930CF055FDA6E50023082105F5C26022
:101AF000A3542A1F00930CF04BFDB5E500230921E8
:101B0000A354454A009302F5BF600CF041FDE2E5A5
:101B100041F2D9330122E25418E67FF4D4AE5C21BD
:101B200033480CF021FE01287FF4C2AE5D2130481D
:101B30000CF01AFE41F213230228E0541DD90025AF
:101B40002A4A5A212B4602F2BE70E55300950CF04A
:101B50001FFD264A2B465C2102F2BE7000950CF058
:101B600017FD2E4A2B465D2102F2BD7000950CF048
:101B70000FFD41F21523E554A5E641F21523E0548B
:101B8000A1E67FF4B5AE5E2119480CF0EDFD012809
:101B90007FF4A3AE5F2116480CF0E6FD41F2FB5343
:101BA0000228E0541DD90025124A5B212B4602F27F
:101BB000D630E55300950CF0EBFC0E4A2B465E2127
:101BC00002F2D63000950CF0E3FC154A2B465F215B
:101BD00002F2D53000950CF0DBFC41F2FD53E554E8
:101BE00086E641F2FD53E05482E600BF36C600208F
:101BF000F4CD00201ECA00200000C84208C9002001
:101C000010C9002004C9002058C700205CC700206C
:101C100060C7002084C70020FCC7002037C6002012
:101C20001FCA00207FF477AE612112480CF09CFDA2
:101C300041F2AA3141F2927350286054E0547FF689
:101C40006AAE23220B4862546021E25400240DF155
:101C50000F02234600948DF80F400CF099FC2346A8
:101C60000DF10F026121009452E60123F1E60126F5
:101C7000FAE600BFF4CD0020F0B5E94E41F67C4510
:101C8000E84C002730462DED048B83B0DFEDE68A6B
:101C900010F026FB9FEDE50A04F57A72012130462B
:101CA0008DED010A675510F027FB635D04F2947215
:101CB0009DED010A022118449FEDDD8A9FEDDD9A1A
:101CC0006055304610F018FB635D9FEDDB0A04F6AB
:101CD0007852184403218DED010A6055304610F00A
:101CE0000BFB635D9DED010A04F564621844042159
:101CF0006055304610F000FB635DA6F519629FED5C
:101D0000CF0A184405216055304610F0F5FA635D9E
:101D1000A6F515629FEDCA0A1844062160553046A3
:101D200010F0EAFA635DB0EE680AA6F628121844CD
:101D300007216055304610F0DFFA635DB0EE680AA7
:101D4000A6F51062184408216055304610F0D4FA08
:101D5000635DB0EE480AA6F6680218440921605592
:101D6000304610F0C9FA635DB0EE480AA6F64C02A0
:101D700018440A216055304610F0BEFA635DB0EE9B
:101D8000490A04F58C5218440B216055304610F076
:101D9000B3FA635DA6F6A802B0EE0C0A18440C2153
:101DA0006055304610F0A8FA635DB0EE490AA6F51A
:101DB0000A6218440D219FEDA39A6055304610F039
:101DC0009BFA635D04F62832B0EE0C0A18440E212B
:101DD0006055304610F090FA635D9FED9B0A04F564
:101DE000965218440F218DED010A6055304610F0CF
:101DF00083FA635D9DED010AA6F56572184417210B
:101E00006055304610F078FA635DA6F5DE629FED0E
:101E10008F0A184410216055304610F06DFA635D4A
:101E20009FED8B0A04F6C452184411218DED010A6E
:101E30006055304610F060FA635D9DED010A04F6CE
:101E40008C62184412216055304610F055FA635DDB
:101E5000A6F2E462B3EE040A18441321605530463A
:101E600010F04AFA635DB0EE490AA6F274721844A3
:101E700014216055304610F03FFA635D04F5BA5204
:101E8000B3EE040A184415216055304610F034FAB8
:101E9000635DB0EE490AA6F56372184416216055D9
:101EA000304610F029FA635DB0EE490AA6F5EE62FD
:101EB000184418216055304610F01EFA635DB0EEEC
:101EC000490AA6F56272184419216055304610F08F
:101ED00013FA635DA6F63802B2EE040A18441B2119
:101EE0006055304610F008FA635DA6F58A62B2EEDE
:101EF000040A18441C216055304610F0FDF9635D5A
:101F0000A6F50362B2EE040A18441D21605530465E
:101F100010F0F2F9635DA6F58962B2EE040A184486
:101F20001E216055304610F0E7F9635D04F6584213
:101F30009FED480A18441F216055304610F0DCF927
:101F4000635DA6F5ED62B7EE000A184420216055E6
:101F5000304610F0D1F9635DA6F56072B7EE000A65
:101F6000184421216055304610F0C6F9635DB0EE8B
:101F7000680A06F51572184422216055304610F0A3
:101F8000BBF9635DB0EE680A06F5167218442321AA
:101F90006055304610F0B0F9635DB0EE480AA6F522
:101FA0000262184424216055304610F0A5F9635DA3
:101FB000B0EE480AA6F587621844252160553046E0
:101FC00010F09AF9635DB0EE480AA6F618021844BC
:101FD00026216055304610F08FF9635DB0EE480A57
:101FE000A6F58662184427216055304610F084F922
:101FF000635DB0EE480AA6F50162184428216055D9
:10200000304610F079F9635DB0EE480AA6F58562B6
:10201000184429216055304610F06EF91CE000BFCD
:1020200060CE002024B4002000007A440000B443B5
:10203000CD0C7A44CDCCCC3F0000484300409C45B9
:1020400000A08C459A99C9403CBDB23E0000C842F0
:1020500000401C4600009642635DB0EE480AA6F6BA
:10206000080218442A216055304610F045F9635D96
:10207000B0EE480AA6F5846218442B21605530461C
:1020800010F03AF9635DB0EE480AA6F50062184414
:102090002C216055304610F02FF9635DB0EE480AF0
:1020A000A6F5836218442D216055304610F024F9BE
:1020B000635DB0EE480AA6F5FF6218442E21605514
:1020C000304610F019F9635DB0EE480AA6F5826259
:1020D00018442F216055304610F00EF9635D184406
:1020E0006055384603B0BDEC048BF0BD1FB50A4BFC
:1020F000042103F27C4203F57260029203F58C62C4
:10210000019203F1C8020092322211F09AF90020E4
:1021100005B05DF804FB00BF9CC10020064B002207
:1021200003F58E510A7041F2C2115A5203F58E53D3
:1021300000225A60704700BF24B400202DE9F0430C
:1021400041F6A4422F4C3C2741F6A843A2584FF435
:102150006168E35885B07A432B4D03264FF004099C
:1021600008FB032304F5E552412128461268009636
:10217000134403AA039333460CF07FFA4B4605F54C
:10218000377246212846CDF800900CF076FA4B467F
:1021900005F538724B212846CDF800900CF06DFA09
:1021A00041F6CC4241F6D0435021A2582846E3588C
:1021B0007A43009608FB032341F6C842A258134411
:1021C00003AA039333460CF058FA41F6DC4204F5B7
:1021D000E7535521A25828461B68574341F6D84279
:1021E0000096A25808FB0373134403AA03933346D3
:1021F0000CF043FA1822412128460CF09CFA05B055
:10220000BDE8F08324B40020F4CD002038B5574C4D
:1022100041F2C21394F86A2BE35A002A69D043F0C2
:10222000010394F8B22B002A67D043F0020341F275
:10223000C215635394F8263E002B62D041F2C213BC
:10224000E35A43F0040341F23812A25C002A62D040
:1022500043F0080394F8FA2B002A60D043F01003EF
:1022600094F8422C002A5ED043F0200341F2C215BC
:10227000635394F8EE3E002B59D041F2C213E35A57
:1022800043F040033A4A1278002A5AD043F08003C0
:1022900094F81C24002A58D043F4807394F8C8277B
:1022A000002A56D043F4007394F8CE2C94F8961C70
:1022B0000A4341F2AC3208BF23F48063A25C14BF2E
:1022C00043F480639BB2002A47D043F4006341F299
:1022D0009472A25C002A44D043F4805307EE903AF3
:1022E00041F2C212F8EE677AA352224BC3ED007A94
:1022F00038BD23F001039BB293E723F002039BB2A6
:1023000095E71D480FF0E2FF002897D1635B23F0AB
:1023100004039BB297E723F008039BB29AE723F0EC
:1023200010039BB29CE723F020039BB29EE7134867
:102330000FF0CCFF0028A0D1635B23F040039BB2D9
:10234000A0E723F080039BB2A2E723F480739BB243
:10235000A4E723F400739BB2A6E723F400639BB2C7
:10236000B5E723F480539BB2B8E700BF24B4002044
:1023700084C50020E8C5002098C1002060C200206C
:1023800017B4674A6FF07E01B2EE044B41F20224AB
:1023900002F59653145D93ED007A9FED556BB7EE01
:1023A000C77A9FED555B27EE067B9FED556B27EEB9
:1023B000067B9FED556BBDEEC77B17EE103A1BB247
:1023C0008B42B8BF0B467F2BA8BF7F237F3382F899
:1023D000B730544B93ED007AB7EEC77A37EE067BF1
:1023E0009FED4B6B27EE067BFCEEC77B17EE903A1A
:1023F000B3EE0E7B82F8B8304B4B93ED006AB7EE2C
:10240000C66AA6EE057B9FED446B27EE067BBCEE0D
:10241000C77B17EE103A9BB282F8B9301B0A82F8DC
:10242000BA30424B93ED007AB7EEC77A87EE056B70
:10243000B6EE005B26EE056BFCEEC67B93ED026A02
:10244000B7EEC66ACDED017A9DF8041086EE047BE6
:1024500027EE057BFCEEC77BCDED017A9DF80430BD
:1024600043EA411382F8BB301B0A82F8BC3041F2C8
:102470006D13D15C0B1E18BF0123022C08BF43F063
:10248000100329B141F26811515C29B343F04003B4
:1024900041F26C11515C69B141F26811515821F05F
:1024A0007F4121F0FF0119B941F26711515CB1B9C7
:1024B00043F400731E49097843EA41331BB282F8A2
:1024C000BD30C3F3072382F8BE3058B1194803B0BA
:1024D0005DF8044B0CF053B843F08003D8E743F4A5
:1024E0008073E7E703B05DF8044B7047AFF30080FB
:1024F00012143FC6DCA54C4000000000000059400B
:102500009A99999999992940000000000000484043
:10251000F6285C8FC2F504400000000000407F40B8
:1025200024B40020D8C70020B8C5002008C9002066
:1025300004C90020D0B400201E4B01229FED1E7A5A
:1025400083F86F231D4AD2ED006AC6EE877AB2EE99
:10255000047AFCEEE77A17EE902A83F87023184A83
:10256000D2ED006AC6EE877AFCEEE77A17EE902A83
:1025700083F87123134AD2ED006AC6EE877AFCEE27
:10258000E77A17EE902A83F8722303F59B52D2ED77
:10259000006AC6EE877AFCEEE77A17EE902AC2F15F
:1025A000040283F8732318B103F559700BF0E7BFE9
:1025B000704700BF24B400200000C84258C7002064
:1025C0005CC7002060C7002013B5037A012B1FD120
:1025D000436840F20132934200F0FE816FD840F22E
:1025E000062293423ED8B3F5007F15D8B3F5837F1A
:1025F00000F08D8224D8982B00F0B28140F20512B1
:10260000934200F09782012B00F0AE8302B010BD20
:10261000002BFBD10368DCE76FF400721344052B39
:10262000F4D801A252F823F03F28000867280008D8
:102630000D2800080D2600080D260008BB280008FC
:10264000B3F5897F00F07082B3F5CC7F00F08D8107
:1026500040F211129342D9D1D74B93F8C82783F88F
:102660006722D3E7B3F5057F00F02D81B3F5267F10
:1026700000F0718140F211229342C7D1CE4C94F800
:102680006A3B04F6745084F8873094F8B23B84F8BF
:10269000883094F8263E84F88930002384F88A3004
:1026A00041F23813E35C84F88B300FF00FFE41F2F7
:1026B000234384F88C00E35C84F88D30A6E7B3F5FF
:1026C000C02F00F0D58250D840F21932934200F06A
:1026D000D78137D840F20332934200F0918140F223
:1026E0001132934200F0AB8140F2023293428DD11D
:1026F000B14AF2EE046A9FEDB16A02F6C83393ED77
:10270000007A37EE067A27EE267ABCEEC77A17EE05
:10271000103A9BB282F877311B0A82F8783102F5C1
:102720004163D3ED007A77EE867A67EEA67AFCEE07
:10273000E77A17EE903A9BB282F879311B0A82F859
:102740007A3163E740F21172934200F0138141F253
:102750000302934200F0FB81B3F5667F7FF456AF2E
:10276000954B022283F8FF2050E7954A934200F0F0
:1027700032822BD8103A934200F09F820F3293425C
:1027800000F0BB82103A93427FF440AF8A4941F691
:10279000D04341F6CC403C22CB58085802FB0303FF
:1027A000180A81F827331B0C81F8280341F6DC4016
:1027B00081F8293301F5E75308581B6802FB03032E
:1027C000A1F82A331B0C81F82C331FE77D4A934272
:1027D00000F0F782B3F5002F7FF418AF10217A488C
:1027E00004F088FB794AD2ED007AA2F57D62B7EE5B
:1027F000E76A9FED6F5BB4EEC56BF1EE10FA00F384
:10280000E682002840F032821223F3E16A4A41F264
:10281000CC03D35E83EAE371A1EBE37189B2D17398
:1028200009121174A3F1680103F56A535174183346
:102830001B1293740123D37400239382E6E65E4A4D
:102840009FED5E7A02F67853D3ED007A67EE877AD1
:10285000FCEEE77A17EE903A9BB282F827301B0A1B
:1028600082F82830D2E6544AF2EE046A9FED536AA9
:1028700002F6383393ED007A37EE067A27EE267AA1
:10288000BCEEC77A17EE103A9BB282F83F301B0AB3
:1028900082F8403002F53863D3ED007A77EE867A1D
:1028A00067EEA67AFCEEE77A17EE903A9BB282F8D2
:1028B00041301B0A82F84230A8E6002002B0BDE891
:1028C0001040FFF75DBD3C4841F20223C35C022B80
:1028D00027D13F4B00F59F5241F2D831D3ED007A1A
:1028E000FCEEE77A17EE903AD2ED007AFCEEE77A4A
:1028F0009BB217EE902A92B2415C80F8CF30C3F3BE
:10290000002380F8D120C2F3002243EA011341F2F0
:10291000224180F8D220415C43EA811380F8D03014
:1029200074E6012B13D100F59E532A4A41F2BC31C3
:10293000D3ED007AFCEEE77A17EE903AD2ED007A0A
:10294000FCEEE77A9BB217EE902A92B2D4E7B4225B
:1029500000211346D1E7184B022283F8E72055E601
:10296000154B022283F8172150E6134B022283F8FD
:102970002F214BE6104B41F27C429A5C83F84721B1
:1029800041F271129A5C83F8482141F272129A5C0A
:1029900083F8492141F275429A5C83F84A2141F259
:1029A00073129A5C83F84B2130E600BFAFF30080CE
:1029B000CDCCCCCCCCCCEC3F24B400200000C84221
:1029C000120006001300060000040240F4C30020B9
:1029D00000C80020E8C70020D74A9FEDD87A02F54A
:1029E0006463D3ED007A67EE877AFCEEE77A17EE40
:1029F000903A9BB282F85F311B0A82F8603105E69B
:102A0000CD4A41F20C13D35E83EAE371A1EBE3718B
:102A100089B282F88F11091282F89011A3F168012E
:102A200003F56A5382F8911118331B1282F8923120
:102A3000012382F893310023A2F89431E6E5BE4CDD
:102A400094F8FA3B04F63C6084F8A73194F8423CD1
:102A500084F8A83194F8EE3E84F8A931002384F874
:102A6000AA3104F58B531B7884F8AB310FF02EFCA0
:102A700041F60B0384F8AC01E35C84F8AD31C5E5A5
:102A8000AD4841F2EA53C35C022B26D1AC4B00F5B2
:102A9000BE51AC4AD3ED007A0978FCEEE77A17EE26
:102AA000903AD2ED007AFCEEE77A9BB217EE902ACC
:102AB00092B280F8D731C3F3002380F8D921C2F352
:102AC000002243EA011341F60A0180F8DA21415C51
:102AD00043EA811380F8D83198E5012B13D19A4B42
:102AE00041F2A471994AD3ED007A415CFCEEE77A99
:102AF00017EE903AD2ED007AFCEEE77A9BB217EE31
:102B0000902A92B2D5E700210A460B46D1E78A4BBC
:102B1000B3F8E42383F8EF21120A83F8F02193F845
:102B2000162483F8F12171E5834B93F81C2483F874
:102B30001F226BE5804BB3F8902783F83722120AE7
:102B400083F8382293F8C22783F839225EE580495A
:102B5000DFED807A91ED007AA1F65842B4EE677A03
:102B60009FED6D5BF1EE10FA37FE877AB7EEC77A0C
:102B700087EE056BDFED787A9FED695B26EE056BDE
:102B8000B7EEC66BBCEEC66A16EE103A91EDAC6AB3
:102B9000B4EEE76A9BB282F87F321B0AF1EE10FABC
:102BA00082F8803214D5B7EEC66A9FED5F4B86EE91
:102BB000047B27EE057BB7EEC77BBCEEC77A17EE2A
:102BC000103A9BB282F881321B0A82F882321DE5EC
:102BD0009FED627AF1E7584B93F8962C83F8AF2279
:102BE00093F8CE2C83F8B02293F8B62F83F8B12255
:102BF0000CE5322382F8973241F664109FED4C5B6E
:102C0000B4EEC56BDFED4D6AF1EE10FA57BFB2EED0
:102C1000047A002367EE877AFCEEE77A5CBFCDED9D
:102C2000017A9DF8043082F89A32494BD3ED247A28
:102C300093ED007A67EEA67A27EE267AFCEEE77A25
:102C4000BCEEC77A17EE903A17EE101A9BB289B213
:102C5000834228BF0346814282F89B3228BF014647
:102C60001B0AA2F8981282F89C32CFE42123C1E714
:102C7000314B41F6A84241F6A4413C209A5859589C
:102C800000FB0212110A83F80F23120C83F81013B1
:102C900083F81123324AD2ED007AFCEEE77A17EE80
:102CA000902AA3F812232F4AD2ED007AFCEEE77A9D
:102CB00017EE902AA3F81423A8E41F4B41F2022236
:102CC0009A5C83F83F2341F20B229A5C83F84023FD
:102CD00041F2EA529A5C83F8412341F2F3529A5C42
:102CE00083F8422341F212229A5C83F8432341F293
:102CF000AA329A5C83F8442388E40F4B41F2AC3249
:102D00009A5C83F8572341F294729A5C83F85823B3
:102D10007CE400BFAFF300800000000000405040A2
:102D20000000000040FFEF4000000000000069408C
:102D30009A9999999999B93F24B400200000C84202
:102D4000E8CB0020ECCB002054CC002058CC002055
:102D50007CC00020000082420000484300FA7F4708
:102D6000D0D00020D4D000201F4A02F58C5393ED20
:102D7000005A9FED193BB7EEC55A9FED194B25EE52
:102D8000035B85EE047BBDEEC77B17EE103A1BB2EA
:102D900082F88A331B1282F88933144B93ED006A50
:102DA000B7EEC66A26EE036B86EE047BBDEEC77BEC
:102DB00017EE103A1BB282F888331B1282F8873361
:102DC00024E4002002B0BDE81040FFF7B5BB0028A6
:102DD0003FF40FAF23230DE7F5C1631ADCA54C4088
:102DE000DE718A8EE4F27F3F24B40020B8C5002053
:102DF000104841F20223C35C80F83F3341F20B23B9
:102E0000C35C80F8403341F2EA53C35C80F841333D
:102E100041F2F353C35C80F8423341F21223C35CA6
:102E200080F8433341F2AA33C35C00F54D7003745C
:102E30000BF0A5BB24B400202DE9F0432DED068B4B
:102E400090F8CC3387B00446002B40F0E980D0F8EE
:102E5000C433053B032B37D8DFE803F0023B8AABD2
:102E600090F8D02390F8CF3300F6745043EA022351
:102E700000EE103A9FEDD28BB8EE400B20EE080B1F
:102E8000B7EEC00B0FF0ADF994F8D22394F8D1331C
:102E900004F63C6043EA022300EE103AB8EE400B21
:102EA00020EE080BB7EEC00B0FF09BF904F678523A
:102EB00004F5646304F6047092ED000AD3ED007A21
:102EC00030EE270A0FF08DF907B0BDEC068BBDE898
:102ED000F08390F9CF3300F67C309FEDC18A00EE8D
:102EE000103AB8EEC00A0BF08DFF94F9D03304F617
:102EF0000C4000EE103AB8EEC00A0BF083FF94F8D5
:102F0000D22394F8D13343EA022306EE103A9FED20
:102F1000AE9BB8EEC66B26EE096BB7EEC66BC6EE7F
:102F2000087AFCEEE77A17EE903A98B20BF0FAFEC8
:102F300004F634300BF066FF94F8D42394F8D333BE
:102F400043EA022307EE103AB8EEC77B27EE097B6F
:102F5000B7EEC77BC7EE087AFCEEE77A17EE903A39
:102F600098B20BF0DFFE04F6C4300BF04BFFABE77A
:102F700090F8D02390F8CF3300F5845043EA022331
:102F800014301BB200EE103AB8EEC00A0BF038FC59
:102F900094F8D22394F8D13304F5865043EA0223FF
:102FA00014301BB200EE103AB8EEC00A0BF028FC49
:102FB0008AE790F8CF331A070BD590F8942D12B901
:102FC000022280F8942D94F85C2E12B9022284F823
:102FD0005C2E5B060BD594F8943D13B9022384F85C
:102FE000943D94F85C3E13B9022384F85C3E94F857
:102FF000D03313F0020303D094F8943D13B90223A5
:1030000084F8943D94F8D13313F0020305D094F87A
:103010005C3E002B7FF458AF022384F85C3E53E7FC
:1030200041F6F0430022C25441F6F143C25C32B98A
:1030300001224FF48061C2546A4803F061FFD4F862
:10304000C833694A93425BD8B3F5803F11D841F247
:103050000202934200F0798438D8032B7DD041F2EC
:10306000010293427FF430AF04F589501C3000F028
:103070006FBCA3F10113112B3FF626AF01A252F84A
:1030800023F000BFBF3A0008D9390008D33B00083D
:10309000C92E0008C92E00087B390008C92E000877
:1030A000C92E0008C92E0008C92E0008C92E000824
:1030B000C92E0008C92E0008C92E0008C92E000814
:1030C0009D330008AB3F00083D40000841F2050277
:1030D00093427FF4F9AE94F8CE33032B7FF4F4AE31
:1030E00094F8CF33012B40F06884404C204600F820
:1030F000AC3910F09FF9A4F1840010F09BF9E3E6DD
:103100003B4A93427FF4E0AE94F8CF53D4F8D023F7
:10311000012D94F8D033059201F2528494F8D433FF
:1031200005AA294633480FF0FCF8334B002203EB85
:10313000850181F8F72281F8F82281F8F92281F8D7
:10314000FA22002D41F0328483F8C752C3F8C852E6
:10315000A3F8CC5283F8CE52B6E69FED1DAB9FED9F
:10316000188B9FED1D9B04F5747504F5767615F8A4
:10317000013C013B142B53D8DFE813F015001D0070
:1031800040004E005600640071007E008A009600E8
:10319000A000A700B400C100C700D500D800F3000C
:1031A000FF0002010C0141F298532A78E25441F2E7
:1031B0000923002202E02A7841F23853E2542FE03A
:1031C0009A9999999999B93F000000000000B04080
:1031D0007B14AE47E17A843F2D431CEBE2361A3F65
:1031E000007094450008024012000100E4C5002070
:1031F0000606060060CE002024B4002004F5A95382
:103200002A7807EE102AB8EEC77B27EE0A7BB7EEC6
:10321000C77B83ED077A03E02A7804F5AA531A7076
:103220000235AE42A3D14FE62A7804F5AA5307EE41
:10323000102AB8EEC77B27EE097BB7EEC77B83ED7C
:10324000017AEDE72B7804F5AA5203EB83035B00C8
:1032500007EE903AF8EEE77AC2ED027AE0E72B78D3
:1032600004F5AA5203EB83035B0007EE903AF8EEF5
:10327000E77AC2ED037AD3E72B7804F5AA5203EB81
:10328000830307EE903AF8EEE77AC2ED047AC7E7D7
:103290002B7804F5AB5203EB830307EE903AF8EE7C
:1032A000E77AC2ED017ABBE72A7804F5AA5307EE64
:1032B000902AF8EE677AC3ED067AB1E72B7804F529
:1032C000AB5203EB83035B00DBE72B7804F5AB52D7
:1032D00003EB83035B0007EE903AF8EEE77AC2ED6A
:1032E000057A9DE72B7804F5AB5203EB83035B0073
:1032F00007EE903AF8EEE77AC2ED067A90E72B787F
:1033000004F5AC5203EB8303AFE72A7804F5AC5322
:1033100007EE102AB8EEC77B27EE087BB7EEC77B17
:1033200083ED007A7CE741F2744342E7BE4803F044
:10333000DBFABE4805F0DAFDBC4805F076FD012059
:1033400002F084FDB94806F0FFF9B74803F04CFAE3
:1033500041F2BF1304F58B50E15C04300FF029FDFE
:103360005EE72B7804F59D5207EE103ABAEEEF7B3C
:10337000B7EEC77B82ED047A52E704F5AC533FE722
:103380002A7804F5AD5307EE102AB8EEC77B27EE76
:103390000A7BC3E72A7841F2A5530FE794F8CE33AE
:1033A000032B7FF491AD002241F2022694F8CF3333
:1033B00084F86F20142BA55D84F8705018D8142B56
:1033C0001CD8DFE813F02200500054001B001B0043
:1033D0001B00AD001B00E4001B0035014F015B0129
:1033E0001B00DA011B001B001B00E4011B003B0259
:1033F000622B00F01182632B00F0038104F1640062
:103400000BF0BDF8FFF7F4FC5EE545B3002104F5D1
:1034100090500CF021F941F2022200287AD00123C9
:1034200084F86F30A15C84F870108DF8143004F5C6
:10343000CE55002622445D2110353346009628469D
:103440000BF01BF905AA5C213346284600960BF0C9
:1034500014F902225C2128460BF06DF9CEE7012316
:1034600084F86F30CAE7012DF9D00121CFE794F835
:10347000D063A6B1012EC1D1022DF0D0022104F5F6
:1034800090500CF0E9F841F20222002842D084F872
:103490006F60A35C8DF8146084F87030C7E7022D6C
:1034A000DDD104F5905741F20828384614F8081089
:1034B0000CF0D2F8F0B1012341F2022204F5CE570C
:1034C00084F86F301037A15C8DF81430224484F8F2
:1034D000701033465D21384600960BF0CEF805AAF1
:1034E0005C213346384600960BF0C7F82A465C212B
:1034F0003846B1E714F8083000213846012B01BFE7
:1035000041F2AB32A35441F2AC33E5540CF0A4F8D1
:10351000002336E084F86F00A35C84F870306DE718
:1035200041F23053062104F59050E25294F8D13321
:1035300007EE103A04F595539FED396BB8EE477BD3
:1035400087EE065B93ED076A41F22E53B7EEC66A2B
:1035500085EE067BBCEEC77B17EE102AB2EE047A2E
:10356000E25204F5A95294F8D0337F3B07EE903A2B
:10357000F8EEE77A67EE877AC2ED057A0CF06CF820
:10358000012384F86F3041F20223E35CC5E794F82D
:10359000D06396B1012E7FF431AF082D3FF45FAFB9
:1035A000082104F590500CF057F841F2022300284E
:1035B00000F0418184F86F60E7E7082D7FF44FAF9A
:1035C00004F5905541F208262846A15D0CF044F818
:1035D0000028D5D1A35D012B09D141F2AB32A35410
:1035E00041F2AC330222E254002128468EE7022B3E
:1035F000FAD141F274420121A15441F27C42A35418
:10360000F2E741F2082304F59050E15C0CF024F855
:10361000A35D002800F0FD80012284F86F207CE784
:103620000000000000E06F409CB30020C0AD00200F
:1036300041F2EA55635D6219002BEDD0002103923F
:1036400004F5AF5008300CF007F8635D039A0028CA
:1036500000F0DF80012184F8703084F86F108DF85D
:1036600014102AE041F2EA55635D6219012B0392BE
:1036700001D00121E4E784F86F304EE794F8D0538D
:103680007DB3012D7FF4BAAE41F2EA56A35DA219D3
:10369000022B039200F08E8004F5AF500221083017
:1036A0000BF0DAFFA35D039A002800F0B28084F8E3
:1036B0006F5084F870308DF8145004F5CE55002604
:1036C0005F2110353346009628460AF0D6FF05AA3A
:1036D0005E213346284600960AF0CFFF02225E2183
:1036E000B9E641F2EA5814F8087004EB0802022F18
:1036F0003DD104F5AF5641F2F0590392083614F863
:10370000091030460BF0A8FF039AE0B1012304F53D
:10371000CE5684F86F30103614F808108DF8143037
:10372000304684F870102B465F2100950AF0A5FF03
:1037300005AA5E212B46304600950AF09EFF3A46C8
:103740005E21304688E614F8093000213046012B0E
:1037500001BF41F29372A35441F29473E7540BF00A
:103760007BFF002384F86F3041F2EA530DE7012319
:1037700084F8707084F86F3040E641F2EA55635D7A
:103780006219042B03923FF447AF042158E794F8E1
:10379000D05395B1012D7FF431AE41F2EA56A35DCD
:1037A000082B07D0082104F5AF5008440BF054FF54
:1037B000A35D70B384F86F50AFE641F2EA57E35D62
:1037C000082B7FF429AF04F5AF5541F2F0560835C8
:1037D000A15D28460BF040FF20B1012384F86F3033
:1037E000E35D9AE6A35D012B09D141F29372A354E4
:1037F00041F294730222E25400212846AFE7022BE3
:10380000FAD141F65C020121A15441F66402A354AD
:10381000F2E784F86F0080E641F2F05304F5AF5010
:10382000E15C08300BF018FF41F2EA5318B10122B5
:1038300084F86F20A9E684F86F00A6E694F8D053C8
:10384000002D41D0012D7FF4D9AD04F5CE570026CF
:1038500041F2122284F86F5010373346A5545A2192
:103860002244384600960AF008FF41F2FA523346E5
:103870005B21A5543846224400960AF0FEFE04F56A
:10388000AF5233465F210A32384600968DF8145005
:103890000AF0F3FE334605AA5E21384600960AF088
:1038A000ECFE04F5905233465D2102323846009614
:1038B0000AF0E3FE05AA5C213346384600960AF07A
:1038C000DCFE06225A2113E604F5CE56012741F20A
:1038D00012222B46103684F86F705A21A5543046B8
:1038E000224400950AF0C9FE41F2FA522B465B21B0
:1038F000A5543046224400950AF0BFFE2B4605AA87
:103900005F21304600958DF814500AF0B6FE2B4624
:1039100005AA5E21304600958DF814700AF0ADFEC0
:103920002B4605AA5D21304600958DF814500AF00B
:10393000A4FE05AA5C212B46304600958DF8147034
:103940000AF09BFE06225A21FBE604F5885014304B
:1039500094F8CE33032B0CD194F8D03394F8CF13D2
:1039600094F8D12341EA032109B20FF0BDFCFFF71F
:10397000ABBA0FF05CFDFFF7A7BA94F8CE33022B79
:103980007FF4A2AA94F8CF33012B01D0042B07D1E6
:10399000C74A012141F22D10115441F25510115422
:1039A000092B7FF491AAC24B002241F22D115A54E7
:1039B00041F255115A54FFF787BA002B7FF484AABD
:1039C000BC4C204600F8AC390FF038FDA4F184005F
:1039D0000FF034FDFFF778BA94F8CE73012F7FF41F
:1039E00073AA41F20223E35C012B3FF66DAA04F5B2
:1039F000777804F5FE7640460EF090FD05460028E7
:103A000055D140460EF0EAFE304604F5CE5684F815
:103A100007720AF0B4FD0223103604F583623921DF
:103A20008DF8143030463B4600970AF026FE2B46B0
:103A300005AA3821304600950AF01FFE03223821DE
:103A400030460AF078FE41F2BE33E35C002B3FF4CF
:103A50003BAA41F2BD33984A0821E75441F2BC33F6
:103A6000934C02F214600427E55404F59E542B464F
:103A700000950AF002FE914B04F1040822462360EF
:103A80002946636004F5C2603B4600970AF0F5FDE5
:103A9000424639463B4604F5C26000970AF0EDFD08
:103AA0000922294630460AF046FEFFF70DBA0023E8
:103AB00084F8073230460AF062FDFFF705BA94F841
:103AC000CE73012F7FF400AA41F2EA53E35C012B8D
:103AD0003FF6FAA904F5F16804F5117640460EF0B8
:103AE0001DFD0546002870D140460EF077FE304699
:103AF00004F5CE5684F84F720AF041FD02231036C9
:103B000004F2C4723C218DF8143030463B460097D5
:103B10000AF0B3FD2B4605AA3B21304600950AF07A
:103B2000ACFD03223B2130460AF005FE41F2A673AC
:103B3000E35C002B3FF4C8A941F2A4734FF48072F8
:103B40002721E2522B465E4A5E4C02F50B7000952F
:103B50000AF01EFD04250023224626462746A046DD
:103B600042F8843D46F8083F1F2147F8043F04F51A
:103B7000D27048F8803D23602B4600950AF07DFD09
:103B80002B464246232104F5D27000950AF075FDBC
:103B90002B463A462C2104F5D27000950AF06DFDB3
:103BA0002B463246302104F5D27000950AF065FDAF
:103BB000224628212B4604F5D27000950AF05DFDBF
:103BC00011221F2104F5D2706DE7002384F84F32D3
:103BD00070E794F8CE33012B7FF476A994F8CF33B5
:103BE000013B0B2B3FF670A9DFE813F00C0021001E
:103BF000B300CC00D3000A01230044003801960131
:103C000060007200022130480BF0A2FF48B1284B3F
:103C1000012283F8BF2141F2A4729A5C83F8C0218B
:103C200003E0234B002283F8BF21284843E7032108
:103C3000E9E7002124480CF01FF90028F1D01C4CC2
:103C400041F2EA53E35C012BEFD841F2A47501265F
:103C50001D4866550EF00CFA635D84F8BF6184F868
:103C6000C03100230093164A272102F50B700AF099
:103C70008FFCDAE7012114480CF0FEF80028D0D0C0
:103C80000B4C41F2EA53E35C012BCED8002541F204
:103C9000A4760D48A5550EF0EBF9012384F8BF3149
:103CA000A35D84F8C0312B460095DCE70221E2E7F2
:103CB00024B40020E4C50020E0C700200000344305
:103CC000C8CB002050CC00200CCA0020D8B5002062
:103CD0000321CD480CF0D0F80028A2D0CA48042413
:103CE0000EF0C6F9C94B01221F2183F8BF2141F212
:103CF000A4729A5C83F8C0212346C54A009402F559
:103D00000A700AF0BAFCC34A2346232102F509705F
:103D100000940AF0B2FCC04A2346282102F5D27072
:103D200000940AF0AAFCBD4A23462C2102F5D0706B
:103D300000940AF0A2FCBA4A2346302102F5CE7064
:103D400000940AF09AFC15221F21B6480AF0F3FCF1
:103D50006BE7B54C002120460BF0FAFEA4F590531A
:103D6000A27890B101218A4283F8571002D194F8C9
:103D7000BC2103E0022A03D194F8D82183F858200B
:103D8000AA4898E6A84C0121E5E7012A83F85700E4
:103D9000ECE7A54C00212046A4F590550CF06CF8FA
:103DA000A678002800F0F280012E14D1204684F875
:103DB000BC610EF05DF994F8BC3185F8576085F868
:103DC00058300023009304F5DE72082102F21460DB
:103DD0000AF0DEFBD4E7022ED2D10126204684F879
:103DE000D8610EF045F994F8D83185F8576085F818
:103DF0005830002300938E4A092102F5BF60E7E79F
:103E0000894C01212046A4F590550CF035F8A67890
:103E1000002800F0BB80012E0ED10027204684F838
:103E2000BC710EF025F994F8BC3185F8576085F81F
:103E300058303B460097C6E7022EA1D10026204607
:103E400084F8D8610EF014F9012385F8573094F8FE
:103E5000D83185F8583033460096CCE7724D0321AF
:103E60002846A5F590540CF007F8AE78002844D009
:103E7000012E20D128460EF0FBF895F8BC3104F550
:103E80009E52042584F8583000212B4602F5C2606A
:103E900084F8576000950AF0F0FB664A29462B46E5
:103EA00002F20C6000950AF0E8FB082200215D4850
:103EB0000AF041FC64E7022E7FF462AF28460EF060
:103EC000D7F801235C4A0A2184F8573095F8D83195
:103ED000042502F2F45084F858302B4600950AF07D
:103EE000CCFB04F59F520E212B4602F5BE600095D7
:103EF0000AF0C3FB08220A21D9E7012E84F85700F3
:103F000004D195F8BC3184F8583039E7022E7FF49B
:103F100037AF95F8D831F6E7434C02212046A4F597
:103F200090550BF0A9FFA67880B3012E18D1002779
:103F3000204684F8BC710EF09BF894F8BC3104F56F
:103F4000DE72082185F8576085F8583002F2146057
:103F50003B4600970AF01CFB33480EF089F80FE748
:103F6000022EF9D10026204684F8D8610EF080F8A0
:103F700001232F4A092185F8573002F5BF6094F8D4
:103F8000D83185F8583033460096E3E7012E85F89E
:103F9000570004D194F8BC3185F85830F0E6022E71
:103FA0007FF4EEAE94F8D831F6E794F8CE130229F8
:103FB0007EF48AAF94F8CF33012B03D0022B11D0BB
:103FC00000230AE094F8D033012BF9D104F5905086
:103FD0000BF042FB0028F3D0012304F1640084F8C5
:103FE0006F3068E594F8D033022BE9D104F5905591
:103FF000012128460BF030FB01460028ECD1284671
:104000000BF02AFBE8E700BF0CCA002024B4002014
:10401000CCCB0020D0CB002050CC002054CC0020B2
:1040200058CC0020F4CD002024C6002070B400201D
:10403000FCC70020E8C7002000C8002094F8CE3359
:10404000022B7EF441AF94F8CF33013B3A2B00F2C0
:10405000AB84DFE813F03B007400A904A9048100DD
:10406000EA002D013A016401A904A904A904A904E4
:10407000A904A904A904A9046A019701D301240190
:104080002401A904A904A904A904DA010302140261
:104090002502350246025702A904A904A904A9046D
:1040A0006502760287029502A602B702C802A90439
:1040B000A904A904A904A904D602E7022A033C031F
:1040C0007803AF03EC03FE033B044C04DA4B9FED93
:1040D000DB7AD3ED007AF4EEC77AF1EE10FA05D56B
:1040E0009FEDD77A77EE877AC3ED007A04F5CE5547
:1040F0000026022705AA10353346122100962846CD
:104100008DF814700AF0B9FA04F5A75393ED016A1B
:104110009FEDC75BB7EEC66A86EE057B05AA132145
:1041200028460096FCEEC77B17EE903A8DF81430C7
:1041300033460AF0A2FA3A46122128466FE0BE4BF7
:104140009FEDBF7AD3ED007AF4EEC77AF1EE10FA64
:10415000CCDD77EEC77AC7E794F8D033052B40F073
:104160009E8004F5A759B74B04F5CE560025C9F833
:10417000043005AAB44B1036122189F80050C9F852
:104180000C300223304600958DF814302B460AF08F
:1041900074FA2B4605AA1421304600950AF06DFAF0
:1041A0002B4605AA1621304600950AF066FA99EDCD
:1041B000016A05AA1321B7EEC66A304600959FED45
:1041C0009C5B86EE057BFCEEC77B17EE903A8DF884
:1041D00014302B460AF051FA99ED036AB2EE045BF3
:1041E00005AAB7EEC66A15213046009586EE057B16
:1041F000FCEEC77B17EE903A8DF814302B460AF090
:104200003CFA99F8003005AA17218DF81430304691
:104210002B4600950AF031FA0622122130460AF0A8
:104220008AFA012384F86F3039E0884B9FED887A51
:10423000D3ED007AF4EEC77AF1EE10FA05D5B3EEBD
:10424000047A77EE877AC3ED007A04F5CE5500261E
:10425000022705AA103533461421009628468DF80A
:1042600014700AF00AFA04F5A753B2EE045B05AA2B
:1042700093ED036A152128460096B7EEC66A86EECE
:10428000057BFCEEC77B17EE903A8DF81430334671
:104290000AF0F3F93A46142128460AF04CFA04F1E0
:1042A00064000AF06CF90120FEF76AF8FEF70CBE14
:1042B000664BB3EE047AD3ED007AF4EEC77AF1EEF2
:1042C00010FAC2DD77EEC77ABDE7624A1378062B93
:1042D00001D80133137004F5CE5504F590500BF05E
:1042E000DCF9002601231035022705AA84F86F3077
:1042F00016213346284600968DF814700AF0BDF951
:1043000004F5A75305AA172128461B7800968DF8B7
:10431000143033460AF0B1F93A461621BCE74D4A4B
:104320001378002BD7D0013BD4E794F8D03304F5B1
:10433000CE5500260227282B05F1100505AA4FF0BF
:10434000120128BF282328468DF8147007EE903AF2
:10435000394B9FED378BB8EEE77B27EE087BB7EE46
:10436000C77B37EE077A83ED007A334600960AF072
:1043700084F904F5A75393ED016AB7EEC66A86EE99
:10438000087BCBE694F8D033B2EE048B04F5CE551F
:104390000026282B4FF0020705F1100505AA28BFBB
:1043A0002823142128468DF8147007EE903A274BE5
:1043B000B8EEE77B27EE087BB7EEC77B37EE077AD0
:1043C00083ED007A334600960AF057F904F5A753B7
:1043D00005AA152193ED036A28460096B7EEC66A32
:1043E00086EE087BFCEEC77B17EE903A8DF8143012
:1043F00033460AF042F93A4614219EE694F8D03347
:10440000144A072B28BF072364E794F8D033B2EE91
:10441000046B0A2B28BF0A2307EE903A0E4BB8EE26
:10442000E77B27EE067BB7EEC77B83ED007AF8E6E5
:10443000000000000000594008C9002000806D45C0
:10444000000048430000C8430000B44210C90020E7
:104450000000BE4304C900205CC7002094F8D0339C
:10446000282B28BF282307EE903AC34BB8EEE77BF2
:104470009FEDBF6B27EE067BB7EEC77BD5E794F8C1
:10448000D033B2EE046B282B28BF282307EE903AD6
:10449000BA4BB8EEE77B27EE067BB7EEC77BC4E7E7
:1044A00094F8D033072B28BF072303EB83035B006B
:1044B00007EE903AB24BF8EEE77AC3ED007AB0E639
:1044C00094F8D033282B28BF282307EE903AAD4B21
:1044D000B8EEE77B9FEDA66B27EE067BB7EEC77BBA
:1044E000A3E794F8D033B2EE046B282B28BF28231F
:1044F00007EE903AA44BB8EEE77B27EE067BB7EECB
:10450000C77B92E794F8D033B2EE046B07EE103A13
:104510009E4BB8EEC77B27EE067BB7EEC77B84E7E2
:1045200094F8D033282B28BF282307EE903A984BD5
:10453000B8EEE77B9FED8E6B27EE067BB7EEC77B71
:1045400073E794F8D033B2EE046B282B28BF2823EE
:1045500007EE903A8F4BB8EEE77B27EE067BB7EE7F
:10456000C77B62E794F8D033072B28BF072303EB00
:1045700083035B0007EE903A874BF8EEE77A9CE7FF
:1045800094F8D033282B28BF282307EE903A834B8A
:10459000B8EEE77B9FED766B27EE067BB7EEC77B29
:1045A00043E794F8D033B2EE046B282B28BF2823BE
:1045B00007EE903A7A4BB8EEE77B27EE067BB7EE34
:1045C000C77B32E794F8D033B2EE046B282B28BFB8
:1045D000282307EE903A734BB8EEE77B27EE067B75
:1045E000B7EEC77B21E794F8D033072B28BF07230A
:1045F00003EB83035B0007EE903A6B4BF8EEE77A30
:104600005BE794F8D03341F2BF1204F5CE501E217F
:10461000A35405AA8DF8143000231030009309F03C
:10462000B7FFFEE5544B9FED617AD3ED006AC6EE0D
:10463000877AFCEEE77ACDED037A9DF80C50012DD8
:1046400040F2B281013DEDB204F5CE5600274FF0A5
:10465000010807EE905A10364FF0020984F86F8077
:10466000B8EEE77B05AA622130469FED416B27EE4D
:10467000067BB7EEC77B83ED007A3B4600978DF84B
:10468000149009F0FAFF05AA63213B4630460097D3
:104690008DF8145009F0F1FF4A46622130460AF0C5
:1046A0004AF84046FDF748FFF9E5334B9FED3F7A66
:1046B000D3ED006AC6EE877AFCEEE77ACDED037A99
:1046C0009DF80C500A2D00F26F810135BBE7384B85
:1046D000B2EE047AD3ED006AC6EE877AFCEEE77A92
:1046E00017EE905A15F0FF0500F05E81013DEDB226
:1046F000B2EE046B04F5CE56002707EE905A4FF049
:10470000010810364FF00209B8EEE77B84F86F809D
:1047100005AA6421304627EE067BB7EEC77B83ED02
:10472000007A3B4600978DF8149009F0A6FF05AA81
:1047300065213B46304600978DF8145009F09DFFE7
:104740004A466421AAE71A4BB2EE047AD3ED006A16
:10475000C6EE877AFCEEE77ACDED037A9DF80C5031
:10476000012D00F221810135C1E700BFAFF30080C8
:10477000000000000000594058C7002060C700201A
:1047800084C700204CC7002054C7002050C7002019
:1047900040CB002048CB00206CCB0020FCCC00207C
:1047A00004CD002000CD002008CD00200000C8422C
:1047B0005CC70020914BB2EE047AD3ED006AC6EEDE
:1047C000877AFCEEE77ACDED037A9DF80C50022D46
:1047D00040F2EA80013DEDB2B2EE046B04F5CE5634
:1047E000002707EE905A4FF0010810364FF00209EB
:1047F000B8EEE77B84F86F8005AA6621304627EE85
:10480000067BB7EEC77B83ED007A3B4600978DF8B9
:10481000149009F032FF05AA67213B463046009705
:104820008DF8145009F029FF4A46662136E7734B8C
:10483000B2EE047AD3ED006AC6EE877AFCEEE77A30
:10484000CDED037A9DF80C50082D00F2AD800135B6
:10485000C1E76B4BB2EE047AD3ED006AC6EE877AFD
:10486000FCEEE77ACDED037A9DF80C50022D00F2B4
:104870009B800135EDB2B2EE046B04F5CE560027F5
:1048800007EE905A4FF0010810364FF00209B8EECB
:10489000E77B84F86F8005AA6821304627EE067B07
:1048A000B7EEC77B83ED007A3B4600978DF81490F6
:1048B00009F0E3FE05AA69213B46304600978DF8D2
:1048C000145009F0DAFE4A466821E7E64C4BB2EE96
:1048D000047AD3ED006AC6EE877AFCEEE77ACDED76
:1048E000037A9DF80C50012D5ED9013DC2E7454B7E
:1048F00004F5CE56444900251A461036012742F8E1
:10490000041B304641491160414AD96262219A60D4
:10491000022305AA00958DF814302B4609F0ADFE50
:104920002B4605AA66213046009509F0A6FE2B46C7
:1049300005AA64213046009509F09FFE2B4605AA82
:1049400068213046009509F098FE0A2305AA6321E4
:104950008DF8143030462B46009509F08EFE2B461C
:1049600005AA6521304600958DF8147009F085FE82
:10497000052305AA672130468DF814302B46009593
:1049800009F07BFE2B4605AA6921304600958DF87B
:10499000147009F072FE08226221304609F0CBFE45
:1049A000384684F86F707DE600233BE483F8DF220D
:1049B000C3F8E022A3F8E42283F8E622FEF784BAE3
:1049C000032D0CD0042D16D0022D7EF47DAA0121DA
:1049D00010480EF02CFEFDF7B1FBFEF775BA0BB9CF
:1049E0002946F5E7012B01D10221F1E7022B7EF4E4
:1049F0006BAA0421ECE70021EAE700BF60C70020B2
:104A000084C7002058C7002000007A4400002041DD
:104A100000004842BCD00020034B0360034B0B60F6
:104A200080231360704700BF200300202001002076
:104A3000034B0360034B0B604FF4807313607047AC
:104A40007407002074030020F7B507F02FFE364DE1
:104A5000364A0423019005F55A773548A5F1B40686
:104A6000C0E900232023C0E9023302F054FA0421F4
:104A7000304C0DEB010007F039FF2D4802F073FABE
:104A80002D480EF036FB2D480EF028F82C480EF07D
:104A900007FC2C480DF0FEFA95ED000A2A480EF0AE
:104AA000A7FB397830460EF049FB28480EF016F87F
:104AB00027480EF0F5FB27480DF0ECFA94ED000ABC
:104AC000A4F590600EF094FB94F86813A4F5906040
:104AD0000EF034FBA4F24352F2EE046A04F22C63AB
:104AE000127804F5767007EE102AA4F22D5212788F
:104AF000B8EE477A07EE902A27EE267AF8EE677A24
:104B000083ED007A04F5C66367EEA67AC3ED007AFA
:104B1000114BA3F11802A2F118010DF039FC04F2B7
:104B200034600EF0A5FCA2E7A0C6002000300040D3
:104B3000C0AE002088CA002088C5002000B8002030
:104B400038C5002024C60020ECC50020ACBB0020E6
:104B500060C500200CCA002010B70020074CA4F547
:104B6000717508B509F0EEFC0028FBD0204609F06D
:104B700004FD2846FEF760F9F4E700BFE8B700201F
:104B80002DE9FF41002444F61F6707F08FFD0390D5
:104B90000A2103A807F0AAFEBC42164D4FF00006FA
:104BA00094BF0A340024A84698BFA4B298F80430F1
:104BB000B342EDDDEB7DB3B92A8BB2F5FA7F15D0A8
:104BC000B2F5FA6F14D0642A08BF0A231344B4FB69
:104BD000F3F203FB124333B9281D0190FDF7F4FCF7
:104BE000019809F0CCFC01361835DFE71423EDE716
:104BF0001E23EBE724B400202DE9F043674F85B076
:104C00000024DFF8D49107F57A7807F04FFD039080
:104C10000134322103A8A4B207F068FE132C02D994
:104C20000024FDF78BFA5E480EF0DEFC38465D4D41
:104C30000CF08DFD78B15C4B1B78012B40F091801E
:104C40005A4A13783BB10023082102F21460137012
:104C5000009309F09DFC40460CF079FD88B1544862
:104C60000378012B0DD190F8BA3100F5DD7243B114
:104C70000023272180F8BA3100F2E630009309F0D2
:104C800087FC38460CF066FDD0B1002601230DF1FB
:104C90000B025C218DF80B3033464648009609F034
:104CA000ECFC414A33465D2102F2CE70009609F0D9
:104CB000E4FC02225C213F4809F03DFD3E4B1E70A2
:104CC00040460CF047FDD0B1002601230DF10B0248
:104CD0005E218DF80B3033463648009609F0CDFC46
:104CE000334A33465F2102F2E630009609F0C5FCF4
:104CF00002225E212F4809F01EFD304B1E70304805
:104D00000AF060F82F480AF05DF82F4E2F480AF09D
:104D100059F82F480AF056F8D6ED007AB2EE0E7A1E
:104D2000A6F52D70F0EEE77AF4EEC77AF1EE10FA00
:104D3000CCBF0123002385F8E13C0EF0EBFCA6F587
:104D400009700EF0E7FC06F1C4000DF07BFA41F6A5
:104D5000F042AB5C272B13D80133AB54FDF756FA66
:104D600056E7022B7FF477AF1A4A1378002B3FF4F3
:104D700072AF0023092102F5BF601370009368E74A
:104D800041F6F143EA5C0AB10022EA5400224FF4F2
:104D90008061484602F0B4F8E0E700BF24C6002076
:104DA000BCD0002024B4002026C60020E0C700208C
:104DB0000ECA0020F4CD002038C6002020CA0020F2
:104DC00058BF0020A0BF00202CC30020E8BF002057
:104DD00030C00020FCC7002000080240F0B5642568
:104DE000F9B01920002409F069FDB2EE040A904BD5
:104DF00003224FF47A7104A800954FF47A7609F0F3
:104E00002FFDB2EE040A8B4B04224FF47A7108A8EE
:104E100000950A2709F024FDB2EE040A864B05220C
:104E20004FF47A710CA8009509F01AFDB2EE040A4D
:104E3000824B06224FF47A7110A8009509F010FDFC
:104E40009FED7F0A7F4B07223221009414A809F0BE
:104E500007FD9FED7B0A7C4B08223221009418A8A5
:104E600009F0FEFCB7EE000A784B092232210094CB
:104E70001CA809F0F5FCB7EE000A754B0A221921AF
:104E8000009420A809F0ECFCB7EE000A714B0B224D
:104E90001921009424A809F0E3FCB2EE040A6E4B39
:104EA0000C224FF47A71009428A809F0D9FC9FEDE8
:104EB000640A6A4B0D224FF47A7100942CA809F011
:104EC000CFFC9FED5F0A664B0E224FF47A7100947F
:104ED00030A809F0C5FCB2EE040A624B0F224FF471
:104EE0007A71009434A809F0BBFCB2EE040A5E4B60
:104EF00010224FF47A71009438A8012409F0B0FC14
:104F0000B2EE040A594B112232213CA8009609F056
:104F1000A7FCB2EE040A564B1222322140A800969A
:104F200009F09EFCB2EE040A524B1322322144A82F
:104F3000009609F095FCB2EE040A4F4B1422322180
:104F400048A8009609F08CFCB7EE000A4B4B1522DE
:104F500029464CA8009409F083FCB7EE000A484BA0
:104F60001622294650A8009409F07AFCB7EE000AF0
:104F7000444B1722294654A8009409F071FCB7EE5F
:104F8000000A414B1822294658A8009409F068FCF1
:104F90009FED3E0A3E4B192232215CA8009709F092
:104FA0005FFC9FED3A0A3B4B1A22322160A8009722
:104FB00009F056FCB7EE000A374B1B22C82164A843
:104FC000009409F04DFCB7EE000A344B1C22C821B6
:104FD00068A8009409F044FCB7EE000A304B1D228B
:104FE00031466CA8009409F03BFCB7EE000A2D4B4B
:104FF0001E22314670A8009409F032FCB7EE000A78
:10500000294B1F22294674A8009409F029FC09F0B5
:105010009DFD18B1254B186807F08CFA07F046FB88
:105020000390192103A807F061FC09F079FCF8E767
:10503000A4BF00205CBF002034C00020ECBF0020D3
:105040000000C84264C200209CC100207CC0002037
:105050000CB80020B8BB002008D100200CD10020E3
:1050600010D10020D0D00020D4D0002038C500209E
:1050700060C50020FCC5002018C6002028C60020FE
:1050800030C6002010CA002018CA002000007A4450
:10509000E4C60020CCCA002008C80020F0CB0020C5
:1050A00008C9002010C90020E8C50020D80700204A
:1050B000F0B5B9B02C220021022509A801260EF076
:1050C000B5FB1422002102A80EF0B0FB90220021B3
:1050D00014A80EF0ABFB284B4FF4800106271A6C86
:1050E00007A8002442F080521A641B6C03F080531E
:1050F0000093009B214B1A6842F440421A60092237
:105100001B68129703F440430193019B4FF48033D3
:10511000CDE907230823CDE90E134FF4C073CDE981
:105120000C65CDE9103501F05DFF01F023FF0F2381
:10513000394602A8CDE902354FF4C053CDE9044306
:105140004FF48053069302F041F90D4B14A81C96BE
:105150001493C02319934FF00063CDE91A55CDE99C
:105160001E64CDE92644CDE92B44CDE9333402F069
:105170000BFA39B0F0BD00BF0038024000700040AB
:105180008031A0002DE9F04F91B0C94D00F041FEF3
:105190000024FFF78DFF142200210BA80EF046FB20
:1051A0002B6B0122102143F01003C2480127102667
:1051B0002B634FF480782B6B4FF0020A4FF00309FA
:1051C0004FF4801B03F010030593059B2B6B43F0FA
:1051D00004032B632B6B03F004030693069B2B6BDA
:1051E00043F080032B632B6B03F080030793079B33
:1051F0002B6B43F001032B632B6B03F0010308932C
:10520000089B2B6B43F002032B632B6B03F0020311
:105210000993099B2B6B43F008032B632B6B03F063
:1052200008030A930A9B01F06BFE00224FF406412B
:10523000A14801F065FE00224FF470519D4801F035
:105240005FFE00224FF480719C4801F059FE00225D
:1052500018219B4801F054FE00224021994801F09A
:105260004FFE0BA993480D970E94CDE90B6701F003
:10527000B9FC4FF406430BA98F48CDE90B37CDE9B4
:105280000D4401F0AFFC4FF470530BA98948CDE9F0
:105290000B37CDE90D4401F0A5FC4FF440630BA999
:1052A00087480D94CDE90B3401F09CFC0BA9834891
:1052B0000D94CDF838A0CDE90B8701F093FC1823AD
:1052C0000BA97F48CDE90B37CDE90D4A01F08AFCE7
:1052D0000BA97C480D94CDE90B6401F083FC4023BD
:1052E0000BA97848CDE90B37CDE90D4401F07AFCE4
:1052F0002B6B2246214643F480030E202B632B6B3D
:1053000003F480030393039B2B6B43F400132B6381
:105310002B6B6D4D03F400130493049B01F0FAF919
:105320000E2001F029FA22460721382001F0F2F977
:10533000382001F021FA224606213B2001F0EAF94B
:105340003B2001F019FA22460621452001F0E2F93E
:10535000452001F011FA214632460BA80EF066FAFC
:105360005A4A4FF4403304262846AC602F61AF619F
:1053700085F82040EC62EC60C5F81C9085F8307030
:105380006C61C5E90023524BAB6200F071FD0BA9C3
:1053900028460D96CDE90B6700F0EAFE05230BA920
:1053A00028464C4FCDE90B3A00F0E2FE0BA9284607
:1053B00006254FF0807ACDE90B9900F0D9FE4648DA
:1053C000464B4FF4E139A0F81C80C0F818A0C0E9A2
:1053D00000354FF44023C0E90244C0E9043B00F02B
:1053E0006DFF3F4A3F494FF4804014614FF4007C09
:1053F000C2E900145021C2E90244C2E905013A4859
:105400004FF48272C0E900724FF4E0620C278460AE
:1054100044618462C0E903242022C0E906C2072255
:10542000C0E90B240822C0E90844426303F0A4F851
:105430002E482F4A04614462C0E90029C0E90244B1
:10544000C0E90574C0E9074404F07EF929482A4AF6
:10545000C0E90244C0E90029C0E90447C0E90644A4
:10546000C0E9084404F070F9DFF89CE023483022DA
:10547000C0E900E24FF6FF7284608461C0E9032452
:1054800003F0A8FC04F092FC1D481E4A4FF4402390
:10549000A0F81C80C0F818A0DFF87080C0E90025D3
:1054A000C0E90244C0E9043B00F008FF30E000BF5F
:1054B0000038024000100240000802400000024094
:1054C000000C02400004024054B3002000200140C0
:1054D0000100000F003401403CD300200064004074
:1054E000D0AE0020002C014018D10020BCD20020FA
:1054F0000044004040AE00200048004064D300203B
:10550000FCB300200068004000200040007800400C
:105510004148424BC0E90244C0E90039C0E90447B0
:10552000C0E90644C0E9084404F00EF93C484FF4D1
:10553000E123C0E90244C0E90083C0E90446C0E9B0
:105540000644C0E9084404F0FFF82C4608F0D8F8F7
:10555000344A354D936843F480539360FBF7A8F9C0
:10556000FBF704FCFBF7A4FCFBF714FDFBF74EFD77
:10557000FBF76CFDFBF79AFDFBF7B8FDFBF7C2FDEF
:10558000FBF7E6FDFCF7B2FDFBF7B4FFFCF774FB9D
:10559000FCF7C4FD4FF40051284601F0B6FC64202E
:1055A00000F054FC013CF5D1204B4FF440722049EF
:1055B0000125019304231F480093234606F08CFF26
:1055C0001D4B4FF4C0721D49019323461C480095A2
:1055D00006F082FF1B4B4FF420721B491B48CDE99C
:1055E0000053234606F078FF194B4FF440721949D7
:1055F0001948CDE90053234606F06EFF174B4FF4D0
:10560000A06217491748CDE90053234606F064FF0E
:1056100005F068FFFEE700BF3CD20020007C0040A0
:10562000C0AD0020002004E000100240D40700209C
:1056300070460108494A0008D00700207D4601084D
:10564000F94B0008CC07002088460108814B000870
:10565000C8070020934601085D4B0008D8070020CA
:105660009E460108DD4D0008074B41F2BF129A5CCF
:1056700012B906480DF0D1BB012A01BF41F2BE119B
:105680005A5C01325A54704724B4002088C5002067
:10569000704700000268034B9A4201D100F0C4BB7E
:1056A000704700BF00140040704700000D4B82B0EF
:1056B0000F216FF001001A6C42F080521A641A6CCC
:1056C00002F080520092009A5A6C42F480425A646E
:1056D00000225B6C03F480430193019B02B001F054
:1056E00019B800BF0038024070B588B005461422D2
:1056F000002103A80EF09AF82A68204B9A423BD169
:1057000003F58C33002603A91D485A6C1D4C42F446
:1057100080725A645A6C02F480720192019A1A6B78
:1057200042F001021A6338221B6B059603F0010355
:105730000293029B0323CDE9032301F053FA124B9A
:105740004FF480614FF48040C4E900364FF4805339
:10575000C4E904134FF48073C4E906034FF48033A3
:105760002046C4E90266C4E9083601F03DF808B1F4
:10577000FFF79AFFAC63A56308B070BD002001403D
:10578000000002407CD100201064024010B58CB0B3
:1057900004461422002107A80EF048F82368354A71
:1057A00093422AD1344A13680133012B136009D183
:1057B000324B1A6C42F000721A641B6C03F00073D7
:1057C0000193019B2D4B4FF4C050002407A91A6B85
:1057D00042F001021A631B6B03F001030293029B68
:1057E0000223CDE9070303232548CDE90943092313
:1057F0000B9301F0F7F90CB010BD224A9342FAD195
:105800001E4B1D491A6C42F400521A641A6C02F4C1
:1058100000520392039A1A6C42F080621A641A6C66
:1058200002F080620492049A0A680132012A0A6036
:1058300008D11A6C42F000721A641A6C02F00072FD
:105840000592059A1A6B00210F4842F002021A6372
:105850004FF440521B6B03F002030693069B022396
:10586000CDE907230323CDE90913092307A90B93E6
:10587000BFE700BF00640040DC07002000380240A2
:105880000000024000680040000402402DE9F0439F
:1058900089B005461422002103A80DF0C7FF2A682D
:1058A0004D4B9A4240F0948003F586330C244FF020
:1058B000020900265A6C03270DEB0401474842F405
:1058C00000624FF004085A645A6C02F400620092BD
:1058D000009A1A6B42F004021A631A6B02F0040277
:1058E0000192019A1A6B42F008021A631B6B07942B
:1058F00003F008030293029B4FF48853CDE9056738
:10590000CDE9033901F06EF90DEB04013448079439
:10591000344CCDE90389CDE9056701F063F94FF017
:105920000063DFF8CCE04FF480694FF480424FF41D
:1059300000012046A762C4E900E34FF48053C4E9A4
:1059400004932023C4E906234FF40033C4E9083844
:105950004FF40013C4E90266C4E90B1300F044FFDE
:1059600008B1FFF7A1FE4FF000631F4A2C644021ED
:10597000A5634FF480601D4C4FF480464FF4003710
:105980004FF0030CC4E900230023C4E902134FF4D1
:105990008053C4E9040320232046C4E9066304239A
:1059A000C4E908734FF40003C4E90AC34FF40013B9
:1059B000236300F019FF08B1FFF776FE31200022C3
:1059C0000621EC63A56300F0A5FE312000F0D4FEB3
:1059D00009B0BDE8F08300BF002C01400008024080
:1059E000000C0240DCD10020A0640240A4D30020BF
:1059F0005864024010B588B004461422002103A860
:105A00000DF014FF2268134B9A4221D103F5823323
:105A1000002111485A6C42F400525A645A6C02F444
:105A200000520192019A1A6B42F010021A6364222A
:105A30001B6B03F010030293029B0223CDE90323A7
:105A40000323CDE90513052303A9079301F0CAF841
:105A500008B010BD0034014000100240026882B05E
:105A6000074B9A420AD103F506331A6C42F480724E
:105A70001A641B6C03F480730193019B02B070479E
:105A80000020004070B58EB006461422002109A8FF
:105A90000DF0CCFE33685B4A934248D15A4B4FF429
:105AA000C0755A4809A91A6C594C42F080421A64D0
:105AB0001A6C02F080420192019A1A6B42F01002B5
:105AC0001A631B6B03F010030293029B0223CDE9C0
:105AD000095300250323CDE90B5308230D9301F04F
