:020000040800F2
:1000000000000820B95A0008A9590008AD59000895
:10001000D9590008DB590008DD590008000000002C
:10002000000000000000000000000000B1D2000845
:10003000DF5900080000000051D30008B5D30008C4
:10004000095B0008095B0008095B0008095B000800
:10005000095B0008095B0008095B0008095B0008F0
:10006000095B0008E1590008095B0008095B00080A
:10007000095B0008095B0008095B0008095B0008D0
:10008000155A0008095B0008095B0008095B0008B5
:10009000095B0008095B0008095B0008215A000899
:1000A000095B0008095B0008095B0008095B0008A0
:1000B000095B0008095B0008095B0008095B000890
:1000C000095B0008095B0008095B0008095B000880
:1000D000095B0008095B0008555A0008095B000825
:1000E000095B0008095B0008095B0008095B000860
:1000F000095B0008095B0008095B0008095B000850
:10010000095B0008615A0008095B0008095B0008E8
:10011000095B0008095B0008095B00086D5A0008CC
:10012000795A0008095B0008095B0008855A000835
:10013000095B0008095B0008095B0008095B00080F
:10014000095B0008095B0008095B0008095B0008FF
:10015000095B0008915A0008095B0008095B000868
:10016000095B0008095B0008095B0008095B0008DF
:10017000095B0008095B0008095B0008095B0008CF
:10018000095B0008095B0008095B0008095B0008BF
:10019000095B0008095B0008095B0008095B0008AF
:1001A000095B0008095B0008095B0008095B00089F
:1001B000095B0008095B0008095B0008095B00088F
:1001C000095B0008095B000800000000095B0008EB
:1001D000095B0008095B0008095B0008095B00086F
:1001E000095B0008095B0008095B0008095B00085F
:0801F000095B0008095B00082F
:1002000010B5054C237833B9044B13B10448AFF350
:1002100000800123237010BD0401002000000000B5
:100220009848010808B5034B1BB103490348AFF3D5
:10023000008008BD00000000080100209848010867
:1002400081F0004102E000BF83F0004330B54FEA87
:1002500041044FEA430594EA050F08BF90EA020FF4
:100260001FBF54EA000C55EA020C7FEA645C7FEA87
:10027000655C00F0E2804FEA5454D4EB5555B8BFAA
:100280006D420CDD2C4480EA020281EA030382EA1B
:10029000000083EA010180EA020281EA0303362DAD
:1002A00088BF30BD11F0004F4FEA01314FF4801C80
:1002B0004CEA113102D0404261EB410113F0004F92
:1002C0004FEA03334CEA133302D0524263EB430349
:1002D00094EA050F00F0A780A4F10104D5F1200EE7
:1002E0000DDB02FA0EFC22FA05F2801841F1000142
:1002F00003FA0EF2801843FA05F359410EE0A5F116
:1003000020050EF1200E012A03FA0EFC28BF4CF046
:10031000020C43FA05F3C01851EBE37101F00045FC
:1003200007D54FF0000EDCF1000C7EEB00006EEB09
:100330000101B1F5801F1BD3B1F5001F0CD3490893
:100340005FEA30004FEA3C0C04F101044FEA4452EA
:1003500012F5800F80F09A80BCF1004F08BF5FEA71
:10036000500C50F1000041EB045141EA050130BD51
:100370005FEA4C0C404141EB0101013C28BFB1F563
:10038000801FE9D291F0000F04BF01460020B1FAAE
:1003900081F308BF2033A3F10B03B3F120020CDA81
:1003A0000C3208DD02F1140CC2F10C0201FA0CF05F
:1003B00021FA02F10CE002F11402D8BFC2F1200CC4
:1003C00001FA02F120FA0CFCDCBF41EA0C0190407A
:1003D000E41AA2BF01EB0451294330BD6FEA0404C3
:1003E0001F3C1CDA0C340EDC04F11404C4F12002AE
:1003F00020FA04F001FA02F340EA030021FA04F3C0
:1004000045EA030130BDC4F10C04C4F1200220FA16
:1004100002F001FA04F340EA0300294630BD21FA54
:1004200004F0294630BD94F0000F83F4801306BF1A
:1004300081F480110134013D4EE77FEA645C18BF0E
:100440007FEA655C29D094EA050F08BF90EA020FA5
:1004500005D054EA000C04BF1946104630BD91EA9D
:10046000030F1EBF0021002030BD5FEA545C05D1A0
:100470004000494128BF41F0004130BD14F58004DF
:100480003CBF01F5801130BD01F0004545F0FE4153
:1004900041F470014FF0000030BD7FEA645C1ABF88
:1004A000194610467FEA655C1CBF0B46024650EABF
:1004B000013406BF52EA033591EA030F41F40021EB
:1004C00030BD00BF90F0000F04BF0021704730B571
:1004D0004FF4806404F132044FF000054FF0000146
:1004E00050E700BF90F0000F04BF0021704730B507
:1004F0004FF4806404F1320410F0004548BF4042DC
:100500004FF000013EE700BF42004FEAE2014FEA30
:1005100031014FEA02701FBF12F07F4393F07F4F0B
:1005200081F06051704732F07F4208BF704793F00E
:100530007F4F04BF41F40021704730B54FF4607421
:1005400001F0004521F000411CE700BF50EA010224
:1005500008BF704730B54FF000050AE050EA0102CD
:1005600008BF704730B511F0004502D5404261EB3D
:1005700041014FF4806404F132045FEA915C3FF47E
:10058000D8AE4FF003025FEADC0C18BF03325FEA1B
:10059000DC0C18BF033202EBDC02C2F1200300FACC
:1005A00003FC20FA02F001FA03FE40EA0E0021FAF1
:1005B00002F11444BDE600BF53B94AB9002908BF8F
:1005C00000281CBF4FF0FF314FF0FF3000F06EB934
:1005D000ADF1080C6DE904CE00F006F8DDF804E09A
:1005E000DDE9022304B070472DE9F047089D044679
:1005F0008C46002B40F083808A42174647D9B2FAD6
:1006000082F242B1C2F1200024FA00F091409740FA
:1006100040EA010C94404FEA1748230CBCFBF8F663
:100620001FFA87FE08FB16C143EA014306FB0EF1E1
:10063000994209D9FB1806F1FF3080F019819942DF
:1006400040F21681023E3B445B1AA4B2B3FBF8F0C1
:1006500008FB103344EA034400FB0EFEA64509D90B
:100660003C1900F1FF3380F00581A64540F202817C
:1006700002383C4440EA0640A4EB0E0400261DB1BB
:10068000D4400023C5E900433146BDE8F08702B9F4
:10069000FFDEB2FA82F2002A50D1CB1B4FEA174E8E
:1006A0001FFA87F80126B3FBFEFC210C0EFB1C335E
:1006B00041EA034108FB0CF38B4207D979180CF18E
:1006C000FF3002D28B4200F2E9808446C91AA3B2FD
:1006D000B1FBFEF00EFB101143EA014408FB00F8E9
:1006E000A04507D93C1900F1FF3302D2A04500F222
:1006F000D9801846A4EB080440EA0C40BFE78B42BF
:1007000009D9002D00F0B1800026C5E9000130466E
:100710003146BDE8F087B3FA83F6002E4AD18B420A
:1007200002D3824200F2B880841A61EB03010120F7
:100730008C46002DA8D0C5E9004CA5E7C2F12003E6
:1007400020FA03F6974001FA02F04FEA174ED9401B
:100750003043030CB1FBFEF61FFA87F80EFB1611AF
:1007600043EA014306FB08F1994204FA02F409D96D
:10077000FB1806F1FF3C80F08D80994240F28A80A0
:10078000023E3B445B1A81B2B3FBFEF00EFB10331A
:1007900041EA034100FB08F38B4207D9791800F1C5
:1007A000FF3C73D28B4271D902383944CB1A40EAEC
:1007B000064678E7C6F1200C03FA06F422FA0CF399
:1007C0001C4320FA0CF701FA06F34FEA144E21FA03
:1007D0000CF11F433B0CB1FBFEF91FFA84F80EFB32
:1007E000191143EA014109FB08FA8A4502FA06F2A7
:1007F00000FA06F308D9611809F1FF3048D28A459A
:1008000046D9A9F102092144A1EB0A01BFB2B1FB0B
:10081000FEF00EFB101147EA014700FB08F8B8454F
:1008200007D9E71900F1FF312ED2B8452CD902388B
:10083000274440EA0940A7EB0807A0FB02894F457F
:10084000C64649461AD317D05DB1B3EB0E0267EB2B
:10085000010707FA0CFCF2404CEA0202F740C5E936
:10086000002700263146BDE8F0872E4628460BE7D4
:100870000646E9E61846FDE64345E5D2B8EB020E2A
:1008800069EB04010138DFE70846D2E760468DE7EF
:100890008146B9E7664675E730464AE7ACF1020C97
:1008A000394413E702383C4424E700BF704700BFD7
:1008B0002DE9F04FE04C85B000264FF0320B20467A
:1008C0000723012240F2032100F8046F0225009360
:1008D00033464FF004094FF4FA7A01274FF4FA68CF
:1008E000CDE9016B0DF08BFE227933460095104463
:1008F00040F201210122207104F11C00CDE9016BBD
:100900000DF07DFE2279334640F202211044CDF8ED
:1009100000900122207104F13400CDE9016B0DF04B
:100920006EFE2279052340F2192110440122009322
:100930003346207104F14C00CDE901560DF05FFE05
:1009400022793346009510444FF40871012220713A
:1009500004F16400CDE901560DF051FE2279072320
:1009600040F211211044012200933346207104F11A
:100970007C00CDE9016A0DF042FE2279334640F257
:100980003121104400973A46207104F19400CDE9DA
:1009900001560DF034FE217908233A46084440F20E
:1009A000062100933346207104F1AC00CDE9016BC0
:1009B0000DF025FE217964233A460844CDF80090D5
:1009C0004FF40571207104F1C400CDE90163334691
:1009D0000DF015FE217933463A46084400974FF44E
:1009E0002671207104F1DC00CDE901680DF007FEED
:1009F000217933463A46084400974FF466712071D6
:100A000004F1F400CDE901680DF0F9FD21793346D8
:100A10003A46084400979821207104F58670CDE984
:100A200001680DF0ECFD217933463A460844009701
:100A30004FF4CC71207104F59270CDE901680DF08E
:100A4000DEFD217905233A46084440F211710093F6
:100A50003346207104F59E70CDE9016A0DF0CFFD9B
:100A6000217933463A460844009540F2013120711D
:100A700004F5AA70CDE9016B0DF0C1FD2179642365
:100A80003A460844CDF8009040F20231207104F556
:100A9000B670CDE9016333460DF0B1FD217907232E
:100AA0003A46084440F2033100933346207104F57E
:100AB000C270CDE9016B0DF0A2FD217907233A4602
:100AC000084440F2113100933346207104F5CE7092
:100AD000CDE9016A0DF093FD217933463A46084489
:100AE00000954FF44871207104F5DA70CDE9015694
:100AF0000DF085FD217964233A460844CDF8009035
:100B000040F21931207104F5E670CDE901633346F6
:100B10000DF075FD217903233A4608444FF48371A3
:100B200000933346207104F5F270CDE9016B0DF0AE
:100B300066FD217933463A46084400974FF48A719E
:100B4000207104F5FE70CDE901560DF058FD2179B4
:100B500033463A46084400974FF48971207104F5F2
:100B60000570CDE9016A0DF04AFD217903233A466B
:100B7000084440F2051100933346207104F50B70D0
:100B8000CDE9016B0DF03BFD217933463A4608442F
:100B9000009740F21311207104F51170CDE9015650
:100BA0000DF02DFD217933463A460844009740F276
:100BB0001111207104F51770CDE9016A0DF01FFDC8
:100BC000217933463A460844CDF8009041F20301BA
:100BD000207104F51D70CDE9016B0DF010FD217938
:100BE00008233A460844154900933346207104F51A
:100BF0002970CDE901560DF002FD217908233A460E
:100C000008440F4900933346207104F52F70CDE955
:100C100001560DF0F4FC217908233A4608440949AD
:100C200000933346207104F535700625CDE901683F
:100C30000DF0E5FC08E000BF88B4002005050500C4
:100C40000605050007050500217907233A460844F3
:100C50004FF4C02100933346207104F53B70CDE979
:100C600001680DF0CCFC217933463A4608440095E2
:100C70002C49207104F54170CDE901680DF0BFFCED
:100C8000217964233A46084400952749207104F5E8
:100C90004770CDE9016333460DF0B1FC21790323A0
:100CA0003A460844214900933346207104F54D70BB
:100CB000CDE9016A0DF0A3FC217933463A46084498
:100CC000CDF800903946207104F55970CDE9016BDB
:100CD0000DF095FC217903233A460844144900930A
:100CE0003346207104F52370CDE9016A0DF087FCCD
:100CF000217964233A4608440E49CDE9016305236E
:100D0000207104F55370009333460DF078FC23797D
:100D10001844C0B22828207194BF0020012005B0DB
:100D2000BDE8F08F01000600020006001100060079
:100D3000120006001300060030B5012287B0002122
:100D400042480DF0E1FF10B1012007B030BD404C2A
:100D500094F8423BBBB10123142164220190DFEDE2
:100D60003D1A04F644309FED3C1ADFED3C0A9FED3E
:100D70003C0A0092CDE904330A23CDE902311E2357
:100D8000194611F0F7FF0122052136480DF0BCFF8E
:100D90000028D9D194F8D23BB3B101231422019099
:100DA000DFED2C1A9FED2C1ADFED2C0A9FED2C0A9B
:100DB0002D48CDE904330A23CDE9023264221E23F3
:100DC0000092194611F0D6FF0122284811460DF075
:100DD0009BFF0028B8D194F88A3BA3B101231421CA
:100DE00064220190DFED1B1A9FED1B1ADFED1B0A39
:100DF0009FED1B0A1E480092CDE904330A23CDE97A
:100E0000023111F0B7FF012204211A480DF07CFFD6
:100E10000546002898D194F81A0C002895D0012393
:100E2000142164221448DFED0B1A9FED0B1ADFED3D
:100E30000B0A9FED0B0A01950092CDE904330A23BA
:100E4000CDE9023111F096FF28467EE7BCBF0020B5
:100E500088B4002000002043000070C200008C42D3
:100E60000000B4424CC000205CC0002004C0002040
:100E700014C0002094C00020A4C000202DE9F0413F
:100E8000B2EE040A86B00122DFED240A02212448D2
:100E900012F028FD044600283DD1224D95F86C0C37
:100EA000B0B340F2E24228274FF002080826DFEDF7
:100EB0001E1AFA239FED1D1A0121DFED1D0A05F50B
:100EC00047609FED1C0A00920594CDE90378CDE9B7
:100ED000014611F04FFF012305F6A840DFED121A7D
:100EE00085F8973C40F2E24201934FF47A639FED1C
:100EF0000F1AFA21009340F6B833DFED0F0A9FED89
:100F00000F0ACDE90484CDE9026711F033FF2046D2
:100F100006B0BDE8F0810120FAE700BF0000D3432E
:100F2000DCC0002088B4002000008C4200000000DB
:100F3000000064420000704200003842000030426D
:100F400001239FED4D0A03214C481A4630B587B066
:100F500011F036F910B1012007B030BD484C94F8BB
:100F6000FE5C012D1DD1B3EE0E3ADFED462AF0EE08
:100F7000041A9FED452A9FED451A04F6E440DFED83
:100F8000440A9FED440A11F0BDF80028E3D104F5AE
:100F9000386384F83C5DC4F8443D04F6B233C4F8C9
:100FA000483D94F86C3DBBB1002301222820B9EEE6
:100FB000041A0193F3EE0E0ADFED371A9FED370A9C
:100FC000CDE9042308226423CDE90220C822194672
:100FD0003348009211F0CEFE01239FED270A06212F
:100FE00030481A4611F0ECF80028B4D194F8C65DE8
:100FF000012D1AD1B3EE0E3ADFED222AF0EE041ADB
:101000009FED212A9FED211ADFED210A9FED210A94
:10101000244811F077F800289DD1234B84F8045E12
:10102000C4F80C3E3233C4F8103E94F8343EBBB1E1
:10103000002301222821B9EE041A0193F3EE0E0ACF
:10104000DFED151A9FED150A1848CDE90423082293
:101050006423CDE90221C8221946009211F08AFECC
:101060000023B7EE000AFF2111481A4611F0A8F834
:10107000003818BF01206FE70AD7233D6CC100205C
:1010800088B400200080A2440080ED443333733FD5
:1010900058FF7F3F6F12833B0000C8420000204290
:1010A000F8C1002034C2002098C00020C0C2002037
:1010B000FCC2002030B5012385B000240B4D9FED0C
:1010C0000C0A19462846042200948DED030A0DF0FF
:1010D000C5FB05F1400001239DED030A0422022116
:1010E00000940DF0BBFB204605B030BDC4C300200A
:1010F000CDCC4C3D1FB50022012402239FED110AE7
:10110000542111480092CDE9014411F0E5FA03465B
:1011100010B1012004B010BDCDE901409FED090AD6
:10112000224655210948009411F0D6FA0028F0D142
:10113000074B142283F8D84783F8244BA3F81C2BC1
:10114000E8E700BF6F12833B64B8002010BC0020AA
:1011500088B4002013B50A240022B7EE000A042345
:1011600002210A48009412F05BFA024660B9B7EE19
:10117000000A042301210648009412F051FA0038B5
:1011800018BF012002B010BD0120FBE744C40020BD
:101190006CC400200121044808B511F02AFF003872
:1011A00018BF012008BD00BF94C4002013B501245E
:1011B0004FF4FA739FED0C0A54210C4A0C4800942A
:1011C00012F002F970B94FF4FA739FED070A094A59
:1011D00055210948009412F0F7F8003818BF012093
:1011E00002B010BD2046FBE79A99993F400C0040A1
:1011F000F8C400203C04004014C500202DE9F04F45
:10120000944D6FF43F624FF00108F3EE090A05F1C7
:10121000100305F15B0A9FED901A54219FED8F0A90
:1012200005F19B002DED0A8B8FB00C9305F12F0378
:101230000D950B9305F12303CDF810800A93A5F6C5
:10124000EE33CDF80CA00993A5F6890308936FF44B
:101250000963EB180793AB1800220693A5F6254304
:101260000593A5F12D030293A5F15103CDE9008368
:1012700063230DF0DFFD28B101200FB0BDEC0A8B18
:10128000BDE8F08F764BF3EE048A9FED767AB7EEE9
:10129000008AD3ED007A4FF08049DFF844B255213F
:1012A00067EE877A9FED70CA704AB0EE481A83EDF8
:1012B00026CA43ED157A43ED147AC3F86CB06C4F2F
:1012C0006C4B6D4C1360936102F11C035760C2EDCF
:1012D0000D8AC2F814B0D761684A694E43F8142CDD
:1012E00004F58F53674ADFED68BA5A60674A1F609A
:1012F000C3F85021C3F85861C3ED55BA41F22C33FD
:10130000634AE054634B9FED64BA1A60A3F58A7395
:10131000624A9FED639ADFED63AA9FED63AADFED5A
:10132000639AC3F81821424683ED47BAC3F8209167
:1013300083ED638A83ED649AC3ED00AA83ED03AA6B
:10134000C3ED049A83ED018A04F58853DFED580A52
:1013500083ED008A41F270339FED400A04F8038068
:10136000544B0D950C932E330B93083BCDF80CA0EA
:101370000A9304F2CB73099304F53363089304F6DC
:101380002833079304F5F963069304F29473CDE9C7
:10139000040303F674034848029304F6E473CDE9AA
:1013A000008363230DF046FD00287FF465AF434BB7
:1013B0009FED437AD3ED007A424A27EE877A42497D
:1013C00042F8206CA2F58872C2F8E41003ED157A99
:1013D00004F5A5539FED3D7A83ED3ACA67EE877A0F
:1013E000C3F8BC603A49C2ED3D8AC3ED007A04F50A
:1013F000AB53C2F8141104F5AD54C3ED008A5F601D
:10140000344B3549C2F81031C2F8F870C2ED3ABA1F
:10141000C2F8ECB0C2F8189182ED488AC2ED00AA79
:10142000C2F8941182ED03AAC2ED049A82ED638A98
:1014300082ED649A0432294984ED00BA516082ED4C
:10144000008AC2F84062C2F84462C2F84892C2F808
:101450004C3212E795C400206666263F6F12833B2C
:10146000ECC500200000E1444260E53B5CC6002082
:10147000000020410000C84288B400200080ED44F4
:101480000000A04200003443000000000000C843F8
:10149000CDCCCC3D94C60020F4FDD43DCDCCCC3E8B
:1014A0009A99993E000048420AD7A33D9A99193E5D
:1014B00000002042A6C40020BCC8002078C900203B
:1014C0000080BB441CCA00200000964300007A4400
:1014D0000AD7A33C0000C0409A99193F6666663F50
:1014E000000070422DE9F04F6C2185B0DB480DF013
:1014F0009EF8DA4C0546002840F0B3833821204698
:101500000DF088F9022807D1392120460DF084F921
:10151000A4F5BE53A3F818043B21D0480DF07AF986
:10152000022806D13C21CD480DF076F9CC4BA3F82A
:10153000C4074021C9480DF06DF9FF2800F08982E9
:101540004121C6480DF06FF94FF46162B0FBF2F330
:10155000C4F8DC3202FB13033C22B3FBF2F3C4F801
:10156000D832B0FBF2F302FB1300C4F8D4024521D9
:10157000BA480DF04FF9FF2800F077824621B748AE
:101580000DF05DF984EDB80A4A21B4480DF042F936
:10159000FF2800F076824B21B0480DF050F984ED21
:1015A000B90A4F21AD480DF035F9FF2800F07582DA
:1015B0005021AA480DF037F94FF46162B0FBF2F305
:1015C000C4F8043302FB13033C22B3FBF2F3C4F868
:1015D0000033B0FBF2F302FB1300C4F8FC02542109
:1015E0009E480DF017F9FF2800F0638255219B48B3
:1015F0000DF019F94FF46162B0FBF2F3C4F8143343
:1016000002FB13033C22B3FBF2F3C4F81033B0FB2C
:10161000F2F302FB1300C4F80C03924F00218F4831
:101620003E460DF00CF9042107F5AA60043687ED5B
:10163000000A0DF004F9082107F5AA6086ED000AFA
:101640000DF0E8F80128A7F10C0200F23E821070BC
:10165000002185480EF00CFB044608BBDFF8008231
:1016600041F26423814A082108F8030003460090F0
:1016700008F5BE500CF0E2FF7D4B7A4A21463360FC
:1016800004263B6008F5BE50334600960CF0D6FFAA
:101690003346784A314608F5BE5000960CF0CEFF2E
:1016A00009216E480DF0B6F80128734E00F216823B
:1016B0003070724C0A2169480DF0C1F827460E219E
:1016C00004F2445084ED000A0DF0B9F80121A4F5AC
:1016D000EA7084ED010A04370EF0CAFA231F0028CD
:1016E00040F00682624922463070042642F81519FD
:1016F0001870034639600921009004F244500CF040
:101700009DFF334622460A2104F2445000960CF015
:1017100095FF33463A460E2104F2445000960CF0F1
:101720008DFF574C1F214D480DF089F804F1040836
:10173000232104F5E270264604F1440B84ED000AEF
:101740000DF07DF8282104F5E27088ED000A0DF017
:1017500076F8272104F5E2708BED000A04F14809C0
:101760000DF058F82C2106F80C0D04F5E2700DF080
:1017700066F8302104F5E27089ED000A0DF05FF89B
:10178000337804F14C0A8AED000A012B08D90023B2
:101790003246272104F5E270337000930CF04EFFBF
:1017A000022138480EF064FA0746002840D1002391
:1017B0002B4E334A1F2123600424CBF8003006F55A
:1017C000BE50CAF80030C9F80030C8F800302346CF
:1017D00000940CF033FF234606F5B052232106F5A2
:1017E000BE5000940CF02AFF2346274A2C2106F510
:1017F000BE5000940CF022FF2346244A302106F507
:10180000BE5000940CF01AFF234606F5B252282170
:1018100006F5BE5000940CF011FF41F2F0531C4A43
:101820002721F75406F5BE503B4600970CF006FF03
:101830005A210A480CF0EEFF164C0128207040F2A5
:101840005A810748002341F2BA025A21835400F515
:10185000BE50104A00930CF0F1FE1DE048CC002071
:1018600088B40020F8C6002030C50020ECC6002057
:1018700000003443FCC60020EFC6002004C700204F
:1018800084CA0020BCC80020CCCA0020D0CA0020D6
:1018900078CA002042C500205B21CD480CF0BAFF79
:1018A000CC4C0128207040F25C81CB48002341F2EF
:1018B00046425B21835400F5BE50C64A00930CF0AB
:1018C000BDFE6021C2480CF0A5FF01288DF80E0076
:1018D00040F2968100230DF10E026021BC488DF884
:1018E0000E3000930CF0AAFE1221B9480CF092FFC2
:1018F000022811D11321B6480CF08CFF282888BF8C
:1019000005209FEDB67A07EE900AB54BF8EE677AA0
:1019100067EE877AC3ED007A1421AD480CF07AFFA8
:10192000022811D11521AA480CF074FF282888BF7D
:101930000220B2EE047AAB4B07EE900AF8EE677A1B
:1019400067EE877AC3ED007A1621A1480CF062FF9A
:10195000022809D117219E480CF05CFF0728A24BF2
:101960008ABF012218701A701E2199480CF052FF8C
:1019700001288DF80F0000F268819C4B18706221DD
:1019800093480CF047FF022813D1632190480CF0D4
:1019900041FF431E9FED917ADBB2172B944B28BF7A
:1019A000132007EE900AF8EE677A67EE877AC3EDA8
:1019B000007A642186480CF02DFF022811D16521A0
:1019C00083480CF027FF092888BF0120B2EE047A73
:1019D000884B07EE900AF8EE677A67EE877AC3EDD8
:1019E000007A66217A480CF015FF022813D167218E
:1019F00077480CF00FFF831EB2EE047ADBB2132B94
:101A00007D4B28BF122007EE900AF8EE677A67EE4A
:101A1000877AC3ED007A68216D480CF0FBFE02283E
:101A200013D169216A480CF0F5FE431EB1EE047A29
:101A3000DBB2062B714B28BF042007EE900AF8EEAC
:101A4000677A67EE877AC3ED007A284605B0BDE86D
:101A5000F08F01230DF10F0240215D488DF80F300A
:101A6000002300930CF0EAFD81E501230DF10F0244
:101A7000452157488DF80F30002300930CF0DEFD10
:101A800082E501230DF10F024A2151488DF80F30F4
:101A9000002300930CF0D2FD83E501230DF10F022A
:101AA0004F214B488DF80F30002300930CF0C6FDFA
:101AB00095E501230DF10F02542145488DF80F30B3
:101AC000002300930CF0BAFDA7E50023082107F5D9
:101AD000AA60137000930CF0B1FDB9E50023324603
:101AE000092106F25950337000930CF0A7FDE0E590
:101AF00001221A7015E67FF4CFAE5C2104F2067065
:101B00000CF088FE01287FF49CAE5D2104F2067083
:101B10000CF080FE2746022804F1030807F8010FA5
:101B20001CD9002622465A2104F20670334626802C
:101B300000960CF083FD334622465C2104F20670C9
:101B400000960CF07BFD33463A465D2104F20670A8
:101B500000960CF073FD88F800609DE688F80000A0
:101B60009AE67FF4AEAE5E2104F27A300CF052FEBB
:101B700001287FF49AAE5F2104F27A300CF04AFE1D
:101B80002746042804F1030807F8010F1CD9002692
:101B900022465B2104F27A303346268000960CF010
:101BA0004DFD334622465E2104F27A3000960CF059
:101BB00045FD33463A465F2104F27A3000960CF038
:101BC0003DFD88F800607CE688F8000079E600BFFB
:101BD00048CC0020CEC8002088B400200000C842B5
:101BE000B8C70020C0C70020B4C70020EFC4002041
:101BF00064C6002068C600206CC6002090C6002085
:101C00007FF472AE612118480CF004FE174C502886
:101C1000207084F88C037FF667AE002623226021B3
:101C200004F26E502270334684F88C230DF10E02BC
:101C300000968DF80E600CF001FD33460DF10E029A
:101C4000612104F26E5000964CE601230DF10F0263
:101C50001E2105488DF80F30002300930CF0EEFC98
:101C60008DE60125F1E600BF48CC0020DAC6002051
:101C7000F0B5E94E41F67025E84C002730462DEDD1
:101C8000048B83B0DFEDE68A10F04AFC9FEDE50A95
:101C900004F57A72012130468DED010A675510F086
:101CA0004BFC635D04F294729DED010A022118441D
:101CB0009FEDDD8A9FEDDD9A6055304610F03CFCCB
:101CC000635D9FEDDB0A04F6E842184403218DEDC5
:101CD000010A6055304610F02FFC635D9DED010A4E
:101CE00004F55B62184404216055304610F024FC72
:101CF000635D04F654729FEDCF0A184405216055C8
:101D0000304610F019FC635D04F694729FEDCA0A28
:101D1000184406216055304610F00EFC635DB0EEAD
:101D2000680A04F6BC72184407216055304610F06A
:101D300003FC635DB0EE680A04F6E47218440821FF
:101D40006055304610F0F8FB635DB0EE480AA6F22D
:101D5000B472184409216055304610F0EDFB635D04
:101D6000B0EE480AA6F5F36218440A2160553046E1
:101D700010F0E2FB635DB0EE490AA6F608021844D3
:101D80000B216055304610F0D7FB635DA6F2F4726C
:101D9000B0EE0C0A18440C216055304610F0CCFB14
:101DA000635DB0EE490AA6F2EC7218440D219FED76
:101DB000A39A6055304610F0BFFB635D04F62832ED
:101DC000B0EE0C0A18440E216055304610F0B4FBFA
:101DD000635D9FED9B0AA6F5D96218440F218DED36
:101DE000010A6055304610F0A7FB635D9DED010AC6
:101DF000A6F54F72184417216055304610F09CFB31
:101E0000635DA6F23C629FED8F0A18441021605575
:101E1000304610F091FB635D9FED8B0A04F634525F
:101E2000184411218DED010A6055304610F084FBF5
:101E3000635D9DED010A04F6FC52184412216055C1
:101E4000304610F079FB635D04F59052B3EE040A5E
:101E5000184413216055304610F06EFB635DB0EE00
:101E6000490AA6F5D862184414216055304610F08E
:101E700063FB635DA6F52972B3EE040A18441521CD
:101E80006055304610F058FB635DB0EE490AA6F588
:101E90004D72184416216055304610F04DFB635DBD
:101EA000B0EE490AA6F2BC621844182160553046CB
:101EB00010F042FB635DB0EE490A04F5A8521844E5
:101EC00019216055304610F037FB635DA6F284722D
:101ED000B2EE040A18441B216055304610F02CFB6A
:101EE000635DA6F57E72B2EE040A18441C216055AB
:101EF000304610F021FB635DA6F27C72B2EE040A5C
:101F000018441D216055304610F016FB635D04F542
:101F1000A252B2EE040A18441E216055304610F059
:101F20000BFB635D04F658429FED480A18441F21DD
:101F30006055304610F000FB635DA6F2B462B7EE68
:101F4000000A184420216055304610F0F5FA635D10
:101F5000A6F54A72B7EE000A1844212160553046B2
:101F600010F0EAFA635DB0EE680A06F515721844DF
:101F700022216055304610F0DFFA635DB0EE680A4A
:101F800006F51672184423216055304610F0D4FA35
:101F9000635DB0EE480AA6F26C72184424216055C5
:101FA000304610F0C9FA635DB0EE480AA6F57872C3
:101FB000184425216055304610F0BEFA635DB0EE3E
:101FC000480AA6F26472184426216055304610F083
:101FD000B3FA635DB0EE480AA6F57672184427217D
:101FE0006055304610F0A8FA635DB0EE480AA6F2DC
:101FF0005C72184428216055304610F09DFA635DEC
:10200000B0EE480A04F5A352184429216055304621
:1020100010F092FA1CE000BFB8CC002088B4002079
:1020200000007A440000B443CD0C7A44CDCCCC3FC0
:102030000000484300409C4500A08C459A99C94047
:102040003CBDB23E0000C84200401C460000964223
:10205000635DB0EE480AA6F2547218442A21605516
:10206000304610F069FA635DB0EE480AA6F5727268
:1020700018442B216055304610F05EFA635DB0EED7
:10208000480AA6F24C7218442C216055304610F0D4
:1020900053FA635DB0EE480AA6F5707218442D211C
:1020A0006055304610F048FA635DB0EE480AA6F27B
:1020B000447218442E216055304610F03DFA635D9D
:1020C000B0EE480AA6F56E7218442F2160553046CE
:1020D00010F032FA635D18446055384603B0BDEC29
:1020E000048BF0BD1FB50A4B042103F56D7203F696
:1020F000A450029203F56672019203F1C8020092A5
:10210000322211F0C8FA002005B05DF804FB00BFD0
:1021100070C10020064B002241F268015A5441F27E
:102120006A015A5203F583530022DA60704700BFF8
:1021300088B400202DE9F04341F69822304C3C272A
:1021400041F69C23A2584FF46168E35885B07A4366
:1021500004F5BE5503264FF0040908FB032341F69E
:10216000942241212846A2580096134403AA0393BF
:1021700033460CF0D8FA4B4604F5D5524621284692
:10218000CDF800900CF0CFFA4B4605F539724B2193
:102190002846CDF800900CF0C6FA04F5D65241F668
:1021A000C423502112682846E3587A43009608FB5E
:1021B000032341F6BC22A258134403AA03933346D7
:1021C0000CF0B1FA41F6D02241F6D4235521A258A1
:1021D0002846E358574341F6CC220096A25808FB04
:1021E0000373134403AA039333460CF09CFA18229A
:1021F000412128460CF0F5FA05B0BDE8F08300BF98
:1022000088B4002038B5564C41F26A0394F86A2B22
:10221000E35A002A68D043F0010394F8B22B002A55
:1022200066D043F0020341F26A05635394F8963D89
:10223000002B61D041F26A03E35A43F0040394F89F
:10224000E02F002A62D043F0080394F8FA2B002A0A
:1022500060D043F0100394F8422C002A5ED043F083
:10226000200341F26A05635394F85E3E002B59D077
:1022700041F26A03E35A43F0400341F20802A25CD0
:10228000002A59D043F0800394F81C24002A57D028
:1022900043F4807394F8C827002A55D043F40073A0
:1022A00094F8CE2C94F8961C0A4341F2542208BFAD
:1022B00023F48063A25C14BF43F480639BB2002AC2
:1022C00046D043F40063274A1278002A44D043F4EE
:1022D000805307EE903A41F26A02F8EE677AA35211
:1022E000214BC3ED007A38BD23F001039BB294E784
:1022F00023F002039BB296E71C4810F007F9002870
:1023000098D1635B23F004039BB298E723F00803A2
:102310009BB29AE723F010039BB29CE723F02003C3
:102320009BB29EE7124810F0F1F80028A0D1635B41
:1023300023F040039BB2A0E723F080039BB2A3E706
:1023400023F480739BB2A5E723F400739BB2A7E745
:1023500023F400639BB2B6E723F480539BB2B8E743
:1023600088B4002068CA0020F4C400206CC100209A
:1023700034C2002000000000674BB2EE044B93ED26
:10238000007A9FED596BB7EEC77A17B427EE067B3C
:102390006FF07E01614A41F2AA04145D9FED546B17
:1023A0009FED555B27EE067B9FED556BBDEEC77B22
:1023B00017EE103A1BB28B42B8BF0B467F2BA8BF5B
:1023C0007F237F3382F8B730554B93ED007AB7EE19
:1023D000C77A37EE067B9FED4C6B27EE067BFCEE53
:1023E000C77B17EE903AB3EE0E7B82F8B8304D4BB8
:1023F00093ED006AB7EEC66AA6EE057B9FED446BCF
:1024000027EE067BBCEEC77B17EE103A9BB282F834
:10241000B9301B0A82F8BA30434B93ED007AB7EE1D
:10242000C77A87EE056BB6EE005B26EE056BFCEE19
:10243000C67B93ED026AB7EEC66ACDED017A9DF8D0
:10244000041086EE047B27EE057BFCEEC77BCDED0A
:10245000017A9DF8043043EA411382F8BB301B0A2D
:1024600082F8BC3041F21503D15C0B1E18BF01236A
:10247000022C08BF43F0100329B141F21001515C56
:1024800031B343F0400341F21401515C69B141F2B0
:102490001001515821F07F4121F0FF0119B941F29B
:1024A0000F01515CB9B943F4007341F22C31515C16
:1024B00043EA41331BB282F8BD30C3F3072382F8ED
:1024C000BE3058B1194803B05DF8044B0CF0ADB8FC
:1024D00043F08003D7E743F48073E6E703B05DF889
:1024E000044B7047AFF3008012143FC6DCA54C408C
:1024F0009A99999999992940000000000000594043
:102500000000000000004840F6285C8FC2F504403F
:102510000000000000407F40F0C5002088B400208B
:10252000E4C60020C4C40020B8C7002034B5002091
:102530001F4B01229FED1F7A83F857231E4AD2EDCD
:10254000006AC6EE877AB2EE047AFCEEE77A17EEFE
:10255000902A83F8582303F58F52D2ED006AC6EE15
:10256000877AFCEEE77A17EE902A83F85923134A0C
:10257000D2ED006AC6EE877AB1EE047AFCEEE77A15
:1025800017EE902A83F85A230D4AD2ED006AC6EE60
:10259000877AFCEEE77A17EE902AC2F1070283F8F9
:1025A0005B2318B103F553700CF03FB8704700BFC0
:1025B00088B400200000C84264C600206CC6002019
:1025C00090C600200000000010B5037A012B1ED138
:1025D000436840F20132934200F0D6816ED840F257
:1025E000062293423ED8B3F5007F14D8B3F5837F1B
:1025F00000F0778224D8982B00F0BC8140F20512BD
:10260000934200F08182012B00F02D8310BD002B3E
:10261000FCD10368DDE76FF400721344052BF5D895
:1026200001A252F823F000BF4D28000875280008C9
:102630001D2800080D2600080D260008C9280008DE
:10264000B3F5897F00F05A82B3F5CC7F00F0978113
:1026500040F211129342D9D1D74B93F8C82783F88F
:102660006722D3E7B3F5057F00F03381B3F5267F0A
:1026700000F0768140F211229342C7D1CE4C94F8FB
:102680006A3B04F6E44084F8873094F8B23B84F85F
:10269000883094F8963D84F88930002384F88A3095
:1026A00094F8E03F84F88B300FF030FF41F26F2355
:1026B00084F88C00E35C84F88D30A7E741F20302D4
:1026C000934200F02E8265D840F21932934200F016
:1026D000C2813BD840F20332934200F07D8140F248
:1026E0001132934200F0968140F2023293428DD132
:1026F000B14AB2EE045B02F6C83393ED006A9FED77
:10270000AC4BB7EEC66A36EE046B26EE056BBCEE3C
:10271000C66B16EE103A9BB282F877311B0A82F82C
:10272000783102F5416393ED007AB7EEC77A37EE60
:10273000047B27EE057BBCEEC77B17EE103A9BB2FD
:1027400082F879311B0A82F87A315FE7B3F5667F48
:1027500000F00B8140F2117293427FF457AF964B19
:1027600041F2C8229A5C83F8472141F219029A5C2F
:1027700083F8482141F21A029A5C83F8492141F218
:10278000C1229A5C83F84A2141F21B029A5C83F8C9
:102790004B213BE7894A934200F04E8231D8103AF0
:1027A000934200F009820132934200F02582B3F592
:1027B000C02F7FF42BAF804B41F69C2241F698212D
:1027C0003C209A58595800FB0212110A83F8F7224C
:1027D000120C83F8F81283F8F92203F5D552D2EDE2
:1027E000007AFCEEE77A17EE902AA3F8FA22744AF0
:1027F000D2ED007AFCEEE77A17EE902AA3F8FC22DD
:1028000004E7704A934200F0C981013293427FF499
:10281000FDAE0020BDE81040FFF78ABE664AB2F95F
:10282000743F83EAE371A1EBE37189B2D1730912BA
:102830001174A3F1680103F56A53517418331B1224
:1028400093740123D37400239382DFE65A4A9FEDE9
:102850005E7A02F6E843D3ED007A67EE877AFCEE03
:10286000E77A17EE903A9BB282F827301B0A82F87B
:102870002830CBE6504AF2EE046A9FED536A02F626
:10288000383393ED007A37EE067A27EE267ABCEEDF
:10289000C77A17EE103A9BB282F83F301B0A82F8D3
:1028A000403002F53863D3ED007A77EE867A67EE32
:1028B000A67AFCEEE77A17EE903A9BB282F84130A6
:1028C0001B0A82F84230A1E60020BDE81040FFF765
:1028D00053BD394841F2AA03C35C022B27D13B4BBD
:1028E00000F5945241F26721D3ED007AFCEEE77ACD
:1028F00017EE903AD2ED007AFCEEE77A9BB217EE33
:10290000902A92B2415C80F8CF30C3F3002380F864
:10291000D120C2F3002243EA011341F26E2180F874
:10292000D220415C43EA811380F8D0306EE6012B5F
:1029300012D1274B41F26421264AD3ED007AFCEEF6
:10294000E77A17EE903AD2ED007AFCEEE77A9BB286
:1029500017EE902A92B2D5E7B42200211346D2E7AF
:10296000154B0C2283F8E72050E6134B0C2283F81A
:10297000FF204BE6104B0C2283F8172146E60E4B46
:102980000C2283F82F2141E60B4A9FED0F7A02F5C6
:102990005B63D3ED007A67EE877AFCEEE77A17EE99
:1029A000903A9BB282F85F311B0A82F860312DE6C3
:1029B000000000000000594088B40020110006000B
:1029C0002CCF0020120006000000C84204C70020DF
:1029D000F8C60020FCC60020BD4AB2F9B43F83EA25
:1029E000E371A1EBE37189B282F88F11091282F8C9
:1029F0009011A3F1680103F56A5382F8911118331D
:102A00001B1282F89231012382F893310023A2F83D
:102A10009431FBE5AE4C94F8FA3B04F6AC5084F8E4
:102A2000A73194F8423C84F8A83194F85E3E84F8CB
:102A3000A931002384F8AA3141F20803E35C84F849
:102A4000AB310FF063FD41F2FB5384F8AC01E35C62
:102A500084F8AD31DAE59E4841F23643C35C022B7F
:102A600026D19C4B41F2F3519B4AD3ED007AFCEE08
:102A7000E77A17EE903AD2ED007AFCEEE77A9BB255
:102A800017EE902A92B2415C80F8D731C3F300234D
:102A900080F8D921C2F3002243EA011341F2FA512E
:102AA00080F8DA21415C43EA811380F8D831ADE542
:102AB000012B12D1894B41F2F051894AD3ED007AB2
:102AC000FCEEE77A17EE903AD2ED007AFCEEE77A68
:102AD0009BB217EE902A92B2D5E700210A460B4628
:102AE000D2E77B4BB3F8E42383F8EF21120A83F893
:102AF000F02193F8162483F8F12187E5744B93F8BD
:102B00001C2483F81F2281E5714BB3F8902783F8CA
:102B10003722120A83F8382293F8C22783F8392221
:102B200074E5704B9FED707AD3ED006A684AF4EE5D
:102B3000C76AF1EE10FA45BFC6EE877A9FED6B7A51
:102B40004FF6FA7367EE877A9FED697A42BFFCEE23
:102B5000E77A17EE903A9BB282F87F321B0A82F82E
:102B6000803202F67863D3ED006AF4EEC76AF1EEC4
:102B700010FA45BFC6EE877A9FED5C7A4FF6FA737E
:102B800067EE877A42BFFCEEE77A17EE903A9BB287
:102B900082F881321B0A82F8823237E54C4B93F877
:102BA000962C83F8972293F8CE2C83F8982293F8EA
:102BB000262F83F8992229E5454941F6C4233C2272
:102BC00001F5D650CB58006802FB0303180A81F8C0
:102BD0000F331B0C81F8100341F6D02081F811331C
:102BE00041F6D4230858CB5802FB0303A1F8123353
:102BF0001B0C81F8143309E5354B41F2AA029A5CAB
:102C000083F8272341F2B3029A5C83F8282341F228
:102C100036429A5C83F8292341F23F429A5C83F85A
:102C20002A2341F2BA029A5C83F82B2341F2522202
:102C30009A5C83F82C23E9E4254B41F254229A5CF8
:102C400083F83F2303F5AF52127883F8402303F54E
:102C50008B52126822F07F4222F0FF0202B1022260
:102C600083F84123D2E4234B194A93ED005A9FED98
:102C7000143BB7EEC55A9FED144B25EE035B85EE72
:102C8000047BBDEEC77B17EE103A1BB282F872339D
:102C90001B1282F87133184B93ED006AB7EEC66AC7
:102CA00026EE036B86EE047BBDEEC77B17EE103A73
:102CB0001BB282F870331B1282F86F33A6E400BF98
:102CC000F5C1631ADCA54C40DE718A8EE4F27F3FC9
:102CD00088B4002090CA002094CA0020CCCA0020EA
:102CE000D0CA0020E0C000200000824200FA7F47E6
:102CF00000003442B0C40020C4C40020104841F297
:102D0000AA03C35C80F8273341F2B303C35C80F8A5
:102D1000283341F23643C35C80F8293341F23F4304
:102D2000C35C80F82A3341F2BA03C35C80F82B33CA
:102D300041F25223C35C00F5477003740BF075BC7D
:102D400088B400200000000041F6E42300222DE9B1
:102D5000F0432DED028BC25441F6E523C7B0044683
:102D6000C25C32B901224FF48061C254C54803F0FD
:102D700077FED4F8C833C44A93425ED8B3F5803F97
:102D800010D841F20102934200F03B8336D80A2B5F
:102D900001F03E830B2B01F0498347B0BDEC028B61
:102DA000BDE8F083A3F10113112BF6D801A252F86C
:102DB00023F000BF4135000865340008553600088F
:102DC0009B2D00089B2D00080F3400089B2D000848
:102DD0009B2D00089B2D00089B2D00089B2D0008B3
:102DE0009B2D00089B2D00089B2D00089B2D0008A3
:102DF000932E0008AB3900083D3A000841F2020268
:102E0000934200F0EC8241F205029342C5D194F85E
:102E1000CE33032BC1D194F8CF33012B40F0128372
:102E20009A4C41F2680204F6BC70A35410F02CFCDA
:102E300004F6E47010F028FCAFE7954A9342ACD159
:102E400094F8CF53D4F8D023012D94F8D0330692C0
:102E500001F2C18294F8D43306AA29468D480FF0B6
:102E600080FB8A4B002203EB850181F8DF2281F889
:102E7000E02281F8E12281F8E222002D41F0A182D6
:102E800083F8AF52C3F8B052A3F8B45283F8B652E5
:102E900083E794F8CE33032B7FF47FAF002341F216
:102EA000AA0684F86F3094F8CF33A55D142B84F80C
:102EB000705018D8142B1CD8DFE813F022005000F3
:102EC00054001B001B001B001B001B00AE001B005E
:102ED000080122012E011B00AB011B001B001B007F
:102EE000B5011B000C02622B00F0E281632B00F0A5
:102EF000DD8004F164000BF098FBFFF7FFFE4CE768
:102F000045B3002104F5855008300CF0B5FB41F2C3
:102F1000AA0200287AD0012384F86F30A15C84F8DB
:102F200070108DF81830002604F5BE5522445D213E
:102F30003346284600960BF0F6FB06AA5C21334682
:102F4000284600960BF0EFFB02225C2128460BF08E
:102F500048FCCEE7012384F86F30CAE7012DF9D091
:102F60000121CFE794F8D063AEB1012EC1D1022D7B
:102F7000F0D004F58550022108300CF07DFB41F2C1
:102F8000AA02002842D084F86F60A35C8DF8186014
:102F900084F87030C7E7022DDCD104F5855741F283
:102FA000B008083714F8081038460CF065FBE8B193
:102FB000012341F2AA0204F5BE5784F86F30A15CE8
:102FC000384622448DF8183084F8701033465D215D
:102FD00000960BF0A8FB06AA5C2133463846009603
:102FE0000BF0A1FB2A465C213846B0E714F8083004
:102FF00000213846012B01BF41F25322A35441F274
:103000005423E5540CF038FB002328E084F86F00CB
:10301000A35C84F870306CE794F8D06396B1012E0D
:103020007FF467AF082D95D0082104F5855008443A
:103030000CF022FB41F2AA03002800F0488184F83A
:103040006F6010E0082D85D104F5855541F2B0067A
:103050000835A15D28460CF00FFB30B1012384F840
:103060006F3041F2AA03E35CD3E7A35D012B13D1D8
:1030700041F25322A35441F254230222E25400218C
:103080002846BFE7000802401200010088B4002073
:1030900006060600B8CC0020022BF0D104F59652AB
:1030A0000121117041F2C822A354E8E741F2B003B4
:1030B00004F58550E15C08300CF0DEFAA35D0028D1
:1030C00000F0F380012284F86F20A2E741F2364538
:1030D000635D6219002BF5D00021039204F5A15025
:1030E00014300CF0C9FA635D039A002800F0DD800B
:1030F000012184F8703084F86F108DF818102AE0E0
:1031000041F23645635D6219012B039201D0012122
:10311000E4E784F86F307CE794F8D05375B3012D61
:103120007FF4E7AE41F23646A35DA219022B03926B
:1031300000F08C8004F5A150022114300CF09CFAB0
:10314000A35D039A002800F0B08084F86F5084F8E3
:1031500070308DF81850002604F5BE555F213346B7
:10316000284600960BF0DFFA06AA5E213346284671
:1031700000960BF0D8FA02225E21E7E641F23648CB
:1031800014F8087004EB0802022F3CD104F5A15694
:1031900041F23C490392143614F8091030460CF001
:1031A0006BFA039AD8B1012304F5BE5684F86F3048
:1031B000304614F808108DF818302B4684F870103B
:1031C0005F2100950BF0AFFA06AA5E212B46304630
:1031D00000950BF0A8FA3A465E213046B7E614F89F
:1031E000093000213046012B01BF41F2DF52A354C8
:1031F00004F5AF531F700CF03FFA002384F86F30D2
:1032000041F236432FE7012384F8707084F86F3061
:103210006FE641F23645635D6219042B03923FF479
:1032200051AF04215AE794F8D05395B1012D7FF4A2
:1032300060AE41F23646A35D082B07D004F5A150DD
:10324000082114300CF018FAA35D70B384F86F50A5
:10325000DFE641F23647E35D082B7FF433AF04F538
:10326000A15541F23C461435A15D28460CF004FA04
:1032700020B1012384F86F30E35DCAE6A35D012B22
:1032800009D141F2DF52A35404F5AF5302221A7060
:1032900000212846AFE7022BFAD141F24C6201210E
:1032A000A15441F25462A354F2E784F86F00B0E6EF
:1032B00041F23C4304F5A150E15C14300CF0DCF920
:1032C00041F2364318B1012284F86F20CBE684F82E
:1032D0006F00C8E694F8D053002D40D0012D7FF444
:1032E00008AE002604F5BE5741F2BA0284F86F50CA
:1032F00033465A21A5543846224400960BF013FA5F
:1033000041F2464233465B21A5543846224400969A
:103310000BF009FA04F5A15233465F211632384604
:1033200000968DF818500BF0FEF9334606AA5E2180
:10333000384600960BF0F7F904F5855233465D21C7
:103340000A32384600960BF0EEF906AA5C213346A5
:10335000384600960BF0E7F906225A2144E604F5B8
:10336000BE56012741F2BA022B4684F86F705A21EB
:10337000A5543046224400950BF0D5F941F246425F
:103380002B465B21A5543046224400950BF0CBF927
:103390002B4606AA5F21304600958DF818500BF099
:1033A000C2F92B4606AA5E21304600958DF81870AA
:1033B0000BF0B9F92B4606AA5D21304600958DF831
:1033C00018500BF0B0F906AA5C212B463046009548
:1033D0008DF818700BF0A7F906225A21FDE604F6C5
:1033E000BC7094F8CE33032B0ED194F8D03394F8FC
:1033F000CF1394F8D12341EA032109B210F09EF8CB
:10340000CBE404F6E470ECE710F03BF9C5E494F883
:10341000CE33022B7FF4C1AC94F8CF33012B01D013
:10342000042B05D1C34A012182F8D51F82F8FD1F64
:10343000092B7FF4B2ACBF4B002283F8D52F83F861
:10344000FD2FAAE4002B7FF4A8ACBA4C41F268022D
:1034500004F6BC70A35410F01BF904F6E47010F0ED
:1034600017F99AE494F8CE63012E7FF496AC41F2FA
:10347000AA03E35C012B3FF690AC04F5777804F5E2
:10348000FE7740460FF06AF90546002851D14046C4
:103490000FF0C4FA384684F8076204F5BE570BF003
:1034A000C4F8022304F5836239218DF818303846B8
:1034B000334600960BF037F92B4606AA38213846DA
:1034C00000950BF030F90322382138460BF089F9CA
:1034D00041F26623E35C002B3FF45FAC41F26523CD
:1034E000954A0821E65441F26423924E0424F5548F
:1034F00006F5BE502B4600950BF015F98F4A904B00
:10350000294602F1040802F5AA60136053602346BD
:1035100000940BF008F942462146234606F5BE50BA
:1035200000940BF000F90922294638460BF059F9AE
:1035300033E40023384684F807320BF076F82CE4A5
:1035400094F8CE73012F7FF428AC41F23643E35C4C
:10355000012B3FF622AC04F5F16804F511764046E4
:103560000FF0FCF8054600286FD140460FF056FAE0
:10357000304684F84F7204F5BE560BF056F802231D
:1035800004F2C4723C218DF8183030463B46009757
:103590000BF0C9F82B4606AA3B21304600950BF0EC
:1035A000C2F803223B2130460BF01BF941F2F253E3
:1035B000E35C002B3FF4F1AB41F2F0534FF4807227
:1035C0002721E2522B465F4A5F4C02F5E8700095D6
:1035D0000BF034F804250023224626462746A04651
:1035E00042F8443D46F8083F1F2147F8043F04F5E0
:1035F000C07048F8403D23602B4600950BF093F8CF
:103600002B464246232104F5C07000950BF08BF841
:103610002B463A462C2104F5C07000950BF083F838
:103620002B463246302104F5C07000950BF07BF834
:10363000224628212B4604F5C07000950BF073F844
:1036400011221F2104F5C07070E70023304684F872
:103650004F3272E794F8CE33012B7FF49EAB94F88F
:10366000CF33013B0B2B3FF698ABDFE813F00C0098
:103670002100B700D100D8000C012300440027012D
:10368000780160007300022130480CF071FA48B1F3
:10369000284B012283F8BF2141F2F0529A5C83F853
:1036A000C02103E0234B002283F8BF21284844E7D0
:1036B0000321E9E7002125480CF0EEFB0028F1D0BA
:1036C0001C4C41F23643E35C012BEFD841F2F0553C
:1036D00001261E4866550EF0CFFC635D84F8BF617D
:1036E00084F8C03100230093164A272104F5BE5008
:1036F0000AF0A4FFDAE7012114480CF0CDFB002802
:10370000D0D00C4C41F23643E35C012BCED80025DF
:1037100041F2F0560D48A5550EF0AEFC012384F899
:10372000BF31A35D84F8C0312B460095DCE7022150
:10373000E2E700BF88B40020ECC60020F8C60020F5
:103740000000344378CA0020C8CA0020BCC800204A
:103750003CB600200321AD480CF09EFB0028A1D010
:10376000AA480425AA4C0EF087FC0123A94A1F2170
:1037700004F5BE5084F8BF3141F2F053E35C84F8A5
:10378000C0312B4600950AF0CEFF2B4604F5B0520F
:10379000232104F5BE5000950AF0C5FF2B4604F521
:1037A000B252282104F5BE5000950AF0BCFF2B460A
:1037B000994A2C2104F5BE5000950AF0B4FF2B461F
:1037C000964A302104F5BE5000950AF0ACFF152250
:1037D0001F2104F5BE500BF004F867E70021904864
:1037E0000CF0C6F941F2AA02894B98B101219A5C0A
:1037F0008A4283F8571002D141F2642203E0022A80
:1038000004D141F267229A5C83F85820854894E6F7
:103810000121E4E79A5C83F85700012AEBE70021D5
:103820007F480CF039FB7A4C41F2AA03002800F0E3
:10383000AB80E55C012D13D141F264267848A55593
:103840000EF01AFCA35D84F8575084F8583000231A
:103850000093754A082104F5BE500AF0EFFED5E743
:10386000022DD3D141F2672501266D4866550EF031
:1038700003FC635D84F8576084F85830002300939C
:103880006A4A0921E7E7012165480CF005FB604C15
:1038900041F2AA03002877D0E55C012D61D1002612
:1038A00041F264275E48E6550EF0E6FBE35D84F8DE
:1038B000575084F8583033460096CAE703215848D9
:1038C0000CF0EAFA524C41F2AA0300285CD0E55C05
:1038D000012D21D152480EF0CFFB41F2642384F830
:1038E00057500425E35C0021514A04F5BE5084F88A
:1038F00058302B4600950AF016FF4E4A29462B46B3
:1039000004F5BE5000950AF00EFF0822002104F5D0
:10391000BE500AF066FF79E7022D7FF477AF40488A
:1039200004250EF0A9FB0123434A0A2184F85730ED
:1039300041F2672304F5BE50E35C84F858302B460F
:1039400000950AF0F0FE04F594520E212B4604F582
:10395000BE5000950AF0E7FE08220A21D7E70221AF
:1039600092E7022D7FF452AF002541F267262C48E2
:10397000A5550EF081FB012384F85730A35D84F830
:1039800058302B4600957BE7E35C84F85700012B09
:1039900005D141F26423E35C84F8583036E7022B0A
:1039A0007FF434AF41F26723F5E794F8CE13022990
:1039B0007FF4F3A994F8CF33012B03D0022B12D05C
:1039C00000230BE094F8D033012BF9D104F5855096
:1039D00008300BF051FE0028F2D0012304F16400FE
:1039E00084F86F30A9E594F8D033022BE8D104F5C0
:1039F00085550121083528460BF03EFE014600287A
:103A0000EBD128460BF038FEE7E700BFBCC800202A
:103A100088B4002084CA0020CCCA0020D0CA00206C
:103A200030C50020D4B40020ECC60020EFC6002032
:103A3000F8C60020FCC6002004C7002094F8CE334E
:103A4000022B7FF4AAA994F8CF33013B3A2B00F262
:103A5000B684DFE813F03B007300B404B4048000C4
:103A6000EA002C0139016501B404B404B404B404BF
:103A7000B404B404B404B4046D019801E901230151
:103A80002301B404B404B404B404B4040D02200249
:103A90003102B404B404B404B404B404B404B404EB
:103AA000410252026302710282029302A402B20234
:103AB000BE02CA02D602B404E202F2023403460392
:103AC0008103BB03F703090445045604CE4B9FED65
:103AD000CF7AD3ED007AF4EEC77AF1EE10FA05D57D
:103AE0009FEDCB7A77EE877AC3ED007A002604F556
:103AF000BE55022706AA33461221284600968DF8A5
:103B000018700AF010FE04F5995393ED046A9FEDC6
:103B1000BC5BB7EEC66A86EE057B06AA1321284673
:103B20000096FCEEC77B17EE903A8DF818303346BE
:103B30000AF0F9FD3A461221284670E0B24B9FED9B
:103B4000B47AD3ED007AF4EEC77AF1EE10FACDDD57
:103B500077EEC77AC8E794F8D033052B40F09E8003
:103B600004F59958AB4B002504F5BE56C8F8103043
:103B700041F22C39A84B06AA12213046C8F8183059
:103B8000022304F809508DF818302B4600950AF0EE
:103B9000CAFD2B4606AA1421304600950AF0C3FD43
:103BA0002B4606AA1621304600950AF0BCFD98ED7A
:103BB000046A06AA1321B7EEC66A304600959FED47
:103BC000905B86EE057BFCEEC77B17EE903A8DF896
:103BD00018302B460AF0A7FD98ED066AB2EE045B9A
:103BE00006AAB7EEC66A15213046009586EE057B1B
:103BF000FCEEC77B17EE903A8DF818302B460AF092
:103C000092FD14F8093006AA17218DF818303046B5
:103C10002B4600950AF087FD0622122130460AF055
:103C2000E0FD012384F86F3038E07C4B9FED7C7A17
:103C3000D3ED007AF4EEC77AF1EE10FA05D5B3EEC3
:103C4000047A77EE877AC3ED007A002604F5BE5534
:103C5000022706AA33461421284600968DF81870CC
:103C60000AF061FD04F59953B2EE045B06AA152132
:103C700093ED066A28460096B7EEC66A86EE057B87
:103C8000FCEEC77B17EE903A8DF8183033460AF0F9
:103C90004AFD3A46142128460AF0A3FD04F16400C7
:103CA0000AF0C3FC0120FEF767FBFFF776B85B4B19
:103CB000B3EE047AD3ED007AF4EEC77AF1EE10FA9F
:103CC000C3DD77EEC77ABEE7564941F22C328B5CF2
:103CD000062B01D801338B5404F58550002604F5DA
:103CE000BE55022708300BF0E8FC012306AA162176
:103CF00084F86F302846334600968DF818700AF025
:103D000012FD41F22C33E35C06AA17218DF818301E
:103D10002846334600960AF006FD3A461621BAE7D1
:103D2000404941F22C328B5C002BD5D0013BD2E7CD
:103D300094F8D033002604F5BE550227282B06AA96
:103D40004FF01201284628BF28238DF8187007EE7F
:103D5000903A2D4B9FED2A8BB8EEE77B27EE087B40
:103D6000B7EEC77B37EE077A83ED007A33460096CD
:103D70000AF0D9FC04F5995393ED046AB7EEC66ACC
:103D800086EE087BC9E694F8D033B2EE048B0026A9
:103D900004F5BE55282B4FF0020706AA4FF0140178
:103DA00028BF282328468DF8187007EE903A1B4B41
:103DB000B8EEE77B27EE087BB7EEC77B37EE077AD6
:103DC00083ED007A334600960AF0ADFC04F5995372
:103DD00006AA152193ED066A28460096B7EEC66A34
:103DE00086EE087BFCEEC77B17EE903A8DF8183014
:103DF00033460AF098FC3A4614219DE6AFF3008062
:103E00000000000000005940B8C7002000806D4548
:103E1000000048430000C8430000A042C0C7002083
:103E20000000BE4388B4002094F8D03304F58550D8
:103E3000D54A41F22C38072B00F108004FF000065C
:103E400004F5BE5528BF0723022702F808300BF0FF
:103E500034FC012306AA1621284684F86F30334625
:103E600000968DF818700AF05EFC14F808304BE7E5
:103E700094F8D033282B28BF282307EE903AC34B61
:103E8000B8EEE77B9FEDBE6B27EE067BB7EEC77BF8
:103E900083ED007AC5E694F8D033B2EE046B282B9C
:103EA00028BF282307EE903AB94BB8EEE77B27EE00
:103EB000067BB7EEC77BEBE794F8D033072B28BF20
:103EC000072303EB83035B0007EE903AB14BF8EE58
:103ED000E77AC3ED007AA4E694F8D033282B28BF04
:103EE000282307EE903AAC4BB8EEE77B9FEDA46B2E
:103EF00027EE067BB7EEC77BCAE794F8D033B2EE65
:103F0000046B282B28BF282307EE903AA34BB8EE6A
:103F1000E77B27EE067BB7EEC77BB9E794F8D03393
:103F2000072B28BF072303EB83035B0007EE903AC0
:103F30009B4BF8EEE77ACCE794F8D033282B28BFD8
:103F4000282307EE903A974BB8EEE77B9FED8C6BFA
:103F500027EE067BB7EEC77B9AE794F8D033B2EE34
:103F6000046B282B28BF282307EE903A8E4BB8EE1F
:103F7000E77B27EE067BB7EEC77B89E794F8D03363
:103F8000B2EE046B282B28BF282307EE903A874B0C
:103F9000B8EEE77B27EE067BB7EEC77B78E794F8B1
:103FA000D033072B28BF072303EB83035B0007EE07
:103FB000903A7F4BF8EEE77A8BE794F8D0339FED99
:103FC0007D7A07EE903A7C4BF8EE677A67EE877A57
:103FD0007FE794F8D0339FED777A07EE903A774BEE
:103FE000F8EE677A67EE877A73E794F8D0339FED3F
:103FF000717A07EE903A724BF8EE677A67EE877A3D
:1040000067E794F8D0339FED6B7A07EE903A6D4BEB
:10401000F8EE677A67EE877A5BE794F8D03341F27F
:1040200067021E2104F5BE50A35406AA8DF818306D
:10403000002300930AF002FBF3E5544B9FED5D7AF9
:10404000D3ED006AC6EE877AFCEEE77ACDED037A0F
:104050009DF80C50012D40F2B281013DEDB20027D8
:1040600004F5BE564FF0010807EE905A4FF00209D2
:1040700084F86F8006AAB8EEE77B622130469FED98
:10408000406B27EE067BB7EEC77B83ED007A3B469D
:1040900000978DF818900AF046FB06AA63213B466C
:1040A000304600978DF818500AF03DFB4A466221D1
:1040B00030460AF096FB4046FEF73AFAEEE5334BFF
:1040C0009FED3C7AD3ED006AC6EE877AFCEEE77A84
:1040D000CDED037A9DF80C50132D00F2708101355F
:1040E000BCE7394BB2EE047AD3ED006AC6EE877AAC
:1040F000FCEEE77A17EE905A15F0FF0500F05F81AD
:10410000013DEDB2B2EE046B002704F5BE5607EE9A
:10411000905A4FF001084FF0020906AAB8EEE77B6B
:1041200084F86F806421304627EE067BB7EEC77BAC
:1041300083ED007A3B4600978DF818900AF0F3FA69
:1041400006AA65213B46304600978DF818500AF0C4
:10415000EAFA4A466421ABE71B4BB2EE047AD3ED90
:10416000006AC6EE877AFCEEE77ACDED037A9DF819
:104170000C50012D00F223810135C2E7AFF300801E
:10418000000000000000594088B4002064C60020F0
:104190006CC6002090C60020F0C90020F8C900209D
:1041A0001CCA002050CB002058CB002054CB00204C
:1041B0005CCB00200000C842F0C10020ECC1002010
:1041C000B8C20020B4C2002068C60020C54BB2EEC1
:1041D000047AD3ED006AC6EE877AFCEEE77ACDED7D
:1041E000037A9DF80C50022D40F2E980013DEDB2BA
:1041F000B2EE046B002704F5BE5607EE905A4FF05E
:1042000001084FF0020906AAB8EEE77B84F86F8038
:104210006621304627EE067BB7EEC77B83ED007A3A
:104220003B4600978DF818900AF07DFA06AA6721A0
:104230003B46304600978DF818500AF074FA4A460B
:10424000662135E7A74BB2EE047AD3ED006AC6EEDD
:10425000877AFCEEE77ACDED037A9DF80C50132DAA
:1042600000F2AD800135C2E79F4BB1EE047AD3ED89
:10427000006AC6EE877AFCEEE77ACDED037A9DF808
:104280000C50052D00F29B800135EDB2B1EE046BB0
:10429000002704F5BE5607EE905A4FF001084FF084
:1042A000020906AAB8EEE77B84F86F8068213046E1
:1042B00027EE067BB7EEC77B83ED007A3B4600977F
:1042C0008DF818900AF02FFA06AA69213B4630466D
:1042D00000978DF818500AF026FA4A466821E7E65A
:1042E000814BB1EE047AD3ED006AC6EE877AFCEE1C
:1042F000E77ACDED037A9DF80C50012D5FD9013D91
:10430000C3E77A4B00257A4904F5BE561A460127C1
:10431000304642F8041B774911606221764A9A6060
:10432000764ADA62022306AA00958DF818302B46E9
:104330000AF0F9F92B4606AA6621304600950AF0E4
:10434000F2F92B4606AA6421304600950AF0EBF9F3
:104350002B4606AA6821304600950AF0E4F913239B
:1043600006AA63218DF8183030462B4600950AF0D6
:10437000DAF92B4606AA6521304600958DF81870AB
:104380000AF0D1F9122306AA672130468DF81830B9
:104390002B4600950AF0C7F9042306AA69218DF877
:1043A000183030462B4600950AF0BDF908226221EC
:1043B00030460AF016FA384684F86F707CE600231F
:1043C00030E483F8C722C3F8C822A3F8CC2283F8CC
:1043D000CE22FEF7E2BC032D0CD0042D16D0022D08
:1043E0007EF4DBAC012146480FF049FAFDF7A2FE4E
:1043F000FEF7D3BC0BB92946F5E7012B01D1022109
:10440000F1E7022B7EF4C9AC0421ECE70021EAE7D6
:1044100094F8CF33012B05D184F8243484F8D037B5
:10442000FEF7BBBC002B7EF4B8ACF5E7FF2394F895
:10443000CF73FC22002107A894F8D083069394F848
:10444000D1630FF01BFB022F454694F8D6330DD0F5
:10445000032F14D0012F7EF4A0AC06AA00932946A6
:1044600004F5BE500AF0EAF8FEF797BCA6EB080286
:10447000414606A8D2B209F082F9FEF78EBC042BA1
:104480003EF68BACDFE803F0030A141E230003237F
:104490008DF81430002305AA0093E0E794F8D323A5
:1044A00094F8D23343EA0223ADF814300123F2E743
:1044B00094F8D32394F8D23343EA0223ADF81430AE
:1044C0000223E8E7D4F8D23305930323E3E7D4F8D3
:1044D000D23307EE903A0423F8EEE77ACDED057A71
:1044E000D9E700BF6CC6002090C6002064C600203B
:1044F0000080ED4400002041000034430000A04152
:1045000014CF0020034B0360034B0B608023136028
:10451000704700BF2003002020010020034B0360F0
:10452000034B0B604FF480731360704774070020D7
:10453000740300200000000083B508F0C5F86A4F3E
:104540006A4A04230190A7F5707869489FED628B51
:10455000C0E900232023C0E9023302F099FA0421C4
:10456000644C654E0DEB010008F0CEF9604802F096
:10457000B7FA62480EF0DDFE61480EF0CFFB6148ED
:104580000EF0B8FF60480DF089FD604B93ED000A16
:10459000A3F1B4000EF056FF397840460EF0F8FE55
:1045A00004F5F1600EF0BAFB04F6E4700EF0A2FF21
:1045B00057480DF073FDA6F59663A6F6F8101B7824
:1045C00003EB83035B0007EE903AA6F2D453F8EEB8
:1045D000E77A93ED000AC6ED007A0EF033FFA6F5F8
:1045E00032700178A6F6F8100EF0D2FE04F6E44020
:1045F0000DF06CFE04F6AC500DF068FE04F6E842D7
:1046000004F55B6304F6746092ED000AD3ED007A62
:1046100030EE270A0DF029FE94F8963D94F85E2EB0
:1046200053EA020134D0934238BF134684F8263F40
:1046300094F8FE3C012B02D136480DF08DFE94F823
:10464000C63D012B02D134480DF086FE94F8003DA2
:10465000324D003BA5F2654018BF01232B7094F842
:10466000C83D003B18BF012385F88C330FF07AF961
:1046700094F8963C95F82D2A6BB172B9A5F62D6089
:1046800084F8973209F0D1FF012385F82D3A04E030
:1046900084F8261FCCE7002AF7D1214C94ED006A5C
:1046A000A4F5855304F2BC40B7EEC66AA3F1180224
:1046B000A2F1180186EE087B9FED096B27EE067BC1
:1046C000B7EEC77B86ED007A0DF082FF04F5E3605C
:1046D0000EF0F6FF43E700BF00000000006AF8405C
:1046E0000000000000408F40B8C8002000300040AB
:1046F000ACAE002088B400200CCF002094C4002071
:1047000064B8002044C4002030C50020ACC500209F
:10471000BCC800206CC1002034C2002041C500206C
:10472000FCC70020074CA4F5717508B509F060FFBF
:104730000028FBD0204609F076FF2846FEF704FB50
:10474000F4E700BF4CB800202DE9FF41002444F6F7
:104750001F6707F0B9FF03900A2103A808F0D4F8F7
:10476000BC42164D4FF0000694BF0A340024A84600
:1047700098BFA4B298F80430B342EDDDEB7DB3B935
:104780002A8BB2F5FA7F15D0B2F5FA6F14D0642AED
:1047900008BF0A231344B4FBF3F203FB124333B9FB
:1047A000281D0190FDF710FF019809F03EFF01362A
:1047B0001835DFE71423EDE71E23EBE788B400206C
:1047C0002DE9FF41634E0025DFF8B88107F07CFF3B
:1047D00006F5637703900135322103A8ADB208F0E6
:1047E00093F8132D02D90025FDF7A4FC5A480FF0C9
:1047F00023F830460CF0ABFF90B158480378012BFA
:1048000040F08B8090F8BA3100F5DD7243B100239F
:10481000082180F8BA31009300F2167009F00EFFFB
:1048200038460CF094FF88B14D480378012B0DD128
:1048300090F8BA3100F5DD7243B10023272180F8EA
:10484000BA3100F28A30009309F0F8FE30460CF0DD
:1048500081FFD0B1002401230DF10B025C218DF802
:104860000B3023463F48009409F05DFF3B4A234646
:104870005D2102F21670009409F055FF02225C21BE
:10488000384809F0AEFF384B1C7038460CF062FF18
:10489000D0B1002401230DF10B025E218DF80B3005
:1048A00023463048009409F03EFF2D4A23465F21FD
:1048B00002F28A30009409F036FF02225E21294874
:1048C00009F08FFF294B1C7029480AF093FA2948F8
:1048D000294C0AF08FFA29480AF08CFA28480AF085
:1048E00089FAD4ED327A94ED000A04F5C67030EE00
:1048F000270A0DF0BAFC04F5157009F0D5FF04F590
:10490000257009F0D1FF94F8FC3D272B14D8013312
:1049100084F8FC3DFDF776FC5DE7022B80D190F832
:10492000BD3100F2BD12002B3FF47AAF0023092104
:1049300080F8BD3100936FE794F8FD3D13B100237B
:1049400084F8FD3D00224FF48061404602F088F873
:10495000E0E700BF30C5002014CF002032C50020A2
:10496000BEC8002048CC002044C50020D0C800208C
:10497000BCBF002004C0002070C100204CC000203B
:1049800094C0002000080240F0B56425F9B0192059
:10499000002409F0FBFFB2EE040A904B03224FF40F
:1049A0007A7104A800954FF47A7609F0C1FFB2EE4F
:1049B000040A8B4B04224FF47A7108A800950A2749
:1049C00009F0B6FFB2EE040A864B05224FF47A7165
:1049D0000CA8009509F0ACFFB2EE040A824B062247
:1049E0004FF47A7110A8009509F0A2FF9FED7F0A9D
:1049F0007F4B07223221009414A809F099FF9FED04
:104A00007B0A7C4B08223221009418A809F090FF01
:104A1000B7EE000A784B0922322100941CA809F055
:104A200087FFB7EE000A754B0A221921009420A8CF
:104A300009F07EFFB7EE000A714B0B22192100949A
:104A400024A809F075FFB2EE040A6E4B0C224FF455
:104A50007A71009428A809F06BFF9FED640A6A4BF5
:104A60000D224FF47A7100942CA809F061FF9FED9C
:104A70005F0A664B0E224FF47A71009430A809F059
:104A800057FFB2EE040A624B0F224FF47A71009482
:104A900034A809F04DFFB2EE040A5E4B10224FF429
:104AA0007A71009438A8012409F042FFB2EE040A9A
:104AB000594B112232213CA8009609F039FFB2EE81
:104AC000040A564B1222322140A8009609F030FF0A
:104AD000B2EE040A524B1322322144A8009609F088
:104AE00027FFB2EE040A4F4B1422322148A8009649
:104AF00009F01EFFB7EE000A4B4B152229464CA8C1
:104B0000009409F015FFB7EE000A484B162229461B
:104B100050A8009409F00CFFB7EE000A444B17228E
:104B2000294654A8009409F003FFB7EE000A414B50
:104B30001822294658A8009409F0FAFE9FED3E0A73
:104B40003E4B192232215CA8009709F0F1FE9FED3F
:104B50003A0A3B4B1A22322160A8009709F0E8FE7E
:104B6000B7EE000A374B1B22C82164A8009409F055
:104B7000DFFEB7EE000A344B1C22C82168A800945F
:104B800009F0D6FEB7EE000A304B1D2231466CA864
:104B9000009409F0CDFEB7EE000A2D4B1E223146DF
:104BA00070A8009409F0C4FEB7EE000A294B1F223A
:104BB000294674A8009409F0BBFE0AF02FF818B13A
:104BC000254B186807F0C4FC07F07EFD03901921FF
:104BD00003A807F099FE09F00BFFF8E708C00020D2
:104BE000C0BF002098C0002050C000200000C84274
:104BF00038C2002070C10020E0C0002070B8002042
:104C00001CBC002060CF002064CF002068CF0020B3
:104C100028CF00202CCF002044C400206CC40020EA
:104C200008C5002024C5002034C500203CC5002054
:104C3000C0C80020C8C8002000007A44F0C5002089
:104C40007CC90020F0C600207CCA0020B8C7002024
:104C5000C0C70020F4C40020D8070020F0B5B9B0C8
:104C60002C220021022509A801260EF007FF14229C
:104C7000002102A80EF002FF9022002114A80EF0DD
:104C8000FDFE274B4FF4800106271A6C07A800246D
:104C900042F080521A641B6C03F080530093009B17
:104CA000204B1A6842F440421A6009221B6812978E
:104CB00003F440430193019B4FF48033CDE9072374
:104CC0000823CDE90E134FF4C073CDE90C65CDE98F
:104CD000103501F043FF01F009FF0F23394602A808
:104CE000CDE902354FF4C053CDE904434FF480536E
:104CF000069302F027F90C4B14A81C961493C023BA
:104D0000279419934FF00063CDE91A55CDE91E643D
:104D1000CDE92544CDE9333402F0F2F939B0F0BDE4
:104D20000038024000700040C001A0002DE9F04FA3
:104D300095B0C94D00F0E9FE0024FFF78FFF142263
:104D400000210DA80EF09AFE2B6B00224EF290511E
:104D500043F01003C148012610272B634FF00409CC
:104D60002B6B4FF007084FF0050A4FF0600B03F074
:104D700010030493049B2B6B43F004032B632B6BF6
:104D800003F004030593059B2B6B43F080032B6317
:104D90002B6B03F080030693069B2B6B43F0010300
:104DA0002B632B6B03F001030793079B2B6B43F0E3
:104DB00002032B632B6B03F002030893089B2B6BFE
:104DC00043F008032B632B6B03F008030993099B43
:104DD00001F046FE002248F20341A14801F040FEE6
:104DE000002224219F4801F03BFE0DA99B4810940E
:104DF0000F96CDE90D7601F047FD48F203430DA96A
:104E00009748CDE90D36CDE90F4401F03DFD0DA9E0
:104E100093480F94CDE90D9401F036FD2822924B72
:104E20000DA98F480F94CDE90D2301F02DFD43F21C
:104E300002030DA98B480F94CDE90D3401F024FD38
:104E400024230DA98748CDE90D36CDE90F4401F0A3
:104E50001BFD4EF280530DA98048CDE90D36CDE9FA
:104E60000F4401F011FD22460721092001F0CEFA7E
:104E7000092001F0FDFA22460721172001F0C6FAA9
:104E8000172001F0F5FA2B6B2246072143F400139B
:104E900038462B632B6B03F400130293029B2B6B9E
:104EA00043F480032B632B6B062503F480030393E9
:104EB000039B01F0ABFA384601F0DAFA22460721EB
:104EC000382001F0A3FA382001F0D2FA2246062158
:104ED0003B2001F09BFA3B2001F0CAFA2246062152
:104EE000452001F093FA452001F0C2FA3A462146E6
:104EF0000DA80EF0C3FD5D4F5D494FF440333846B9
:104F0000BC6087F82040FC62FC607C613E61BE6151
:104F1000C7F81C8087F83060C7E90013554BBB62A7
:104F200000F022FE0DA93846CDF83C90CDE90D6683
:104F300000F09AFF02230DA93846CDE90D3300F0A9
:104F400093FF03230DA938460E93CDF8349000F05B
:104F50008BFF0DA93846CDE90DA900F085FF0DA9FD
:104F60003846CDE90D5A00F07FFF0DA938464FF0C5
:104F7000200ACDE90D8500F077FF0E230DA93846F4
:104F80004FF44027CDE90D3800F06EFF3A483B4B17
:104F9000C0E900354FF48013C0E904734FF080730B
:104FA000374F83614FF480738383C0E9024401F07B
:104FB00001F8344B344A4FF4804C1C61C3E900249F
:104FC0005022C3E90244C3E905C204F051FFDFF8EF
:104FD000C4E02E484FF48273C0E900E34FF4E0636D
:104FE000846044610463C0E903344FF40073C0E992
:104FF000063A0823C0E908444363C0E90A4803F0BD
:1050000077F821461C220DA80C94CDE90A440EF035
:1050100035FD1F4A4FF496633846C7F808A0BC61B7
:10502000C7E90024C7E9033403F08EFD0AA9384616
:105030000A940C9403F0C6FE08230DA938460F9479
:105040001A461194CDE90DB403F0D0FD384600F0B6
:105050007DFB1C2220E000BF00380240001002400F
:10506000000802400004024000001110C0B30020FC
:10507000002001400100000F78D1002000640040B2
:1050800080AF0020BCAE0020002C014070CF00207B
:10509000000400400034014021460DA8724F0C94DA
:1050A000CDE90A440EF0EAFC704B3846C7F808A078
:1050B000BC61DFF81CA2C7E900344FF49663C7E96E
:1050C000033403F041FD0AA938460A940C9403F016
:1050D00079FE0C220DA938460F941194CDE90DB438
:1050E00003F084FD384600F031FB61484FF4E123C2
:1050F0000C27DFF8E0B1C0E90449C0E900A34FF490
:10510000E139C0E90244C0E90644C0E9084404F0BA
:105110002BFB5848584B04614462C0E90039C0E990
:105120000244C0E90574C0E9074404F01DFB53487C
:10513000302384608461C0E900B34FF6FF73C0E997
:10514000033403F0E7FC04F041FE4D484D4BC0E949
:105150000244C0E90039C0E90447C0E90644C0E997
:10516000084404F001FB4848484A4FF482734FF466
:10517000007184604661C0E900234FF4E063C0E938
:1051800003342823C0E90844C0E90613C0E90A48EB
:10519000C0E90C4402F0ACFF04F1804408F0C0FA0E
:1051A0003B4A04F50434936843F480539360FBF75F
:1051B0007FFBFBF7C1FDFBF761FEFBF7C1FEFBF7D1
:1051C00079FFFBF797FFFBF7C5FFFBF7E3FFFBF763
:1051D000EDFFFCF713F8FCF785FFFCF783F9FCF70C
:1051E00047FDFCF797FF4FF40051204601F03DFCCE
:1051F000642000F0A7FC013DF5D1264B4FF440722E
:105200002549012401930423244800932B4607F0E9
:1052100071F9234B4FF4C072224901932B46224867
:10522000009407F067F9214B4FF420722049214880
:10523000CDE900432B4607F05DF91F4B4FF4407258
:105240001E491F48CDE900432B4607F053F91D4B7B
:105250004FF4A0621C491D48CDE900432B4607F0DE
:1052600049F906F04DF9FEE740AF0020000C004080
:10527000F8D000202CAE002000480040A0D1002033
:1052800008B400200010014094D0002000300140FC
:10529000002004E0D4070020C04801083945000878
:1052A000D0070020CD480108C1470008CC070020E6
:1052B000D848010849470008C8070020E34801080A
:1052C00025470008D8070020EE4801088949000852
:1052D0000044004000200040074B41F267029A5C06
:1052E00012B906480DF0B9BE012A01BF41F26601AC
:1052F0005A5C01325A54704788B4002094C400208C
:105300000268034B9A4201D100F00ABC704700BF0B
:1053100000140040704700000D4B82B00F216FF069
:1053200001001A6C42F080521A641A6C02F080522A
:105330000092009A5A6C42F480425A6400225B6CDC
:1053400003F480430193019B02B001F05FB800BFFA
:105350000038024070B588B006461422002103A828
:105360000EF08CFB3268294B9A424CD103F58C33FA
:105370000025032403A95A6C254842F480725A641C
:105380005A6C02F480720092009A1A6B42F0010289
:105390001A631A6B02F001020192019A1A6B42F031
:1053A00004021A631B6B059503F004030293029B2E
:1053B000F623CDE9033401F067FA102303A9154859
:1053C0000595CDE9033401F05FFA134C134B4FF40C
:1053D00080624FF480412046C4E900354FF4805389
:1053E000C4E904234FF48073C4E906134FF48033F7
:1053F000C4E90255C4E9083501F072F808B1FFF7B5
:1054000089FFB463A66308B070BD00BF00200140EF
:105410000000024000080240D4CF00201064024087
:1054200010B588B004461422002103A80EF026FB14
:105430002268144B9A4222D103F5EA330021124824
:105440001A6C42F000721A641A6C02F00072019237
:10545000019A1A6B42F001021A634FF4C0521B6B9F
:1054600003F001030293029B0223CDE903230323EC
:10547000CDE90513092303A9079301F005FA08B044
:1054800010BD00BF00640040000002402DE9F04361
:1054900089B005461422002103A80EF0EFFA2A680D
:1054A0004D4B9A4240F0948003F586330C244FF024
:1054B000020900265A6C03270DEB0401474842F409
:1054C00000624FF004085A645A6C02F400620092C1
:1054D000009A1A6B42F004021A631A6B02F004027B
:1054E0000192019A1A6B42F008021A631B6B07942F
:1054F00003F008030293029B4FF48853CDE905673C
:10550000CDE9033901F0C0F90DEB040134480794EB
:10551000344CCDE90389CDE9056701F0B5F94FF0C9
:105520000063DFF8CCE04FF480694FF480424FF421
:1055300000012046A762C4E900E34FF48053C4E9A8
:1055400004932023C4E906234FF40033C4E9083848
:105550004FF40013C4E90266C4E90B1300F0C0FF66
:1055600008B1FFF7D7FE4FF000631F4A2C644021BB
:10557000A5634FF480601D4C4FF480464FF4003714
:105580004FF0030CC4E900230023C4E902134FF4D5
:105590008053C4E9040320232046C4E9066304239E
:1055A000C4E908734FF40003C4E90AC34FF40013BD
:1055B000236300F095FF08B1FFF7ACFE3120002215
:1055C0000621EC63A56300F021FF312000F050FFBD
:1055D00009B0BDE8F08300BF002C01400008024084
:1055E000000C024034D00020A0640240E0D1002032
:1055F0005864024014220021F0B58BB004460DEB34
:1056000002000EF03BFA23682D4A934235D12D4B10
:105610000227002603255A6C052405A92A4842F4CE
:1056200080525A645A6C02F480520092009A1A6BAB
:1056300042F008021A631A6B02F008020192019A02
:105640001A6B42F002021A631B6B099403F0020307
:105650000293029B8023CDE90765CDE9053701F070
:1056600013F9182305A919480994CDE90537CDE99F
:10567000076501F009F90BB0F0BD154A9342FAD164
:10568000104B002113485A6C42F400525A645A6C71
:1056900002F400520392039A1A6B42F010021A634A
:1056A00064221B6B03F010030493049B0223CDE9D7
:1056B00005230323CDE90713052305A90993D8E79B
:1056C0000030014000380240000C0240000402405B
:1056D0000034014000100240036882B00E4A934239
:1056E0000BD10E4B1A6C42F002021A641B6C03F0D1
:1056F00002030093009B02B07047094A9342FAD11B
:10570000064B1A6C42F008021A641B6C03F0080383
:105710000193019BEFE700BF000400400038024006
:10572000000C0040026882B0074B9A420AD103F590
:1057300006331A6C42F480721A641B6C03F4807393
:105740000193019B02B070470020004010B588B063
:1057500004461422002103A80EF090F92368194A88
:10576000934217D1184B012118481A6B42F00202DC
:105770001A6300221B6B03F002030193019B0223B7
:10578000CDE9031303A90793CDE9052201F07CF8C5
:1057900008B010BD0E4A9342FAD10B4B03A90D4835
:1057A0001A6B42F001021A6308221B6B03F001031B
:1057B0000293029B0223CDE9032300220793CDE944
:1057C0000522E3E7000400400038024000040240E4
:1057D000000C00400000024070B58CB00646142258
:1057E000002107A80EF04AF93368494A934222D1B2
:1057F000484B00215A6C42F010025A645A6C02F075
:1058000010020192019A1A6B42F002021A634FF4DD
:1058100040421B6B03F002030293029B0223CDE97B
:1058200007230323CDE90913042307A93A480B935F
:1058300001F02AF848E0394A934247D1354B6020BD
:10584000002507A91A6C364C42F400321A641A6C0F
:1058500002F400320392039A1A6B42F008021A63B0
:105860001B6B03F008030493049B0223CDE9070399
:1058700003232C48CDE9095307230B9301F004F8C7
:105880004FF00063DFF8A4C04FF4807E2046A5618E
:105890006562C4E900C34FF48063C4E904354FF482
:1058A0008033C4E90255C4E907E300F019FE08B1EA
:1058B000FFF730FD262000220721F466A66300F0E2
:1058C000A5FD262000F0D4FD0CB070BD164A934211
:1058D000FAD1104B00211A6C42F480221A641A6C1F
:1058E00002F480220592059A1A6B42F002021A63B2
:1058F0004FF440621B6B03F002030693069B0223E6
:10590000CDE907230323CDE9091307238DE700BF62
:1059100000100140003802400004024000440040F2
:1059200030930020000C0240004800408860024094
:1059300010B5014688B00022372000F067FD3720FF
:1059400000F096FD144B01A903A81A6C134C42F009
:1059500020021A641B6C03F020030293029B01F0E7
:10596000B1FB01F08FFB0E4B4000236040F2E733A8
:10597000E3600C4BB0FBF3F001380023606020467D
:105980002361A36003F0C6F820B9204602F092FF1D
:1059900008B010BD0120FBE70038024040D20020D3
:1059A0000014004040420F00704700000C210748DF
:1059B00008B503F0D5F902210548002201F050F89E
:1059C0000821044803F0CCF9FEE700BF40AF0020F7
:1059D0000008024080AF0020FEE7FEE7FEE77047C8
:1059E00008B50421094801F035F8094A01284FF0AB
:1059F0000800B2F8463F0CBF013303F1FF331BB27E
:105A0000A2F8463FBDE8084001F036B80008024061
:105A100088B40020014800F077BE00BF309300201A
:105A200008B50221094801F015F8094A01284FF08C
:105A30002000B2F8863F0CBF03F1FF3301331BB2E5
:105A4000A2F8863FBDE8084001F016B80004024005
:105A500088B40020014803F0E9BA00BFF8D0002064
:105A6000014802F08FB900BFBCAE0020014802F02F
:105A70003BBF00BF40D20020014800F045BE00BF40
:105A8000D4CF0020014800F03FBE00BF34D000203A
:105A9000014800F039BE00BFE0D10020054BD3F82B
:105AA000882042F47002C3F888204FF000629A60A8
:105AB000704700BF00ED00E0DFF834D0002103E0C4
:105AC0000C4B5B58435004310B480C4B42189A4224
:105AD000F6D30B4A02E0002342F8043B094B9A42FA
