:100000000C9458000C9475000C9475000C947500B9
:100010000C9475000C9475000C9475000C9475008C
:100020000C9475000C9475000C9475000C9475007C
:100030000C9475000C9475000C9475000C9475006C
:100040000C9475000C9475000C9492230C9475001C
:100050000C9475000C9475000C9475000C9475004C
:100060000C9475000C9475000C9475000C9475003C
:100070000C94CB260C9475000C9475000C947500B0
:100080000C9475000C9475000C9475000C9475001C
:100090000C9475006F068206A006BE06D106EF0618
:1000A0000D077907E507F007960834094009490963
:1000B00011241FBECFEFD8E0DEBFCDBF11E0A0E01E
:1000C000B1E0EAECF6E502C005900D92A039B10767
:1000D000D9F724E0A0E9B1E001C01D92A43DB20728
:1000E000E1F70E942A220C94632B0C940000ECE7A9
:1000F000F0E0808180648083EAE7F0E080818768B7
:1001000080830895ECE7F0E09081987F8770892BD9
:100110008083EAE7F0E0808180648083808184FFCF
:10012000FDCF209178008091790090E0982F88276A
:1001300088279F72822B0895DF92EF92FF920F9390
:100140001F93CF93DF93E62EF12C1E141F04ACF403
:10015000D82EC0E0D0E000E010E08D2D0E9482009B
:10016000080F191F8FE99FE00197F1F700C0000009
:100170002196CE15DF0589F702C000E010E0C80126
:10018000B7010E94112BCB01DF91CF911F910F91ED
:10019000FF90EF90DF900895EF92FF920F931F93DF
:1001A000CF93DF938C0181E08093D8001092DB0025
:1001B00090E06DEE70E04FEE50E0CEEED0E0A4EFB8
:1001C000B0E00F2EF0EFEF2EF12CF02D292F22951D
:1001D000207FFB012083FA01108218821D921D925C
:1001E0001D921C921397F7011082118212821382C2
:1001F0009F5F9F3059F70A3F110511F13CF4043617
:10020000110591F10D37110529F138C0043FF1E0D6
:100210001F0761F0083E134089F51092E2008CE060
:100220008093E30086E38093E40031C082E0809312
:10023000E2008CE08093E30087E38093E40027C032
:1002400086E08093E2008CE08093E30087E3809374
:10025000E4001DC08EE08093E2008CE08093E30018
:1002600087E38093E40013C082E18093E2008CE096
:100270008093E30087E38093E40009C08EE08093DD
:10028000E2008CE08093E30087E38093E40080EB5E
:100290008093DB00E8EDF0E08081826080838091D4
:1002A000D90082FD0DC080E197E2E9EDF0E025E3A1
:1002B0002A95F1F70000208122FD02C00197B9F7CD
:1002C0008091D90082FB882780F9DF91CF911F911F
:1002D0000F91FF90EF900895CF93FC01C091ED0036
:1002E0002091DC003091DD00408181E090E0042E1F
:1002F00002C0880F991F0A94E2F782239323892B67
:1003000009F0C3C04295407F4093ED00818588236A
:1003100009F451C081819281A381B481880F991F12
:10032000AA1FBB1F880F991FAA1FBB1F880F991FE9
:10033000AA1FBB1F2685822B438550E0440F551F03
:10034000440F551F052E000C660B770B842B952B45
:10035000A62BB72B8093F0009093F100A093F200AE
:10036000B093F30085819681A781B085880F991F8E
:10037000AA1FBB1F880F991FAA1FBB1F880F991F99
:10038000AA1FBB1F2285822B448550E0440F551FB6
:10039000440F551F052E000C660B770B842B952BF5
:1003A000A62BB72B8093F4009093F500A093F60052
:1003B000B093F7004AC081819281A381B481072E56
:1003C00075E1880F991FAA1FBB1F7A95D1F7702D71
:1003D0002685822B438550E0440F551F440F551F3F
:1003E000052E000C660B770B842B952BA62BB72BB9
:1003F0008093F0009093F100A093F200B093F3008B
:1004000085819681A781B085072E75E1880F991F98
:10041000AA1FBB1F7A95D1F7702D2285822B4485A8
:1004200050E0440F551F440F551F052E000C660B5E
:10043000770B842B952BA62BB72B8093F4009093EE
:10044000F500A093F600B093F700AEEDB0E02D916B
:100450003C91119781E090E0008002C0880F991FC5
:100460000A94E2F7822B932B11969C938E938185AD
:1004700020E1829FC001112495859068892B80938B
:10048000EF00C093ED0081E001C080E0CF910895BE
:100490001F93CF93DF93DC01F8941091ED0020912E
:1004A000DC003091DD0081E090E0062E02C0880F74
:1004B000991F0A94E2F782239323892B19F07894E9
:1004C00080E065C06295607F6093ED0014968C912A
:1004D000149781FF1AC04D915D916D917C91139796
:1004E000440F551F661F771F440F551F661F771F48
:1004F000440F551F661F771F4093F0005093F10083
:100500006093F2007093F30016C04D915D916D9170
:100510007C911397032E35E1440F551F661F771FFB
:100520003A95D1F7302D4093F0005093F10060934D
:10053000F2007093F30015968C911597882389F03B
:10054000FD01369640E050E0CAEFD0E091919883EB
:100550004F5F5F4F15962C91159730E04217530768
:10056000ACF31092EE0014968C91149781FF06C0A4
:1005700015968C9180658093EF0005C015968C913F
:1005800080648093EF001093ED00789481E0DF9118
:10059000CF911F9108958F92AF92CF92EF92FF92D9
:1005A0000F931F93CF93DF93CDB7DEB7FC0160832A
:1005B0002183328343835483E582F6820783108745
:1005C000C186A28687868C8585878D8583878E8563
:1005D00084878F858687DF91CF911F910F91FF9040
:1005E000EF90CF90AF908F900895EF920F93DC0132
:1005F0004D935D936D937C93139714968C91149700
:1006000020FB81F9E0FA80F914968C9314971596E3
:100610000C931597002371F0FD0136960150202FA1
:1006200030E0295F3F4FCD01820F931F1192E817F1
:10063000F907E1F70F91EF900895229A239A6A98AB
:100640007298279A0895229A29E030E094E085B1C3
:10065000892785B94FEF51EE84E0415050408040EA
:10066000E1F700C000002150310989F72A98089568
:100670002CB130E0A90102C0559547958A95E2F763
:10068000CA018170089582E00E943803882341F0F6
:1006900080919C01811104C081E080939C010895A8
:1006A00082E00E943803811106C080919C01813054
:1006B00011F410929C01089586E00E94380388236B
:1006C00041F0809101018F3F21F481E0809301018D
:1006D0000CC086E00E943803811107C0809101019F
:1006E000813019F48FEF8093010185E00E94380377
:1006F000882341F0809100018F3F21F481E08093B5
:100700000001089585E00E943803811107C080919F
:100710000001813019F48FEF809300010895CF928A
:10072000DF92EF92FF9220E030E040EA50E40E9436
:10073000A42A20E030E040E85AE30E94A42A2DECED
:100740003CEC44E951E40E94A42A20E030E042E875
:1007500052E40E94452920E03AEF4FE757E40E9417
:10076000A42A6B017C0120E03AEF4FE757E40E9496
:100770009F2A18164CF40F2EC12CFAEFDF2EFFE73C
:10078000EF2EF7E4FF2EF02DC701B6010E94BE291F
:10079000CB01FF90EF90DF90CF900895CF92DF9242
:1007A000EF92FF9220E030E040EA50E40E94A42A59
:1007B00020E030E040E85AE30E94A42A20E030E044
:1007C0004AE754E40E94A42A6B017C016091020173
:1007D0007091030180E090E00E94ED299B01AC0143
:1007E000C701B6010E94D32823E333E343E951E470
:1007F0000E94452920E030E044E352E40E9445296C
:1008000020E03AEF4FE757E40E94A42A6B017C01F5
:1008100020E03EEF4FE757E40E949F2A18169CF015
:1008200020E030E040E85FE3C701B6010E944029C4
:10083000882394F40F2EC12CD12CF0E8EF2EFFE387
:10084000FF2EF02D09C00F2EC12CFEEFDF2EFFE78B
:10085000EF2EF7E4FF2EF02DC701B6010E94BE294E
:10086000CB01FF90EF90DF90CF900895CF92DF9271
:10087000EF92FF9263E087E00E949C00BC0180E061
:1008800090E00E94ED290E948F039093A001809335
:100890009F01009739F481E090E09093A00180934C
:1008A0009F0108C0019631F48EEF9FEF9093A00155
:1008B00080939F0160919F017091A00180E090E082
:1008C0000E94ED292AE037ED43E25CE30E94A42A6E
:1008D0006B017C0160919D0170919E0180E090E030
:1008E0000E94ED2924EA30E74DE75FE30E94A42A45
:1008F0009B01AC01C701B6010E94D4280E94BE2909
:1009000060939F017093A00160939D0170939E017D
:10091000EAE4F2E066837783FF90EF90DF90CF9078
:10092000089563E083E00E949C009093A30180936C
:10093000A201BC0180E090E00E94ED290E94CE035C
:100940008093A2019093A301EAE4F2E0808791876B
:1009500008958F929F92AF92BF92CF92DF92EF92C3
:10096000FF92CF93DF936B017C01413009F08BC084
:10097000C0910B01D0910C01BE010D2E000C880B13
:10098000990B0E94EF294B015C01A70196010E947F
:100990009F2A88239CF060910D0170910E01072E13
:1009A000000C880B990B0E94EF299B01AC01C70139
:1009B000B6010E949F2A88230CF011C1A70196015D
:1009C000C501B4010E94402988231CF5A5019401AA
:1009D000C701B6010E94D3286B017C0160911A0106
:1009E00070911B016C1B7D0B072E000C880B990B63
:1009F0000E94EF299B01AC01C701B6010E94452965
:100A000020E030E04AE754E40E94A42A6B017C0114
:100A1000C8C0C0910D01D0910E01BE010D2E000C79
:100A2000880B990B0E94EF294B015C019B01AC01E3
:100A3000C701B6010E94402988230CF0B2C0A5016D
:100A40009401C701B6010E94D3286B017C018091FB
:100A50001C0190911D01BE01681B790B072E000C33
:100A6000880B990B0E94EF299B01AC01C701B601CD
:100A70000E94452920E030E04AE754E40E94A42A7D
:100A80006B017C018EC0423009F08BC0C091070120
:100A9000D0910801BE010D2E000C880B990B0E940D
:100AA000EF294B015C019B01AC01C701B6010E941B
:100AB000402918169CF06091090170910A01072ED7
:100AC000000C880B990B0E94EF299B01AC01C70118
:100AD000B6010E949F2A88230CF085C0A5019401CD
:100AE000C701B6010E949F2A18161CF5A5019401A2
:100AF000C701B6010E94D3286B017C0160911401EB
:100B0000709115016C1B7D0B072E000C880B990B47
:100B10000E94EF299B01AC01C701B6010E94452943
:100B200020E030E04AE754E40E94A42A6B017C01F3
:100B300038C0C0910901D0910A01BE010D2E000CF0
:100B4000880B990B0E94EF294B015C019B01AC01C2
:100B5000C701B6010E94402988231CF5A501940114
:100B6000C701B6010E94D3286B017C018091160158
:100B700090911701BE01681B790B072E000C880BA2
:100B8000990B0E94EF299B01AC01C701B6010E949D
:100B9000452920E030E04AE754E40E94A42A6B0192
:100BA0007C0120E030EC49E754E4C701B6010E9423
:100BB0009F2A1816E4F020E030EC49E754ECC70116
:100BC000B6010E9440298823DCF40F2EC12CF0ECE2
:100BD000DF2EF9E7EF2EF4ECFF2EF02D11C0C12C23
:100BE000D12C76010DC0C12CD12C760109C00F2E5D
:100BF000C12CF0ECDF2EF9E7EF2EF4E4FF2EF02D00
:100C0000C701B6010E94B729CB01DF91CF91FF90B8
:100C1000EF90DF90CF90BF90AF909F908F9008950E
:100C2000CF9386E190E00E944E2B813009F046C0C0
:100C300088E090E00E944E2BC82F89E090E00E944F
:100C40004E2B2C2F30E0382B30930E0120930D01CA
:100C50008AE090E00E944E2BC82F8BE090E00E942B
:100C60004E2B2C2F30E0382B30930C0120930B01AE
:100C700082E190E00E944E2BC82F83E190E00E9419
:100C80004E2B2C2F30E0382B30930A012093090192
:100C900084E190E00E944E2BC82F85E190E00E94F5
:100CA0004E2B2C2F30E0382B309308012093070176
:100CB00087E190E00E944E2B80930F01CF91089521
:100CC000CF93E091AD038E2F90E0FC013197EE3091
:100CD000F10508F0E6C2E65BFF4F0C94252BC1E05E
:100CE000C093320467E08CE294E00E944802C09313
:100CF0000D0265E080E00E949C0090930F028093BB
:100D00000E02CFC281E08093320467E08CE294E06F
:100D10000E94480265E080E00E949C0090931B02C4
:100D200080931A02843F21E092072CF490931302DF
:100D300080931202B6C29093110280931002B1C246
:100D400081E08093320467E08CE294E00E944802E4
:100D500065E080E00E949C0090931B0280931A0241
:100D6000853F41E094072CF090931102809310028C
:100D700098C2909313028093120293C2C1E0C09371
:100D8000320467E08CE294E00E944802C0930D02B6
:100D900065E084E00E949C00909315028093140209
:100DA00080C281E08093320467E08CE294E00E948C
:100DB000480265E084E00E949C0090931B028093AF
:100DC0001A02843F21E092072CF490931902809339
:100DD000180267C2909317028093160262C281E0E4
:100DE0008093320467E08CE294E00E94480265E060
:100DF00084E00E949C0090931B0280931A02853F1E
:100E000041E094072CF0909317028093160249C298
:100E1000909319028093180244C280910E0290911F
:100E20000F029C012F5531402B32314008F04CC04D
:100E300020911002309111022F3E42E034070CF451
:100E400043C040911202509113024A3F5105E4F50C
:100E500041155105C9F15093170140931601909324
:100E6000130180931201309315012093140161E066
:100E700081E090E00E94562B609116018CE090E09A
:100E80000E94562B609117018DE090E00E94562B36
:100E90006091120180E190E00E94562B6091130155
:100EA00081E190E00E94562B609114018EE090E069
:100EB0000E94562B609115018FE090E00E94562B06
:100EC00082E08093320403C083E08093320467E0C1
:100ED0008CE294E00E9448021092130210921202D7
:100EE00010920F0210920E02109211021092100234
:100EF000D8C180911402909115029C012F55314068
:100F00002B32314008F04CC020911602309117026C
:100F10002F3E42E034070CF443C040911802509138
:100F200019024A3F5105E4F541155105C9F15093A5
:100F30001D0140931C019093190180931801309377
:100F40001B0120931A0161E080E090E00E94562B83
:100F500060911C0182E090E00E94562B60911D017F
:100F600083E090E00E94562B6091180186E090E0AB
:100F70000E94562B6091190187E090E00E94562B49
:100F800060911A0184E090E00E94562B60911B0151
:100F900085E090E00E94562B82E08093320403C0EB
:100FA00083E08093320467E08CE294E00E94480280
:100FB0001092190210921802109215021092140247
:100FC00010921702109216026CC181E080933204D5
:100FD00067E08CE294E00E94480210920D0261C129
:100FE00080911001909111010A96909311018093C4
:100FF000100180910F018F5F80930F01833348F0C0
:1010000084EF91E0909311018093100182E380932B
:101010000F01ECE2F4E081E0868380910F01878389
:1010200067E0CF010E94480260910F0187E190E0E4
:101030000E94562B809110019091110199230CF47C
:101040000196959587956091120170911301681B27
:10105000790B70930A016093090182E190E00E948C
:10106000562B60910A0183E190E00E94562B60911B
:10107000100170911101772314F46F5F7F4F759504
:1010800067958091120190911301680F791F7093F9
:1010900008016093070184E190E00E94562B609163
:1010A000080185E190E00E94562B809110019091FB
:1010B000110199230CF4019695958795609118017B
:1010C00070911901681B790B70930E0160930D01EB
:1010D00088E090E00E94562B60910E0189E090E03C
:1010E0000E94562B6091100170911101772314F426
:1010F0006F5F7F4F759567958091180190911901E9
:10110000680F791F70930C0160930B018AE090E0E7
:101110000E94562B60910C018BE090E00E94562BB0
:1011200061E086E190E00E94562BBBC080910F01E8
:10113000803168F020911001309111012A5031095D
:101140003093110120931001815080930F01ECE244
:10115000F4E081E0868380910F01878367E0CF010F
:101160000E94480260910F0187E190E00E94562B97
:10117000809110019091110199230CF4019695959D
:1011800087956091120170911301681B790B709320
:101190000A016093090182E190E00E94562B609160
:1011A0000A0183E190E00E94562B6091100170913A
:1011B0001101772314F46F5F7F4F759567958091C8
:1011C000120190911301680F791F709308016093C9
:1011D000070184E190E00E94562B6091080185E1AF
:1011E00090E00E94562B809110019091110199235B
:1011F0000CF40196959587956091180170911901ED
:10120000681B790B70930E0160930D0188E090E0EC
:101210000E94562B60910E0189E090E00E94562BAF
:101220006091100170911101772314F46F5F7F4F6B
:10123000759567958091180190911901680F791F34
:1012400070930C0160930B018AE090E00E94562B92
:1012500060910C018BE090E00E94562B61E086E1EA
:1012600090E00E94562B1DC0ECE2F4E081E0868302
:1012700080910F01878367E0CF010E94480211C06F
:1012800082E080938E0162E088E190E00E94562B1C
:1012900008C083E080938E0163E088E190E00E94C3
:1012A000562BCF9108951F93CF93DF932DEC3CECF9
:1012B0004CE45FE360912C0270912D0280912E022C
:1012C00090912F020E94D32820E030E04AEF53E4AF
:1012D0000E94A42A0E94BE29D62F6093230220E0F8
:1012E00030E048EC52E4609128027091290280912C
:1012F0002A0290912B020E94A42A0E94BE29C62F86
:101300006093220220E030E048EC52E46091360223
:101310007091370280913802909139020E94A42A7C
:101320000E94BE29162F6093310220E030E048EC85
:1013300052E46091320270913302809134029091B4
:1013400035020E94A42A0E94BE2960933002EAE678
:10135000F2E01683D7836087C187DF91CF911F9119
:10136000089563E00E949C00BC01990F880B990BC3
:101370000E94EF2920E030E040E85AE30E94A42ACE
:10138000089563E00E949C00BC01990F880B990BA3
:101390000E94EF2920E030E040EA55E40E94452910
:1013A0002DEC3CEC4CE45FE30E94D42808958F922E
:1013B000AF92CF92EF92FF920F931F93CF93DF9351
:1013C0001F921F921F92D1E0DF936894882482F8C5
:1013D000AA24A394CC24C394EE24EA94F12C00E034
:1013E00010E129E932E040E050E060E08FED92E06A
:1013F0000E94CB021F921F921F92C7E0CF93689466
:10140000882481F8EE24EA941AEFF12E0FEF1FE101
:1014100021E132E040E050E061E086E993E00E94A3
:10142000CB021F921F921F92DF931CEFE12EFF242D
:10143000FA940FEF1FE121E131E040E050E062E07B
:1014400086E893E00E94CB021F921F921F92DF93C7
:101450006894882482F810EFE12EFF24FA940FEFAD
:101460001FE126E030E041E050E063E087EF93E0E9
:101470000E94CB021F921F921F92CF9388248394C5
:10148000EE24EA94FE2C0FEF1FE125E030E240E06D
:1014900050E064E086E793E00E94CB021F921F9227
:1014A0001F92CF9323E033E040E050E06DE08CE406
:1014B00094E00E94CB028DB79EB748960FB6F89481
:1014C0009EBF0FBE8DBFDF91CF911F910F91FF90F7
:1014D000EF90CF90AF908F900895EF920F93E12C03
:1014E00001E021E049E952E060E070E087EB93E041
:1014F0000E94F50221E049E953E060E070E08CE5EC
:1015000094E00E94F50221E049E951E060E070E0DA
:101510008AE792E00E94F50221E049E950E060E0AC
:1015200070E086EA94E00E94F50207E021E041E1E4
:1015300052E060E070E08AE592E00E94F50221E06E
:1015400041E153E060E070E086EB94E00E94F50238
:1015500001E021E041E151E060E070E087E094E0EB
:101560000E94F50221E042E151E060E070E08CE38E
:1015700094E00E94F50221E046E050E061E070E076
:1015800087EA93E00E94F50221E047E050E061E045
:1015900070E086E994E00E94F50221E048E050E026
:1015A00061E070E08DE393E00E94F50221E049E004
:1015B00050E061E070E08FEB92E00E94F50207E0FE
:1015C00021E045E050E260E070E081E693E00E94B7
:1015D000F50205E021E041E157E060E070E087E1DD
:1015E00094E00E94F50207E021E043E053E060E070
:1015F00070E08CE694E00E94F50203E021E041E017
:1016000050E160E070E089E093E00E94F50221E0A3
:1016100042E050E160E070E087EE93E00E94F50266
:1016200001E021E049E950E160E070E08CE794E0FE
:101630000E94F50203E021E045E050E160E070E047
:101640008FE992E00E94F50204E021E043E050E1DE
:1016500060E070E08AE492E00E94F50221E044E05C
:1016600050E160E070E08AE692E00E94F50221E03D
:1016700047E058E064E070E08FEC92E00E94F502F1
:1016800002E021E049E150E160E070E08CE294E0AA
:101690000E94F50208E021E041E250E160E070E0E4
:1016A00087EC93E00E94F50206E021E043E250E17E
:1016B00060E070E081E593E00E94F50205E021E042
:1016C00044E250E160E070E08FEA92E00E94F502AF
:1016D00001E021E048E950E160E070E089EF92E04C
:1016E0000E94F5020F91EF900895823071F028F476
:1016F0008823A9F0813039F010C0843051F038F0DF
:10170000853049F00AC082E00BC083E009C084E064
:1017100007C085E005C086E003C080E001C081E02D
:10172000860F089580912704811103C01092B001A3
:10173000089580912804811104C01092B00181E0C5
:10174000089580912904811104C01092B00182E0B3
:10175000089580912A04811104C01092B00183E0A1
:10176000089580912B04811104C01092B00184E08F
:10177000089581E08093B00183E6089529E030E088
:10178000A90141505109FA01E457FB4F9081F90139
:10179000E457FB4F9083FA01EE0FFF1FE657FD4F12
:1017A00060817181220F331FF901E657FD4F71836C
:1017B00060839A014F3F5F4F19F780938C048091AB
:1017C000990190919A0190938B0280938A020895D7
:1017D000CF9363E083E00E949C00BC01990F880BCB
:1017E000990B0E94EF2920E030E040EA50E40E948B
:1017F000A42A20E030E040E85AE30E94A42A20E036
:1018000030E04AE754E40E94A42A0E94BE29709363
:101810000301609302016C5D7540693C7105C8F07D
:1018200081E08093A1018BE896E09093030180937F
:101830000201C0E8C093E2010E94920B8093E00194
:10184000E091E001F0E0E95DFB4FC08380E80E9499
:10185000BE0BCF9108958091A2019091A301803495
:101860002FE9920758F08091DB019091DC010196FD
:10187000893522E0920708F05AC04BC080339E4859
:1018800078F18091DB019091DC01009769F001977C
:101890009093DC018093DB018091D9019091DA0172
:1018A0008935924070F439C08091D9019091DA0164
:1018B00001969093DA018093D9018935924008F41A
:1018C000CBC088E592E09093DA018093D9018091B2
:1018D000DB019091DC018F36910508F464C024C0CF
:1018E0008091DB019091DC01009731F0019790939A
:1018F000DC018093DB0111C08091D9019091DA0164
:10190000009709F4A9C001979093DA018093D90157
:10191000A3C09093DC018093DB018091DB01909167
:10192000DC018F369105C0F18739910530F086E9E9
:1019300090E09093DC018093DB018091E2018111C2
:1019400017C081E08093E1010E94920B8093E00137
:101950008091B00181118BC0E091E001F0E0E95D80
:10196000FB4F8FE780838093E2010E94BE0B0895B6
:101970008091E101811108C08FE70E94BE0B81E0D8
:101980008093E10110920601E091E001F0E0E95D51
:10199000FB4F8FE7808308952091D9013091DA01C0
:1019A0002F36310598F18739910530F086E990E0BE
:1019B0009093DC018093DB018091E201811114C0DE
:1019C0000E94920B8093E0018091B00181114FC081
:1019D000E091E001F0E0E95DFB4F8EE780838093CA
:1019E000E2010E94BE0B089580910601811106C09C
:1019F0008EE70E94BE0B81E080930601E091E0013A
:101A0000F0E0E95DFB4F8EE7808308954091E201AD
:101A1000442369F1892B41F0E091E001F0E0E95DB8
:101A2000FB4F8FE780830895232B41F0E091E00185
:101A3000F0E0E95DFB4F8EE7808308951092E201AC
:101A40001092E10181E080930601E091E001F0E075
:101A5000E95DFB4F108208952091D9013091DA01A0
:101A60002F36310508F0A8CF80E090E0CFCF089561
:101A700080919F019091A00180342CEE9207A0F0FC
:101A80008091D7019091D80101969093D8018093CD
:101A9000D7018739910508F4E8C186E990E0909371
:101AA000D8018093D701B9C0803528EE920780F124
:101AB0008091D7019091D801009769F00197909398
:101AC000D8018093D7018091D5019091D6018739B3
:101AD000910578F492C02091D5013091D6012F5F05
:101AE0003F4F3093D6012093D5012739310508F4B3
:101AF000B3C186E990E09093D6018093D50180919F
:101B0000D7019091D8018C34910508F4C5C07CC0F0
:101B1000813321EB9207A0F48091D3019091D401FD
:101B200001968739910528F49093D4018093D301CD
:101B300064C086E990E09093D4018093D3015DC0A6
:101B40008132954B18F58091D3019091D401009783
:101B500031F001979093D4018093D30109C0809113
:101B6000D1019091D20101969093D2018093D1013D
:101B70008091D1019091D20187399105F0F186E9E8
:101B800090E09093D2018093D10137C08091D7012A
:101B90009091D801009731F001979093D8018093EC
:101BA000D7012BC02091D5013091D60121153105E7
:101BB00039F0215031093093D6012093D5015CC012
:101BC0002091D3013091D4012115310539F02150F4
:101BD00031093093D4012093D3014EC02091D1011B
:101BE0003091D2012115310509F446C02150310947
:101BF0003093D2012093D1013FC08091D7019091C1
:101C0000D8018C349105C0F18739910530F086E90F
:101C100090E09093D8018093D7018091DF018111EA
:101C200017C081E08093DE010E94920B8093DD015A
:101C30008091B00181111EC1E091DD01F0E0E95D0C
:101C4000FB4F8BE780838093DF010E94BE0B0895DA
:101C50008091DE01811108C08BE70E94BE0B81E0FC
:101C60008093DE0110920501E091DD01F0E0E95D75
:101C7000FB4F8BE7808308952091D5013091D601E9
:101C80002C343105A0F12739310530F086E990E098
:101C90009093D6018093D5018091DF01811115C009
:101CA0000E94920B8093DD018091B001811107C0E9
:101CB000E091DD01F0E0E95DFB4F89E7808389E792
:101CC0008093DF010E94BE0B089580910501811170
:101CD00006C089E70E94BE0B81E080930501E09178
:101CE000DD01F0E0E95DFB4F89E7808308954091D5
:101CF000D3015091D4014C345105C0F147395105FD
:101D000030F086E990E09093D4018093D3018091E4
:101D1000DF01811117C081E08093DE010E94920BE8
:101D20008093DD018091B0018111A4C0E091DD01BB
:101D3000F0E0E95DFB4F8CE780838093DF010E9438
:101D4000BE0B08958091DE01811108C08CE70E94CE
:101D5000BE0B81E08093DE0110920501E091DD0170
:101D6000F0E0E95DFB4F8CE7808308956091D1013D
:101D70007091D2016C347105A0F16739710530F0B2
:101D800086E990E09093D2018093D1018091DF01A8
:101D9000811115C00E94920B8093DD018091B001EA
:101DA000811107C0E091DD01F0E0E95DFB4F8AE7BA
:101DB00080838AE78093DF010E94BE0B08958091A3
:101DC0000501811106C08AE70E94BE0B81E0809365
:101DD0000501E091DD01F0E0E95DFB4F8AE78083DA
:101DE0000895E091DF01EE2309F444C0892B41F00E
:101DF000E091DD01F0E0E95DFB4F8BE78083089522
:101E0000232B41F0E091DD01F0E0E95DFB4F89E734
:101E100080830895452B81F4672BB1F41092DF0184
:101E20001092DE0181E080930501E091DD01F0E098
:101E3000E95DFB4F10820895E091DD01F0E0E95D7E
:101E4000FB4F8CE780830895E091DD01F0E0E95DD0
:101E5000FB4F8AE7808308952091D5013091D60108
:101E60002C34310508F443CF17CF8C34910508F496
:101E700003CFD3CE0895CF9380E090E00E944E2B05
:101E8000813081F582E090E00E944E2BC82F83E0E4
:101E900090E00E944E2B2C2F30E0382B30931D0108
:101EA00020931C0184E090E00E944E2BC82F85E017
:101EB00090E00E944E2B2C2F30E0382B30931B01EA
:101EC00020931A0186E090E00E944E2BC82F87E0F5
:101ED00090E00E944E2B2C2F30E0382B30931901CC
:101EE0002093180181E090E00E944E2B813081F513
:101EF0008CE090E00E944E2BC82F8DE090E00E9475
:101F00004E2B2C2F30E0382B3093170120931601E5
:101F10008EE090E00E944E2BC82F8FE090E00E9450
:101F20004E2B2C2F30E0382B3093150120931401C9
:101F300080E190E00E944E2BC82F81E190E00E944A
:101F40004E2B2C2F30E0382B3093130120931201AD
:101F500080911801909119018F5591408B329140D9
:101F600070F480911A0190911B018F3E92403CF0D9
:101F700080911C0190911D018A3F910594F00E946F
:101F8000920B8093CB018091B001811107C0E09149
:101F9000CB01F0E0E95DFB4F82E8808382E80E949C
:101FA000BE0B80911201909113018F5591408B329D
:101FB000914070F480911401909115018F3E9240F0
:101FC0003CF080911601909117018A3F910594F0A1
:101FD0000E94920B8093CD018091B001811107C0C6
:101FE000E091CD01F0E0E95DFB4F81E8808381E87D
:101FF0000E94BE0BCF9108952F923F924F925F9215
:102000006F927F928F929F92AF92BF92CF92DF9208
:10201000EF92FF920F931F93CF93DF93CDB7DEB76D
:1020200028970FB6F894DEBF0FBECDBF63E084E003
:102030000E949C0090934902809348028E5491091B
:1020400081369340C0F08091D001811114C00E946C
:10205000920B8093CF018091B001811107C0E09174
:10206000CF01F0E0E95DFB4F8DE780838DE7809342
:10207000D0010E94BE0B6091480270914902072E68
:10208000000C880B990B0E94EF2941E00E94A904E3
:10209000909349028093480285E00E94B1096B0148
:1020A0007C016093320270933302809334029093E8
:1020B00035026091480270914902072E000C880B8E
:1020C000990B0E94EF29A70196010E94A42A0E9461
:1020D000B729709349026093480286E00E94B109D3
:1020E000609328027093290280932A0290932B0216
:1020F0004091010120914802309149024203300190
:10210000439F700C1124709249026092480224EAA5
:1021100030E74DE75FE30E949F2A181664F484EAD3
:1021200090E7ADE7BFE38093280290932902A09344
:102130002A02B0932B02309028022090290240906E
:102140002A0250902B02232D322D442D552D6091C3
:1021500062017091630180916401909165010E9418
:102160004029882304F506E611E0E12CF12C02C099
:10217000ED80FE80A7014F5F5F4F5E834D83F801C6
:1021800081909190A190B1908F01232D322D442DFB
:10219000552DC501B4010E94402988234CF32D819F
:1021A0003E81232B89F480914C0190914D019093B5
:1021B000270280932602F0902001E0902101D09028
:1021C0002201C0902301DEC04D815E814A3051055D
:1021D00089F480916001909161019093270280932E
:1021E0002602F0904801E0904901D0904A01C09049
:1021F0004B01C8C080918E01823009F060C0F701A8
:10220000EE0FFF1FE45BFE4F60817181072E000C13
:10221000880B990B0E94EF2969837A838B839C83B7
:10222000F701EE0FFF1FEE0FFF1FEE59FE4FC080AC
:10223000D180E280F3808D819E81880F991F845B1D
:102240009E4FFC0160817181072E000C880B990B59
:102250000E94EF2929813A814B815C810E94D32819
:102260006D837E838F839887A7019601C501B40192
:102270000E94D3289B01AC016D817E818F8198855E
:102280000E9445294B015C01A7019601632D722D27
:10229000842D952D0E94D3289B01AC01C501B4016A
:1022A0000E94A42A29813A814B815C810E94D42812
:1022B0000E94B729709327026093260268C0F70135
:1022C000EE0FFF1FEE0FFF1FDF01A05EBE4F2D912F
:1022D0003D914D915C9129833A834B835C83EE5908
:1022E000FE4FC080D180E280F3804D815E81440F3B
:1022F000551F440F551F405E5E4F5E834D832981FD
:102300003A814B815C81ED81FE81608171818281A6
:1023100093810E94D3286D837E838F839887A70142
:102320009601C501B4010E94D3289B01AC016D81C7
:102330007E818F8198850E9445294B015C01A70110
:102340009601632D722D842D952D0E94D3289B011B
:10235000AC01C501B4010E94A42A9B01AC016981B2
:102360007A818B819C810E94D428F62EE72ED82E6C
:10237000C92E80914C0190914D019093270280933A
:10238000260259C180918E01823009F054C180919A
:1023900093019091940101969093940180939301FD
:1023A00080919301909194010A9758F010929201B4
:1023B0001092250210922402F32CE22CD42CC52C6E
:1023C000EAC081E0809392018091950190919601FD
:1023D000813293400CF455C0161417040CF051C010
:1023E000B301770C880B990B0E94EF292FE632E19D
:1023F00043E85AE30E94A42A20E030E040E251E49E
:102400000E94A42A6B017C01609124027091250234
:10241000072E000C880B990B0E94EF299B01AC0141
:10242000C701B6010E94D4280E94B72970932502E3
:102430006093240240914C0150914D01209126025D
:1024400030912702FA01E21BF30B6E177F0724F08D
:10245000F0932502E0932402109249021092480260
:102460000F2EF6E6FF2EF02D0F2EF6E6EF2EF02DB6
:102470000F2EF6E6DF2EF02D0F2EFFE3CF2EF02DE0
:102480008AC08091950190919601803E9C4F0CF0FE
:1024900055C077200CF052C0B301770C880B990B14
:1024A0000E94EF292FE632E143E85AE30E94A42A72
:1024B000905820E030E040E251E40E94A42A6B01F1
:1024C0007C016091240270912502072E000C880B7C
:1024D000990B0E94EF299B01AC01C701B6010E9434
:1024E000D4280E94B729709325026093240240915A
:1024F0004C0150914D012091260230912702FA01A2
:10250000E21BF30B6E177F0724F0F0932502E09394
:10251000240210924902109248020F2EF6E6FF2E76
:10252000F02D0F2EF6E6EF2EF02D0F2EF6E6DF2E15
:10253000F02D0F2EFFE3CF2EF02D2DC08091240221
:102540009091250218161906B4F404979093250269
:10255000809324020F2EF6E6FF2EF02D0F2EF6E6C6
:10256000EF2EF02D0F2EF6E6DF2EF02D0F2EFFE3CF
:10257000CF2EF02D10C00F2EF6E6FF2EF02D0F2ED1
:10258000F6E6EF2EF02D0F2EF6E6DF2EF02D0F2EB5
:10259000FFE3CF2EF02D209126023091270280916B
:1025A000240290912502820F931F9093270280931B
:1025B0002602609148027091490220913C023091BC
:1025C0003D02FB01E21BF30BAF0122F44427552728
:1025D0004E1B5F0B841795078CF4261737073CF4C6
:1025E000820F931F90934702809346020BC0281BD3
:1025F000390B309347022093460204C07093470280
:10260000609346028091460290914702893EF3E032
:102610009F073CF088EE93E0909347028093460238
:1026200012C088319C4F7CF488E19CEF9093470264
:102630008093460208C010922502109224027092E4
:1026400047026092460240914602509147025A83E7
:10265000498300914002109141022F2D3E2D4D2DB6
:102660005C2D60E070E080E89FE30E94D3284B017E
:102670005C01B801012E000C880B990B0E94EF2918
:102680009B01AC01C501B4010E94A42A4B015C016D
:10269000E981FA81BF01FF0F880B990B0E94EF2996
:1026A0002F2D3E2D4D2D5C2D0E94A42A9B01AC01A7
:1026B000C501B4010E94D4280E94B7299B017093E0
:1026C0004502609344024091480250914902141619
:1026D00015067CF4FA01E61BF70B329754F0061747
:1026E000170739F40F5F1F4F109345020093440200
:1026F00011C055237CF4CA01861B970B8F3F9F4F57
:102700004CF40217130731F40150110910934502DC
:10271000009344028091440290914502893E23E057
:102720009207ACF088EE93E09093450280934402C8
:10273000909341028093400249815A815093430211
:102740004093420290933D0280933C0245C0883101
:102750005CEF9507ACF488E19CEF90934502809381
:1027600044029093410280934002E981FA81F09300
:102770004302E093420290933D0280933C0217C0D3
:10278000909341028093400229813A813093430221
:102790002093420290933D0280933C0288519C4FCB
:1027A00090934902809348021816190674F081E04C
:1027B00090E090934902809348022091200230914A
:1027C00021022130310571F527C080914802909196
:1027D0004902803D97408CF08FEC97E0909349023E
:1027E0008093480280912002909121028F3C47E023
:1027F000940791F08FEC97E015C08091480290917A
:10280000490220912002309121028217930751F44E
:10281000883E53E0950731F020911D022F5F2093F1
:102820001D0202C010921D0290932102809320028B
:1028300020911D02253078F010921D0220911F0179
:10284000219520931F01820F911D27FD9A9590934A
:102850004902809348029091480280914902E9E040
:10286000F3E09683878328960FB6F894DEBF0FBEF9
:10287000CDBFDF91CF911F910F91FF90EF90DF902F
:10288000CF90BF90AF909F908F907F906F905F9010
:102890004F903F902F9008958F929F92AF92BF924A
:1028A000CF92DF92EF92FF920F931F93CF93DF931C
:1028B00063E080E00E949C0090933F0280933E0280
:1028C0008E54910981369340C0F08091D0018111DE
:1028D00014C00E94920B8093CF018091B0018111AE
:1028E00007C0E091CF01F0E0E95DFB4F8DE7808309
:1028F0008DE78093D0010E94BE0B60913E027091E3
:102900003F02072E000C880B990B0E94EF2942E032
:102910000E94A90490933F0280933E0281E00E94AE
:10292000B1096B017C01609336027093370280938A
:1029300038029093390260913E0270913F02072E57
:10294000000C880B990B0E94EF29A70196010E94A9
:10295000A42A0E94B72970933F0260933E0282E04E
:102960000E94C10960932C0270932D0280932E0265
:1029700090932F024091000120913E0230913F023E
:1029800042038001439F100D112424EA30E74DE7F4
:102990005FE30E949F2A181664F484EA90E7ADE78B
:1029A000BFE380932C0290932D02A0932E02B0934C
:1029B0002F02C0902C02D0902D02E0902E02F090B9
:1029C0002F02C0913A02D0913B02B801110F880B3F
:1029D000990B0E94EF294B015C01A701960160E071
:1029E00070E080E89FE30E94D3289B01AC01C50101
:1029F000B4010E94A42A4B015C01BE010D2E000C03
:102A0000880B990B0E94EF29A70196010E94A42A26
:102A10009B01AC01C501B4010E94D4280E94B729D2
:102A2000FB01AB014C1B5D0B9A0122F422273327DB
:102A3000241B350B2C3431052CF470933F0260932A
:102A40003E0210C0CE17DF073CF4C55BDF4FD093CA
:102A50003F02C0933E0206C0CB54D109D0933F023F
:102A6000C0933E0280913E0290913F0290933B02C0
:102A700080933A0288519C4F90933F0280933E028C
:102A80001816190674F081E090E090933F0280934D
:102A90003E0220911E0230911F028217930751F5CA
:102AA00023C0803D97408CF08FEC97E090933F02DD
:102AB00080933E0280911E0290911F028F3C27E07E
:102AC000920791F08FEC97E015C080913E029091B3
:102AD0003F0220911E0230911F028217930751F48A
:102AE000883E23E0920731F020911C022F5F209353
:102AF0001C0202C010921C0290931F0280931E02BF
:102B000020911C02253078F010921C0220911E01A9
:102B1000219520931E01820F911D27FD9A95909378
:102B20003F0280933E0290913E0280913F02E7EE89
:102B3000F3E096838783DF91CF911F910F91FF90F0
:102B4000EF90DF90CF90BF90AF909F908F900895BF
:102B50001F93CF93DF93CAE0D0E010E065E080E000
:102B60000E949C00835C91408737910510F41F5FA1
:102B700001C010E08FE19EE40197F1F700C0000072
:102B8000219761F71A3039F483E08093A60281E03F
:102B900080930C026DC081E08093A60210920C021B
:102BA0008091CE01811107C081E88093CE010E94FF
:102BB000920B8093CD018091CD01833609F458C0EA
:102BC000E091CD01F0E0E95DFB4F8081813809F4AF
:102BD0004FC081E80E94BE0BE091CD01F0E0E95DBD
:102BE000FB4F81E8808344C065E084E00E949C0044
:102BF000835C91408737910510F41F5F01C010E09E
:102C00008FE19EE40197F1F700C00000219761F782
:102C10001A3039F481E080930B0283E08093A7029D
:102C20002BC010920B0281E08093A7028091CC010F
:102C3000811107C082E88093CC010E94920B80939F
:102C4000CB018091CB018336B9F0E091CB01F0E06C
:102C5000E95DFB4F8081823879F082E80E94BE0BEB
:102C6000E091CB01F0E0E95DFB4F82E8808304C096
:102C7000CAE0D0E010E0B8CFDF91CF911F91089566
:102C80008091BB0382FF13C01092AA018091FC01C6
:102C9000882341F01092FC01E091FB01F0E0E95D36
:102CA000FB4F1082EBEBF3E080818B7F8083809180
:102CB000600482FF13C01092A9018091EC01882367
:102CC00041F01092EC01E091EB01F0E0E95DFB4F87
:102CD0001082E0E6F4E080818B7F808380917E0229
:102CE00082FF13C01092A8018091E801882341F06F
:102CF0001092E801E091E701F0E0E95DFB4F1082FE
:102D0000EEE7F2E080818B7F80838091AA0482FFCE
:102D100013C01092A7018091E401882341F0109222
:102D2000E401E091E301F0E0E95DFB4F1082EAEAA3
:102D3000F4E080818B7F80838091DB0382FF17C06A
:102D40008091A401882399F01092A6018091BC0182
:102D5000882341F01092BC01E091BB01F0E0E95DF5
:102D6000FB4F1082EBEDF3E080818B7F80838091BD
:102D7000AA018430C0F08091FC01811114C00E942E
:102D8000920B8093FB018091B001811107C0E0910B
:102D9000FB01F0E0E95DFB4F83E2808383E28093F7
:102DA000FC010E94BE0B8091A9018430C0F080918B
:102DB000EC01811114C00E94920B8093EB01809171
:102DC000B001811107C0E091EB01F0E0E95DFB4F3C
:102DD0008BE480838BE48093EC010E94BE0B809196
:102DE000A8018330C0F08091E801811114C00E94D5
:102DF000920B8093E7018091B001811107C0E091AF
:102E0000E701F0E0E95DFB4F89E5808389E5809388
:102E1000E8010E94BE0B8091A7018330C0F0809131
:102E2000E401811114C00E94920B8093E301809110
:102E3000B001811107C0E091E301F0E0E95DFB4FD3
:102E40008DE680838DE68093E4010E94BE0B809125
:102E5000A6018430E0F08091A4018823C1F0809124
:102E6000BC01811114C00E94920B8093BB01809120
:102E7000B001811107C0E091BB01F0E0E95DFB4FBB
:102E800085EB808385EB8093BC010E94BE0B089587
:102E900080E090E072E861E8FC01E95DFB4F208191
:102EA00021118FC29C012F5F3F4FF901E95DFB4F5C
:102EB0004081442309F485C24091090250E0421741
:102EC000530759F480930902E0910902F0E0409120
:102ED0000A02E95DFB4F408370C24091070250E057
:102EE0004217530759F480930702E0910702F0E07C
:102EF00040910802E95DFB4F40835FC240910502AB
:102F000050E04217530759F480930502E0910502FF
:102F1000F0E040910602E95DFB4F40834EC24091D4
:102F2000030250E04217530759F480930302E091E3
:102F30000302F0E040910402E95DFB4F40833DC293
:102F40004091010250E04217530759F48093010267
:102F5000E0910102F0E040910202E95DFB4F408305
:102F60002CC24091FF0150E04217530759F480935F
:102F7000FF01E091FF01F0E040910002E95DFB4FAD
:102F800040831BC24091FD0150E04217530759F4A2
:102F90008093FD01E091FD01F0E04091FD01E95DCC
:102FA000FB4F40830AC24091FB0150E04217530798
:102FB00059F48093FB01E091FB01F0E04091FC01AA
:102FC000E95DFB4F4083F9C14091F90150E04217A0
:102FD000530759F48093F901E091F901F0E0409131
:102FE000FA01E95DFB4F4083E8C14091F70150E0F1
:102FF0004217530759F48093F701E091F701F0E08D
:103000004091F801E95DFB4F4083D7C14091F50144
:1030100050E04217530759F48093F501E091F50110
:10302000F0E04091F601E95DFB4F4083C6C140915D
:10303000F30150E04217530759F48093F301E091F4
:10304000F301F0E04091F401E95DFB4F4083B5C12D
:103050004091F10150E04217530759F48093F10178
:10306000E091F101F0E04091F201E95DFB4F408316
:10307000A4C14091EF0150E04217530759F48093E7
:10308000EF01E091EF01F0E04091F001E95DFB4FCD
:10309000408393C14091ED0150E04217530759F42A
:1030A0008093ED01E091ED01F0E04091ED01E95DEB
:1030B000FB4F408382C14091EB0150E04217530720
:1030C00059F48093EB01E091EB01F0E04091EC01C9
:1030D000E95DFB4F408371C14091E90150E0421727
:1030E000530759F48093E901E091E901F0E0409140
:1030F000EA01E95DFB4F408360C14091E70150E088
:103100004217530759F48093E701E091E701F0E09B
:103110004091E801E95DFB4F40834FC14091E501DB
:1031200050E04217530759F48093E501E091E5011F
:10313000F0E04091E601E95DFB4F40833EC14091E4
:10314000E30150E04217530759F48093E301E09103
:10315000E301F0E04091E401E95DFB4F40832DC1C4
:103160004091DD0150E04217530759F48093DD018F
:10317000E091DD01F0E04091DF01E95DFB4F40832C
:103180001CC14091CF0150E04217530759F480937E
:10319000CF01E091CF01F0E04091D001E95DFB4F1C
:1031A00040830BC14091E00150E04217530759F4AE
:1031B0008093E001E091E001F0E04091E201E95DFF
:1031C000FB4F4083FAC04091CD0150E042175307B6
:1031D00049F48093CD01E091CD01F0E0E95DFB4F32
:1031E0006083EBC04091CB0150E04217530749F494
:1031F0008093CB01E091CB01F0E0E95DFB4F708360
:10320000DCC04091C90150E04217530759F4809344
:10321000C901E091C901F0E04091CA01E95DFB4FAD
:103220004083CBC04091C70150E04217530759F487
:103230008093C701E091C701F0E04091C801E95DCA
:10324000FB4F4083BAC04091C50150E0421753077D
:1032500059F48093C501E091C501F0E04091C601A9
:10326000E95DFB4F4083A9C04091C30150E0421784
:10327000530759F48093C301E091C301F0E04091FA
:10328000C401E95DFB4F408398C04091C10150E00B
:103290004217530759F48093C101E091C101F0E056
:1032A0004091C201E95DFB4F408387C04091BF015F
:1032B00050E04217530759F48093BF01E091BF01DA
:1032C000F0E04091C001E95DFB4F408376C0409142
:1032D000BD0150E04217530759F48093BD01E091BE
:1032E000BD01F0E04091BE01E95DFB4F408365C048
:1032F0004091BB0150E04217530759F48093BB0142
:10330000E091BB01F0E04091BC01E95DFB4F4083DF
:1033100054C04091B90150E04217530759F48093CB
:10332000B901E091B901F0E04091BA01E95DFB4FCC
:10333000408343C04091B70150E04217530759F40E
:103340008093B701E091B701F0E04091B801E95DE9
:10335000FB4F408332C04091B50150E04217530704
:1033600059F48093B501E091B501F0E04091B601C8
:10337000E95DFB4F408321C04091B30150E042170B
:10338000530759F48093B301E091B301F0E0409109
:10339000B401E95DFB4F408310C04091B10150E0A2
:1033A0004217530751F48093B101E091B101F0E06D
:1033B0004091B201E95DFB4F4083F901E95DFB4FAC
:1033C000108201968430910509F066CD0895CF935F
:1033D00080915E0282FFFFC6E0E6F2E080E090E0CE
:1033E0002191DC01AA53BB4F2C93019687309105A4
:1033F000B9F78091C60460E00E94750BC82F813038
:1034000021F18091B001811130C080910A028111B7
:1034100006C0C0930A020E94920B80930902809119
:103420000902833611F1E0910902F0E0E95DFB4FFA
:103430008081C81719F08C2F0E94BE0BE091090201
:10344000F0E0E95DFB4FC08310C080910A02882341
:1034500061F010920A02E0910902F0E0E95DFB4F91
:1034600010821092B0010E9448178091C70465E055
:103470000E94750BC82F863021F18091B001811117
:1034800030C080910802811106C0C09308020E94DA
:10349000920B8093070280910702833611F1E0912D
:1034A0000702F0E0E95DFB4F8081C81719F08C2F0F
:1034B0000E94BE0BE0910702F0E0E95DFB4FC08384
:1034C00010C080910802882361F010920802E091F8
:1034D0000702F0E0E95DFB4F10821092B0010E94FC
:1034E00048178091C8046AE00E94750BC82F8B3082
:1034F00021F18091B001811130C0809106028111CB
:1035000006C0C09306020E94920B80930502809130
:103510000502833611F1E0910502F0E0E95DFB4F11
:103520008081C81719F08C2F0E94BE0BE091050214
:10353000F0E0E95DFB4FC08310C080910602882354
:1035400061F010920602E0910502F0E0E95DFB4FA8
:1035500010821092B0010E9448178091C90462E164
:103560000E94750BC82F833121F18091B001811128
:1035700030C080910402811106C0C09304020E94F1
:10358000920B8093030280910302833611F1E09144
:103590000302F0E0E95DFB4F8081C81719F08C2F22
:1035A0000E94BE0BE0910302F0E0E95DFB4FC08397
:1035B00010C080910402882361F010920402E0910F
:1035C0000302F0E0E95DFB4F10821092B0010E940F
:1035D00048178091CA0467E10E94750BC82F883193
:1035E00021F18091B001811130C0809102028111DE
:1035F00006C0C09302020E94920B80930102809148
:103600000102833611F1E0910102F0E0E95DFB4F28
:103610008081C81719F08C2F0E94BE0BE091010227
:10362000F0E0E95DFB4FC08310C080910202882367
:1036300061F010920202E0910102F0E0E95DFB4FBF
:1036400010821092B0010E9448178091CB046FE065
:103650000E94750BC82F803121F18091B00181113A
:1036600030C080910002811106C0C09300020E9408
:10367000920B8093FF018091FF01833611F1E0915D
:10368000FF01F0E0E95DFB4F8081C81719F08C2F36
:103690000E94BE0BE091FF01F0E0E95DFB4FC083AB
:1036A00010C080910002882361F010920002E09126
:1036B000FF01F0E0E95DFB4F10821092B0010E9423
:1036C00048178091CC046DE10E94750BC82F8E3194
:1036D00021F18091B001811130C08091FE018111F2
:1036E00006C0C093FE010E94920B8093FD01809161
:1036F000FD01833611F1E091FD01F0E0E95DFB4F42
:103700008081C81719F08C2F0E94BE0BE091FD013B
:10371000F0E0E95DFB4FC08310C08091FE0188237B
:1037200061F01092FE01E091FD01F0E0E95DFB4FD8
:1037300010821092B0010E944817EEE5F2E08081FD
:103740008B7F80838091BA0482FF4AC5ECEBF4E062
:1037500080E090E02191DC01AA53BB4F2C930196AD
:1037600087309105B9F78091C60468E20E94750B15
:10377000C82F893221F18091B001811130C0809130
:10378000FA01811106C0C093FA010E94920B809346
:10379000F9018091F901833611F1E091F901F0E02E
:1037A000E95DFB4F8081C81719F08C2F0E94BE0B7A
:1037B000E091F901F0E0E95DFB4FC08310C080911A
:1037C000FA01882361F01092FA01E091F901F0E02A
:1037D000E95DFB4F10821092B0010E944817809162
:1037E000C7046DE20E94750BC82F8E3221F18091C3
:1037F000B001811130C08091F801811106C0C093E1
:10380000F8010E94920B8093F7018091F7018336B3
:1038100011F1E091F701F0E0E95DFB4F8081C817FD
:1038200019F08C2F0E94BE0BE091F701F0E0E95DEA
:10383000FB4FC08310C08091F801882361F0109283
:10384000F801E091F701F0E0E95DFB4F1082109282
:10385000B0010E9448178091C80462E30E94750B72
:10386000C82F833321F18091B001811130C0809144
:10387000F601811106C0C093F6010E94920B80935D
:10388000F5018091F501833611F1E091F501F0E049
:10389000E95DFB4F8081C81719F08C2F0E94BE0B89
:1038A000E091F501F0E0E95DFB4FC08310C080912D
:1038B000F601882361F01092F601E091F501F0E045
:1038C000E95DFB4F10821092B0010E944817809171
:1038D000C9046AE30E94750BC82F8B3321F18091D4
:1038E000B001811130C08091F401811106C0C093F4
:1038F000F4010E94920B8093F3018091F3018336CF
:1039000011F1E091F301F0E0E95DFB4F8081C81710
:1039100019F08C2F0E94BE0BE091F301F0E0E95DFD
:10392000FB4FC08310C08091F401882361F0109296
:10393000F401E091F301F0E0E95DFB4F1082109299
:10394000B0010E9448178091CA046FE30E94750B72
:10395000C82F803421F18091B001811130C0809155
:10396000F201811106C0C093F2010E94920B809374
:10397000F1018091F101833611F1E091F101F0E064
:10398000E95DFB4F8081C81719F08C2F0E94BE0B98
:10399000E091F101F0E0E95DFB4FC08310C0809140
:1039A000F201882361F01092F201E091F101F0E060
:1039B000E95DFB4F10821092B0010E944817809180
:1039C000CB0467E30E94750BC82F883321F18091E7
:1039D000B001811130C08091F001811106C0C09307
:1039E000F0010E94920B8093EF018091EF018336EA
:1039F00011F1E091EF01F0E0E95DFB4F8081C81724
:103A000019F08C2F0E94BE0BE091EF01F0E0E95D10
:103A1000FB4FC08310C08091F001882361F01092A9
:103A2000F001E091EF01F0E0E95DFB4F10821092B0
:103A3000B0010E9448178091CC0465E40E94750B88
:103A4000C82F863421F18091B001811130C080915E
:103A5000EE01811106C0C093EE010E94920B80938B
:103A6000ED018091ED01833611F1E091ED01F0E07F
:103A7000E95DFB4F8081C81719F08C2F0E94BE0BA7
:103A8000E091ED01F0E0E95DFB4FC08310C0809153
:103A9000EE01882361F01092EE01E091ED01F0E07B
:103AA000E95DFB4F10821092B0010E944817EAEBCB
:103AB000F4E080818B7F808380910B0482FF95C32B
:103AC00080910D048093A6038091A6036FE40E9469
:103AD000750BC82F803521F18091B001811130C064
:103AE0008091EA01811106C0C093EA010E94920B05
:103AF0008093E9018091E901833611F1E091E901B8
:103B0000F0E0E95DFB4F8081C81719F08C2F0E940F
:103B1000BE0BE091E901F0E0E95DFB4FC08310C00E
:103B20008091EA01882361F01092EA01E091E901B5
:103B3000F0E0E95DFB4F10821092B0010E9448173F
:103B4000EBE0F4E080818B7F80838091400482FFF2
:103B500051C3809142048093A6038091A60363E63B
:103B60000E94750BC82F843621F18091B00181111C
:103B700030C08091E601811106C0C093E6010E9429
:103B8000920B8093E5018091E501833611F1E0917C
:103B9000E501F0E0E95DFB4F8081C81719F08C2F3B
:103BA0000E94BE0BE091E501F0E0E95DFB4FC083B0
:103BB00010C08091E601882361F01092E601E09147
:103BC000E501F0E0E95DFB4F10821092B0010E9428
:103BD0004817E0E4F4E080818B7F80838091650367
:103BE00082FF0DC3E7E6F3E080E090E02191DC0185
:103BF000A353BB4F2C93019687309105B9F7809161
:103C0000CD046CE80E94750BC82F8D3821F180918E
:103C1000B001811130C08091CA01811106C0C093EA
:103C2000CA010E94920B8093C9018091C901833619
:103C300011F1E091C901F0E0E95DFB4F8081C81707
:103C400019F08C2F0E94BE0BE091C901F0E0E95DF4
:103C5000FB4FC08310C08091CA01882361F010928D
:103C6000CA01E091C901F0E0E95DFB4F10821092BA
:103C7000B0010E9448178091CE0461E90E94750B43
:103C8000C82F823921F18091B001811130C080911B
:103C9000C801811106C0C093C8010E94920B809395
:103CA000C7018091C701833611F1E091C701F0E0AF
:103CB000E95DFB4F8081C81719F08C2F0E94BE0B65
:103CC000E091C701F0E0E95DFB4FC08310C0809137
:103CD000C801882361F01092C801E091C701F0E0AB
:103CE000E95DFB4F10821092B0010E94481780914D
:103CF000CF0466E90E94750BC82F873921F18091A6
:103D0000B001811130C08091C601811106C0C093FD
:103D1000C6010E94920B8093C5018091C501833634
:103D200011F1E091C501F0E0E95DFB4F8081C8171A
:103D300019F08C2F0E94BE0BE091C501F0E0E95D07
:103D4000FB4FC08310C08091C601882361F01092A0
:103D5000C601E091C501F0E0E95DFB4F10821092D1
:103D6000B0010E9448178091D0046BE90E94750B46
:103D7000C82F8C3921F18091B001811130C0809120
:103D8000C401811106C0C093C4010E94920B8093AC
:103D9000C3018091C301833611F1E091C301F0E0CA
:103DA000E95DFB4F8081C81719F08C2F0E94BE0B74
:103DB000E091C301F0E0E95DFB4FC08310C080914A
:103DC000C401882361F01092C401E091C301F0E0C6
:103DD000E95DFB4F10821092B0010E94481780915C
:103DE000D10460EA0E94750BC82F813A21F18091BD
:103DF000B001811130C08091C001811106C0C09313
:103E0000C0010E94920B8093BF018091C001833654
:103E100011F1E091BF01F0E0E95DFB4F8081C8172F
:103E200019F08C2F0E94BE0BE091BF01F0E0E95D1C
:103E3000FB4FC08310C08091C001882361F01092B5
:103E4000C001E091BF01F0E0E95DFB4F10821092EC
:103E5000B0010E9448178091D20468E90E94750B56
:103E6000C82F893921F18091B001811130C0809132
:103E7000C201811106C0C093C2010E94920B8093BF
:103E8000C1018091C201833611F1E091C101F0E0DE
:103E9000E95DFB4F8081C81719F08C2F0E94BE0B83
:103EA000E091C101F0E0E95DFB4FC08310C080915B
:103EB000C201882361F01092C201E091C101F0E0DB
:103EC000E95DFB4F10821092B0010E94481780916B
:103ED000D3046AEA0E94750BC82F8B3A21F18091B6
:103EE000B001811130C08091BE01811106C0C09324
:103EF000BE010E94920B8093BD018091BE0183366A
:103F000011F1E091BD01F0E0E95DFB4F8081C81740
:103F100019F08C2F0E94BE0BE091BD01F0E0E95D2D
:103F2000FB4FC08310C08091BE01882361F01092C6
:103F3000BE01E091BD01F0E0E95DFB4F10821092FF
:103F4000B0010E944817E5E6F3E080818B7F808313
:103F500080911B0482FF57C1EDE1F4E080E090E026
:103F60002191DC01AF58BC4F2C930196853091050F
:103F7000B9F78091710368EC0E94750BC82F893CDA
:103F800021F18091B001811130C08091BA0181117D
:103F900006C0C093BA010E94920B8093B901809130
:103FA000B901833611F1E091B901F0E0E95DFB4F11
:103FB0008081C81719F08C2F0E94BE0BE091B901C7
:103FC000F0E0E95DFB4FC08310C08091BA01882307
:103FD00061F01092BA01E091B901F0E0E95DFB4FA8
:103FE00010821092B0010E944817809172036BEC0E
:103FF0000E94750BC82F8C3C21F18091B00181117A
:1040000030C08091B801811106C0C093B8010E94F0
:10401000920B8093B7018091B701833611F1E09143
:10402000B701F0E0E95DFB4F8081C81719F08C2FD4
:104030000E94BE0BE091B701F0E0E95DFB4FC08349
:1040400010C08091B801882361F01092B801E0910E
:10405000B701F0E0E95DFB4F10821092B0010E94C1
:104060004817809173036EEC0E94750BC82F8F3C2C
:1040700021F18091B001811130C08091B601811190
:1040800006C0C093B6010E94920B8093B501809147
:10409000B501833611F1E091B501F0E0E95DFB4F28
:1040A0008081C81719F08C2F0E94BE0BE091B501DA
:1040B000F0E0E95DFB4FC08310C08091B60188231A
:1040C00061F01092B601E091B501F0E0E95DFB4FBF
:1040D00010821092B0010E9448178091740361ED24
:1040E0000E94750BC82F823D21F18091B001811192
:1040F00030C08091B401811106C0C093B4010E9408
:10410000920B8093B3018091B301833611F1E0915A
:10411000B301F0E0E95DFB4F8081C81719F08C2FE7
:104120000E94BE0BE091B301F0E0E95DFB4FC0835C
:1041300010C08091B401882361F01092B401E09125
:10414000B301F0E0E95DFB4F10821092B0010E94D4
:104150004817809175036CED0E94750BC82F8D3D3B
:1041600021F18091B001811130C08091B2018111A3
:1041700006C0C093B2010E94920B8093B10180915E
:10418000B101833611F1E091B101F0E0E95DFB4F3F
:104190008081C81719F08C2F0E94BE0BE091B101ED
:1041A000F0E0E95DFB4FC08310C08091B20188232D
:1041B00061F01092B201E091B101F0E0E95DFB4FD6
:1041C00010821092B0010E944817EBE1F4E0808168
:1041D0008B7F808318C08091BA0482FDB7CA6CCCF3
:1041E00080910B0482FD6CCCB0CC8091400482FDA8
:1041F000B0CCF4CC8091650382FDF4CCA9CE809143
:104200001B0482FDA9CECF910895CF93DF93109226
:10421000D403EDECF3E022ED33E0DF01C7ECD3E0B3
:104220008D919FEF980F9B3820F48D8582608D874C
:104230000EC094E7980F923320F48D8588608D87A7
:1042400006C0885C893118F48D8580628D87A2173D
:10425000B30731F744ED53E0ADECB3E060E020E0AC
:1042600071E08D91982F9F7D9330C1F1382F3F7B66
:104270003830A1F1382F3F7E3D3081F1823171F12C
:104280008B3261F1C82FCF77C53341F18A3331F1D9
:10429000853421F1CB3411F1C5E8C80FC330F0F0FB
:1042A0008F37E1F0CFE7C80FC330C0F03032B1F044
:1042B0009F38A1F0982F977F933981F0883971F05A
:1042C0009DE5980F923050F08E3941F08D3A31F0E3
:1042D0008E3C21F0813D11F08F3D11F42F5F672F4F
:1042E000A417B50709F0BDCF70E090E0A1E081917F
:1042F000823009F445C0382F377F343009F440C08C
:104300008730F1F18930E1F1382F3F773E30C1F14C
:104310003CEE380F3330A0F18F3191F1382F3F7ED2
:10432000313271F18A3261F13C3251F18F3241F117
:10433000382F3D7F343321F13FEA380F323000F11E
:104340008935F1F0382F3F7B3E33D1F03BE9380F10
:104350003230B0F08D36A1F037E8380F323080F0CF
:10436000803871F08A3961F08D3951F0823A41F02C
:104370008E3A31F08A3C21F08D3C11F0833D11F4EE
:104380009F5F7A2F4E175F0709F0B1CF662349F080
:1043900080919C0181110FC081E080939B0182E09C
:1043A0000BC0772321F010929B0181E005C0109291
:1043B0009B0180E001C082E03091AD01321710F422
:1043C0001092AF013091AC01391710F41092AE0188
:1043D0002093AD019093AC01DF91CF910895E1E975
:1043E000F0E080818C608083E1E7F0E08081826092
:1043F000808384E39CE090939900809398000895D3
:10440000E0E8F0E0808184608083E1E8F0E0808192
:10441000896180830895E1E8F0E0208121602083B4
:1044200090938700809386009695879590938D0052
:1044300080938C002FEF84E39CE0215080409040DB
:10444000E1F700C000000895E1E8F0E080818E7F90
:10445000808308950E941D030E94EF210E9477002F
:10446000C0E0D0E0CE0149960E944E2B8F3F29F04C
:10447000FE01E457FB4F808304C0FE01E457FB4F6D
:1044800010822196CA30D10569F78AEF90E00E9428
:10449000CC000E94D7090E946D0A8FED92E00E9425
:1044A0006C0186E993E00E946C0186E893E00E942B
:1044B0006C0189E193E00E946C0187EF93E00E9418
:1044C0006C0186E793E00E946C018CE494E00E940A
:1044D0006C0186E08093FF02EFE9F2E0178210861C
:1044E00069E0CF010E9448020E94002282E00E94FF
:1044F0003803811109C01092A50269E08FE992E0AA
:104500000E94480210929C0186E00E943803882392
:1045100019F081E08093010185E00E94380388232F
:1045200019F081E0809300010E943B0F0E94100669
:1045300088E190E00E944E2B9EEF980F923018F485
:1045400080938E0108C082E080938E0162E088E152
:1045500090E00E94562B63E087E00E949C00BC0123
:1045600080E090E00E94ED290E948F039093A001CB
:1045700080939F01009739F481E090E09093A0012F
:1045800080939F0108C0019631F48EEF9FEF9093C6
:10459000A00180939F0190919F018091A001909331
:1045A0009D0180939E01EAE4F2E0968387830E9456
:1045B000E80B80E797E10E940B2288E893E10E94D4
:1045C0000B2280EA9FE00E940B220E9424220E947C
:1045D00023030E94A815789409E013E00F2EF8EE4B
:1045E000CF2EF02D0F2EF3E0DF2EF02DC7EED3E00F
:1045F0000F2EFBEAEF2EF3E0FF2EF02D0E94430377
:104600000E945C030E9436040E9491046BE08AE4DD
:1046100092E00E94480280910B02882339F0809139
:104620000D02811103C00E94FC0F05C00E94FC0F07
:10463000F801C682D782F80196818781890F8F5F42
:10464000808766E0C8010E94480280910C0288239E
:1046500039F080910D02811103C00E944C1404C0F6
:104660000E944C14CE82DF829E818F81890F8E5FE3
:10467000888766E0CE010E9448020E9453096AE0E2
:104680008AE692E00E944802F701808182FF06C01C
:104690000E946006F70180818B7F80830E94401614
:1046A0008091A101811102C00E942B0C0E94380D43
:1046B0000E94E719A3CF81312EE0920790F09C0170
:1046C000A9E8B8E80E942B2B96958795929582953C
:1046D0008F7089279F7089276CE370E00E94112BEF
:1046E0000FC09C01A9E8B8E80E942B2B96958795EE
:1046F000929582958F7089279F70892760E070E07E
:104700009C01992314F42F5F3F4F35952795CB01DA
:10471000880F991F82959295907F9827807F982780
:10472000822B08951F920F920FB60F9211242F9390
:104730003F934F935F938F939F93AF93BF93EF9369
:10474000FF932091ED008091E0009091E10080FFC7
:10475000CDC01092ED008091F0009091F100A091F9
:10476000F200B091F300689412F8B695A79597956A
:1047700087951694D1F780934D0390934E03A093A1
:104780004F03B0935003893932E09307A105B10577
:10479000D9F068F489399105A105B10509F462C021
:1047A00089399140A105B10509F442C091C0893908
:1047B00033E09307A105B10509F189399042A105BC
:1047C000B10509F469C084C08091BB0382FD80C03B
:1047D0004091BC03442361F0EDEBF3E050E043541F
:1047E0005C4FAAEFB0E08C9181934E175F07D9F729
:1047F000EBEBF3E08081846080836AC08091600489
:1048000082FD66C040916104442361F0E2E6F4E079
:1048100050E04E595B4FAAEFB0E08C9181934E1758
:104820005F07D9F7E0E6F4E080818460808350C0C0
:1048300080917E0282FD4CC040917F02442361F052
:10484000E0E8F2E050E040585D4FAAEFB0E08C9114
:104850008193E417F507D9F7EEE7F2E080818460F1
:10486000808336C08091AA0482FD32C04091AB049F
:10487000442361F0ECEAF4E050E044555B4FAAEFCA
:10488000B0E08C918193E417F507D9F7EAEAF4E0F8
:104890008081846080831CC081E08093A40180912A
:1048A000DB0382FD15C04091DC03442361F0EDED94
:1048B000F3E050E043525C4FAAEFB0E08C9181935B
:1048C000E417F507D9F7EBEDF3E08081846080838E
:1048D0001092EE008091EF0084FF04C080E9809385
:1048E000EF0015C280E88093EF0011C28091E000D4
:1048F0009091E10081FF88C080E18093ED0080917C
:10490000F0009091F100A091F200B091F300689452
:1049100012F8B695A795979587951694D1F7809339
:104920004D0390934E03A0934F03B09350038131F6
:1049300033E09307A105B10531F1813137E09307E9
:10494000A105B105D1F181319240A105B10509F070
:104950004DC080915E0282FD49C040915F024423B8
:1049600061F0E0E6F2E050E0405A5D4FAAEFB0E0BF
:104970008C9181934E175F07D9F7EEE5F2E08081C5
:104980008460808333C08091BA0482FD2FC040913F
:10499000BB04442361F0ECEBF4E050E044545B4F83
:1049A000AAEFB0E08C9181934E175F07D9F7EAEB3D
:1049B000F4E080818460808319C080911B0482FDB3
:1049C00015C040911C04442361F0EDE1F4E050E097
:1049D000435E5B4FAAEFB0E08C918193E417F5073B
:1049E000D9F7EBE1F4E08081846080831092EE00DF
:1049F0008091EF0084FF04C080E98093EF0087C1BD
:104A000080E88093EF0083C18091E0009091E10005
:104A100082FF68C080E28093ED008091F000909169
:104A2000F100A091F200B091F300689412F8B695ED
:104A3000A795979587951694D1F780934D039093FA
:104A40004E03A0934F03B0935003813131E093079D
:104A5000A105B10531F082319140A105B105D9F030
:104A600033C080910B0482FD2FC040910C0444237D
:104A700061F0EDE0F4E050E0435F5B4FAAEFB0E09F
:104A80008C918193E417F507D9F7EBE0F4E080818E
:104A90008460808319C08091400482FD15C04091DC
:104AA0004104442361F0E2E4F4E050E04E5B5B4FEC
:104AB000AAEFB0E08C9181934E175F07D9F7E0E43D
:104AC000F4E08081846080831092EE008091EF009A
:104AD00084FF04C080E98093EF0019C180E88093CF
:104AE000EF0015C18091E0009091E10083FF61C06B
:104AF00080E38093ED008091F0009091F100A0910F
:104B0000F200B091F300689412F8B695A7959795C6
:104B100087951694D1F780934D0390934E03A093FD
:104B20004F03B09350033091EF003F7030939E02DB
:104B30008730910531E0A307B10549F128F40697C4
:104B4000A140B10561F027C08830910531E0A3078D
:104B5000B10599F00997A140B105A1F01CC0809161
:104B6000AB0382FD18C080919E02813009F4DCC045
:104B700095B184E0892785B90EC08091410382FFF9
:104B8000E7C009C08091C30282FFECC004C08091DD
:104B90009A0482FFD3C01092EE008091EF0084FF50
:104BA00004C080E98093EF00B2C080E88093EF00FA
:104BB000AEC08091E0009091E10095FF5CC080ED77
:104BC0008093ED008091F0009091F100A091F200AF
:104BD000B091F300689412F8B695A79597958795CC
:104BE0001694D1F780934D0390934E03A0934F03F7
:104BF000B09350033091EF003F7030939E028330AA
:104C00009340A105B10549F580919E02873029F5B1
:104C1000E2E7F4E049E754E0AAEFB0E08C91819339
:104C20004E175F07D9F7ECE6F4E0818590E0982F06
:104C300088273085832B90939601809395018091EE
:104C400095019091960188599A439093960180938B
:104C5000950110929401109293011092EE008091B0
:104C6000EF0084FF04C080E98093EF0050C080E82B
:104C70008093EF004CC08091E0009091E10084FFB0
:104C800046C080E48093ED008091F0009091F100A7
:104C9000A091F200B091F300689412F8B695A79530
:104CA000979587951694D1F780934D0390934E0373
:104CB000A0934F03B093500385309042A105B105F6
:104CC000C9F48091650382FD15C0409166034423B9
:104CD00061F0E7E6F3E050E049595C4FAAEFB0E03D
:104CE0008C9181934E175F07D9F7E5E6F3E0808159
:104CF000846080831092EE008091EF0084FF04C0F6
:104D000080E98093EF0003C080E88093EF00109269
:104D10004D0310924E0310924F03109250031092C5
:104D20009E022093ED0028C08091FA008093AD038D
:104D3000EBEAF3E08081846080832DCF8091FA00DC
:104D400080939C04EAE9F4E080818460808323CF2F
:104D50008091FA0080934303E1E4F3E08081846072
:104D6000808319CF8091FA008093C502E3ECF2E0D2
:104D70008081846080830FCFFF91EF91BF91AF91CD
:104D80009F918F915F914F913F912F910F900FBE07
:104D90000F901F9018951F920F920FB60F9211242B
:104DA0000F931F932F933F934F935F936F937F9333
:104DB0008F939F93AF93BF93CF93DF93EF93FF9323
:104DC0008091410382FF22C0E1E4F3E08B7F808386
:104DD00080E090E0FC01E457FB4F1082FC01EE0FF5
:104DE000FF1FE657FD4F1182108201968A30910510
:104DF00089F781E080930401C9E1D0E060E0CE0151
:104E00000E94562B2196C332D105C1F78091C3026F
:104E100082FF10C08091C502813021F482E080932E
:104E2000040103C081E080930401E3ECF2E080819F
:104E30008B7F80838091A5018F5F8093A5018091F6
:104E4000A5018A3081F48091AA018F5F8093AA0125
:104E50008091A9018F5F8093A9018091A6018F5F46
:104E60008093A60191C08091A501843129F08091A1
:104E7000A501883209F088C08091A8018F5F8093D6
:104E8000A8018091A7018F5F8093A70168E08CE75C
:104E900094E00E9448028091990190919A010196B4
:104EA00090939A0180939901C0E0D0E0FE01EE0F4B
:104EB000FF1FE657FD4F80819181892BF9F080918A
:104EC000990190919A018E01000F111FF801E65788
:104ED000FD4F20813181821B930B90939801809329
:104EE000970180919701909198010E945B2390E037
:104EF000F801E75DFC4F9183808307C0FE01EE0F50
:104F0000FF1FE75DFC4F118210822196CA30D10548
:104F100069F680910401823089F4A5EBB2E085E066
:104F200090E0FC01EE0FFF1FE75DFC4F2081318117
:104F30002D9301968A309105A1F710C0A5EBB2E040
:104F400080E090E0FC01EE0FFF1FE75DFC4F208149
:104F500031812D93019685309105A1F769E08FEAA3
:104F600092E00E9448028091A501883269F48FE99D
:104F70009FE00197F1F700C000001092A50169E0E1
:104F800089EF92E00E9448020E944817EDECF3E09E
:104F900080E090E0DC01A95DBB4F2C91219301964C
:104FA00085309105B9F70E9405218093D203909135
:104FB0009A0492FF0FC090919C049150923028F473
:104FC00091E09093AF019093AE01EAE9F4E0908113
:104FD0009B7F9083823059F48091AF01811104C08E
:104FE00082E08093D30316C01092D30313C08130A4
:104FF00059F48091AE01811104C081E08093D30304
:1050000009C01092D30306C0811104C01092D303CB
:105010001092AF016CE087EC93E00E94480280910F
:105020000401823089F4E7E5F3E085E090E0DC01FB
:10503000A457BB4F2C91219301968A309105B9F763
:1050400082E080935C032AC0E7E5F3E080E090E033
:10505000DC01A457BB4F2C9121930196853091051B
:10506000B9F780E090E0FC01E457FB4F2081222358
:1050700029F02091AB012F5F2093AB0101968A307C
:10508000910589F78091AB01863018F410925C038A
:1050900003C081E080935C031092AB0165E081E581
:1050A00093E00E94480280919001909191010196B5
:1050B000813F910528F4909391018093900112C053
:1050C0001092910110929001C0E0D0E0FE01E457EF
:1050D000FB4F6081CE0149960E94562B2196CA3023
:1050E000D105A1F780919C01813051F48093A502F4
:1050F00080919B01882331F081E08093AF0102C051
:105100001092A50269E08FE992E00E944802809126
:105110000D02882399F10E9443030E9436040E94E5
:1051200091046BE08AE492E00E9448020E942B0CFA
:105130008091A101811102C00E94380D0E94401689
:105140000E94E719E9E0F3E0D8EED683C3E0C78315
:105150008CEE808766E0CF010E9448028FE39FE1DA
:105160000197F1F700C00000E7EEF3E0D683C783B4
:105170008DEE808766E0CF010E944802FF91EF919B
:10518000DF91CF91BF91AF919F918F917F916F915F
:105190005F914F913F912F911F910F910F900FBEF3
:1051A0000F901F9018955058BB27AA270E94EB28F4
:1051B0000C94652A0E94572A38F00E945E2A20F03B
:1051C00039F49F3F19F426F40C94542A0EF4E09518
:1051D000E7FB0C944E2AE92F0E94762A58F3BA175F
:1051E000620773078407950720F079F4A6F50C94FD
:1051F000982A0EF4E0950B2EBA2FA02D0B01B901C1
:1052000090010C01CA01A0011124FF27591B99F03C
:10521000593F50F4503E68F11A16F040A22F232F48
:10522000342F4427585FF3CF469537952795A79598
:10523000F0405395C9F77EF41F16BA0B620B730B3F
:10524000840BBAF09150A1F0FF0FBB1F661F771FB0
:10525000881FC2F70EC0BA0F621F731F841F48F465
:10526000879577956795B795F7959E3F08F0B0CFEE
:105270009395880F08F09927EE0F979587950895D5
:105280000E942A2A08F481E008950E9459290C946A
:10529000652A0E945E2A58F00E94572A40F029F49D
:1052A0005F3F29F00C944E2A51110C94992A0C94CA
:1052B000542A0E94762A68F39923B1F3552391F377
:1052C000951B550BBB27AA2762177307840738F075
:1052D0009F5F5F4F220F331F441FAA1FA9F335D0D2
:1052E0000E2E3AF0E0E832D091505040E695001C86
:1052F000CAF72BD0FE2F29D0660F771F881FBB1F40
:10530000261737074807AB07B0E809F0BB0B802D1D
:10531000BF01FF2793585F4F3AF09E3F510578F049
:105320000C944E2A0C94992A5F3FE4F3983ED4F3F0
:10533000869577956795B795F7959F5FC9F7880F1D
:10534000911D9695879597F90895E1E0660F771F6F
:10535000881FBB1F621773078407BA0720F0621B00
:10536000730B840BBA0BEE1F88F7E09508950E942B
:10537000BE296894B1110C94992A08950E947E2A3E
:1053800088F09F5798F0B92F9927B751B0F0E1F006
:10539000660F771F881F991F1AF0BA95C9F714C0B6
:1053A000B13091F00E94982AB1E008950C94982AA7
:1053B000672F782F8827B85F39F0B93FCCF38695EF
:1053C00077956795B395D9F73EF49095809570954C
:1053D00061957F4F8F4F9F4F0895E89409C097FBC9
:1053E0003EF490958095709561957F4F8F4F9F4FBC
:1053F0009923A9F0F92F96E9BB279395F695879500
:1054000077956795B795F111F8CFFAF4BB0F11F4C2
:1054100060FF1BC06F5F7F4F8F4F9F4F16C0882369
:1054200011F096E911C0772321F09EE8872F762F9F
:1054300005C0662371F096E8862F70E060E02AF0E0
:105440009A95660F771F881FDAF7880F96958795CC
:1054500097F90895990F0008550FAA0BE0E8FEEFA1
:1054600016161706E807F907C0F012161306E40728
:10547000F50798F0621B730B840B950B39F40A2621
:1054800061F0232B242B252B21F408950A2609F4FF
:10549000A140A6958FEF811D811D089597F99F6703
:1054A00080E870E060E008959FEF80EC08950024AC
:1054B0000A941616170618060906089500240A9479
:1054C00012161306140605060895092E0394000CFF
:1054D00011F4882352F0BB0F40F4BF2B11F460FF8E
:1054E00004C06F5F7F4F8F4F9F4F089557FD9058B7
:1054F000440F551F59F05F3F71F04795880F97FB98
:10550000991F61F09F3F79F0879508951216130651
:105510001406551FF2CF4695F1DF08C01616170680
:105520001806991FF1CF86957105610508940895B5
:10553000E894BB2766277727CB0197F908950E9447
:105540002A2A08F48FEF08950E94B72A0C94652A3E
:105550000E94572A38F00E945E2A20F0952311F00D
:105560000C944E2A0C94542A11240C94992A0E94CB
:10557000762A70F3959FC1F3950F50E0551F629FF7
:10558000F001729FBB27F00DB11D639FAA27F00D9C
:10559000B11DAA1F649F6627B00DA11D661F829FC3
:1055A0002227B00DA11D621F739FB00DA11D621FA8
:1055B000839FA00D611D221F749F3327A00D611DC5
:1055C000231F849F600D211D822F762F6A2F1124A7
:1055D0009F5750409AF0F1F088234AF0EE0FFF1FDA
:1055E000BB1F661F771F881F91505040A9F79E3F31
:1055F000510580F00C944E2A0C94992A5F3FE4F3F5
:10560000983ED4F3869577956795B795F795E79586
:105610009F5FC1F7FE2B880F911D9695879597F98F
:10562000089597FB072E16F4009407D077FD09D054
:105630000E943A2B07FC05D03EF4909581959F4F30
:105640000895709561957F4F0895EE0FFF1F0590A7
:10565000F491E02D0994A29FB001B39FC001A39FD4
:10566000700D811D1124911DB29F700D811D11249B
:10567000911D0895AA1BBB1B51E107C0AA1FBB1FA8
:10568000A617B70710F0A61BB70B881F991F5A95CE
:10569000A9F780959095BC01CD010895F999FECFA9
:1056A00092BD81BDF89A992780B50895262FF99962
:1056B000FECF92BD81BD20BD0FB6F894FA9AF99A3B
:0A56C0000FBE01960895F894FFCF85
:1056CA00FFFF8B060101013A02C2013A02C2010F31
:1056DA009600FE0199036500FE0199036500010128
:1056EA0048E17A3F3333B33ECDCC4C3E9A99193ECA
:1056FA00CDCCCC3DCDCC4C3D0AD7233D8FC2F53C19
:10570A008FC2753C0AD7233C0AD7A33B5A00230011
:10571A001F001B00170013000F000B0008000600F3
:10572A000500000000001B2FDD3DAAF1523EE3A553
:10573A009B3EF2D2CD3E0000003F8716193F0E2D48
:10574A00323F96434B3F1D5A643FA4707D3F02008F
:00000001FF
