:100000000C9456000C9473000C9473000C947300C1
:100010000C9473000C9473000C9473000C94730094
:100020000C9473000C9473000C9473000C94730084
:100030000C9473000C9473000C9473000C94730074
:100040000C9473000C9473000C944D1B0C9473006F
:100050000C9473000C9473000C9473000C94730054
:100060000C9473000C9473000C9473000C94730044
:100070000C94841D0C9473000C9473000C94730006
:100080000C9473000C9473000C9473000C94730024
:100090000C94730070068306A106BF06D206F00614
:1000A0000E077A07E607F1079708350911241FBEE6
:1000B000CFEFD8E0DEBFCDBF11E0A0E0B1E0E2EBD2
:1000C000F3E402C005900D92A032B107D9F723E006
:1000D000A0E2B1E001C01D92A63BB207E1F70E9489
:1000E000231A0C94D7210C940000ECE7F0E08081F7
:1000F00080648083EAE7F0E08081876880830895E8
:10010000ECE7F0E09081987F8770892B8083EAE7A5
:10011000F0E0808180648083808184FFFDCF209126
:1001200078008091790090E0982F882788279F7227
:10013000822B0895DF92EF92FF920F931F93CF933C
:10014000DF93E62EF12C1E141F04ACF4D82EC0E071
:10015000D0E000E010E08D2D0E948000080F191FF4
:100160008FE99FE00197F1F700C000002196CE15BE
:10017000DF0589F702C000E010E0C801B7010E9466
:100180008521CB01DF91CF911F910F91FF90EF90CF
:10019000DF900895EF92FF920F931F93CF93DF9319
:1001A0008C0181E08093D8001092DB0090E06DEE2E
:1001B00070E04FEE50E0CEEED0E0A4EFB0E00F2EB6
:1001C000F0EFEF2EF12CF02D292F2295207FFB014F
:1001D0002083FA01108218821D921D921D921C929A
:1001E0001397F70110821182128213829F5F9F3052
:1001F00059F70A3F110511F13CF40436110591F14C
:100200000D37110529F138C0043FF1E01F0761F0F7
:10021000083E134089F51092E2008CE08093E300E1
:1002200086E38093E40031C082E08093E2008CE0BA
:100230008093E30087E38093E40027C086E0809307
:10024000E2008CE08093E30087E38093E4001DC02C
:100250008EE08093E2008CE08093E30087E380935C
:10026000E40013C082E18093E2008CE08093E3001D
:1002700087E38093E40009C08EE08093E2008CE085
:100280008093E30087E38093E40080EB8093DB00BE
:10029000E8EDF0E08081826080838091D90082FD6A
:1002A0000DC080E197E2E9EDF0E025E32A95F1F752
:1002B0000000208122FD02C00197B9F78091D9008A
:1002C00082FB882780F9DF91CF911F910F91FF90DA
:1002D000EF900895CF93FC01C091ED002091DC00D8
:1002E0003091DD004081642F70E081E090E002C039
:1002F000880F991F4A95E2F782239323892B09F0EF
:10030000C7C062957295707F7627607F762760936D
:10031000ED008185882309F451C081819281A381F8
:10032000B481880F991FAA1FBB1F880F991FAA1F8E
:10033000BB1F880F991FAA1FBB1F2685822B4385D1
:1003400050E0440F551F440F551F052E000C660B3F
:10035000770B842B952BA62BB72B8093F0009093D3
:10036000F100A093F200B093F30085819681A781FC
:10037000B085880F991FAA1FBB1F880F991FAA1F3E
:10038000BB1F880F991FAA1FBB1F2285822B448584
:1003900050E0440F551F440F551F052E000C660BEF
:1003A000770B842B952BA62BB72B8093F40090937F
:1003B000F500A093F600B093F7004AC081819281C6
:1003C000A381B481072E75E1880F991FAA1FBB1F57
:1003D0007A95D1F7702D2685822B438550E0440F06
:1003E000551F440F551F052E000C660B770B842BF1
:1003F000952BA62BB72B8093F0009093F100A09340
:10040000F200B093F30085819681A781B085072E15
:1004100075E1880F991FAA1FBB1F7A95D1F7702D20
:100420002285822B448550E0440F551F440F551FF1
:10043000052E000C660B770B842B952BA62BB72B68
:100440008093F4009093F500A093F600B093F7002A
:10045000AEEDB0E02D913C91119781E090E00080ED
:1004600002C0880F991F0A94E2F7822B932B1196F2
:100470009C938E93818520E1829FC00111249585F4
:100480009068892B8093EF00C093ED0081E001C05C
:1004900080E0CF9108951F93CF93DF93DC011091FB
:1004A000ED002091DC003091DD0081E090E0062E2F
:1004B00002C0880F991F0A94E2F782239323892BA5
:1004C00009F065C06295607F6093ED0014968C9191
:1004D000149781FF1AC04D915D916D917C91139796
:1004E000440F551F661F771F440F551F661F771F48
:1004F000440F551F661F771F4093F0005093F10083
:100500006093F2007093F30016C04D915D916D9170
:100510007C911397032E35E1440F551F661F771FFB
:100520003A95D1F7302D4093F0005093F10060934D
:10053000F2007093F30015968C911597882389F03B
:10054000FD01369640E050E0CAEFD0E091919883EB
:100550004F5F5F4F15962C91159730E04217530768
:10056000ACF31092EE0014968C91149781FF06C0A4
:1005700015968C9180658093EF0005C015968C913F
:1005800080648093EF001093ED0081E001C080E073
:10059000DF91CF911F9108958F92AF92CF92EF92FA
:1005A000FF920F931F93CF93DF93CDB7DEB7FC017C
:1005B00060832183328343835483E582F6820783F9
:1005C0001087C186A28687868C8585878D858387DF
:1005D0008E8584878F858687DF91CF911F910F91BC
:1005E000FF90EF90CF90AF908F900895EF920F9380
:1005F000DC014D935D936D937C93139714968C91CE
:10060000149720FB81F9E0FA80F914968C931497E3
:1006100015960C931597002371F0FD013696015045
:10062000202F30E0295F3F4FCD01820F931F1192A1
:10063000E817F907E1F70F91EF900895229A239AAE
:100640006A987298279A0895229A29E030E094E0F7
:1006500085B1892785B94FEF51EE84E04150504074
:100660008040E1F700C000002150310989F72A9845
:1006700008952CB130E0A90102C0559547958A959F
:10068000E2F7CA018170089582E00E94390388234D
:1006900041F080912501811104C081E08093250102
:1006A000089582E00E943903811106C080912501DE
:1006B000813011F410922501089586E00E943903DB
:1006C000882341F0809101018F3F21F481E08093E4
:1006D00001010CC086E00E943903811107C080919E
:1006E0000101813019F48FEF8093010185E00E94B0
:1006F0003903882341F0809100018F3F21F481E08C
:1007000080930001089585E00E943903811107C09C
:1007100080910001813019F48FEF809300010895DA
:10072000CF92DF92EF92FF9220E030E040EA50E477
:100730000E94182120E030E040E85AE30E9418218E
:100740002DEC3CEC44E951E40E94182120E030E01B
:1007500042E852E40E94B91F20E03AEF4FE757E425
:100760000E9418216B017C0120E03AEF4FE757E42B
:100770000E94132118164CF40F2EC12CFAEFDF2E15
:10078000FFE7EF2EF7E4FF2EF02DC701B6010E9420
:100790003220CB01FF90EF90DF90CF900895CF9261
:1007A000DF92EF92FF9220E030E040EA50E40E94B6
:1007B000182120E030E040E85AE30E94182120E0B0
:1007C00030E04AE754E40E9418216B017C016091FB
:1007D00002017091030180E090E00E9461209B0182
:1007E000AC01C701B6010E94471F23E333E343E98D
:1007F00051E40E94B91F20E030E044E352E40E943B
:10080000B91F20E03AEF4FE757E40E9418216B012F
:100810007C0120E03EEF4FE757E40E9413211816B9
:100820009CF020E030E040E85FE3C701B6010E94A1
:10083000B41F882394F40F2EC12CD12CF0E8EF2E96
:10084000FFE3FF2EF02D09C00F2EC12CFEEFDF2E8F
:10085000FFE7EF2EF7E4FF2EF02DC701B6010E944F
:100860003220CB01FF90EF90DF90CF900895CF9290
:10087000DF92EF92FF9263E087E00E949A00BC0152
:1008800080E090E00E9461200E94900390932901F3
:1008900080932801009739F481E090E0909329013A
:1008A0008093280108C0019631F48EEF9FEF90935A
:1008B000290180932801609128017091290180E02D
:1008C00090E00E9461202AE037ED43E25CE30E9461
:1008D00018216B017C01609126017091270180E055
:1008E00090E00E94612024EA30E74DE75FE30E9438
:1008F00018219B01AC01C701B6010E94481F0E944C
:10090000322060932801709329016093260170932F
:100910002701E9EAF1E066837783FF90EF90DF90AB
:10092000CF90089563E083E00E949A0090932C0199
:1009300080932B01BC0180E090E00E9461200E9426
:10094000CF0380932B0190932C01E9EAF1E080879B
:10095000918708958F929F92AF92BF92CF92DF922C
:10096000EF92FF92CF93DF936B017C01413009F04E
:100970008BC0C0910B01D0910C01BE010D2E000C5B
:10098000880B990B0E9463204B015C01A701960123
:100990000E94132188239CF060910D0170910E013B
:1009A000072E000C880B990B0E9463209B01AC0161
:1009B000C701B6010E94132188230CF011C1A701C1
:1009C0009601C501B4010E94B41F88231CF5A5013E
:1009D0009401C701B6010E94471F6B017C01609121
:1009E0001A0170911B016C1B7D0B072E000C880BEC
:1009F000990B0E9463209B01AC01C701B6010E94C4
:100A0000B91F20E030E04AE754E40E9418216B014E
:100A10007C01C8C0C0910D01D0910E01BE010D2E08
:100A2000000C880B990B0E9463204B015C019B0119
:100A3000AC01C701B6010E94B41F88230CF0B2C0FC
:100A4000A5019401C701B6010E94471F6B017C01FB
:100A500080911C0190911D01BE01681B790B072E2E
:100A6000000C880B990B0E9463209B01AC01C7010D
:100A7000B6010E94B91F20E030E04AE754E40E942A
:100A800018216B017C018EC0423009F08BC0C091EF
:100A90000701D0910801BE010D2E000C880B990BA7
:100AA0000E9463204B015C019B01AC01C701B601B0
:100AB0000E94B41F18169CF06091090170910A0100
:100AC000072E000C880B990B0E9463209B01AC0140
:100AD000C701B6010E94132188230CF085C0A5012F
:100AE0009401C701B6010E94132118161CF5A50137
:100AF0009401C701B6010E94471F6B017C01609100
:100B00001401709115016C1B7D0B072E000C880BD6
:100B1000990B0E9463209B01AC01C701B6010E94A2
:100B2000B91F20E030E04AE754E40E9418216B012D
:100B30007C0138C0C0910901D0910A01BE010D2E7F
:100B4000000C880B990B0E9463204B015C019B01F8
:100B5000AC01C701B6010E94B41F88231CF5A50192
:100B60009401C701B6010E94471F6B017C0180916F
:100B7000160190911701BE01681B790B072E000C1E
:100B8000880B990B0E9463209B01AC01C701B60141
:100B90000E94B91F20E030E04AE754E40E94182187
:100BA0006B017C0120E030EC49E754E4C701B60159
:100BB0000E9413211816E4F020E030EC49E754ECD1
:100BC000C701B6010E94B41F8823DCF40F2EC12C8C
:100BD000F0ECDF2EF9E7EF2EF4ECFF2EF02D11C034
:100BE000C12CD12C76010DC0C12CD12C760109C0AD
:100BF0000F2EC12CF0ECDF2EF9E7EF2EF4E4FF2EE0
:100C0000F02DC701B6010E942B20CB01DF91CF91BF
:100C1000FF90EF90DF90CF90BF90AF909F908F901C
:100C20000895CF9386E190E00E94C221813009F0BF
:100C300046C088E090E00E94C221C82F89E090E081
:100C40000E94C2212C2F30E0382B30930E012093CC
:100C50000D018AE090E00E94C221C82F8BE090E055
:100C60000E94C2212C2F30E0382B30930C012093AE
:100C70000B0182E190E00E94C221C82F83E190E045
:100C80000E94C2212C2F30E0382B30930A01209390
:100C9000090184E190E00E94C221C82F85E190E023
:100CA0000E94C2212C2F30E0382B30930801209372
:100CB000070187E190E00E94C22180930F01CF914C
:100CC0000895CF93E091D6028E2F90E0FC013197EA
:100CD000EC30F10508F0D4C2E65BFF4F0C9499218B
:100CE000C1E0C0933B0367E085E393E00E944B02C1
:100CF000C093780165E080E00E949A0090937A01A9
:100D000080937901BDC281E080933B0367E085E376
:100D100093E00E944B0265E080E00E949A0090936D
:100D2000860180938501843F21E092072CF4909303
:100D30007E0180937D01A4C290937C0180937B010E
:100D40009FC281E080933B0367E085E393E00E94CC
:100D50004B0265E080E00E949A00909386018093A8
:100D60008501853F41E094072CF090937C018093AE
:100D70007B0186C290937E0180937D0181C2C1E098
:100D8000C0933B0367E085E393E00E944B02C0936E
:100D9000780165E084E00E949A009093800180933E
:100DA0007F016EC281E080933B0367E085E393E0BF
:100DB0000E944B0265E084E00E949A0090938601B5
:100DC00080938501843F21E092072CF49093840165
:100DD0008093830155C2909382018093810150C218
:100DE00081E080933B0367E085E393E00E944B0240
:100DF00065E084E00E949A009093860180938501CB
:100E0000853F41E094072CF090938201809381010B
:100E100037C2909384018093830132C2809179011B
:100E200090917A019C012F5531402B32314008F0CE
:100E30004CC020917B0130917C012F3E42E0340771
:100E40000CF443C040917D0150917E014A3F510511
:100E5000E4F541155105C9F150931701409316016E
:100E60009093130180931201309315012093140184
:100E700061E081E090E00E94CA21609116018CE05F
:100E800090E00E94CA21609117018DE090E00E94DD
:100E9000CA216091120180E190E00E94CA21609114
:100EA000130181E190E00E94CA21609114018EE05B
:100EB00090E00E94CA21609115018FE090E00E94AD
:100EC000CA2182E080933B0303C083E080933B030D
:100ED00067E085E393E00E944B0210927E0110923E
:100EE0007D0110927A011092790110927C0110928A
:100EF0007B01C6C180917F01909180019C012F559B
:100F000031402B32314008F04CC0209181013091AA
:100F100082012F3E42E034070CF443C0409183012C
:100F2000509184014A3F5105E4F541155105C9F13D
:100F300050931D0140931C01909319018093180157
:100F400030931B0120931A0161E080E090E00E9441
:100F5000CA2160911C0182E090E00E94CA21609148
:100F60001D0183E090E00E94CA216091180186E093
:100F700090E00E94CA216091190187E090E00E94F0
:100F8000CA2160911A0184E090E00E94CA21609118
:100F90001B0185E090E00E94CA2182E080933B0320
:100FA00003C083E080933B0367E085E393E00E9406
:100FB0004B021092840110928301109280011092D2
:100FC0007F0110928201109281015AC181E08093C9
:100FD0003B0367E085E393E00E944B0210927801A7
:100FE0004FC180911001909111010A9690931101C7
:100FF0008093100180910F018F5F80930F018333E5
:1010000048F084EF91E0909311018093100182E306
:1010100080930F01E5E3F3E081E0868380910F0187
:10102000878367E0CF010E944B0260910F0187E147
:1010300090E00E94CA2180911001909111019923A2
:101040000CF40196959587956091120170911301AA
:10105000681B790B70930A016093090182E190E0AB
:101060000E94CA2160910A0183E190E00E94CA2196
:101070006091100170911101772314F46F5F7F4F1D
:10108000759567958091120190911301680F791FF2
:10109000709308016093070184E190E00E94CA21E7
:1010A0006091080185E190E00E94CA2180911001C1
:1010B0009091110199230CF4019695958795609173
:1010C000180170911901681B790B70930E016093E0
:1010D0000D0188E090E00E94CA2160910E0189E034
:1010E00090E00E94CA216091100170911101772354
:1010F00014F46F5F7F4F75956795809118019091FB
:101100001901680F791F70930C0160930B018AE03D
:1011100090E00E94CA2160910C018BE090E00E9457
:10112000CA2161E086E190E00E94CA21A9C08091B5
:101130000F01803168F020911001309111012A5087
:1011400031093093110120931001815080930F01D8
:10115000E5E3F3E081E0868380910F01878367E018
:10116000CF010E944B0260910F0187E190E00E9445
:10117000CA21809110019091110199230CF40196DC
:10118000959587956091120170911301681B790BF9
:1011900070930A016093090182E190E00E94CA21E4
:1011A00060910A0183E190E00E94CA2160911001E0
:1011B00070911101772314F46F5F7F4F75956795D8
:1011C0008091120190911301680F791F70930801AB
:1011D0006093070184E190E00E94CA2160910801B8
:1011E00085E190E00E94CA21809110019091110147
:1011F00099230CF40196959587956091180170914B
:101200001901681B790B70930E0160930D0188E042
:1012100090E00E94CA2160910E0189E090E00E9456
:10122000CA216091100170911101772314F46F5F4E
:101230007F4F759567958091180190911901680FFE
:10124000791F70930C0160930B018AE090E00E947B
:10125000CA2160910C018BE090E00E94CA2161E0FC
:1012600086E190E00E94CA210BC0E5E3F3E081E053
:10127000868380910F01878367E0CF010E944B0234
:10128000CF9108951F93CF93DF932DEC3CEC4CE46A
:101290005FE3609193017091940180919501909129
:1012A00096010E94471F20E030E04AEF53E40E947D
:1012B00018210E943220D62F60938E0120E030E06A
:1012C00048EC52E460918F017091900180919101FE
:1012D000909192010E9418210E943220C62F6093A3
:1012E0008D0120E030E048EC52E460919D01709166
:1012F0009E0180919F019091A0010E9418210E945F
:101300003220162F6093980120E030E048EC52E440
:101310006091990170919A0180919B0190919C013B
:101320000E9418210E94322060939701E9ECF1E0BD
:101330001683D7836087C187DF91CF911F9108956E
:1013400063E00E949A00BC01990F880B990B0E94E0
:10135000632020E030E040E85AE30E94182108951D
:1013600063E00E949A00BC01990F880B990B0E94C0
:10137000632020E030E040EA55E40E94B91F2DECE4
:101380003CEC4CE45FE30E94481F08958F92AF92BB
:10139000CF92EF92FF920F931F93CF931F921F92C2
:1013A0001F92C1E0CF936894882482F8AA24A39462
:1013B000CC24C394EE24EA941CEFF12E0FEF1FE12E
:1013C00029E932E040E050E060E08DE392E00E94E5
:1013D000CC021F921F921F9287E08F9368948824FB
:1013E00081F8EE24EA941EEFF12E0FEF1FE121E1C8
:1013F00032E040E050E061E08FEB92E00E94CC02EE
:101400001F921F921F92CF931CEFE12EFF24FA949C
:101410000FEF1FE121E131E040E050E062E08FEAB0
:1014200092E00E94CC021F921F921F92CF93689469
:10143000882482F810EFE12EFF24FA940FEF1FE1C9
:1014400026E030E041E050E063E080E193E00E947C
:10145000CC028DB79EB740960FB6F8949EBF0FBED4
:101460008DBFCF911F910F91FF90EF90CF90AF90D4
:101470008F900895EF920F93E12C01E021E049E96C
:1014800052E060E070E080EE92E00E94F60221E01F
:1014900049E953E060E070E085E593E00E94F602E0
:1014A00021E049E951E060E070E089ED91E00E94BF
:1014B000F60221E049E950E060E070E08FE893E057
:1014C0000E94F60207E021E041E152E060E070E0B6
:1014D00089EB91E00E94F60221E041E153E060E0F7
:1014E00070E08FE993E00E94F60201E021E041E123
:1014F00051E060E070E080E293E00E94F60221E0BB
:1015000042E151E060E070E085E493E00E94F60281
:1015100021E046E050E061E070E080ED92E00E9462
:10152000F60221E047E050E061E070E08FE793E0F1
:101530000E94F60221E048E050E061E070E08BE8B4
:1015400092E00E94F60221E049E050E061E070E0A4
:101550008DE192E00E94F60202E021E041E050E1DC
:1015600060E070E087E592E00E94F60221E042E050
:1015700050E160E070E080E093E00E94F60201E05C
:1015800021E049E950E160E070E085E693E00E94E7
:10159000F60203E021E045E050E160E070E08DEF0D
:1015A00091E00E94F60204E021E043E050E160E0B7
:1015B00070E089EA91E00E94F60221E044E050E107
:1015C00060E070E089EC91E00E94F60221E047E0E3
:1015D00058E064E070E08DE292E00E94F60202E0E2
:1015E00021E049E150E160E070E085E393E00E9492
:1015F000F60207E021E041E250E160E070E080EFB8
:1016000092E00E94F60206E021E043E250E160E051
:1016100070E08FE992E00E94F60205E021E044E2EA
:1016200050E160E070E08DE092E00E94F6020F91E0
:10163000EF900895823069F028F4882391F081308A
:1016400031F00DC0833039F0853039F008C082E0C8
:1016500009C083E007C084E005C086E003C080E0E5
:1016600001C081E0860F089580913003811103C08D
:1016700010923701089580913103811104C01092B6
:10168000370181E0089580913203811104C01092E6
:10169000370182E0089580913303811104C01092D4
:1016A000370183E0089580913403811104C01092C2
:1016B000370184E0089581E08093370183E608953F
:1016C00029E030E0A90141505109FA01EB58FC4FE3
:1016D0009081F901EB58FC4F9083FA01EE0FFF1F48
:1016E000E751FE4F60817181220F331FF901E751ED
:1016F000FE4F718360839A014F3F5F4F19F78093CC
:10170000750380912201909123019093EA018093C7
:10171000E9010895CF9363E083E00E949A00BC0141
:10172000990F880B990B0E94632020E030E040EA7B
:1017300050E40E94182120E030E040E85AE30E9483
:10174000182120E030E04AE754E40E9418210E946A
:10175000322070930301609302016C5D7540693C17
:101760007105C8F081E080932A018BE896E09093A0
:10177000030180930201C0E8C0934D010E94340B25
:1017800080934B01E0914B01F0E0E05DFC4FC083A2
:1017900080E80E94600BCF91089580912B01909179
:1017A0002C0180342FE9920758F0809146019091E6
:1017B00047010196893522E0920708F05AC04BC0D4
:1017C00080339E4878F180914601909147010097BF
:1017D00069F00197909347018093460180914401FD
:1017E000909145018935924070F439C0809144014F
:1017F000909145010196909345018093440189356C
:10180000924008F4CBC088E592E090934501809324
:10181000440180914601909147018F36910508F46B
:1018200064C024C08091460190914701009731F037
:101830000197909347018093460111C08091440124
:1018400090914501009709F4A9C001979093450133
:1018500080934401A3C090934701809346018091F7
:101860004601909147018F369105C0F18739910566
:1018700030F086E990E09093470180934601809193
:101880004D01811117C081E080934C010E94340BFF
:1018900080934B018091370181118BC0E0914B0106
:1018A000F0E0E05DFC4F8FE7808380934D010E9464
:1018B000600B089580914C01811108C08FE70E9450
:1018C000600B81E080934C0110920601E0914B0186
:1018D000F0E0E05DFC4F8FE78083089520914401A4
:1018E000309145012F36310598F18739910530F057
:1018F00086E990E0909347018093460180914D01E5
:10190000811114C00E94340B80934B0180913701E8
:1019100081114FC0E0914B01F0E0E05DFC4F8EE79C
:10192000808380934D010E94600B08958091060191
:10193000811106C08EE70E94600B81E08093060152
:10194000E0914B01F0E0E05DFC4F8EE7808308956D
:1019500040914D01442369F1892B41F0E0914B0105
:10196000F0E0E05DFC4F8FE780830895232B41F08A
:10197000E0914B01F0E0E05DFC4F8EE7808308953D
:1019800010924D0110924C0181E080930601E0918C
:101990004B01F0E0E05DFC4F10820895209144017E
:1019A000309145012F36310508F0A8CF80E090E056
:1019B000CFCF0895809128019091290180342CEE99
:1019C0009207A0F08091420190914301019690937B
:1019D0004301809342018739910508F4E8C186E903
:1019E00090E09093430180934201B9C0803528EE86
:1019F000920780F18091420190914301009769F034
:101A0000019790934301809342018091400190910E
:101A100041018739910578F492C0209140013091BD
:101A200041012F5F3F4F30934101209340012739FF
:101A3000310508F4B3C186E990E0909341018093A9
:101A4000400180914201909143018C34910508F44A
:101A5000C5C07CC0813321EB9207A0F480913E0188
:101A600090913F0101968739910528F490933F01A9
:101A700080933E0164C086E990E090933F0180939B
:101A80003E015DC08132954B18F580913E019091E9
:101A90003F01009731F0019790933F0180933E0101
:101AA00009C080913C0190913D01019690933D01C8
:101AB00080933C0180913C0190913D0187399105D3
:101AC000F0F186E990E090933D0180933C0137C0AE
:101AD0008091420190914301009731F001979093DA
:101AE0004301809342012BC020914001309141017C
:101AF0002115310539F021503109309341012093EE
:101B000040015CC020913E0130913F01211531051B
:101B100039F02150310930933F0120933E014EC0EE
:101B200020913C0130913D012115310509F446C059
:101B30002150310930933D0120933C013FC08091F9
:101B40004201909143018C349105C0F18739910590
:101B500030F086E990E090934301809342018091B8
:101B60004A01811117C081E0809349010E94340B22
:101B7000809348018091370181111EC1E091480195
:101B8000F0E0E05DFC4F8BE7808380934A010E9488
:101B9000600B089580914901811108C08BE70E9474
:101BA000600B81E08093490110920501E0914801AA
:101BB000F0E0E05DFC4F8BE78083089520914001C9
:101BC000309141012C343105A0F12739310530F035
:101BD00086E990E0909341018093400180914A0111
:101BE000811115C00E94340B809348018091370108
:101BF000811107C0E0914801F0E0E05DFC4F89E70A
:101C0000808389E780934A010E94600B0895809148
:101C10000501811106C089E70E94600B81E0809375
:101C20000501E0914801F0E0E05DFC4F89E7808329
:101C3000089540913E0150913F014C345105C0F14F
:101C40004739510530F086E990E090933F01809349
:101C50003E0180914A01811117C081E080934901C2
:101C60000E94340B80934801809137018111A4C0F8
:101C7000E0914801F0E0E05DFC4F8CE780838093C9
:101C80004A010E94600B089580914901811108C0AA
:101C90008CE70E94600B81E080934901109205015E
:101CA000E0914801F0E0E05DFC4F8CE7808308950F
:101CB00060913C0170913D016C347105A0F1673970
:101CC000710530F086E990E090933D0180933C01EE
:101CD00080914A01811115C00E94340B8093480104
:101CE00080913701811107C0E0914801F0E0E05D8B
:101CF000FC4F8AE780838AE780934A010E94600B49
:101D0000089580910501811106C08AE70E94600B49
:101D100081E080930501E0914801F0E0E05DFC4F37
:101D20008AE780830895E0914A01EE2309F444C0D4
:101D3000892B41F0E0914801F0E0E05DFC4F8BE73A
:101D400080830895232B41F0E0914801F0E0E05DAD
:101D5000FC4F89E780830895452B81F4672BB1F40C
:101D600010924A011092490181E080930501E091AF
:101D70004801F0E0E05DFC4F10820895E0914801D9
:101D8000F0E0E05DFC4F8CE780830895E09148012E
:101D9000F0E0E05DFC4F8AE78083089520914001E8
:101DA000309141012C34310508F443CF17CF8C34E6
:101DB000910508F403CFD3CE0895CF9380E090E04F
:101DC0000E94C221813081F582E090E00E94C22110
:101DD000C82F83E090E00E94C2212C2F30E0382BE6
:101DE00030931D0120931C0184E090E00E94C221E9
:101DF000C82F85E090E00E94C2212C2F30E0382BC4
:101E000030931B0120931A0186E090E00E94C221CA
:101E1000C82F87E090E00E94C2212C2F30E0382BA1
:101E2000309319012093180181E090E00E94C221B3
:101E3000813081F58CE090E00E94C221C82F8DE0B6
:101E400090E00E94C2212C2F30E0382B30931701F4
:101E5000209316018EE090E00E94C221C82F8FE0EF
:101E600090E00E94C2212C2F30E0382B30931501D6
:101E70002093140180E190E00E94C221C82F81E1EB
:101E800090E00E94C2212C2F30E0382B30931301B8
:101E90002093120180911801909119018F55914062
:101EA0008B32914070F480911A0190911B018F3E0A
:101EB00092403CF080911C0190911D018A3F910558
:101EC00094F00E94340B8093380180913701811186
:101ED00007C0E0913801F0E0E05DFC4F82E88083CC
:101EE00082E80E94600B80911201909113018F553E
:101EF00091408B32914070F48091140190911501C2
:101F00008F3E92403CF080911601909117018A3FDC
:101F1000910594F00E94340B809339018091370130
:101F2000811107C0E0913901F0E0E05DFC4F81E8EC
:101F3000808381E80E94600BCF9108958F929F92D9
:101F4000AF92BF92CF92DF92EF92FF92CF93DF9347
:101F500063E084E00E949A009093A8018093A70117
:101F60008E54910981369340C8F080913B018111D4
:101F700021C00E94340B80933A0180913701811176
:101F800007C0E0913A01F0E0E05DFC4F8DE780830F
:101F90008DE780933B010E94600B0CC080913B0158
:101FA000882341F010923B01E0913A01F0E0E05DBE
:101FB000FC4F10826091A7017091A801072E000CC0
:101FC000880B990B0E94632041E00E94AA04909321
:101FD000A8018093A70185E00E94A0096B017C0104
:101FE0006093990170939A0180939B0190939C0157
:101FF0006091A7017091A801072E000C880B990B26
:102000000E946320A70196010E9418210E942B20A4
:102010007093A8016093A70186E00E94A0096093D5
:102020008F01709390018093910190939201409160
:1020300001012091A7013091A8014203E001439FD3
:10204000D00D112424EA30E74DE75FE30E9413210D
:10205000181664F484EA90E7ADE7BFE380938F013C
:1020600090939001A0939101B0939201C0908F0141
:10207000D0909001E0909101F0909201BE01DD0FAF
:10208000880B990B0E9463204B015C01A70196010C
:1020900060E070E080E89FE30E94471F9B01AC0175
:1020A000C501B4010E9418214B015C016091A3019C
:1020B0007091A401072E000C880B990B0E946320DD
:1020C000A70196010E9418219B01AC01C501B40132
:1020D0000E94481F0E942B207093A4016093A301CB
:1020E00068517C4F7093A8016093A70116161706DC
:1020F00074F081E090E09093A8018093A701209173
:102100008B0130918C018217930751F523C0603DFC
:1021100077408CF08FEC97E09093A8018093A70113
:1021200080918B0190918C018F3C27E0920791F078
:102130008FEC97E015C08091A7019091A8012091A4
:102140008B0130918C018217930751F4883E23E074
:10215000920731F0209188012F5F2093880102C0FF
:102160001092880190938C0180938B0120918801BB
:10217000253078F01092880120911F01219520933D
:102180001F01820F911D27FD9A959093A8018093BE
:10219000A7019091A7018091A801E7E5F2E096835D
:1021A0008783DF91CF91FF90EF90DF90CF90BF902A
:1021B000AF909F908F9008958F929F92AF92BF9211
:1021C000CF92DF92EF92FF920F931F93CF93DF9303
:1021D00063E080E00E949A009093A6018093A5019D
:1021E0008E54910981369340C8F080913B01811152
:1021F00021C00E94340B80933A01809137018111F4
:1022000007C0E0913A01F0E0E05DFC4F8DE780838C
:102210008DE780933B010E94600B0CC080913B01D5
:10222000882341F010923B01E0913A01F0E0E05D3B
:10223000FC4F10826091A5017091A601072E000C41
:10224000880B990B0E94632042E00E94AA0490939D
:10225000A6018093A50181E00E94A0096B017C0189
:1022600060939D0170939E0180939F019093A001C4
:102270006091A5017091A601072E000C880B990BA7
:102280000E946320A70196010E9418210E942B2022
:102290007093A6016093A50182E00E94B00960934B
:1022A00093017093940180939501909396014091CE
:1022B00000012091A5013091A60142038001439FB6
:1022C000100D112424EA30E74DE75FE30E9413214B
:1022D000181664F484EA90E7ADE7BFE380939301B6
:1022E00090939401A0939501B0939601C0909301AF
:1022F000D0909401E0909501F0909601C091A101D9
:10230000D091A201B801110F880B990B0E94632094
:102310004B015C01A701960160E070E080E89FE35B
:102320000E94471F9B01AC01C501B4010E94182106
:102330004B015C01BE010D2E000C880B990B0E9415
:102340006320A70196010E9418219B01AC01C501E1
:10235000B4010E94481F0E942B20FB01AB014C1BC3
:102360005D0B9A0122F422273327241B350B2C34D2
:1023700031052CF47093A6016093A50110C0CE170F
:10238000DF073CF4C55BDF4FD093A601C093A501E6
:1023900006C0CB54D109D093A601C093A50180916A
:1023A000A5019091A6019093A2018093A10188516B
:1023B0009C4F9093A6018093A5011816190674F0FE
:1023C00081E090E09093A6018093A501209189017E
:1023D00030918A018217930751F523C0803D9740C1
:1023E0008CF08FEC97E09093A6018093A5018091EB
:1023F000890190918A018F3C27E0920791F08FEC40
:1024000097E015C08091A5019091A60120918901C6
:1024100030918A018217930751F4883E23E0920796
:1024200031F0209187012F5F2093870102C0109225
:10243000870190938A01809389012091870125303B
:1024400078F01092870120911E01219520931E01A2
:10245000820F911D27FD9A959093A6018093A50167
:102460009091A5018091A601E0E0F3E09683878337
:10247000DF91CF911F910F91FF90EF90DF90CF9060
:10248000BF90AF909F908F9008951F93CF93DF934D
:10249000CAE0D0E010E065E080E00E949A00835C32
:1024A00091408737910510F41F5F01C010E08FE164
:1024B0009EE40197F1F700C00000219761F71A3000
:1024C00039F483E08093040281E0809377014DC06A
:1024D00081E080930402109277010E94340B809374
:1024E000390180913701811107C0E0913901F0E095
:1024F000E05DFC4F81E8808381E80E94600B35C07D
:1025000065E084E00E949A00835C914087379105E2
:1025100010F41F5F01C010E08FE19EE40197F1F716
:1025200000C00000219761F71A3039F481E08093F0
:10253000760183E0809305021CC01092760181E051
:10254000809305020E94340B8093380180913701FB
:10255000811107C0E0913801F0E0E05DFC4F82E8B6
:10256000808382E80E94600B04C0CAE0D0E010E0E3
:10257000C7CFDF91CF911F9108958091E40282FF30
:1025800013C01092310180916701882341F01092AD
:102590006701E0916601F0E0E05DFC4F1082E4EE3F
:1025A000F2E080818B7F80838091590382FF13C08A
:1025B0001092300180915701882341F01092570109
:1025C000E0915601F0E0E05DFC4F1082E9E5F3E0B8
:1025D00080818B7F80838091DD0182FF13C0109208
:1025E0002F0180915301882341F010925301E09113
:1025F0005201F0E0E05DFC4F1082EDEDF1E08081F2
:102600008B7F80838091930382FF13C010922E01F1
:1026100080914F01882341F010924F01E0914E01CB
:10262000F0E0E05DFC4F1082E3E9F3E080818B7F16
:102630008083809131018430C0F0809167018111E5
:1026400014C00E94340B8093660180913701811180
:1026500007C0E0916601F0E0E05DFC4F83E280831B
:1026600083E2809367010E94600B80913001843087
:10267000C0F080915701811114C00E94340B8093E7
:10268000560180913701811107C0E0915601F0E0B9
:10269000E05DFC4F8BE480838BE4809357010E94C4
:1026A000600B80912F018330C0F080915301811124
:1026B00014C00E94340B8093520180913701811124
:1026C00007C0E0915201F0E0E05DFC4F89E58083B6
:1026D00089E5809353010E94600B80912E01833025
:1026E000C0F080914F01811114C00E94340B80937F
:1026F0004E0180913701811107C0E0914E01F0E059
:10270000E05DFC4F8DE680838DE680934F010E9453
:10271000600B089580E090E072E861E8FC01E05D04
:10272000FC4F20812111A1C19C012F5F3F4FF90176
:10273000E05DFC4F4081442309F497C1409174014E
:1027400050E04217530759F480937401E0917401EB
:10275000F0E040917501E05DFC4F408382C1409103
:10276000720150E04217530759F480937201E091CF
:102770007201F0E040917301E05DFC4F408371C154
:102780004091700150E04217530759F48093700153
:10279000E0917001F0E040917101E05DFC4F4083F9
:1027A00060C140916E0150E04217530759F4809385
:1027B0006E01E0916E01F0E040916F01E05DFC4F31
:1027C00040834FC140916C0150E04217530759F4C8
:1027D00080936C01E0916C01F0E040916D01E05D4F
:1027E000FC4F40833EC140916A0150E042175307BD
:1027F00059F480936A01E0916A01F0E040916B0125
:10280000E05DFC4F40832DC14091680150E04217CC
:10281000530759F480936801E0916801F0E040911A
:102820006801E05DFC4F40831CC14091660150E0AF
:102830004217530759F480936601E0916601F0E076
:1028400040916701E05DFC4F40830BC14091640102
:1028500050E04217530759F480936401E0916401FA
:10286000F0E040916501E05DFC4F4083FAC040918B
:10287000620150E04217530759F480936201E091DE
:102880006201F0E040916301E05DFC4F4083E9C0EC
:102890004091600150E04217530759F48093600162
:1028A000E0916001F0E040916101E05DFC4F408308
:1028B000D8C040915E0150E04217530759F480930D
:1028C0005E01E0915E01F0E040915F01E05DFC4F50
:1028D0004083C7C040915C0150E04217530759F450
:1028E00080935C01E0915C01F0E040915D01E05D6E
:1028F000FC4F4083B6C040915A0150E04217530745
:1029000059F480935A01E0915A01F0E040915B0143
:10291000E05DFC4F4083A5C04091580150E0421754
:10292000530759F480935801E0915801F0E0409129
:102930005801E05DFC4F408394C04091560150E047
:102940004217530759F480935601E0915601F0E085
:1029500040915701E05DFC4F408383C0409154019A
:1029600050E04217530759F480935401E091540109
:10297000F0E040915501E05DFC4F408372C0409112
:10298000520150E04217530759F480935201E091ED
:102990005201F0E040915301E05DFC4F408361C083
:1029A0004091500150E04217530759F48093500171
:1029B000E0915001F0E040915101E05DFC4F408317
:1029C00050C040914E0150E04217530759F4809394
:1029D0004E01E0914E01F0E040914F01E05DFC4F6F
:1029E00040833FC04091390150E04217530749F4FA
:1029F00080933901E0913901F0E0E05DFC4F6083A4
:102A000030C04091380150E04217530749F4809399
:102A10003801E0913801F0E0E05DFC4F708321C0A7
:102A20004091480150E04217530759F48093480100
:102A3000E0914801F0E040914A01E05DFC4F4083A5
:102A400010C040914B0150E04217530751F480935E
:102A50004B01E0914B01F0E040914D01E05DFC4FF6
:102A60004083F901E05DFC4F1082019684309105AE
:102A700009F054CE0895CF938091BD0182FF03C425
:102A8000EFEBF1E080E090E02191DC01A155BC4F3B
:102A90002C93019687309105B9F78091AF0360E0E0
:102AA0000E941A0BC82F813021F1809137018111CA
:102AB00030C080917501811106C0C09375010E94DC
:102AC000340B8093740180917401833611F1E0918D
:102AD0007401F0E0E05DFC4F8081C81719F08C2F85
:102AE0000E94600BE0917401F0E0E05DFC4FC08358
:102AF00010C080917501882361F010927501E091FA
:102B00007401F0E0E05DFC4F1082109237010E94EA
:102B10008A138091B00365E00E941A0BC82F86309B
:102B200021F180913701811130C0809173018111B1
:102B300006C0C09373010E94340B80937201809190
:102B40007201833611F1E0917201F0E0E05DFC4F1B
:102B50008081C81719F08C2F0E94600BE0917201E0
:102B6000F0E0E05DFC4FC08310C0809173018823CA
:102B700061F010927301E0917201F0E0E05DFC4FB2
:102B80001082109237010E948A138091B1036AE08B
:102B90000E941A0BC82F8B3021F1809137018111CF
:102BA00030C080917101811106C0C09371010E94F3
:102BB000340B8093700180917001833611F1E091A4
:102BC0007001F0E0E05DFC4F8081C81719F08C2F98
:102BD0000E94600BE0917001F0E0E05DFC4FC0836B
:102BE00010C080917101882361F010927101E09111
:102BF0007001F0E0E05DFC4F1082109237010E94FE
:102C00008A138091B20362E10E941A0BC82F8331AC
:102C100021F180913701811130C080916F018111C4
:102C200006C0C0936F010E94340B80936E018091A7
:102C30006E01833611F1E0916E01F0E0E05DFC4F32
:102C40008081C81719F08C2F0E94600BE0916E01F3
:102C5000F0E0E05DFC4FC08310C080916F018823DD
:102C600061F010926F01E0916E01F0E0E05DFC4FC9
:102C70001082109237010E948A138091B30367E19A
:102C80000E941A0BC82F883121F1809137018111E0
:102C900030C080916D01811106C0C0936D010E940A
:102CA000340B80936C0180916C01833611F1E091BB
:102CB0006C01F0E0E05DFC4F8081C81719F08C2FAB
:102CC0000E94600BE0916C01F0E0E05DFC4FC0837E
:102CD00010C080916D01882361F010926D01E09128
:102CE0006C01F0E0E05DFC4F1082109237010E9411
:102CF0008A138091B4036FE00E941A0BC82F8031B1
:102D000021F180913701811130C080916B018111D7
:102D100006C0C0936B010E94340B80936A018091BE
:102D20006A01833611F1E0916A01F0E0E05DFC4F49
:102D30008081C81719F08C2F0E94600BE0916A0106
:102D4000F0E0E05DFC4FC08310C080916B018823F0
:102D500061F010926B01E0916A01F0E0E05DFC4FE0
:102D60001082109237010E948A138091B5036DE1A1
:102D70000E941A0BC82F8E3121F1809137018111E9
:102D800030C080916901811106C0C09369010E9421
:102D9000340B8093680180916801833611F1E091D2
:102DA0006801F0E0E05DFC4F8081C81719F08C2FBE
:102DB0000E94600BE0916801F0E0E05DFC4FC08391
:102DC00010C080916901882361F010926901E0913F
:102DD0006801F0E0E05DFC4F1082109237010E9424
:102DE0008A13EDEBF1E080818B7F80838091A303D8
:102DF00082FF4EC2E5EAF3E080E090E02191DC0141
:102E0000A155BC4F2C93019687309105B9F780915D
:102E1000AF0368E20E941A0BC82F893221F180911A
:102E20003701811130C080916501811106C0C093C6
:102E300065010E94340B80936401809164018336A4
:102E400011F1E0916401F0E0E05DFC4F8081C81772
:102E500019F08C2F0E94600BE0916401F0E0E05DBE
:102E6000FC4FC08310C080916501882361F01092EF
:102E70006501E0916401F0E0E05DFC4F108210928A
:102E800037010E948A138091B0036DE20E941A0BF1
:102E9000C82F8E3221F180913701811130C080918D
:102EA0006301811106C0C09363010E94340B8093BB
:102EB000620180916201833611F1E0916201F0E0DC
:102EC000E05DFC4F8081C81719F08C2F0E94600BC9
:102ED000E0916201F0E0E05DFC4FC08310C08091A2
:102EE0006301882361F010926301E0916201F0E0D8
:102EF000E05DFC4F1082109237010E948A1380918E
:102F0000B10362E30E941A0BC82F833321F1809131
:102F10003701811130C080916101811106C0C093D9
:102F200061010E94340B80936001809160018336BF
:102F300011F1E0916001F0E0E05DFC4F8081C81785
:102F400019F08C2F0E94600BE0916001F0E0E05DD1
:102F5000FC4FC08310C080916101882361F0109202
:102F60006101E0916001F0E0E05DFC4F10821092A1
:102F700037010E948A138091B2036AE30E941A0B00
:102F8000C82F8B3321F180913701811130C080919E
:102F90005F01811106C0C0935F010E94340B8093D2
:102FA0005E0180915E01833611F1E0915E01F0E0F7
:102FB000E05DFC4F8081C81719F08C2F0E94600BD8
:102FC000E0915E01F0E0E05DFC4FC08310C08091B5
:102FD0005F01882361F010925F01E0915E01F0E0F3
:102FE000E05DFC4F1082109237010E948A1380919D
:102FF000B3036FE30E941A0BC82F803421F1809134
:103000003701811130C080915D01811106C0C093EC
:103010005D010E94340B80935C0180915C018336DA
:1030200011F1E0915C01F0E0E05DFC4F8081C81798
:1030300019F08C2F0E94600BE0915C01F0E0E05DE4
:10304000FC4FC08310C080915D01882361F0109215
:103050005D01E0915C01F0E0E05DFC4F10821092B8
:1030600037010E948A138091B40367E30E941A0B10
:10307000C82F883321F180913701811130C08091B0
:103080005B01811106C0C0935B010E94340B8093E9
:103090005A0180915A01833611F1E0915A01F0E012
:1030A000E05DFC4F8081C81719F08C2F0E94600BE7
:1030B000E0915A01F0E0E05DFC4FC08310C08091C8
:1030C0005B01882361F010925B01E0915A01F0E00E
:1030D000E05DFC4F1082109237010E948A138091AC
:1030E000B50365E40E941A0BC82F863421F1809144
:1030F0003701811130C080915901811106C0C09300
:1031000059010E94340B80935801809158018336F5
:1031100011F1E0915801F0E0E05DFC4F8081C817AB
:1031200019F08C2F0E94600BE0915801F0E0E05DF7
:10313000FC4FC08310C080915901882361F0109228
:103140005901E0915801F0E0E05DFC4F10821092CF
:1031500037010E948A13E3EAF3E080818B7F80834A
:103160008091240382FF99C0809126038093CF022F
:103170008091CF026FE40E941A0BC82F803521F195
:1031800080913701811130C080915501811106C0B5
:10319000C09355010E94340B8093540180915401D7
:1031A000833611F1E0915401F0E0E05DFC4F808145
:1031B000C81719F08C2F0E94600BE0915401F0E0C9
:1031C000E05DFC4FC08310C080915501882361F001
:1031D00010925501E0915401F0E0E05DFC4F108247
:1031E000109237010E948A13E4E2F3E080818B7F22
:1031F00080838091490382FF54C080914B03809368
:10320000CF028091CF0263E60E941A0BC82F84364A
:1032100021F180913701811130C0809151018111DC
:1032200006C0C09351010E94340B809350018091DD
:103230005001833611F1E0915001F0E0E05DFC4F68
:103240008081C81719F08C2F0E94600BE09150010B
:10325000F0E0E05DFC4FC08310C0809151018823F5
:1032600061F010925101E0915001F0E0E05DFC4FFF
:103270001082109237010E948A13E9E4F3E0808102
:103280008B7F80830EC08091A30382FDB3CD68CF76
:103290008091240382FD68CFACCF8091490382FDE9
:1032A000ACCFCF910895E6EFF2E04CEF52E0DF01B2
:1032B00060E090E031E08D91282F2F7D2330F9F0F0
:1032C000282F2F7B2830D9F0282F2F7E2D30B9F0D2
:1032D0008231A9F08B3299F0853389F08A3379F005
:1032E000853469F08B3459F075E8780F733038F015
:1032F0008F3729F08158833010F0203211F49F5F0E
:10330000632FA417B507B9F670E020E0A1E0819122
:10331000823091F1382F377F343071F1873061F18D
:10332000893051F18E3041F13CEE380F333020F1CD
:103330008A3211F1382F3F7E3C32F1F08F32E1F0CA
:103340008133D1F0382F3D7F3433B1F03FEA380F6D
:10335000323090F0893581F0382F3F7B3E3361F079
:103360003BE9380F323040F08D3631F037E8380F16
:10337000323010F0803811F42F5F7A2FE417F50700
:1033800031F6662349F08091250181110FC081E05B
:103390008093240182E00BC0772321F01092240156
:1033A00081E005C01092240180E001C082E03091EC
:1033B0003401391710F4109236013091330132176D
:1033C00010F4109235019093340120933301089545
:1033D000E1E9F0E080818C608083E1E7F0E08081CA
:1033E0008260808384E39CE09093990080939800AE
:1033F0000895E0E8F0E0808184608083E1E8F0E017
:103400008081896180830895E1E8F0E02081216076
:10341000208390938700809386009695879590935C
:103420008D0080938C002FEF84E39CE0215080403E
:103430009040E1F700C000000895E1E8F0E08081ED
:103440008E7F808308950E941E030E94E8190E94C7
:1034500075008AEF90E00E94CA000E94C6090E948F
:103460003A0A8DE392E00E946A018FEB92E00E949B
:103470006A018FEA92E00E946A0187E692E00E9468
:103480006A0180E193E00E946A01EDEFF1E01782AA
:10349000108669E0CF010E944B020E94F91982E078
:1034A0000E943903811109C01092030269E08DEF77
:1034B00091E00E944B021092250186E00E943903A0
:1034C000882319F081E08093010185E00E9439038F
:1034D000882319F081E0809300010E94DD0E0E9494
:1034E000110663E087E00E949A00BC0180E090E052
:1034F0000E9461200E9490039093290180932801EB
:10350000009739F481E090E090932901809328019D
:1035100008C0019631F48EEF9FEF909329018093BC
:103520002801909128018091290190932601809390
:103530002701E9EAF1E0968387830E948A0B80E7FE
:1035400097E10E94041A88E893E10E94041A80EA35
:103550009FE00E94041A0E941D1A0E9424030E94E8
:103560004512789407E512E00F2EF8EECF2EF02DDD
:103570000F2EF3E0DF2EF02DC0E0D3E00F2EF4EDA0
:10358000EF2EF2E0FF2EF02D0E9444030E945D0317
:103590000E9437040E9492046BE089EA91E00E9445
:1035A0004B0280917601882339F080917801811156
:1035B00003C00E949E0F05C00E949E0FF801C682A4
:1035C000D78266E0C8010E944B0280917701882370
:1035D00039F080917801811103C00E94DC1004C091
:1035E0000E94DC10CE82DF8266E0CE010E944B0298
:1035F0000E9442096AE089EC91E00E944B02F701C7
:10360000808182FF06C00E946106F70180818B7F66
:1036100080830E94BD1280912A01811102C00E9404
:10362000CD0B0E94DA0C0E943B15AECF81312EE00B
:10363000920790F09C01A9E8B8E80E949F21969516
:103640008795929582958F7089279F7089276CE363
:1036500070E00E9485210FC09C01A9E8B8E80E9493
:103660009F2196958795929582958F7089279F7057
:10367000892760E070E09C01992314F42F5F3F4F8D
:1036800035952795CB01880F991F82959295907F4C
:103690009827807F9827822B08951F920F920FB64C
:1036A0000F9211242F933F934F935F938F939F9388
:1036B000AF93BF93EF93FF932091ED008091E000D3
:1036C0009091E10080FFAAC01092ED008091F0007F
:1036D0009091F100A091F200B091F300689412F87B
:1036E000B695A795979587951694D1F780939B02E9
:1036F00090939C02A0939D02B0939E02893931E081
:103700009307A105B10509F448C038F4893991053A
:10371000A105B10509F45BC073C0893932E0930794
:10372000A105B10531F089399340A105B105D9F062
:1037300067C08091E40282FD63C04091E5024423AA
:1037400061F0E6EEF2E050E04A515D4FAAEFB0E0E2
:103750008C9181934E175F07D9F7E4EEF2E08081F8
:10376000846080834DC08091590382FD49C040919F
:103770005A03442361F0EBE5F3E050E0455A5C4F17
:10378000AAEFB0E08C9181934E175F07D9F7E9E576
:10379000F3E080818460808333C08091DD0182FD0D
:1037A0002FC04091DE01442361F0EFEDF1E050E0E5
:1037B00041525E4FAAEFB0E08C918193E417F50778
:1037C000D9F7EDEDF1E080818460808319C08091AC
:1037D000930382FD15C040919403442361F0E5E911
:1037E000F3E050E04B565C4FAAEFB0E08C91819330
:1037F000E417F507D9F7E3E9F3E08081846080837B
:103800001092EE008091EF0084FF04C080E9809365
:10381000EF0038C180E88093EF0034C18091E00070
:103820009091E10081FF68C080E18093ED0080917C
:10383000F0009091F100A091F200B091F300689433
:1038400012F8B695A795979587951694D1F780931A
:103850009B0290939C02A0939D02B0939E028131A3
:1038600032E09307A105B10531F081319340A10504
:10387000B105D9F033C08091BD0182FD2FC04091C8
:10388000BE01442361F0EFEBF1E050E041545E4FA4
:10389000AAEFB0E08C918193E417F507D9F7EDEB2F
:1038A000F1E080818460808319C08091A30382FD50
:1038B00015C04091A403442361F0E5EAF3E050E031
:1038C0004B555C4FAAEFB0E08C9181934E175F0788
:1038D000D9F7E3EAF3E08081846080831092EE0000
:1038E0008091EF0084FF04C080E98093EF00CAC09C
:1038F00080E88093EF00C6C08091E0009091E100E5
:1039000082FF68C080E28093ED008091F00090918A
:10391000F100A091F200B091F300689412F8B6950E
:10392000A795979587951694D1F780939B029093CE
:103930009C02A0939D02B0939E02813131E09307D7
:10394000A105B10531F082319140A105B105D9F051
:1039500033C08091240382FD2FC04091250344236E
:1039600061F0E6E2F3E050E04A5D5C4FAAEFB0E0C0
:103970008C9181934E175F07D9F7E4E2F3E08081E1
:103980008460808319C08091490382FD15C04091F5
:103990004A03442361F0EBE4F3E050E0455B5C4F05
:1039A000AAEFB0E08C9181934E175F07D9F7E9E455
:1039B000F3E08081846080831092EE008091EF00BC
:1039C00084FF04C080E98093EF005CC080E88093AE
:1039D000EF0058C08091E0009091E10083FF52C059
:1039E00080E38093ED008091F0009091F100A09130
:1039F000F200B091F300689412F8B695A7959795E8
:103A000087951694D1F780939B0290939C02A09384
:103A10009D02B0939E028730910531E0A307B10566
:103A200001F128F40697A140B10561F01EC088306D
:103A3000910531E0A307B10551F00997A140B10507
:103A400059F013C08091D40282FF27C00EC080912C
:103A50008F0282FF36C009C08091210282FF3BC0E5
:103A600004C08091830382FF22C01092EE008091F7
:103A7000EF0084FF04C080E98093EF0003C080E87A
:103A80008093EF0010929B0210929C0210929D0274
:103A900010929E022093ED0028C08091FA0080933E
:103AA000D602E4EDF2E0808184608083DECF8091F5
:103AB000FA0080938503E3E8F3E0808184608083EB
:103AC000D4CF8091FA0080939102EFE8F2E08081F8
:103AD00084608083CACF8091FA0080932302E1E260
:103AE000F2E0808184608083C0CFFF91EF91BF912D
:103AF000AF919F918F915F914F913F912F910F9037
:103B00000FBE0F901F9018951F920F920FB60F9235
:103B100011240F931F932F933F934F935F936F93B2
:103B20007F938F939F93AF93BF93CF93DF93EF9345
:103B3000FF9380918F0282FF18C0EFE8F2E08B7F45
:103B4000808380E090E0FC01EB58FC4F1082FC0188
:103B5000EE0FFF1FE751FE4F1182108201968A304F
:103B6000910589F781E0809304018091210282FF11
:103B700010C080912302813021F482E080930401FF
:103B800003C081E080930401E1E2F2E080818B7F59
:103B9000808380912D018F5F80932D0180912D0175
:103BA0008A3059F4809131018F5F80933101809187
:103BB00030018F5F809330017EC080912D01843170
:103BC00009F079C010922D0180912F018F5F8093B1
:103BD0002F0180912E018F5F80932E0168E085E692
:103BE00093E00E944B028091220190912301019663
:103BF0009093230180932201C0E0D0E0FE01EE0FFC
:103C0000FF1FE751FE4F80819181892BF9F0809150
:103C10002201909123018E01000F111FF801E7513D
:103C2000FE4F20813181821B930B90932101809361
:103C3000200180912001909121010E94161B90E0AB
:103C4000F801E958FD4F9183808307C0FE01EE0F14
:103C5000FF1FE958FD4F118210822196CA30D1050D
:103C600069F680910401823089F4A3E1B2E085E035
:103C700090E0FC01EE0FFF1FE958FD4F20813181DC
:103C80002D9301968A309105A1F710C0A3E1B2E00F
:103C900080E090E0FC01EE0FFF1FE958FD4F20810E
:103CA00031812D93019685309105A1F769E08DE072
:103CB00092E00E944B020E948A13E6EFF2E080E05D
:103CC00090E0DC01A05DBC4F2C91219301968530E2
:103CD0009105B9F70E9453198093FB0290918303D9
:103CE00092FF0FC0909185039150923028F491E09B
:103CF0009093360190933501E3E8F3E090819B7F48
:103D00009083823059F480913601811104C082E0A1
:103D10008093FC0216C01092FC0213C0813059F44B
:103D200080913501811104C081E08093FC0209C0BB
:103D30001092FC0206C0811104C01092FC02109285
:103D400036016CE080EF92E00E944B02809104010A
:103D5000823089F4E5EAF2E085E090E0DC01AB58DE
:103D6000BC4F2C91219301968A309105B9F782E0DE
:103D70008093AA022AC0E5EAF2E080E090E0DC014C
:103D8000AB58BC4F2C912193019685309105B9F722
:103D900080E090E0FC01EB58FC4F2081222329F0C9
:103DA000209132012F5F2093320101968A309105D4
:103DB00089F780913201863018F41092AA0203C06C
:103DC00081E08093AA021092320165E08FE992E0CF
:103DD0000E944B0280912501813051F480930302AF
:103DE00080912401882331F081E08093360102C064
:103DF0001092030269E08DEF91E00E944B028091E6
:103E00007801882379F10E9444030E9437040E94BC
:103E100092046BE089EA91E00E944B020E94CD0B74
:103E200080912A01811102C00E94DA0C0E94BD1209
:103E30000E943B15E7E5F2E0D8EED683C3E0C783E6
:103E400066E0CF010E944B028FE39FE10197F1F7FB
:103E500000C00000E0E0F3E0D683C78366E0CF0156
:103E60000E944B02FF91EF91DF91CF91BF91AF91F3
:103E70009F918F917F916F915F914F913F912F9182
:103E80001F910F910F900FBE0F901F9018955058D3
:103E9000BB27AA270E945F1F0C94D9200E94CB2029
:103EA00038F00E94D22020F039F49F3F19F426F414
:103EB0000C94C8200EF4E095E7FB0C94C220E92F87
:103EC0000E94EA2058F3BA17620773078407950720
:103ED00020F079F4A6F50C940C210EF4E0950B2E4D
:103EE000BA2FA02D0B01B90190010C01CA01A0014C
:103EF0001124FF27591B99F0593F50F4503E68F1A7
:103F00001A16F040A22F232F342F4427585FF3CFE7
:103F1000469537952795A795F0405395C9F77EF4B8
:103F20001F16BA0B620B730B840BBAF09150A1F001
:103F3000FF0FBB1F661F771F881FC2F70EC0BA0F87
:103F4000621F731F841F48F4879577956795B7950F
:103F5000F7959E3F08F0B0CF9395880F08F099270A
:103F6000EE0F9795879508950E949E2008F481E0B2
:103F700008950E94CD1F0C94D9200E94D22058F0A1
:103F80000E94CB2040F029F45F3F29F00C94C2201E
:103F900051110C940D210C94C8200E94EA2068F362
:103FA0009923B1F3552391F3951B550BBB27AA27F2
:103FB00062177307840738F09F5F5F4F220F331F2C
:103FC000441FAA1FA9F335D00E2E3AF0E0E832D0F4
:103FD00091505040E695001CCAF72BD0FE2F29D0F7
:103FE000660F771F881FBB1F261737074807AB07C9
:103FF000B0E809F0BB0B802DBF01FF2793585F4F3E
:104000003AF09E3F510578F00C94C2200C940D219B
:104010005F3FE4F3983ED4F3869577956795B7951F
:10402000F7959F5FC9F7880F911D9695879597F92A
:104030000895E1E0660F771F881FBB1F62177307A3
:104040008407BA0720F0621B730B840BBA0BEE1FB8
:1040500088F7E09508950E9432206894B1110C947D
:104060000D2108950E94F22088F09F5798F0B92FF3
:104070009927B751B0F0E1F0660F771F881F991F9D
:104080001AF0BA95C9F714C0B13091F00E940C2112
:10409000B1E008950C940C21672F782F8827B85F22
:1040A00039F0B93FCCF3869577956795B395D9F7F5
:1040B0003EF490958095709561957F4F8F4F9F4FFF
:1040C0000895E89409C097FB3EF49095809570950B
:1040D00061957F4F8F4F9F4F9923A9F0F92F96E954
:1040E000BB279395F695879577956795B795F111C9
:1040F000F8CFFAF4BB0F11F460FF1BC06F5F7F4F66
:104100008F4F9F4F16C0882311F096E911C0772377
:1041100021F09EE8872F762F05C0662371F096E880
:10412000862F70E060E02AF09A95660F771F881F4F
:10413000DAF7880F9695879597F90895990F0008F3
:10414000550FAA0BE0E8FEEF16161706E807F90769
:10415000C0F012161306E407F50798F0621B730B04
:10416000840B950B39F40A2661F0232B242B252B85
:1041700021F408950A2609F4A140A6958FEF811D28
:10418000811D089597F99F6780E870E060E00895C9
:104190009FEF80EC089500240A941616170618065F
:1041A0000906089500240A9412161306140605063B
:1041B0000895092E0394000C11F4882352F0BB0FCC
:1041C00040F4BF2B11F460FF04C06F5F7F4F8F4F2F
:1041D0009F4F089557FD9058440F551F59F05F3F6A
:1041E00071F04795880F97FB991F61F09F3F79F019
:1041F00087950895121613061406551FF2CF46959B
:10420000F1DF08C0161617061806991FF1CF86951C
:104210007105610508940895E894BB276627772700
:10422000CB0197F908950E949E2008F48FEF08951E
:104230000E942B210C94D9200E94CB2038F00E94A0
:10424000D22020F0952311F00C94C2200C94C820A9
:1042500011240C940D210E94EA2070F3959FC1F364
:10426000950F50E0551F629FF001729FBB27F00D24
:10427000B11D639FAA27F00DB11DAA1F649F662779
:10428000B00DA11D661F829F2227B00DA11D621FC8
:10429000739FB00DA11D621F839FA00D611D221F82
:1042A000749F3327A00D611D231F849F600D211D66
:1042B000822F762F6A2F11249F5750409AF0F1F0E9
:1042C00088234AF0EE0FFF1FBB1F661F771F881F52
:1042D00091505040A9F79E3F510580F00C94C220A8
:1042E0000C940D215F3FE4F3983ED4F386957795C7
:1042F0006795B795F795E7959F5FC1F7FE2B880FF8
:10430000911D9695879597F9089597FB072E16F4BA
:10431000009407D077FD09D00E94AE2107FC05D09C
:104320003EF4909581959F4F0895709561957F4FCC
:104330000895EE0FFF1F0590F491E02D0994A29FC0
:10434000B001B39FC001A39F700D811D1124911D69
:10435000B29F700D811D1124911D0895AA1BBB1BD6
:1043600051E107C0AA1FBB1FA617B70710F0A61B75
:10437000B70B881F991F5A95A9F780959095BC0196
:10438000CD010895F999FECF92BD81BDF89A992784
:1043900080B50895262FF999FECF92BD81BD20BD2D
:1043A0000FB6F894FA9AF99A0FBE01960895F89408
:0243B000FFCF3D
:1043B200FFFF8B060101013A02C2013A02C2010F5C
:1043C2009600FE0199036500FE0199036500010153
:00000001FF
