:020000040800F2
:1000000000000820F11C0008751C0008771C00087F
:10001000791C00087B1C00087D1C00080000000003
:10002000000000000000000000000000C191000876
:100030007F1C00080000000061920008C5920008C3
:10004000411D0008411D0008411D0008411D000818
:10005000411D0008411D0008411D0008411D000808
:10006000411D0008411D0008411D0008411D0008F8
:10007000411D0008411D0008811C0008411D0008A9
:10008000411D0008411D0008411D0008411D0008D8
:10009000411D0008411D0008411D0008411D0008C8
:1000A000411D0008411D0008411D0008411D0008B8
:1000B000411D0008411D0008411D0008411D0008A8
:1000C000411D0008411D0008411D0008411D000898
:1000D000411D0008411D0008411D0008411D000888
:1000E000411D0008411D0008411D0008411D000878
:1000F000411D0008411D0008411D0008411D000868
:10010000411D00088D1C0008411D0008411D00080C
:10011000411D0008411D0008411D0008991C0008F0
:10012000A51C0008411D0008411D0008B11C000865
:10013000411D0008411D0008411D0008411D000827
:10014000411D0008411D0008411D0008411D000817
:10015000411D0008BD1C0008411D0008411D00088C
:10016000411D0008411D0008411D0008411D0008F7
:10017000411D0008411D0008411D0008000000004D
:10018000411D0008411D0008C91C0008411D000850
:10019000411D0008411D0008411D0008411D0008C7
:1001A000411D0008411D0008411D0008411D0008B7
:1001B000411D0008411D0008411D0008411D0008A7
:1001C000411D0008411D000800000000411D0008FD
:1001D000411D0008411D0008411D0008411D000887
:1001E000411D0008411D0008411D0008411D000877
:0801F000411D0008411D00083B
:1002000010B5054C237833B9044B13B10448AFF350
:1002100000800123237010BD0401002000000000B5
:10022000F859010808B5034B1BB103490348AFF364
:10023000008008BD0000000008010020F8590108F6
:1002400081F0004102E000BF83F0004330B54FEA87
:1002500041044FEA430594EA050F08BF90EA020FF4
:100260001FBF54EA000C55EA020C7FEA645C7FEA87
:10027000655C00F0E2804FEA5454D4EB5555B8BFAA
:100280006D420CDD2C4480EA020281EA030382EA1B
:10029000000083EA010180EA020281EA0303362DAD
:1002A00088BF30BD11F0004F4FEA01314FF4801C80
:1002B0004CEA113102D0404261EB410113F0004F92
:1002C0004FEA03334CEA133302D0524263EB430349
:1002D00094EA050F00F0A780A4F10104D5F1200EE7
:1002E0000DDB02FA0EFC22FA05F2801841F1000142
:1002F00003FA0EF2801843FA05F359410EE0A5F116
:1003000020050EF1200E012A03FA0EFC28BF4CF046
:10031000020C43FA05F3C01851EBE37101F00045FC
:1003200007D54FF0000EDCF1000C7EEB00006EEB09
:100330000101B1F5801F1BD3B1F5001F0CD3490893
:100340005FEA30004FEA3C0C04F101044FEA4452EA
:1003500012F5800F80F09A80BCF1004F08BF5FEA71
:10036000500C50F1000041EB045141EA050130BD51
:100370005FEA4C0C404141EB0101013C28BFB1F563
:10038000801FE9D291F0000F04BF01460020B1FAAE
:1003900081F308BF2033A3F10B03B3F120020CDA81
:1003A0000C3208DD02F1140CC2F10C0201FA0CF05F
:1003B00021FA02F10CE002F11402D8BFC2F1200CC4
:1003C00001FA02F120FA0CFCDCBF41EA0C0190407A
:1003D000E41AA2BF01EB0451294330BD6FEA0404C3
:1003E0001F3C1CDA0C340EDC04F11404C4F12002AE
:1003F00020FA04F001FA02F340EA030021FA04F3C0
:1004000045EA030130BDC4F10C04C4F1200220FA16
:1004100002F001FA04F340EA0300294630BD21FA54
:1004200004F0294630BD94F0000F83F4801306BF1A
:1004300081F480110134013D4EE77FEA645C18BF0E
:100440007FEA655C29D094EA050F08BF90EA020FA5
:1004500005D054EA000C04BF1946104630BD91EA9D
:10046000030F1EBF0021002030BD5FEA545C05D1A0
:100470004000494128BF41F0004130BD14F58004DF
:100480003CBF01F5801130BD01F0004545F0FE4153
:1004900041F470014FF0000030BD7FEA645C1ABF88
:1004A000194610467FEA655C1CBF0B46024650EABF
:1004B000013406BF52EA033591EA030F41F40021EB
:1004C00030BD00BF90F0000F04BF0021704730B571
:1004D0004FF4806404F132044FF000054FF0000146
:1004E00050E700BF90F0000F04BF0021704730B507
:1004F0004FF4806404F1320410F0004548BF4042DC
:100500004FF000013EE700BF42004FEAE2014FEA30
:1005100031014FEA02701FBF12F07F4393F07F4F0B
:1005200081F06051704732F07F4208BF704793F00E
:100530007F4F04BF41F40021704730B54FF4607421
:1005400001F0004521F000411CE700BF50EA010224
:1005500008BF704730B54FF000050AE050EA0102CD
:1005600008BF704730B511F0004502D5404261EB3D
:1005700041014FF4806404F132045FEA915C3FF47E
:10058000D8AE4FF003025FEADC0C18BF03325FEA1B
:10059000DC0C18BF033202EBDC02C2F1200300FACC
:1005A00003FC20FA02F001FA03FE40EA0E0021FAF1
:1005B00002F11444BDE600BF53B94AB9002908BF8F
:1005C00000281CBF4FF0FF314FF0FF3000F06EB934
:1005D000ADF1080C6DE904CE00F006F8DDF804E09A
:1005E000DDE9022304B070472DE9F047089D044679
:1005F0008C46002B40F083808A42174647D9B2FAD6
:1006000082F242B1C2F1200024FA00F091409740FA
:1006100040EA010C94404FEA1748230CBCFBF8F663
:100620001FFA87FE08FB16C143EA014306FB0EF1E1
:10063000994209D9FB1806F1FF3080F019819942DF
:1006400040F21681023E3B445B1AA4B2B3FBF8F0C1
:1006500008FB103344EA034400FB0EFEA64509D90B
:100660003C1900F1FF3380F00581A64540F202817C
:1006700002383C4440EA0640A4EB0E0400261DB1BB
:10068000D4400023C5E900433146BDE8F08702B9F4
:10069000FFDEB2FA82F2002A50D1CB1B4FEA174E8E
:1006A0001FFA87F80126B3FBFEFC210C0EFB1C335E
:1006B00041EA034108FB0CF38B4207D979180CF18E
:1006C000FF3002D28B4200F2E9808446C91AA3B2FD
:1006D000B1FBFEF00EFB101143EA014408FB00F8E9
:1006E000A04507D93C1900F1FF3302D2A04500F222
:1006F000D9801846A4EB080440EA0C40BFE78B42BF
:1007000009D9002D00F0B1800026C5E9000130466E
:100710003146BDE8F087B3FA83F6002E4AD18B420A
:1007200002D3824200F2B880841A61EB03010120F7
:100730008C46002DA8D0C5E9004CA5E7C2F12003E6
:1007400020FA03F6974001FA02F04FEA174ED9401B
:100750003043030CB1FBFEF61FFA87F80EFB1611AF
:1007600043EA014306FB08F1994204FA02F409D96D
:10077000FB1806F1FF3C80F08D80994240F28A80A0
:10078000023E3B445B1A81B2B3FBFEF00EFB10331A
:1007900041EA034100FB08F38B4207D9791800F1C5
:1007A000FF3C73D28B4271D902383944CB1A40EAEC
:1007B000064678E7C6F1200C03FA06F422FA0CF399
:1007C0001C4320FA0CF701FA06F34FEA144E21FA03
:1007D0000CF11F433B0CB1FBFEF91FFA84F80EFB32
:1007E000191143EA014109FB08FA8A4502FA06F2A7
:1007F00000FA06F308D9611809F1FF3048D28A459A
:1008000046D9A9F102092144A1EB0A01BFB2B1FB0B
:10081000FEF00EFB101147EA014700FB08F8B8454F
:1008200007D9E71900F1FF312ED2B8452CD902388B
:10083000274440EA0940A7EB0807A0FB02894F457F
:10084000C64649461AD317D05DB1B3EB0E0267EB2B
:10085000010707FA0CFCF2404CEA0202F740C5E936
:10086000002700263146BDE8F0872E4628460BE7D4
:100870000646E9E61846FDE64345E5D2B8EB020E2A
:1008800069EB04010138DFE70846D2E760468DE7EF
:100890008146B9E7664675E730464AE7ACF1020C97
:1008A000394413E702383C4424E700BF704700BFD7
:1008B000034B0360034B0B6080231360704700BF42
:1008C0002003002020010020034B0360034B0B603A
:1008D0004FF4807313607047740700207403002086
:1008E000F7B507F07BFE374D374A0423019005F535
:1008F0005A773648A5F1B406C0E900232023C0E9A1
:10090000023302F0A0FA0421314C0DEB010007F094
:1009100085FF2E4802F0BFFA2E4813F0C2FD2E4884
:1009200013F0B4FA2D4813F093FE2D4812F08AFD0F
:1009300095ED000A2B4813F033FE3978304613F05A
:10094000D5FD294813F0A2FA284813F081FE284863
:1009500012F078FD94ED000AA4F5906013F020FEEB
:1009600094F86813A4F5906013F0C0FDA4F243520C
:10097000F2EE046A04F28C63127804F58760A4F541
:100980009E5107EE102AA4F22D521278B8EE477A43
:1009900007EE902A27EE267AF8EE677A83ED007A42
:1009A00004F5D26367EEA67AC3ED007AA3F5D153BE
:1009B000A3F1180212F0C4FE04F2946013F030FFA9
:1009C000A1E700BFB8C6002000300040C0AE002044
:1009D000A0CA0020A0C5002018B8002050C50020E3
:1009E0003CC6002004C60020C4BB002078C50020FF
:1009F00024CA0020074CA4F5777508B50EF046FF11
:100A00000028FBD020460EF05CFF28460BF090FD3E
:100A1000F4E700BF00B800202DE9FF41002444F6B0
:100A20001F6707F0DBFD03900A2103A807F0F6FE1D
:100A3000BC42164D4FF0000694BF0A340024A8466D
:100A400098BFA4B298F80430B342EDDDEB7DB3B9A2
:100A50002A8BB2F5FA7F15D0B2F5FA6F14D0642A5A
:100A600008BF0A231344B4FBF3F203FB124333B968
:100A7000281D01900BF0F8F801980EF024FF0136C4
:100A80001835DFE71423EDE71E23EBE724B400203D
:100A90002DE9F043674F85B00024DFF8D49107F5C6
:100AA0007A7807F09BFD03900134322103A8A4B2A9
:100AB00007F0B4FE132C02D900240AF091FE5E4820
:100AC00013F06AFF38465D4D12F019F878B15C4BAF
:100AD0001B78012B40F091805A4A13783BB10023D8
:100AE000082102F21460137000930EF0F5FE4046E8
:100AF00012F005F888B154480378012B0DD190F815
:100B0000BA3100F5DD7243B10023272180F8BA31F4
:100B100000F2E63000930EF0DFFE384611F0F2FFEF
:100B2000D0B1002601230DF10B025C218DF80B30B2
:100B30003346464800960EF044FF414A33465D2155
:100B400002F2CE7000960EF03CFF02225C213F487C
:100B50000EF095FF3E4B1E70404611F0D3FFD0B112
:100B6000002601230DF10B025E218DF80B30334678
:100B7000364800960EF025FF334A33465F2102F2D5
:100B8000E63000960EF01DFF02225E212F480EF087
:100B900076FF304B1E7030480FF0B8FA2F480FF038
:100BA000B5FA2F4E2F480FF0B1FA2F480FF0AEFADA
:100BB000D6ED007AB2EE0E7AA6F52D70F0EEE77A59
:100BC000F4EEC77AF1EE10FACCBF0123002385F8CA
:100BD000F93C13F077FFA6F5097013F073FF06F1E7
:100BE000C40012F007FD41F66852AB5C272B13D806
:100BF0000133AB540AF05CFE56E7022B7FF477AF6B
:100C00001A4A1378002B3FF472AF0023092102F532
:100C1000BF601370009368E741F66953EA5C0AB15C
:100C20000022EA5400224FF48061484602F000F9A5
:100C3000E0E700BF3CC6002034D1002024B40020EF
:100C40003EC60020F8C7002026CA00200CCE002097
:100C500050C6002038CA002070BF0020B8BF002056
:100C600044C3002000C0002048C0002014C8002059
:100C700000080240F0B56425F9B0192000240EF0F8
:100C8000C1FFB2EE040A904B03224FF47A7104A81C
:100C900000954FF47A760EF087FFB2EE040A8B4B84
:100CA00004224FF47A7108A800950A270EF07CFF01
:100CB000B2EE040A864B05224FF47A710CA8009517
:100CC0000EF072FFB2EE040A824B06224FF47A71E4
:100CD00010A800950EF068FF9FED7F0A7F4B07225A
:100CE0003221009414A80EF05FFF9FED7B0A7C4B2D
:100CF00008223221009418A80EF056FFB7EE000A21
:100D0000784B0922322100941CA80EF04DFFB7EE5B
:100D1000000A754B0A221921009420A80EF044FF06
:100D2000B7EE000A714B0B221921009424A80EF093
:100D30003BFFB2EE040A6E4B0C224FF47A71009422
:100D400028A80EF031FF9FED640A6A4B0D224FF484
:100D50007A7100942CA80EF027FF9FED5F0A664B76
:100D60000E224FF47A71009430A80EF01DFFB2EEFF
:100D7000040A624B0F224FF47A71009434A80EF0EB
:100D800013FFB2EE040A5E4B10224FF47A71009406
:100D900038A801240EF008FFB2EE040A594B1122C4
:100DA00032213CA800960EF0FFFEB2EE040A564B2C
:100DB0001222322140A800960EF0F6FEB2EE040A8E
:100DC000524B1322322144A800960EF0EDFEB2EEF3
:100DD000040A4F4B1422322148A800960EF0E4FE7C
:100DE000B7EE000A4B4B152229464CA800940EF092
:100DF000DBFEB7EE000A484B1622294650A80094A5
:100E00000EF0D2FEB7EE000A444B1722294654A832
:100E100000940EF0C9FEB7EE000A414B1822294695
:100E200058A800940EF0C0FE9FED3E0A3E4B1922DA
:100E300032215CA800970EF0B7FE9FED3A0A3B4BBB
:100E40001A22322160A800970EF0AEFEB7EE000A1B
:100E5000374B1B22C82164A800940EF0A5FEB7EE04
:100E6000000A344B1C22C82168A800940EF09CFE96
:100E7000B7EE000A304B1D2231466CA800940EF0EC
:100E800093FEB7EE000A2D4B1E22314670A8009447
:100E90000EF08AFEB7EE000A294B1F22294674A8DD
:100EA00000940EF081FE0EF0F5FF18B1254B186886
:100EB00007F0D8FA07F092FB0390192103A807F076
:100EC000ADFC0EF0D1FEF8E7BCBF002074BF0020DF
:100ED0004CC0002004C000200000C8427CC200209A
:100EE000B4C1002094C0002024B80020D0BB002052
:100EF00080D1002084D1002088D1002048D100205A
:100F00004CD1002050C5002078C5002014C6002018
:100F100030C6002040C6002048C6002028CA002055
:100F200030CA002000007A44FCC60020E4CA002039
:100F300020C8002008CC002020C9002028C900209B
:100F400000C60020D8070020F0B5B9B02C2200213F
:100F5000022509A8012613F041FE1422002102A84F
:100F600013F03CFE9022002114A813F037FE284B0A
:100F70004FF4800106271A6C07A8002442F0805223
:100F80001A641B6C03F080530093009B214B1A687A
:100F900042F440421A6009221B68129703F440434E
:100FA0000193019B4FF48033CDE907230823CDE95A
:100FB0000E134FF4C073CDE90C65CDE9103501F087
:100FC000A9FF01F06FFF0F23394602A8CDE90235D2
:100FD0004FF4C053CDE904434FF48053069302F01D
:100FE0008DF90D4B14A81C961493C02319934FF040
:100FF0000063CDE91A55CDE91E64CDE92644CDE95B
:101000002B44CDE9333402F057FA39B0F0BD00BFBC
:1010100000380240007000408031A0002DE9F04F00
:1010200091B0C94D00F08DFE0024FFF78DFF142212
:1010300000210BA813F0D2FD2B6B0122102143F0ED
:101040001003C248012710262B634FF480782B6BC6
:101050004FF0020A4FF003094FF4801B03F0100316
:101060000593059B2B6B43F004032B632B6B03F061
:1010700004030693069B2B6B43F080032B632B6BBF
:1010800003F080030793079B2B6B43F001032B6353
:101090002B6B03F001030893089B2B6B43F00203B7
:1010A0002B632B6B03F002030993099B2B6B43F01B
:1010B00008032B632B6B03F008030A930A9B01F0D0
:1010C000B7FE00224FF40641A14801F0B1FE002214
:1010D0004FF470519D4801F0ABFE00224FF4807137
:1010E0009C4801F0A5FE002218219B4801F0A0FEBB
:1010F00000224021994801F09BFE0BA993480D97CF
:101100000E94CDE90B6701F005FD4FF406430BA9E2
:101110008F48CDE90B37CDE90D4401F0FBFC4FF4CE
:1011200070530BA98948CDE90B37CDE90D4401F087
:10113000F1FC4FF440630BA987480D94CDE90B34C3
:1011400001F0E8FC0BA983480D94CDF838A0CDE957
:101150000B8701F0DFFC18230BA97F48CDE90B3783
:10116000CDE90D4A01F0D6FC0BA97C480D94CDE9E0
:101170000B6401F0CFFC40230BA97848CDE90B3775
:10118000CDE90D4401F0C6FC2B6B2246214643F409
:1011900080030E202B632B6B03F480030393039BCC
:1011A0002B6B43F400132B632B6B6D4D03F4001377
:1011B0000493049B01F046FA0E2001F075FA2246D2
:1011C0000721382001F03EFA382001F06DFA22465E
:1011D00006213B2001F036FA3B2001F065FA224659
:1011E0000621452001F02EFA452001F05DFA214646
:1011F00032460BA813F0F2FC5A4A4FF4403304264F
:101200002846AC602F61AF6185F82040EC62EC604D
:10121000C5F81C9085F830706C61C5E90023524B0D
:10122000AB6200F0BDFD0BA928460D96CDE90B671A
:1012300000F036FF05230BA928464C4FCDE90B3AA9
:1012400000F02EFF0BA9284606254FF0807ACDE945
:101250000B9900F025FF4648464B4FF4E139A0F8C2
:101260001C80C0F818A0C0E900354FF44023C0E945
:101270000244C0E9043B00F0B9FF3F4A3F494FF444
:10128000804014614FF4007CC2E900145021C2E98F
:101290000244C2E905013A484FF48272C0E9007283
:1012A0004FF4E0620C27846044618462C0E9032447
:1012B0002022C0E906C20722C0E90B240822C0E9A7
:1012C0000844426303F0F0F82E482F4A0461446258
:1012D000C0E90029C0E90244C0E90574C0E9074437
:1012E00004F0CAF929482A4AC0E90244C0E90029A1
:1012F000C0E90447C0E90644C0E9084404F0BCF969
:10130000DFF89CE023483022C0E900E24FF6FF728C
:1013100084608461C0E9032403F0F4FC04F0DEFC83
:101320001D481E4A4FF44023A0F81C80C0F818A0A6
:10133000DFF87080C0E90025C0E90244C0E9043B41
:1013400000F054FF30E000BF0038024000100240BF
:101350000008024000000240000C0240000402406D
:1013600054B30020002001400100000F0034014070
:10137000B4D3002000640040D0AE0020002C014017
:1013800090D1002034D300200044004040AE002023
:1013900000480040DCD30020FCB30020006800407F
:1013A00000200040007800404148424BC0E9024420
:1013B000C0E90039C0E90447C0E90644C0E908446F
:1013C00004F05AF93C484FF4E123C0E90244C0E973
:1013D0000083C0E90446C0E90644C0E9084404F0BB
:1013E0004BF92C4608F024F9344A354D936843F400
:1013F0008053936008F04EF908F0DCFB08F07CFCA9
:1014000008F0ECFC08F026FD08F044FD08F072FD41
:1014100008F090FD08F09AFD08F0BEFD0AF0B8F95A
:1014200008F07EFF09F07AFF0AF0CAF94FF4005184
:10143000284601F002FD642000F0A0FC013CF5D13B
:10144000204B4FF4407220490125019304231F488B
:101450000093234606F0D8FF1D4B4FF4C0721D4980
:10146000019323461C48009506F0CEFF1B4B4FF41A
:1014700020721B491B48CDE90053234606F0C4FFE8
:10148000194B4FF4407219491948CDE900532346CE
:1014900006F0BAFF174B4FF4A06217491748CDE981
:1014A0000053234606F0B0FF05F0B4FFFEE700BF8F
:1014B000B4D20020007C0040C0AD0020002004E039
:1014C00000100240D4070020235A0108E108000858
:1014D000D0070020305A0108910A0008CC070020EC
:1014E0003B5A0108190A0008C8070020465A01089B
:1014F000F5090008D8070020515A0108750C0008AA
:10150000074B41F2D7129A5C12B9064812F05DBE41
:10151000012A01BF41F2D6115A5C01325A54704778
:1015200024B40020A0C50020704700000268034BCF
:101530009A4201D100F010BC704700BF0014004077
:10154000704700000D4B82B00F216FF001001A6C44
:1015500042F080521A641A6C02F080520092009A93
:101560005A6C42F480425A6400225B6C03F480435C
:101570000193019B02B001F065B800BF0038024042
:1015800070B588B005461422002103A813F026FB8D
:101590002A68204B9A423BD103F58C33002603A9DD
:1015A0001D485A6C1D4C42F480725A645A6C02F405
:1015B00080720192019A1A6B42F001021A6338227A
:1015C0001B6B059603F001030293029B0323CDE9F5
:1015D000032301F09FFA124B4FF480614FF48040D7
:1015E000C4E900364FF48053C4E904134FF4807308
:1015F000C4E906034FF480332046C4E90266C4E917
:10160000083601F089F808B1FFF79AFFAC63A563CB
:1016100008B070BD0020014000000240F4D100205D
:101620001064024010B58CB004461422002107A8B3
:1016300013F0D4FA2368354A93422AD1344A136806
:101640000133012B136009D1324B1A6C42F0007246
:101650001A641B6C03F000730193019B2D4B4FF434
:10166000C050002407A91A6B42F001021A631B6BD9
:1016700003F001030293029B0223CDE90703032336
:101680002548CDE9094309230B9301F043FA0CB037
:1016900010BD224A9342FAD11E4B1D491A6C42F4E6
:1016A00000521A641A6C02F400520392039A1A6CE4
:1016B00042F080621A641A6C02F080620492049A0A
:1016C0000A680132012A0A6008D11A6C42F00072DD
:1016D0001A641A6C02F000720592059A1A6B0021C6
:1016E0000F4842F002021A634FF440521B6B03F0A2
:1016F00002030693069B0223CDE907230323CDE9CA
:101700000913092307A90B93BFE700BF006400403A
:10171000DC07002000380240000002400068004062
:10172000000402402DE9F043ADB00546142200212B
:1017300003A813F053FA9022002108A813F04EFAE0
:101740002A68584B9A4240F0AA804FF420034FF089
:10175000006208A80893C0230D930223CDE90E333D
:1017600001231093129300231393CDE9272301F053
:10177000A3FE08B1FFF7E4FE4B4B0C244FF0020927
:1017800000265A6C03270DEB0401484842F400621E
:101790004FF004085A645A6C02F400620092009AF6
:1017A0001A6B42F004021A631A6B02F004020192EF
:1017B000019A1A6B42F008021A631B6B079403F03C
:1017C00008030293029B4FF48853CDE90567CDE9E6
:1017D000033901F09FF90DEB040135480794354CAE
:1017E000CDE90389CDE9056701F094F94FF0006375
:1017F000DFF8CCE04FF480694FF480424FF40001F1
:101800002046A762C4E900E34FF48053C4E904937F
:101810002023C4E906234FF40033C4E908384FF409
:101820000013C4E90266C4E90B1300F075FF08B1A8
:10183000FFF786FE4FF000631F4A2C644021A5632A
:101840004FF480601D4C4FF480464FF400374FF04A
:10185000030CC4E900230023C4E902134FF48053AE
:10186000C4E9040320232046C4E906630423C4E931
:1018700008734FF40003C4E90AC34FF40013236351
:1018800000F04AFF08B1FFF75BFE3120002206217D
:10189000EC63A56300F0D6FE312000F005FF2DB00B
:1018A000BDE8F083002C01400038024000080240EF
:1018B000000C024054D20020A06402401CD400203E
:1018C0005864024010B588B004461422002103A8D1
:1018D00013F084F92268134B9A4221D103F5823325
:1018E000002111485A6C42F400525A645A6C02F4B6
:1018F00000520192019A1A6B42F010021A6364229C
:101900001B6B03F010030293029B0223CDE9032318
:101910000323CDE90513052303A9079301F0FAF882
:1019200008B010BD0034014000100240026882B0CF
:10193000074B9A420AD103F506331A6C42F48072BF
:101940001A641B6C03F480730193019B02B070470F
:101950000020004070B5B2B006461422002109A84C
:1019600013F03CF9902200210EA813F037F93368E8
:10197000704A934252D14FF480530EA80E93002325
:10198000259301F099FD08B1FFF7DAFD6A4B4FF49A
:10199000C07E002509A91A6C684842F08042684C54
:1019A0001A641A6C02F080420192019A1A6B42F09A
:1019B00010021A631B6B03F010030293029B0223B5
:1019C000CDE909E30323CDE90B5308230D9301F07F
:1019D000A1F84FF020635B4A4FF480712046A56167
:1019E0006562C4E900234FF48063C4E904354FF411
:1019F0004033C4E90255C4E9071300F08DFE08B175
:101A0000FFF79EFD522000220521F466A66300F038
:101A100019FE522000F048FE32B070BD4A4A93428F
:101A20002BD14FF400530EA80E930023269301F000
:101A300043FD08B1FFF784FD3F4B09A93F481A6CED
:101A400042F000421A641A6C02F000420392039AB8
:101A50001A6B42F010021A6302221B6B03F0100390
:101A60000493049B0323CDE909320022CDE90B2323
:101A700008230D9301F04EF8CEE7344A934229D162
:101A800080230EA80E930023209301F015FD08B1CA
:101A9000FFF756FD284B6024002509A91A6C2C4835
:101AA00042F400321A641A6C02F400320592059A6C
:101AB0001A6B42F008021A631B6B03F008030693CB
:101AC000069B0223CDE909430323CDE90B530723EA
:101AD0000D93CFE71F4A93429ED14FF480730EA817
:101AE0000E930023219301F0E7FC08B1FFF728FDD6
:101AF000114B002118481A6C42F480221A641A6CA7
:101B000002F480220792079A1A6B42F002021A63CB
:101B10004FF440621B6B03F002030893089B0223FF
:101B2000CDE909230323CDE90B13072309A90D935D
:101B3000A0E700BF007800400038024000100240DB
:101B40009CB3002058600240007C004000440040EC
:101B5000000C024000480040000402400368204A94
:101B6000934210B5044612D102F5E0324FF4C07131
:101B70001C48136C23F08043136401F0B1F8E06E4D
:101B800000F04AFE5220BDE8104000F09BBD164A0E
:101B900093420BD102F5DE3203211248136C23F07D
:101BA00000431364BDE8104001F09AB80F4A934215
:101BB00008D102F5FA3260210D48136C23F400338A
:101BC0001364EFE70B4A934209D102F5F8324FF460
:101BD00040610948136C23F480231364E2E710BDCD
:101BE0000078004000100240007C004000440040AB
:101BF000000C0240004800400004024010B50146BD
:101C000088B00022372000F01DFD372000F04CFD89
:101C1000144B01A903A81A6C134C42F020021A6459
:101C20001B6C03F020030293029B01F027FC01F0E0
:101C300005FC0E4B4000236040F2E733E3600C4BA1
:101C4000B0FBF3F001380023606020462361A360FD
:101C500003F058F820B9204602F024FF08B010BD68
:101C60000120FBE7003802407CD400200014004033
:101C700040420F00FEE7FEE7FEE7FEE7FEE77047A3
:101C8000014800F087BE00BF9CB30020014802F06D
:101C900055BA00BFD0AE0020014802F01DBF00BF02
:101CA0007CD40020014800F075BE00BFF4D10020B4
:101CB000014800F06FBE00BF54D20020014800F080
:101CC00069BE00BF1CD40020014803F037B900BF33
:101CD000C0AD0020054BD3F8882042F47002C3F851
:101CE00088204FF000629A60704700BF00ED00E06E
:101CF000DFF834D0002103E00C4B5B584350043133
:101D00000B480C4B42189A42F6D30B4A02E00023D0
:101D100042F8043B094B9A42F9D3FFF7DBFF12F07C
:101D200011FFFFF77BF97047000008208860010869
:101D300000000020040100200401002050ED0020DC
:101D4000FEE708B5032000F06BFC0F20FFF756FFFD
:101D5000FFF7F8FB002008BD034A044B11681B780D
:101D60000B441360704700BFBCD400200400002067
:101D7000014B1868704700BFBCD4002038B504463A
:101D8000FFF7F6FF0546631C1EBF044B1B78E418E3
:101D9000FFF7EEFF431BA342FAD338BD0400002037
:101DA00038B50446002800F09B80056C25B9FFF784
:101DB000E7FB656484F83C50236CDB0600F18E8001
:101DC000236C23F4885323F0020343F002032364BB
:101DD000444B5A6822F440325A605A6861680A4398
:101DE0005A60236821695A6822F480725A605A68DE
:101DF00042EA0122A1685A605A6822F040725A6091
:101E00005A680A43E1685A609A6822F400629A604C
:101E10009A680A4334499A60A26A8A4252D0996801
:101E200021F07061996099680A43E16A9A609A6842
:101E300022F040529A609A680A439A609A68A169AF
:101E400022F002029A609A6842EA41029A6094F88B
:101E50002020002A3ED05A68616A42F400620139AB
:101E60005A605A6822F460425A605A6842EA413223
:101E70005A600020DA6AE16922F470020139DA62FC
:101E8000DA6A42EA0152DA629A6822F400729A60CF
:101E90009A6894F8301042EA412261699A609A681F
:101EA00022F480629A609A6842EA81229A606064B1
:101EB000236C23F0030343F001032364002384F81D
:101EC0003C3038BD9A6822F070629A609A6822F0BD
:101ED0004052B2E75A6822F40062C9E70120EDE7F8
:101EE0000120EEE7002301400100000F37B5134643
:101EF00000220446019290F83C20012A73D001226E
:101F0000056880F83C20AA68D00705D5AA68D207E2
:101F100015D4002003B030BDAA6842F00102AA60C7
:101F2000324A1068324AB0FBF2F000EB40000190F8
:101F3000019A002AEAD0019A013A0192F8E7206C4E
:101F400020F4E06020F0010040F4807020646A68B2
:101F5000500505D5206C20F4405040F4805020649A
:101F6000226C12F4805202D0626C22F0060262648B
:101F70000022A06B84F83C201E4AC2631E4A026401
:101F80001E4AC2646FF022022A606A6842F08062D0
:101F90006A60AA6842F48072AA600A4605F14C01A0
:101FA00000F064FC164A536813F01F0F236808D131
:101FB000986810F04050ACD19A6842F080429A6024
:101FC000A8E710498B4207D1996811F0405F03D10F
:101FD000996841F0804199605268D20699D40A4AC2
:101FE000934296D1E4E7022094E700BF000000206E
:101FF00040420F0033200008112000081D20000877
:10200000002301400020014000220140704770473A
:10201000806B08B5FFF7FBFF08BD7047806B08B504
:1020200040230364436C43F004034364FFF7F5FF6C
:1020300008BD836B1A6C12F0500F1A6C10B523D1C7
:1020400042F400721A641A68916811F0405F17D167
:102050009969A9B9D16A11F4700F02D09168480545
:102060000ED4516821F0200151601A6C22F4807264
:102070001A641A6CD10403D41A6C42F001021A6477
:102080001846FFF7C3FF10BDD20603D51846FFF769
:10209000C4FFF8E79B6BBDE81040DB6C18470000FD
:1020A0000023F7B5019390F83C30012B75D0012344
:1020B00080F83C300D680368AEB2092D8A6806EBE3
:1020C00046043AD9B5F1004F37D01E3C4FF0070C0B
:1020D000DF680CFA04FC27EA0C07DF603E4FBD42C4
:1020E00026D1DC6844EA0264DC604968062901EB19
:1020F000810230D8053A1F24596B944006FA02F247
:1021000021EA04015963596B0A435A63334A9342E3
:1021100008D1B5F1004F42D1D2F8043323F4400383
:10212000C2F80433002380F83C30184603B0F0BDF9
:10213000DF6802FA04F43C43D6E74FF0070C1F694E
:102140000CFA04FC02FA04F427EA0C071F611F6969
:102150003C431C61C9E70C294FF01F010BD8233AFF
:102160001C6B914006FA02F224EA01011963196B13
:102170000A431A63CAE7413ADC6A914006FA02F25E
:1021800024EA0101D962D96A0A43DA62BEE7144A35
:10219000536843F480035360C4E70220C6E7122D5E
:1021A000F5D00D4B9D4201D0112DBBD10C499D4264
:1021B0004A6842F400024A60B4D10A4B0A4A1B68DA
:1021C000B3FBF2F20A2353430193019B002BA9D0E6
:1021D000019B013BF8E700BF120000100020014006
:1021E000002301400000002040420F0038B50446A3
:1021F00000286ED090F820300BB9FFF713FA226850
:10220000136823F002031360FFF7B2FD054623684D
:102210005A68910751D41A6842F001021A60FFF718
:10222000A7FD054623685A68D20754D5227E0020B0
:10223000012A1A680CBF42F0800222F080021A6064
:10224000627E012A1A680CBF42F0400222F040026E
:102250001A60A27E012A1A680CBF42F0200222F006
:1022600020021A60E27E012A1A680CBF22F01002D6
:1022700042F010021A60227F012A1A680CBF42F055
:10228000080222F008021A60627F012A1A680CBF55
:1022900042F0040222F004021A60D4E902210A4347
:1022A00021690A4361690A43616801390A43DA61B5
:1022B0000123606284F8203038BDFFF759FD401BD0
:1022C0000A28A4D9636A43F400336362052384F8BF
:1022D00020300120F0E7FFF74BFD401B0A28A1D971
:1022E000F0E7000070B590F82030013B012B77D863
:1022F00003683E4A3E4893420CBF13460346D3F858
:102300000022834242F00102C3F800220CD1D3F82C
:10231000002222F47C52C3F80022D3F80022486A3B
:1023200042EA0022C3F800224A690124D3F81C5271
:1023300002F01F0004FA00F025EA0005C443C3F8C8
:102340001C52CD6985BBD3F80C5203EBC202CE6898
:102350002540C3F80C528D8845EA06458E68C2F8C0
:1023600040520D8845EA0645C2F844528A696ABB64
:10237000D3F804222240C3F804220A6952BBD3F8DE
:1023800014221440C3F814420A6A012A04D1D3F873
:102390001C221043C3F81C02D3F80022002022F0B4
:1023A0000102C3F8002270BD012DDFD1D3F80C5219
:1023B00003EBC2020E680543C3F80C528D8845EA50
:1023C00006458E68C2F840528D89CBE7D3F80422C7
:1023D0000243D0E7D3F814220243C3F81422D3E710
:1023E000436A43F4802343620120DCE70034004069
:1023F0000064004070B590F820300446012BDDB237
:1024000020D10268022380F82030136823F00103F2
:102410001360FFF7ADFC064623685B6813F0010309
:1024200002D11D4663620BE0FFF7A2FC801B0A2865
:10243000F2D9636A43F400336362052384F82030E1
:10244000284670BD436A012543F400234362F7E741
:10245000F0B590F820500668013DB468012D40D8D1
:1024600014F0E05F39D0C4F301640125032C05D1D9
:10247000436A43F400034362012028E0A5401D6045
:1024800004F11803D1E9020710BB086847EA40507D
:102490001B01F05006EB04130D692001C3F88451B1
:1024A000097D012905D1D3F8841141F48071C3F865
:1024B0008411516806440020C6F88C111268C6F8D1
:1024C0008821D3F8802142F00102C3F88021F0BDB9
:1024D0004D68384340EAC500DAE7436A43F4001325
:1024E000C9E7436A43F48023C5E790F82030013BF5
:1024F000012B0CD8036898689A68C0F380609B68C9
:10250000120148BF0130DB0002D5013070470020C6
:102510007047F0B590F82040013C012C6CD806685B
:1025200041B9F468A40707D1436A43F40013436236
:10253000012056E03469F5E706EB01150C01D5F8EA
:10254000B07107F004079760002F4BD1D5F8B07138
:102550007F0D1760D5F8B071264407F00207D760E9
:10256000D5F8B47107F00F071761D5F8B471D5F835
:10257000B451C7F307272D0C97615561D6F8B821E0
:102580001A7002682244D2F8B821120A5A700268FE
:102590002244D2F8B821120C9A7002682244D2F870
:1025A000B821120EDA7002682244D2F8BC211A71E6
:1025B00002682244D2F8BC21120A5A7102682244ED
:1025C000D2F8BC21120C9A7102681444D4F8BC21D0
:1025D000120EDA71036851B9DA6842F02002DA604B
:1025E0000020F0BDD5F8B071FF085760B2E71A6956
:1025F00042F020021A61F3E7436A43F4802396E72E
:1026000090F82030013B012B07D8036819B9D8682E
:1026100000F0030070471869FAE7002070470000D7
:1026200007490302CA6803F4E06322F4E06212047B
:10263000120C134343F0BF6343F40033CB60704785
:1026400000ED00E0164B30B5DC68C4F30224C4F1A1
:102650000705231D042D28BF0425062B4FF0FF334B
:102660008CBF033C002403FA05F5002803FA04F3A9
:1026700021EA050122EA030201FA04F141EA020318
:102680004FEA0313DBB206DB00F1604000F5614066
:1026900080F8003330BD00F00F00024A1354F9E710
:1026A00000ED00E014ED00E0002808DB4209012302
:1026B00000F01F0003FA00F0014B43F822007047BE
:1026C00000E100E000280DDB4309012200F01F00BB
:1026D000203302FA00F0044A42F82300BFF34F8F80
:1026E000BFF36F8F704700BF00E100E00368024650
:1026F0001820D9B21039B1FBF0F010B5054C5F29A4
:10270000205CD06523F47F7020F0030088BF043084
:10271000906510BD715A010870B50446FFF728FB9B
:102720000546002C73D00023226884F8343002233D
:1027300084F83530136823F00103136021680B68B7
:10274000D8072FD40B68334DA0691D40D4E901236D
:102750001343E26813432269134362691343E26936
:1027600003431343226A1343626A042A43EA0503BC
:1027700002BFD4E90B5635432B43042A0B604B6947
:1027800023F0070343EA020333D1A26AE56A134345
:102790007DB390B9012A21D032F0020229D1EA0199
:1027A00027D51EE0FFF7E4FA401B0528C6D92023F1
:1027B0000320636584F8350070BDB0F5005F14D167
:1027C000032A16D801A050F822F000BFE327000822
:1027D0009F270008E3270008DD270008B5F1C07F28
:1027E00007D1402301206365E4E7022AF9D9032ACF
:1027F000D5D04B612046FFF779FFE26D3F23934030
:10280000836000200123606584F83530D4E701201F
:10281000D2E700BF3F8010E038B5054620B390F8FE
:102820003530022BDCB21DD0036800241A6822F078
:1028300001021A6021221C605C609C60DC601C61EB
:102840005A61FFF753FFEA6D3F23934083606C6545
:1028500085F8344085F83540C5E90F44C5E9114491
:10286000C5E91344204638BD0124FBE770B590F854
:102870003440866D012C34D00124002580F834408A
:1028800090F83540012C4FF0020428D180F83540F3
:1028900004684565256825F48025256063608368A4
:1028A000402B19D1A260E160C26D3F239340B36019
:1028B000236843F016032360636943F08003636178
:1028C000036C1BB1236843F00803236023680020D6
:1028D00043F00103236070BDA160E260E4E780F88B
:1028E00034500220F7E770B50446866DFFF740FAD2
:1028F000054694F83530022B06D08023012063650D
:10290000002384F8343070BD23681A6822F0160260
:102910001A605A6922F080025A61226C0AB9A26CCC
:102920001AB11A6822F008021A601A6822F001022D
:102930001A6023681B6813F001030AD1E16D3F227E
:1029400018468A40B260012284F8343084F8352079
:10295000D9E7FFF70DFA401B0528EAD92023032009
:102960006365002384F8350084F83430CBE790F8B1
:102970003530022B03D08023436501207047026865
:10298000052380F835300020136823F0010313601D
:10299000704700000023F7B5019308225B4B044603
:1029A000856D1F68C36D2E689A4032420CD0016855
:1029B0000868400708D5086820F004000860AA608D
:1029C000626D42F00102626501229A40324208D0F3
:1029D00021684969090604D5AA60626D42F00202C5
:1029E000626504229A40324208D02168096888074B
:1029F00004D5AA60626D42F00402626510229A401A
:102A0000324210D02368196809070CD5AA601A68E9
:102A1000500337D51B68190301D4236C00E0A36C65
:102A20000BB120469847E16D20228A4032423AD0CD
:102A300023681868C60636D5AA6094F83520052A9A
:102A40001A6827D122F016021A605A6922F0800211
:102A50005A61226C0AB9A26C1AB11A6822F00802F3
:102A60001A603F238B40AB60002384F8343001238D
:102A700084F83530236D002B45D0204603B0BDE8E7
:102A8000F04018471A68D205C7D41A6822F0080225
:102A90001A60C2E7500327D51B68190331D4636C51
:102AA0000BB120469847636D6BB3636DDA0719D598
:102AB0004FF416532268B7FBF3F7052384F835303B
:102AC000136823F001031360019B0133BB420193A0
:102AD00002D81368DB07F7D4002384F834300123CD
:102AE00084F83530E36CC6E71A6812F4807208D1B6
:102AF000196821F010011960012384F8342084F84A
:102B00003530E36BCCE703B0F0BD00BF0000002020
:102B1000406D70472DE9F74F0023DFF8BC816C4A08
:102B2000DFF8B89101240D689C4004EA0506AC4327
:102B300040F0B4804C684FEA430E032524F0100C9B
:102B400005FA0EF50CF1FF37ED43012F11D8876818
:102B500007EA050ACF6807FA0EF747EA0A0787600F
:102B6000476827EA060AC4F300179F4047EA0A07A6
:102B70004760C768BCF1020F07EA050A8F6807FAC9
:102B80000EF747EA0A07C76016D14FEAD30A03F0E7
:102B9000070B4FF00F0C00EB8A0A4FEA8B0BDAF8A9
:102BA00020700CFA0BFC27EA0C0C0F6907FA0BF7E4
:102BB00047EA0C07CAF8207007683D4004F0030795
:102BC00007FA0EFE4EEA05050560E50066D5D8F861
:102BD000445023F0030703F0030C4FF00F0E45F4AD
:102BE000804507F180474FEA8C0CC8F8445007F540
:102BF0009C37D8F8445005F480450195019D0EFAA4
:102C00000CF5D7F808A02AEA050E324DA8424CD0A0
:102C100005F58065A8424AD005F58065A84248D0F0
:102C200005F58065A84246D005F58065A84244D0E8
:102C3000484544D005F50065A84242D005F58065B9
:102C4000A84240D005F58065A8423ED005F58065D4
:102C5000A8420CBF09250A2505FA0CF514F4803F9B
:102C600045EA0E05BD606FEA060715680CBF3D40DA
:102C7000354314F4003F156055680CBF3D403543A3
:102C800014F4801F556095680CBF3D403543A40285
:102C90009560D56854BF3D403543D5600133102B56
:102CA0007FF440AF03B0BDE8F08F0025D4E70125E5
:102CB000D2E70225D0E70325CEE70425CCE705259A
:102CC000CAE70625C8E70725C6E70825C4E700BF09
:102CD000003C014000000240003802400014024065
:102CE0002DE9F04F00224A4CDFF82C91DFF82CA19F
:102CF000DFF82CB1012303FA02FE3EEA01030EEADB
:102D000001076ED122F0030502F0030C0F26414BA0
:102D100005F180454FEA8C0C984205F59C3506FA82
:102D20000CF6D5F8088006EA08085FD003F5806342
:102D300098425DD003F5806398425BD003F58063D1
:102D4000984259D003F58063984257D0484557D0F0
:102D5000504557D0584557D003F58053984255D029
:102D600003F5806398420CBF09230A2303FA0CF38E
:102D7000434513D1236823EA07032360636823EAEA
:102D800007036360A36823EA0703A360E36823EAF9
:102D90000707E760AB6823EA0606AE600326530028
:102DA000056802F0070C06FA03F30F274FEA8C0CB4
:102DB00025EA030507FA0CF7056022FA06F500EB91
:102DC00085052E6A26EA07072F62C56825EA0305EE
:102DD000C560456825EA0E054560856825EA030358
:102DE00083600132102A85D1BDE8F08F0023BDE752
:102DF0000123BBE70223B9E70323B7E70423B5E7C1
:102E00000523B3E70623B1E70723AFE70823ADE7C0
:102E1000003C014000000240001402400018024043
:102E2000001C02400369194214BF012000207047B2
:102E30000AB1816170470904FBE743690B4218BF7F
:102E400009048161704738B5044610B303684CF635
:102E5000CC421A6045F255521A6042685A60826844
:102E60009A60FEF785FF05462268D36833B910697A
:102E7000E168884209D01161184638BDFEF778FF35
:102E8000401B3028F0D90320F7E74AF6AA21116049
:102E9000F2E70120F1E703684AF6AA2200201A604F
:102EA00070470000194B37B51A6C194C42F080522C
:102EB0001A641B6C03F080530193019B236843F455
:102EC00080332360FEF754FF05466368DA030CD5B0
:102ED00023680F4D43F400332360FEF749FF044697
:102EE0006B689B030AD5002006E0FEF741FF401BFC
:102EF000B0F57A7FE9D9032003B030BDFEF738FF83
:102F0000001BB0F57A7FEBD9F5E700BF003802402F
:102F1000007000402DE9F341044640B30368D80730
:102F200010D42368990764D42368190700F1AA8094
:102F300023685A0700F1CB80A269002A40F034814F
:102F400000202BE0964B9A6802F00C02042A07D06E
:102F50009A6802F00C02082A0BD15A68520208D56E
:102F60008F4B1B689B03DCD56368002BD9D10120F4
:102F700014E06268B2F5803F13D11A6842F48032DF
:102F80001A60FEF7F5FE864E054633689F03C8D4E7
:102F9000FEF7EEFE401B6428F7D9032002B0BDE81F
:102FA000F0817F4D2B6892B923F480332B602B681E
:102FB00023F480232B60FEF7DBFE06462B68980384
:102FC000AFD5FEF7D5FE801B6428F7D9E5E7B2F54B
:102FD000A02F07D143F480232B602B6843F4803368
:102FE0002B60CEE723F480332B602B6823F48023FF
:102FF000F6E76B4B9A6812F00C0F07D09A6802F054
:103000000C02082A11D15A6851020ED4644B1A6876
:10301000920702D5E268012AA9D11A68216922F033
:10302000F80242EAC1021A607EE7E268C2B11A6899
:103030005B4D42F001021A60FEF79AFE06462B68CD
:103040009F0707D52B68226923F0F80343EAC203E0
:103050002B6069E7FEF78CFE801B0228EFD99CE706
:103060001A684F4E22F001021A60FEF781FE0546F3
:10307000336898077FF558AFFEF77AFE401B0228A9
:10308000F6D98AE76369464D83B16B6F43F001035C
:103090006B67FEF76DFE06466B6F9B073FF548AF0B
:1030A000FEF766FE801B0228F6D976E76B6F23F0E9
:1030B00001036B67FEF75CFE06466B6F9F077FF5AB
:1030C00037AFFEF755FE801B0228F6D965E7344B73
:1030D0001A6CD00027D41A6C012742F080521A646F
:1030E0001B6C03F080530193019B2E4D2B68D90577
:1030F0001BD5A3682A4D012B27D12B6F43F0010369
:103100002B6741F28838FEF733FE254E0546336FB4
:103110009B073FD5002F3FF40FAF214A136C23F0DC
:103120008053136408E70027DFE72B6843F48073BC
:103130002B60FEF71DFE06462B68DA05D9D4FEF794
:1031400017FE801B6428F7D927E7ABB92B6F41F234
:10315000883823F001032B672B6F23F004032B67C0
:10316000FEF706FE06462B6F9807D3D5FEF700FE46
:10317000801B4045F7D910E7052B2B6F03D143F097
:1031800004032B67B9E723F001032B672B6F23F0B0
:103190000403B5E7FEF7ECFD401B4045B7D9FCE65C
:1031A00000380240007000403C4DAB6803F00C0357
:1031B000082B42D02B68022A23F080732B602FD17A
:1031C000FEF7D6FD06462B68990123D4D4E90732D1
:1031D0001343626A43EA8213E26A43EA0263226BA0
:1031E00043EA0273A26A5208013A43EA02436B605F
:1031F0002B6843F080732B60FEF7BAFD274D044621
:103200002B689A013FF59CAEFEF7B2FD001B022829
:10321000F6D9C2E6FEF7ACFD801B0228D3D9BCE686
:10322000FEF7A6FD04462B689B017FF589AEFEF7ED
:103230009FFD001B0228F6D9AFE6012A6B683FF418
:1032400096AE03F48002E1698A427FF490AE03F007
:103250003F02216A8A427FF48AAE47F6C072616AF1
:103260001A40B2EB811F7FF482AEA26A03F44031B0
:103270005208013AB1EB024F7FF479AE03F070626D
:10328000E16AB2EB016F7FF472AE03F0E043226BB0
:10329000B3EB027F3FF454AE69E600BF0038024052
:1032A000134908B58B6803F00C03042B1BD0082BC3
:1032B0001BD14A684B68496802F03F0213F480034F
:1032C000C1F388111ABF0B4800230B48A1FB000172
:1032D000FDF772F9064B5B68C3F3014301335B00F2
:1032E000B0FBF3F008BD0348FCE70348FAE700BF72
:1032F0000038024000127A000024F4002DE9F04169
:103300000D46044610B90120BDE8F081464A136815
:1033100003F00F038B4228D32268970730D4D007DD
:1033200044D4414A136803F00F03AB4267D82268C4
:10333000510770D4130707D53C4A2169936823F4D9
:10334000604343EAC1039360FFF7AAFF374B384A53
:103350009B68C3F30313D35CD840364B1860364BDD
:103360001868FEF74BFC0020CEE7136823F00F032C
:103370000B431360136803F00F038B42C3D1CBE7F9
:1033800012F0040F294B03D0996841F4E051996081
:10339000160703D5996841F4604199602349A068F4
:1033A0008B6823F0F00303438B60B8E761681F4B21
:1033B00001291A681BD112F4003FA4D09A6841F287
:1033C00088381A4F22F003020A439A60FEF7D0FCB5
:1033D0000646BB68626803F00C03B3EB820FA0D013
:1033E000FEF7C6FC801B4045F3D903208CE7022979
:1033F00002D112F0007FE0E712F0020FDDE7136860
:1034000023F00F032B431360136803F00F03AB4249
:103410007FF479AF8BE70549E0688B6823F4E053CC
:1034200003438B6086E700BF003C02400038024047
:10343000595A01080000002008000020044B054AEA
:103440009B68C3F38223D35C034A1068D84070475B
:1034500000380240695A010800000020044B054A68
:103460009B68C3F34233D35C034A1068D84070476B
:1034700000380240695A0108000000200F23036051
:103480000B4B9A6802F0030242609A6802F0F00265
:1034900082609A6802F4E052C2609B68DB0803F421
:1034A000E0530361034B1B6803F00F030B6070478D
:1034B00000380240003C024003682DE9F74313F056
:1034C000010604460BD0BA4A916821F400019160CC
:1034D000466B91683143B6FA86F67609916013F42B
:1034E000002512D0B249E56BD1F88C20B5F5801FCC
:1034F00022F4401208BF012642EA050216BFB5FABF
:1035000085F500256D09C1F88C20D90210D5A84891
:10351000216CD0F88C20B1F5800F22F4400242EAF1
:103520000102C0F88C2000F0A881002908BF012505
:1035300013F0807F18BF01269A0631D59C4B9D4F12
:103540001A6C42F080521A641B6C03F08053019392
:10355000019B3B6843F480733B60FEF709FC8046A7
:103560003B68DB0540F18B81914F3B6F13F4407357
:1035700040F09081236B03F44072B2F5407F8C4A97
:1035800040F0AE81916823F0704021F4F81120F4EE
:10359000407001439160C3F30B03116F0B4313673A
:1035A0002368DA060CD5824AD2F88C1021F080719B
:1035B000C2F88C10D2F88C10A06B0143C2F88C10AA
:1035C0005F0408D57A49606ED1F8902022F4403229
:1035D0000243C1F89020180408D57549A06ED1F8AF
:1035E000902022F440220243C1F89020D90308D54C
:1035F0006F49E06ED1F8902022F440120243C1F8E6
:1036000090209A0308D56A49206FD1F8902022F4BF
:1036100040020243C1F890205F0608D56449606CFF
:10362000D1F8902022F003020243C1F8902018063E
:1036300008D55F49A06CD1F8902022F00C0202431B
:10364000C1F89020D90508D55949E06CD1F89020EF
:1036500022F030020243C1F890209A0508D554495F
:10366000206DD1F8902022F0C0020243C1F89020D2
:103670005F0508D54E49606DD1F8902022F4407264
:103680000243C1F89020180508D54949A06DD1F82A
:10369000902022F440620243C1F89020D90408D55A
:1036A0004349E06DD1F8902022F440520243C1F822
:1036B00090209A0408D53E49206ED1F8902022F43B
:1036C00040420243C1F890205F0208D53849A06FFC
:1036D000D1F8902022F080620243C1F89020980235
:1036E0000CD53348E16FD0F89020B1F1006F22F093
:1036F000006208BF01250A43C0F8902013F0080FAC
:1037000018BF0125590308D52949606FD1F89020C9
:1037100022F040720243C1F890201A0209D52449D0
:10372000D4F88000D1F8902022F080520243C1F8F2
:1037300090205F0109D51E49D4F88400D1F890206B
:1037400022F000520243C1F89020180109D518490F
:10375000D4F88800D1F88C2022F000720243C1F81E
:103760008C20D90040F13E81114A012ED4F88C10F2
:10377000D2F88C3023F0806343EA0103C2F88C3026
:1037800000F0B280012D76D1094D2B682E4623F032
:1037900080532B60FEF7ECFA07462B689B0000F184
:1037A0002E812268150307D5E36B4BB104E000BFFF
:1037B0000038024000700040D0021CD5236CD3B901
:1037C000D6F88830D6F8881003F4403301F0E04191
:1037D0000B43616943EA8113A16943EA0163C6F8B7
:1037E0008830D6F88C30A16A23F4F853013943EAC3
:1037F0000123C6F88C30910215D5E36FB3F1006F49
:1038000011D18649D1F88830D1F8880003F070636F
:1038100000F0E0400343606943EA8013206A43EA12
:103820000043C1F88830120719D57C4AD2F88810B5
:10383000D2F8883001F0706103F440330B436169C2
:1038400043EA8113E16943EA0173C2F88830D2F890
:103850008C30E16A23F440330B43C2F88C306F4C58
:10386000236843F080532360FEF782FA05462368FD
:103870009B0040F1CB80002009E0012658E6FEF7CE
:1038800077FAA0EB080064287FF66AAE032003B045
:10389000BDE8F083226B02F440729A423FF46AAEB4
:1038A0003B6F3A6F23F4407342F480323A673A6FC9
:1038B00022F480323A673B673B6FD8077FF55AAEF8
:1038C000FEF756FA41F2883980463B6F99073FF57B
:1038D00051AEFEF74DFAA0EB08004845F5D9D5E703
:1038E000916821F4F81155E64C4E336823F080635B
:1038F0003360FEF73DFA074633681A0178D4226830
:10390000D30712D5636B83B9D6F88430D6F8841008
:1039100003F4403301F070610B43616843EA8113A3
:10392000A16843EA0173C6F88430170303D5E36B3B
:10393000B3F5801F05D0D6021ED5236CB3F5800FDA
:103940001AD13649D1F88430D1F8840003F44033D9
:1039500000F0E0400343606843EA8013E06843EA14
:103960000063C1F88430D1F88C00636A20F01F0036
:10397000013B0343C1F88C30D00111D52749D1F860
:103980008430D1F8840003F0706300F0E04003431A
:10399000606843EA8013206943EA0043C1F8843039
:1039A00091010DD5236962681B0443EA8213E26822
:1039B00043EA0263A26843EA0273184AC2F88430F9
:1039C000164E336843F080633360FEF7D1F9074643
:1039D00033681A013FF5D6AEFEF7CAF9C01B64285A
:1039E000F6D953E7012E3FF47FAFB3F1007FC7E66E
:1039F000FEF7BEF9C01B64287FF67EAF46E7FEF7F0
:103A0000B7F9C01B64287FF6C8AE3FE7FEF7B0F9F0
:103A1000401B64287FF62BAF38E700BF0038024018
:103A2000836B1A68D36B43F48073D36370470000D1
:103A30002DE9F041044686B015461F4641B9836B17
:103A4000012643F000638363304606B0BDE8F08191
:103A500090F83430012BDEB278D100233A448363EE
:103A6000C06D824204D9A36B43F00073A363EBE7FC
:103A7000D4F800C00322206C4FEA472884F8342091
:103A8000CCF82C30DCF83C2042F49572CCF83C2089
:103A9000304AC263304AC0E913230A464FEA98030A
:103AA0000CF18001FEF7E2FE226860B1D36B23F4D3
:103AB0009573D363294B9363A36B43F08043A36354
:103AC00084F83460C0E7D36A4FF40071104643F0C5
:103AD0000803D362636C012B18BF6D0201F02BFF4A
:103AE00048B123681D4A9A63A36B18430123A0635E
:103AF00084F83430A8E74FF0FF33902204906946F1
:103B00002068CDE900380223CDE902230123059383
:103B100001F0FEFE012F12D982232946206823637B
:103B200001F039FFA0B123680C4A9A63A36B1843D4
:103B30000123A06384F834300023236384E78123C6
:103B400029462068236301F00EFFEBE702267BE79E
:103B5000064679E78B3C00089D400008FF054000C1
:103B60002DE9F041044686B015461E46884641B907
:103B7000836B012743F000638363384606B0BDE8DA
:103B8000F08190F83430012BDFB275D1AB19C16DE3
:103B900000228B42826304D9836B43F000738363FA
:103BA000EBE70323354980F834300068C262C36B09
:103BB00043F01A03C363E36BD9633149C3E91312BA
:103BC000636C4FF40071012B18BF6D0201F0B3FE5E
:103BD0000346206843B12B4A8263A06B0343A3636F
:103BE000012384F83430C8E7012E12D9A0232946D6
:103BF000236301F000FF0546226880B1214B9363E7
:103C00000123A06B0543A56384F8343000232363AC
:103C1000B3E790232946236301F0D5FEEBE7D36A8F
:103C200076028032414643F00803E06B42F8543C90
:103C3000B308FEF71BFE78B12368DA6B22F01A0294
:103C4000DA63104A9A63A36B43F08043A3630123B2
:103C500084F83430256390E74FF0FF3369462068DD
:103C60002F460495CDE900369023CDE90235012396
:103C7000059301F04DFE80E702277EE7213A000818
:103C80009D400008FF054000704710B5846B236B12
:103C9000822B09D1206801F0C7FE28B1A36B18431D
:103CA000A0632046FFF7F0FF23682046DA6A22F07F
:103CB0000802DA6240F23A529A63012384F83430FF
:103CC0000023236302F04FF810BD0000436E9A0FEB
:103CD0000A70C3F383624A70C3F301628A70C3F34C
:103CE0000742CA70C3F30722DBB20A714B71836EBD
:103CF0001A0DCA80C3F303420A72C3F3C0324A7278
:103D0000C3F380328A72C3F34032CA72C3F3003203
:103D10000A7300224A73426C10B5002A6BD140F638
:103D2000FC74C26E04EA830343EA92730B61C2F32C
:103D3000C2630B75C2F302634B75C2F342538B75BA
:103D4000C2F38243C2F3C232CB750A760B690A7E94
:103D5000013302F007020232934043650A7A02F00F
:103D60000F040122A2408265520A5343C3654FF4F7
:103D700000730366C36EC3F380324A76C3F3C61280
:103D800003F07F038A76CB76036F0020DA0F0A7781
:103D9000C3F341724A77C3F382628A77C3F38352D3
:103DA000CA77C3F3405281F82020C3F3004281F860
:103DB000210081F82220C3F3C03281F82320C3F30D
:103DC000803281F82420C3F3403281F82520C3F3E8
:103DD000003281F82620C3F3812281F82720C3F323
:103DE0000122C3F3460381F8282081F829300123FA
:103DF00081F82A3010BD012A0FD11B04B0F86E20C3
:103E000003F47C1313430B610B6901339B0243657D
:103E1000C3654FF400738365ABE70368054A9A6393
:103E2000836B43F080538363012380F8343018465A
:103E3000E0E700BFFF0540002DE9F041002398B006
:103E400004460B93CDE90933CDE9073376230C9370
:103E50000AAB93E8070007AB8DE8070020680ECB9C
:103E600001F010FD054650BB2068436823F48073C1
:103E7000436001F02BFD2068436843F48073436086
:103E8000069501F003FE054698B9206801F024FE6E
:103E900030B12068A56401F0F9FD90B1054608E055
:103EA0000123A3640021206801F052FE60B14FF0AD
:103EB0008055012084F83400A36B1D43A5630125C0
:103EC0009BE0A36C012BEDD04FF6FE760021DFF8CE
:103ED0004481374614E0206801F03AFE0546002888
:103EE000E7D14146206801F04BFE0028DFD129468A
:103EF000206801F00AFD069B0546C10F01330693B9
:103F0000069BB34201D80029E5D0069BBB420CD8E2
:103F1000C5F38075012320686564ADF8163001F0A3
:103F2000DDFC28B94FF080606DE04FF08075C0E790
:103F3000636C032B43D0206801F03BFE002862D164
:103F40000146206801F0E1FC04216067206801F06F
:103F5000DCFC0821A067206801F0D7FC0C21E06799
:103F6000206801F0D2FC636CC4F88000032B26D0DB
:103F70000DF11601206801F047FE002843D1636C63
:103F80002068032B1BD0BDF816102165090401F031
:103F900025FE002837D10146206801F0B6FC042137
:103FA0006066206801F0B1FC0821A066206801F07D
:103FB000ACFC0C21E066206801F0A7FC206704211E
:103FC000206801F0A2FC0DA9000DE0642046FFF777
:103FD0007DFE0546A8B9226D03462068120401F053
:103FE0003DFD80B904F1100393E80700231D8DE81F
:103FF000070020680ECB01F045FC284618B0BDE84C
:10400000F0814FF08050012584F83450A16B0843B3
:10401000A063F2E7000010C110B5044608B9012002
:1040200010BD90F8343003F0FF0213B90277FDF7AA
:1040300079FB0323204684F83430FFF7FDFE002887
:10404000EDD10123A063206384F83430E8E7436CAA
:104050000B60836C4B60C36C8B60036DCB60436DF6
:104060000B61836D4B61C36D8B61036E0020CB616F
:104070007047016D10B509040446006801F016FE92
:1040800030B90146206801F040FCC0F3432010BD68
:10409000A16B0843A0630020F7E7000010B5846B14
:1040A000FEF736FD022826D0236C5A6DE36B012AF9
:1040B0005B6D01D0012B1BD1236820460E4A9A6309
:1040C000DA6B22F49D72DA63A36B43F08043A3633F
:1040D000FFF7CFFF0538012805D8206801F0A4FCC0
:1040E000A36B1843A063012384F8343000232363B7
:1040F0002046FFF7C9FD10BDFF05400010B5846BD9
:1041000040F23A52236820469A63FFF7B2FF012338
:10411000053884F8343000230128236305D820684B
:1041200001F082FCA36B1843A063A36B204613B974
:1041300001F011FE10BDFFF7A7FDFBE72DE9F341EC
:10414000056B04460068436B1F041FD52E071DD561
:10415000E76AC7B1A66A351D06F124082068043550
:1041600001F0ACFB05F8080C030A05F8073C030C4A
:10417000000E05F8063C05F8050C4545EED1203645
:10418000203FA662E76202B0BDE8F081436BD9052B
:1041900044D54FF480732A078363C36B23F44143F0
:1041A00023F03A03C363C36A23F00103C3621AD541
:1041B00015F0220F08D001F037FC28B1A36B18438B
:1041C000A0632046FFF760FD236840F23A52204684
:1041D0009A63012384F8343000232363AB071AD099
:1041E00001F0C1FDCFE72F06CDD5AE0608D501F011
:1041F0001BFC28B1A36B1843A0632046FFF744FDC6
:10420000A807C0D122682046D36A23F00803D362EE
:10421000012384F8343001F0A2FDB4E7436B590464
:1042200026D52A0724D5676A002FACD0266A351D0B
:1042300006F1240815F8043C043501A9206801930F
:1042400015F8072C43EA0223019315F8062C43EADC
:104250000243019315F8052C43EA0263019301F030
:1042600030FB4545E6D12036203F266267628AE76B
:10427000436B13F03A0F86D0436B9B0703D5A36BB8
:1042800043F00203A363436B1F0703D5A36B43F003
:104290000803A363436B9E0603D5A36B43F020037F
:1042A000A363436BD90603D5A36B43F01003A36349
:1042B00040F23A538363C36B23F49D73C36301F0ED
:1042C000B3FBA36B2A0740EA0300A06308D50123D0
:1042D000204684F8343000232363FFF7D5FC52E7EF
:1042E0002B067FF550AF15F0300F0BD0E06B104B65
:1042F0000365FEF73CFB00283FF445AFE06BFFF79A
:10430000FDFE40E715F0030509D0206C094B03655D
:10431000FEF72DFB00283FF436AF206CEFE70123BA
:10432000A563204684F83430256301F014FD2AE7A4
:10433000FD40000839430008FFF7E0BE03685A68F3
:1043400022F0E0025A604268B2F5827F0AD18268A8
:10435000B2F5004F02D0B2F5806F03D11A6822F097
:1043600040021A60826AB2F5005F07D11A6822F42F
:1043700000521A601A6842F400521A60012380F851
:104380005D30002380F85C300320704770B5044630
:104390000D4616462268906810F0800000D170BD6E
:1043A0006B1CF8D0FDF7E4FC801B8542F2D8204658
:1043B000BDE87040FFF7C2BFF8B505460C4616468B
:1043C0001F462B689868204000D1F8BDB4F5C06F37
:1043D00000D11A7B721CF5D0FDF7CAFCC01B8642C7
:1043E000EFD82846BDE8F840FFF7A8BF134642685B
:1043F000B2F5827F73B504460E460BD18268B2F5E2
:10440000004F02D0B2F5806F04D12068026822F01C
:10441000400202601A46314620460193FFF7B6FF7C
:10442000019B054628B1236E032543F02003236634
:1044300012E06268B2F5827F0ED1A268B2F5004F39
:1044400002D0B2F5806F07D132464FF4C0612046EA
:10445000FFF7B2FF0028E6D1284602B070BD37B59D
:10446000134601920D460A464FF4C0510446FFF729
:10447000A3FF019B28B1236E032043F02003236692
:1044800010E01A46294620460193FFF77FFF019B63
:104490000028F0D12A464FF4C0612046FFF78CFF78
:1044A0000028E8D103B030BD70B5044600284AD0DA
:1044B0000023836290F85D3003F0FF021BB980F89F
:1044C0005C20FDF7FFF902232268E56884F85D307F
:1044D0001368B5F5E06F23F0400313604FF000035D
:1044E00033D84FF4805100D0A362236B2BB9B5F5BC
:1044F000E06F8CBF022301232363A069D4E9013656
:1045000033432669334366693343E6693343266A96
:104510003343A66A334300F40076000C334300F0C3
:1045200004001360636A2B43656B2B430343002035
:104530000B435360D36923F40063D36101232066E6
:1045400084F85D3070BD0120FCE71946B5F5706F49
:10455000C9E72DE9F7431F4690F85C3004460D4645
:10456000012B904600F0B280012380F85C30FDF70B
:10457000FFFB94F85D308146012BD8B240F0A48057
:10458000002D5FD0B8F1000F5CD003232668A5632F
:1045900084F85D300023A4F83C8023662364A4F8EB
:1045A0003E80A4F84430A4F84630C4E91333A3682D
:1045B000B3F5004F03D1336843F48043336033686D
:1045C0005B0603D4336843F040033360E2686368FA
:1045D000B2F5E06F3FD913B1B8F1010F07D135F84B
:1045E000023BF360A563E38F013B9BB2E387E38F5C
:1045F0009BB2A3B94A4639462046FFF730FF002850
:104600005FD1A36833B901932368DA6801929B688C
:104610000193019B206E003818BF012012E0226830
:1046200093689D0705D5A36B33F8021BD160A36384
:10463000D9E7FDF79DFBA0EB0900B842D7D3781C62
:10464000D5D00320012384F85D30002384F85C304A
:1046500003B0BDE8F08313B1B8F1010F13D1E38FBC
:104660009BB2012B06D935F8023BF360A563E38FBB
:10467000023B06E02B783373A36B0133A363E38F14
:10468000013B9BB2E387E38F9BB2002BB2D0226841
:10469000936899070CD5E18FA36B89B2012904D9DE
:1046A00033F8021BD160A363E1E71B781373E3E7E0
:1046B000FDF75EFBA0EB0900B842E4D37B1CE2D01F
:1046C000BFE7202323669CE70220BBE70220BFE769
:1046D0002DE9F8431F4690F85C3004460D46012B47
:1046E0001646DDF8208000F01781012380F85C3049
:1046F000FDF73EFB94F85D2081466368012AD1B244
:104700000AD0B3F5827F40F00581A268002A40F00C
:104710000181042940F0FE80002D47D0002E45D0B5
:10472000002F43D094F85D20042A02D0052284F89B
:104730005D20E16800222664B1F5E06F26682266FC
:10474000A4F84470A4F84670A563E787A787C4E976
:104750001322726801D8012F2AD922F48052726084
:104760003268500603D4326842F040023260B1F53C
:10477000E06F58D90BB1012F07D135F8023BF36038
:10478000E38FA563013B9BB2E3870125E38F9BB2D7
:104790008BB9B4F846309BB26BB94A4641462046C5
:1047A000FFF75DFE002836D020232366012032E08B
:1047B00042F48052D3E721688B689A070DD5E38FC6
:1047C0009BB253B14DB1A36B002533F8022BCA60E5
:1047D000A363E38F013B9BB2E3878A6812F0010277
:1047E0000FD0B4F846309BB25BB1C9681546236C54
:1047F00023F8021B2364B4F84630013B9BB2A4F8B3
:104800004630FDF7B5FAA0EB09004045BED3B8F13C
:10481000FF3FBBD00320012384F85D30002384F8E0
:104820005C30BDE8F8830BB1012F0BD1E38F9BB255
:10483000012B53D935F8023BF360E38FA563023BAC
:104840009BB2E3870125E38F9BB223B9B4F84630CE
:104850009BB2002BA1D0226893689B0711D5E38FF0
:104860009BB273B16DB1E18FA36B89B201293DD9C0
:1048700033F8021BD160A363E38F023B9BB2002598
:10488000E3872268936813F001031DD0B4F8461043
:1048900089B2C9B1B4F84600216C80B201282DD983
:1048A000D06821F8020B2164B4F84610023989B2AD
:1048B000A4F84610B4F8461089B2012903D851680B
:1048C00041F4805151601D46FDF752FAA0EB0900FA
:1048D0004045B8D3B8F1FF3FB5D09BE72B78337391
:1048E000A36B0133A363E38F013BA9E71B78137329
:1048F000A36B0133A363E38F013BBFE7127B0A7015
:10490000226C01322264B4F84620013A92B2A4F833
:104910004620D8E702207EE7022082E72DE9F34116
:104920001D46436804468846B3F5827F16460CD17F
:10493000836853B9042380F85D30134600950A4616
:10494000FFF7C6FE02B0BDE8F08194F85C30012BA1
:1049500000F08D80012384F85C30FDF709FA94F8AB
:104960005D300746012BD8B27FD1B8F1000F6AD075
:10497000002E68D00423E268216884F85D300023AB
:10498000B2F5E06FC4F840802366A363A4F84660E4
:10499000A387E387A4F84460C4E913334B688CBF52
:1049A00023F4805343F480534B60A368B3F5004F66
:1049B00003D10B6823F480430B600B685E0603D4BD
:1049C0000B6843F040030B60B2F5E06F23D9B4F8F5
:1049D00046309BB223B323689A68D2073AD5DA6887
:1049E000236C23F8022B2364B4F84630013B9BB2BE
:1049F000A4F84630EBE723689A68D0071BD51B7BE9
:104A0000226C1370236C01332364B4F84630013BED
:104A10009BB2A4F84630B4F846309BB2002BEAD1E2
:104A20003A4629462046FFF7E1FCD8B9206E003807
:104A300018BF012007E0FDF79BF9C01BA842EAD38D
:104A4000691CE8D00320012384F85D30002384F83A
:104A50005C3077E7FDF78CF9C01BA842B7D36B1C1D
:104A6000B5D0EFE720232366E0E70220EBE7022042
:104A700068E700000223026880F83D30084B916827
:104A80000B40062B06D0B3F5803F03D0136843F0EC
:104A900001031360012380F83D300020704700BF00
:104AA000070001000368DA6842F00102DA60074A91
:104AB00099680A40062A06D0B2F5803F03D01A68EA
:104AC00042F001021A600020704700BF0700010099
:104AD000704770477047704703681A69910710B5AF
:104AE00004460FD5DA6892070CD56FF002021A61FE
:104AF000012202779B69990700F08580FFF7E9FFA3
:104B00000023237723681A69520710D5DA68500703
:104B10000DD56FF0040220461A61022222779B69AC
:104B200013F4407F75D0FFF7D4FF00232377236869
:104B30001A6911070FD5DA6812070CD56FF0080251
:104B400020461A6104222277DB699B0767D0FFF7B2
:104B5000C0FF0023237723681A69D00610D5DA68CE
:104B6000D1060DD56FF0100220461A610822227777
:104B7000DB6913F4407F58D0FFF7ABFF00232377A6
:104B800023681A69D20708D5DA68D00705D56FF00F
:104B9000010220461A61FCF7C9FC23681A69110654
:104BA00008D5DA68120605D56FF0800220461A6132
:104BB00000F0C3F823681A69D00508D5DA68110631
:104BC00005D56FF4807220461A6100F0B7F82368AB
:104BD0001A69520608D5DA68500605D56FF040020A
:104BE00020461A61FFF777FF23681A69910622D5DC
:104BF000DA6892061FD56FF0200220461A61BDE8E0
:104C0000104000F099B8FFF763FF2046FFF762FFFE
:104C100076E7FFF75DFF2046FFF75CFF85E7FFF7CC
:104C200057FF2046FFF756FF93E7FFF751FF204657
:104C3000FFF750FFA2E710BD304A0368904212D040
:104C4000B0F1804F0FD0A2F57C4290420BD002F51C
:104C50008062904207D002F58062904203D002F554
:104C60007842904219D14A6823F070031343234AD3
:104C7000904229D0B0F1804F26D0A2F57C429042DC
:104C800022D002F5806290421ED002F580629042EE
:104C90001AD002F57842904216D0194A904213D0A9
:104CA00002F5806290420FD002F5806290420BD0F4
:104CB000A2F59832904207D002F58062904203D06C
:104CC00002F58062904203D123F44073CA68134313
:104CD0004A6923F08003134303608B68C3620B6847
:104CE0008362064B984203D003F58063984201D15A
:104CF0000B69036301234361704700BF000001405B
:104D00000040014010B50446A0B190F83D3003F0DA
:104D1000FF021BB980F83C20FCF708FE0223206844
:104D2000211D84F83D30FFF787FF0123002084F820
:104D30003D3010BD0120FCE77047704770470368A5
:104D40001A6822F490721A609A6822F001029A603E
:104D50002023836700230366704738B5054698B162
:104D600024230024436703681A6822F001021A60B2
:104D70001C605C609C60FCF7F1FE2046EC6785F8E7
:104D800070406C67AC6738BD0120FCE7F8B5876FF1
:104D90000446202F39D129B322B390F87030012B6B
:104DA00033D00125002622234165C66780F8705064
:104DB000A0F858208367C06EB0B1154BD4F800C07E
:104DC000C363144B0364144BC0E9133613460A46FD
:104DD0000CF12401FDF74AFD30B1102384F8706016
:104DE000E367676701200FE02368002084F8700004
:104DF0001A6842F480721A609A6842F001029A605E
:104E00009A6842F040029A60F8BD0220FCE700BFB9
:104E1000974E0008D14E0008DD4E000838B50368F3
:104E20000446426F856F996809061AD5212A18D160
:104E30009A68806E22F080029A6058B1FDF753FDA7
:104E400040B1A06EFDF764FE202803D1102303209B
:104E5000E36738BD2268136823F0C0031360202382
:104E600063672368986810F04000F2D0222D10D1BB
:104E70009A68E06E22F040029A6038B1FDF733FD87
:104E800020B1E06EFDF744FE2028DFD02046FFF77A
:104E900056FF0020DDE708B50346806BDB69B3F5FC
:104EA000807F11D00023A0F85A3003681A6822F4DA
:104EB00080721A609A6822F001029A609A6822F061
:104EC00040029A6020238367FCF71AFB08BD7047F5
:104ED000806B08B5FFF7FBFF08BD7047806B036868
:104EE000426F816F10B59C6824060AD5212A08D12B
:104EF0000022A0F852201A6822F0C0021A60202274
:104F000042679B685B0606D5222904D10023A0F8DE
:104F10005A30FFF714FFC36F43F01003C367FFF766
:104F2000DCFF10BD08B5806B0023A0F85A30A0F854
:104F30005230FFF7D2FF08BD70470000036870B51C
:104F4000DA6940F60F061968044632429D6809D1B5
:104F5000960670D58E066ED5036E002B66D0BDE822
:104F60007040184705F0010001F49076064362D0C6
:104F7000D50707D5CE0505D501251D62E56F45F09E
:104F80000105E567950706D528B102251D62E56F85
:104F900045F00405E567560706D528B104251D62CE
:104FA000E56F45F00205E567150709D501F0200515
:104FB000284305D008201862E06F40F00800E06741
:104FC000160508D54D0106D54FF400601862E36F51
:104FD00043F02003E367E36F43B3900605D58906EA
:104FE00003D5236E0BB12046984723682046E56F12
:104FF0009B6805F0280503F040031D4317D0FFF719
:105000009EFE23689A6852060DD59A68E06E22F0DB
:1050100040029A6038B11A4B0365FDF7A8FC28B12D
:10502000E06E036D9BE72046FFF757FF70BDFFF76B
:1050300054FFE567FAE7D60208D5680206D54FF4B3
:10504000801220461A62FFF777FFEFE7160606D5B3
:105050000D0604D5636E002BE8D020467FE750068E
:10506000E4D54A06E2D51A68204622F040021A60CA
:105070002023636700236366FCF756FAD6E700BF78
:10508000254F00080268816838B50446C369006985
:1050900015680143606901439F4819432840256A08
:1050A0000143E0681160516821F4405101435160AF
:1050B000A1699068294320F43060014391609749C9
:1050C0008A421CD1964AD2F8902002F00302013A9B
:1050D000022A00F203819349B3F5004F8A5C40F045
:1050E000AC80082A00F29E80DFE812F00101FB008C
:1050F000E9009C00F5009C009C009C0031008A495E
:105100008A4206D1864A8949D2F8902002F00C02E0
:10511000E2E787498A421FD1814AD2F8902002F003
:105120003002202A00F0C8800BD8002A00F0DC8072
:10513000102A00F0CD80B3F5004F73D0012000237A
:105140009DE0302AF7D1B3F5004F40F0B08062689F
:10515000530803F58033B8E076498A420FD1704A8C
:10516000D2F8902002F0C002802A00F0A58004D876
:10517000002A00F0B980402ADBE7C02AE2E76E4946
:105180008A4212D1664AD2F8902002F44072B2F5F7
:10519000007F00F0918005D8002A00F0A580B2F5CC
:1051A000807FC6E7B2F5407FCCE764498A4211D1DF
:1051B0005B4AD2F8902002F44062B2F5006F7BD0D7
:1051C00005D8002A00F08A80B2F5806FB1E7B2F509
:1051D000406FB7E75A498A4210D1514AD2F890201D
:1051E00002F44052B2F5005F66D004D8002A7BD0AA
:1051F000B2F5805F9DE7B2F5405FA3E751498A426F
:1052000099D1474AD2F8902002F44042B2F5004FBB
:1052100052D004D8002A67D0B2F5804F89E7B2F5A2
:10522000404F8FE7012000236BE023F00F02C3F310
:10523000420321681343CB606AE0082A3FF67EAF41
:1052400001A353F822F000BF6D52000891520008EC
:10525000975200083D510008A95200083D5100082E
:105260003D5100083D510008AF520008FEF7E6F836
:10527000636800EB5300B0FBF3F39BB20020A3F193
:1052800010014FF6EF72914241D82268D3603FE09F
:10529000FEF7E4F8ECE76268530803F5740303F5DE
:1052A0001053B3FBF2F3E8E7FDF7FAFFE0E76268BB
:1052B000530803F50043F4E7B3F5004FEBD1626800
:1052C000530803F1F47303F59043B3FBF2F316E0D4
:1052D000B3F5004FE8D1FDF7E3FF0AE0B3F5004F67
:1052E000D6D1FEF7BBF804E0B3F5004FBED1FEF710
:1052F000A5F863685A0802EB4000B0FBF3F39BB2D9
:105300000020A3F110014FF6EF7291428DD90120D8
:105310000023C4E9183338BDF369FFEF00100140E2
:1053200000380240795A0108004400407C5A0108C4
:1053300000480040004C0040005000400014014074
:1053400000780040007C0040436ADA0710B506D5BB
:105350000168846A4A6822F4003222434A609C074A
:1053600006D50168C46A4A6822F4803222434A6042
:10537000590706D50168046B4A6822F4802222434B
:105380004A601A0706D50168446B4A6822F4004255
:1053900022434A60DC0606D50168846B8A6822F4E1
:1053A000805222438A60990606D50168C46B8A68D8
:1053B00022F4005222438A605A0610D50168046C18
:1053C0004A68B4F5801F22F4801242EA04024A605F
:1053D00005D14A68446C22F4C00222434A601B068D
:1053E00006D50268816C536823F400230B43536095
:1053F00010BD2DE9F041DDF8188004460E46154633
:105400001F462268D36936EA03030CBF0123002339
:10541000AB4201D000201AE0B8F1FF3FF2D0FCF718
:10542000A7FCC01B40452068036802D8B8F1000FF4
:105430000FD123F4D0730360836823F001038360EA
:1054400020236367A3670023032084F87030BDE83E
:10545000F0815A07D5D5C3691B05D2D54FF4006337
:105460000362036823F4D0730360836823F00103AD
:10547000836020236367A367E367E4E72DE9FF41C7
:105480009846436F04460E46202B17464DD10029FF
:1054900049D0002A47D090F87030012B45D0012325
:1054A000002580F870302123C5674367FCF760FC56
:1054B000A2680346A4F85070B2F5805FA4F8527059
:1054C00003D122690AB935461646002284F87020B5
:1054D000B4F85220CDF8008092B23AB9402120466B
:1054E000FFF787FF50B92023636708E0002280217F
:1054F00020460393FFF77DFF039B18B1032004B000
:10550000BDE8F08121685EB935F8022BC2F30802CC
:105510008A62B4F85220013A92B2A4F85220D7E736
:1055200016F8012BF4E70120E9E70220E7E72DE96F
:10553000F7431F46836F04460D46202B164666D15F
:10554000002962D0002A60D090F87030012B5ED024
:1055500001234FF0000880F870302223C0F87C80CF
:105560008367FCF705FCA3688146A4F85860B3F58F
:10557000805FA4F85A601CD12269C2B940F2FF12C0
:10558000A4F85C20B3F5805FB4F85C8022D1236975
:1055900003BB2E461D46002384F87030B4F85A2011
:1055A00090B2C8B92023A36703B0BDE8F083FF22FF
:1055B000E6E723B92269002AF9D07F22E0E7B3F1B8
:1055C000805F04D12269002AF7D03F22D8E7A4F8EF
:1055D0005C80D7E70026DEE74B46002220212046EC
:1055E0000097FFF706FFA0B923685B6A08EA030388
:1055F00045B926F8023BB4F85A20013A92B2A4F811
:105600005A20CBE705F8013BF5E70120CCE7022063
:10561000CAE70320C8E730B50025044685B0C56752
:10562000FCF7A6FB226803461268110714D422680F
:105630001268520709D56FF07E424FF48001204670
:1056400000920022FFF7D5FE98B92023002063675F
:1056500084F87000A3670DE06FF07E4203904FF472
:105660000011204600922A46FFF7C3FE039B002844
:10567000DDD0032005B030BD10B5044640B3436F04
:105680001BB980F87030FCF765F9226824232046A6
:105690006367136823F001031360FFF7F3FC01282D
:1056A00016D0636A13B12046FFF74EFE23682046EA
:1056B0005A6822F490425A609A6822F02A029A604C
:1056C0001A6842F00102BDE810401A60FFF7A3BF5C
:1056D000012010BD114B4FF4FA5102461B68B3FB79
:1056E000F1F141F288334B43013B13D3516B11F07D
:1056F000450FF9D00905F7D4536B5B0702D5042099
:1057000090637047506B10F0010014BF0123C52354
:10571000936370474FF00040704700BF00000020C7
:105720000F4B4FF4FA5102461B68B3FBF1F141F203
:1057300088334B43013B0FD3516B11F0450FF9D028
:105740000905F7D4506B10F0040002D004209063D8
:105750007047C523936370474FF00040704700BF08
:1057600000000020454B10B51B6804464FF4FA506A
:10577000B3FBF0F35A43002A49D0636B13F0450F93
:1057800007D01B0505D4636B580704D50420A0631C
:1057900010BD013AEFE7606B10F0010002D0012369
:1057A000A363F5E7C523A3632369DBB2994231D133
:1057B0006369334818400028EAD0002B2CDB5A00DC
:1057C0002DD49C002DD4D9002DD41A012ED45C01E7
:1057D0002FD4D90130D41A0231D45C0232D49902C8
:1057E00033D4DA0234D45C0335D4990336D4DA03E3
:1057F00037D41C0438D4590439D49A043AD413F059
:10580000080F14BF4FF400004FF48030C0E74FF092
:105810000040BDE70120BBE74FF00070B8E7402033
:10582000B6E78020B4E74FF48070B1E74FF4007022
:10583000AEE74FF48060ABE74FF40060A8E74FF4A9
:105840008050A5E74FF40050A2E74FF480409FE757
:105850004FF400409CE74FF4003099E74FF480206C
:1058600096E74FF4002093E74FF4801090E74FF451
:1058700000108DE74FF480008AE700BF0000002091
:1058800008E0FFFD84B010B503AC84E80E000B46C1
:10589000049942680B43059922F4FD420B43069993
:1058A00022F07F020B4307990B4308990B43BDE895
:1058B0001040134304B0436000207047D0F88000CC
:1058C00070470B68C0F880300020704708B503238C
:1058D00003600220FCF752FA002008BD006800F0C7
:1058E000030070470B6810B58360C268D1E90134CA
:1058F00022F47F622343CC68096922F00F0223431C
:105900000B431343C360002010BD14304058704750
:105910000B6810B543624B688362C26AD1E90234F6
:1059200022F0F70223430C69496923430B431343D5
:10593000C362002010BD30B5402387B0102500227F
:105940000446019101A9CDE902534FF48063CDE9EA
:105950000423FFF7C7FF41F2883229462046FFF7AC
:1059600001FF07B030BD30B5402387B011250022BC
:105970000446019101A9CDE902534FF48063CDE9BA
:105980000423FFF7AFFF41F2883229462046FFF794
:10599000E9FE07B030BD30B5402387B012250022A4
:1059A0000446019101A9CDE902534FF48063CDE98A
:1059B0000423FFF797FF41F2883229462046FFF77C
:1059C000D1FE07B030BD30B5402387B01825002286
:1059D0000446019101A9CDE902534FF48063CDE95A
:1059E0000423FFF77FFF41F2883229462046FFF764
:1059F000B9FE07B030BD30B5402387B0192500226D
:105A00000446019101A9CDE902534FF48063CDE929
:105A10000423FFF767FF41F2883229462046FFF74B
:105A2000A1FE07B030BD000030B5002387B00C25C3
:105A30004022044601A9CDE90323CDE901354FF405
:105A400080630593FFF74EFF034A29462046FFF780
:105A500089FE07B030BD00BF00E1F50530B5402339
:105A600087B0072504460192002201A9CDE902531F
:105A70004FF48063CDE90423FFF734FF41F288320D
:105A800029462046FFF76EFE07B030BD10B5002353
:105A900086B0044601A9CDE90133CDE903334FF4C3
:105AA00080630593FFF71EFF0A4B4FF4FA521B6801
:105AB000B3FBF2F241F288335343013B07D3626BED
:105AC0001206FAD5C5230020A36306B010BD4FF01F
:105AD0000040FAE70000002010B54FF4D57C86B0F6
