:100000000C944A000C945C000C945C000C945C0012
:100010000C945C000C945C000C945C000C945C00F0
:100020000C945C000C945C000C945C000C945C00E0
:100030000C946D080C945C000C945C000C945C00B7
:100040000C945C000C945C000C94CD060C945C0049
:100050000C945C000C945C000C945C000C945C00B0
:100060000C945C000C945C000C945C000C945C00A0
:100070000C94E9080C945C000C945C000C945C00FB
:100080000C945C000C945C000C945C000C945C0080
:100090000C945C0011241FBECFEFD8E0DEBFCDBFB3
:1000A00022E0A0E0B1E001C01D92A232B207E1F768
:1000B0000E944B040C94DA0A0C940000EF92FF9219
:1000C0000F931F93CF93DF938C0181E08093D8002F
:1000D0001092DB0090E06DEE70E04FEE50E0CEEE5F
:1000E000D0E0A4EFB0E00F2EF0EFEF2EF12CF02DCA
:1000F000292F2295207FFB012083FA01108218828C
:100100001D921D921D921C921397F701108211826D
:10011000128213829F5F9F3059F70A3F110511F138
:100120003CF40436110591F10D37110529F138C061
:10013000043FF1E01F0761F0083E134089F510927B
:10014000E2008CE08093E30086E38093E40031C01A
:1001500082E08093E2008CE08093E30087E3809369
:10016000E40027C086E08093E2008CE08093E30007
:1001700087E38093E4001DC08EE08093E2008CE072
:100180008093E30087E38093E40013C082E18093CF
:10019000E2008CE08093E30087E38093E40009C0F1
:1001A0008EE08093E2008CE08093E30087E380930D
:1001B000E40080EB8093DB00E8EDF0E0808182607A
:1001C00080838091D90082FD0DC080E197E2E9ED46
:1001D000F0E025E32A95F1F70000208122FD02C01E
:1001E0000197B9F78091D90082FB882780F9DF91C8
:1001F000CF911F910F91FF90EF900895CF93FC0145
:10020000C091ED002091DC003091DD00408181E063
:1002100090E0042E02C0880F991F0A94E2F782230F
:100220009323892B09F0C3C04295407F4093ED0092
:100230008185882309F451C081819281A381B48191
:10024000880F991FAA1FBB1F880F991FAA1FBB1FCA
:10025000880F991FAA1FBB1F2685822B438550E05C
:10026000440F551F440F551F052E000C660B770BCE
:10027000842B952BA62BB72B8093F0009093F10045
:10028000A093F200B093F30085819681A781B08599
:10029000880F991FAA1FBB1F880F991FAA1FBB1F7A
:1002A000880F991FAA1FBB1F2285822B448550E00F
:1002B000440F551F440F551F052E000C660B770B7E
:1002C000842B952BA62BB72B8093F4009093F500ED
:1002D000A093F600B093F7004AC081819281A38178
:1002E000B481072E75E1880F991FAA1FBB1F7A954D
:1002F000D1F7702D2685822B438550E0440F551F82
:10030000440F551F052E000C660B770B842B952B85
:10031000A62BB72B8093F0009093F100A093F200EE
:10032000B093F30085819681A781B085072E75E192
:10033000880F991FAA1FBB1F7A95D1F7702D2285B0
:10034000822B448550E0440F551F440F551F052E46
:10035000000C660B770B842B952BA62BB72B809369
:10036000F4009093F500A093F600B093F700AEED83
:10037000B0E02D913C91119781E090E0008002C0A7
:10038000880F991F0A94E2F7822B932B11969C9366
:100390008E93818520E1829FC0011124958590680C
:1003A000892B8093EF00C093ED0081E001C080E0D5
:1003B000CF9108951F93CF93DF93DC01F8941091B0
:1003C000ED002091DC003091DD0081E090E0062E10
:1003D00002C0880F991F0A94E2F782239323892B86
:1003E00031F081B3805881BB789480E065C062951C
:1003F000607F6093ED0014968C91149781FF1AC072
:100400004D915D916D917C911397440F551F661F1F
:10041000771F440F551F661F771F440F551F661F18
:10042000771F4093F0005093F1006093F2007093B7
:10043000F30016C04D915D916D917C911397032E41
:1004400035E1440F551F661F771F3A95D1F7302DC0
:100450004093F0005093F1006093F2007093F3002A
:1004600015968C911597882389F0FD01369640E00A
:1004700050E0CAEFD0E0919198834F5F5F4F15969F
:100480002C91159730E042175307ACF31092EE0011
:1004900014968C91149781FF06C015968C918065F7
:1004A0008093EF0005C015968C9180648093EF00D7
:1004B0001093ED00789481E0DF91CF911F91089522
:1004C0008F92AF92CF92EF92FF920F931F93CF93A1
:1004D000DF93CDB7DEB7FC01608321833283438392
:1004E0005483E582F68207831087C186A2868786B9
:1004F0008C8585878D8583878E8584878F85868784
:10050000DF91CF911F910F91FF90EF90CF90AF901F
:100510008F900895EF920F93DC014D935D936D934F
:100520007C93139714968C91149720FB81F9E0FA31
:1005300080F914968C93149715960C9315970023B5
:1005400071F0FD0136960150202F30E0295F3F4FBA
:10055000CD01820F931F1192E817F907E1F70F9170
:10056000EF900895829A809A8198889A8A9A08953D
:10057000889885E08A95F1F700002FE030E040E0B0
:1005800050E061E070E08A9816BC96B59134E8F3CB
:100590008A9A16BC96B59134E8F3799B09C0CB01D1
:1005A000022E02C0880F991F0A94E2F7482B592B9C
:1005B0002150310940F7889A8A9ACA0108959B010F
:1005C000BC01621B730BCAF5883C910504F5A901B7
:1005D00048535F43483C5105D0F4BC01621B730B88
:1005E0006150704C623071050CF462C0072E000C33
:1005F000880B990B0E94CC092091090130910A01C6
:1006000040910B0150910C010E94580A08956F3FD0
:100610004FEF74070CF050C0072E000C880B990B9D
:100620000E94CC092091090130910A0140910B01EF
:1006300050910C010E94580A0895161617060CF0E6
:100640003FC088334FE39407FCF0283C3105E4F4C5
:10065000281B390B2150304C22303105ACF1662774
:100660007727621B730B072E000C880B990B0E94D7
:10067000CC092091090130910A0140910B01509160
:100680000C010E94580A0895623071050CF1072E82
:10069000000C880B990B0E94CC0920910901309124
:1006A0000A0140910B0150910C010E94580A0895D3
:1006B00060E070E0CB01089560E070E0CB01089548
:1006C00060E070E0CB01089560E070E0CB01089538
:1006D00060E070E0CB01089520E030E060E070E081
:1006E000AC01022E02C0569547950A94E2F740FFEE
:1006F00005C020FF02C07F5F01C06F5F2F5F3F4FCB
:100700002E30310569F770FF03C020E030E002C0F1
:1007100020E030E860FF30648827907C2817390794
:1007200011F082E0089580E00895CF93DF930E9456
:10073000B802EC010E946C0380930201882341F00F
:1007400080910001863978F4865F8093000107C0AC
:1007500080910001882389F081508093000180916D
:100760000001863920F082E08093010108C08233C5
:1007700020F081E08093010102C010920101DF733B
:1007800080910701882349F0809117019091180109
:10079000C81BD90BCE019F7309C08091170190919E
:1007A00018019C012C1B3D0BC9019F73DF91CF9158
:1007B0000895CF93DF93809107018130E1F5809117
:1007C000A2019091A301A091A401B091A501813053
:1007D000910521E0A207B10509F5C2EDD1E081E064
:1007E0008E8366E0CE010E94DA011E820E94B8026A
:1007F0009F739093180180931701692F80E090E018
:100800000E94CD0A6091170181E090E00E94CD0A1C
:1008100062E082E090E00E94CD0A3AC0893920E18E
:100820009207A105B10529F089399340A105B105C9
:1008300079F5409A2DC08091A2019091A301A091D9
:10084000A401B091A5010297A140B10509F5C2ED3F
:10085000D1E081E08E8366E0CE010E94DA011E8243
:100860000E94B802905E9F739093180180931701C5
:10087000692F80E090E00E94CD0A6091170181E02D
:1008800090E00E94CD0A62E082E090E00E94CD0AF2
:10089000DF91CF910895CF93DF9300D000D0CDB7F3
:1008A000DEB7E6E8F1E080818B7F8083879A8F98BE
:1008B000869A8E984098389A5F984F9B04C081E042
:1008C0008093070102C0109207010E94B20282E0E9
:1008D00090E00E94C50A8230C9F480E090E00E9456
:1008E000C50A282F30E0922F88279A838983909316
:1008F00018018093170181E090E00E94C50AE98108
:10090000FA81E82BF0931801E09317018AEF90E049
:100910000E945E00809107018823D1F11F921F92EF
:100920001F92F1E0FF9388248394A12CCC24C394DC
:10093000EE24EA94FE2C0FEF1FE121E030E0A90144
:1009400061E082E791E00E9460021F921F921F9275
:1009500021E02F93AA24A39429E930E140E050E05C
:1009600064E082E291E00E9460021F921F921F9257
:10097000CF9229E933E040E050E069E082E991E07C
:100980000E9460020FB6F894DEBF0FBECDBF1CC040
:100990001F921F921F9281E08F9388248394A12C31
:1009A000CC24C394EE24EA94FE2C0FEF1FE122E046
:1009B00030E041E050E061E082E791E00E946002B7
:1009C0000F900F900F900F9082E791E00E94FE0031
:1009D00080910701882309F447C082E291E00E94D8
:1009E000FE0082E991E00E94FE00809107018823C9
:1009F000D9F1E12C03E021E041E051E060E070E05A
:100A000082EC91E00E948A0221E045E051E060E042
:100A100070E082EF91E00E948A0202E021E043E070
:100A200051E060E070E082E192E00E948A0201E021
:100A300021E043E151E060E070E082ED91E00E944E
:100A40008A0221E041E151E060E070E082EE91E055
:100A50000E948A0221E049E951E060E070E082EB07
:100A600091E00E948A023AC0E12C03E021E042E0DA
:100A700051E060E070E082EC91E00E948A0221E0A7
:100A800046E051E060E070E082EF91E00E948A026F
:100A900002E021E044E051E060E070E082E192E0B9
:100AA0000E948A0201E021E044E151E060E070E050
:100AB00082ED91E00E948A0221E042E151E060E093
:100AC00070E082EE91E00E948A0221E049E950E064
:100AD00060E070E082EB91E00E948A028091070161
:100AE000882369F086E595E5A0E5BFE380930901D9
:100AF00090930A01A0930B01B0930C010CC08BE9F9
:100B000098E5A8EDBFE38093090190930A01A093B3
:100B10000B01B0930C01F89481E084BD16BC85E014
:100B20008093810080910701882339F082ED90E065
:100B3000909389008093880006C084E690E09093AB
:100B4000890080938800109285001092840082E0D2
:100B500080936F0085E08093910080E594E190930D
:100B60009900809398001092950010929400E1E70C
:100B7000F0E080818260808378940F2EF2E8EF2E7F
:100B8000F1E0FF2EF02D0F2EF2EACF2EF1E0DF2E56
:100B9000F02D0F2EF6EA2F2EF1E03F2EF02D4424FB
:100BA00043946894552454F86894662461F8712C31
:100BB00080912101882309F499C080911D019091B1
:100BC0001E0190931C0180931B01F8941092210147
:100BD00078940E94950390931A0180931901909341
:100BE0001E0180931D0180910201882361F0809194
:100BF0001B0190911C0190931A018093190190930D
:100C00001E0180931D018090110190901201A0900F
:100C10001301B090140180920D0190920E01A092E8
:100C20000F01B092100100911D0110911E01609101
:100C30001B0170911C01C8010E94DF0220E030E01E
:100C400040E05FE30E94580A69837A838B839C8328
:100C500020E030E040E05FE3C501B4010E94580AA3
:100C60009B01AC0169817A818B819C810E9428095A
:100C700060931101709312018093130190931401FA
:100C800020E030E048EC52E40E94280920E030E007
:100C900048EC52E40E94580A0E949409709316018D
:100CA000609315010530110520F470921A016092CD
:100CB00019010D3F9FE3190720F070921A0160920D
:100CC000190180910701811111C00130E0E11E0777
:100CD00020F450921A01409219010115104330F08E
:100CE0002FEF3FE230931A0120931901E6E8F1E07B
:100CF000808182FF33C0F70180819181A281B3811D
:100D0000F60180839183A283B383E6E8F1E08081DA
:100D100086958170F101908180FB91F99083F701B4
:100D20002581F601258330E01216130674F4E8EAF3
:100D3000F1E080E090E0DC01AE57BE4F16964C919A
:100D40004193019682179307B1F7F894E6E8F1E032
:100D500080818B7F808378940E94D90380911F01CA
:100D6000882309F425CFF89410921F01789491B349
:100D700080E4892781BB809101018093E80162E0D2
:100D800082EE91E00E94DA0181E08093B80167E091
:100D900082EB91E00E94DA010BCF1F920F920FB607
:100DA0000F9211242F933F934F938F939F93AF9361
:100DB000BF93CF93DF93EF93FF9380910701882335
:100DC00041F010920301109204011092050110925B
:100DD00006014091ED008091E0009091E10081FFDB
:100DE00075C08091860182FD63C080E18093ED0033
:100DF0008091EF0084FF1EC08091F0009091F1007F
:100E0000A091F200B091F300689412F8B695A795FE
:100E1000979587951694D1F78093820190938301DB
:100E2000A0938401B0938501E6E8F1E080818260BF
:100E300080831EC08091F0009091F100A091F2009B
:100E4000B091F300072E75E1B695A7959795879514
:100E50007A95D1F7702D8093820190938301A093AE
:100E60008401B0938501E6E8F1E080818D7F808385
:100E70008091EF008F70E2E8F1E08583858188231F
:100E800091F080E090E0CAEFD0E0DF012881FC0122
:100E9000EE57FE4F2683019615962C91159730E05C
:100EA000821793079CF3E6E8F1E0808184608083F9
:100EB0001092EE008091EF0084FF04C080E98093DF
:100EC000EF00F9C080E88093EF00F5C08091E0006A
:100ED0009091E10084FF75C08091860182FD63C01E
:100EE00080E48093ED008091EF0084FF1EC080912C
:100EF000F0009091F100A091F200B091F30068949D
:100F000012F8B695A795979587951694D1F7809383
:100F1000820190938301A0938401B0938501E6E858
:100F2000F1E08081826080831EC08091F00090910A
:100F3000F100A091F200B091F300072E75E1B69593
:100F4000A795979587957A95D1F7702D8093820113
:100F500090938301A0938401B0938501E6E8F1E0CA
:100F600080818D7F80838091EF008F70E2E8F1E0D7
:100F700085838581882391F080E090E0CAEFD0E0FE
:100F8000DF012881FC01EE57FE4F2683019615965E
:100F90002C91159730E0821793079CF3E6E8F1E077
:100FA0008081846080831092EE008091EF0084FF46
:100FB00004C080E98093EF007EC080E88093EF005A
:100FC0007AC08091E0009091E10091FF74C080911F
:100FD000860182FD63C080E98093ED008091EF007F
:100FE00084FF1EC08091F0009091F100A091F2006A
:100FF000B091F300689412F8B695A79597958795E8
:101000001694D1F78093820190938301A093840179
:10101000B0938501E6E8F1E08081826080831EC0A4
:101020008091F0009091F100A091F200B091F30056
:10103000072E75E1B695A795979587957A95D1F77F
:10104000702D8093820190938301A0938401B093CB
:101050008501E6E8F1E080818D7F80838091EF005B
:101060008F70E2E8F1E085838581882391F080E04C
:1010700090E0CAEFD0E0DF012881FC01EE57FE4F7F
:101080002683019615962C91159730E082179307C9
:101090009CF3E6E8F1E08081846080831092EE00AA
:1010A0008091EF0084FF04C080E98093EF0003C0CB
:1010B00080E88093EF004093ED00FF91EF91DF9186
:1010C000CF91BF91AF919F918F914F913F912F9170
:1010D0000F900FBE0F901F9018951F920F920FB692
:1010E0000F9211242F933F934F935F936F937F93AE
:1010F0008F939F93AF93BF93EF93FF9381E0809380
:10110000210180912001813009F049C080910801BE
:101110008F5F8093080190911D0180911E01E2EC88
:10112000F1E09683878380910201808720911901E5
:1011300090911A01E2EFF1E02683978380879091E6
:10114000150180911601E2E1F2E09683878360E069
:1011500082EC91E00E94DA0165E082E192E00E9477
:10116000DA0180910701882361F0809108018230C3
:1011700099F41092080168E082EF91E00E94DA0190
:101180000BC080910801843039F41092080168E0A6
:1011900082EF91E00E94DA011092200105C0809157
:1011A00020018F5F809320011092850010928400AF
:1011B000FF91EF91BF91AF919F918F917F916F912F
:1011C0005F914F913F912F910F900FBE0F901F9005
:1011D00018951F920F920FB60F9211248F939F9321
:1011E000AF93BF9381E080931F0180910701882313
:1011F00009F18091030190910401A0910501B09142
:1012000006010C97A105B105A0F48091030190910E
:101210000401A0910501B09106010196A11DB11D27
:101220008093030190930401A0930501B0930601FC
:1012300001C040981092950010929400BF91AF9118
:101240009F918F910F900FBE0F901F90189550583F
:10125000BB27AA270E943F090C941E0A0E94100A6D
:1012600038F00E94170A20F039F49F3F19F426F451
:101270000C940D0A0EF4E095E7FB0C94070AE92F95
:101280000E942F0A58F3BA1762077307840795075D
:1012900020F079F4A6F50C94510A0EF4E0950B2E8B
:1012A000BA2FA02D0B01B90190010C01CA01A001B8
:1012B0001124FF27591B99F0593F50F4503E68F113
:1012C0001A16F040A22F232F342F4427585FF3CF54
:1012D000469537952795A795F0405395C9F77EF425
:1012E0001F16BA0B620B730B840BBAF09150A1F06E
:1012F000FF0FBB1F661F771F881FC2F70EC0BA0FF4
:10130000621F731F841F48F4879577956795B7957B
:10131000F7959E3F08F0B0CF9395880F08F0992776
:10132000EE0F9795879508950E949B096894B111D7
:101330000C94520A08950E94370A88F09F5798F03B
:10134000B92F9927B751B0F0E1F0660F771F881FCA
:10135000991F1AF0BA95C9F714C0B13091F00E94E4
:10136000510AB1E008950C94510A672F782F88270D
:10137000B85F39F0B93FCCF3869577956795B3950B
:10138000D9F73EF490958095709561957F4F8F4F7A
:101390009F4F0895E89409C097FB3EF4909580957F
:1013A000709561957F4F8F4F9F4F9923A9F0F92F2B
:1013B00096E9BB279395F695879577956795B795A9
:1013C000F111F8CFFAF4BB0F11F460FF1BC06F5F8F
:1013D0007F4F8F4F9F4F16C0882311F096E911C0A1
:1013E000772321F09EE8872F762F05C0662371F0C2
:1013F00096E8862F70E060E02AF09A95660F771FD6
:10140000881FDAF7880F9695879597F9089597F9C9
:101410009F6780E870E060E008959FEF80EC08959A
:1014200000240A94161617061806090608950024C3
:101430000A9412161306140605060895092E03943D
:10144000000C11F4882352F0BB0F40F4BF2B11F4B1
:1014500060FF04C06F5F7F4F8F4F9F4F089557FD10
:101460009058440F551F59F05F3F71F04795880F12
:1014700097FB991F61F09F3F79F0879508951216A9
:1014800013061406551FF2CF4695F1DF08C0161655
:1014900017061806991FF1CF869571056105089406
:1014A0000895E894BB2766277727CB0197F908951D
:1014B0000E946B0A0C941E0A0E94100A38F00E94C7
:1014C000170A20F0952311F00C94070A0C940D0ACA
:1014D00011240C94520A0E942F0A70F3959FC1F3B5
:1014E000950F50E0551F629FF001729FBB27F00DD2
:1014F000B11D639FAA27F00DB11DAA1F649F662727
:10150000B00DA11D661F829F2227B00DA11D621F75
:10151000739FB00DA11D621F839FA00D611D221F2F
:10152000749F3327A00D611D231F849F600D211D13
:10153000822F762F6A2F11249F5750409AF0F1F096
:1015400088234AF0EE0FFF1FBB1F661F771F881FFF
:1015500091505040A9F79E3F510580F00C94070A26
:101560000C94520A5F3FE4F3983ED4F38695779546
:101570006795B795F795E7959F5FC1F7FE2B880FA5
:10158000911D9695879597F90895F999FECF92BD8B
:1015900081BDF89A992780B50895262FF999FECF35
:1015A00092BD81BD20BD0FB6F894FA9AF99A0FBE8C
:0815B00001960895F894FFCFA5
:00000001FF
