:020000040040BA
:10000000E0344020D101400055024000550240003C
:10001000550240005502400055024000000000001B
:100020000000000000000000000000005502400039
:1000300055024000000000005502400055024000FB
:100040005502400055024000550240005502400054
:100050005502400055024000693240005502400000
:10006000550240000000000081424000550240005F
:100070000000000055024000550240000000000052
:100080005502400000000000000000005502400042
:100090005502400000000000550240007D5640001F
:1000A0005502400055024000000000000000000022
:1000B0000000000071294000550240005502400038
:1000C0005502400055024000550240003D3E4000B0
:1000D00055024000000000000000000055024000F2
:1000E0008D29400000000000000000005502400083
:1000F0005502400000000000000000000000000069
:1001000000000000000000005502400055024000C1
:100110005502400000000000000000000000000048
:100120005502400055024000550240005502400073
:10013000DD4C400055024000000000005502400028
:100140005502400055024000550240005502400053
:100150005502400010B5054C237833B9044B13B158
:100160000448AFF300800123237010BD70024020CB
:1001700000000000F0C940000C4B43B10C480D4991
:1001800010B5AFF300800C48036823B910BD0A48CE
:10019000036833B97047094B002BF7D0BDE8104016
:1001A0001847064B002BF5D0184700BF0000000091
:1001B000F0C9400074024020F0C940000000000077
:1001C00080B500AF014B984700BF80BD090C4000CF
:1001D00080B582B000AF164B7B60164B3B607A68EF
:1001E0003B689A420CD007E03B681A1D3A607A6877
:1001F000111D796012681A603B680F4A9342F3D36D
:100200000E4B3B6004E03B681A1D3A6000221A6006
:100210003B680B4A9342F6D30A4B7B600A4A7B68E1
:1002200023F07F039360094B9847094B9847FEE7FB
:10023000F0C94000000040207002402070024020C1
:10024000E02E40200000400000ED00E0BDC5400071
:100250008559400080B400AFFEE780B483B000AFA2
:10026000786039607B68D3F814213B681A437B6857
:10027000C3F8142100BF0C37BD465DF8047B7047FE
:1002800080B483B000AF786039607B683A681A60E8
:1002900000BF0C37BD465DF8047B704780B483B067
:1002A00000AF786039607B683A685A6000BF0C37ED
:1002B000BD465DF8047B704780B483B000AF7860C2
:1002C00039607B683A681A6100BF0C37BD465DF83B
:1002D000047B704780B483B000AF786039607B687E
:1002E0003A685A6100BF0C37BD465DF8047B704721
:1002F00080B483B000AF786039607B683A681A6375
:1003000000BF0C37BD465DF8047B704780B483B0F6
:1003100000AF786039607B683A685A6300BF0C3779
:10032000BD465DF8047B704780B483B000AF786051
:1003300039607B683A685A6600BF0C37BD465DF885
:10034000047B704780B483B000AF786039607B680D
:100350003A681A6600BF0C37BD465DF8047B7047EB
:1003600080B483B000AF786039607B683A68C3F8C6
:10037000942000BF0C37BD465DF8047B704780B405
:1003800083B000AF786039607B683A68C3F890202A
:1003900000BF0C37BD465DF8047B704780B485B064
:1003A00000AFF8600B467A60FB72FA7AF97AFB6864
:1003B0001C3153F821107B681943FB681C3243F849
:1003C000221000BF1437BD465DF8047B704780B42F
:1003D00085B000AFF8600B467A60FB72FA7AF97A62
:1003E000FB681C3153F821107B68DB431940FB6824
:1003F0001C3243F8221000BF1437BD465DF8047B61
:10040000704780B483B000AF786039607B683A6829
:100410001A6100BF0C37BD465DF8047B704780B49D
:1004200085B000AF786039607B689B69FB60FA68D3
:100430003B681340FB60FB6818461437BD465DF807
:10044000047B704780B483B000AF786039607B680C
:100450003A68C3F8002100BF0C37BD465DF8047B45
:10046000704780B485B000AF786039607B68D3F89E
:100470000831FB60FA683B681340FB60FB68184674
:100480001437BD465DF8047B704780B483B000AF7D
:10049000786039607B683A68C3F80C2100BF0C377C
:1004A000BD465DF8047B704780B483B000AF7860D0
:1004B0007B68D3F80C3118460C37BD465DF8047BD9
:1004C000704780B483B000AF78607B685B6843F4AA
:1004D00000427B685A6000BF0C37BD465DF8047B64
:1004E0007047000080B483B000AF0346FB71FB7916
:1004F0005B021A46034B134418460C37BD465DF8A1
:10050000047B7047000E0E4080B584B000AF0346F8
:100510003960FB711346BB71FB7918460E4B984747
:10052000F860BB79002B0EDB012B02DD022B05D01E
:1005300009E03968F868094B984709E03968F868B4
:10054000074B984704E0412206490020064B984794
:1005500000BF1037BD4680BDE5044000D502400015
:10056000B90240001CC64000C11F400080B584B0E5
:1005700000AF03463960FB711346BB71FB79184627
:10058000094B9847F860BB79002B04D03968F868AC
:10059000064B984703E03968F868054B984700BF59
:1005A0001037BD4680BD00BFE5044000F1024000A9
:1005B0000D03400080B584B000AF0346FB710B46CD
:1005C000BB7113467B71FB791846234B9847F86043
:1005D0007B79012B14D0022B23D0002B32D1BB7995
:1005E000012202FA03F31946F8681C4B9847BB79BD
:1005F000012202FA03F31946F868194B984727E0DD
:10060000BB79012202FA03F31946F868144B9847A4
:10061000BB79012202FA03F31946F868114B984797
:1006200016E0BB79012202FA03F31946F8680B4B76
:100630009847BB79012202FA03F31946F8680A4B7E
:10064000984705E0832209490020094B984700BFDD
:1006500000BF1037BD4680BDE504400045034000A3
:100660007F03400029034000610340001CC6400096
:10067000C11F400080B584B000AF786039607B68EE
:100680005B09FB737B68DBB203F01F03BB73FB7B6F
:100690001846334B9847B860FB7B012B16D1BB7BC8
:1006A000042B0BD0BB7B052B08D0BB7B062B05D0C6
:1006B000BB7B072B02D0BB7B0C2B07D1BB7B012262
:1006C00002FA03F319462748274B98473B68B3F1D2
:1006D000FF3F08D1BB7B012202FA03F31946B86839
:1006E000224B984737E03B6803F00103002B09D009
:1006F000BB7B012202FA03F31A460021B8681C4BA7
:10070000984708E0BB7B012202FA03F31A46002156
:10071000B868184B98473B6803F00203002B09D0D8
:10072000BB7B012202FA03F31A460121B868104B81
:10073000984708E0BB7B012202FA03F31A46012125
:10074000B8680C4B9847BB7B012202FA03F31946A9
:10075000B868094B984700BF1037BD4680BD00BF41
:10076000E5044000008008405B0240008102400038
:100770009D034000CF0340009D02400080B582B041
:1007800000AF03460A46FB711346BB71FB795B0958
:10079000D8B2FB7903F01F03DBB2BA791946034BD9
:1007A000984700BF0837BD4680BD00BFB505400073
:1007B00080B582B000AF7860396039687868034BE3
:1007C000984700BF0837BD4680BD00BF7506400092
:1007D00080B582B000AF03460A46FB711346BB7179
:1007E000FB795B09D8B2FB7903F01F03012202FAFF
:1007F00003F3BA791946034B984700BF0837BD4643
:1008000080BD00BF0905400080B582B000AF03463F
:100810000A46FB711346BB71FB795B09D8B2FB79C1
:1008200003F01F03012202FA03F3BA791946034BBE
:10083000984700BF0837BD4680BD00BF6D0540002A
:1008400080B500AF014B984700BF80BD4D2E4000E2
:1008500080B584B000AF78607B681F2B13D801226D
:100860007B6802FA03F319461F48204B984703465A
:10087000002B35D101227B6802FA03F319461A488E
:100880001B4B98472CE07B683F2B16D87B68203B9E
:100890007B6001227B6802FA03F319461248154B6C
:1008A00098470346002B1BD101227B6802FA03F311
:1008B00019460D48104B984712E07B6803F07F0300
:1008C000194609480D4B984707480D4B9847F86063
:1008D000FB6843F01023FB60F9680348074B984717
:1008E00000BF1037BD4680BD00060E401F0440000B
:1008F0000304400063044000450440008B044000B2
:10090000A904400090B585B004AF1D20134B984753
:1009100000230293124B0193022300930A23114AEE
:1009200011491248124CA0471023124A01210F48C6
:10093000114CA0471023114A0A210C480E4CA04725
:100940004FF0FF3115200E4B98474FF0FF3120201C
:100950000B4B984700BF0437BD4690BD510840007F
:100960009C274020AC02402000C00340702740205C
:10097000690D40008C024020510E40009C02402036
:10098000B107400090B585B004AF28200E4B9847C2
:10099000002302930D4B01930123009300230C4A83
:1009A0000C490D480D4CA04710230D4A00210A4860
:1009B0000C4CA0474FF0FF3121200B4B984700BF54
:1009C0000437BD4690BD00BF510840005827402065
:1009D000C802402000400640D0274020690D40005A
:1009E000B8024020510E4000B107400080B400AF73
:1009F00000BFBD465DF8047B7047000080B500AFC6
:100A0000034B984703490448044B984700BF80BDF7
:100A1000ED094000000C0E403C2740209D1840008E
:100A200080B500AF01210320064B98470021032029
:100A3000054B98474FF0FF310320044B984700BF08
:100A400080BD00BFD10740007D074000B1074000D6
:100A500080B500AF01216120014B984700BF80BDE8
:100A6000B107400080B500AF3C20024B984700BF63
:100A700080BD00BF5108400080B500AF064B9847CD
:100A8000064B9847064B984703461A4605490648C1
:100A9000064B984700BF80BD650A4000510A4000E0
:100AA0003D50400000C0054020274020A11A4000D2
:100AB00080B500AF02210D20154B984700210D2075
:100AC000144B984700210D20134B984700210D200F
:100AD000124B984702210C200D4B984700210C2007
:100AE0000C4B984700210C200B4B984700210C2001
:100AF0000A4B984701210E20054B984700210E20F4
:100B0000054B984700210E20044B984700BF80BD3D
:100B1000D1074000090840007D074000B1074000B0
:100B200080B500AF2B20024B984700BF80BD00BFAF
:100B30005108400080B500AF044B98470449054870
:100B4000054B9847054B984700BF80BD210B4000DF
:100B500000C00740CC274020E51B4000B10A400000
:100B600080B500AF1720064B9847064B98470346C1
:100B70001A4605490548064B984700BF80BD00BF8F
:100B8000510840006D56400000C00040FC27402046
:100B9000A91C400080B500AF0248034B984700BF36
:100BA00080BD00BF10E000E0A515400080B500AF9B
:100BB0002320024B984700BF80BD00BF5108400072
:100BC00080B500AF00212320034B9847002122204D
:100BD000014B984700BF80BDB107400080B500AF12
:100BE000044B9847044B984704490548054B9847E0
:100BF00000BF80BDAD0B4000C10B400000000340B2
:100C0000F82640201D13400080B500AF444B9847A4
:100C10000A20444B98471020424B98474248434B88
:100C2000984701210420424B984700210420414B62
:100C300098474FF0FF3104203F4B98470221052091
:100C40003B4B9847012105203C4B98474FF0FF3123
:100C50000520394B984702210720354B9847002142
:100C60000720364B98474FF0FF310720324B98470B
:100C7000022108202E4B9847012108202F4B98472E
:100C80004FF0FF3108202C4B984702210B20284BB6
:100C9000984701210B20294B98474FF0FF310B203B
:100CA000254B984702211620214B984700211620FA
:100CB000224B98474FF0FF3116201F4B98470221D7
:100CC00018201B4B9847002118201C4B98474FF0C9
:100CD000FF311820184B984702217A20144B98476F
:100CE00000217A20154B98474FF0FF317A20124BA4
:100CF0009847134B9847134B9847134B9847134B00
:100D00009847134B9847134B9847134B9847134BEF
:100D10009847134B9847134B984700BF80BD00BFBF
:100D2000410840005108400050180E40C3044000E4
:100D3000D10740007D074000B1074000090840008E
:100D40000509400085094000FD094000210A4000D6
:100D5000790A4000350B4000610B4000950B4000C4
:100D6000DD0B40003516400080B588B000AFF8605C
:100D7000B9607A60FB70FB68002B0ED0BB68002B5B
:100D80000BD07B68002B08D097F82830002B04D0BC
:100D9000FB6A002B01D0012300E0002303F00103D4
:100DA000DBB23F2224491846244B984797F8282065
:100DB000FB7801339A42D4BF01230023DBB24022E7
:100DC0001D4918461D4B9847FB68BB610023FB7704
:100DD00007E0FB7F7A681344FF221A70FB7F013320
:100DE000FB77FA7FFB789A42F3D9FB687A681A623C
:100DF000FB68FA7883F82420FB6897F8282083F8AA
:100E00002520FB68FA6A9A62B968B8690C4B984762
:100E100078617B69002B01D07B6909E0BB69094AD5
:100E20009A60BB69084A1A60BB69084A5A60002385
:100E300018462037BD4680BD38C64000C11F40005F
:100E4000A9294000D911400079124000A5124000A4
:100E500080B586B000AFF8607A601A460B46FB7228
:100E600013463B810023BB75FB68002B07D07B68D2
:100E7000002B04D03B89002B01D0012300E000238C
:100E800003F00103DBB2662231491846314B984723
:100E9000FB6893F82430FA7A9A4294BF0123002326
:100EA000DBB267222A4918462A4B9847FB681A6A20
:100EB000FB7A13441B78FF2B02D06FF00C0343E046
:100EC0000023FB750CE0FB681A6AFB7D13441B785A
:100ED000FF2B02D0BB7D0133BB75FB7D0133FB755E
:100EE000FB6893F82430FA7D9A42ECD9FB6893F8BA
:100EF0002530BA7D9A4202D96FF01B0324E0FB68CB
:100F0000996ABA7D13465B001344DB000B4404333B
:100F10003A8979681846104B98470346002B02D04F
:100F20006FF00C0310E0FB681A6AFB7A1344BA7D79
:100F30001A70FB68996ABA7D13465B001344DB00A4
:100F40000B4400229A82002318461837BD4680BD04
:100F500038C64000C11F4000D120400080B582B09B
:100F600000AF78600B46FB707B68002B14BF012339
:100F70000023DBB283220E4918460E4B98477B684C
:100F800093F82430FA789A4294BF01230023DBB20D
:100F9000842207491846074B98477B68FA78114620
:100FA0001846054B9847002318460837BD4680BDB4
:100FB00038C64000C11F4000512A400090B587B09C
:100FC00000AFF8607B600B46FB721346BB72FB6898
:100FD000002B14BF01230023DBB29C2222491846B8
:100FE000224B9847FB6893F82430FA7A9A4294BFD0
:100FF00001230023DBB29D221B4918461B4B984757
:10100000FB681A6AFB7A13441B78FB75BB7A012BC9
:101010000ED0022B10D0002B12D1FB68996AFA7DFA
:1010200013465B001344DB000B447A681A600AE045
:10103000FB687A689A6106E0FB687A68DA6102E028
:101040006FF00C030BE0F8687B68002B14BF0123E2
:101050000023DBB2BA7AF97A054CA0470023184680
:101060001C37BD4690BD00BF38C64000C11F4000C0
:10107000B52A400080B588B000AFF8607A601A46A3
:101080000B46FB7213463B810023FB83FB68002B5E
:1010900007D07B68002B04D03B89002B01D00123B3
:1010A00000E0002303F00103DBB2BC223449184600
:1010B000344B9847FB6893F82430FA7A9A4294BFED
:1010C00001230023DBB2BD222D4918462D4B984742
:1010D000FB6818462C4B984703467B773B897A7F01
:1010E00093FBF2F102FB01F29B1A002B0CBF0123D0
:1010F0000023DBB2BF2222491846224B9847FB68E7
:101100001A6AFB7A13441B783B77FB68996A3A7F2B
:1011100013465B001344DB000B44BB6107F1100373
:1011200018461A4B9847BB6904331846184B984722
:10113000786107F110031846164B98470BE0BB691E
:101140001A1DFB8B591CF98319467B680B44194601
:101150001046114B9847FA8B7B699A4203D2FA8B5F
:101160003B899A42EBD3BB699A8AFB8BD31A9AB21A
:10117000BB699A82FB8B18462037BD4680BD00BFF5
:1011800038C64000C11F40007D2A4000D1124000F7
:1011900029224000F71240004521400080B582B06E
:1011A00000AF78607B68002B14BF01230023DBB203
:1011B000D62206491846064B98477B681846054BC9
:1011C0009847002318460837BD4680BD38C6400002
:1011D000C11F4000952A400080B586B000AF7860FE
:1011E0000B46FB7013463B807B687B617B691A6A08
:1011F000FB7813441B78FB747B69996AFA7C13466D
:101200005B001344DB000B44FB60FB6804333A884B
:10121000D2B211461846164B98477B691846154BB3
:1012200098470346012B0FD9FB681A1D3B881B0A00
:101230009BB2DBB2194610460D4B9847FB689B8A60
:1012400001339AB2FB689A82FB689B8A01339AB297
:10125000FB689A82FB681B68002B05D0FB681B6843
:10126000FA7811467869984700BF1837BD4680BDA7
:10127000B52140007D2A400080B584B000AF786081
:101280000B46FB707B68FB60FB689B69002B05D0FD
:10129000FB689B69FA781146F868984700BF1037D9
:1012A000BD4680BD80B584B000AF78600B46FB7052
:1012B0007B68FB60FB68DB69002B05D0FB68DB69A2
:1012C000FA781146F868984700BF1037BD4680BDD0
:1012D00080B485B000AF7860EFF31083FB60FA68EC
:1012E0007B681A6072B6BFF35F8F00BF1437BD46CC
:1012F0005DF8047B704780B485B000AF7860BFF3C1
:101300005F8F7B681B68FB60FB6883F3108800BFFE
:101310001437BD465DF8047B7047000080B584B08B
:1013200000AF786039607B68002B04D03B68002BED
:1013300001D0012300E0002303F00103DBB24122CE
:101340000E4918460E4B98477B68396818460D4B76
:101350009847F860FB68002B01D0FB6809E07B68C8
:10136000094A5A607B68094A9A607B68084ADA60D1
:10137000002318461037BD4680BD00BF54C640004C
:10138000C11F4000A13740003115400055154000F5
:101390007915400080B582B000AF78607B68002B83
:1013A00014BF01230023DBB25C2206491846064B1A
:1013B00098477B681846054B9847034618460837F8
:1013C000BD4680BD54C64000C11F40007539400075
:1013D00080B582B000AF786039607B68002B04D0A4
:1013E0003B68002B01D0012300E0002303F0010340
:1013F000DBB26E2206491846064B98477B6839686F
:101400001846054B9847034618460837BD4680BD29
:1014100054C64000C11F40009539400080B582B0DD
:1014200000AF786039607B68002B04D03B68002BEC
:1014300001D0012300E0002303F00103DBB2772297
:1014400006491846064B98477B6839681846054B8D
:101450009847034618460837BD4680BD54C640002D
:10146000C11F4000A93A400080B584B000AFF860C9
:101470000B467A60FB72FB68002B14BF012300232C
:10148000DBB2812214491846144B9847FB7A012B92
:1014900007D0022B09D0002B0BD1FB687A681A62A7
:1014A0000AE0FB687A68DA6106E0FB687A685A62EB
:1014B00002E06FF00C030BE0F8687B68002B14BFB0
:1014C00001230023DAB2FB7A1946054B9847002323
:1014D00018461037BD4680BD54C64000C11F4000AD
:1014E000253C400090B585B000AFF8607B600B46AE
:1014F000FB721346BB72FB68002B14BF0123002351
:10150000DBB2B82207491846074B9847F868BA7A01
:10151000F97A7B68054CA047034618461437BD4648
:1015200090BD00BF54C64000C11F4000B53C400004
:1015300080B584B000AF78607B68FB60FB68DB69D6
:10154000002B03D0FB68DB69F868984700BF1037B1
:10155000BD4680BD80B584B000AF78607B68FB601D
:10156000FB681B6A002B03D0FB681B6AF86898476E
:1015700000BF1037BD4680BD80B584B000AF786035
:101580000B46FB707B68FB60FB685B6A002B05D039
:10159000FB685B6AFA781146F868984700BF103715
:1015A000BD4680BD80B582B000AF7860054A7B68DB
:1015B0001360044B1B681846034B984700BF08375D
:1015C000BD4680BDCC0240205D51400090B583B047
:1015D00000AF0346FB80074B1C68FB881846064B90
:1015E0009847034619462046044B984700BF0C37DE
:1015F000BD4690BDCC024020952C40007951400062
:1016000090B583B000AF0346FB80074B1C68FB8896
:101610001846064B9847034619462046044B984700
:1016200000BF0C37BD4690BDCC024020A92D400024
:101630007951400080B582B000AF0023FB800EE0FE
:10164000FB880C4ADB0013444FF0FF325A60FB88E2
:10165000084A002142F83310FB880133FB80FB88E5
:10166000002BEDD00448054B984703461846083731
:10167000BD4680BDD002402019184000B54340004F
:1016800080B586B000AF786039600023FB75002319
:10169000BB7500237B7512E0FB7D4D4ADB001344D4
:1016A0005A687B689A4207D1FB7D49493A6841F8FC
:1016B000332001237B7505E0FB7D0133FB75FB7D4A
:1016C000002BE9D03B68002B0ED17B7D83F001031A
:1016D000DBB2002B02D06FF00C0374E000217868BD
:1016E0003C4B984703466EE07B7D83F00103DBB201
:1016F000002B5AD00023FB7516E0FB7D344A52F8CC
:101700003330002B0DD1FB7D31493A6841F833204D
:10171000FB7D2F4ADB0013447A685A6001237B75F6
:1017200005E0FB7D0133FB75FB7D002BE5D036E04A
:10173000FB7D274ADB0013445A68BB7D2449DB004C
:101740000B445B689A4227D2BB7D214ADB001344DD
:101750005B68B3F1FF3F1FD0BB7D1D4907F10C0251
:10176000DB000B4493E8030082E80300BB7DFA7DB5
:1017700017481749DB000344D2000A4492E80300EB
:1017800083E80300FB7D124ADB00134407F10C02DF
:1017900092E8030083E80300BB7D0133BB75BB7D8A
:1017A000002B02D1FB7D002BC2D07B7D83F0010397
:1017B000DBB2002B02D06FF00C0304E0012178684B
:1017C000044B9847034618461837BD4680BD00BFF6
:1017D000D0024020E143400080B582B000AF786085
:1017E00001217868034B9847034618460837BD46E1
:1017F00080BD00BFE143400080B582B000AF78609B
:1018000000217868034B9847034618460837BD46C1
:1018100080BD00BFE143400080B584B000AF786078
:101820000023FB730123BB732AE0BA7BFB7B1344C9
:101830005B107B737B7B002B27D17B7B164ADB0005
:1018400013445A687B689A420BD17B7B124A52F848
:101850003330002B1BD07B7B0F4A52F83330984734
:1018600015E07B7B0C4ADB0013445A687B689A4284
:1018700003D27B7B0133FB7302E07B7B013BBB73B9
:10188000BA7BFB7B9A42D0D202E000BF00E000BFEF
:101890001037BD4680BD00BFD002402080B584B067
:1018A00000AF786039607B68002B04D03B68002B68
:1018B00001D0012300E0002303F00103DBB2382252
:1018C0000C4918460C4B98477B68396818460B4BF7
:1018D0009847F860FB68002B01D0FB6806E07B6846
:1018E000074A1A607B68074A5A6000231846103777
:1018F000BD4680BD70C64000C11F40008D2F400016
:10190000591A40007D1A400090B587B000AFF860CA
:10191000B9607A603B60FB68002B07D07B68002BC6
:1019200004D03B68002B01D0012300E0002303F02A
:101930000103DBB2562216491846164B9847FB683E
:101940001846154B98477861FB681846134B984723
:1019500038617B693A6902FB03F2BB689A4208D39B
:10196000BA683B681A447B69396901FB03F39A4200
:1019700002D96FF00D0306E0F8683B687A68B96831
:10198000074CA047002318461C37BD4690BD00BF3A
:1019900070C64000C11F4000F92F400011304000C8
:1019A0002930400090B587B000AFF860B9607A6028
:1019B0003B60FB68002B07D07B68002B04D03B68A2
:1019C000002B01D0012300E0002303F00103DBB270
:1019D0006A221B4918461B4B9847FB6818461A4B4E
:1019E00098477861FB681846184B984738617B69BF
:1019F0003A6902FB03F2BB689A4208D3BA683B68B3
:101A00001A447B69396901FB03F39A4202D96FF0EA
:101A10000D0311E0FB68B96818460D4B9847034663
:101A2000002B02D06FF0100306E0F8683B687A687C
:101A3000B968084CA047002318461C37BD4690BD26
:101A400070C64000C11F4000F92F40001130400017
:101A5000D93140007D30400080B584B000AF78605F
:101A60007B68FB60FB685B69002B03D0FB685B69EC
:101A7000F868984700BF1037BD4680BD80B584B078
:101A800000AF78607B68FB60FB689B69002B03D02C
:101A9000FB689B69F868984700BF1037BD4680BD5A
:101AA00080B584B000AFF860B9607A60FB68002B45
:101AB00004D0BB68002B01D0012300E0002303F019
:101AC0000103DBB233220A4918460A4B9847FB68E8
:101AD000B9681846084B9847FB68084A1A60FB68C3
:101AE000074A5A60002318461037BD4680BD00BF24
:101AF00088C64000C11F4000F94C40009D1B4000BB
:101B0000C11B400080B582B000AF78607B68002BBD
:101B100014BF01230023DBB24A220B4918460B4BAA
:101B200098477B6818460A4B98470346002B02D01B
:101B30006FF0100304E07B681846064B98470023BB
:101B400018460837BD4680BD88C64000C11F40000A
:101B5000ED4F4000CD4E400080B584B000AFF8603E
:101B6000B9607A60FB68002B14BF01230023DBB24D
:101B70007C2207491846074B9847FB687A68B96882
:101B80001846054B9847002318461037BD4680BDC0
:101B900088C64000C11F40004D4F400080B584B052
:101BA00000AF78607B68FB60FB685B69002B03D04B
:101BB000FB685B69F868984700BF1037BD4680BD79
:101BC00080B584B000AF78607B68FB60FB689B6980
:101BD000002B03D0FB689B69F868984700BF10375B
:101BE000BD4680BD80B582B000AF786039607B684B
:101BF000002B04D03B68002B01D0012300E0002320
:101C000003F00103DBB2312206491846064B984720
:101C10007B6839681846054B9847034618460837CD
:101C2000BD4680BDA0C64000C11F4000A15040007D
:101C300080B582B000AF78607B68002B14BF0123B1
:101C40000023DBB23F2206491846064B98477B68C3
:101C50001846054B9847034618460837BD4680BDD1
:101C6000A0C64000C11F40001151400080B483B0A5
:101C700000AF78607B681B6818460C37BD465DF87E
:101C8000047B704780B483B000AF78607B68002B22
:101C900002D07B681B6800E0002318460C37BD4665
:101CA0005DF8047B7047000080B584B000AFF86039
:101CB000B9607A60FB68002B04D0BB68002B01D0B0
:101CC000012300E0002303F00103DBB23B220A49B9
:101CD00018460A4B9847FB68B9681846084B98475E
:101CE000FB6800221A61FB68064A1A600023184646
:101CF0001037BD4680BD00BFBCC64000C11F4000BC
:101D0000C1544000051F400080B582B000AF78602C
:101D10007B68002B14BF01230023DBB253220B4945
:101D200018460B4B98477B6818460A4B9847034662
:101D3000002B02D06FF0100304E07B681846064BBE
:101D40009847002318460837BD4680BDBCC64000F2
:101D5000C11F4000E5554000C155400080B584B02A
:101D600000AF786039607B68002B04D03B68002BA3
:101D700001D0012300E0002303F00103DBB27A224B
:101D80002D4918462D4B98477B681B7EDBB243F0EC
:101D90000103DAB27B681A767B6814333968184617
:101DA000274B98470346002B0FD07B681B7EDBB286
:101DB00023F00103DAB27B681A767F221E490020E5
:101DC0001E4B98476FF0110332E07B681A693B683D
:101DD0005A607B6803F114007B681B691A463968F6
:101DE000184B98477B681B7EDBB223F00103DAB205
:101DF0007B681A767B681B7EDBB203F00203002B44
:101E000015D007F10C0318460F4B98477B681B7ED3
:101E1000DBB223F00203DAB27B681A767B681846DD
:101E20000A4B984707F10C031846094B98470023C3
:101E300018461037BD4680BDBCC64000C11F4000DB
:101E4000E91F4000551E4000D112400009564000D5
:101E5000F712400080B588B000AFF860B9607A60D2
:101E60000023BB61F868234B984738613B69002B1E
:101E700004D1B968F868204B984737E03B69FB61AB
:101E800022E0FB695A687B689A4208D8FB699A6825
:101E9000FB6959687B68CB1A13447B6109E0FB69D5
:101EA0009A68FB695B681A447B685B4213440133A0
:101EB0007B61BB689A687B699A4209D9FB69BB61FF
:101EC000F8690E4B9847F861FB69002BD9D100E007
:101ED00000BFFA693B699A4204D1B968F868064BB9
:101EE000984703E0B968B869054B98472037BD4665
:101EF00080BD00BF6D1C400021204000851C4000BB
:101F00007920400080B586B000AF78607B683B6187
:101F10003B6914331846274B984778613B691B6926
:101F20005A1C3B691A613B691B69FB603B691B7E5C
:101F3000DBB203F00103002B06D13B691B7EDBB251
:101F400003F00203002B27D03B691B7EDBB243F07A
:101F50000203DAB23B691A7629E07B69BB603B6910
:101F600014331846144B9847BB681B7C012B09D1CE
:101F7000BB68FA685A603B691433FA68B968184656
:101F80000E4B98473B69143318460A4B98477861C3
:101F9000BB68DB68B86898477B69002B07D07B6912
:101FA0005B68FA68D21A7B699B689A42D5D2183767
:101FB000BD4680BD6D1C40009D204000551E400068
:101FC00080B485B000AF0346B9607A60FB73FB7BD9
:101FD00083F00103DBB2002B00D000BE00BF14373A
:101FE000BD465DF8047B704780B485B000AF786073
:101FF00039607B681B68FB6008E0FA683B689A42BE
:1020000001D1012306E0FB681B68FB60FB68002B25
:10201000F3D1002318461437BD465DF8047B7047A2
:1020200080B582B000AF78603960396878680F4B4E
:1020300098470346002B14BF01230023DBB283F033
:102040000103DBB203F00103DBB239220849184671
:10205000084B98477B681A683B681A607B683A6847
:102060001A6000BF0837BD4680BD00BFE91F4000B1
:10207000D4C64000C11F400080B483B000AF786078
:1020800039607B681A683B681A607B683A681A6036
:1020900000BF0C37BD465DF8047B704780B485B047
:1020A00000AF78607B681B68002B09D07B681B68D9
:1020B000FB607B681B681A687B681A60FB6800E03D
:1020C000002318461437BD465DF8047B70470000B6
:1020D00080B584B000AFF860B9607A60FB68002B0F
:1020E00007D0BB68002B04D07B68002B01D00123F4
:1020F00000E0002303F00103DBB228220F49184659
:102100000F4B98477B685A1E7B681340002B02D008
:102110006FF00C030EE07B685A1EFB685A60FB6888
:1021200000229A60FB689A68FB68DA60FB68BA680C
:102130001A60002318461037BD4680BDF4C6400023
:10214000C11F400080B582B000AF786039607B6805
:10215000002B04D03B68002B01D0012300E00023BA
:1021600003F00103DBB2402210491846104B984798
:102170007B68DA687B689B689A4211D07B681A6832
:102180007B6899687B685B680B4013441A783B68EE
:102190001A707B689B685A1C7B689A60002301E078
:1021A0006FF0090318460837BD4680BDF4C64000ED
:1021B000C11F400080B582B000AF78600B46FB7055
:1021C0007B68002B14BF01230023DBB2512214498A
:1021D0001846144B98477B681A687B68D9687B68F7
:1021E0005B680B401344FA781A707B68DA687B6886
:1021F0009B68D21A7B685B689A4206D97B68DA686A
:102200007B685B68D21A7B689A607B68DB685A1CC3
:102210007B68DA60002318460837BD4680BD00BFE2
:10222000F4C64000C11F400080B582B000AF7860A6
:102230007B68002B14BF01230023DBB26722064911
:102240001846064B98477B68DA687B689B68D31A08
:1022500018460837BD4680BDF4C64000C11F400087
:1022600080B483B000AF0346FB7197F90730002BB1
:102270000BDB094997F907305B09FA7902F01F0275
:10228000012000FA02F241F8232000BF0C37BD46BE
:102290005DF8047B704700BF00E100E080B483B0CC
:1022A00000AF0346FB7197F90730002B10DB0B4999
:1022B00097F907305B09FA7902F01F02012000FA52
:1022C00002F2203341F82320BFF34F8FBFF36F8F0B
:1022D00000BF0C37BD465DF8047B704700E100E0AD
:1022E00080B483B000AF0346FB7197F90730002B31
:1022F0000CDB094997F907305B09FA7902F01F02F4
:10230000012000FA02F2603341F8232000BF0C37AD
:10231000BD465DF8047B704700E100E080B483B007
:1023200000AF78607B681B6B18460C37BD465DF8C4
:10233000047B704780B483B000AF786039607B68FD
:102340003A685A6100BF0C37BD465DF8047B7047A0
:1023500080B483B000AF78600B46FB70FB7883F0ED
:102360000103DBB2002B04D07B684FF000729A624D
:1023700003E07B684FF000725A6200BF0C37BD4625
:102380005DF8047B704780B483B000AF78600B4683
:10239000FB70FB7883F00103DBB2002B04D07B6879
:1023A0004FF080629A6203E07B684FF080625A626D
:1023B00000BF0C37BD465DF8047B704780B483B026
:1023C00000AF786039607B683A685A6200BF0C37AA
:1023D000BD465DF8047B704780B483B000AF786081
:1023E0007B68DB6A18460C37BD465DF8047B704796
:1023F00080B483B000AF786039607B683A689A62D5
:1024000000BF0C37BD465DF8047B704780B483B0D5
:1024100000AF78607B689B6E18460C37BD465DF850
:10242000047B704780B483B000AF786039607B680C
:102430003A685A6000BF0C37BD465DF8047B7047B0
:1024400080B483B000AF786039607B683A689A6086
:1024500000BF0C37BD465DF8047B704780B483B085
:1024600000AF786039607B683A68DA6000BF0C378B
:10247000BD465DF8047B704780B483B000AF7860E0
:1024800039607B683A681A6100BF0C37BD465DF859
:10249000047B704780B483B000AF786039607B689C
:1024A0003A681A6500BF0C37BD465DF8047B70477B
:1024B00080B483B000AF786039607B683A685A6551
:1024C00000BF0C37BD465DF8047B704780B483B015
:1024D00000AF786039607B683A681A6600BF0C37D5
:1024E000BD465DF8047B704780B483B000AF786070
:1024F00039607B683A685A6600BF0C37BD465DF8A4
:10250000047B704780B483B000AF786039607B682B
:102510003A68DA6600BF0C37BD465DF8047B704749
:1025200080B483B000AF786039607B683A68C3F8E4
:10253000942000BF0C37BD465DF8047B704780B423
:1025400083B000AF786039607B683A68C3F8A02038
:1025500000BF0C37BD465DF8047B704780B483B084
:1025600000AF786039607B683A68C3F8D02000BF5C
:102570000C37BD465DF8047B704780B483B000AF74
:10258000786039607B683A68C3F8D42000BF0C37A4
:10259000BD465DF8047B704780B483B000AF7860BF
:1025A00039607B683A68C3F8D82000BF0C37BD4655
:1025B0005DF8047B704780B483B000AF7860396009
:1025C0007B683A681A6000BF0C37BD465DF8047B33
:1025D0007047000080B582B000AF78607B680A4A1F
:1025E000934201D100230BE07B68084A934201D15A
:1025F000012305E0A72206490020064B9847002347
:1026000018460837BD4680BD00C003400040064064
:10261000E0C74000C11F400080B584B000AF7860C3
:102620007B6818460E4B98470346BB730023FB7329
:102630000EE0FB7B0B4A642101FB03F313441B7880
:10264000BA7B9A4201D1FB7B06E0FB7B0133FB7333
:10265000FB7B012BEDD9002318461037BD4680BD0A
:10266000D525400018C7400080B483B000AF786023
:102670007B685B69094A934201D11D2308E07B68AE
:102680005B69074A934201D1282301E04FF0FF33F1
:1026900018460C37BD465DF8047B704700C0034008
:1026A0000040064080B483B000AF786039607B683A
:1026B000094A934202D1094A3B6813607B68084A81
:1026C000934202D1074A3B68136000BF0C37BD46F6
:1026D0005DF8047B704700BF00C00340D802402073
:1026E00000400640DC02402080B584B000AF786036
:1026F0000B46FB70FB78594A642101FB03F313443A
:1027000004331B6819467868554B9847FB78534A41
:10271000642101FB03F3134408331B6819467868EE
:10272000504B9847FB784D4A642101FB03F3134457
:102730000C331B68194678684B4B9847FB78474A1F
:10274000642101FB03F3134410331B6819467868B6
:10275000464B9847FB78414A642101FB03F313443D
:1027600014331B6819467868414B9847FB783B4AFD
:10277000642101FB03F3134418331B68194678687E
:102780003C4B9847FB78354A642101FB03F3134423
:102790001C331B6819467868374B9847FB782F4ADB
:1027A000642101FB03F3134420331B681946786846
:1027B000324B9847FB78294A642101FB03F3134409
:1027C00024331B68194678682D4B9847FB78234AB9
:1027D000642101FB03F3134428331B68194678680E
:1027E000284B9847FB781D4A642101FB03F31344EF
:1027F0002C331B6819467868234B9847FB78174A97
:10280000642101FB03F3134430331B6819467868D5
:102810001E4B98470023FB7318E0FB7B1946786832
:102820001B4B9847FA78F97B0C4813469B001344DE
:102830009A0013440B440C339B0003445B68194615
:102840007868144B9847FB7B0133FB73FB7B0B2BA6
:10285000E3D9002318461037BD4680BD18C7400095
:1028600025244000412440005D244000792440009C
:1028700095244000B1244000CD2440002125400093
:102880003F2540005D2540007B2540009925400004
:10289000E92440000525400090B587B000AF78607E
:1028A0007B685B693B610023FB7538692C4B98475B
:1028B000044638692B4B984703462340FB60FB686E
:1028C00003F08063002B05D07B681B68FA7D1146FE
:1028D00078689847FB6803F00073002B05D07B688D
:1028E0005B68FA7D114678689847FB68C3F30B0371
:1028F000FB60FB68B3FA83F3DBB2C3F12003FB7523
:1029000026E0FB7D013BFB757B685B69FA7D114628
:102910001846154B98477B689C687B685B6918462E
:10292000124B984703469AB2FB7D19467868A04738
:10293000FB7D012202FA03F3DB431A46FB681340D6
:10294000FB60FB68B3FA83F3DBB2C3F12003FB75D2
:10295000FB7D002BD5D100BF1C37BD4690BD00BF0D
:102960001D234000D9234000E92440000D244000ED
:1029700080B500AF034B1B681846034B984700BF58
:1029800080BD00BFD80240209928400080B500AF2C
:10299000034B1B681846034B984700BF80BD00BF20
:1029A000DC0240209928400080B584B000AF7860F8
:1029B00039607B68002B14BF01230023DBB24FF486
:1029C000A1721A4918461A4B98473B681846194B8A
:1029D0009847034619463868174B9847F860FB68D4
:1029E000002B01D0FB681CE07B683A685A6179686B
:1029F0003868124B98477868114B98470346184639
:102A0000104B984778680E4B9847034618460E4B74
:102A1000984778680A4B9847034618460B4B9847E7
:102A2000002318461037BD4680BD00BFE0C74000F8
:102A3000C11F400019264000E9264000A52640009D
:102A4000692640009D224000E122400061224000B2
:102A500080B582B000AF78600B46FB707B68586928
:102A6000FB78012202FA03F31946034B984700BF93
:102A70000837BD4680BD00BF3523400080B483B019
:102A800000AF7860022318460C37BD465DF8047B22
:102A90007047000080B582B000AF78607B685B69EA
:102AA00002211846024B984700BF0837BD4680BD3B
:102AB000B725400080B584B000AF78600846114665
:102AC0001A460346FB700B46BB7013467B707B684F
:102AD0005B69FB60BB78012B05D17B781946F868F0
:102AE000134B98471FE0BB78022B05D17B78194622
:102AF000F868104B984716E0BB78002B13D17B7811
:102B0000002B08D0FB78012202FA03F31946F8687B
:102B1000094B984707E0FB78012202FA03F31946B4
:102B2000F868064B984700BF1037BD4680BD00BF10
:102B30008723400051234000BD234000F123400083
:102B400080B483B000AF0346FB7197F90730002BC8
:102B50000CDB094997F907305B09FA7902F01F028B
:102B6000012000FA02F2403341F8232000BF0C3765
:102B7000BD465DF8047B704700E100E080B582B09F
:102B800000AF0346FB7197F907301846024B984790
:102B900000BF0837BD4680BD412B400080B483B0E4
:102BA00000AF03463960FB8013467B717B79053BA0
:102BB000042B53D801A252F823F000BF3F2C400051
:102BC000212C4000032C4000E32B4000D12B40007F
:102BD000FB883A682949A1FB0212920C02FB03F31D
:102BE00046E0FB883A6852092549A1FB0212D20946
:102BF00002FB03F3013B234AA2FB0323DB0801335F
:102C000036E0FB883A682049A1FB0212520B02FB16
:102C100003F3013B1D4AA2FB03235B09013327E0B9
:102C2000FB883A681A49A1FB0212920902FB03F3DE
:102C3000013B174AA2FB03239B09013318E0FB88E1
:102C40003A681249A1FB0212520902FB03F3013B4D
:102C50000D4AA2FB03235B0B013309E0FB883A68B2
:102C600002FB03F3013B054AA2FB03239B0C013348
:102C700018460C37BD465DF8047B704783DE1B4366
:102C8000C55A7C0ACDCCCCCC5917B7D11F85EB5196
:102C9000D34D621080B582B000AF0346FB80FB8845
:102CA000092204491846044B98470346184608373A
:102CB000BD4680BD00A3E1119D2B400080B483B0D0
:102CC00000AF03463960FB8013467B717B79053B7F
:102CD000042B4CD801A252F823F000BF512D400024
:102CE0003F2D4000252D40000B2D4000F12C4000D1
:102CF000FB883A682649A1FB0212920C02FB03F3FF
:102D00004FF47A7202FB03F33BE0FB883A68520906
:102D10002049A1FB0212D20902FB03F3642202FB49
:102D200003F32EE0FB883A681B49A1FB0212520B09
:102D300002FB03F213469B0013445B0021E0FB8877
:102D40003A681649A1FB0212920902FB03F318E04C
:102D5000FB883A681249A1FB0212520902FB03F3F5
:102D6000013B104AA2FB0323DB08013309E0FB8887
:102D70003A6802FB03F3013B084AA2FB03239B09C9
:102D8000013318460C37BD465DF8047B704700BF21
:102D900083DE1B43C55A7C0A5917B7D1D34D621045
:102DA0001F85EB51CDCCCCCC80B582B000AF0346B3
:102DB000FB80FB88092204491846044B98470346C8
:102DC00018460837BD4680BD00A3E111BD2C400068
:102DD00080B485B000AF786039607B681B68FB60A9
:102DE000FB6823F47063FB603B681B0203F47063B1
:102DF000FA681343FB607B68FA681A6000BF1437F7
:102E0000BD465DF8047B704780B582B000AF3B1DC6
:102E100018460B4B98470B4A0A4BD3F8883043F4BB
:102E20007003C2F88830BFF34F8FBFF36F8F3B1D25
:102E30001846054B984700BF0837BD4680BD00BF08
:102E4000D112400000ED00E0F712400080B500AF65
:102E5000044B984705210448044B9847044B984776
:102E600000BF80BD092E4000000C0E40D12D400057
:102E7000D548400080B483B000AF0346FB7197F99A
:102E80000730002B0BDB094997F907305B09FA790A
:102E900002F01F02012000FA02F241F8232000BFD5
:102EA0000C37BD465DF8047B704700BF00E100E0D1
:102EB00080B483B000AF0346FB7197F90730002B55
:102EC00010DB0B4997F907305B09FA7902F01F0212
:102ED000012000FA02F2203341F82320BFF34F8F84
:102EE000BFF36F8F00BF0C37BD465DF8047B7047A2
:102EF00000E100E080B483B000AF0346FB7197F9B6
:102F00000730002B0CDB094997F907305B09FA7988
:102F100002F01F02012000FA02F2603341F8232080
:102F200000BF0C37BD465DF8047B704700E100E050
:102F300080B483B000AF78607B689B6803F00103C6
:102F4000002B14BF01230023DBB218460C37BD460B
:102F50005DF8047B704780B483B000AF78607B6815
:102F6000DB6818460C37BD465DF8047B704780B4BB
:102F700083B000AF786039607B683A685A6000BF00
:102F80000C37BD465DF8047B7047000080B582B009
:102F900000AF786039607B68002B04D03B68002B61
:102FA00001D0012300E0002303F00103DBB26D2216
:102FB0000B4918460B4B98477B683A681A610A4AD6
:102FC0007B6813600620094B98470620084B9847FA
:102FD0000620084B9847002318460837BD4680BD99
:102FE000F8C74000C11F4000E0024020B12E400061
:102FF000F52E4000752E400080B483B000AF78609D
:103000004FF4007318460C37BD465DF8047B7047DB
:1030100080B483B000AF78604FF4806318460C37FB
:10302000BD465DF8047B704780B584B000AFF860A2
:10303000B9607A603B60BA683B6813440B4A9342BC
:1030400094BF01230023DBB2AB2209491846094B88
:103050009847BB6803F580033A6819467868064BC1
:10306000984700BF1037BD4680BD00BFFFFF070077
:10307000F8C74000C11F400005C6400090B58BB0A6
:1030800000AFF860B9607A603B60BB687B62BA6889
:103090003B681344FB613B68002B00F08E8086E0A8
:1030A000FB69B3F5804F02D24FF4007301E04FF497
:1030B0000053BB6100237B84BB695A427B6A134087
:1030C0007B617A69BB6913443B617A6A7B699A4286
:1030D00005D93B699AB27B6A9BB2D31A7B843A6961
:1030E000FB699A420FD97B8C002B06D0FB699AB200
:1030F0007B6A9BB2D31A7B8405E0FB699AB27B6939
:103100009BB2D31A7B847B8C002B1ED0BB692D4ACB
:103110007969F8682C4CA0477A6A7B69D31A294AE6
:1031200013447A8C79681846284B9847BB69B3F5E5
:10313000007F0FD0FB681A697B695B0A43F00203CA
:1031400019461046224B984704E0BA6979681D4831
:103150001E4B9847BB69B3F5007F08D1FB6818691F
:103160007B6A5A0A174B01211A4CA04717E07B696A
:103170007B6210E0FB6818697B6A590A7A6A7B698E
:10318000D31A104A13440A460021124CA0477B6A06
:1031900003F500737B627A6A3B699A42EAD33A6923
:1031A000BB68D31A7A6813447B603B697B627A6A96
:1031B000FB699A42FFF474AF00E000BF2C37BD46B4
:1031C00090BD00BFE40240202930400005C6400009
:1031D000010040204D00402080B584B000AF7860F1
:1031E00039603A681B4B1340FB60FB689B0BFB602C
:1031F0007B681B6918491846184B984700BF7B68C5
:103200001B691846164B9847034683F00103DBB24F
:10321000002BF4D1FB681F2B04D97B681B6918466F
:10322000104B98477B681B6918460E4B984702461F
:10323000FB6803F01F0322FA03F303F00103FB60B2
:10324000FB68002B14BF01230023DBB218461037A4
:10325000BD4680BD00C0FFFF0A00005A6F2F40002E
:10326000312F4000572F400080B582B000AF0D4B8A
:103270001B681B697B6078680B4B98470346002BE3
:103280000BD0084B1B681B68002B06D0054B1B6836
:103290001B68044A12681046984700BF0837BD46AD
:1032A00080BD00BFE0024020312F400080B483B0D9
:1032B00000AF0346FB7197F90730002B0BDB094980
:1032C00097F907305B09FA7902F01F02012000FA32
:1032D00002F241F8232000BF0C37BD465DF8047BA5
:1032E000704700BF00E100E080B483B000AF034648
:1032F000FB7197F90730002B10DB0B4997F907306A
:103300005B09FA7902F01F02012000FA02F2203371
:1033100041F82320BFF34F8FBFF36F8F00BF0C37EF
:10332000BD465DF8047B704700E100E080B483B0E7
:1033300000AF0346FB7197F90730002B0CDB0949FE
:1033400097F907305B09FA7902F01F02012000FAB1
:1033500002F2603341F8232000BF0C37BD465DF810
:10336000047B704700E100E080B483B000AF786078
:103370007B685B6C03F02003002B14BF0123002348
:10338000DBB218460C37BD465DF8047B704780B44D
:1033900083B000AF78607B68D3F8A43003F07F037C
:1033A00018460C37BD465DF8047B704780B483B087
:1033B00000AF78607B68D3F8A4301B0A03F03F03AA
:1033C00018460C37BD465DF8047B704780B483B067
:1033D00000AF78607B68D3F8C43003F40013002B8F
:1033E00014BF01230023DBB218460C37BD465DF83D
:1033F000047B704780B483B000AF78607B68D3F8FB
:10340000C4301B0C03F01F0318460C37BD465DF893
:10341000047B704780B483B000AF786039607B680C
:103420003A68DA6000BF0C37BD465DF8047B704730
:1034300080B483B000AF78607B689B6943F0010281
:103440007B689A6100BF0C37BD465DF8047B70470E
:1034500080B485B000AF78607B689B69FB60FB68D7
:1034600003F00103FB60FB68002B14BF0123002362
:10347000DBB218461437BD465DF8047B704780B454
:1034800083B000AF78607B689B6923F001027B68A2
:103490009A6100BF0C37BD465DF8047B704780B46D
:1034A00083B000AF78607B689B6943F002027B6861
:1034B0009A6100BF0C37BD465DF8047B704780B44D
:1034C00083B000AF78607B689B6923F002027B6861
:1034D0009A6100BF0C37BD465DF8047B704780B42D
:1034E00083B000AF786039607B689A693B681A43A3
:1034F0007B689A6100BF0C37BD465DF8047B70475E
:1035000080B483B000AF786039607B683A68DA6174
:1035100000BF0C37BD465DF8047B704780B483B0B4
:1035200000AF786039607B683A681A6500BF0C3775
:10353000BD465DF8047B704780B483B000AF78600F
:103540007B681B6D18460C37BD465DF8047B7047E1
:1035500080B485B000AF78600B46FB707B685B6D14
:10356000FB60FB6823F00103FB60FB78FA68134300
:10357000FB607B68FA685A6500BF1437BD465DF88A
:10358000047B704780B485B000AF78600B46FB7059
:103590007B685B6DFB60FB6823F40073FB60FB786A
:1035A0005B021A46FB681343FB607B68FA685A6546
:1035B00000BF1437BD465DF8047B704780B485B00A
:1035C00000AF786039607B685B6DFB60FA683B68D0
:1035D0001340FB60FB6818461437BD465DF8047B5A
:1035E000704780B483B000AF786039607B683A6818
:1035F0005A6500BF0C37BD465DF8047B704780B448
:1036000083B000AF786039607B683A68DA6500BFE4
:103610000C37BD465DF8047B704780B483B000AFC3
:10362000786039607B683A68C3F8802000BF0C3747
:10363000BD465DF8047B704780B483B000AF78600E
:1036400039607B683A68C3F8842000BF0C37BD46F8
:103650005DF8047B704780B483B000AF7860396058
:103660007B683A68C3F8882000BF0C37BD465DF818
:10367000047B704780B483B000AF786039607B68AA
:103680003A68C3F8902000BF0C37BD465DF8047B54
:10369000704780B483B000AF786039607B683A6867
:1036A000C3F8A02000BF0C37BD465DF8047B70470F
:1036B00080B485B000AF786039607B68D3F8A830FB
:1036C000FB60FB6823F03F03FB603B6803F03F03B4
:1036D000FA681343FB607B68FA68C3F8A82000BF50
:1036E0001437BD465DF8047B704780B483B000AFEB
:1036F000786039607B683A68C3F8BC2000BF0C373B
:10370000BD465DF8047B704780B483B000AF78603D
:1037100039607B683A68C3F8C02000BF0C37BD46EB
:103720005DF8047B704780B483B000AF7860396087
:103730007B683A68C3F8C82000BF0C37BD465DF807
:10374000047B704780B483B000AF786039607B68D9
:103750003A68C3F8D02000BF0C37BD465DF8047B43
:10376000704780B483B000AF786039607B683A6896
:10377000C3F8E02000BF0C37BD465DF8047B7047FE
:1037800080B483B000AF786039607B683A68C3F872
:10379000F02000BF0C37BD465DF8047B7047000089
:1037A00080B582B000AF786039607B683A681A6093
:1037B0007B681B681846504B984700BF7B681B68A6
:1037C00018464E4B9847034683F00103DBB2002BAB
:1037D000F4D17B681B681846494B98473B68494AB7
:1037E000934270D17B68484A9A617B681B680021CC
:1037F0001846464B98477B681B6845491846454B19
:1038000098477B681B6844491846444B98477B6837
:103810001A68434B9BB243F4481319461046414B78
:1038200098477B681B68002118463F4B98477B6888
:103830001B68002118463D4B98477B681A683C4B33
:103840009BB243F02063194610463A4B98477B6879
:103850001A68394B9BB243F4003319461046374B74
:1038600098477B681B682B211846354B98477B6827
:103870001A68344B9BB243F4802319461046324BEE
:1038800098477B681A68314B9BB243F480231946F2
:1038900010462F4B98477B681B68002118462D4B1C
:1038A00098472D4A7B68136023202C4B9847232090
:1038B0002B4B984723202B4B98477B681B68012193
:1038C0001846294B98477B681B681846274B984732
:1038D0007B681B681846264B984700BF7B681B68AF
:1038E0001846064B98470346002BF7D1002318468D
:1038F0000837BD4680BD00BF313440005134400020
:103900009F34400000000340D4004020DF344000DA
:10391000330A040001354000330A040B153440001B
:103920001828402093364000EB36400027374000EF
:10393000382B402009374000E422402081374000E6
:103940001B364000F422402039364000042340203A
:10395000573640007536400024234020E9324000AD
:103960002D334000AD324000FF354000BF344000F1
:103970007F34400080B582B000AF78607B681B6800
:103980001846034B9847002318460837BD4680BDAC
:103990007F34400090B589B000AF78603960002373
:1039A000FB617B681B681846384B98470346002B21
:1039B00002D16FF0090364E07B681B68344A9342CC
:1039C00015D17B681B681846324B984703461B018C
:1039D000314A1344FB617B681C687B681B6818468E
:1039E0002C4B98470346194620462C4B9847FB69B9
:1039F000002B02D16FF01B0343E0FB691B68C3F38C
:103A00008073DBB2012B0AD13B6801225A73FB6938
:103A10001B68C3F31C031A463B681A600AE03B6844
:103A200000225A73FB691B68C3F31C039B141A46DC
:103A30003B681A60FB691B68C3F34073DBB2012B60
:103A400002D13B6801221A71154B07F10C040FCB10
:103A500084E80F00FB695B68C3F30343DBB207F143
:103A60002002134413F8142C3B681A733B689868BF
:103A7000FB6903F108013B681B7B1A46094B984719
:103A8000002318462437BD4690BD00BF8F33400049
:103A900000000340AD33400018284020B1364000FC
:103AA00010C8400005C6400090B585B000AF7860F2
:103AB00039600023FB607B681B681846534B9847AE
:103AC0000346002B02D06FF01B039AE07B681B6853
:103AD0004F4A934209D17B681B6818464D4B984763
:103AE00003461B014C4A1344FB60FB68002B02D1C8
:103AF0006FF01B0385E03B685B7B012B09D13B68C2
:103B00001A68FB681A60FA68136843F08043136010
:103B100004E03B681B689A04FB681A603B681B7BE7
:103B2000082B0AD83B681B7B03F00F03D9B2FA6855
:103B3000536861F3134353604AE03B681B7B0C2BD3
:103B400006D8FA685368092161F3134353603FE0D4
:103B50003B681B7B102B06D8FA6853680A2161F377
:103B60001343536034E03B681B7B142B06D8FA6880
:103B700053680B2161F31343536029E03B681B7BBF
:103B8000182B06D8FA6853680C2161F3134353606D
:103B90001EE03B681B7B202B06D8FA6853680D217A
:103BA00061F31343536013E03B681B7B302B06D853
:103BB000FA6853680E2161F31343536008E03B68D1
:103BC0001B7B402B04D8FA68536843F4702353607E
:103BD000FB6803F108003B6899683B681B7B1A4649
:103BE0000E4B98477B681C687B681B681846094B1E
:103BF000984702460123934019462046084B9847B0
:103C0000002318461437BD4690BD00BFCD33400099
:103C100000000340F5334000382B402005C640002B
:103C20004537400080B584B000AF78600B46FB702C
:103C30001346BB70FB78002B07D17B681B68BA78F2
:103C400011461846164B984726E0FB78012B0ED1FB
:103C50007B681B68BA7811461846124B98477B68F8
:103C60001B684FF0FF3118460F4B984714E0FB7864
:103C7000022B11D17B681B6840F2012118460B4BC7
:103C80009847F8607B681A68FB6843F060731946D0
:103C90001046074B984700BF00BF1037BD4680BD98
:103CA000513540008535400063374000BD35400048
:103CB000E335400080B487B000AFF8607B600B460E
:103CC000FB721346BB72FB689B69DA68FB7A9B0048
:103CD00013447B61FB689B691A69FB7ADB00134420
:103CE0003B61BB7A002B23D17B68002B04D17B691D
:103CF00000221A6000233BE07B685A687B691A60E7
:103D00007B681B689BB2C3F30A0399B27A69136894
:103D100061F31A4313607A691368022161F39F7398
:103D200013607A691368012161F3DD6313601EE09B
:103D3000BB7A012B1BD17B68002B04D13B6900228D
:103D40001A60002314E07B681A683B691A603A69BC
:103D50001368012161F35F7313607B685A683B69E4
:103D60005A603A695368022161F39F7353600023DC
:103D700018461C37BD465DF8047B704790B585B08A
:103D800000AF78607B681B681846294B9847F8603D
:103D9000FB6803F00103002B03D07B689B68786805
:103DA0009847FB6803F40073002B03D07B685B68C3
:103DB00078689847FB6803F00073002B04D07B6899
:103DC000DB68032178689847FB6803F08073002B59
:103DD00004D07B68DB68002178689847FB6803F4AF
:103DE0000003002B0FD07B68DC687B681B681846DB
:103DF000104B98470346002B01D0022300E001231B
:103E000019467868A047FB6803F00803002B04D02C
:103E10007B68DB680421786898477B681B68F968D1
:103E20001846054B984700BF1437BD4690BD00BFEC
:103E300039354000693340001D35400080B500AF82
:103E4000034B1B681846034B984700BF80BD00BF5B
:103E5000242340207D3D400080B483B000AF034662
:103E6000FB7197F90730002B0BDB094997F90730F5
:103E70005B09FA7902F01F02012000FA02F241F810
:103E8000232000BF0C37BD465DF8047B704700BFA0
:103E900000E100E080B483B000AF0346FB7197F906
:103EA0000730002B10DB0B4997F907305B09FA79D3
:103EB00002F01F02012000FA02F2203341F8232011
:103EC000BFF34F8FBFF36F8F00BF0C37BD465DF858
:103ED000047B704700E100E080B483B000AF03468C
:103EE000FB7197F90730002B0CDB094997F9073074
:103EF0005B09FA7902F01F02012000FA02F2603336
:103F000041F8232000BF0C37BD465DF8047B7047A5
:103F100000E100E080B483B000AF78607B68DB6CC8
:103F200018460C37BD465DF8047B704780B483B0FB
:103F300000AF786039607B683A681A6400BF0C375C
:103F4000BD465DF8047B704780B483B000AF7860F5
:103F50007B689B6C18460C37BD465DF8047B704748
:103F600080B483B000AF786039607B683A685A6487
:103F700000BF0C37BD465DF8047B704780B483B04A
:103F800000AF786039607B683A68C3F8B02000BF42
:103F90000C37BD465DF8047B704780B483B000AF3A
:103FA000786039607B683A68C3F8C42000BF0C377A
:103FB000BD465DF8047B704780B483B000AF786085
:103FC00039607B683A68C3F8C02000BF0C37BD4633
:103FD0005DF8047B704780B483B000AF78603960CF
:103FE0007B683A68C3F8D42000BF0C37BD465DF843
:103FF000047B704780B483B000AF786039607B6821
:104000003A68C3F8D02000BF0C37BD465DF8047B8A
:10401000704780B487B000AF78600B46FB70002318
:104020007B611EE00123FB6000233B6113E07B69A1
:104030009B007A6813441A68FB681340002B04D075
:104040007B695A013B69134411E0FB685B00FB602C
:104050003B6901333B613B691F2BE8D97B69013325
:104060007B61FA787B699A42DCD84FF0FF331846BF
:104070001C37BD465DF8047B7047000080B582B0F8
:1040800000AF0346FB71FB799F2B94BF01230023F4
:10409000DBB2C32207491846074B9847FB795B09F7
:1040A000DBB25B021A46054B134418460837BD467F
:1040B00080BD00BF40C84000C11F4000000E0E4040
:1040C00080B582B000AF78607B68002B14BF0123FD
:1040D0000023DBB2D22206491846064B98477A687D
:1040E000054B13445B0ADBB218460837BD4680BD5A
:1040F00040C84000C11F400000F2F1BF80B584B04D
:1041000000AF78607B68002B14BF01230023DBB273
:10411000E02213491846134B98477868124B98478A
:104120000346BB730023FB7310E0FA7B0F49134671
:10413000DB009B1A9B000B441B78BA7B9A4202D18E
:1041400097F90F3007E0FB7B0133FB73FB7B002B00
:10415000EBD04FF0FF3318461037BD4680BD00BF8F
:1041600040C84000C11F4000C140400024C840007A
:1041700080B588B000AF0023FB613B1D00221A60B0
:104180005A609A60DA601A61364B1B68002B14BFC4
:1041900001230023DBB2F82233491846334B9847FA
:1041A0003348344B984703467B603148324B98473D
:1041B00002467B6813407B607B68FA691343FB61AE
:1041C00048E03B1D052118462C4B98470346FB76DB
:1041D00029E0244B1B6897F91B201046984797F954
:1041E0001B305B115BB2184697F91B305B115BB259
:1041F0009B0007F12002134453F81C3CFA7E02F0A6
:104200001F02012101FA02F2D2431A40830007F192
:1042100020010B4443F81C2C3B1D05211846174B6D
:1042200098470346FB7697F91B30B3F1FF3FD0D197
:104230000023FB610E480F4B984703467B600C48F8
:104240000D4B984702467B6813407B607B68FA6998
:104250001343FB61FB69002BB3D100BF2037BD4680
:1042600080BD00BF2823402040C84000C11F40003F
:10427000000E0E40153F4000493F400013404000F3
:1042800080B500AF014B984700BF80BD7141400031
:1042900080B584B000AF78607B68002B14BF012329
:1042A0000023DBB24FF4AA7234491846344B9847C6
:1042B0007868344B98470346FB7397F90F30002B0F
:1042C00002DA6FF0100354E097F90F202E491346DD
:1042D000DB009B1A9B000B4408331B681946786867
:1042E0002A4B984797F90F2027491346DB009B1A62
:1042F0009B000B440C331B6819467868244B984785
:1043000097F90F2020491346DB009B1A9B000B44B2
:1043100010331B68194678681E4B984708231946C6
:1043200078681D4B984797F90F2017491346DB0013
:104330009B1A9B000B4414331B6819467868174B73
:1043400098477868164B984703461A46154B9B5C6E
:10435000FB7397F90F301846134B984797F90F30B6
:104360001846124B984797F90F301846104B98474C
:10437000002318461037BD4680BD00BF40C840002E
:10438000C11F4000FD40400024C840007D3F400068
:10439000B93F40009B3F4000F53F4000D73F400001
:1043A000C140400020C84000953E4000D93E40003A
:1043B000593E400080B582B000AF78600548064B9A
:1043C0009847064A7B681360002318460837BD46A5
:1043D00080BD00BF000E0E409142400028234020C7
:1043E00080B584B000AF78600B46FB70194BFB6062
:1043F0000023BB607B689F2B94BF01230023DBB2AB
:1044000040F2A11214491846144B98477B68DBB25E
:104410001846134B9847F8607B6803F01F03BB6096
:10442000FB78002B08D00122BB6802FA03F319467F
:10443000F8680C4B984707E00122BB6802FA03F3C7
:104440001946F868084B9847002318461037BD46B0
:1044500080BD00BF000E0E4040C84000C11F40009C
:104460007D4040002D3F4000613F400080B483B05C
:1044700000AF786039607B683A681A6000BF0C371B
:10448000BD465DF8047B704780B483B000AF7860B0
:104490007B689B6E03F00103002B14BF01230023F4
:1044A000DBB218460C37BD465DF8047B704780B41C
:1044B00083B000AF78607B689B6E03F00203002B33
:1044C00014BF01230023DBB218460C37BD465DF84C
:1044D000047B704780B483B000AF78607B689B6ECC
:1044E00003F00803002B14BF01230023DBB218469E
:1044F0000C37BD465DF8047B704780B483B000AFD5
:1045000078607B689B6E03F04003002B14BF01238F
:104510000023DBB218460C37BD465DF8047B7047BC
:1045200080B483B000AF78607B689B6E03F48073C7
:10453000002B14BF01230023DBB218460C37BD4605
:104540005DF8047B704780B483B000AF7860396059
:104550007B683A68DA6100BF0C37BD465DF8047BC2
:10456000704780B483B000AF786039607B681A6AA6
:104570003B681A437B681A6200BF0C37BD465DF882
:10458000047B704780B483B000AF786039607B688B
:104590003A681A6200BF0C37BD465DF8047B70476D
:1045A00080B483B000AF78607B681B6A18460C3714
:1045B000BD465DF8047B704780B485B000AF78607D
:1045C00039607B689B6AFB60FA68094B1340FB60AB
:1045D0003B681A04074B1340FA681343FB607B687F
:1045E000FA689A6200BF1437BD465DF8047B7047D5
:1045F000FFFF00F80000FF0780B483B000AF7860D1
:1046000039607B683A689A6200BF0C37BD465DF836
:10461000047B704780B485B000AF78600B46FB70B8
:104620007B681B6BFB60FB6823F40053FB60FB782B
:104630005B031A46FB681343FB607B68FA681A63E6
:1046400000BF1437BD465DF8047B704780B485B069
:1046500000AF786039607B681B6BFB60FB6823F000
:104660000303FB603B6803F00303FA681343FB603A
:104670007B68FA681A6300BF1437BD465DF8047B97
:10468000704780B485B000AF786039607B681B6B81
:10469000FB60FB6823F07003FB603B681B0103F0C9
:1046A0007003FA681343FB607B68FA681A6300BF03
:1046B0001437BD465DF8047B704780B485B000AF09
:1046C000786039607B681B6BFB60FB6823F4407388
:1046D000FB603B681B0203F44073FA681343FB6002
:1046E0007B68FA681A6300BF1437BD465DF8047B27
:1046F000704780B485B000AFF8600B467A60FB72FB
:10470000FA7AFB681032796843F8221000BF143738
:10471000BD465DF8047B704780B582B000AF0023D2
:104720007B602648264B9847034623F002037B60B4
:104730007A68244B13437B6079682048224B984762
:1047400000BF1E48214B9847034683F00103DBB2AC
:10475000002BF6D11E4919481E4B98471E4B7B6013
:10476000002116481D4B98477B6843F000531946BB
:1047700012481B4B984700BF10481A4B98470346F6
:1047800083F00103DBB2002BF6D14FF470037B60A2
:104790007B6843F4803319460848134B984700BFA1
:1047A0000648124B9847034683F00103DBB2002B07
:1047B000F6D100BF0837BD4680BD00BF00060E40E1
:1047C000A1454000013E3700854540008944400036
:1047D0000000370163454000013F1800B945400023
:1047E000F9454000AF44400047454000FB444000CD
:1047F00080B500AF00211C481C4B984700BF1A48E9
:104800001B4B9847034683F00103DBB2002BF6D124
:1048100000211548174B984700BF1348144B984781
:10482000034683F00103DBB2002BF6D101210E48D1
:10483000114B984700BF0C480D4B9847034683F037
:104840000103DBB2002BF6D1022107480B4B98473E
:1048500000BF0548064B9847034683F00103DBB2CF
:10486000002BF6D100BF80BD00060E40154640006B
:10487000D544400083464000BB4640004D464000C2
:1048800080B500AF40F2731205210A480A4B9847E1
:1048900000BF0848094B9847034683F00103DBB289
:1048A000002BF6D14FF400510248054B984700BF4A
:1048B00080BD00BF00060E40F34640002145400089
:1048C0006D44400080B400AF00BFBD465DF8047B7E
:1048D0007047000080B500AF044B9847044B9847E1
:1048E000044B9847044B984700BF80BD19474000D0
:1048F000F147400081484000C548400080B483B083
:1049000000AF0346FB7197F90730002B0BDB094919
:1049100097F907305B09FA7902F01F02012000FACB
:1049200002F241F8232000BF0C37BD465DF8047B3E
:10493000704700BF00E100E080B483B000AF0346E1
:10494000FB7197F90730002B10DB0B4997F9073003
:104950005B09FA7902F01F02012000FA02F220330B
:1049600041F82320BFF34F8FBFF36F8F00BF0C3789
:10497000BD465DF8047B704700E100E080B483B081
:1049800000AF0346FB7197F90730002B0CDB094998
:1049900097F907305B09FA7902F01F02012000FA4B
:1049A00002F2603341F8232000BF0C37BD465DF8AA
:1049B000047B704700E100E080B485B000AFF86090
:1049C0000B467A60FB72FB7AFA6810335B01134482
:1049D0007A681A6000BF1437BD465DF8047B7047E3
:1049E00080B485B000AFF8600B467A60FB72FB7A4A
:1049F000FA6810335B01134404337A681A6000BF0D
:104A00001437BD465DF8047B704780B485B000AFB5
:104A1000F8600B467A60FB72FB7AFA685B0113441C
:104A200003F503737A681A6000BF1437BD465DF85A
:104A3000047B704780B485B000AFF8600B467A60A5
:104A4000FB72FB7AFA685B01134403F502737A6820
:104A50001A6000BF1437BD465DF8047B704780B410
:104A600085B000AFF8600B467A60FB72FB7AFA689B
:104A70005B01134403F504737A681A6000BF1437AE
:104A8000BD465DF8047B704780B485B000AFF86028
:104A90000B467A60FB72FB7AFA6813331B011344EE
:104AA0007A681A6000BF1437BD465DF8047B704712
:104AB00080B485B000AFF8600B467A60FB72FB7A79
:104AC000FA681B01134403F59C737A681A6000BFEF
:104AD0001437BD465DF8047B704780B483B000AFE7
:104AE00078607B68DB6918460C37BD465DF8047B4F
:104AF000704780B485B000AF786039607B68DB6850
:104B0000FB60FA683B681340FB60FB68184614378B
:104B1000BD465DF8047B704780B483B000AF786019
:104B200039607B683A681A6000BF0C37BD465DF893
:104B3000047B704780B483B000AF786039607B68D5
:104B40003A68DA6500BF0C37BD465DF8047B7047F4
:104B500080B483B000AF786039607B683A689A6649
:104B600000BF0C37BD465DF8047B704780B483B04E
:104B700000AF786039607B683A68DA6600BF0C374E
:104B8000BD465DF8047B704780B485B000AFF86027
:104B90000B467A60FB72FB7AFA681E339B00134463
:104BA0007A685A6000BF1437BD465DF8047B7047D1
:104BB00080B483B000AF786039607B683A68C3F82E
:104BC000C02000BF0C37BD465DF8047B704780B441
:104BD00083B000AF786039607B683A68C3F82C24F2
:104BE00000BF0C37BD465DF8047B704780B483B0CE
:104BF00000AF786039607B683A68C3F84C2400BF26
:104C00000C37BD465DF8047B704780B483B000AFBD
:104C1000786039607B683A685A6000BF0C37BD46DF
:104C20005DF8047B7047000080B485B000AF786009
:104C30000023FB7316E0FA7B0F4913461B019B1AF6
:104C40009B000B441A687B689A4208D1FA7B134692
:104C50001B019B1A9B001A46074B134406E0FB7B83
:104C60000133FB73FB7B002BE5D000231846143780
:104C7000BD465DF8047B70479CC8400080B483B09B
:104C800000AF786039607B68054A934202D1054ADB
:104C90003B68136000BF0C37BD465DF8047B70476E
:104CA00000C005403823402080B582B000AF786056
:104CB0007B681B691846084B98470346002B07D0B2
:104CC0007B681B68002B03D07B681B68786898475B
:104CD00000BF0837BD4680BDDB4A400080B500AF4D
:104CE000034B1B681846034B984700BF80BD00BFAD
:104CF00038234020A94C400080B586B000AF7860D2
:104D000039603B68002B14BF01230023DBB240F263
:104D100071125A4918465A4B98473868594B984768
:104D200038617B683A681A613B699B681946386844
:104D3000554B98473B69DB681A4600213868534B4E
:104D400098473B691B691A46012138684F4B9847C1
:104D50003B695B69194638684D4B98473B699B69CD
:104D6000194638684B4B98473B69DB6919463868E8
:104D7000494B98473B691B6A19463868474B984727
:104D80003B695B6A19463868454B98473B699B6AA3
:104D900019463868434B98470023FB7524E03B696C
:104DA0001A6B97F917301B011344FB60FB681978E5
:104DB000FB685B681A4638683B4B9847FB68197874
:104DC000FB68DB681A463868384B9847FB681978E7
:104DD000FB689B681A463868354B984797F9173037
:104DE000DBB20133DBB2FB7597F917203B69DB6A55
:104DF0009A42D4D30023FB751FE03B69996B97F966
:104E0000172013465B0013449B000B44BB60BB6838
:104E10001978BB685B681A463868264B9847BB68A8
:104E20001978BB689B681A463868234B984797F9EE
:104E30001730DBB20133DBB2FB7597F917203B6902
:104E40005B6B9A42D9D3796838681C4B98473B69A9
:104E500093F9043018461A4B98473B6993F904308C
:104E60001846184B98473B6993F904301846164B7F
:104E70009847002318461837BD4680BDD8C8400063
:104E8000C11F4000294C4000194B4000894B400095
:104E9000354B4000514B4000B14B40006D4B400042
:104EA000CF4B4000ED4B4000B9494000E149400084
:104EB0000B4A4000B14A4000894A40007D4C400006
:104EC000394940007D494000FD48400080B584B02C
:104ED00000AF78607B68002B14BF01230023DBB296
:104EE0004FF4D47215491846154B98477B681B69D7
:104EF0001846144B9847B8600023FB7314E07B6896
:104F00001869BB681A6B97F90F301B0113441B78A3
:104F10001A460123934019460B4B984797F90F30D7
:104F2000DBB20133DBB2FB7397F90F20BB68DB6A9E
:104F30009A42E4D300BF1037BD4680BDD8C84000B8
:104F4000C11F4000294C40000B4C400080B586B08A
:104F500000AFF860B9607A60FB68002B05D07A6812
:104F6000BB689A4201D2012300E0002303F0010351
:104F7000DBB240F2C51218491846184B9847FB6837
:104F80001B691846164B984738610023FB751AE0D9
:104F9000FB6818693B691A6BFB7D1B0113441B7886
:104FA0007A6819460F4B9847FB6818693B691A6B7A
:104FB000FB7D1B0113441B78BA6819460A4B9847BE
:104FC000FB7D0133FB75FA7D3B69DB6A9A42DFD3D7
:104FD00000BF1837BD4680BDD8C84000C11F400083
:104FE000294C4000354A40005F4A400080B584B0FB
:104FF00000AF78607B68002B14BF01230023DBB275
:1050000040F2D1120A4918460A4B98477B681B693F
:105010000F211846084B98470346FB73FB7B002B78
:1050200001D1002300E0012318461037BD4680BDA2
:10503000D8C84000C11F4000F34A400080B400AF10
:1050400000231846BD465DF8047B704780B483B0EA
:1050500000AF786039607B683A685A6000BF0C37EF
:10506000BD465DF8047B704780B483B000AF7860C4
:1050700039607B683A681A6200BF0C37BD465DF83C
:10508000047B704780B483B000AF786039607B6880
:105090003A681A6000BF0C37BD465DF8047B704764
:1050A00080B582B000AF786039607B68002B04D097
:1050B0003B68002B01D0012300E0002303F0010333
:1050C000DBB241220D4918460D4B98477B683A6880
:1050D0001A607B681B68802118460A4B984711218B
:1050E0003868094B984741F202113868074B9847D6
:1050F000002318460837BD4680BD00BFF0C84000F9
:10510000C11F4000855040004D5040006950400094
:1051100080B582B000AF78607B681B6801211846BB
:10512000034B9847002318460837BD4680BD00BF93
:105130008550400080B483B000AF7860064B6FF0BC
:105140007F425A60044B05221A6000BF0C37BD46EF
:105150005DF8047B704700BF10E000E080B582B0CE
:1051600000AF78607868034B984700BF0837BD46AA
:1051700080BD00BF3551400080B485B000AF78607D
:1051800039603B681B0EFB733B68BB6012E0154B3C
:105190006FF07F425A60134B6FF07F429A6000BFFE
:1051A000104B1B6803F48033002BF9D0BA680E4B08
:1051B0001344BB60FB7B5A1EFA73002BE7D1094AEC
:1051C000BB685360074ABB68936000BF054B1B6810
:1051D00003F48033002BF9D000BF1437BD465DF8CF
:1051E000047B704710E000E0010000FF80B483B052
:1051F00000AF0346FB7197F90730002B0BDB094921
:1052000097F907305B09FA7902F01F02012000FAD2
:1052100002F241F8232000BF0C37BD465DF8047B45
:10522000704700BF00E100E080B483B000AF0346E8
:10523000FB7197F90730002B10DB0B4997F907300A
:105240005B09FA7902F01F02012000FA02F2203312
:1052500041F82320BFF34F8FBFF36F8F00BF0C3790
:10526000BD465DF8047B704700E100E080B483B088
:1052700000AF0346FB7197F90730002B0CDB09499F
:1052800097F907305B09FA7902F01F02012000FA52
:1052900002F2603341F8232000BF0C37BD465DF8B1
:1052A000047B704700E100E080B485B000AFF86097
:1052B0000B467A60FB72FB7AFA689B011344243335
:1052C0007A681A6000BF1437BD465DF8047B7047EA
:1052D00080B483B000AF78600B46FB70FB787A68CF
:1052E0009B01134420331B6803F01003002B14BFF1
:1052F00001230023DBB218460C37BD465DF8047B62
:10530000704780B483B000AF78600B46FB70FB78C9
:105310007A689B01134420331B6803F48033002B0D
:1053200014BF01230023DBB218460C37BD465DF8DD
:10533000047B704780B485B000AFF8600B467A609C
:10534000FB72FB7AFA689B01134404337A681A6093
:1053500000BF1437BD465DF8047B704780B485B04C
:1053600000AFF8600B467A60FB72FB7AFA689B012B
:10537000134414337A681A6000BF1437BD465DF8D1
:10538000047B704780B485B000AFF8600B467A604C
:10539000FB72FB7AFA689B01134418337A681A602F
:1053A00000BF1437BD465DF8047B704780B485B0FC
:1053B00000AFF8600B467A60FB72FB7AFA689B01DB
:1053C00013441C337A681A6000BF1437BD465DF879
:1053D000047B704780B485B000AFF8600B467A60FC
:1053E000FB72FB7AFA689B01134430337A681A60C7
:1053F00000BF1437BD465DF8047B704780B485B0AC
:1054000000AFF8600B467A60FB72FB7AFA689B018A
:1054100013447A681A6000BF1437BD465DF8047BF8
:10542000704780B483B000AF786039607B683A68B9
:10543000C3F8D82000BF0C37BD465DF8047B704729
:1054400080B485B000AF78600023FB7315E0FA7B71
:105450000F491346DB0013449B000B441A687B681A
:105460009A4207D1FA7B1346DB0013449B00084A9B
:10547000134406E0FB7B0133FB73FB7B002BE6D080
:10548000002318461437BD465DF8047B704700BF03
:10549000E800402080B483B000AF786039607B685A
:1054A000054A934202D1054A3B68136000BF0C379E
:1054B000BD465DF8047B704700C000403C2340209F
:1054C00080B584B000AF7860396038682E4B98475B
:1054D000B860BB689B68FB607B683A68DA609122C1
:1054E0002A4901202A4B9847FB6803F40043002B0C
:1054F00003D0FB6843F41423FB60FA68002138688A
:10550000244B9847BB685B691A4600213868224BD8
:105510009847BB689B691A46002138681F4B98471B
:10552000BB68DB681A46002138681D4B9847BB688A
:10553000DB691A46002138681A4B9847102200216F
:105540003868194B9847BB681B6919463868174B70
:10555000984779683868164B9847BB6893F90430C8
:105560001846144B9847BB6893F904301846124B01
:105570009847BB6893F904301846104B98470023AE
:1055800018461037BD4680BD4154400008C9400050
:10559000C11F4000355340005D534000855340001B
:1055A000D5534000AD534000A95240002354400061
:1055B00095544000295240006D524000ED5140008A
:1055C00080B582B000AF78607B68DB68052200217F
:1055D0001846034B984700BF0837BD4680BD00BF43
:1055E000FD53400080B582B000AF78607B68DB6817
:1055F00000211846034B9847034618460837BD4616
:1056000080BD00BF0353400080B584B000AF786018
:105610007B68DB681846074B9847F860FB6893F98E
:105620000430DBB21846044B984700BF1037BD4624
:1056300080BD00BF415440007D2B400080B584B048
:1056400000AF78607B68DB68FB600021F868064B80
:1056500098470346002B03D07B681B6878689847FF
:1056600000BF1037BD4680BDD152400080B400AFAE
:1056700000231846BD465DF8047B704780B500AF37
:10568000034B1B681846034B984700BF80BD00BF03
:105690003C2340203D56400080B483B000AF78608A
:1056A00039607B683A681A6300BF0C37BD465DF805
:1056B000047B704780B485B000AF786039607B6848
:1056C0009B6BFB60FA683B681340FB60FB68184605
:1056D0001437BD465DF8047B704780B483B000AFDB
:1056E000786039607B683A685A6300BF0C37BD4602
:1056F0005DF8047B704780B483B000AF78607B684E
:10570000DB6B18460C37BD465DF8047B704780B4F0
:1057100083B000AF78607B689B6818460C37BD4645
:105720005DF8047B704780B483B000AF78607B681D
:105730001B6903F00103002B14BF01230023DBB21C
:1057400018460C37BD465DF8047B704780B483B0C3
:1057500000AF78607B681B6903F00403002B14BF63
:1057600001230023DBB218460C37BD465DF8047BED
:10577000704780B483B000AF78607B685B6823F0CB
:1057800001027B685A6000BF0C37BD465DF8047BA0
:10579000704780B483B000AF78607B681B6A23F0E9
:1057A00001027B681A6200BF0C37BD465DF8047BBE
:1057B000704780B483B000AF78607B681B6A23F0C9
:1057C00002027B681A6200BF0C37BD465DF8047B9D
:1057D000704780B483B000AF786039607B683A6806
:1057E000DA6000BF0C37BD465DF8047B70470000EF
:1057F00080B483B000AF0346FB71FB795B021A46AD
:10580000034B134418460C37BD465DF8047B7047C4
:10581000000E0E4080B584B000AF03463960FB71C6
:105820001346BB71FB791846094B9847F860BB7962
:10583000002B04D03968F868064B984703E03968B4
:10584000F868054B984700BF1037BD4680BD00BFC4
:10585000F157400099564000DB56400080B586B0B5
:1058600000AF03463960FB71FB7918460C4B984733
:105870007861396878690B4B984738613B69DA433E
:105880003B681340FB60F9687869074B98473969B2
:105890007869064B984700BF1837BD4680BD00BFEA
:1058A000F1574000B556400099564000DB56400085
:1058B00080B584B000AF0346FB71FB791846064BF8
:1058C0009847F860F868054B9847B860BB68184679
:1058D0001037BD4680BD00BFF1574000F75640006D
:1058E00080B582B000AF03460A46FB711346BB7118
:1058F000FB795B09D8B2FB7903F01F03012202FA9E
:1059000003F3BA791946034B984700BF0837BD46E1
:1059100080BD00BF1558400080B582B000AF03467F
:10592000FB71FB795B09D8B2FB7903F01F030122FD
:1059300002FA03F31946034B984700BF0837BD46E8
:1059400080BD00BF5D58400080B582B000AF034607
:10595000FB71FB795B09DBB21846094B984701469E
:10596000FB7903F01F03012202FA03F30B40002B23
:1059700014BF01230023DBB218460837BD4680BDA3
:10598000B158400090B589B006AF434B98474348A3
:10599000434B98470A20434B9847002241F27071CD
:1059A0003E48414B98470A203E4B9847012107202B
:1059B0003E4B9847012108203C4B98473C4B984769
:1059C0003C4B98473C4B984700203C4B984703463C
:1059D0009AB23B4B1A800220384B984703469AB242
:1059E000384B1A800420384B984703461A46374BE9
:1059F0001A70364B1B78DBB2002B0BD0334B1B7865
:105A0000DBB2012B06D000210420314B98472F4BED
:105A100000221A7008202C4B98470346012B09D10D
:105A20000620264B984703461A462A4B1A802A4BD3
:105A300001221A700520244B984703461A46274B2B
:105A40001A70264B1B78002B0BD0244B1B78012B94
:105A500007D0002105201E4B9847204B00221A70CA
:105A600006E01E4B1B78002B02D01D4B01221A7042
:105A70000023FB710C20144B98470346FB71FB7904
:105A8000022B3CD10B20104B98470346012B2DD104
:105A9000144B154A1A6032E0C10140002027402013
:105AA000051B400001164000591B4000E158400012
:105AB000F57C4000FD7B4000D584400039844000E7
:105AC000C4244020C624402019844000CC24402017
:105AD00071844000E8234020EA2340203224402003
