:020000040800F2
:1000000000180020A5480008694800086D4800084D
:1000100000000000000000000000000000000000E0
:10002000000000000000000000000000714800080F
:100030000000000000000000754800087948000832
:1000400025490008254900082549000825490008D8
:1000500025490008254900082549000825490008C8
:10006000254900088148000825490008254900085D
:10007000914800082549000825490008254900083D
:100080002549000800000000000000002549000884
:1000900000000000254900082549000825490008FE
:1000A00000000000254900082549000825490008EE
:1000B00025490008000000002549000825490008DE
:1000C00010B5064C2378002B07D1054B002B02D02E
:1000D000044800E000BF0123237010BD140000207D
:1000E00000000000706B0008044B10B5002B03D01B
:1000F0000349044800E000BF10BDC04600000000F6
:1001000018000020706B0008002243088B4274D353
:1001100003098B425FD3030A8B4244D3030B8B4208
:1001200028D3030C8B420DD3FF22090212BA030C11
:100130008B4202D31212090265D0030B8B4219D3F2
:1001400000E0090AC30B8B4201D3CB03C01A524112
:10015000830B8B4201D38B03C01A5241430B8B425A
:1001600001D34B03C01A5241030B8B4201D30B0343
:10017000C01A5241C30A8B4201D3CB02C01A52416A
:10018000830A8B4201D38B02C01A5241430A8B422D
:1001900001D34B02C01A5241030A8B4201D30B0216
:1001A000C01A5241CDD2C3098B4201D3CB01C01A30
:1001B000524183098B4201D38B01C01A524143093A
:1001C0008B4201D34B01C01A524103098B4201D328
:1001D0000B01C01A5241C3088B4201D3CB00C01A95
:1001E000524183088B4201D38B00C01A524143080D
:1001F0008B4201D34B00C01A5241411A00D2014632
:10020000524110467047FFE701B5002000F0F0F8BA
:1002100002BDC0460029F7D076E7704703460B437E
:100220007FD4002243088B4274D303098B425FD3EF
:10023000030A8B4244D3030B8B4228D3030C8B421B
:100240000DD3FF22090212BA030C8B4202D3121201
:10025000090265D0030B8B4219D300E0090AC30BD6
:100260008B4201D3CB03C01A5241830B8B4201D383
:100270008B03C01A5241430B8B4201D34B03C01A6C
:100280005241030B8B4201D30B03C01A5241C30AE4
:100290008B4201D3CB02C01A5241830A8B4201D355
:1002A0008B02C01A5241430A8B4201D34B02C01A3F
:1002B0005241030A8B4201D30B02C01A5241CDD2E4
:1002C000C3098B4201D3CB01C01A524183098B422F
:1002D00001D38B01C01A524143098B4201D34B0118
:1002E000C01A524103098B4201D30B01C01A52417B
:1002F000C3088B4201D3CB00C01A524183088B4202
:1003000001D38B00C01A524143088B4201D34B00EA
:10031000C01A5241411A00D201465241104670475C
:100320005DE0CA0F00D04942031000D34042534061
:1003300000229C4603098B422DD3030A8B4212D321
:10034000FC22890112BA030A8B420CD38901921153
:100350008B4208D3890192118B4204D389013AD090
:10036000921100E08909C3098B4201D3CB01C01A65
:10037000524183098B4201D38B01C01A5241430978
:100380008B4201D34B01C01A524103098B4201D366
:100390000B01C01A5241C3088B4201D3CB00C01AD3
:1003A000524183088B4201D38B00C01A5241D9D2EB
:1003B00043088B4201D34B00C01A5241411A00D26C
:1003C0000146634652415B10104601D34042002B68
:1003D00000D54942704763465B1000D3404201B5E7
:1003E000002000F005F802BD0029F8D016E770479C
:1003F0007047C0468446101C62468C46191C6346F2
:1004000000E0C0461FB501F087FB002801D40021A1
:10041000C8421FBD10B501F0D1FA4042013010BDF5
:1004200010B501F079FB002801DB002010BD012090
:1004300010BDC04610B501F06FFB002801DD0020A3
:1004400010BD012010BDC04610B501F0F3FA002820
:1004500001DC002010BD012010BDC04610B501F028
:10046000E9FA002801DA002010BD012010BDC046C5
:100470008446081C6146FFE71FB500F067FB0028B3
:1004800001D40021C8421FBD10B500F0EBFA404274
:10049000013010BD10B500F059FB002801DB002031
:1004A00010BD012010BDC04610B500F04FFB002864
:1004B00001DD002010BD012010BDC04610B500F0C8
:1004C000F9FA002801DC002010BD012010BDC04653
:1004D00010B500F0EFFA002801DA002010BD01206D
:1004E00010BDC0469E2110B5C905041CFFF7F0FFE2
:1004F000002803D1201C00F055FE10BD9E21201CB9
:10050000C90500F087FC00F04DFE80231B069C46C9
:100510006044F2E7F0B54646D6464F464D024202E9
:10052000C0B5520A6E0A4700B0463F0E4E00C40FD7
:10053000D00094463B008246360EC90FAD098C426E
:100540006DD0B81B814600284DDD002E00D188E01B
:10055000FF2F5AD08023DB041D434B4601221B2B67
:100560000ADC2B004A464946D3402022521A9540C5
:100570002A00551EAA411A4353469A1A530100D421
:10058000B9E092019609300002F06AFA0538864017
:10059000874200DDD4E03300C71B20200137FB4039
:1005A000C71BBE403200561EB24100271A435307F4
:1005B00004D00F231340042B00D00432530100D485
:1005C0009CE07B1CFE2F00D19AE09201520A9446D7
:1005D000DBB2D8056346E40718432043E0BCBA46C3
:1005E000B146A846F0BD002849D0F31B002F00D02B
:1005F000B6E05246002A60D0013B002B00D1FCE05F
:10060000FF2E00D0B4E00C004246002A78D08020B3
:10061000C00310434202530A9C46FF23D9E7B91B8B
:10062000002971DD002E3FD0FF2FEED08023DB04A8
:100630001D4301221B2907DC2A002023CA40591A26
:100640008D406B1E9D412A435244530153D50137BF
:10065000FF2F55D001237B49134052080A401A430B
:10066000A5E7002D2CD001235B429C46E1444B467C
:10067000002B00D1ADE0FF2F00D06EE7C5E7FE20D4
:100680007E1C304260D1002F00D093E05246002AF9
:1006900000D1B6E0002D9CD0521B500100D4C3E025
:1006A00053460C00EA1A82E7002D09D001390029CF
:1006B00000D18BE0FF2FBCD1A7E70C0042463700EA
:1006C000FF2FA2D05202530A9C46FBB281E7FE21C3
:1006D0000137394265D1002B7ED1002800D1AAE034
:1006E000002D00D175E72A0052440027530102D59E
:1006F000554B01371A40530700D05AE7D208DFE7BD
:100700000022FF23944664E70029E0D0F31B002F6A
:100710003ED0FF2E00D177E780220100D2041143A2
:100720008A4601221B2B08DC524620215046DA4023
:10073000CB1A9840431E984102433700521984E770
:10074000414A3F1A324032E753465E1B73012DD4B3
:10075000002E00D017E7002200240023944638E73B
:10076000FF2E00D14FE780225046D204104382462C
:1007700001221B2B08DC524620245046DA40E31AA3
:100780009840431E984102430C003700AA1AF5E630
:10079000002893D0013B002B4FD0FF2EC1D1424601
:1007A00033E7FF2FACD055446A08A4E753460C004A
:1007B000EE1AE8E65346002B28D1002D00D022E7A0
:1007C0008023DB039C460024FF2302E72A005244D7
:1007D0003BE753465A1BD1E6002800D114E7002D11
:1007E00000D112E78023DB031A4200D10DE7414616
:1007F000194200D009E7424607E70C003700AA1A61
:10080000BCE6002D13D00C00C446E2E6002D00D15A
:10081000FBE68023DB031A4200D1F6E6404618428D
:1008200000D0F2E60C00EFE6002A00D063E70022D9
:1008300000249446CDE6C446CBE62A003700524455
:1008400003E7C046FFFFFF7DFFFFFFFBF0B54F460C
:100850004646D6464502C0B547000C1C6D0A3F0E01
:10086000C60F002F66D0FF2F6CD00023EA00802532
:1008700099469A46ED0415437F3F60026100430AA2
:100880009846090EE40F002948D0FF2910D0802295
:10089000D800D2040243904600207F394A463300F4
:1008A0007F1A02436C4992008A586340DBB2974634
:1008B000002B6DD10220FF3F33E000239846260035
:1008C000454682465346022B00D17FE0032B00D1E0
:1008D00094E0012B17D038007F3000285FDD6B07D4
:1008E00004D00F232B40042B00D004352B0103D55B
:1008F00038005A4B80301D40FE2867DCAD016D0A80
:10090000C0B202E01E0000200025C0052843F60703
:100910003043E0BCBA46B146A846F0BD002B2BD10F
:1009200001204A4633004E49024392008A586340F0
:10093000DBB29746002D13D104239946033B0027D1
:100940009A469AE7002D05D108239946063BFF27D2
:100950009A4692E70C239946093BFF279A468CE773
:10096000280002F07DF87627431F9D4000237F4238
:1009700099469A463F1A80E7180002F071F84246FD
:10098000431F76219A404942091A9046002085E784
:10099000FF21032082E71E00FF200025B5E7012389
:1009A0001B1A1B2BAFDC9E372900BD40D9406A1EA5
:1009B00095410D436B0704D00F232B40042B00D02F
:1009C00004356B0144D5012000259EE7FF2000255A
:1009D0009BE780250026FF20ED0396E7002398463D
:1009E0008020C003054209D04346034206D1454654
:1009F00005436D022600FF206D0A86E78020C003B4
:100A000005436D02FF206D0A7FE741466A014801F8
:100A1000824219D21B210025013F012614006D00DE
:100A20005200002C01DB904201D8121A35430139E3
:100A30000029F3D1501E824138007F301E0015433B
:100A4000002800DD4BE7AAE71A210125121AE4E786
:100A5000AD0100206D0A58E7886B0008FFFFFFF723
:100A6000C86B000870B542004E024C0045026D0A8A
:100A7000120EC30F760A240EC90FFF2A0FD0FF2CC7
:100A800011D00120A24200D070BDB542FCD18B42F2
:100A90000DD0002AF8D12800451EA841F4E7012016
:100AA000002DF1D1EBE70120002EEDD1E9E7002088
:100AB000EAE7C046F0B5420046024D024C00C30FC3
:100AC000760A120E6D0A240EC80FFF2A1FD0FF2CC3
:100AD00010D0002A1FD171427141002C01D1002D8C
:100AE0001ED000290ED183421ED00221581E08407C
:100AF0000138F0BD002D26D1002AF4D17142714198
:100B00000029F0D00028F4D101204042F1E7002E66
:100B100019D1FF2CEED0002CE5D1002DE3D1E4E774
:100B20000020002EE5D0E0E7A24205DCEADBAE4281
:100B300002D8E7D30020DCE741424141484202218C
:100B400008400138D5E702204042D2E7F0B5420024
:100B500046024D024C00C30F760A120E6D0A240E97
:100B6000C80FFF2A0DD0FF2C0FD0002A23D17142CD
:100B70007141002C0FD1002D0DD10020002E14D07A
:100B80000DE0002E10D1FF2C15D1002D0CD1002A24
:100B900003D171427141002908D1834210D0022152
:100BA000581E0840013800E00220F0BD0028FCD1AA
:100BB00001204042F9E7002CEFD1002DEDD1EEE706
:100BC000A24205DCF2DBAE4202D8EFD30020ECE714
:100BD000414241414842022108400138E5E7C04610
:100BE000F8B557464E464546DE464402E0B5450058
:100BF0000F1C640A2D0EC60F002D47D0FF2D4DD0BF
:100C0000002380209A469B46E400C00404437F3DB5
:100C10007802430A99467A00FB0F9846120E4B461B
:100C200044D0FF2A11D0D8008023DB040343994627
:100C300000207F3AAD18474653467740691C0F2B7A
:100C40003FD8724A9B00D3589F46FF35002B00D0F7
:100C500079E0524602231A4392460220EBE74746C8
:100C60004C4683465B46022B28D0032B00D1C6E0BE
:100C7000012B4FD100200024C005FF07204338433B
:100C8000F0BCBB46B246A946A046F8BD002C71D1C7
:100C900004239A46033B00259B46B9E7002C63D109
:100CA00008239A46063BFF259B46B1E7002B50D10F
:100CB000524601331A4392460120BCE7FF2000242C
:100CC000DAE74846260C2404220C0404240C4B4684
:100CD00020001B0C504374435A435E431219030C0B
:100CE0009B189C4203D98022520294466644000419
:100CF0001A04000C12189401601E84411B0C920E01
:100D00009B1914439B011C431B0172D501206308EE
:100D100004401C4308007F3000283CDD630704D0FA
:100D20000F232340042B00D00434230103D580314A
:100D30000800374B1C40FE28C0DCA401640AC0B286
:100D40009AE737008EE7524603231A439246032060
:100D500071E7484601F084FE4A46431F9A402D1A27
:100D600091460020763D66E70C239A46093BFF2515
:100D70009B464DE7200001F073FE7625431F9C4003
:100D800000236D429A469B462D1A41E78024002796
:100D9000FF20E40370E701231B1A1B2B00DD69E72A
:100DA0009E3120008C40D840631E9C410443630761
:100DB00004D00F232340042B00D0043463011AD540
:100DC0000120002458E78020C003044209D04B468C
:100DD000034206D14C46044364024746FF20640A9E
:100DE0004AE78020C003044364023700FF20640AFE
:100DF00042E729008EE7A4010020640A3CE7802036
:100E0000C00304436402FF20640A35E7086C00084D
:100E1000FFFFFFF7F0B54646D6464F4643025B0A52
:100E2000DA0094464A02C0B54400560A051CB04692
:100E3000240E4E0092091F0020009246ED0F360E40
:100E4000C90FFF2E00D17FE0012251408D4251D0C9
:100E5000A21B9146002A00DC7EE0002E00D199E022
:100E6000FF2C00D18CE080235246DB041A439246CB
:100E70004A4601231B2A08DC53462021D340891A05
:100E800052468A40511E8A4113436246D31A5A0180
:100E900000D4F3E09B019E09300001F0E1FD05382C
:100EA0008640844200DDF7E03200041B202001343C
:100EB000E240041BA64033005E1EB34100241343EE
:100EC0005A0704D00F221A40042A00D004335A01D2
:100ED00000D4D6E0621CFE2C00D1DAE09B015F0A50
:100EE000D0B2C0053843ED072843E0BCBA46B1464E
:100EF000A846F0BDA21B9146002A63DD002E00D15A
:100F000099E0FF2C3CD080235246DB041A439246E2
:100F10004A4601231B2A08DC53462021D340891A64
:100F200052468A40511E8A41134363445A0100D4F9
:100F3000A4E00134FF2C00D1ABE0012297491A4014
:100F40005B080B401343BBE7002A32D08D4235D0FB
:100F5000FF2252429146A1444A46002A51D0301BFA
:100F6000002C00D09CE06346002B00D1DFE001386C
:100F7000002800D1F7E0FF2E00D099E00D00434695
:100F8000002B00D185E08027FF031F437F02FF2055
:100F90007F0AA6E75246002A74D0012252429046A8
:100FA000C1444A46002A00D1C8E0FF2C00D05FE7C8
:100FB000E6E701225140A94200D049E7FF22524210
:100FC0009146A1444A46002A43D0311B002C00D14F
:100FD0008CE0FF2E00D192E080236246DB041A43AE
:100FE000944601231B2909DC202063466246CB403E
:100FF000411A8A401100481E81410B43340053447A
:1010000094E7FE22661C324264D1002C00D082E0BC
:101010006346002B00D1ABE05346002B00D160E7C4
:10102000634652469B1A5A0100D4AAE063465246D0
:101030000D00D31A44E75246002A23D0012252421F
:101040009046C1444A46002A75D0FF2C00D05FE785
:1010500096E7FE260134264253D1002872D163461A
:10106000002B00D193E05346002B00D139E76344B5
:1010700000245A0102D54A4A013413405A0700D0CD
:1010800020E7DB08FF2C00D17AE75B025F0AE0B2C1
:1010900027E7FF20002724E7414B241A33400FE7BE
:1010A000FF2E00D16AE780236246DB041A43944690
:1010B00001231B2809DC202463466246C340201A12
:1010C00082401000441EA041034352460D003400EC
:1010D000D31ADCE6634652469E1A730117D4002EDB
:1010E00000D0D9E6002500200027FAE66346002B51
:1010F00044D0013900294CD0FF2E00D071E743467F
:101100003EE7FF2CC5D0524662445308B6E763461B
:101110000D00D61AC0E66246002A16D15346002BAF
:1011200000D02BE780270025FF20FF03D9E60D0024
:1011300043463400A6E753466344F7E66346524607
:101140009B1AA4E66246002AD9D05246002A00D152
:1011500016E78022D203134200D111E74046104225
:1011600000D00DE70AE752460D003400D31A8EE690
:101170005346002B08D00D004746B2E643463400E4
:1011800080E7002B00D079E700250027A9E6474635
:10119000A7E6534634006344C8E6C046FFFFFF7D20
:1011A000FFFFFFFB41024200C30F490A0020120E5D
:1011B0007E2A03D99D2A02D9094A981870478020AF
:1011C00000040143952A07DC9620821AD140484248
:1011D000002BF3D10800F1E7963A9140F7E7C046BB
:1011E000FFFFFF7F70B5002813D0C317C5185D40FF
:1011F000C40F280001F034FC9E2301001B1A962B1B
:101200000FDC082801DD08398D406D026D0AD8B267
:1012100002E0002400200025C0052843E407204305
:1012200070BD992B0BDD05222E00121AD64002004C
:101230001B3295402800451EA8413500054305296D
:1012400001DD4A1F95402A00084E3240680709D048
:101250000F202840042805D00432500102D59F23D6
:1012600032405B1A9201550AD8B2D5E7FFFFFFFB67
:1012700070B5051E0ED001F0F3FB9E2304001B1A6F
:10128000962B0CDC082801DD083CA5406D026D0A98
:10129000D8B201E000200025C005284370BD992B7D
:1012A00009DD020029001B3291404A1E91410522AE
:1012B000121AD5400D43052C01DD621F954029000F
:1012C000084E31406A0709D00F202840042805D075
:1012D00004314A0102D59F2331401B1B89014D0A6D
:1012E000D8B2D9E7FFFFFFFBF0B54F46D6464646DA
:1012F0000D0001001800C0B517002B035A0A4B0F50
:101300001343CA00914602036E004100520AEC0FDB
:101310007D0F1543760D490DC00F8246AC46FF0088
:10132000721A844200D198E0002A00DC81E0002992
:1013300000D1B6E0C9498E4200D172E18021280077
:10134000090408438446382A00DD5EE11F2A00DDD7
:10135000EEE1202039006546801A8740D140854063
:101360000D4339004F1EB9416746D7402943DB1B67
:101370004A46551AA945894149425B1A984643464F
:101380001B0200D4CCE043465B025B0A984643460E
:10139000002B00D12CE1404601F062FB010008392E
:1013A000202228004346521A8B40D0408D400343F0
:1013B0008E4200DD17E18E1B721C1F2A00DDA7E1A3
:1013C000202118002E00891A8D408840D640D34035
:1013D000691E8D4130439846002605436B0709D0AE
:1013E0000F232B40042B05D02B1DAB42AD416D428A
:1013F000A8441D0043461B0200D494E0974B721C86
:101400009A4200D19DE04146954BED0819400B00F2
:10141000520549075B0229431B0B520D120513436A
:10142000E407234308001900E0BCBA46B146A846C9
:10143000F0BD002A43D08A1B002E00D02AE14C4682
:101440001C4300D1D1E1541E012A00D11FE2834D7B
:10145000AA4200D172E2220023E1002A00DC98E0D7
:10146000002942D07D498E4200D1DAE08021280057
:10147000090408438446382A00DD29E11F2A00DCDC
:1014800087E1110065462039CD40202A04D0402054
:101490006146821A91400F4339004F1EB9410D43F6
:1014A0001BE12900394300D1B5E0511E012A00D1CA
:1014B000ABE16A48824200D1B2E10A0043E76949E0
:1014C000751C0D4200D0CFE0002E00D093E14946BC
:1014D000194300D1D1E16146394300D0E3E14946E7
:1014E0005807C9080143DB0826E02900394300D129
:1014F00091E0511E012A05D05848824200D18FE167
:101500000A00B8E73D004D444D4589416344984683
:1015100049428844434602261B0200D5EBE0013EC7
:101520006B0700D05CE74346E9085A0711433200D5
:10153000DB084A48824221D01B0352051B0B520D87
:101540006CE70023002169E72A003A4369D04A4644
:101550005807D108DA0880231B0308431A4207D032
:101560002900ED081D4203D12A00FF08480738432F
:10157000430FC1005B07C908194313000A001A434F
:1015800000D113E28022120313431B03334A1B0BC7
:1015900044E7002A4BD08A1B002E00D1E7E02F48F9
:1015A000814200D195E1802000040343382A00DD08
:1015B00043E11F2A00DDDBE120201D004E46801A9A
:1015C0008540D64035434E4686403000D340461EC7
:1015D000B0419C440543ED19BD429B415B426344CD
:1015E00098460E007FE01E4A761A13409846F5E6AC
:1015F000280001F035FA010018311F2900DCCFE680
:101600002B00083883400025D2E662463A43110099
:101610004F1EB941ACE649465807C9080143DB08EB
:1016200087E749465A07C9081143DB08A6E70D4971
:10163000701C084200D0BBE0002E00D014E14946E7
:10164000194300D175E12900394300D07EE14946B4
:101650005807C9080143DB086EE7C046FF070000D2
:10166000FFFF7FFFFE0700004946CD1B6146581A69
:10167000A94589414942884601004046091A8846E1
:10168000090200D5A6E04146294300D07FE60023A9
:10169000002451E7C74CA14200D1C7E080242404B4
:1016A0002343382A54DC1F2A00DDCCE0202448469E
:1016B000A41A1D004E46A040D640A5400400D340C9
:1016C00062463543661EB441D31A9C46254344E026
:1016D00062463A4315006F1EBD414D444D45894158
:1016E00049428846984443461B0200D418E7B14B50
:1016F00001369E4249D04246AF4B01211A401300A9
:101700006A080D401543D9075B0898460D4365E606
:1017100018001F3EF040202A03D040218A1A93402F
:101720001D43691E8D410023002698460543F7E6B8
:10173000110065462039CD40202A04D04020614662
:10174000821A91400F4339004F1EB94129430FE6D9
:101750004A4613431D006B1E9D417D1BAF429B41BA
:1017600062465B42D31A984654460E0007E6484646
:10177000184300D1B3E0501E012A00D10DE18D4D78
:10178000AA4200D1A5E0020010E7320000230021A8
:1017900044E620213800891A65468F408D40D040AC
:1017A000791E8F4105433D436746D740DB1994E7D7
:1017B000804A904200D1ECE03900494449459241C9
:1017C000634452429B18DD0749085B0898460600AF
:1017D0000D43A5E64A46BD1AAF42894162464942D9
:1017E000D31A5B1A98465446D1E56C07F908214391
:1017F000EB0804009DE64A461A4375D16146394319
:1018000014D1802300241B03BCE64A46D51BA945FE
:101810008941624649429B1A5B1A98460126AEE509
:101820004A46D1085A071143DB08A7E66346F90880
:101830005A0754461143DB08A0E64A4613431D00ED
:101840006B1E9D41C7E614001E00203CE640202A86
:1018500005D04024A21A93404A461A4391464D4669
:101860006B1E9D41354378E74A461A4300D06BE62C
:101870006B07F9081943EB0880E66146394354D0F9
:101880006346F9085C072143DB08040054E64A4636
:10189000BD1AAF42894162464942D31A5B1A984643
:1018A000040001266BE54A46D51BA94589416246DD
:1018B00049429A1A521A9046120232D54A46BD1A25
:1018C000AF42894162464942D31A5B1A98460400E6
:1018D00084E56346F9085A071143DB084EE6F90828
:1018E00068070143EB0824E662463A4300D198E6D4
:1018F0004A46D1085A071143DA0880231B031A42CB
:1019000008D06046C5081D4204D154462A00F90893
:10191000430719434B0FC9005B07C908194313005C
:101920002CE64146294300D0FAE500230A000024B2
:1019300002E66B07F9081943EB08FDE56346F90871
:101940005B07194363460400DB0817E63D004D447E
:1019500063444D45894198464942884443461B02A9
:1019600000D4DDE54246144B01261A409046D7E5E7
:1019700010001E002038C640202A05D04020821AC0
:1019800093404A461A4391464D466B1E9D4135434E
:1019900021E602000023002140E54A46D519BD4258
:1019A00089416344984649428844B3E50021014A8D
:1019B0000B0033E5FF070000FFFF7FFFF0B54F4648
:1019C0004646D646944691461A03120B184DC0B5AA
:1019D0004C000F0392465A00060080463F0B012040
:1019E000640DC90F520DDB0FAC420AD0AA4203D0DE
:1019F000944201D157450DD0E0BCBA46B146A84645
:101A0000F0BD3D003543F7D1A242F5D152466546BF
:101A10002A43F1D10120C845EED1994206D0002CCD
:101A2000EAD13E433000461EB041E5E70020E3E73F
:101A3000FF070000F0B54E4645465746DE46040017
:101A40001800E0B516001B031B0B324D0F034A00B4
:101A500099464300A446B0463F0B520DC90F5B0D9B
:101A6000C00FAA4229D0AB4218D0002A2AD13C4349
:101A7000A34665426541002B02D14C46264327D040
:101A8000002D15D1814228D00220013908400138AB
:101A9000F0BCBB46B246A946A046F0BD4D462E431B
:101AA0002FD1002AEED13C4365426541002DE9D09B
:101AB0000028EDD101204042EAE73D00254320D136
:101AC0009342EBD0002BDDD14C462643DAD1DBE745
:101AD0005B460020002BDBD0D6E79A420ADCE7DB2E
:101AE0004F45D1D810D000204F45D1D20029E1D0A8
:101AF0000800CDE7434258410223404218400138D4
:101B0000C6E702204042C3E7C445BDD80020C44513
:101B1000BED2EBE7FF070000F0B54E4645465746FC
:101B2000DE4604001800E0B516001B031B0B314D08
:101B30000F034A0099464300A446B0463F0B520D9E
:101B4000C90F5B0DC00FAA4211D0AB4214D0002ABE
:101B50002FD13C43A34665426541002B14D14C462E
:101B6000264311D15B460020002B17D010E03D002A
:101B7000254312D193421CD14D462E430DD1002A4C
:101B800004D13C4365426541002D0DD1814216D000
:101B9000022001390840013800E00220F0BCBB46B9
:101BA000B246A946A046F0BD0028F7D10120404228
:101BB000F4E7002BEAD14C462643E7D1E8E79A4206
:101BC00006DD434258410223404218400138E5E710
:101BD0009A42E9DB4F45DBD806D000204F45DDD2E5
:101BE0000029E3D00800D9E7C445D1D80020C44576
:101BF000D4D2F5E7FF070000F0B557464E464546FC
:101C0000DE46E0B598460C034B000600924687B0CE
:101C1000240B5B0DCF0F002B6CD0DD4A934200D11B
:101C200086E0420FE4001443802212041443D94A90
:101C3000C500944663440093002399469B4643465F
:101C400042461E03D20F5B0050469046360B5B0D9A
:101C500000D178E0CE4A93421DD0CE49420F8C4647
:101C600000996344F6008C46164380229C4412047B
:101C700063461643C2000020009300994346013199
:101C80008C4649467B4001930F2900D97EE0C24B28
:101C9000890059588F465246009B324300D056E186
:101CA000BB4900268C4663444946009302231943EE
:101CB00089460220E1E7434601933400150083463C
:101CC0005B46022B5ED0032B00D1F3E1012B00D049
:101CD00018E1002200240025019B12052243DB07A6
:101CE0001A432800110007B0F0BCBB46B246A94613
:101CF000A046F0BD2500054300D141E1002C00D1F4
:101D0000ADE1200000F0ACFE010002000B391D2304
:101D100010005B1A3100350008388440D9408540F6
:101D20000C439E48831A0093002399469B4686E7FE
:101D30000500254300D01CE1082200930223002463
:101D400091469B467BE75246324300D10AE1002E82
:101D500000D176E1300000F083FE02000B3A1D2333
:101D600001009B1A52460839DA408E40164352460B
:101D70008A40009B8949181A03008C46634400205E
:101D800000937AE700240025814AA5E72F0C2D0453
:101D90002D0C2B00110C1204120C53439846130007
:101DA00028007B43994648434844834640460B00FD
:101DB000000C824658467B4350440293814506D925
:101DC0009A4680235B029946CA4453460293030C09
:101DD0009B4643461B0400041B0C984603004344E7
:101DE0000493330C99462B003604360C7343984603
:101DF00033007B439A464B465D435F43434655441D
:101E0000180C4019824503D980235B029A46574437
:101E1000050CEB19059343461D042D0C00044019D5
:101E2000250C2404240C270057436A4390462A00BB
:101E30003B0C9A464A43614341445144834488459C
:101E400003D980235B02984642443F040B0C3F0CAD
:101E50000904C919270098464B4677435C436E43F3
:101E60005D433B0C9946A4194C4442440395A64259
:101E700004D980235B02984645440395029B3F04A6
:101E80005B441E008342804123049846059B3F0C1F
:101E90004744984676188E428941474440423D184F
:101EA000A846934649428A46C3449F42BF41804563
:101EB0008041039BDA449846534640427F420743A1
:101EC000240C934592418A4589413F19DC0D049BBE
:101ED00075021D43681E85415346524249420A43DA
:101EE000BF184744F60D7F0235435A023C43154361
:101EF000FB0100D4C1E001216A080D401543E2074F
:101F00001543640826496144002956DD6B0709D052
:101F10000F222A40042A05D02A1DAA42AD416D4253
:101F200064191500E30104D580211E4AC90014403C
:101F300061441D4A914200DD24E76207ED08640216
:101F400049051543240B4A0DC6E60197B8E6104A29
:101F50000320944663444A46009303231A43914660
:101F600052468AE649460123194389460026012044
:101F700083E60C2200930323050091469B465EE610
:101F80000423994600230093013300249B4656E620
:101F9000FF07000001FCFFFF486C00080DFCFFFF7D
:101FA000FF030000FFFFFFFEFE0700000023802468
:101FB0000025444A019324038EE60120401A382864
:101FC00000DD86E61F285BDD1F2223005242511AE6
:101FD000CB401900202803D03B4A6244944025435B
:101FE0006A1E95412A000A4307210D00002415406E
:101FF00011425BD00F2100241140042953D0111D40
:10200000914292415242A4180A0023024BD5012268
:102010000024002560E680231B031C4209D01E42D9
:1020200007D133431C0343461500240B254A019373
:1020300052E68022120314432403224A240B019700
:102040004AE600F00DFD03001A00153220301C2A6C
:1020500000DC84E65646083B00229E4089E600F0FC
:10206000FFFC01000200153120321C2900DC4EE685
:10207000340008380025844053E6009B9C4641E725
:102080001249220061442E008D408A40C640691EDC
:102090008D4132432A43C4405307B6D00F2111402B
:1020A0000429ACD1B1E765076402240BD2081543BB
:1020B000002211E68022120314432403014A240B58
:1020C0000AE6C046FF0700003E0400001E040000B0
:1020D000F8B557464E464546DE460400E0B51F00BB
:1020E00010000B03620F4E00CD0F5B0A3903134340
:1020F000490AE200440F2143C24C91469246C00077
:102100007A008046760D520DFF0FA24200D1B4E056
:1021100001246740BB46BD4200D188E0B41AA44602
:10212000002C00DCB2E0002A00D1C5E0B54A96429E
:1021300000D18BE28022120411436246382A00DD6E
:10214000A1E11F2A00DD16E220270C00BF1ABC40C7
:102150000200A0466446B840E240444614430200F0
:10216000501E82416046C14022435B1A49468C1A88
:10217000A145924152429B1A984643461B0200D405
:1021800017E143465B025B0A98464346002B00D1A9
:102190006CE1404600F064FC0200083A2021200077
:1021A0004346891A9340C84094400343964200DD59
:1021B00057E1961B711C1F2900DDCBE1202218007E
:1021C0002600521A94409040CE40CB40621E94416B
:1021D0003043984600260443630709D00F23234069
:1021E000042B05D0231DA342A4416442A0441C003B
:1021F00043461B0200D4DFE0824B01369E4200D1F1
:10220000FBE04246804BE4081A4013007105520778
:102210005B0222431B0B490D0905ED0719432943B6
:102220001000F0BCBB46B246A946A046F8BDB41AA1
:10223000A446002C58DD002A00D19EE0714A964247
:1022400000D13BE18022120411436246382A00DDAE
:10225000C1E01F2A00DCBBE10C00203AD440220080
:102260006446202C04D040273F1BB94008438046D9
:102270004446611E8C411443B1E00C0004432AD053
:10228000BB46BD422DD0614CA446B4446446002CEC
:102290005CD0941BA446002E00D015E14D461D4392
:1022A00000D1C3E1651E012C00D10CE2554EB442B1
:1022B00000D1F8E1AC460EE10A00024300D136E15C
:1022C0002200013A012C00D1C6E14E4CA44500D1B8
:1022D000F4E0944631E701246740BB46BD4200D09C
:1022E0001CE74A4CA446B4446446002C00D1CFE01D
:1022F000941BA446002E00D15CE1424EB24200D1B4
:10230000ECE18026360433436446382C00DDB3E12B
:102310001F2C00DD38E22026361B1C00B4404F463F
:10232000A0466446E74044463C434F46B7403E0023
:10233000771EBE4134436646F340C91824188442D0
:102340009B415B429846160088444EE0304A741C1C
:10235000144200D0D6E04A461A43002E00D05BE17A
:10236000002A00D1A5E10A00024300D0BBE14A46A1
:102370005907D2080A43DB0827E00A00024300D1CC
:1023800074E12200013A012C05D01E4CA44500D175
:1023900094E0944659E74844484592415B18984672
:1023A000040052429044434602261B0200D5C4E07A
:1023B000013E630700D011E74346B4465907E208DF
:1023C0000A43DB080F498C4540D061461B03490591
:1023D0001B0B490D20E701430C00611E8C414C444E
:1023E0004C45924152429046984443461B02E0D5E8
:1023F000044B01369E4200D09FE0310000230022B2
:102400000AE7C046FF070000FFFF7FFF01F8FFFF5C
:10241000FE070000002A00D160E10A0002434DD00F
:102420004A465C07D20822438024DB082403234267
:1024300007D0CE08264204D15D463300C2084907C2
:102440000A43510FD200D20849070A431100194329
:1024500000D1C8E1802109030B431B03D5491B0BA5
:10246000DAE6D549B61A0B409846B5E6200000F0EA
:10247000F7FA020018321F2A00DC8FE62300083822
:102480008340002492E608430200501E82416DE61C
:10249000CA4C721C224200D0ADE04A461A43002EBC
:1024A000B8D1002A00D158E10A00024300D059E116
:1024B0004A465907D2080A43DB0886E74A465907C5
:1024C000D2080A43DB08C1E7BA4DAA4200D11EE197
:1024D00080252D042B436446382C5DDC1F2C00DD49
:1024E000D0E0202567462D1B4E461C00FE40AC4028
:1024F00034434E46AE403500FB406E1EB541C91A0E
:102500002C434EE04A46141AA1459241524290464D
:102510005F1A3A004746D21B9046120200D58BE064
:102520004246224300D030E6002300254DE74A46CC
:102530005907D2080A43DB0844E742469E4B61082C
:102540001A401300012214400C43DA075B08984636
:10255000144341E61A001F3EF2401600202903D022
:102560004022511A8B401C43621E94410023344385
:10257000984600261DE70C00203AD440220064460D
:10258000202C04D040273F1BB940084380464446D6
:10259000611E8C412243E9E54C4623431C00631E27
:1025A0009C41041BA0429B415B42CB1A98465D466E
:1025B0001600E2E54E461E4300D1AEE0661E012C39
:1025C00000D1FDE07B4FBC4200D107E1B4469BE661
:1025D00064462022121B0C00944007009040A04645
:1025E0006446421E90416246E7404446D1403C4327
:1025F00004435B18F3E66F4CA24200D1D5E0484497
:102600005B184845894149425B18DC0740085B0874
:10261000984616000443CCE6002A00D082E00A0067
:10262000024340D1802300251B0313E74B07C20858
:102630001A435D46CB08C5E64A46841AA042924139
:10264000CB1A52429B1A98465D469EE54A46590768
:10265000D2080A43DB08F9E64A46141AA14592411A
:102660005B1A52429B1A9846012686E54A4659074C
:10267000D2080A43DB08A5E64C4623431C00631E30
:102680009C415BE665461E00203DEE40202C05D0B7
:1026900040252D1BAB404C461C43A2465446631EAE
:1026A0009C4134437DE74B07C2081A435D46CB0883
:1026B000CCE60A00024300D136E74B07C2081A43B2
:1026C0005D46CB0881E64A46841AA0429241CB1A65
:1026D00052429B1A98465D4601264EE54B07C208BA
:1026E0001A43CB08B2E64A46141AA14592415F1A32
:1026F0005242BA1A904612026BD54A46841AA04238
:102700009241CB1A52429B1A98465D4664E54B07AC
:10271000C2081A435D46CB0898E64B07C2081A4325
:10272000CB084FE60A00024390D04A465C07D20825
:1027300014438022DB081203134208D0CE0816424D
:1027400005D1C0084907084304005D463300610F06
:10275000E2004907D2080A4378E64B07C2081A4349
:10276000CB0832E648445B184845924198465242AD
:102770009044434604001B0200D41AE642460E4B26
:1027800001261A40904614E666461F00203EF74098
:10279000202C05D04026361BB3404C461C43A24695
:1027A0005446631E9C413C43C8E5110000230022AF
:1027B00032E5C046FF070000FFFF7FFFFE07000075
:1027C0004A461418844292415B18984652429044FB
:1027D000E9E54246224300D1A6E6EAE54B07C208F6
:1027E0001A43CB0832E600220149130014E5C04623
:1027F000FF0700000A0030B5134C53000903050021
:10280000090B00205B0DD20FA34204DD0F48834269
:1028100002DD0F4BD01830BD8020400301430D482E
:10282000C01A1F2808DD0C48C31AD9400B005842B3
:10283000002AF0D11800EEE7084CC540A4466344D6
:1028400099400B002B43F2E7FE0300001D0400003B
:10285000FFFFFF7F3304000013040000EDFBFFFFC8
:1028600070B5002816D0C317C5185D40C40F2800E6
:1028700000F0F6F8114A121A0A2816DC03002E009E
:1028800015339E400B23181AC54053052D032D0BFD
:102890005B0D03E000240023002500261B052B43CD
:1028A000E40723433000190070BD0B388540530501
:1028B0002D0300262D0B5B0DF0E7C0461E04000023
:1028C00070B543004602C40FFE201B0E591C750A4A
:1028D00008420CD0E022920094466D07360B634408
:1028E0001B053343E40723432800190070BD002B68
:1028F00014D1002D1BD0280000F0B2F80A281CDCEF
:102900000B232A001B1ADA40030015339D400E4B9F
:1029100012031B1A5B05160B5B0DE1E7002D09D0B6
:10292000320B80263603094B6D071643D8E7002388
:102930000026D5E70026054BD2E703002A000B3B13
:102940009A400025E3E7C04689030000FF07000026
:1029500002004B00F0B508035B0D3D4ECC0F400A62
:10296000510F5F1C0843D50037420AD039495E1821
:10297000FE2E16DDFF230021DB050B43E007184385
:10298000F0BD002B06D1284327D005218901490A33
:10299000DBB2F1E70543EDD08021C903FF230143FA
:1029A000EAE7002E1CDD920111004A1E9141C00091
:1029B0006D0F014329434B0748D00F230B40042BD5
:1029C00000D004318023DB040B403FD0721CFE2E6C
:1029D000D0D08901490AD3B2CEE700230021CBE74A
:1029E0003200173222DB80211E2209040843921B89
:1029F0001F2A1DDD022149428E1B0100F1400E00FD
:102A0000202A04D0144A9446634498400543290080
:102A10004D1EA941314300264B07CED180200B002B
:102A2000C004012203400142D3D1AFE70023ACE749
:102A30000A498C4629006344D1409D400A00290080
:102A400098404D1EA94101431143E4E733009DE73F
:102A5000FE07000080FCFFFFA2FCFFFF82FCFFFFDF
:102A60001C2101231B04984201D3000C10391B0ABE
:102A7000984201D3000A08391B09984201D3000982
:102A8000043902A2105C40187047C04604030202D9
:102A9000010101010000000000000000014B18606E
:102AA0007047C046B0000020F0B54746CE465D23D3
:102AB00080B5714C904622680700D35C894685B08A
:102AC000012B07D05D25012001F076FF23685B5DB7
:102AD000012BF8D1802169480022890102F0DAFE39
:102AE000674B03AD1B7820682B705D23C35C002B04
:102AF00007D15D26012001F05FFF2068835D002B78
:102B0000F8D0C8230122290003F008FC002800D0D7
:102B1000A8E0802101225948890102F0BBFE02236E
:102B20002B704B4680211B0A6B704B46534800228A
:102B30008901AB7002F0AEFE5D232068C35C002B00
:102B400007D15D26012001F037FF2068835D002B4F
:102B5000F8D0C8230322290003F0E0FB002800D0AE
:102B60007DE00526642342463900206803F0D6FB49
:102B70000500022806D1013E0120F6B201F01CFF3B
:102B8000002EEFD1802101223C48890102F082FE13
:102B90006A4680213B4B01AE1B78384833703A4B74
:102BA00089011B781372002202F074FE5D232068F5
:102BB000C35C002B07D15D27012001F0FDFE2068DA
:102BC000C35D002BF8D0C823012202A903F0A6FBA5
:102BD00000284DD1C82301223100206803F002FEF5
:102BE000022838D0012001F0E7FE3378DB07F1D46A
:102BF000802101222148890102F04CFE802100221F
:102C00001E48890102F046FE6A46204B20681B7868
:102C100013725D23C35C002B07D15D26012001F0F8
:102C2000CBFE2068835D002BF8D0C823012202A9C7
:102C300003F074FB002818D1802101220F4889017C
:102C4000013D02F027FE68426841013005B0C0BC7A
:102C5000B946B046F0BD012001F0AEFEBAE701F082
:102C600003FA7EE701F000FA53E701F0FDF9E3E72C
:102C700001F0FAF9AEE7C046B000002000040048B9
:102C8000886C0008446D00088C6C0008906C00088B
:102C9000F0B51F234646D6464F46C0B516001A006B
:102CA0000A4092461A00324007000C0090460B4240
:102CB00019D11F2E33D9760976018E19B6B204E0E8
:102CC0002034A4B22037B44253D02022210038004F
:102CD000FFF7EAFE05000128F2D02800E0BCBA4662
:102CE000B146A846F0BD53462020C01A83B299468B
:102CF0001F2E1BD8934212D21A003800FFF7D4FEC1
:102D000005000128E9D146463800203E56444C448F
:102D1000B2B2A1B24844FFF7C7FE0500DDE73200BA
:102D200021003800FFF7C0FE0500D6E71A00380082
:102D3000FFF7BAFE05000128CFD1203E5644B3B2BA
:102D40004C449846A4B25B094F44002B18D05B0159
:102D5000E3189EB204E02034A4B22037B44210D06D
:102D6000202221003800FFF79FFE0128F3D0050044
:102D7000B3E7424621003800FFF796FE0500ACE7B6
:102D800026001F23424641461A400B42A5D031007F
:102D90003800FFF789FE05009FE7C046F0B5C6463C
:102DA0005D2300B5274C170022680600D35C8846D7
:102DB00082B0012B07D05D25012001F0FDFD2368C5
:102DC0005B5D012BF8D1032301AD2B7043468021BD
:102DD0001B0A6B7043461C4800228901AB7002F04D
:102DE00059FD5D232068C35C002B09D15D339846F3
:102DF000012001F0E1FD43462068C35C002BF7D0C1
:102E0000C8230322290003F089FA002803D015E023
:102E1000012001F0D1FDC8233A003100206803F001
:102E2000E1FC0228F4D0802101220748890102F048
:102E300031FD012002B080BCB846F0BD01F014F9AC
:102E4000E9E7C046B00000200004004800B593B098
:102E50001C22002106A803F082FE102200216846F1
:102E600003F07DFE012301220492059302230D93BA
:102E700080235B020E9380235B030F93002304A83F
:102E8000109302F00DFD002801D072B6FEE7072274
:102E9000022300920193002200230121684602923E
:102EA000039302F0F1FF002801D072B6FEE713B0E1
:102EB00000BDC0462849294B30B504224B60032091
:102EC0000023012408618A60CB600B60244D2549F2
:102ED0000C614D608A60CB600B60234D23494D60CF
:102EE00008618A60CB600B602149086121488A60D3
:102EF0004860CB600B6020482049486008200C6186
:102F00008A60CB600B601E4C1E4908614C60022435
:102F10008A60CB600B601C490C611C4C8A604C6061
:102F2000CB600B601A4908618320400148608A60C9
:102F3000CB600B6017481849486006200A618A6018
:102F4000CB600B60154908618420400148608A60AD
:102F5000CB600B6030BDC046BC00002001100000FB
:102F600098100000540200200210000014020020FB
:102F7000100400200510000099100000D40000206B
:102F800055100000E00100202C0400201910000062
:102F9000A002002070100000FC0100203002002080
:102FA000AB23F0B5C64626499B0000B54B60254BC8
:102FB000254E984640463425B060AD207560234DBF
:102FC0000824800001228B60686000234046204F67
:102FD0000C6034602C60063C0B614B618B61CA61F4
:102FE0000A6233617261B361F26132622B61AB617B
:102FF000EA612A62CF60F760EF60A8606C611548F3
:10300000154C60604046A0600320E760134F60618C
:10301000380023602361A361E261226202F06AF852
:103020003100380002F066F82900380002F062F83A
:103030003800210002F05EF880BCB846F0BDC04602
:103040006C020020FFFF000028030020D0020020B7
:10305000FCFF00000C840000F8020020B8010020F2
:10306000F0B5C64600B5BA4BBA4A5B688EB093421B
:1030700000D18CE011D8B84A934242D0B74A93426B
:103080003BD10123B64E3370B64B1C78102C00D9BF
:1030900000E1B54AA300D3589F46B44A93422CD1CD
:1030A0000023B04CB24EA27933707370B370F370DA
:1030B00033717371002A00D0C9E021784B000B29CD
:1030C00000DC0AE3E1784B1EDBB2FD2B03D84B009A
:1030D0000B2900DCFBE16624A64D03E0013CA4B211
:1030E000002C0AD0280002F017F90028F6D0320090
:1030F0002800A14BA14902F0A5F80EB080BCB8464B
:10310000F0BD98499E4C0B78002B00D199E0012B23
:1031100004D10722E01D013103F018FD994D2378F9
:103120002A789A4200D0CBE069786278914200D048
:10313000C6E0A178AA78914200D0C1E0E178EA78AF
:10314000914200D0BCE029792279914200D0B7E0C9
:1031500069796279914200D0B2E0A979A27991426D
:1031600000D0ADE0E979E279914200D0A8E0297A77
:10317000227A914200D0A3E0697A627A914200D02B
:103180009EE02B0006CC06C322881A80B5E70123F7
:10319000734E744C337023780D2B07D8002B0ED050
:1031A0000D2B0CD8784A9B00D3589F46632B06D131
:1031B0006378012B01D0002B01D1744A1370744B3A
:1031C000744F984616246B4D03E0013CA4B2002CCA
:1031D0000AD0280002F0A0F80028F6D0320028001B
:1031E0006D4B6E4902F02EF8B86AFDF77BF9434645
:1031F0006B4E16243070986AFDF774F970703B7E40
:10320000B37043461B7EF3707B7E337143465B7E17
:1032100073713023FA5CB2714246D35CF37104E0FF
:10322000013CA4B2002C00D167E7280002F074F83A
:103230000028F5D0320028005A4B5B4902F002F812
:103240005BE707222000013103F080FC66E723786A
:103250005A000B2B07DC01233370544B995C9B18ED
:103260005B787170B370E278531EDBB2FD2B03D82C
:1032700051000B2A00DC21E166243E4D04E0013CB4
:10328000A4B2002C00D138E7280002F045F800284D
:10329000F5D02CE7002333701624364D04E0013CB2
:1032A000A4B2002C00D128E7280002F035F800284D
:1032B000F5D032002800384B384901F0C3FF1CE735
:1032C0003A4818220371637864218371A3780372EA
:1032D000E37883722379037363798373A379037427
:1032E000E3798374237A0375637A8375FFF7D0FCDF
:1032F00047E76378632B00D801E200233370244B47
:10330000244F98465EE7234F29487B7E0C21013BE2
:103310005A1E93410122DBB2027001327B76437068
:10332000FFF7B6FC1A4B98464CE7194B20489846D5
:103330005B7E1A21013B5A1E93414246DBB2537613
:103340000122027001324370FFF7A2FC114F39E7EE
:103350009C010020550001008110000006000100C2
:10336000BC02002058010020946C000856000100A7
:10337000C8020020B801002098020020300200207E
:103380009400002088000020D86C000892000020E3
:103390006001002050030020C40200202C04002003
:1033A0004802002050020020E001002070000020B0
:1033B000500000206478632C9FD83023DA4F20001F
:1033C000FC54FDF755FFFFF77BFAD84AD84BFEF7C0
:1033D00013FCFFF7BDFAD749FDF702FCD649FDF70C
:1033E00099F8D549051CFDF755F8002800D099E15A
:1033F000D249281CFDF762F8002800D0CF4D0123E8
:10340000CF4802220A210370FD624470FFF740FC9E
:10341000CC4B9846D6E66478632C00D96DE7C94B4F
:103420002000984630234246D454FDF721FF4346FE
:10343000D8620123C2480222182103704470FFF7AA
:1034400027FCB94FBEE6C04C1822FF21200003F034
:1034500086FB182264212000FFF71AFCB94BB24FFB
:103460009846AFE6FF232E22002102A8019303F025
:1034700076FB3222002101A8FFF70AFCB14BAA4FCC
:1034800098469FE66378632B00D936E7AD4A100073
:103490009046137600F052FF0123A94803220370DF
:1034A00043461B7E0E21437000238370FFF7F0FB21
:1034B0009D4F87E60122A54B1A70EDE60123F370BC
:1034C000A14B5A5C5B185B7832717371D4E6227938
:1034D0009D483231C2546279C3185A7049000222A1
:1034E000FFF7D6FB0123F37023793371637973718E
:1034F000F1E50022954B1A70CEE6954B954A198856
:10350000954B90481B881288018243828282012059
:103510008B4C20706170E270090A120A6371824854
:103520001B0AA1702271A37100F0DCFE0722112199
:103530002000FFF7ADFBAFE60125854B854A1988D2
:10354000854B7F4C78481B88128801824382828297
:103550006170E270090A120A63711B0AA17022717C
:103560002570A37100F0BEFE072203212000FFF7A3
:103570008FFB91E6764B05249846002342460027B0
:103580001380744A754D1380734A13806868FDF781
:103590006FFE011C381CFCF7BDFF013C071CE4B2A8
:1035A000012001F009FA002CF0D16D49381CFDF71B
:1035B0004DF9FCF797FF6B4C206000F09FFE002850
:1035C00000D167E642462368138065E6604B052418
:1035D000984600234246002713805E4A5F4D1380C1
:1035E0005D4A13802868FDF743FE011C381CFCF778
:1035F00091FF013C071CE4B2012001F0DDF9002C31
:10360000F0D1D2E705240027544D2868FDF730FE9D
:10361000011C381CFCF77EFF013C071CE4B20120B2
:1036200001F0CAF9002CF0D14D49381CFDF70EF914
:10363000FCF758FF4B4C206000F06CFE002800D1D6
:1036400028E62268444B1A8026E605240027434DCD
:103650002868FDF70DFE011C381CFCF75BFF013CE0
:10366000071CE4B2012001F0A7F9002CF0D13C497D
:10367000381CFDF7EBF8FCF735FF3A4C206000F002
:1036800055FE002800D105E62268324B1A8003E679
:1036900005240027314D6868FDF7EAFD011C381C40
:1036A000FCF738FF013C071CE4B2012001F084F96B
:1036B000002CF0D1DBE70027284D6868FDF7D8FD26
:1036C000011C381CFCF726FF013C071CE4B201205A
:1036D00001F072F9002CF0D1A6E762781A48323175
:1036E000C254A278C3185A7049000222FFF7D0FAD8
:1036F0000123337063787370A378B370E2E40A4FE8
:1037000038003B7600F01AFE01230D4803220370B7
:103710003B7E0021437000238370FFF7B9FA094B09
:1037200098464FE5044D6AE6500300207B14AE47EF
:10373000E17A843F0000F04100008C420000C64264
:103740005000002060010020700000209300002045
:10375000AA000020A8000020AC00002040000020AB
:103760000000A040A400002010B5204C18226421C5
:103770002000FFF713FB22791D4BFF2A00D1002206
:103780001A70A279FF2A00D100225A70227AFF2AE9
:1037900000D100229A70A27AFF2A00D10022DA70AA
:1037A000227BFF2A00D100221A71A27BFF2A00D1BE
:1037B00000225A71227CFF2A00D100229A71A27C39
:1037C000FF2A00D10022DA71227DFF2A00D10022D7
:1037D0001A72A27DFF2A06D05A72064A03CB03C290
:1037E0001B88138010BD00225A72F6E7700000207B
:1037F0009400002088000020F0B5DE46454657467C
:103800004E46E0B599B001F0B5F8FFF71FFB142262
:10381000002112A803F0A3F98021CB4CC9036269EF
:10382000CA480A436261636901260B4080210F93F5
:103830000F9B626989020A436261636900270B403A
:1038400080211093109B6269C9020A436261636917
:1038500001220B40802111938901119B02F01AF87B
:103860008021902000224900C00502F013F80023B7
:10387000B64812A9984612961397149301F024FFA4
:10388000802201239201B14812A912921393149637
:10389000159701F019FF8022012352009020129207
:1038A000139302220023012512A9C0051492159337
:1038B00001F00AFF636900222B4363616369002101
:1038C0002B4009200E930E9B01F0E4FD092001F02E
:1038D00013FE9F4E9F4B300033600C2373604346B2
:1038E000B360F360C0231B03336180235B03736108
:1038F00080235B04B3614346B38301F065FB071E7D
:1039000001D072B6FEE70C22002112A803F027F9BD
:10391000914C924B2000236080231B066360082398
:103920009846636180235B02A361C223FF33E36196
:103930009E3BFF3BA760E76025612762E554A562D7
:1039400001F0A0F8002801D072B6FEE78023002223
:1039500002275B01200012A912921393149701F021
:103960004BFA002801D072B6FEE7200012A912958A
:1039700001F042FA002801D072B6FEE7200012A939
:10398000129701F039FA002801D072B6FEE703233E
:10399000200012A9129301F02FFA071E01D072B66F
:1039A000FEE7200001F0BAFA6D4D6E4B28002B6047
:1039B00082235B006B60E023DB00EB6080239B00D5
:1039C000AB61E93BFF3BEB61113BEB624346AF6010
:1039D0002F616F612F626F62AF622F636B6302F0C2
:1039E000FDFB071E01D072B6FEE72800FFF756F870
:1039F00080213A008901554801F04CFF012000F078
:103A0000DBFF802101228901504801F043FF96200D
:103A1000400000F0D1FFFFF7C3FAFFF74BFA300088
:103A200001F0DEFBFFF7A0FE4F4B0422190020003F
:103A30009A4601F0D1F8FA20400000F0BDFF0A23B9
:103A40009846093B9946484600F0B6FF5346186829
:103A5000FDF70EFC454B1968FCF75CFD434B051C5C
:103A6000186053465868FDF703FC404B5968FCF753
:103A700051FD3E4B586001235B429C46E044434667
:103A8000002BE0D1041C3A49281CFCF7DFFE374B21
:103A900037491860201CFCF7D9FE344B5860FCF7FE
:103AA00021FD344C010001220E23200000F0DEFA3B
:103AB0002E4B1868FCF716FD2F4D010043462800D9
:103AC000022200F0D3FA2B006A46103383CB83C264
:103AD00083CB83C283CB83C203CB03C2EB6828684A
:103AE0006968AA6800F0CEFD244B0C93042800D12D
:103AF0006BE2234B9B4623006A46103383CB83C281
:103B000083CB83C283CB83C203CB03C220686168AB
:103B1000A268E36800F0B6FD042804D100230C9AE3
:103B200093705B4658700C9F01213A780748904685
:103B300001F0AAFE804538D00121044801F0A4FE1E
:103B4000104B3870984625E00010024000040048F1
:103B5000B801002000640040D00300200024014090
:103B6000EC00002000380040400000203000002021
:103B700000002041600100205003002004000020CC
:103B800020030020EA0300004346013B9BB2984615
:103B9000002B0AD0300001F0BFFB0028F4D0300029
:103BA000D54B0C9AD54901F04DFB0021300001F0B6
:103BB0005DFC002800D095E053461868FDF758FBDF
:103BC000CF4B1968FCF7A6FC5346CD4A071C106082
:103BD0005868FDF74DFBCA4B5968FCF79BFCC84B76
:103BE000586053469868FDF743FBC54B9968FCF74E
:103BF00091FC5346C24A0D909060D868FDF738FB9F
:103C0000BF4BD968FCF786FCBE4BBD4A1B88D06011
:103C10008146032118009846FCF7FCFA89B2002976
:103C200000D180E03C214046FCF7F4FA89B200293B
:103C300061D04246B44B5343B44A9BB2934239D904
:103C40001A214046FCF7E6FA162389B29946002964
:103C500006D027E04B46013B9BB29946002B0AD089
:103C6000300001F059FB0028F4D05A463000A84B30
:103C7000A84901F0E7FA1623984605E04346013BC0
:103C80009BB29846002B0AD0300001F045FB00287B
:103C9000F4D03000A04BA14AA14901F0D3FA994BCE
:103CA0001B8898464346974A01330420138000F04E
:103CB00083FE38E71623984605E04346013B9BB256
:103CC0009846002B0AD0300001F026FB0028F4D0E3
:103CD0003000944B944A954901F0B4FA894B1B8803
:103CE0009846ADE70021924B924A300001F028FB44
:103CF000FFF7B6F960E7904B984605E04346013B75
:103D00009BB29846002B0AD0300001F005FB00283A
:103D1000F4D03000784B0C9A784901F093FA794B43
:103D20001B88984685E748468449FCF78FFDE621C5
:103D30008905FCF755FF8249FCF752FF704A81461E
:103D4000D0607E49A8620D98FCF780FDE6218905C8
:103D5000FCF746FF7A49FCF743FF694B77499860C7
:103D6000A062381CFCF772FD654B1860FCF7BAFBCB
:103D7000744B744A1870030A53708046E86AFCF763
:103D8000B1FBC3B248461F00FCF7ACFB6B7EC2B26E
:103D90004146009328003B0000F0FAFAFDF722FAB2
:103DA000574B664918605868FCF750FD544B5860F3
:103DB000FCF798FB634B634A9870030AD370804604
:103DC000E06AFCF78FFBC3B2A06A9946FCF78AFB56
:103DD000637E4146C2B2009320004B4600F0D8FA01
:103DE000FDF700FA464B586010239846A8446B46EE
:103DF000424683CA83C383CA83C383CA83C303CAB5
:103E000003C3EB6828686968AA6800F03BFC4E4B66
:103E10001B780343DBB2002B00D0BEE05A46127879
:103E2000042A01D05A461370FA22920094466B6815
:103E300063446B6010239846A0446B46424683CA95
:103E400083C383CA83C383CA83C303CA03C3E36828
:103E500020686168A26800F015FC3B4B1B780343A7
:103E6000DBB2002B00D0B6E05A465370FA22920023
:103E700094466368217F63446360D8B21B12DFB24B
:103E8000324B6A681A7012125A70AA8B9A70304BB1
:103E9000997018705F70A86AFCF724FB224B1870A9
:103EA000A06AFCF71FFB204B1F4A58702B7E1E494F
:103EB0009370237ED3706B7E1371637E53713023B6
:103EC000EA5C8A71E35CCB711623984605E04346B1
:103ED000013B9BB29846002B0AD0300001F01CFA3F
:103EE0000028F4D030001B4B194A1B4901F0AAF9F5
:103EF0001623984638E0C046B8020020100400207F
:103F000030000020A2000020295C00003D0A0000D3
:103F1000B8000020A00200209C0200200000002029
:103F2000540200205002002048020020E00100203E
:103F3000580100209C010020EA03000000004040DE
:103F40000000C84294020020930000204404002096
:103F500050010020F8010020BC0000204346013B36
:103F60009BB29846002B0AD0300001F0D5F900280A
:103F7000F4D03000324B334A334901F063F9334B0C
:103F80001B78002B46D10023314A136053609360A5
:103F9000D360304B1B88984644E66A46434683CB41
:103FA00083C283CB83C283CB83C203CB03C2EB68C0
:103FB00028686968AA6800F065FB5B461870FA23F8
:103FC0009B006B60ED23AB8334E742465A70224B73
:103FD0009B4618708FE55B465B78042B11D06A46D0
:103FE000434683CB83C283CB83C283CB83C203CBC1
:103FF00003C2E36820686168A26800F043FB5B4687
:104000005870FA239B006360EC23EC210327E8201F
:10401000A38335E71623984605E04346013B9BB250
:104020009846002BAFD0300001F076F90028F4D08C
:1040300030000A4B0A4A0B4901F004F9A3E7C046D5
:1040400028040020440400201402002093000020D3
:1040500030000020A2000020200300202C020020BD
:1040600094020020FC01002072B6FEE7F0B557462E
:104070004546DE464E46E0B51D008C4B0F00036101
:104080008B4B32214361002343760023836230232C
:104090008277040085B0C154022A00D1CBE0854B61
:1040A000E36200230A22002101A8009302F057FDD9
:1040B0000E226846A9B2FEF771FE6B46DB78012B33
:1040C00000D17CE0A38A668A99466B461B78258AD4
:1040D000012B00D18CE0E38A98464B3B9BB29A4679
:1040E0006B461B7B012B02D16B465B7B63766B4679
:1040F0009B7A012B58D0F5226F4B5200EB1893425C
:104100003CD80023E3764B46203BFF3BF42B01D900
:104110000423E376694BF318F42B01D90423E376E7
:10412000D5235B009A452CD3F522A73BFF3BE376D2
:10413000614B5200FB18934201D90423E3765B4B99
:10414000322223615A4B6361002363760023A3620A
:104150003023E254A37F022B6FD0C626554B584D17
:10416000E362F6000023E681A5812760A37605B00F
:10417000F0BCBB46B246A946A046F0BD0423E37698
:10418000C1E7F5224C4B5200FB189342D5D8E37E91
:10419000002BD4D14346761BF61A4B46ED1A434604
:1041A000ED1AB6B2ADB2DDE76B46D87A3023E054F3
:1041B000A37F022B4ED0FDF75BF8E0629BE76B46D6
:1041C0005D791B792D021D436B4625825E7A1B7A31
:1041D00036021E436B466A466682DB7992791B0281
:1041E0001A436B461B789146A282012B00D072E7DE
:1041F0006B4658782076FDF73BF83249FCF78AF990
:104200003149FCF723FBFCF76DF983B298464A2B42
:1042100019D9FA235B0098453FD84346E3824B3BCC
:104220009BB29A464246731B9B1AE3814B46EB1A9C
:104230009B1AA38154E7254B32E7C626234B204D1A
:10424000E362F6008EE74B23E38200239A464B336A
:104250009846E7E76328AED8FDF70AF8FEF730FB8B
:104260001B4A1C4BFDF7C8FCFEF772FB1A49FCF712
:10427000B7FC1A49FCF74EF918498346FCF70AF9CE
:10428000002810D158461649FCF718F9002801D02B
:10429000134B9B465B46E3622DE7AA22FF32924610
:1042A0009846E382BEE70D4B9B46F3E7EB07660EAD
:1042B00099014B00000048420AF9FFFF14F2FFFF8A
:1042C000070600002D2D8D41F1F0703E0000AA423E
:1042D0007B14AE47E17A843F0000F04100008C423D
:1042E0000000C642038AC28A418A10B59C18091B85
:1042F000C181818A52189B1A838110BD044BF5221B
:104300009C4600236044520082425B41D8B2704711
:104310000AF9FFFF044BF4229C46002360448242CA
:104320005B41D8B27047C04614F2FFFFF42200236D
:104330002038FF3882425B41D8B2704710B5040084
:10434000007EFCF795FF1049FCF7E4F80F49FCF7F5
:104350007DFAFCF7C7F880B24A280CD84B234B20D3
:10436000E382238A628AD21A121AE281A28A9B1AF3
:10437000181AA08110BDFA235B00984202D91800D8
:10438000E382EEE7E082ECE72D2D8D41F1F0703E07
:10439000F0B54F464646D646C0B517000A001E0087
:1043A000A34B7A3A040001609A4200D8CDE0837FA3
:1043B00098460223C376238AE28A9818884200D35B
:1043C000AEE0091A4801401A80004018C000606041
:1043D000002800DCB5E0E189FBF720FF637E002BBD
:1043E00000D040427843FEF73BFA924B924AFDF7E9
:1043F00003FCFEF7FFF9434605006060022B00D185
:10440000D6E0012B75D13000FEF72AFA02000B002E
:1044100000208A49FDF75CFEFEF79AFAFEF750FA93
:10442000854A844BFDF7E8FB0022854BFDF7E4FB52
:10443000834B0022FCF758FFFEF78AFA071C28007E
:10444000FCF7D0FEA36B051C191C9A46FCF736F846
:10445000002800D0C8E0291C5046FCF7DBFC391CC2
:10446000FCF72CF8002804D05046391CFCF7D2FC8D
:10447000051C3000FCF7FCFE7249FCF7E7F9FEF77B
:104480001FFA714A714BFDF7B7FB714A714BFCF78C
:104490002BFFFEF75DFA8146FEF712FA6E4A6F4B6C
:1044A00006000F00FBF7D0FF002800D0B4E030007A
:1044B00039006B4A6B4BFBF7B3FF002800D0B3E029
:1044C000FE2049468005FCF7A5FC071C49465046DE
:1044D000FCF786FB391C061C281CFCF781FB011C21
:1044E000301CFCF717F86063A063FCF75BFE050067
:1044F00065605D4AA56095422DDD15006260226A07
:104500000723CE21AA4230D000226262CB18434456
:1045100028002562A383E0BCBA46B146A846F0BD98
:1045200000209B1A8B4200D858E7C91A4801401A4C
:1045300080004018C0006060002800DD4BE700D11B
:104540004CE7A189FBF76AFE48E7C37E022B46D001
:10455000A37F98462FE7454A954219DA1500626015
:10456000226A00230221AA42CED1626A2B000132C4
:104570006262042A12DDFA223D4801358446920027
:10458000A918FF2263441B12656011401340BDE768
:10459000236AAB4238D1002DE7D16562FA23656802
:1045A0009B00EA181100FF23121219401340ADE7D7
:1045B0006420A768801B68437E4364218019FBF751
:1045C0002DFEC31BDA179B1805005340232B00DC7C
:1045D0008EE7874224DA3D002335656089E70023B2
:1045E000C376A37F9846E6E65146281CFCF712FCEA
:1045F000391CFBF763FF002800D13AE75046391C0D
:10460000FBF788FF051C34E7FA23FF219B00EA181B
:104610001140121293B277E7164B174F994655E7A0
:104620003D00233D656064E7144B154F99464DE707
:10463000E20E0000E17A843F7B14AE47000059404F
:1046400000408F400000C842333333333333D33F0D
:1046500014AE47E17A14E63FAE47E17A14AEEF3F7D
:10466000666666666666E63FE60300001AFCFFFFC4
:10467000E9030000A4707D3F00D7233C3333333F70
:104680009A99993E84B003936B46009001910292EF
:10469000D87E04B07047C04601220A4B82B09969A7
:1046A0001143996199690A4080210092009ADA6960
:1046B00049050A43DA61DB690B400193019B02B0B3
:1046C0007047C04600100240F0B5040089B01422C3
:1046D000002102A802F043FA224B22689A4201D03C
:1046E00009B0F0BD802780211F4BBF009A69890265
:1046F0003A439A619A6990203A400092009A5A6926
:1047000000260A435A615B690F220B400193019B0B
:104710000323C00502A902920393049600F0D4FF7C
:10472000124D134B28002B608023EB6080231B016C
:104730006B6120236E60AE602F61AB61EE6100F0B3
:1047400001FF00280AD1002200210C2025636C62A1
:1047500000F0A0FE0C2000F0CFFEC1E7FFF784FCC4
:10476000F1E7C04600240140001002408C03002005
:104770000800024010B5040088B01422002102A8ED
:1047800002F0EDF9144B22689A4201D008B010BD36
:104790008020124B8004D9690143D9618021DA69F4
:1047A000890202400092009A5A6990200A435A6195
:1047B0005B69C0220B400193019B022352010292CC
:1047C00003930022032304920593042302A9C00546
:1047D000069300F079FFD9E7006400400010024022
:1047E00030B5040089B01422002102A802F0B7F904
:1047F0001A4B22689A4201D009B030BD8020184B74
:10480000C001D96900240143D9618021DA69C90254
:1048100002400092009A5A6903250A435A615B6973
:1048200080220B400193019B0223D200029203934A
:10483000052302A90B4806930494059500F044FF54
:10484000C02202231202029203930023054802A908
:1048500004940595069300F037FFCDE7003800403B
:104860000010024000040048FEE7C046FEE7C046D4
:104870007047C0467047C04610B500F08BF810BDB9
:1048800010B5024800F0D2FE10BDC0468C030020D7
:1048900010B5024800F040FA10BDC046D003002019
:1048A0007047C0461348854613480168090E134AED
:1048B000914205D112481349016013481349016020
:1048C00013481449144A002302E0D458C450043356
:1048D000C4188C42F9D3114A114C002301E0136033
:1048E0000432A242FBD3FFF7DBFF02F00BF9FEF725
:1048F00083FFFEE700180020040000001F000000F6
:1049000018100240010000000000014000000000FB
:104910000000002014000020506D0008140000204A
:104920004C040020FEE7000010B50400FA200E4BF6
:1049300080001978FBF7E8FB0C4B01001868FBF7C7
:10494000E3FB00F0E5FD00280CD10130032C00D979
:1049500010BD02380022210000F09CFD044B002015
:104960001C60F5E70120F3E70C00002008000020A0
:10497000100000201021064A10B5136800200B43D8
:104980001360FFF7D1FFFFF787FE002010BDC04680
:1049900000200240034A044B11681B785B18136027
:1049A0007047C046480400200C000020014B1868E6
:1049B0007047C0464804002070B50400FFF7F6FFBA
:1049C0000500631C02D0044B1B78E418FFF7EEFFD0
:1049D000401BA042FAD370BD0C000020002370B52C
:1049E000026882B001939168033304000B40012BED
:1049F00031D09168204B194223D1012193680B4398
:104A000093601E4B1E491868FBF77EFB0190019BCB
:104A1000002B05D0019B013B0193019B002BF9D199
:104A2000FFF7C4FF0126050004E0FFF7BFFF401BAE
:104A3000022817D823681B681E42F6D0002002B057
:104A400070BD1022A36B01201343A363E36B0F3AE5
:104A50001343E363F3E711680B42EFD1D3681B0400
:104A6000ECD4C6E71022A36B01201343A363E36BCE
:104A70001E43E663E3E7C0461700008008000020FD
:104A800040420F00F8B5041E00D185E0836B002B77
:104A900000D16BE0A36BDB0662D404210D00236818
:104AA0009A68154011425BD1A26B48490A40063111
:104AB000FF310A43A263032299680A40012A5BD0AE
:104AC0001821DA688A43A1680A43DA601A696168C2
:104AD000920092080A431A61DA683D490A40DA6096
:104AE000217E627E8903D2031143A26AA67E013A27
:104AF000501E82411003E268770311432269394353
:104B0000022A00D104252422A25C52000A43E17E3D
:104B100002432A4301294BD0C220E169FF30814280
:104B200002D0206A01430A43D968E56A1143D9607B
:104B3000802149058D4226D0691E062923D9DB68CC
:104B400024490B40934229D01222A36B01209343A6
:104B5000023A1343A363E36B0F3A1343E36304E0A6
:104B600010220120A36B1343A363F8BD3422C36357
:104B70008354FFF7A9FD8DE719680A42ACD1DA68C2
:104B80001204A9D49CE707215869884358615869E1
:104B9000294001435961D2E70120E6E700230322BF
:104BA000E363A36B00209343023A1343A363DCE760
:104BB000002E03D1802149020A43ADE72025A06BD6
:104BC0002843A063E06B0143E163A5E7FDFEFFFF1F
:104BD0001902FEFFE7FF3F83036870B50D00996877
:104BE000040016004A0736D43422815C012932D0F1
:104BF00001218154427E012A04D0FFF7EFFE0028F4
:104C000028D12368A26B15491140802252000A4323
:104C1000A26334210022E2636254206B104A2439DB
:104C20008262104AC262104A02631C221A605A68E9
:104C30000A435A60DA680F390A43DA6040331900D0
:104C40002A00330000F0B2FC04210020226893689F
:104C50000B43936070BD0220FCE7C046FEF0FFFFEF
:104C6000714C0008E94C0008FD4C00087047C04634
:104C70005021436A10B59A6B11420ED18022996B74
:104C800092000A43C0219A631A680901D068084259
:104C900007D01800FFF7EAFF10BD1B6B1B6B98478E
:104CA000FAE7997E0029F4D111680907F1D59168D6
:104CB00049070BD40C205168814351609A6B084915
:104CC0000A400431FF310A439A63E2E720219A6BDC
:104CD0000A439A63DA6B1F390A43DA63D9E7C0469D
:104CE000FEFEFFFF7047C04610B5406AFFF7FAFFAF
:104CF00010BDC0467047C0467047C0464022406A5B
:104D000010B5836B13438363C36B3C3A1343C36394
:104D1000FFF7F2FF10BDC0460422036870B51968A2
:104D200004000A424AD059680A4247D0A26BD20610
:104D300004D48022A16B92000A43A263C022D968E6
:104D40001201114213D1A27E002A10D11A68120753
:104D50000DD59A68520744D40C215A688A435A6088
:104D6000A36B244A13400432FF321343A363200091
:104D7000FFF77CFF0C2223681A6080251A68154211
:104D800002D05A68154221D1102219680A4214D063
:104D900059680A4211D0A26A012A02D0DA68D20701
:104DA00009D50221E26B20000A43E26310221A6057
:104DB000FFF7A2FF236810221A6070BD082219684D
:104DC0000A42DAD059680A42D7D0AFE78023A26BF3
:104DD0005B021343A3632000FFF78CFF23681D6071
:104DE000D2E72022A36B1343A363E36B1F3A134361
:104DF000E363BCE7FEFEFFFF0023342270B582B000
:104E00000193835C0400C56A012B5FD001238354A6
:104E100002689068400709D520220120A36B134344
:104E2000A36334230022E25402B070BD35484E68BB
:104E300086422FD00868966A83403343936280236A
:104E40005B059D420FD0013D062D0CD907238D68CF
:104E5000516919408D4206D0516999435161516998
:104E60002B400B4353610300103B022B10D8264A02
:104E7000136810282ED01138411E8841C0214042AD
:104E8000090408408021C9038C466044184310601F
:104E90000020C6E70968906A8B4098430B00103BDE
:104EA0009062022BF4D8184B1A68102910D01139CF
:104EB0004B424B41C0215B4209041940134B9C46B5
:104EC0006144114B114000201960AAE70220ABE7B2
:104ED0000F49F6E780200004034313600D4B0E4991
:104EE0001868FBF711F983001B185B000193019B05
:104EF000002BCDD0019B013B0193019B002BF9D1ED
:104F000000208EE70110000008270140FFFFFFFE90
:104F1000FFFF7FFF0800002040420F00342370B5E0
:104F2000C25C0400012A4BD00122C2540368023241
:104F300099680A40012A05D119680A422FD1DA6816
:104F400012042CD4A26B1F490A400631FF310A43D8
:104F5000A263DE68DA6801318A43DA6080229968E8
:104F600012060A439A60FFF721FD050004E0FFF7EF
:104F70001DFD401B022818D823689A68002AF6DB1A
:104F800003220020D96816400E43DE60A36B9343D2
:104F9000023A1343A36334230022E25470BD20225B
:104FA000A36B01201343A363F5E71222A36B012037
:104FB0009343023A1343A36300223423E254EDE700
:104FC0000220EBE7FDFEFFFF70B5041E00D176E086
:104FD0002023C35C002B6AD00221226802261368BA
:104FE0008B431360FFF7E2FC050004E0FFF7DEFCF3
:104FF000401B0A2851D823685A681642F6D101216D
:105000001A6801260A431A60FFF7D0FC050004E085
:10501000FFF7CCFC401B0A283FD823685A68164289
:10502000F6D0227E012A45D080211A688A431A6070
:10503000627E012A59D040211A688A431A60A27EF2
:10504000012A4DD020211A688A431A60E27E012A83
:1050500041D010211A680A431A60227F012A35D0F4
:1050600008211A688A431A60627F012A29D0042124
:105070001A688A431A60E168A26800200A4321691D
:105080000A4361690A43616801390A43DA6100230E
:10509000012263622033E25408E08023626A9B02AB
:1050A00013436362052220230120E25470BDFFF701
:1050B00061FB91E780211A680A431A60B8E7012072
:1050C000F4E704211A680A431A60D4E708211A6831
:1050D0000A431A60C8E710211A688A431A60BCE7BD
:1050E00020211A680A431A60B0E740211A680A436F
:1050F0001A60A4E7202370B5C35C013B012B06D9DD
:105100008023426ADB0213434362012070BD802486
:1051100001220368A40018598726104318514869D2
:10512000E23CFF3C0440A240B6009C59D543944366
:105130009C51CC69002C3BD1103E9C59C0002C40A6
:105140009C51CC688E882404344390261818B600ED
:1051500084518C680E88240434439126B60084510F
:1051600081248869A40000281ED1185928401851AC
:1051700085240869A400002812D1185905401D5142
:10518000096A012904D18720800019580A431A505E
:105190008021012089005A5882435A500020B5E7E7
:1051A000185910431851EBE7185910431851DFE70D
:1051B000012CD5D18326B6009C59C00014439C51C4
:1051C0000C688E882404344390261818B600845145
:1051D0008C688E89240434439126B6008451BFE73D
:1051E0002022F8B5835C0400DFB2012B07D08023B6
:1051F0000127426A1B03134343623800F8BD0133A1
:105200008354026801251368BB431360FFF7CEFB8C
:10521000060004E0FFF7CAFB801B0A2808D82A0012
:1052200023685B681A401D42F4D100276262E4E7FC
:105230008023626A9B021343636205222023E254A7
:10524000DBE7C04670B52024045D0668013CB56804
:10525000012C47D8E024640525424AD0AD01AD0FAA
:10526000032D51D00120A84018608B68002B47D037
:105270004868CC68C000234303432800183000016D
:105280008351C2230C692D0170195B00C450097D44
:10529000012903D1C458FF312143C15051791379F9
:1052A00009021943937975191B041943D3791B0615
:1052B0000B4329008D31FF310B60517813780902BF
:1052C0001943937889351B041943D378C0221B06F0
:1052D0000B430121FF352B60520083580B43835051
:1052E000002005E08023426ADB0213434362012071
:1052F00070BD8023426A9B03134343620120F7E79A
:105300000B68C8685B05B7E78023426A1B04134338
:1053100043620120ECE7C0462022825C0300013A90
:105320000020012A0BD81A689068936840011B017D
:10533000DB0FC00FC0189368DB00DB0FC01870478D
:10534000F0B5CE464746202480B5045D013C012CD3
:1053500000D97AE00468A14600290CD1E568AC07C1
:105360000CD18023426A9B03134343620120C0BCDB
:10537000B946B046F0BD2569AC07F2D04C46D827F7
:105380000E01A5197F00BC46EF59B84604274446D4
:105390002740976064465FD02F59FF085760D82791
:1053A0007F00EC59AF3FFF3F2740DA246400D7600D
:1053B000A4460F272C592740644617612F592D59B1
:1053C0003F043F0E2D0C976155614A469419B9343C
:1053D000FF3422681A7002689219B932FF321268DB
:1053E000120A5A7002689219B932FF321268120C0E
:1053F0009A7002689219B932FF321268120EDA708E
:1054000002689219BD32FF3212681A71026892194D
:10541000BD32FF321268120A5A7102689219BD3207
:10542000FF321268120C9A71026894466644BD36C7
:10543000FF363268120EDA710268002910D1D36883
:1054400020310B430020D36091E78023426ADB02C6
:105450001343436201208AE72F597F0D17609EE7AF
:105460002021136900200B43136180E72022825C16
:105470000300013A0020012A00D970471B68002967
:1054800003D1DB6803301840F7E703201B6918409D
:10549000F3E7C04670B5002814DB154B03229C4689
:1054A000FF23840810401A00C026C00089018240F2
:1054B0000B408340A4006444B600A55995432B4398
:1054C000A35170BD0B4A0F239446032203401040A2
:1054D000FC321500C000890185400A408240083B2B
:1054E0009B089B006344DC69AC432243DA61E8E734
:1054F00000E100E000ED00E0002805DB1F2318407C
:105500001E3B8340014A13607047C04600E100E043
:105510008022431E5204012093420ED2C021074A2A
:1055200007485360036A09061B021B0A0B43036208
:1055300000230020936007331360704710E000E001
:1055400000ED00E070B5041E27D02125022343554D
:105550000068134A0368A1681A4063680B43E16856
:105560000B4321690B4361690B43A1690B43E1695B
:105570000B43134303600B4B14219C466044FAF722
:10558000C3FD094B0122E363002380002064002057
:10559000A36362551F32A35470BD0120FCE7C046CF
:1055A0000FC0FFFFF8FFFDBF00000240F0B5202450
:1055B000055D012D37D0012521270555C55DEEB2CA
:1055C000012D03D0002303550220F0BD1E3CC4551D
:1055D000002484630468076C2568B543BE402560D9
:1055E000C56B6E6063604368102B0ED0C36AA16008
:1055F000E260002B0ED00E222368134323600122A9
:105600002368002013432360DFE7C36AA260E160E0
:10561000002BF0D10A222368134323602368063A43
:1056200093432360EBE70220CFE7C046F8B504249C
:105630002600036CC56B9E402A6801680F683242E1
:105640000DD03C420BD00B689B0602D40B68A343E1
:105650000B60C36A6E60002B00D09847F8BD02242F
:1056600026009E40324214D03C4212D00B689B066A
:1056700006D40A220B6893430B602123093AC254D3
:10568000202300226E60C254836A002BE6D0984724
:10569000E4E7082426009E403242DFD03C42DDD0C1
:1056A0000A680634A2430A600122110099402123AE
:1056B00069608263C2540022013BC254036B002B19
:1056C000CCD09847CAE7C0460B68F0B54E4699461D
:1056D000DE46574645464A46E0B5002387B0002AD5
:1056E00072D001229246634AC8469346624F0191A6
:1056F000524644469A401440A146444614425FD064
:1057000001994C68102125008D430395013D012D21
:1057100061D903265D00AE40C268F143B243160072
:10572000019A02919268AA403243C2600668029AC6
:105730003240160003222240AA40324302608022F7
:10574000520514423CD05A465146926903260A43F8
:1057500059468A618A6951460A4048491E408C462A
:105760000F21B600B1400592059A9A089200624452
:1057700095688D439021C90588420AD040498842E6
:1057800000D16FE03F49884200D16FE00521B14070
:105790000D4349469560CE433A68E1035FD43240F9
:1057A0003A607A68A10357D432407A60BD68E20259
:1057B00048D43540BD60FA68A10249D43240FA604D
:1057C00042460133DA4093D107B0F0BCBB46B24643
:1057D000A946A046F0BD03215D00A9408C46C943FF
:1057E0000291614686688E430199C968A9400E43BB
:1057F000514686604668964322090A409A403243E1
:1058000042606246C6689643019A9268AA40324353
:10581000C260039A022A00D088E7DA08920086184C
:10582000326A039607260F211E40B600B1408A4314
:105830009446019A1269B240160062461643039AD2
:10584000166273E74A461543BD60FA68A102B5D5F2
:10585000494611430A00B2E749460A43A5E74946CB
:105860000A439DE75146B1400D4392E70221B14002
:105870000D438EE70010024000040140000001408B
:10588000000400480008004800690840411E8841A3
:10589000C0B27047002A01D0816170478162FCE785
:1058A000F0B5CE46474680B5040083B0002800D14D
:1058B00018E10368DA072FD50C21C24842680A4074
:1058C000042A00D14CE142681140082900D13EE190
:1058D0006368012B00D14DE1002B00D163E1052B62
:1058E00000D170E2B74BB8491A680A401A601A68CA
:1058F000B6490A401A60FFF759F880260500B14FF3
:10590000B60205E0FFF752F8401B642800D948E1D1
:105910003B683342F6D023689A0729D50C22A9495F
:105920004868024200D1ECE048680240082A00D1F1
:10593000DEE0E368A34D002B00D175E101222B6866
:10594000022713432B60FFF731F8060005E0FFF74D
:105950002DF8801B022800D923E12B681F42F6D0C6
:10596000F8212A6823698A43DB0013432B602368EC
:105970001A072DD45A0745D580220020914B520595
:10598000D9698146114208D1D9691143D961DB69CE
:105990001A400192019B0123994680278C4E7F007B
:1059A00033683B4200D1ECE0A368012B00D14EE10B
:1059B000002B00D11AE1052B00D1DBE10121814B45
:1059C0001A6A8A431A621A6A03318A431A6242E1E6
:1059D000E3697C4D002B00D1A6E001226B6A02270F
:1059E00013436B62FEF7E2FF060005E0FEF7DEFF01
:1059F000801B022800D9D4E06B6A1F42F6D02368CE
:105A00005A07B9D4DA0612D56269012A00D1BBE17E
:105A1000053200D031E10420F8256A494A6B8243FF
:105A20004A63486BA269A843D20002434A639B06BB
:105A300022D50C2263494B6813400C2B00D13CE16A
:105A40004B681A40082A00D130E1236A5D4D002BD3
:105A500000D13CE180266B6B760233436B63FEF72B
:105A6000A5FF070005E0FEF7A1FFC01B022800D933
:105A700097E06B6B3342F6D0636A002B1BD00C228D
:105A8000504E71680A40082A17D0022B00D139E124
:105A90003368504A802513403360FEF787FFAD041A
:105AA000040005E0FEF782FF001B022800D978E021
:105AB00033682B42F6D1002015E0012B12D0C02311
:105AC0007268A06A5B02F16A134083420AD10F2315
:105AD0000B40216B8B4205D1F0239B031A40E36AF4
