:020000040040BA
:10000000F0334020D1014000CD014000CD0140003F
:10001000CD014000CD014000CD01400000000000B6
:10002000000000000000000000000000CD014000C2
:10003000CD01400000000000CD014000CD01400096
:10004000CD014000CD014000CD014000CD01400078
:10005000CD014000CD014000F5164000CD0140002B
:10006000CD01400000000000611B4000CD014000B8
:1000700000000000CD014000CD0140000000000064
:10008000CD0140000000000000000000CD01400054
:10009000CD01400000000000CD014000492140009A
:1000A000CD014000CD014000000000000000000034
:1000B0000000000005134000CD014000CD014000CC
:1000C000CD014000CD014000CD014000A51A400007
:1000D000CD0140000000000000000000CD01400004
:1000E000191340000000000000000000CD01400096
:1000F000CD014000000000000000000000000000F2
:100100000000000000000000CD014000CD014000D3
:10011000CD014000000000000000000000000000D1
:10012000CD014000CD014000CD014000CD01400097
:10013000C11D4000CD01400000000000CD01400085
:10014000CD014000CD014000CD014000CD01400077
:10015000CD01400010B5054C237833B9044B13B1E1
:100160000448AFF300800123237010BD5C014020E0
:1001700000000000B86740000C4B43B10C480D492B
:1001800010B5AFF300800C48036823B910BD0A48CE
:10019000036833B97047094B002BF7D0BDE8104016
:1001A0001847064B002BF5D0184700BF0000000091
:1001B000B867400060014020B867400000000000C0
:1001C00008B5014B984708BD0D044000FEE700004C
:1001D00008B5174B174A9A4210D0174B144A9A4247
:1001E0000CD2013B9B1A23F003030433134411493F
:1001F00051F8040B42F8040B9A42F9D10F4B104A04
:100200009A420AD2013B9B1A23F00303043313449E
:10021000002142F8041B9342FBD10A4A0A4B23F007
:100220007F039360094B9847094B9847FEE700BF4F
:1002300000004020B86740005C014020F02D4020C5
:100240005C01402000ED00E00000400095644000AB
:10025000BD43400008B502490248034B984708BD1A
:10026000000C0E4098264020350C4000034B08221D
:100270005A611A66C3F890201A607047000E0E404B
:10028000054B1A6F42F002021A675A6F22F00202FF
:100290005A6702225A60704700140E40054BD3F88B
:1002A000083113F0805F04D14FF08052014BC3F846
:1002B0000021704700060E4008B5064B9847064BD4
:1002C0009847064B9847024605490648064B98470B
:1002D00008BD00BF9D024000810240000120400097
:1002E00000C005407C264020A10D4000184B4FF473
:1002F00000521A615A631A66C3F89020196F21F4EC
:1003000000511967596F21F4005159675A604FF431
:1003100080521A615A631A66C3F89020196F21F44B
:1003200080511967596F21F4805159675A604FF411
:1003300080425A611A66C3F89020196F21F48041F7
:100340001967596F21F4804159675A60704700BF9F
:10035000000E0E40054BD3F8083113F4006F04D1A2
:100360004FF40062014BC3F80021704700060E40B5
:1003700008B5044B984704490448054B9847054B7A
:10038000984708BD5503400000C00740282740207B
:10039000510E4000ED024000054BD3F8083113F038
:1003A000080F03D10822024BC3F80021704700BF99
:1003B00000060E400A4B1A6F22F008021A675A6FA5
:1003C00022F008025A6708225A601A6F22F00402CB
:1003D0001A675A6F22F004025A6704225A60704763
:1003E00000100E4008B5044B9847044B9847044949
:1003F0000448054B984708BD99034000B5034000E9
:100400000000034054264020C9094000F0B585B0E3
:10041000604B9847604B9B6913F4806F03D14FF496
:1004200080625D4B1A615C4B9B6913F4803F03D182
:100430004FF48032584B1A61584A536843F40043D2
:100440005360574B10225A611A66C3F890201A6005
:1004500020221A631A611A6080225A631A611A6094
:100460004FF480721A631A611A604FF400621A63C3
:100470001A611A604FF480025A631A611A604FF0D1
:1004800080725A631A611A604FF000625A611A66EC
:10049000C3F890201A6003F5C0634FF400125A614C
:1004A0001A66C3F890201A604FF080625A631A618E
:1004B0001A60A3F560639B6913F0005F03D14FF0EE
:1004C0000052354B1A61374D374C00230293374B9E
:1004D0000193022300930A232A4635492046354ECC
:1004E000B047102305F10C0201212046324EB047DF
:1004F000102305F11C020A212046B0474FF40012D8
:10050000274B1A60012203F500731A60A3F52063DC
:10051000D3F8083113F4807F04D14FF480721E4B5E
:10052000C3F800211F4E254D00240294244B019353
:1005300001230093234606F12C02224928461D4F31
:10054000B847102306F13002214628461A4CA0472E
:1005500002221D4B1A601D4B98471D4B98471D4B9F
:1005600098471D4B98470C4B9B6913F4000F03D120
:100570004FF40002084B1A61184B9847024618497D
:100580001848194B9847194B9847194B984705B08D
:10059000F0BD00BFC914400000060E4050180E40C8
:1005A000000E0E4078014020CC264020F826402046
:1005B00000C0034069064000150740002C2740207A
:1005C000B42640200040064000100E405502400076
:1005D0006D024000B9024000710340004521400017
:1005E00000C0004058274020810F4000E503400034
:1005F0009D0B400008B5836903B1984708BD08B555
:10060000C36903B1984708BD2DE9F04706460F4678
:100610009146036A5C5C04EB4404E400D0F8288053
:1006200008EB040505F1040AD1B250460C4B98477B
:1006300030460C4B9847012807D94FEA19215046FC
:10064000074B9847AB8A0133AB82AB8A0133AB824D
:1006500058F8043013B1394630469847BDE8F08762
:1006600095114000351440002DE9F84F15461C4601
:100670009DF82870DDF82C8006468946002818BFB2
:10068000002914BF012000200BD0002F18BFB8F1A3
:10069000000F14BF01200020002A0CBF002000F032
:1006A0000100DFF868B03F225946DFF864A0D04768
:1006B000601C402259468742CCBF00200120D04711
:1006C0000023FF21DAB2A9540133DAB2A242F9D9E8
:1006D000356286F8244086F82570C6F82880494699
:1006E0003046064B9847034628B9054AB260054A8A
:1006F0003260054A72601846BDE8F88F2D1340003D
:1007000009064000F5054000FF054000F464400084
:10071000A11040002DE9F0470E462A4F9246984618
:10072000002A18BF002B14BF0123002305466622B0
:10073000394600280CBF002003F00100224CA047DE
:1007400095F8240067223946B04234BF00200120CA
:10075000A047296A8B5DFF2B2AD195F8240000233E
:100760001C4603E00133DAB2824206D8DAB28A5C70
:10077000FF2AF7D00134E4B2F4E795F82530A3421C
:1007800019D304EB44094FEAC909A86A4844424610
:10079000514604300D4B9847024678B92B6A9C5558
:1007A000AB6A99440023A9F814301046BDE8F087DD
:1007B0006FF00C02F9E76FF01B02F6E76FF00C0226
:1007C000F3E700BFF4644000A110400009114000AD
:1007D000F8B50D460B4F044683223946003018BF4A
:1007E0000120094EB04794F8240084223946A842DB
:1007F00034BF00200120B04729462046034B9847CC
:100800000020F8BDF4644000A1104000291440000D
:100810002DE9F8430E4614469946DFF870800546E8
:100820009C224146003018BF0120164FB84795F86A
:1008300024009D224146B04234BF00200120B84729
:10084000012C19D02CB1022C19D06FF00C00BDE88E
:10085000F8832B6A9B5DAA6A03EB430342F833904B
:1008600019F1000318BF0123224631462846064CE1
:10087000A0470020BDE8F883C5F81890F0E7C5F858
:100880001C90EDE7A110400041144000F4644000CA
:100890002DE9F04782B08A461D461C1C18BF012472
:1008A000DFF8C0909046002A0CBF002304F001033B
:1008B0000646BC22494600280CBF002003F0010078
:1008C000224FB84796F82400BD224946504534BF10
:1008D00000200120B84730461D4B984795FBF0F3A8
:1008E00003FB1050BF224946B0FA80F04009B847D8
:1008F000336A13F80AA00AEB4A0AB36A03EBCA0A7E
:1009000001A8144B98470AF104094846124B98472E
:10091000074601A8114B9847B7B1ACB100210C466E
:100920000F4E0134A4B241444846B0472146A54287
:1009300001D9A742F5D8BAF814301B1BAAF8143015
:10094000204602B0BDE8F0870024F4E7A110400083
:100950003514400091094000D51140009F09400026
:1009600051114000F464400010B50446D6220549F8
:10097000003018BF0120044B98472046034B98478E
:10098000002010BDF4644000A11040003914400064
:10099000EFF31083036072B6BFF35F8F7047BFF34E
:1009A0005F8F036883F31088704708B5C36903B18C
:1009B000984708BD08B5036A03B1984708BD08B554
:1009C000436A03B1984708BD38B504460D46002870
:1009D00018BF002914BF0120002041220849094BFB
:1009E000984729462046084B9847034628B9074AA6
:1009F0006260074AA260074AE260184638BD00BF3D
:100A000010654000A110400011174000AB094000E4
:100A1000B5094000BF09400010B504465C220549F5
:100A2000003018BF0120044B98472046034B9847DD
:100A300010BD00BF10654000A11040001518400017
:100A400038B504460D46002818BF002914BF012000
:100A500000206E220349044B984729462046034B49
:100A6000984738BD10654000A1104000251840008F
:100A700038B504460D46002818BF002914BF0120D0
:100A8000002077220349044B984729462046034B10
:100A9000984738BD10654000A1104000E1184000A3
:100AA00070B50C461646054681220E49003018BF27
:100AB00001200D4B9847012C0FD024B1022C0ED0F1
:100AC0006FF00C0070BD2E62321C18BF012221464F
:100AD0002846064B9847002070BDEE61F4E76E6231
:100AE000F2E700BF10654000A1104000DD19400092
:100AF000F8B50D4616461F460446B8220649003092
:100B000018BF0120054B98473B46324629462046F0
:100B1000034CA047F8BD00BF10654000A110400085
:100B2000251A400010B5044B1C68044B9847014639
:100B30002046034B984710BDB8014020A91440003F
:100B4000C114400010B5044B1C68044B9847014683
:100B50002046034B984710BDB8014020B514400013
:100B6000C114400070B50C4B5C68A0420ED001234C
:100B700000211E46FF2503E02B465A18520804D1D7
:100B8000A042F9D93BB13146F7E770BD024B1B6873
:100B90000BB1984770BD70BDBC01402008B5054B36
:100BA0004FF0FF325A6000221A600348034B984707
:100BB00008BD00BFBC014020650B4000051C400083
:100BC00008B50D4B5B68984206D091B10A4B1B6883
:100BD00043B16FF00C0008BD074B196029B9074BF2
:100BE000984708BD044B196058600121034B984792
:100BF00008BD6FF00C0008BDBC0140207D1C40000A
:100C000008B50121014B984708BD00BF7D1C40007D
:100C100008B50021014B984708BD00BF7D1C40006E
:100C200008B5436903B1984708BD08B5836903B1A6
:100C3000984708BD38B504460D46002818BF00295E
:100C400014BF0120002038220749084B9847294645
:100C50002046074B9847034618B9064A2260064AC1
:100C60006260184638BD00BF2C654000A1104000EE
:100C70001D154000210C40002B0C40002DE9F041D7
:100C80000E4690461F46002A18BF002B14BF0123B2
:100C9000002305465622134900280CBF002003F00C
:100CA0000100114B98472846104B984704462846A8
:100CB0000F4B984700FB04F0B0420BD3BB1998428E
:100CC0000CD33B464246314628460A4CA0470020FA
:100CD000BDE8F0816FF00D00BDE8F0816FF00D0010
:100CE000BDE8F0812C654000A1104000691540006E
:100CF0006F154000751540002DE9F0410E469046F5
:100D00001F46002A18BF002B14BF012300230546ED
:100D10006A22184900280CBF002003F00100164B7E
:100D200098472846154B984704462846144B984741
:100D300000FB04F0B04210D3BB19984211D33146E6
:100D40002846104B984780B93B46424631462846D4
:100D50000D4CA0470020BDE8F0816FF00D00BDE80C
:100D6000F0816FF00D00BDE8F0816FF01000BDE87C
:100D7000F08100BF2C654000A110400069154000C3
:100D80006F154000C9164000AD15400008B5436915
:100D900003B1984708BD08B5836903B1984708BDFA
:100DA00038B504460D46002818BF002914BF01209D
:100DB000002033220649074B984729462046064B18
:100DC0009847064B2360064B6360002038BD00BF88
:100DD00044654000A1104000D91D40008D0D400029
:100DE000970D400010B504464A220949003018BF4B
:100DF0000120084B98472046074B984720B92046CA
:100E0000064B9847002010BD6FF0100010BD00BFCA
:100E100044654000A1104000D51F4000251F400040
:100E200070B50D46164604467C220649003018BFB0
:100E30000120054B9847324629462046034B9847E8
:100E4000002070BD44654000A1104000711F4000AB
:100E500038B504460D46002818BF002914BF0120EC
:100E6000002031220349044B984729462046034B72
:100E7000984738BD5C654000A11040000520400047
:100E800010B504463F220549003018BF0120044B2D
:100E900098472046034B984710BD00BF5C65400053
:100EA000A11040003D204000F8B5844607682FB1EE
:100EB0008D683C460026C2F1010E0BE00E4B9847B0
:100EC000F8BD7344A0680344AB420AD223682646A7
:100ED00053B11C4663689342F3D8A06803449B1A3D
:100EE000F2E7A74204D034462046044B9847F8BDA9
:100EF0006046014B9847F8BDC9104000F51040000E
:100F00002DE9F0474469076901370761037E13F053
:100F1000010F13D1037E13F0020F0FD154B3636896
:100F2000FB1AA268934207D3064600F11408DFF8C3
:100F30004890DFF848A012E0BDE8F087037E43F058
:100F400002030376BDE8F0877569E3682046984799
:100F500085B12C466B68FB1AAA6893420AD34046B7
:100F6000C847237C012BEFD167603A4621464046B3
:100F7000D047E9E7BDE8F087FD104000A90E40002A
:100F800038B504460D46002818BF002914BF0120BB
:100F900000203B220549064B984729462046054B31
:100FA000984700202061044B236038BD78654000DD
:100FB000A110400049204000010F400010B5044638
:100FC00053220949003018BF0120084B984720469A
:100FD000074B984720B92046064B9847002010BD84
:100FE0006FF0100010BD00BF78654000A1104000F8
:100FF000192140001121400070B582B004460D4611
:10100000002818BF002914BF012000207A221D49A2
:101010001D4B9847237E43F00103237604F1140609
:1010200029463046194B984788B923696B60226975
:1010300029463046164B9847237E03F0FE0323765D
:10104000237E13F0020F0ED1002002B070BD237E6C
:1010500003F0FE0323767F220A4900200A4B9847BB
:101060006FF01100F1E701A80A4B9847237E03F0C7
:10107000FD0323762046084B984701A8074B984765
:101080000020E2E778654000A1104000A710400072
:10109000A90E400091094000252140009F09400011
:1010A00000B900BE704703684BB18B4209D01B6882
:1010B0001BB19942FBD101207047002070470020EE
:1010C000704701207047000038B504460D46064BB6
:1010D000984780F0010039220449C0B2044B984778
:1010E00023682B60256038BDA71040009065400044
:1010F000A110400003680B600160704703680BB1EA
:101100001A6802601846704770B50E4615460029E9
:1011100018BF002A14BF01230023044628220A49CD
:1011200000280CBF002003F00100084B98476B1EFD
:101130001D4205D163600020A060E060266070BDA4
:101140006FF00C0070BD00BFB0654000A110400002
:1011500038B504460D46002818BF002914BF0120E9
:101160000020402209490A4B9847A368E2689A4246
:1011700009D0626813402268D35C2B70A3680133E6
:10118000A360002038BD6FF0090038BDB065400095
:10119000A110400038B50D46044651220B490030DD
:1011A00018BF01200A4B9847E36862681340226821
:1011B000D554E3686168A2689A1A8A4201D9591A1B
:1011C000A1600133E360002038BD00BFB06540007E
:1011D000A110400010B5044667220549003018BF31
:1011E0000120044B9847E068A368C01A10BD00BFF7
:1011F000B0654000A11040004069064B984207D0FE
:1012000003F5203398420CBF28204FF0FF30704781
:101210001D20704700C0034010B4184B642202FB2D
:1012200001F15A185468446094688460D468C460BA
:10123000146904615469046594694465D469046659
:10124000146AC0F89440546AC0F8A040946AC0F888
:10125000D040D46AC0F8D440126BC0F8D8203031E6
:1012600019440023436651F8042FC26601330C2B46
:10127000F8D100205DF8044B704700BFD4654000F2
:1012800070B582B005464269116BD36A0B40019379
:10129000019B13F0806F2BD1019B13F0007F2BD1AA
:1012A000019BC3F30B030193019CB4FA84F4C4F1D2
:1012B000200414F0FF0419D00126013CE4B26B694C
:1012C0005C666B699A6EAB6892B221462846984775
:1012D000019B06FA04F423EA04040194019CB4FA85
:1012E00084F4C4F1200414F0FF04E6D102B070BD10
:1012F000036800219847CFE76B680021284698478C
:10130000CEE7000008B5024B1868024B984708BDAD
:10131000C40140208112400008B5024B5868024BBE
:10132000984708BDC40140208112400038B50C46E2
:1013300005464FF4A1723449003018BF0120334BE9
:101340009847334B9C4254D003F520339C420CD039
:10135000A7222D4900202D4B9847002120462D4BD8
:101360009847034618B1184638BD0121F6E76C616D
:10137000274B9C4245D0284B9C4231D02846274BD6
:10138000984700282FDB430900F01F00012202FAD2
:1013900000F02033224A42F82300BFF34F8FBFF3FF
:1013A0006F8F28461D4B984700281EDB430900F02D
:1013B0001F00012202FA00F06033194A42F82300AC
:1013C0002846164B9847002811DB420900F01F0001
:1013D000012303FA00F0124B43F822000023C2E776
:1013E000104B5D60CAE70023BDE70023BBE7002385
:1013F000B9E700212046074B984703460028B2D1A1
:101400006C61084B1D60B9E79C664000A11040006C
:1014100000C003401912400000400640F91140008E
:1014200000E100E0C40140204269012303FA01F118
:101430005161704702207047436902221A60704769
:101440004069012A08D0022A0FD022B9B3B901237A
:1014500003FA01F1816270471BB94FF08063836228
:1014600070474FF08063436270471BB94FF00073C1
:10147000836270474FF0007343627047012303FAA1
:1014800001F141627047000043B2002B09DB5B09A8
:1014900000F01F00012202FA00F04033014A42F836
:1014A0002300704700E100E04FF4967303FB00F067
:1014B00070470000014B03FB00F07047E09304000D
:1014C0000139FDD87047000000B583B001A80E4B6C
:1014D00098470E4AD2F8883043F47003C2F8883037
:1014E000BFF34F8FBFF36F8F01A8094B9847094A8D
:1014F000136823F4706343F4A0631360064B9847AA
:1015000003B05DF804FB00BF9109400000ED00E06E
:101510009F094000000C0E40DD1C400038B5044619
:101520000D46002818BF002914BF012000206D229D
:1015300009490A4B98472561094B1C60094B402219
:10154000C3F88020BFF34F8FBFF36F8FC3F88021A4
:101550001A60002038BD00BFB4664000A1104000F2
:10156000CC01402000E100E04FF4007070474FF4E0
:101570008060704770B50C4616461D46C818AB22F1
:101580000749B0F5002F2CBF00200120054B9847DC
:101590002A4604F580013046034B984770BD00BFD2
:1015A000B4664000A1104000DD6440002DE9F04F1A
:1015B00087B004910192002B79D09A468A44514514
:1015C00075D2BAF5804F34BF4FF4007B4FF4005B07
:1015D000CBF1000205928946364B04330393364F14
:1015E000029023E05A4601990398344B9847BBF583
:1015F000007F4DD0AC4211D22E4B03F104084FF0C6
:101600000009029E4346620A49463069B84704F51C
:10161000007408F50078A542F4D80296049BEB1AF2
:10162000019A1A440192A946AA4540D9059B03EAAA
:1016300009040BEB04054C4532D21FFA89F3A5EBE4
:1016400003081FFA88F8AA4506D2B8F1000F29D07E
:10165000AAEB03081FFA88F8B8F1000FC2D05B4666
:10166000039A21460298164EB047A9EB0400424661
:101670000199039B1844114B9847BBF5007F07D095
:10168000610A41F00201029B18690E4B9847B1E7CD
:10169000039B4FEA5922012102980069B847BDE730
:1016A000AA459FD2AAEB04081FFA88F8D4E707B02E
:1016B000BDE8F08FCC01402021004020DD644000D7
:1016C0007515400001004020890B0369084A5A60E3
:1016D0000269936813F0010FFBD01F2900D9D3686A
:1016E000D06801F01F01C84000F00100704700BF42
:1016F0000A00005A08B5054B186803699B6813F087
:10170000010F02D0036803B1984708BDCC01402007
:1017100010B401608B6943F001038B610268936927
:1017200013F0010FFBD0936943F002039361324B36
:10173000994212D00268936923F002039361026810
:10174000936923F0010393610268936913F0010F19
:10175000FBD100205DF8044B7047284B8361036880
:101760009A699A610368264ADA61036802F1306275
:10177000DA600268234B9BB243F44813C2F8A030EE
:1017800003680021C3F8BC100368C3F8C8100268DE
:101790001D4B9BB243F02063C2F8C03004681B4A63
:1017A00093B243F40033C4F8F03003682B24C3F839
:1017B0008040046802F110039BB243F48023C4F814
:1017C0008430046802F120039BB243F48023C4F800
:1017D00088300368C3F8901010640D4B0822C3F8DA
:1017E0008420BFF34F8FBFF36F8FC3F884215A60FB
:1017F00003680122DA659DE7000003406000402095
:10180000330A040074274020942A4020D02140202D
:1018100000E100E00268936923F001039361002076
:10182000704700000368D3F8A42012F07F0F49D05E
:10183000274A934202D06FF01B00704730B585B045
:101840001446D2F8A430C3F305231B01214AD4F86F
:10185000A400D4F8A85025F03F05C0F30520284384
:10186000C4F8A8009D1830D0985810F0804F1FD1B0
:10187000002048739858C0F38A4008609B5813F0C2
:10188000005F1CD10C46144B0FCB0DF1100E0EE96E
:101890000F006B68C3F30343734413F8102C2273D7
:1018A00005F10801A0680D4B9847002005B030BD38
:1018B000012048739858C0F31C000860DEE701233C
:1018C0000B71DFE76FF0090070476FF01B00EDE769
:1018D0000000034074274020CC664000DD644000D7
:1018E00038B50368D3F8C42012F4001F6AD1384A0F
:1018F000934202D06FF01B0038BDD2F8C420C2F36F
:1019000004421201334C15195FD04B7B012B1BD0C5
:101910000B689B0413510B7B082B1CD86A6863F37C
:1019200013426A6004460A7B896805F108002A4B65
:1019300098472168D1F8C420C2F3044201239340A0
:10194000C1F8D030002038BD0B681351135943F053
:1019500080431351DFE70C2B05D86B68092262F333
:1019600013436B60DEE7102B05D86B680A2262F325
:1019700013436B60D6E7142B05D86B680B2262F318
:1019800013436B60CEE7182B05D86B680C2262F30B
:1019900013436B60C6E7202B05D86B680D2262F3FA
:1019A00013436B60BEE7302B05D86B680E2262F3E1
:1019B00013436B60B6E7402BB4D86B6843F47023D5
:1019C0006B60AFE76FF01B0038BD6FF01B0038BDD8
:1019D00000000340942A4020DD64400021B1012929
:1019E00009D0022914D0704701684B6D23F0010320
:1019F0001A434A65704701684B6D23F4007343EA4C
:101A000042224A6503684FF0FF32C3F8E020704776
:101A10000268536D23F4FF739B059B0D43F06073C5
:101A20005365E0E78069F2B9C268CBB1586842F803
:101A30002100186852F8213060F31A4342F821302F
:101A400052F82130022060F39F7342F8213052F89F
:101A50002130012060F3DD6342F82130002070471F
:101A600042F82130FAE730B4012A02D0002030BC1D
:101A70007047026902EBC1008BB11C6842F831402B
:101A800052F83140012565F35F7442F831405B68DC
:101A900043604368022262F39F734360E6E742F8C3
:101AA0003130E3E738B51D4B1D6C2B681C6D14F00D
:101AB000010F1CD114F4007F1DD114F0007F1ED142
:101AC00014F0807F20D114F4000F0AD0EA682B684C
:101AD0005B6C03F02003002B14BF02210121284678
:101AE000904714F0080F14D12B681C6538BDAB6803
:101AF00028469847DEE76B6828469847DDE7EB689D
:101B0000032128469847DBE7EB68002128469847E1
:101B1000D9E7EB68042128469847E5E7D021402023
:101B2000D9B130B40D460438002450F8041F11F028
:101B3000010F0DD10123022211420AD152000133BB
:101B4000202BF9D10134AC42EFD14FF0FF3002E04D
:101B5000002303EB441030BC70474FF0FF30704758
:101B60002DE9F04186B0002301930293039304937F
:101B700005931F4B1868F8221E49003018BF01203A
:101B80001D4B98471D4AD36C926C134001935BB375
:101B90001B4D174FDFF86480052101A8A84744B208
:101BA000B4F1FF3F18D0012620463B6898476311E7
:101BB00006AA02EB830304F01F0406FA04F453F8A8
:101BC000142C22EA040443F8144C052101A8A84768
:101BD00044B2B4F1FF3FE7D1D8F84C30D8F84820F0
:101BE00013400193002BD7D106B0BDE8F08100BFB0
:101BF00014224020DC664000A1104000000E0E4080
:101C0000211B4000F8B50746174D4FF4AA7229462C
:101C10000120164CA047E02229460120A047D222ED
:101C200029460120A047124B0822C3F8B020C3F870
:101C3000C0200026C3F8C460C3F8D060C3F8D42025
:101C4000D22229460120A0470A4B4FF48062C3F8F4
:101C50008020BFF34F8FBFF36F8FC3F880211A60CE
:101C6000054B1F603046F8BDDC664000A110400007
:101C7000000E0E4000E100E0142240202DE9F0416A
:101C800004460F46DFF8508040F2A11241469F28DB
:101C90008CBF002001200E4EB047E5B2C322414662
:101CA0009F2D8CBF00200120B0476D09094B03EB2D
:101CB000452504F01F0437B9012303FA04F46C64CA
:101CC0000020BDE8F081012303FA04F42C64F7E757
:101CD000A1104000000E0E40DC6640002D490A6A4B
:101CE00022F002022C4B13430B620A46936E13F050
:101CF000010FFBD0274B196A284A0A431A62996AD6
:101D0000274A0A409A62274A9A621A46936E13F04B
:101D1000020FFBD04FF471021E4BDA611A46936E2C
:101D200013F0400FFBD01B4A136B23F400531363D3
:101D3000936E13F0080FFBD0164A136B23F0700359
:101D40001363936E13F0080FFBD0124A136B23F446
:101D5000407343F480731363936E13F0080FFBD04A
:101D60000C4A136B23F0030343F002031363936ED7
:101D700013F0080FFBD040F27312064B5A651A4657
:101D8000936E13F4807FFBD04FF40052014B1A6026
:101D9000704700BF00060E40013E370000003701CB
:101DA000FFFF00F8013F1820034B044A90420CBF8C
:101DB00018460020704700BFF866400000C005408C
:101DC00008B5044B18680369DB6913B1036803B1F4
:101DD000984708BD18224020F8B505460C46081C57
:101DE00018BF012040F271124849494B98472046DC
:101DF000484B98472C6183682360C368E367036995
:101E0000C4F880304369E3658369A366C369C4F895
:101E1000C030036AE366436AC4F82C34836AC4F8AA
:101E20004C34C36AFBB100231A461B01076B07EB56
:101E3000030EDEF80460F95C103149016650DEF8EB
:101E40000C60F95C103104EB41114E60DEF80810B3
:101E5000FB5C04EB4313C3F80C12013252B213467D
:101E6000C16A8A42E1D3436BDBB100231A4603EB1C
:101E70004303816B01EB830EDEF8047011F82360DD
:101E800004EB0616C6F83871DEF8086011F8233046
:101E900013331B01E650013252B21346416B8A42A2
:101EA000E5D31D4B9C422ED090F90430002B28DB4B
:101EB0005A0903F01F03012101FA03F320321749E5
:101EC00041F82230BFF34F8FBFF36F8F90F904308A
:101ED000002B16DB5A0903F01F03012101FA03F35B
:101EE00060320E4941F8223090F90430002B08DBB3
:101EF000590903F01F03012202FA03F3074A42F8CB
:101F000021300020F8BD064B1D60CDE7546740002E
:101F1000A1104000A91D400000C0054000E100E004
:101F20001822402070B504464FF4D4720D49003099
:101F300018BF01200C4B984720690C4B9847C36A87
:101F40007BB10022134601262169056B1201AA5CB0
:101F500006FA02F24A6001335BB21A46C16A8B424A
:101F6000F2D370BD54674000A1104000A91D40008D
:101F7000F8B50D461646044640F2C512124900282F
:101F800018BFAE4234BF01200020104B9847206993
:101F90000F4B9847C36AB3B100221346216912015F
:101FA000076BBF5C01EB4711C1F808622169076B41
:101FB000BA5C01EB4212C2F810520133DBB21A468E
:101FC000C16A8B42EAD3F8BD54674000A1104000BB
:101FD000A91D400010B5044640F2D1120649003058
:101FE00018BF0120054B98472369D86810F00F00EF
:101FF00018BF012010BD00BF54674000A110400071
:102000000020704738B505460C46002818BF002947
:1020100014BF0120002041220649074B98472C603D
:10202000802323601123636041F2021323620020A6
:1020300038BD00BF6C674000A1104000036801225A
:102040001A60002070470000F8B507460D462A4B7D
:102050001B68294C994218BF0024A668C1609122D0
:1020600026490120264B984716F4004F18BF46F426
:1020700014266E6063696B61A369AB61E3682B63CF
:10208000E369EB6110236B622369C5F8D8301D4BFF
:102090009D422ED094F90430002B28DB5A0903F01E
:1020A0001F03012101FA03F32032174941F82230BE
:1020B000BFF34F8FBFF36F8F94F90430002B16DB03
:1020C0005A0903F01F03012101FA03F360320E499C
:1020D00041F8223094F90430002B08DB590903F051
:1020E0001F03012202FA03F3074A42F821300020BD
:1020F000F8BD064B1F60CDE77400402084674000A8
:10210000A110400000C0004000E100E02822402073
:10211000C36805221A607047C368186AC0F300409C
:102120007047000008B5C168044B1A68914218BF97
:1021300000231879024B984708BD00BF7400402067
:10214000891440000020704708B5054B1868C36823
:102150001B6A13F0100F00D108BD03689847FBE716
:1021600028224020704770470122014B1A707047A7
:102170002C2240200D4BDB6B13F0100F0BD00C4BBF
:102180005B881BB213F1050F0FDB094A5388013B33
:102190001BB253807047064B5B881BB2052B04DCD7
:1021A000034A538801331BB253807047000E0E4020
:1021B0002C22402010B50223044A00210448054C7B
:1021C000A0470122044B1A7110BD00BF8C2D402086
:1021D0002C274020910840002C22402010B50223DB
:1021E000044A0A210448054CA0470122044B5A71B5
:1021F00010BD00BF282C4020CC2640209108400074
:102200002C22402010B50223044A01210448054C29
:10221000A0470122044B9A7110BD00BF842D4020BD
:10222000CC264020910840002C22402000000000D5
:1022300070B582B00320524B9847524C63881AB253
:102240004FF4FA6303FB02F307EE903AF8EEE77AF5
:10225000C4ED027AD4ED027AD4ED036A94ED047AE7
:10226000494D95ED006A67EE867A95ED016A66EE56
:10227000866A77EEA67AD5ED036A27EE267A77EEA0
:10228000C77AC4ED057A94ED057AD4ED047A77EE39
:10229000677A17EE900A3D4B984737A3D3E900239E
:1022A0003B4EB0473B4B9847A061D4ED067AD4ED46
:1022B000076A94ED087A95ED046A67EE867A95EDE3
:1022C000056A66EE866A77EEA67AD5ED076A27EE8E
:1022D000267A77EEC77AC4ED097A63692361A36829
:1022E000E360636A2362A369E36194F82830022BF8
:1022F00039D9244B002283F82820D3ED097AFDEE4A
:10230000E77ACDED017ABDF90410D3ED057AFDEE43
:10231000E77ACDED017ABDF90420002A27DD90B2DD
:1023200043F6982313449BB2164C012284F82920CB
:10233000194A1070000A5070937043F30723D3704A
:102340006388137151710912917114491448154B26
:1023500098470C4B5A885A8500225A800320124B0A
:10236000984702B070BD013384F82830F1E750423D
:1023700080B2D5E7AFF30080DFE00B93A9AA50400D
:10238000110C40002C22402098004020895D400024
:10239000315E4000F5634000E82D4020842B402052
:1023A00054264020710A4000010C400010B45E4ADF
:1023B0005E4B9A605E4B03F10801002203F8012F87
:1023C0008B42FBD15B4A5C4B1360002313715B496A
:1023D0009160082111730120507359490B704B70A3
:1023E000584A40F201341460137191600221117354
:1023F000507355490B704B708B70CB70534A40F241
:102400000234146013719160042313735073504BA2
:10241000D91D002203F8012F9942FBD14D4B40F208
:1024200003321A6000221A714B4A9A6007221A730B
:1024300001225A73494B03F10801002203F8012FCE
:102440008B42FBD1464940F205330B6000230B71F0
:10245000444A8A6008220A7301224A734248027081
:10246000424940F299340C600B7188600A734A73D8
:102470003F48037043703F494FF448740C600B7140
:102480008860022008734A733B480370437083706E
:10249000C3703A4940F219340C600B718860042310
:1024A0000B734A73364BD91D002203F8012F994252
:1024B000FBD1344940F211330B6000230B71324AD7
:1024C0008A6007220A7301224A7330480370304938
:1024D00040F232340C600B7188600A734A732D48E5
:1024E00003702D494FF466740C600B7188600A7399
:1024F0004A732A490B704B708B70CB700B71284854
:10250000284C0460037181600521017342732648E1
:102510000370264901340C600B7188600A734A739A
:102520005DF8044B704700BFE82B4020A82C4020EA
:10253000932B4020542B402007070400942B40206D
:10254000982D4020982C4020E42C40209C2D4020A9
:10255000E72D4020842B4020E82D40208F2D402067
:10256000AC2D4020902D4020682D4020302C402064
:10257000B82C4020142D4020882D4020742B402062
:10258000BB2C4020642B4020BC2C4020802D4020C0
:10259000702D4020242D40204C2C4020402C4020E9
:1025A0005C2C402017000600102D4020302D4020CC
:1025B000F8B5094B01241C6000255D60074F2246D9
:1025C00029463846064EB047064B1C605D602A46D9
:1025D00021463846B047F8BDE82C4020542640201C
:1025E000F10A4000282D4020F8B504460F464FF46C
:1025F0000062144B5A630120134B9847134BDC6065
:102600001B6913F0040F08D104260F4D0F4C304600
:10261000A847236913F0040FF9D00C4BDF601B6946
:1026200013F0040F08D10126074D084C3046A84787
:10263000236913F0040FF9D04FF40062014B1A63C1
:10264000F8BD00BF000E0E40250B400000C0074043
:1026500010B44FF40062214B5A6340F08000204BCD
:10266000D8601A46136913F0040FFBD000221C4BEC
:10267000DA601A46136913F0040FFBD0184A136985
:1026800013F0010FFBD0164B9868144A4FF4006406
:102690001463C0B2546341F08001D9601A461369D3
:1026A00013F0040FFBD000220D4BDA601A461369B9
:1026B00013F0040FFBD00A4A136913F0010FFBD08B
:1026C000074B9B684FF40061044A11631BB240EA58
:1026D000032000B25DF8044B704700BF000E0E40AF
:1026E00000C0074010B52C4B93F82C30DBB2072B01
:1026F00012D9294B93F82D30DBB2072B1CD9264B6E
:1027000093F82E30DBB2072B26D9234B93F82F30CA
:10271000DBB2072B30D910BD1F4A92F82C40E4B22F
:10272000631CDBB282F82C30272126201B4B9847F4
:102730001B4B43F82400DCE7174A92F82D40E4B223
:10274000631CDBB282F82D302B212A20134B9847D3
:10275000144B43F82400D2E70F4A92F82E40E4B21B
:10276000631CDBB282F82E30292128200B4B9847BE
:102770000D4B43F82400C8E7074A92F82F40E4B213
:10278000631CDBB282F82F302D212C20034B98479D
:10279000064B43F82400BEE72C224020512640007F
:1027A000C02B4020702C4020C02D4020402D4020C8
:1027B00010B5802110200B4CA0470A200A4B9847E7
:1027C00040211220A0470023084C1A460848094916
:1027D00044F8232040F8232041F823200133082B1C
:1027E000F6D110BDE9254000450B4000702C40207B
:1027F000C02D4020402D402008B5084B5A6822F0DB
:1028000001025A601A6A22F001021A621A6A22F060
:1028100002021A620248034B984708BD00C00740F5
:1028200028274020810E400070B5244C0123A3636B
:10283000234AE26384F840300A22E264214A226596
:1028400084F854300F2222661F4A626684F868308A
:10285000322262671D4AA26784F87C304FF41672F8
:10286000C4F888201A4AC4F88C2084F89030642276
:10287000C4F89C20174AC4F8A02084F8A430164D50
:1028800004F130012846154EB04704F144012846B2
:10289000B04704F158012846B04704F16C012846BE
:1028A000B04704F180012846B04704F1940128465E
:1028B000B04728460A4B984770BD00BF2C224020E5
:1028C000E52640001152400031224000394A4000C4
:1028D0001D484000D13C400058274020F90F4000DF
:1028E000BD0F4000784B93F8A830002B00F0EB8030
:1028F000764B93F82030002B00F0E580724B93ED7F
:102900002B7A734B1B8807EE903AF8EEE77AF4EED9
:10291000C77AF1EE10FA5FDB6B4B93F8B0305BBB1C
:10292000694B012283F8B0200021684A82F8211007
:10293000B3F9B2308B4240F39D800121624A82F8A4
:10294000B410002BC0F2A5805F4B93ED057ADFED4C
:10295000617AB4EEE77AF1EE10FA40F1A580002238
:1029600083F8B82093F8B430002B40F0A780002201
:10297000554B83F8BC207047534B93F8B430A3B940
:10298000514BB3F8B630023307EE903AF8EEE77ADF
:10299000B4EEE77AF1EE10FA07DD01224B4B83F833
:1029A00021200022484B83F8B020474B93F8B830E1
:1029B0003BB90122454B83F822200022424B83F889
:1029C000B920414BB3F9B230002B53DD3F4A92F8A6
:1029D0002120002AB1D04DE03F4B1B8807EE903AF2
:1029E000F8EEE77AB4EEE77AF1EE10FA33DB364B25
:1029F00093F8B93043B90122334B83F8B920002250
:102A0000324B83F82220DCE72F4B93F8B830A3B980
:102A10002D4BB3F8BA30023B07EE903AF8EEE77A66
:102A2000B4EEE77AF1EE10FA07D50122274B83F8CE
:102A300022200022244B83F8B920234B93F8B43092
:102A4000002BBED10122214B83F8212000221E4BF6
:102A500083F8B0200BE01D49012081F821001A4BBA
:102A6000002283F8B02081F8220083F8B920164BA9
:102A7000B3F9B230144A92ED057ADFED187AB4EE6C
:102A8000E77AF1EE10FA7FF75CAF002182F8B4101C
:102A900057E70E4B93F82230002B7FF455AF0122FD
:102AA000094B83F8B82009E0074B93F8B4302BB9F1
:102AB000054B93F8B830002B3FF459AF0122024B7D
:102AC00083F8BC20704770472C224020980040209B
:102AD000262D402000009643BC2D40200000C8C396
:102AE000624BB3F8B620022A62D993ED2B7A931E7B
:102AF00007EE903AF8EEE77AF4EEC77AF1EE10FAC4
:102B000007DD00215A4B83F822100121574B83F82F
:102B1000B910564BB3F8BA3007EE903AF8EEE77AB0
:102B2000B4EEE77AF1EE10FA07DD0021504B83F89E
:102B3000221001214D4B83F8B9104C4BB3F8BA3039
:102B4000C3F5B47102296CDD484991ED2B7A02334B
:102B500007EE903AF8EEE77AF4EEC77AF1EE10FA63
:102B60004CD50021424B83F8211001213F4B83F8C3
:102B7000B01007EE902AF8EEE77AB4EEE77AF1EEBD
:102B800010FA07D500223A4B83F821200122374B57
:102B900083F8B0200122354B83F8BD20334B93F8E6
:102BA000B930002B5CD10022304B83F8BE20704737
:102BB0002E4B93ED2B7AB3F8BA3007EE903AF8EE3D
:102BC000E77AF4EEC77AF1EE10FAB6D5DFED297A9E
:102BD00037EEC77AC2F1020307EE903AF8EEE77AD1
:102BE000B4EEE77AF1EE10FAA7DD0021204B83F86E
:102BF000221001211D4B83F8B9109EE707EE902AA1
:102C0000F8EEE77AB4EEE77AF1EE10FABAD4174BA1
:102C100093F8B030002BBDD10022144B83F8BD20B7
:102C2000BCE7124991ED2B7A07EE902AF8EEE77A8D
:102C3000F4EEC77AF1EE10FAE9DDA3F5B37307EE0F
:102C4000903AF8EEE77AB4EEE77AF1EE10FADEDDCC
:102C50000022074B83F82120012281F8B02099E758
:102C60000122024B83F8BE20704700BF2C22402077
:102C7000980040200000B4432DE9F8432DED028B6D
:102C80007B4B93F82930002B67D0794B93ED057A75
:102C9000DFED787AB4EEE77AF1EE10FA61D593F8C9
:102CA000B030002B59D1724C94ED058A724E68EE0B
:102CB000087A17EE900AB047704D67A3D3E9002356
:102CC000A84780468946F1EE487A17EE900AB04749
:102CD00063A3D3E90023A847694D02460B4640464B
:102CE0004946A84700224FF08043A847654B9847C4
:102CF00085B2A4F8C05094ED097ADFED637AB4EEA2
:102D0000E77AF1EE10FA17D5606A80F00040B0471C
:102D100055A3D3E90023594EB04706460F4628462F
:102D20005A4B984702460B4630463946544DA84701
:102D3000544B9847A4F8C0004D4BB3F8B620B3F8F5
:102D4000C0100A4452490A80B3F9B230002B04DBA8
:102D5000474BB3F8BA204F4B1A80BDEC028BBDE84D
:102D6000F883434B93ED057ADFED4B7AB4EEE77AC7
:102D7000F1EE10FA5ADD93F8B930002BEDD13C4C4E
:102D800094ED058A3C4E68EE087A17EE900AB0473B
:102D90003A4D31A3D3E90023A8478046894618EE6F
:102DA000100AB0472EA3D3E90023A847344D0246AA
:102DB0000B4640464946A84700224FF08043A847AB
:102DC000304B984785B2A4F8C05094ED097ADFEDF6
:102DD000337AB4EEE77AF1EE10FA15DD606AB047A7
:102DE00021A3D3E90023254EB04706460F462846C7
:102DF000264B984702460B4630463946204DA84799
:102E0000204B9847A4F8C000194BB3F8BA20B3F888
:102E1000C010521A1F490A80B3F9B230002B9CDC53
:102E2000134BB3F8B6201A4B1A8096E7104B93F861
:102E3000B03023B90E4BB3F8B620154B1A800C4BAB
:102E400093F8B930002B88D1094BB3F8BA20114B55
:102E50001A8082E7AFF3008033F5866228518F3EF7
:102E6000E94338E2A0EF643FFA7E6ABC7493683F9E
:102E70002C224020000020C2895D4000315E4000CD
:102E8000CD5A4000B563400000007AC4655D400043
:102E9000262D4020BC2D40200000204200007A4416
:102EA000284B9B8C834207D2264BB3F85030834289
:102EB00043D9244B586D7047224BB3F84E308342B0
:102EC00008D9204BB3F8AC30834238D21D4BD3F82D
:102ED000A8007047F0B41B4C04F124034E340022C8
:102EE00002E00132A34225D033F8021B8842F8D217
:102EF000571C1D88A842F4D3124B03EB820696EDB3
:102F0000156A03EB8707D7ED157A77EEC67A6D1A47
:102F100007EE105AB8EEC77AC7EE876A401A07EE76
:102F2000900AF8EEE77A66EEA77A77EE867A17EEE1
:102F3000900A00E00020F0BC704703487047024848
:102F4000704700BF980040200000C6C2044B1844E0
:102F500090F8C43090F8C50043EA002000B27047F2
:102F60002C224020084B184490F8C42090F8C5103B
:102F700090F8C6301B0443EA0123134390F8C700BE
:102F800043EA0060704700BF2C22402082B0064B0D
:102F9000184401AB02A910F8012B03F8012B8B4256
:102FA000F9D1019802B07047F0224020064B184436
:102FB00080F8C4100B0A80F8C5300B0C80F8C630BE
:102FC000090E80F8C71070472C22402082B002AB57
:102FD00043F8041D054A104402A913F8012B00F818
:102FE000012B8B42F9D102B0704700BFF022402084
:102FF00010B54FF40073034A03490448044CA0473A
:1030000010BD00BFF022402020A1070098264020DC
:103010007D0C400010B54FF40073034A0349044887
:10302000044CA04710BD00BFF022402020A10700A3
:1030300098264020F90C4000AF4B002283F8C422B0
:1030400093F8C5323BB90122AB4B83F8C5224FF050
:103050008062AA4B1A63AA4A936B03F48003D94394
:1030600001F4800111635363A64B1B6841F22102F6
:10307000934200F042852DE9F04751D840F21112F9
:10308000934200F0C181B3F5897F2FD240F2011243
:10309000934200F0518140F20312934224D1964BA7
:1030A00093F8D532002B40F0D081964B9B685A782C
:1030B000187840EA022000B207EE900AF8EEE77AAC
:1030C00017EE900A904B984789A3D3E900238F4CC1
:1030D000A04700228E4B8F4CA0478F4B9847864BC2
:1030E000C3F8D802BDE8F087BDE8F08741F20102DD
:1030F000934200F0878041F2050293420ED1814B4A
:103100009B681B78012B00F0D784002B40F0E884EB
:103110000022794B83F8C922BDE8F087BDE8F0872B
:103120007E4A934200F0D28422D8B3F1011F00F00E
:103130009281033A934219D1724B1B7B012B40F0D1
:10314000CF84704B9B681B78013B0B2B00F2C8842B
:10315000DFE813F0F8011D02C604C604C604C60465
:103160004202B002C604C604EF023A03BDE8F0878B
:103170006B4A934200F0CD846A4A934240D1614B3E
:103180009B681A78684B93F8B030DBB29A4200F033
:10319000A784531EDBB2022B00F2A284624C84F897
:1031A000B02094F8B020544B83F8F4205F4B98473C
:1031B00094F8B030DBB2022B00F04585032B00F011
:1031C0005D85012B00F024854B4B002283F8B02055
:1031D0005549012081F8210083F8B92081F82200A7
:1031E00083F8B42083F8B82083F81A234FF47A7256
:1031F000A3F81C23B3F8B6204D4B1A80BDE8F08726
:10320000BDE8F0873F4B9A68517813780B4401333F
:10321000DBB2394880F8C6329078984205D0002257
:10322000354BA3F8B220BDE8F087364B1B7B032B50
:10323000F5D1314B002083F8C70293F8C83223B18F
:103240001378E82B01D1032931D02B4B93F8C932E5
:10325000002B44D15178137843EA0123A3F57A7304
:103260001BB2314AB2F9AE204AB31BB900222E4B31
:10327000A3F8AE20204BB3F8CA32002300211E4A27
:1032800082F8CC121C4AA2F8CA3292F8CC22D2B2EE
:103290000A2A07D90122184B83F8C8220522254B98
:1032A0001A710023144AA2F8B230BDE8F087124B1D
:1032B00083F8C80293F8C8121E4B1971C5E70E4A6D
:1032C000B2F8CA2212B2002BD8D09342D6D10A4902
:1032D00091F8CC220132D2B281F8CC22D2E700227E
:1032E000054BA3F8B220BDE8F08700BFAFF3008024
:1032F0007B14AE47E17A843F2C22402000140E401C
:10330000000E0E40A82C4020895D4000315E400038
:1033100000005940C95A4000F56340000600010012
:1033200006090500140006009800402015304000F2
:10333000262D4020BC2C4020BE4B9A6850789178B6
:103340001378034405330B44DBB2BB4C84F8C6321C
:10335000D4789C420AD0B84B93F8CE32042B4DD887
:103360000133B54A82F8CE32BDE8F087B14B1B7B02
:10337000042BF0D1B04B83F8CD1271BB194600235A
:1033800081F8CE32137843EA00235B42C3F30D0386
:10339000A1F8D03291F8A8203AB10A46B1F8D21279
:1033A0005B1AC3F30D03A2F8D032A34CB4F8D002D9
:1033B00007EE900AF8EE677A17EE900A9F4B98474F
:1033C0009F4D00229F4BA84700229F4BA8479F4B31
:1033D0009847C4F8AC00BDE8F087974B93F8CE321D
:1033E000042B05D80133944A82F8CE32BDE8F08729
:1033F0000122914B83F8D422BDE8F08701228E4B45
:1034000083F8D422BDE8F0878A4B9B681B788A4AF0
:1034100082F8D53292F8A82042B13BB10021864A09
:10342000A2F8B21001218A4AA2F8AE10824A92F89C
:10343000D622002A00F05483002B40F05183002252
:103440007D4B83F8D622BDE8F08700227A4BC3F883
:10345000D822BDE8F087784B93F8A81011B101226B
:1034600083F8DC22744B0022A3F8BA20A3F8B6201C
:10347000A3F8D222A3F8DE22A3F8E022A3F8E222E6
:10348000A3F8E422A3F8E622A3F8E822A3F8EA22AC
:1034900083F8EC1283F8C42083F8C52083F8C62093
:1034A00083F8C72083F8C92083F8CA2083F8CB208B
:1034B00083F8CC2083F8CD2083F8CE20A3F8EE2229
:1034C000A3F8F022A3F8F222A3F8F422A3F8F6223C
:1034D00083F8F81283F8DD2083F8DE2083F8DF20FC
:1034E00083F8E02083F8E22083F8E32083F8E420E7
:1034F00083F8E52083F8E62083F8E720A3F8FA2292
:10350000A3F8FC22A3F8FE22A3F80023A3F80223C9
:1035100083F8041383F8E82083F8E92083F8EA208D
:1035200083F8EB2083F8ED2083F8EE2083F8EF207A
:1035300083F8F02083F8F12083F8F220454B984778
:10354000BDE8F0873C4B93F8D532BBB93A4B93F8C2
:1035500005339BB9404A01231370374B93F8A810E9
:103560005170D3ED2B7AFCEEE77A17EE902AA3F890
:103570000623B3F8D022A3F8082302E00022364B3A
:103580001A7036493648374B9847BDE8F0872A4BC2
:1035900093F8D532BBB9284B93F805339BB92E4A23
:1035A00001231370244B93F8A8105170D3ED2B7A9C
:1035B000FCEEE77A17EE902AA3F80A23B3F8D0229C
:1035C000A3F80C2302E00022234B1A70234924485D
:1035D000244B9847BDE8F087174B93F8D532002B62
:1035E0005FD1154B93F80533002B5AD1124BB3F82A
:1035F000BA20B3F8B6309A424CD0174A0123137060
:103600000D4981F8A8305370174B9847104B93F829
:10361000B030DBB2022B29D0032B31D0012B43D1A8
:10362000054B93F8A82083F8EC2283F8C820094BB7
:10363000984739E0A82C40202C224020895D40008A
:10364000315E4000008076400000103FF56340008E
:103650009800402015304000B82C4020142D402008
:1036600054264020710A4000E12A4000C14B93F8E3
:10367000A82083F8F82283F8E120BF4B984713E095
:10368000BC4B93F8A82083F8042383F8EC20BA4BB2
:10369000984709E00023B74A82F8A830B74A537028
:1036A00002E00022B54B1A70B549B648B64B9847B0
:1036B000BDE8F087B14B01261E70AE4D002485F8A1
:1036C000A8405C70AE49AF48AF4B9847AF4B83F80A
:1036D000226083F8216085F8B94085F8B04093F8FE
:1036E000B030DBB2022B0ED0032B17D0B34240F028
:1036F000F78195F8A82085F8EC2285F8C8209E4B24
:103700009847BDE8F0879B4B93F8A82083F8F822F0
:1037100083F8E120984B9847BDE8F087954B93F8E4
:10372000A82083F8042383F8EC20934B9847BDE846
:10373000F087904B93F8D5323BB98E4B93F8053315
:103740001BB901228D4B1A7002E000228B4B1A70BC
:10375000884C94F8A820894B5A70894989488A4B2B
:103760009847002284F8A820884B012183F8221072
:1037700083F8211084F8B92084F8B02093F8B03091
:10378000DBB2022B0CD0032B14D08B4240F0A8816B
:1037900084F8EC2284F8C820774B9847BDE8F0877E
:1037A000744B002283F8F82283F8E120724B98478B
:1037B000BDE8F0876F4B002283F8042383F8EC20E8
:1037C0006D4B9847BDE8F08700226C4B1A70694B2F
:1037D000B3F80803B3F80C53A84264D200F5804351
:1037E0005B1B9BB2FE2B61D80022624B83F8A820A2
:1037F000604B93F8A820614B5A7061496148624B55
:103800009847624B93F8B030DBB2022B00F0CA80CD
:10381000032B00F00C81012B40F06281554CB4F871
:10382000B63084F8C43043F3072384F8C530B4F8C5
:10383000BA3084F8C63043F3072384F8C730B4F8AD
:10384000D23284F8C93043F3072384F8CA30B4F87D
:10385000DE3284F8CB3043F3072384F8CC30B4F85D
:10386000E03284F8CD3043F3072384F8CE30424B66
:103870009847B4F8B630A4F8E232B4F8BA30A4F8F5
:10388000E432B4F8DE32A4F8E632B4F8E032A4F858
:10389000E832B4F8D232A4F8EA3294F8A83084F8C6
:1038A000EC32BDE8F087431B9BB29BE7C3F5804237
:1038B000FE2A04DC00222F4B83F8A82098E705EBB2
:1038C0005303C3F30D032B4FA7F8D232A0EB030829
:1038D000C8F30D08A7F80E83EB1AC3F30D04A7F87D
:1038E0001043DFF8B8A007EE900AF8EE677A17EEFB
:1038F000900AD047264E0022264BB0470022264B86
:10390000B047DFF89C90C847A7F8DE0207EE905A50
:10391000F8EE677A17EE900AD04700221D4BB047A9
:1039200000221D4BB047C847A7F8E00207EE908A77
:10393000F8EE677A17EE900AD0470022154BB04791
:103940000022154BB047C847A7F8B60007EE904ACB
:10395000F8EE677A17EE900AD04700220D4BB04779
:1039600000220D4BB047C847A7F8BA000122034B0D
:103970001A703DE72C22402015304000B82C402022
:10398000142D402054264020710A40009800402009
:10399000315E4000008076400000103F895D4000AD
:1039A000B5634000C34CB4F8B63084F8DD3043F35F
:1039B000072384F8DE30B4F8BA3084F8DF3043F3FC
:1039C000072384F8E030B4F8D23284F8E23043F3CD
:1039D000072384F8E330B4F8DE3284F8E43043F3AC
:1039E000072384F8E530B4F8E03284F8E63043F396
:1039F000072384F8E730B04B9847B4F8B630A4F802
:103A0000EE32B4F8BA30A4F8F032B4F8DE32A4F8EA
:103A1000F232B4F8E032A4F8F432B4F8D232A4F8B6
:103A2000F63294F8A83084F8F832BDE8F087A14C5B
:103A3000B4F8B63084F8E83043F3072384F8E9306B
:103A4000B4F8BA3084F8EA3043F3072384F8EB3053
:103A5000B4F8D23284F8ED3043F3072384F8EE3023
:103A6000B4F8DE3284F8EF3043F3072384F8F03003
:103A7000B4F8E03284F8F13043F3072384F8F230ED
:103A80008D4B9847B4F8B630A4F8FA32B4F8BA308F
:103A9000A4F8FC32B4F8DE32A4F8FE32B4F8E03216
:103AA000A4F80033B4F8D232A4F8023394F8A83062
:103AB00084F80433BDE8F0870122804BA3F8AE20E0
:103AC00000227C4BA3F8B220BDE8F0877C4B9B68BA
:103AD0001A78012A06D0042A04D01B78092B06D0B4
:103AE000BDE8F0870121734A82F8C912F5E7002288
:103AF000704B83F8C922BDE8F087714B9868431E6C
:103B0000704A053013F8011F02F8011B9842F9D1E1
:103B100070470022674B83F81923694B9B681A781A
:103B2000012A19D0022A25D05A78002A30D19A7851
:103B3000002A37D1DA78002A3ED11A79002A45D1F5
:103B40005A79002A4CD19B79002B54D1594B93F8C8
:103B50001933002BC4D057E0564A012182F81913BB
:103B6000594C5648C0F8B44082F8CF10022182F870
:103B7000D010D9E74F4A012182F8191353484F4911
:103B8000C1F8B400022182F8CF1082F8D010CBE740
:103B90004849012081F8190381F8D120022281F8D7
:103BA000D220C4E74349012081F8190381F8D320CA
:103BB000022281F8D420BDE73E49012081F8190393
:103BC00081F8D520022281F8D620B6E739490120B4
:103BD00081F8190381F8D720022281F8D820AFE7B5
:103BE0003449012081F8190381F8D920022281F893
:103BF000DA209B7943B12F4A012182F8191382F808
:103C0000DB30022382F8DC302B4B9847BDE8F0878D
:103C1000284BB3F8E222A3F8B620B3F8E422A3F8C5
:103C2000BA20B3F8E622A3F8DE22B3F8E822A3F81C
:103C3000E022B3F8EA22A3F8D22293F8EC2283F828
:103C4000A820FFF7C1BA1B4BB3F8EE22A3F8B620A9
:103C5000B3F8F022A3F8BA20B3F8F222A3F8DE22D8
:103C6000B3F8F422A3F8E022B3F8F622A3F8D222A4
:103C700093F8F82283F8A820FFF7A6BA0D4BB3F803
:103C8000FA22A3F8B620B3F8FC22A3F8BA20B3F8BE
:103C9000FE22A3F8DE22B3F80023A3F8E022B3F853
:103CA0000223A3F8D22293F8042383F8A820FFF775
:103CB0008BBA00BF2C2240201530400098004020D5
:103CC000A82C4020402540208FC2753D0AD7233DB7
:103CD00070B582B0924CB4F8DE32924A1370C3F3DE
:103CE000002394F8A81043EA011394F8BC1043EAA7
:103CF00081135370B4F8E0329370C3F30023D37090
:103D000089498A488A4B984794F81E33032B1FD859
:103D1000013384F81E33824B93F82133052B44D8AA
:103D200001337F4A82F821337D4B93F82233122BE3
:103D300044D801337A4A82F82233794991F8D5522E
:103D400001F5457301F21A3100240120064643E0D3
:103D5000734C002384F81E33744E76493046744DFC
:103D6000A84775493046A84794F8C4320133DBB2FE
:103D700084F8C432032B09D994F8C53233B14FF01B
:103D800080626E4B5A63002284F8C522644B93F81C
:103D90001F330E2B04D80133614A82F81F33BAE770
:103DA00001225F4B83F82023B5E700225C4B83F8A8
:103DB000212363495D485E4B9847B5E70C22614B70
:103DC0001A70614959485A4B98470022544B83F85E
:103DD0002223B2E78B4206D013F8012B592AF9D1DE
:103DE00004463546F6E7002C43D14D4B93F8D632C6
:103DF00083BB4B4B93F8D5323BB9494B93F8D43244
:103E00001BB9474B93F8DC3223B3454B93F8A830EA
:103E100003B3434B012283F8D6220020A3F8B2005B
:103E20004A49A1F8AE2083F8052383F8A80091F849
:103E3000B030DBB2022B28D0032B2FD093421CD002
:103E40000122434B1A7043493848394B98470222A4
:103E5000414B9A71324B93F82333DBB2312B26D886
:103E60002F4A92F823330133DBB282F8233302B0B6
:103E700070BD2B4B83F8D552B7E7294B83F8EC0282
:103E800083F8C800354B9847DAE7254B002283F8C2
:103E9000F82283F8E120314B9847D1E7204B0022EC
:103EA00083F8042383F8EC202C4B9847C8E71C4E7A
:103EB000002386F82333D6F824133220284B984762
:103EC000284D2968284C2368C3EB03139B004FF44B
:103ED000616202FB0133254A116819443720244BE3
:103EE00098471E4B9847D6EDC97AFCEEE77ACDEDA0
:103EF000017ABDF804301F4A13701B0A53702968F9
:103F0000C1EB0111236803EB81039370190AD1708F
:103F10001B0C137118490548054B9847A7E700BFCC
:103F20002C224020882D4020742B402054264020F5
:103F3000710A4000302C4020642B402000140E40B9
:103F4000302D4020242D40204C2C40209800402033
:103F5000802D4020702D4020BC2C4020153040008A
:103F6000CD2F4000BC2B40206C2D40206C2C4020DD
:103F7000AD2F4000402C40205C2C40202DE9F84F14
:103F8000C24B9847C24A92F8C83082F8EC32012BF3
:103F900005D91346002283F8C82083F8EC22BC4AD6
:103FA00092F8E13082F8F832012B05D9134600224D
:103FB00083F8E12083F8F822B54A92F8EC3082F8D1
:103FC0000433012B05D91346002283F8EC2083F833
:103FD00004230020AF4EB0471FFA80F9AC4FA7F87A
:103FE000E2920220B04784B2A7F8E4420520B0472D
:103FF00085B2A7F8EA520720B0471FFA80F8A7F861
:10400000E6820920B04780B2B9F5B47F98BFB4F515
:10401000B47F8CBF01240024B8F5B47F88BF44F07E
:1040200001042CB9B0F5B47F02D8A7F8E8020BE080
:10403000974B0022A3F8E822A3F8E622A3F8E42293
:10404000A3F8E22283F8EC221920924FB8471FFA16
:1040500080FADFF83C82A8F8EEA21B20B84784B2B1
:10406000A8F8F0421E20B84786B2A8F8F6622020D1
:10407000B8471FFA80F9A8F8F2922220B84780B218
:10408000BAF5B47F98BFB4F5B47F8CBF0124002487
:10409000B9F5B47F88BF44F001042CB9B0F5B47F02
:1040A00002D8A8F8F4020BE0794B0022A3F8F4221E
:1040B000A3F8F222A3F8F022A3F8EE2283F8F82264
:1040C0002420744FB8471FFA80FBDFF8C491A9F889
:1040D000FAB22620B84784B2A9F8FC422920B84792
:1040E0001FFA80F8A9F802832B20B8471FFA80FA3C
:1040F000A9F8FEA22D20B84780B2BBF5B47F98BFC7
:10410000B4F5B47F8CBF01240024BAF5B47F88BF16
:1041100044F001042CB9B0F5B47F02D8A9F800032B
:104120000BE05B4B0022A3F80023A3F8FE22A3F8C8
:10413000FC22A3F8FA2283F80423554B93F8F420C9
:10414000554B83F8B02093F8B0302BB1524B93F815
:10415000B030DBB2032B06D901234F4A82F8B030CE
:104160004B4A82F8F4304C4B93F8B030DBB2022B60
:1041700074D0032B00F09480012B17D0444BB3F87C
:10418000E222A3F8B620B3F8E422A3F8BA20A3F8F9
:10419000D25293F8EC2283F8A820B3F8E622A3F8D1
:1041A000DE22B3F8E822A3F8E02216E0384BB3F899
:1041B000E222A3F8B620B3F8E422A3F8BA20A3F8C9
:1041C000D25293F8EC2283F8A820B3F8E622A3F8A1
:1041D000DE22B3F8E822A3F8E0222D4B93F8D0308A
:1041E000022B75D02A4B93F8D230022B00F081803D
:1041F000274B93F8D430022B00F08280244B93F8A5
:10420000D630022B00F08380214B93F8D830022B5C
:1042100000F084801E4B93F8DA30022B00F085808A
:104220001B4B93F8DC30022B00F08680184B93F880
:10423000F530012B00F087800122154B83F8F52023
:10424000134B93F8FA30012B00F084800122104BBD
:1042500083F8FA20114B9847BDE8F88F0C4BB3F860
:10426000EE22A3F8B620B3F8F022A3F8BA20A3F800
:10427000D26293F8F82283F8A820B3F8F222A3F8C8
:10428000DE22B3F8F422A3F8E022A6E7F12F4000E3
:104290002C2240204D2F4000980040201530400037
:1042A0003B4BB3F8FA22A3F8B620B3F8FC22A3F8EC
:1042B000BA20A3F8D28293F8042383F8A820B3F895
:1042C000FE22A3F8DE22B3F80023A3F8E02284E75D
:1042D0002F4B93F8CF30012B06D0022B82D12D4AE1
:1042E0002D4BC3F8B4207DE72C4A2B4BC3F8B420E8
:1042F00078E7274B93F8D120274B83F8B82077E74E
:10430000234B93F8D320244B83F8B92076E7204B36
:1043100093F8D520204B83F8BA2075E71C4B93F80F
:10432000D7201D4B83F8BB2074E7194B93F8D92095
:10433000194B83F8BC2073E7154B93F8DB20164B21
:1043400083F8BD2072E73220154B9847104BC3F815
:10435000240375E73720134B9847134BA3FB002327
:10436000DB0A124A13604FF4616202FB1303104A26
:10437000A2FB03135B090F490B60A2FB0032530938
:10438000C3EB0313A0EB83030B4A136062E700BF88
:104390002C2240200AD7233D980040208FC2753D33
:1043A0008D2F4000652F4000C5B3A291BC2B40204B
:1043B000898888886C2D40206C2C402080B56E4BFD
:1043C00098476E4D28466E4B98470A206D4CA04783
:1043D000002241F2707128466B4B98470A20A04793
:1043E00080226A4B1A636A4B98476A4B98476A4B1C
:1043F00098476A4C6A4B002201212046694EB0471B
:10440000694B00220A212046B047684D684B0022C4
:1044100011462846B04701212046664EB0470A2182
:104420002046B04700212846B0472846624DA8479D
:104430002046A847614B9847614B9847614C624AB8
:1044400001212046614DA847614A02212046A84724
:10445000604A00212046A84720465F4B98475F48A6
:1044600090F8BD1090F8BC505D4A00231370538043
:1044700091801E24D4806421118193729381D5810F
:1044800014825182D38213750A265683142494838E
:104490000125957790F8BBE090F8BA70514A1370F7
:1044A0005380A2F804E0D480118193729381D78164
:1044B00016825182D382137556839483957790F830
:1044C000B97090F8B860484A137053809780D180D3
:1044D000C820108193729381D68111825082D38239
:1044E00013755483282191839577404A1370538024
:1044F00090804FF47A70D0804FF4FA6111819372FA
:104500009381AA24D48110825182D38213754FF4EF
:10451000487353834FF4C8639383032494772046EE
:10452000334B984733492046334B9847334B984792
:10453000164D334F334C0126DFF8D48002E032466B
:1045400023785BB9EB6B13F0006FF8D0FB6B03F4CF
:104550000013002B14BF00220222F1E784F8282365
:1045600041461848284B984710B100232370E9E7CB
:10457000264B9847E6E700BFC10140007C2640205B
:10458000E50D4000450B4000210E4000000E0E409E
:10459000F9274000B12740007D3F4000CC26402055
:1045A0000522400011084000DD2140002C2740205A
:1045B000B5214000D107400069094000AD2340000B
:1045C000B12540005426402065214000A10A40004A
:1045D0006721400069214000190A400098004020EE
:1045E0009C2B4020F02C4020342B4020C42C402019
:1045F000010C400075214000C10B400029284000FB
:1046000000140E402C224020410A40003930400066
:10461000A82C4020F0B583B0044607EE101A9DF890
:1046200024709DF82860FDEEC77ACDED017ABDF9C2
:104630000410DFED797A27EE277ABDEEC77A8DED8B
:10464000017ABDF9045007EE102A67EE277AFDEED5
:10465000E77ACDED017ABDF904208088814227DB1D
:104660006088013060800EB1608AA0816088E68831
:10467000864229D2012626702689B0424ED966800C
:104680000220A67F002E5FD195424BD1002D49D04C
:10469000E38A0133E382E38A628B9A4247D20122A2
:1046A00022752289934240F2B180E28203204FE0DA
:1046B000E089814216DB608810B101386080D5E75F
:1046C000A0890130A0816088A689B4F810E0B645C1
:1046D00013D290B90120A072608A864220D9A081AD
:1046E0000120CEE7608810B101386080BEE7A08964
:1046F0000028E8D00138A081E5E794F800E0BEF199
:10470000000F02D008B10220BBE7A07A10B10EB1B1
:104710000120B6E700202070A072B2E70220B0E7C7
:104720000120AEE7E38A3BB1013BE382B3E7227DA0
:1047300012B10BB103200BE023784BB9A37A3BB93C
:1047400000222275184603E0012E03D0032E38D034
:1047500003B0F0BD002FFBD007EE901AF8EEE77A19
:1047600007EE103AF4EEC77AF1EE10FA06DC9DED92
:10477000087AF4EEC77AF1EE10FA0ED5E38A013327
:10478000E382E38A628B9A420CD20122227522894B
:1047900093423DD9E2820320DAE7E38A3BB1013B51
:1047A000E382EEE7227D12B10BB10320D0E723783C
:1047B000002BCDD1A37A002BCAD100222275184636
:1047C000C6E795420FD0E38AB3B1013BE382E38AA7
:1047D000628B9A420BD2012222752289934219D907
:1047E000E2823046B4E7E38A0133E382EFE7227DD9
:1047F00012B10BB13046ABE72378002BA8D1A37AD6
:10480000002BA5D1002222751846A1E703209FE7BF
:1048100003209DE730469BE70000C8422DE9F04F9A
:104820002DED048B85B06A4B1A786A490A705B7863
:104830004B70180200F470601043674CC4F82C03EE
:10484000664B984708EE100AC4F83003644B98474B
:104850000022644B644DA8470022644B644DA84776
:10486000644B984780B2A4F83403634B9870000AF5
:10487000D87094F83633002B40F09280FBEE0E7A1D
:10488000B4EEE78AF1EE10FA0FDDDFED5C7AB4EEFC
:10489000E78AF1EE10FA08D50022C4F83823C4F8EC
:1048A0003C23012284F8362303E000224A4BC3F85C
:1048B0003823494CD4EDD07A38EE278A84EDCC8A5F
:1048C000DFF81CB118EE100AD847DFF81CA100224F
:1048D000444BD047DFF818910022444BC847DFF81B
:1048E0001481C04780B2A4F83403454E3070000AEA
:1048F0007070DFED448A0125029501959FED429A83
:104900008DED009A18EE903AD4F8442318EE101A60
:104910003E483F4FB8473F4F3870D4F83033C4F863
:1049200044333D4B1A782B490A705B784B70180260
:1049300000F470601043C4F84803284B984708EE11
:10494000100AC4F84C03D8470022264BD047002257
:10495000264BC847C04780B2A4F85003B070000A85
:10496000F070029501958DED009A18EE903AD4F80A
:10497000542318EE101A2948254DA8477870D4F80A
:104980004C33C4F8543326492648274B9847A3791B
:104990000BB16379ABB905B0BDEC048BBDE8F08F0A
:1049A000DFED227AB4EEE78AF1EE10FA04DB0022A2
:1049B000094BC3F83C237CE70022074BC3F83C2398
:1049C00077E70022A271627119481A4B9847E2E713
:1049D000282C40202C2C40202C224020A12E4000AE
:1049E000895D400000005940CD5A4000000024403D
:1049F000315E4000B5634000942B40200000C84267
:104A0000E42C402000002043000070C29C2B40207A
:104A100015464000BC2C4020842D4020F02C402026
:104A20009C2D402054264020710A40000000A042E6
:104A3000CC264020690940002DE9F0432DED028B82
:104A400087B0BB4B1878BB4A10705B78537040EA54
:104A5000032007EE900AF8EE677A17EE900AB64B3D
:104A60009847A9A3D3E90023B44CA0470022B44B34
:104A7000B44CA047B44B9847B44B93ED2D7A06EE57
:104A8000900AC6EE877AB24BC3EDD67A93F85C33C0
:104A900083B9AF4B93F85D33092B04D80133AC4A8B
:104AA00082F85D330DE0AA4B012283F85C23C3ED4D
:104AB000D87A06E0A64B93EDD87A77EEC77AC3EDA5
:104AC000D67AA34CD4F864539B4FD4F85803B84714
:104AD0009A4E8FA3D3E90023B047804689462846E3
:104AE000B8478DA3D3E90023B04702460B464046A2
:104AF0004946984EB047944B984708EE100AC4F8C0
:104B0000580394F83633002B5AD0F1EE087A78EE39
:104B1000677AF5EEC07AF1EE10FA00F1AC808C4CB9
:104B2000D4F83873844E17EE900AB0477CA3D3E9CB
:104B30000023DFF80882C047804689463846B047E0
:104B400002460B4640464946824EB0477E4B984748
:104B5000C4F83803D4EDCE7AF5EEC07AF1EE10FA4F
:104B600000F1A0807A4B93EDCE7AD3EDCF7AB4EEFC
:104B7000E77AF1EE10FA03D5D3F83C23C3F83823D3
:104B8000734B93EDCE7ADFED747AB4EEE77AF1EE03
:104B900010FA01DDC3EDCE7A6D4C94EDCE7AD4EDF2
:104BA000CF7A77EE677A17EE900A634B98475EA349
:104BB000D3E90023614EB047634B9847C4F84003E4
:104BC000DFED667A68EE277AFCEEE77ACDED057ABE
:104BD000BDF814305E4CA4F86833614A13701B0AA8
:104BE0005370544A002313705370029301230193AE
:104BF0005C4B00935C4B2A4618EE101A5B485C4DE8
:104C0000A8475C4B9870D4EDD67AB2EE0E7AF4EEEB
:104C1000C77AF1EE10FA40F3B58094ED057AB5EE5F
:104C2000C07AF1EE10FA41D4494B93ED057AB5EE16
:104C3000C07AF1EE10FA08DDD3ED056A9FED4E7AE9
:104C4000F4EEC76AF1EE10FA07D4414B93ED057A02
:104C5000B5EE407AF1EE10FA3AD13D4BB3F86A3333
:104C60001BB2112B2CDD0123394A82F86C33374AF1
:104C7000A2F8AE30A1E0B1EE047AB4EEC78AF1EE4C
:104C800010FA0CD517EE900AB84727A3D3E90023F2
:104C90002A4CA0472C4B984707EE900A3FE7DFEDE0
:104CA000377A3CE70022C4F838235BE7D4ED056A85
:104CB0009FED337AF4EEC76AF1EE10FACDDCB3E77C
:104CC000234AB2F86A3301331BB2A2F86A3374E0A4
:104CD0001F4B93F86C3393B11D4BB3F86A331BB27F
:104CE000002B07DD1A4AB2F86A33013B1BB2A2F867
:104CF0006A3362E00022164B83F86C235DE00022E9
:104D0000134BA3F86A2358E0964E0A4466664A3F5E
:104D10009A9999999999C93F9A9999999999E93F35
:104D20009A9999999999A93F9A9999999999B93F75
:104D30008C2D40202C2C4020895D4000315E4000AD
:104D40000000E03FC95A4000F56340009800402051
:104D50002C224020CD5A40000000FA440000C842F6
:104D6000982D4020000020C100000C42342B402030
:104D700015464000BC2C40200000484300000000C5
:104D8000000048C3244B93F86C3393B1224BB3F823
:104D90006A331BB2002B07DD1F4AB2F86A33013BAE
:104DA0001BB2A2F86A3308E000221B4B83F86C2385
:104DB00003E00022184BA3F86A23174B93F86C33D7
:104DC000ABB10222154B5A71134BC3EDD97A93F84C
:104DD0006D33012B0FD001330F4A82F86D330E4B28
:104DE0001B798BB907B0BDEC028BBDE8F0830022C4
:104DF0000A4B5A71E8E70A490A480B4B98470022C8
:104E0000054B83F86D23EAE70022034B1A7107482C
:104E1000074B9847E6E700BF2C224020BC2C4020DF
:104E2000982C402054264020710A40002C27402016
:104E300069094000000000002DE9F04F85B0CC4B1F
:104E400093F82C30002B00F0BE810023DFEDC95A0F
:104E5000C948C74950F8232007EE902AF8EEE77AB0
:104E600075EEA75A013391F82C20D2B29A42F1DCA8
:104E7000BF4B93F82C3063B1BD4A92F82C30DBB2B3
:104E800007EE903AF8EEE77AC5EEA75A002382F8CB
:104E90002C30B74B93F82D30002B00F09781002376
:104EA0009FEDB46AB548B24950F8232007EE902A26
:104EB000F8EEE77A36EE276A013391F82D20D2B268
:104EC0009A42F1DCAA4B93F82D3063B1A84A92F8CC
:104ED0002D30DBB207EE903AF8EEE77A86EE276ADD
:104EE000002382F82D30A24B93F82E30002B00F0D7
:104EF00070810023DFED9F6AA1489D4950F823206F
:104F000007EE902AF8EEE77A76EEA76A013391F879
:104F10002E20D2B29A42F1DC954B93F82E3063B139
:104F2000934A92F82E30DBB207EE903AF8EEE77A29
:104F3000C6EEA76A002382F82E308D4B93F82F30EF
:104F4000002B00F0498100239FED8A7A8D48884923
:104F500050F8232007EE902AF8EEE77A37EE277A0A
:104F6000013391F82F20D2B29A42F1DC804B93F8B2
:104F70002F3063B17E4A92F82F30DBB207EE903AC1
:104F8000F8EEE77A87EE277A002382F82F307E4BFF
:104F900093ED004AD3ED017AD3ED034A744C94EDBE
:104FA000DC5A27EE855A65EE843A35EE235AD4ED65
:104FB000DD3A64EEA33A35EE635A84EDDE5AD4F856
:104FC0007833C4F87433C4EDDC5AD4EDDF5A67EE9D
:104FD000A55A26EE045A75EE855A94EDE05A24EE51
:104FE000855A75EEC55AC4EDE15AD4F88433C4F835
:104FF000803384EDDF6A94EDE26A27EE866A66EE1E
:10500000845A36EE256AD4EDE35A64EEA55A36EE9C
:10501000656A84EDE46AD4F89033C4F88C33C4ED47
:10502000E26AD4EDE56A67EEA67A27EE044A77EEE7
:10503000847AD4EDE66A64EEA64A77EEE47AC4EDAB
:10504000E77AD4F89C33C4F8983384EDE57AD4F841
:105050007803DFF854B1D8474C4D3FA3D3E9002380
:10506000A847DFF848A10022494BD0470022494B0E
:10507000A847DFF83C91C8471FFA80F8A4F8A0833E
:10508000D4F89003D84736A3D3E90023A8470022D9
:105090004FF08043D04700223F4BA847C84787B214
:1050A000A4F8A273D4F88403D8472DA3D3E900232E
:1050B000A84700224FF08043D0470022364BA84734
:1050C000C84786B2A4F8A463D4F89C03D84724A3A5
:1050D000D3E90023A84700224FF08043D0470022A5
:1050E0002D4BA847C84780B2A4F8A6032B4B83F8E2
:1050F00000804FEA182883F801809F703F0ADF7014
:105100001E71360A5E719871000AD87194F8A8333E
:10511000092B64D00133164A82F8A833144CD4F812
:10512000AC53C4F8B053174B18681D4B98470EA3E7
:10513000D3E90023154EB0471A4B98470146C4F8EF
:10514000AC030123029301934FF0404300934FF0CF
:1051500080432FE0AFF30080EC51B81E85EB813F18
:10516000D5CC5A0A48FB0F3F07F0164850FC783F51
:105170002C22402000000000C02B4020702C40203A
:10518000C02D4020402D402098004020315E40003E
:1051900000407F400000494000408F40902D40205B
:1051A000655D4000F5634000895D4000CD5A4000D8
:1051B000B56340002A460E480E4CA0470E4BD870EF
:1051C00005B0BDE8F08FDFED0D5A51E69FED0B6A9B
:1051D00078E6DFED0A6A9FE69FED087AC6E60849A1
:1051E0000848094B9847002284F8A82396E700BF97
:1051F000C42C402015464000BC2C4020000000007C
:10520000AC2D402054264020710A400000000000D0
:105210002DE9F0472DED028B654B9847654B93F8D0
:10522000C732DBB20B2B00F2D780624B93F82833E6
:10523000012B00F0A581022B00F0A7815D4B93F8B4
:10524000203333B15B4A92F8C7320133DBB282F8C4
:10525000C732584BB3F9B21001EB41025200C3F808
:10526000B42393F8A830002B00F070820029C0F21C
:105270009281504BB3F9B230002B34DD4D4A92EDA0
:105280002B7AB2F8B62006EE902AF8EEE67A77EEA0
:10529000677A9FED496AF4EEC67AF1EE10FA22D5EC
:1052A000F5EEC07AF1EE10FA1DDDF8EE666A37EE23
:1052B000667AF3EE067A27EE277A3E4A82EDEE7A98
:1052C00092EDEE7A07EE903AF8EEE77AF4EEC77ACE
:1052D000F1EE10FA07DDD2EDEE7AFDEEE77A17EE89
:1052E000903AA2F8B230334CB4F9B23003EB430336
:1052F0005B00C4F8B433314B9847314B984794F86E
:10530000B430002B00F01282B4F9B230002BC0F29E
:105310007383B4F8B62007EE902AB8EEE77AD4ED9E
:105320002B7A77EEC77AC4EDEF7AD4EDEF7AF5EE0B
:10533000C07AF1EE10FA40F3B18194F81A33002BE1
:1053400040F06681012384F81A33D4F8B4331BB2D9
:10535000A4F81C33D4F8BC33C4F8C033B4F81C032D
:1053600000B2D4F8C083174D07EE900AF8EEE77A42
:1053700017EE900AA8470CA3D3E90023124EB047BA
:1053800006460F464046A84707A3D3E900230F4D22
:10539000A84702460B46304639460D4DA8470D4BEF
:1053A0009847C4F8C403D1E1333333333333FB3F7D
:1053B000394E40002C22402000003442792C40001D
:1053C000E5284000895D4000315E4000C95A400038
:1053D00085604000F5634000BD4B0022C3F8B42354
:1053E000012283F8C8220522BA4B1A71BA49BB4878
:1053F000BB4B9847B64AD2F8B433D2F8D8239B1A9D
:10540000002BB8BF5B42552B0DDDB14BD3F8B42355
:10541000D3F8D8339A42AE4AD2F8D833CCBF5533FA
:10542000553BC2F8B433AA4BD3F8B433002BC0F2C7
:105430009782A74B012283F8DC23D3F8B423C3F867
:10544000B423A34BD3F8B433002BC0F29382A04B08
:10545000D3F8B42341F265739A4204DD41F26672D7
:105460009B4BC3F8B4239A4B93F8DC33002B00F02A
:10547000868220229B4B5A63954CD4F8B42341F288
:1054800070719948994B984794F8DC33002B00F0E1
:105490007A82D4F8B423C4F8D8238D4B93EDD68AFE
:1054A00018EE100A924B98477FA3D3E90023914C42
:1054B000A04700B3864C8E4DF2EE047A68EE277A50
:1054C00017EE900AA8478C4E79A3D3E90023B04782
:1054D00079A3D3E90023B04706460F46D4F8240346
:1054E000A84702460B4630463946844DA847844BB0
:1054F0009847C4F82403764BD3F8B40307EE900A18
:10550000F8EEE77A17EE900A794B98476CA3D3E947
:105510000023794CA0477A4B984707EE900AB3EEE8
:10552000097AF4EEC77AF1EE10FA06DCBBEE097ADE
:10553000F4EEC77AF1EE10FA1ED5724B1B680A33EF
:10554000B3F57A7F80F026826E4A13606E4B1B683B
:105550003B2B06D900226C4B1A606C4A136801334E
:1055600013606A4B1B683B2B06D90022674B1A60FD
:10557000674A136801331360BDEC028BBDE8F08706
:10558000644A534BC3F8B42334E74FF4E162504B01
:10559000C3F8B4232EE74E4BB3F8BA2007EE902A97
:1055A000D3ED2B6AB8EEE77A37EE667A9FED5A6A4A
:1055B000B4EEC67AF1EE10FA7FF55BAEB5EEC07AC6
:1055C000F1EE10FA7FF755AEF8EE677A77EEE67AED
:1055D000B3EE067A67EE877AC3EDEE7A93EDEE7A54
:1055E00007EE901AF8EEE77AB1EE477AF4EEC77A52
:1055F000F1EE10FA7FF53DAE1A46D3EDEE7AF1EEFC
:10560000677AFDEEE77A17EE903AA2F8B23030E60C
:105610002F4BD3F8BC03364B98472BA3D3E9002379
:10562000344CA047002834D0294CB4F81C6336B25F
:10563000D4F8BC03D4F8C073D4F8C4A32C4DA84745
:10564000804689463846A847344F1FA3D3E9002334
:10565000B84702460B4640464946DFF8CC80C04773
:105660008046894630462E4B984702460B464046B8
:105670004946214EB047804689465046A8470246D3
:105680000B4640464946B847264B9847C4F8B403F2
:105690005CE000220E4BC3F8B42357E000220C4B11
:1056A000C3F8B42352E000BFCDCCCCCCCCCCEC3F83
:1056B000FCA9F1D24D62503F793A57941282853F4E
:1056C000065A55555555C53F333333333333FB3FB6
:1056D0002C224020BC2C4020642B4020542640200B
:1056E000710A4000000E0E407C264020210E400032
:1056F000895D400051634000315E4000CD5A40005A
:10570000F5634000482C40206C2C40206C2D40203C
:10571000BC2B4020F8F8FFFF00003442C95A40007B
:10572000655D40006563400085604000A24B93F8D2
:10573000B8302BB1A04BB3F9B230002B40F36281EB
:105740009D4B002283F81A2383F8C8239A4BD3ED8C
:10575000D67AB3EE0F7AF4EEC77AF1EE10FAC0F211
:10576000D68093F8C9331BB90122934B83F8C92320
:10577000B3EE0F8A37EEC88A8F4C84EDF38A8F4DD3
:10578000F2EE047A68EE277A17EE900AA84786A30D
:10579000D3E900238A4EB04706460F46D4F8D0031B
:1057A000A84702460B4630463946864DA847864BE9
:1057B000984707EE900AC4F8D0039FED847AF4EE80
:1057C000C77AF1EE10FA77DD234683EDF47A7A4B4F
:1057D000D3F8B433002B7ADD774BD3F8B4237C496C
:1057E000B1F9BE0007EE900AF8EEE77A93EDF47A8D
:1057F00067EE877AB1F9C01007EE101AB8EEC77AD3
:1058000027EE088A77EE887AFDEEE77A17EE901A8F
:10581000521AC3F8B423684BD3F8B423C3F8D42383
:10582000E8E5654BD3F8BC03644B984760A3D3E924
:105830000023684CA047002834D05F4CB4F81C63A8
:1058400036B2D4F8BC03D4F8C073D4F8C4A35B4D0B
:10585000A847804689463846A8475F4F54A3D3E9F6
:105860000023B84702460B4640464946DFF884818C
:10587000C047804689463046584B984702460B46FB
:10588000404649464E4EB047804689465046A84756
:1058900002460B4640464946B847514B9847C4F824
:1058A000B40353E70022444BC3F8B4234EE700226D
:1058B000414BC3F8B42349E79FED4A7AF4EEC77A27
:1058C000F1EE10FA83D53C4B83EDF47A7FE73A4A48
:1058D000D2F8B4333E49B1F9BE0007EE900AF8EEB3
:1058E000E77A92EDF47A27EE877AB1F9C01007EEE5
:1058F000901AF8EEE77A67EE887A77EE277AFDEE6F
:10590000E77A17EE901A1944C2F8B41383E72A4BCA
:1059100093F8C933F3B1284BD3F8B423D3F8D43375
:10592000002AB8BF5242002BB8BF5B429A4205DD45
:10593000214BD3F8D423C3F8B4235BE51E4BD3F833
:10594000B423C3F8D423002283F8C9230022C3F868
:10595000D0234FE5184BD3F8B423C3F8D42349E53B
:10596000154B002283F8DC23D3F8B4235242C3F84A
:10597000B42366E50022104BC3F8B42367E5202268
:10598000194B1A6378E50C4AD2F8B4335B42C2F87B
:10599000D83382E50022154B1A60154A136801338B
:1059A0001360D3E5AFF30080FCA9F1D24D62503F04
:1059B000333333333333FB3F2C224020895D4000A7
:1059C000315E4000CD5A4000F563400000007A444B
:1059D0009800402051634000C95A4000655D400076
:1059E0006563400000007AC4000E0E40482C402041
:1059F0006C2C4020856040002B4B93F8B830002B76
:105A00003FF49EAE284BB3F8BA2007EE902AF8EE8A
:105A1000E77A93ED2B7A77EEC77AC3EDEF7AD3ED81
:105A2000EF7AF5EEC07AF1EE10FA7FF740AF93F817
:105A3000C833002B7FF4F5AE1B4C012384F8C83328
:105A4000D4F8B4331BB2A4F81C33D4F8BC33C4F874
:105A5000C033B4F81C3318B2D4F8C083134D07EE2A
:105A6000900AF8EEE77A17EE900AA8470CA3D3E95C
:105A700000230F4EB04706460F464046A84708A3EE
:105A8000D3E900230B4DA84702460B463046394662
:105A9000094DA847094B9847C4F8C40356E600BF10
:105AA000333333333333FB3F2C224020895D4000B6
:105AB000315E4000C95A400085604000F5634000F7
:105AC00081F0004102E000BF83F0004330B54FEAAF
:105AD00041044FEA430594EA050F08BF90EA020F1C
