:100000000C9458000C9475000C9475000C947500B9
:100010000C9475000C9475000C9475000C9475008C
:100020000C9475000C9475000C9475000C9475007C
:100030000C9475000C9475000C9475000C9475006C
:100040000C9475000C9475000C94A1210C9475000F
:100050000C9475000C9475000C9475000C9475004C
:100060000C9475000C9475000C9475000C9475003C
:100070000C94FD240C9475000C9475000C94750080
:100080000C9475000C9475000C9475000C9475001C
:100090000C9475006F068206A006BE06D106EF0618
:1000A0000D077907E507F007960834094009490963
:1000B00011241FBECFEFD8E0DEBFCDBF11E0A0E01E
:1000C000B1E0EEE2F3E502C005900D92A232B10775
:1000D000D9F724E0A2E2B1E001C01D92A138B20735
:1000E000E1F70E9439200C9495290C940000ECE76C
:1000F000F0E0808180648083EAE7F0E080818768B7
:1001000080830895ECE7F0E09081987F8770892BD9
:100110008083EAE7F0E0808180648083808184FFCF
:10012000FDCF209178008091790090E0982F88276A
:1001300088279F72822B0895DF92EF92FF920F9390
:100140001F93CF93DF93E62EF12C1E141F04ACF403
:10015000D82EC0E0D0E000E010E08D2D0E9482009B
:10016000080F191F8FE99FE00197F1F700C0000009
:100170002196CE15DF0589F702C000E010E0C80126
:10018000B7010E944329CB01DF91CF911F910F91BD
:10019000FF90EF90DF900895EF92FF920F931F93DF
:1001A000CF93DF938C0181E08093D8001092DB0025
:1001B00090E06DEE70E04FEE50E0CEEED0E0A4EFB8
:1001C000B0E00F2EF0EFEF2EF12CF02D292F22951D
:1001D000207FFB012083FA01108218821D921D925C
:1001E0001D921C921397F7011082118212821382C2
:1001F0009F5F9F3059F70A3F110511F13CF4043617
:10020000110591F10D37110529F138C0043FF1E0D6
:100210001F0761F0083E134089F51092E2008CE060
:100220008093E30086E38093E40031C082E0809312
:10023000E2008CE08093E30087E38093E40027C032
:1002400086E08093E2008CE08093E30087E3809374
:10025000E4001DC08EE08093E2008CE08093E30018
:1002600087E38093E40013C082E18093E2008CE096
:100270008093E30087E38093E40009C08EE08093DD
:10028000E2008CE08093E30087E38093E40080EB5E
:100290008093DB00E8EDF0E08081826080838091D4
:1002A000D90082FD0DC080E197E2E9EDF0E025E3A1
:1002B0002A95F1F70000208122FD02C00197B9F7CD
:1002C0008091D90082FB882780F9DF91CF911F911F
:1002D0000F91FF90EF900895CF93FC01C091ED0036
:1002E0002091DC003091DD00408181E090E0042E1F
:1002F00002C0880F991F0A94E2F782239323892B67
:1003000009F0C3C04295407F4093ED00818588236A
:1003100009F451C081819281A381B481880F991F12
:10032000AA1FBB1F880F991FAA1FBB1F880F991FE9
:10033000AA1FBB1F2685822B438550E0440F551F03
:10034000440F551F052E000C660B770B842B952B45
:10035000A62BB72B8093F0009093F100A093F200AE
:10036000B093F30085819681A781B085880F991F8E
:10037000AA1FBB1F880F991FAA1FBB1F880F991F99
:10038000AA1FBB1F2285822B448550E0440F551FB6
:10039000440F551F052E000C660B770B842B952BF5
:1003A000A62BB72B8093F4009093F500A093F60052
:1003B000B093F7004AC081819281A381B481072E56
:1003C00075E1880F991FAA1FBB1F7A95D1F7702D71
:1003D0002685822B438550E0440F551F440F551F3F
:1003E000052E000C660B770B842B952BA62BB72BB9
:1003F0008093F0009093F100A093F200B093F3008B
:1004000085819681A781B085072E75E1880F991F98
:10041000AA1FBB1F7A95D1F7702D2285822B4485A8
:1004200050E0440F551F440F551F052E000C660B5E
:10043000770B842B952BA62BB72B8093F4009093EE
:10044000F500A093F600B093F700AEEDB0E02D916B
:100450003C91119781E090E0008002C0880F991FC5
:100460000A94E2F7822B932B11969C938E938185AD
:1004700020E1829FC001112495859068892B80938B
:10048000EF00C093ED0081E001C080E0CF910895BE
:100490001F93CF93DF93DC01F8941091ED0020912E
:1004A000DC003091DD0081E090E0062E02C0880F74
:1004B000991F0A94E2F782239323892B19F07894E9
:1004C00080E065C06295607F6093ED0014968C912A
:1004D000149781FF1AC04D915D916D917C91139796
:1004E000440F551F661F771F440F551F661F771F48
:1004F000440F551F661F771F4093F0005093F10083
:100500006093F2007093F30016C04D915D916D9170
:100510007C911397032E35E1440F551F661F771FFB
:100520003A95D1F7302D4093F0005093F10060934D
:10053000F2007093F30015968C911597882389F03B
:10054000FD01369640E050E0CAEFD0E091919883EB
:100550004F5F5F4F15962C91159730E04217530768
:10056000ACF31092EE0014968C91149781FF06C0A4
:1005700015968C9180658093EF0005C015968C913F
:1005800080648093EF001093ED00789481E0DF9118
:10059000CF911F9108958F92AF92CF92EF92FF92D9
:1005A0000F931F93CF93DF93CDB7DEB7FC0160832A
:1005B0002183328343835483E582F6820783108745
:1005C000C186A28687868C8585878D8583878E8563
:1005D00084878F858687DF91CF911F910F91FF9040
:1005E000EF90CF90AF908F900895EF920F93DC0132
:1005F0004D935D936D937C93139714968C91149700
:1006000020FB81F9E0FA80F914968C9314971596E3
:100610000C931597002371F0FD0136960150202FA1
:1006200030E0295F3F4FCD01820F931F1192E817F1
:10063000F907E1F70F91EF900895229A239A6A98AB
:100640007298279A0895229A29E030E094E085B1C3
:10065000892785B94FEF51EE84E0415050408040EA
:10066000E1F700C000002150310989F72A98089568
:100670002CB130E0A90102C0559547958A95E2F763
:10068000CA018170089582E00E943803882341F0F6
:1006900080912D01811104C081E080932D01089586
:1006A00082E00E943803811106C080912D018130C3
:1006B00011F410922D01089586E00E9438038823DA
:1006C00041F0809101018F3F21F481E0809301018D
:1006D0000CC086E00E943803811107C0809101019F
:1006E000813019F48FEF8093010185E00E94380377
:1006F000882341F0809100018F3F21F481E08093B5
:100700000001089585E00E943803811107C080919F
:100710000001813019F48FEF809300010895CF928A
:10072000DF92EF92FF9220E030E040EA50E40E9436
:10073000D62820E030E040E85AE30E94D6282DEC8D
:100740003CEC44E951E40E94D62820E030E042E845
:1007500052E40E94772720E03AEF4FE757E40E94E7
:10076000D6286B017C0120E03AEF4FE757E40E9466
:10077000D12818164CF40F2EC12CFAEFDF2EFFE70C
:10078000EF2EF7E4FF2EF02DC701B6010E94F027EF
:10079000CB01FF90EF90DF90CF900895CF92DF9242
:1007A000EF92FF9220E030E040EA50E40E94D62829
:1007B00020E030E040E85AE30E94D62820E030E014
:1007C0004AE754E40E94D6286B017C016091020143
:1007D0007091030180E090E00E941F289B01AC0112
:1007E000C701B6010E94052723E333E343E951E43F
:1007F0000E94772720E030E044E352E40E9477270C
:1008000020E03AEF4FE757E40E94D6286B017C01C5
:1008100020E03EEF4FE757E40E94D12818169CF0E5
:1008200020E030E040E85FE3C701B6010E94722794
:10083000882394F40F2EC12CD12CF0E8EF2EFFE387
:10084000FF2EF02D09C00F2EC12CFEEFDF2EFFE78B
:10085000EF2EF7E4FF2EF02DC701B6010E94F0271E
:10086000CB01FF90EF90DF90CF900895CF92DF9271
:10087000EF92FF9263E087E00E949C00BC0180E061
:1008800090E00E941F280E948F0390933101809373
:100890003001009739F481E090E09093310180932A
:1008A000300108C0019631F48EEF9FEF9093310133
:1008B00080933001609130017091310180E090E0CF
:1008C0000E941F282AE037ED43E25CE30E94D6280D
:1008D0006B017C0160912E0170912F0180E090E00E
:1008E0000E941F2824EA30E74DE75FE30E94D628E4
:1008F0009B01AC01C701B6010E9406270E94F027A8
:10090000609330017093310160932E0170932F0139
:10091000E7EDF1E066837783FF90EF90DF90CF9073
:10092000089563E083E00E949C00909334018093DB
:100930003301BC0180E090E00E941F280E94CE039A
:100940008093330190933401E7EDF1E08087918744
:1009500008958F929F92AF92BF92CF92DF92EF92C3
:10096000FF92CF93DF936B017C01413009F08BC084
:10097000C0910B01D0910C01BE010D2E000C880B13
:10098000990B0E9421284B015C01A70196010E944E
:10099000D12888239CF060910D0170910E01072EE3
:1009A000000C880B990B0E9421289B01AC01C70108
:1009B000B6010E94D12888230CF011C1A70196012D
:1009C000C501B4010E94722788231CF5A50194017A
:1009D000C701B6010E9405276B017C0160911A01D5
:1009E00070911B016C1B7D0B072E000C880B990B63
:1009F0000E9421289B01AC01C701B6010E94772704
:100A000020E030E04AE754E40E94D6286B017C01E4
:100A1000C8C0C0910D01D0910E01BE010D2E000C79
:100A2000880B990B0E9421284B015C019B01AC01B2
:100A3000C701B6010E94722788230CF0B2C0A5013D
:100A40009401C701B6010E9405276B017C018091CA
:100A50001C0190911D01BE01681B790B072E000C33
:100A6000880B990B0E9421289B01AC01C701B6019C
:100A70000E94772720E030E04AE754E40E94D6281D
:100A80006B017C018EC0423009F08BC0C091070120
:100A9000D0910801BE010D2E000C880B990B0E940D
:100AA00021284B015C019B01AC01C701B6010E94EA
:100AB000722718169CF06091090170910A01072EA7
:100AC000000C880B990B0E9421289B01AC01C701E7
:100AD000B6010E94D12888230CF085C0A50194019D
:100AE000C701B6010E94D12818161CF5A501940172
:100AF000C701B6010E9405276B017C0160911401BA
:100B0000709115016C1B7D0B072E000C880B990B47
:100B10000E9421289B01AC01C701B6010E947727E2
:100B200020E030E04AE754E40E94D6286B017C01C3
:100B300038C0C0910901D0910A01BE010D2E000CF0
:100B4000880B990B0E9421284B015C019B01AC0191
:100B5000C701B6010E94722788231CF5A5019401E4
:100B6000C701B6010E9405276B017C018091160127
:100B700090911701BE01681B790B072E000C880BA2
:100B8000990B0E9421289B01AC01C701B6010E946C
:100B9000772720E030E04AE754E40E94D6286B0132
:100BA0007C0120E030EC49E754E4C701B6010E9423
:100BB000D1281816E4F020E030EC49E754ECC701E6
:100BC000B6010E9472278823DCF40F2EC12CF0ECB2
:100BD000DF2EF9E7EF2EF4ECFF2EF02D11C0C12C23
:100BE000D12C76010DC0C12CD12C760109C00F2E5D
:100BF000C12CF0ECDF2EF9E7EF2EF4E4FF2EF02D00
:100C0000C701B6010E94E927CB01DF91CF91FF9088
:100C1000EF90DF90CF90BF90AF909F908F9008950E
:100C2000CF9386E190E00E948029813009F046C090
:100C300088E090E00E948029C82F89E090E00E941F
:100C400080292C2F30E0382B30930E0120930D019A
:100C50008AE090E00E948029C82F8BE090E00E94FB
:100C600080292C2F30E0382B30930C0120930B017E
:100C700082E190E00E948029C82F83E190E00E94E9
:100C800080292C2F30E0382B30930A012093090162
:100C900084E190E00E948029C82F85E190E00E94C5
:100CA00080292C2F30E0382B309308012093070146
:100CB00087E190E00E94802980930F01CF910895F1
:100CC000CF93E0915A038E2F90E0FC013197EE30E4
:100CD000F10508F0E6C2E65BFF4F0C945729C1E02E
:100CE000C093DF0367E089ED93E00E944802C09360
:100CF0009E0165E080E00E949C009093A00180939B
:100D00009F01CFC281E08093DF0367E089ED93E02C
:100D10000E94480265E080E00E949C009093AC0134
:100D20008093AB01843F21E092072CF49093A401BF
:100D30008093A301B6C29093A2018093A101B1C296
:100D400081E08093DF0367E089ED93E00E94480231
:100D500065E080E00E949C009093AC018093AB0121
:100D6000853F41E094072CF09093A2018093A1016C
:100D700098C29093A4018093A30193C2C1E0C09351
:100D8000DF0367E089ED93E00E944802C0939E0173
:100D900065E084E00E949C009093A6018093A501E9
:100DA00080C281E08093DF0367E089ED93E00E94D9
:100DB000480265E084E00E949C009093AC0180931F
:100DC000AB01843F21E092072CF49093AA01809319
:100DD000A90167C29093A8018093A70162C281E034
:100DE0008093DF0367E089ED93E00E94480265E0AD
:100DF00084E00E949C009093AC018093AB01853FFE
:100E000041E094072CF09093A8018093A70149C278
:100E10009093AA018093A90144C280919F0190916F
:100E2000A0019C012F5531402B32314008F04CC0BD
:100E30002091A1013091A2012F3E42E034070CF431
:100E400043C04091A3015091A4014A3F5105E4F5EC
:100E500041155105C9F15093170140931601909324
:100E6000130180931201309315012093140161E066
:100E700081E090E00E948829609116018CE090E06A
:100E80000E948829609117018DE090E00E948829D6
:100E90006091120180E190E00E9488296091130125
:100EA00081E190E00E948829609114018EE090E039
:100EB0000E948829609115018FE090E00E948829A6
:100EC00082E08093DF0303C083E08093DF0367E069
:100ED00089ED93E00E9448021092A4011092A301B0
:100EE0001092A00110929F011092A2011092A101F4
:100EF000D8C18091A5019091A6019C012F55314048
:100F00002B32314008F04CC02091A7013091A8014C
:100F10002F3E42E034070CF443C04091A9015091A8
:100F2000AA014A3F5105E4F541155105C9F1509315
:100F30001D0140931C019093190180931801309377
:100F40001B0120931A0161E080E090E00E94882953
:100F500060911C0182E090E00E94882960911D014F
:100F600083E090E00E9488296091180186E090E07B
:100F70000E9488296091190187E090E00E948829E9
:100F800060911A0184E090E00E94882960911B0121
:100F900085E090E00E94882982E08093DF0303C00F
:100FA00083E08093DF0367E089ED93E00E944802CD
:100FB0001092AA011092A9011092A6011092A50107
:100FC0001092A8011092A7016CC181E08093DF0309
:100FD00067E089ED93E00E94480210929E0161C192
:100FE00080911001909111010A96909311018093C4
:100FF000100180910F018F5F80930F01833348F0C0
:1010000084EF91E0909311018093100182E380932B
:101010000F01E9EDF3E081E0868380910F01878382
:1010200067E0CF010E94480260910F0187E190E0E4
:101030000E948829809110019091110199230CF44C
:101040000196959587956091120170911301681B27
:10105000790B70930A016093090182E190E00E948C
:10106000882960910A0183E190E00E9488296091BB
:10107000100170911101772314F46F5F7F4F759504
:1010800067958091120190911301680F791F7093F9
:1010900008016093070184E190E00E948829609133
:1010A000080185E190E00E948829809110019091CB
:1010B000110199230CF4019695958795609118017B
:1010C00070911901681B790B70930E0160930D01EB
:1010D00088E090E00E94882960910E0189E090E00C
:1010E0000E9488296091100170911101772314F4F6
:1010F0006F5F7F4F759567958091180190911901E9
:10110000680F791F70930C0160930B018AE090E0E7
:101110000E94882960910C018BE090E00E94882950
:1011200061E086E190E00E948829BBC080910F01B8
:10113000803168F020911001309111012A5031095D
:101140003093110120931001815080930F01E9ED3C
:10115000F3E081E0868380910F01878367E0CF0110
:101160000E94480260910F0187E190E00E94882967
:10117000809110019091110199230CF4019695959D
:1011800087956091120170911301681B790B709320
:101190000A016093090182E190E00E948829609130
:1011A0000A0183E190E00E9488296091100170910A
:1011B0001101772314F46F5F7F4F759567958091C8
:1011C000120190911301680F791F709308016093C9
:1011D000070184E190E00E9488296091080185E17F
:1011E00090E00E948829809110019091110199232B
:1011F0000CF40196959587956091180170911901ED
:10120000681B790B70930E0160930D0188E090E0EC
:101210000E94882960910E0189E090E00E9488294F
:101220006091100170911101772314F46F5F7F4F6B
:10123000759567958091180190911901680F791F34
:1012400070930C0160930B018AE090E00E94882962
:1012500060910C018BE090E00E94882961E086E1BA
:1012600090E00E9488291DC0E9EDF3E081E08683CB
:1012700080910F01878367E0CF010E94480211C06F
:1012800082E08093200162E088E190E00E9488295A
:1012900008C083E08093200163E088E190E00E9431
:1012A0008829CF9108951F93CF93DF932DEC3CECC9
:1012B0004CE45FE36091BB017091BC018091BD0182
:1012C0009091BE010E94052720E030E04AEF53E4F0
:1012D0000E94D6280E94F027D62F6093B60120E006
:1012E00030E048EC52E46091B7017091B801809110
:1012F000B9019091BA010E94D6280E94F027C62F0A
:101300006093B50120E030E048EC52E46091C50103
:101310007091C6018091C7019091C8010E94D628A2
:101320000E94F027162F6093C00120E030E048ECC7
:1013300052E46091C1017091C2018091C30190910A
:10134000C4010E94D6280E94F0276093BF01E7EFF6
:10135000F1E01683D7836087C187DF91CF911F911A
:10136000089563E00E949C00BC01990F880B990BC3
:101370000E94212820E030E040E85AE30E94D6286D
:10138000089563E00E949C00BC01990F880B990BA3
:101390000E94212820E030E040EA55E40E947727AF
:1013A0002DEC3CEC4CE45FE30E94062708958F92FD
:1013B000AF92CF92EF92FF920F931F93CF93DF9351
:1013C0001F921F921F92D1E0DF936894882482F8C5
:1013D000AA24A394CC24C394EE24EA94F12C00E034
:1013E00010E129E932E040E050E060E08CE892E072
:1013F0000E94CB021F921F921F92C7E0CF93689466
:10140000882481F8EE24EA941AEFF12E0FEF1FE101
:1014100021E132E040E050E061E083E493E00E94AB
:10142000CB021F921F921F92DF931CEFE12EFF242D
:10143000FA940FEF1FE121E131E040E050E062E07B
:1014400083E393E00E94CB021F921F921F92DF93CF
:101450006894882482F810EFE12EFF24FA940FEFAD
:101460001FE126E030E041E050E063E084EA93E0F1
:101470000E94CB021F921F921F92CF9388248394C5
:10148000EE24EA94FE2C0FEF1FE125E030E240E06D
:1014900050E064E083E293E00E94CB021F921F922F
:1014A0001F92CF931AEFE12E1EEFF12E0FEF1FE1E7
:1014B00023E033E040E050E06DE089EF93E00E94EC
:1014C000CB028DB79EB748960FB6F8949EBF0FBE5D
:1014D0008DBFDF91CF911F910F91FF90EF90CF9033
:1014E000AF908F900895EF920F93E12C01E021E0EF
:1014F00049E952E060E070E084E693E00E94F50282
:1015000021E049E953E060E070E089E094E00E9466
:10151000F50221E049E951E060E070E087E092E007
:101520000E94F50221E049E950E060E070E083E5C7
:1015300094E00E94F50207E021E041E152E060E022
:1015400070E087EE91E00E94F50221E041E153E076
:1015500060E070E083E694E00E94F50201E021E0A3
:1015600041E151E060E070E084EB93E00E94F5021D
:1015700021E042E151E060E070E089EE93E00E94FA
:10158000F50221E046E050E061E070E084E593E0A0
:101590000E94F50221E047E050E061E070E083E462
:1015A00094E00E94F50221E048E050E061E070E044
:1015B0008AEE92E00E94F50221E049E050E061E00D
:1015C00070E08CE592E00E94F50207E021E045E042
:1015D00050E260E070E08EE093E00E94F50205E0EA
:1015E00021E041E157E060E070E084EC93E00E948C
:1015F000F50207E021E043E053E060E070E089E1BC
:1016000094E00E94F50201E021E048E952E060E048
:1016100070E08CE692E00E94F50208E021E046E0EE
:1016200052E060E070E087E192E00E94F50203E0A2
:1016300021E041E050E160E070E086EB92E00E9442
:10164000F50221E042E050E160E070E084E993E0DF
:101650000E94F50201E021E049E950E160E070E01C
:1016600089E294E00E94F50203E021E045E050E1C8
:1016700060E070E08CE392E00E94F50204E021E07B
:1016800043E050E160E070E087ED91E00E94F502F8
:1016900021E044E050E160E070E087EF91E00E94DB
:1016A000F50221E047E058E064E070E08CE792E06A
:1016B0000E94F50202E021E049E150E160E070E0C3
:1016C00089ED93E00E94F50208E021E041E250E15B
:1016D00060E070E084E793E00E94F50206E021E01C
:1016E00043E250E160E070E08EEF92E00E94F5028C
:1016F00005E021E044E250E160E070E08CE492E03B
:101700000E94F50201E021E048E950E160E070E06C
:1017100086EA92E00E94F5020F91EF9008958230E0
:1017200071F028F48823A9F0813039F010C084309A
:1017300051F038F0853049F00AC082E00BC083E0F8
:1017400009C084E007C085E005C086E003C080E0F2
:1017500001C081E0860F08958091D403811103C0F8
:101760001092410108958091D503811104C0109217
:10177000410181E008958091D603811104C0109247
:10178000410182E008958091D703811104C0109235
:10179000410183E008958091D803811104C0109223
:1017A000410184E0089581E08093410183E608953A
:1017B00029E030E0A90141505109FA01E75CFB4FF3
:1017C0009081F901E75CFB4F9083FA01EE0FFF1F58
:1017D000E95DFD4F60817181220F331FF901E95DE1
:1017E000FD4F718360839A014F3F5F4F19F78093DC
:1017F000390480912A0190912B01909328028093C3
:1018000027020895CF9363E083E00E949C00BC010F
:10181000990F880B990B0E94212820E030E040EAC4
:1018200050E40E94D62820E030E040E85AE30E94CD
:10183000D62820E030E04AE754E40E94D6280E94EF
:10184000F02770930301609302016C5D7540693C61
:101850007105C8F081E0809332018BE896E09093A7
:10186000030180930201C0E8C09373010E94AC0B96
:1018700080937101E0917101F0E0EC52FC4FC08364
:1018800080E80E94D80BCF91089580913301909108
:10189000340180342FE9920758F080916C019091C7
:1018A0006D010196893522E0920708F05AC04BC0BD
:1018B00080339E4878F180916C0190916D01009782
:1018C00069F0019790936D0180936C0180916A019A
:1018D00090916B018935924070F439C080916A0112
:1018E00090916B01019690936B0180936A01893509
:1018F000924008F4CBC088E592E090936B0180930E
:101900006A0180916C0190916D018F36910508F408
:1019100064C024C080916C0190916D01009731F0FA
:10192000019790936D0180936C0111C080916A01C1
:1019300090916B01009709F4A9C0019790936B01F6
:1019400080936A01A3C090936D0180936C01809194
:101950006C0190916D018F369105C0F18739910529
:1019600030F086E990E090936D0180936C01809156
:101970007301811117C081E0809372010E94AC0B4A
:10198000809371018091410181118BC0E0917101BF
:10199000F0E0EC52FC4F8FE78083809373010E944C
:1019A000D80B089580917201811108C08FE70E94C1
:1019B000D80B81E08093720110920601E0917101D1
:1019C000F0E0EC52FC4F8FE78083089520916A018C
:1019D00030916B012F36310598F18739910530F040
:1019E00086E990E090936D0180936C018091730182
:1019F000811114C00E94AC0B809371018091410150
:101A000081114FC0E0917101F0E0EC52FC4F8EE784
:101A10008083809373010E94D80B08958091060102
:101A2000811106C08EE70E94D80B81E080930601E9
:101A3000E0917101F0E0EC52FC4F8EE78083089555
:101A400040917301442369F1892B41F0E0917101C8
:101A5000F0E0EC52FC4F8FE780830895232B41F098
:101A6000E0917101F0E0EC52FC4F8EE78083089525
:101A7000109273011092720181E080930601E0914F
:101A80007101F0E0EC52FC4F1082089520916A0140
:101A900030916B012F36310508F0A8CF80E090E03F
:101AA000CFCF0895809130019091310180342CEE98
:101AB0009207A0F08091680190916901019690933E
:101AC0006901809368018739910508F4E8C186E9C6
:101AD00090E09093690180936801B9C0803528EE49
:101AE000920780F18091680190916901009769F0F7
:101AF00001979093690180936801809166019091AC
:101B000067018739910578F492C020916601309180
:101B100067012F5F3F4F309367012093660127399C
:101B2000310508F4B3C186E990E090936701809392
:101B3000660180916801909169018C34910508F4E7
:101B4000C5C07CC0813321EB9207A0F48091640171
:101B50009091650101968739910528F4909365016C
:101B60008093640164C086E990E09093650180935E
:101B700064015DC08132954B18F5809164019091AC
:101B80006501009731F0019790936501809364019E
:101B900009C0809162019091630101969093630165
:101BA0008093620180916201909163018739910570
:101BB000F0F186E990E0909363018093620137C071
:101BC0008091680190916901009731F0019790939D
:101BD0006901809368012BC02091660130916701F3
:101BE0002115310539F021503109309367012093D7
:101BF00066015CC0209164013091650121153105B9
:101C000039F02150310930936501209364014EC0B1
:101C100020916201309163012115310509F446C01C
:101C20002150310930936301209362013FC08091BC
:101C30006801909169018C349105C0F18739910553
:101C400030F086E990E0909369018093680180917B
:101C50007001811117C081E080936F010E94AC0B6D
:101C600080936E018091410181111EC1E0916E014E
:101C7000F0E0EC52FC4F8BE78083809370010E9470
:101C8000D80B089580916F01811108C08BE70E94E5
:101C9000D80B81E080936F0110920501E0916E01F5
:101CA000F0E0EC52FC4F8BE78083089520916601B1
:101CB000309167012C343105A0F12739310530F01E
:101CC00086E990E0909367018093660180917001AE
:101CD000811115C00E94AC0B80936E01809141016F
:101CE000811107C0E0916E01F0E0EC52FC4F89E7F2
:101CF000808389E7809370010E94D80B08958091BA
:101D00000501811106C089E70E94D80B81E080930C
:101D10000501E0916E01F0E0EC52FC4F89E7808311
:101D2000089540916401509165014C345105C0F112
:101D30004739510530F086E990E090936501809332
:101D4000640180917001811117C081E080936F015F
:101D50000E94AC0B80936E01809141018111A4C05F
:101D6000E0916E01F0E0EC52FC4F8CE780838093B1
:101D700070010E94D80B089580916F01811108C0F5
:101D80008CE70E94D80B81E080936F0110920501CF
:101D9000E0916E01F0E0EC52FC4F8CE780830895F7
:101DA00060916201709163016C347105A0F1673933
:101DB000710530F086E990E09093630180936201B1
:101DC00080917001811115C00E94AC0B80936E014F
:101DD00080914101811107C0E0916E01F0E0EC5269
:101DE000FC4F8AE780838AE7809370010E94D80BBA
:101DF000089580910501811106C08AE70E94D80BE1
:101E000081E080930501E0916E01F0E0EC52FC4F1F
:101E10008AE780830895E0917001EE2309F444C0BD
:101E2000892B41F0E0916E01F0E0EC52FC4F8BE722
:101E300080830895232B41F0E0916E01F0E0EC5295
:101E4000FC4F89E780830895452B81F4672BB1F41B
:101E50001092700110926F0181E080930501E09172
:101E60006E01F0E0EC52FC4F10820895E0916E019B
:101E7000F0E0EC52FC4F8CE780830895E0916E0116
:101E8000F0E0EC52FC4F8AE78083089520916601D0
:101E9000309167012C34310508F443CF17CF8C34CF
:101EA000910508F403CFD3CE0895CF9380E090E05E
:101EB0000E948029813081F582E090E00E94802993
:101EC000C82F83E090E00E9480292C2F30E0382B2F
:101ED00030931D0120931C0184E090E00E94802932
:101EE000C82F85E090E00E9480292C2F30E0382B0D
:101EF00030931B0120931A0186E090E00E94802914
:101F0000C82F87E090E00E9480292C2F30E0382BEA
:101F1000309319012093180181E090E00E948029FC
:101F2000813081F58CE090E00E948029C82F8DE0FF
:101F300090E00E9480292C2F30E0382B309317013D
:101F4000209316018EE090E00E948029C82F8FE038
:101F500090E00E9480292C2F30E0382B309315011F
:101F60002093140180E190E00E948029C82F81E134
:101F700090E00E9480292C2F30E0382B3093130101
:101F80002093120180911801909119018F55914071
:101F90008B32914070F480911A0190911B018F3E19
:101FA00092403CF080911C0190911D018A3F910567
:101FB00094F00E94AC0B80935C01809141018111EF
:101FC00007C0E0915C01F0E0EC52FC4F82E88083B6
:101FD00082E80E94D80B80911201909113018F55D5
:101FE00091408B32914070F48091140190911501D1
:101FF0008F3E92403CF080911601909117018A3FEC
:10200000910594F00E94AC0B80935E018091410198
:10201000811107C0E0915E01F0E0EC52FC4F81E8D5
:10202000808381E80E94D80BCF9108954F925F92F0
:102030006F927F928F929F92AF92BF92CF92DF92D8
:10204000EF92FF92CF93DF9300D000D0CDB7DEB7F1
:1020500063E084E00E949C009093D6018093D501B8
:102060008E54910981369340C0F0809161018111B5
:1020700014C00E94AC0B80936001809141018111DA
:1020800007C0E0916001F0E0EC52FC4F8DE78083E7
:102090008DE7809361010E94D80B6091D50170910A
:1020A000D601072E000C880B990B0E94212841E0D5
:1020B0000E94A9049093D6018093D50185E00E94E7
:1020C000B1096B017C016093C1017093C2018093DF
:1020D000C3019093C4016091D5017091D601072E80
:1020E000000C880B990B0E942128A70196010E94E1
:1020F000D6280E94E9277093D6016093D50186E027
:102100000E94B1096093B7017093B8018093B9013F
:102110009093BA01409101012091D5013091D601EF
:1021200042037001439FF00C112424EA30E74DE78D
:102130005FE30E94D128181664F484EA90E7ADE7C3
:10214000BFE38093B7019093B801A093B901B09316
:10215000BA014090B7015090B8016090B9017090F9
:10216000BA01A301920160E070E080E89FE30E9461
:10217000052720E030E04AE754E40E94D62820E01A
:1021800030E04AE754E40E94062769837A838B8310
:102190009C83B701FF0C880B990B0E9421284B01EF
:1021A0005C01C090CB01D090CC01E090CD01F090CB
:1021B000CE01A70196010E94D1281816DCF4A701D0
:1021C0009601C501B4010E9405279B01AC016981FC
:1021D0007A818B819C810E94722788232CF5A7012C
:1021E000960169817A818B819C810E9406274B012F
:1021F0005C011AC0A5019401C701B6010E94052720
:102200009B01AC0169817A818B819C810E9472273C
:10221000882354F429813A814B815C81C701B6013E
:102220000E9405274B015C012AE939E949E95EE38F
:10223000C301B2010E94D62827ED33EA40E35FE3F1
:102240000E9406272B013C0124EA30E74DE75FE3BB
:102250000E94D12818169CF023E333E343E35FE3A5
:10226000C301B2010E94722788239CF40F2EF3E36E
:102270004F2E542C642CFFE37F2EF02D0AC00F2E1E
:10228000F4EA4F2EF0E75F2EFDE76F2EFFE37F2E7F
:10229000F02DA301920160E070E080E89FE30E94CE
:1022A0000527A50194010E94D6284B015C01A701D6
:1022B0009601C301B2010E94D628A50194010E9493
:1022C00006276093CB017093CC018093CD0190934E
:1022D000CE010E94E9277093D2016093D101685129
:1022E0007C4F7093D6016093D5011616170674F0D3
:1022F00081E090E09093D6018093D5012091B301C5
:102300003091B4018217930751F523C0603D7740A7
:102310008CF08FEC97E09093D6018093D50180915B
:10232000B3019091B4018F3C27E0920791F08FECBC
:1023300097E015C08091D5019091D6012091B3010D
:102340003091B4018217930751F4883E23E092073D
:1023500031F02091B0012F5F2093B00102C01092A4
:10236000B0019093B4018093B3012091B001253066
:1023700078F01092B00120911F01219520931F0148
:10238000820F911D27FD9A959093D6018093D501D8
:102390009091D5018091D601E6EBF2E09683878398
:1023A0000F900F900F900F90DF91CF91FF90EF90D3
:1023B000DF90CF90BF90AF909F908F907F906F9065
:1023C0005F904F9008954F925F926F927F928F929D
:1023D0009F92AF92BF92CF92DF92EF92FF920F93B4
:1023E0001F93CF93DF9363E080E00E949C00909363
:1023F000D4018093D3018E54910981369340C0F06B
:1024000080916101811114C00E94AC0B8093600126
:1024100080914101811107C0E0916001F0E0EC5230
:10242000FC4F8DE780838DE7809361010E94D80B7C
:102430006091D3017091D401072E000C880B990B89
:102440000E94212842E00E94A9049093D401809325
:10245000D30181E00E94B1096B017C016093C50149
:102460007093C6018093C7019093C8016091D30116
:102470007091D401072E000C880B990B0E94212823
:10248000A70196010E94D6280E94E9277093D401E3
:102490006093D30182E00E94C1096093BB017093F5
:1024A000BC018093BD019093BE012091AE01222317
:1024B000F1F02091AD0121111AC02DEC3CEC4CE45F
:1024C0005FE30E9405272DEC3CEC4CE45EE30E94A8
:1024D000D62823E333E343E75FE30E9406276093B4
:1024E000BB017093BC018093BD019093BE014091EC
:1024F00000012091D3013091D4014203E001439FB8
:10250000D00D112424EA30E74DE75FE36091BB0171
:102510007091BC018091BD019091BE010E94D128B3
:10252000181664F484EA90E7ADE7BFE38093BB013B
:102530009093BC01A093BD01B093BE01C090BB01BC
:10254000D090BC01E090BD01F090BE010091CF01A0
:102550001091D001B801012E000C880B990B0E943C
:1025600021284B015C01BE01DD0F880B990B0E94F5
:1025700021282B013C01A701960160E070E080E872
:102580009FE30E9405279B01AC01C301B2010E9499
:10259000D6282B013C01A5019401C701B6010E9478
:1025A000D6289B01AC01C301B2010E9406270E94FC
:1025B000E9272B013C01EB01CB01801B910BBC01F6
:1025C00022F466277727681B790B072E000C880BEF
:1025D000990B0E94212820E030E046E952E40E9455
:1025E000D12818162CF05092D4014092D30120C06B
:1025F0000C171D077CF420E030E046E952E4C501E9
:10260000B4010E9406270E94E9277093D4016093C9
:10261000D3010EC020E030E046E952E4C501B40128
:102620000E9405270E94E9277093D4016093D3018B
:10263000C091D301D091D401D093D001C093CF01E8
:102640008091AE01882301F18091AD0181111CC000
:1026500023E333E343E75FE3C701B6010E940527A5
:1026600020E030E040EA50E40E94D6282DEC3CEC1B
:102670004CE45FE30E9406276093BB017093BC01AA
:102680008093BD019093BE01CE0188519C4F9093E1
:10269000CA018093C9011816190674F081E090E010
:1026A0009093CA018093C9012091B1013091B20188
:1026B0008217930751F523C0803D97408CF08FEC33
:1026C00097E09093CA018093C9018091B1019091E4
:1026D000B2018F3C27E0920791F08FEC97E015C094
:1026E0008091C9019091CA012091B1013091B2014C
:1026F0008217930751F4883E23E0920731F020912E
:10270000AF012F5F2093AF0102C01092AF019093F1
:10271000B2018093B1012091AF01253078F0109281
:10272000AF0120911E01219520931E01820F911D62
:1027300027FD9A959093CA018093C9019091C90190
:102740008091CA01E4E9F3E096838783DF91CF911A
:102750001F910F91FF90EF90DF90CF90BF90AF90BF
:102760009F908F907F906F905F904F9008951F93F0
:10277000CF93DF93CAE0D0E010E065E080E00E94F4
:102780009C00835C91408737910510F41F5F01C066
:1027900010E08FE19EE40197F1F700C0000021975F
:1027A00061F71A3039F483E08093430281E080932B
:1027B0009D016DC081E08093430210929D01809144
:1027C0005F01811107C081E880935F010E94AC0B1B
:1027D00080935E0180915E01833609F458C0E091D8
:1027E0005E01F0E0EC52FC4F8081813809F44FC06B
:1027F00081E80E94D80BE0915E01F0E0EC52FC4FC2
:1028000081E8808344C065E084E00E949C00835C92
:1028100091408737910510F41F5F01C010E08FE1F0
:102820009EE40197F1F700C00000219761F71A308C
:1028300039F481E080939C0183E0809344022BC0B3
:1028400010929C0181E08093440280915D0181118E
:1028500007C082E880935D010E94AC0B80935C010D
:1028600080915C018336B9F0E0915C01F0E0EC52BC
:10287000FC4F8081823879F082E80E94D80BE09189
:102880005C01F0E0EC52FC4F82E8808304C0CAE0B7
:10289000D0E010E0B8CFDF91CF911F9108958091E3
:1028A000680382FF13C010923B0180918D01882341
:1028B00041F010928D01E0918C01F0E0EC52FC4F60
:1028C0001082E8E6F3E080818B7F808380910D04A5
:1028D00082FF13C010923A0180917D01882341F05C
:1028E00010927D01E0917C01F0E0EC52FC4F1082EF
:1028F000EDE0F4E080818B7F808380910B0282FF8A
:1029000013C01092390180917901882341F010920F
:102910007901E0917801F0E0EC52FC4F1082EBE09D
:10292000F2E080818B7F80838091570482FF13C007
:102930001092380180917501882341F01092750141
:10294000E0917401F0E0EC52FC4F1082E7E5F4E016
:1029500080818B7F80838091880382FF17C0809164
:102960003501882399F01092370180914D01882319
:1029700041F010924D01E0914C01F0E0EC52FC4F1F
:102980001082E8E8F3E080818B7F808380913B01B7
:102990008430C0F080918D01811114C00E94AC0B75
:1029A00080938C0180914101811107C0E0918C01DD
:1029B000F0E0EC52FC4F83E2808383E280938D0150
:1029C0000E94D80B80913A018430C0F080917D0143
:1029D000811114C00E94AC0B80937C018091410155
:1029E000811107C0E0917C01F0E0EC52FC4F8BE4D8
:1029F00080838BE480937D010E94D80B8091390104
:102A00008330C0F080917901811114C00E94AC0B19
:102A10008093780180914101811107C0E091780194
:102A2000F0E0EC52FC4F89E5808389E580937901E1
:102A30000E94D80B809138018330C0F080917501DD
:102A4000811114C00E94AC0B8093740180914101EC
:102A5000811107C0E0917401F0E0EC52FC4F8DE66B
:102A600080838DE6809375010E94D80B8091370199
:102A70008430E0F0809135018823C1F080914D01D0
:102A8000811114C00E94AC0B80934C0180914101D4
:102A9000811107C0E0914C01F0E0EC52FC4F85EB56
:102AA000808385EB80934D010E94D80B089580E0D0
:102AB00090E072E861E8FC01EC52FC4F20812111AA
:102AC0008FC29C012F5F3F4FF901EC52FC4F4081B8
:102AD000442309F485C240919A0150E042175307FC
:102AE00059F480939A01E0919A01F0E040919B01A2
:102AF000EC52FC4F408370C24091980150E0421765
:102B0000530759F480939801E0919801F0E04091C7
:102B10009901EC52FC4F40835FC24091960150E016
:102B20004217530759F480939601E0919601F0E023
:102B300040919701EC52FC4F40834EC2409194016A
:102B400050E04217530759F480939401E0919401A7
:102B5000F0E040919501EC52FC4F40833DC2409122
:102B6000920150E04217530759F480939201E0918B
:102B70009201F0E040919301EC52FC4F40832CC253
:102B80004091900150E04217530759F4809390010F
:102B9000E0919001F0E040919101EC52FC4F4083B4
:102BA0001BC240918E0150E04217530759F48093A5
:102BB0008E01E0918E01F0E040918E01EC52FC4FCD
:102BC00040830AC240918C0150E04217530759F4E8
:102BD00080938C01E0918C01F0E040918D01EC52EA
:102BE000FC4F4083F9C140918A0150E042175307DE
:102BF00059F480938A01E0918A01F0E040918B01C1
:102C0000EC52FC4F4083E8C14091880150E04217EC
:102C1000530759F480938801E0918801F0E04091D6
:102C20008901EC52FC4F4083D7C14091860150E0AE
:102C30004217530759F480938601E0918601F0E032
:102C400040918701EC52FC4F4083C6C14091840102
:102C500050E04217530759F480938401E0918401B6
:102C6000F0E040918501EC52FC4F4083B5C14091AA
:102C7000820150E04217530759F480938201E0919A
:102C80008201F0E040918301EC52FC4F4083A4C1EB
:102C90004091800150E04217530759F4809380011E
:102CA000E0918001F0E040918101EC52FC4F4083C3
:102CB00093C140917E0150E04217530759F480932D
:102CC0007E01E0917E01F0E040917E01EC52FC4FEC
:102CD000408382C140917C0150E04217530759F470
:102CE00080937C01E0917C01F0E040917D01EC5209
:102CF000FC4F408371C140917A0150E04217530765
:102D000059F480937A01E0917A01F0E040917B01DF
:102D1000EC52FC4F408360C14091780150E0421773
:102D2000530759F480937801E0917801F0E04091E5
:102D30007901EC52FC4F40834FC14091760150E045
:102D40004217530759F480937601E0917601F0E041
:102D500040917701EC52FC4F40833EC14091740199
:102D600050E04217530759F480937401E0917401C5
:102D7000F0E040917501EC52FC4F40832DC1409131
:102D80006E0150E04217530759F480936E01E091B1
:102D90006E01F0E040917001EC52FC4F40831CC189
:102DA0004091600150E04217530759F4809360014D
:102DB000E0916001F0E040916101EC52FC4F4083F2
:102DC0000BC14091710150E04217530759F48093B1
:102DD0007101E0917101F0E040917301EC52FC4F00
:102DE0004083FAC040915E0150E04217530749F416
:102DF00080935E01E0915E01F0E0EC52FC4F608355
:102E0000EBC040915C0150E04217530749F48093B6
:102E10005C01E0915C01F0E0EC52FC4F7083DCC09F
:102E200040915A0150E04217530759F480935A01D8
:102E3000E0915A01F0E040915B01EC52FC4F40837D
:102E4000CBC04091580150E04217530759F480938A
:102E50005801E0915801F0E040915901EC52FC4FCB
:102E60004083BAC04091560150E04217530759F4CD
:102E700080935601E0915601F0E040915701EC52E9
:102E8000FC4F4083A9C04091540150E042175307C2
:102E900059F480935401E0915401F0E040915501C0
:102EA000EC52FC4F408398C04091520150E04217D1
:102EB000530759F480935201E0915201F0E04091A0
:102EC0005301EC52FC4F408387C04091500150E0C9
:102ED0004217530759F480935001E0915001F0E0FC
:102EE00040915101EC52FC4F408376C040914E011D
:102EF00050E04217530759F480934E01E0914E0180
:102F0000F0E040914F01EC52FC4F408365C040918E
:102F10004C0150E04217530759F480934C01E09163
:102F20004C01F0E040914D01EC52FC4F408354C005
:102F300040914A0150E04217530759F480934A01E7
:102F4000E0914A01F0E040914B01EC52FC4F40838C
:102F500043C04091480150E04217530759F4809311
:102F60004801E0914801F0E040914901EC52FC4FEA
:102F7000408332C04091460150E04217530759F454
:102F800080934601E0914601F0E040914701EC5208
:102F9000FC4F408321C04091440150E04217530749
:102FA00059F480934401E0914401F0E040914501DF
:102FB000EC52FC4F408310C04091420150E0421758
:102FC000530751F480934201E0914201F0E04091B7
:102FD0004301EC52FC4F4083F901EC52FC4F10824C
:102FE00001968430910509F066CD0895CF938091C4
:102FF000EB0182FFFFC6EDEEF1E080E090E0219171
:10300000DC01AD58BB4F2C93019687309105B9F781
:103010008091730460E00E948F0BC82F813021F1F2
:1030200080914101811130C080919B01811106C0C6
:10303000C0939B010E94AC0B80939A0180919A01EE
:10304000833611F1E0919A01F0E0EC52FC4F80815F
:10305000C81719F08C2F0E94D80BE0919A01F0E06C
:10306000EC52FC4FC08310C080919B01882361F01B
:1030700010929B01E0919A01F0E0EC52FC4F10821B
:10308000109241010E9457158091740465E00E94DE
:103090008F0BC82F863021F180914101811130C002
:1030A00080919901811106C0C09399010E94AC0BD7
:1030B0008093980180919801833611F1E0919801F5
:1030C000F0E0EC52FC4F8081C81719F08C2F0E9461
:1030D000D80BE0919801F0E0EC52FC4FC08310C097
:1030E00080919901882361F010929901E0919801F3
:1030F000F0E0EC52FC4F1082109241010E945715F3
:10310000809175046AE00E948F0BC82F8B3021F1EB
:1031100080914101811130C080919701811106C0D9
:10312000C09397010E94AC0B809396018091960109
:10313000833611F1E0919601F0E0EC52FC4F808172
:10314000C81719F08C2F0E94D80BE0919601F0E07F
:10315000EC52FC4FC08310C080919701882361F02E
:1031600010929701E0919601F0E0EC52FC4F108232
:10317000109241010E9457158091760462E10E94ED
:103180008F0BC82F833121F180914101811130C013
:1031900080919501811106C0C09395010E94AC0BEE
:1031A0008093940180919401833611F1E091940110
:1031B000F0E0EC52FC4F8081C81719F08C2F0E9470
:1031C000D80BE0919401F0E0EC52FC4FC08310C0AA
:1031D00080919501882361F010929501E09194010E
:1031E000F0E0EC52FC4F1082109241010E94571502
:1031F0008091770467E10E948F0BC82F883121F1FD
:1032000080914101811130C080919301811106C0EC
:10321000C09393010E94AC0B809392018091920124
:10322000833611F1E0919201F0E0EC52FC4F808185
:10323000C81719F08C2F0E94D80BE0919201F0E092
:10324000EC52FC4FC08310C080919301882361F041
:1032500010929301E0919201F0E0EC52FC4F108249
:10326000109241010E945715809178046FE00E94EE
:103270008F0BC82F803121F180914101811130C025
:1032800080919101811106C0C09391010E94AC0B05
:103290008093900180919001833611F1E09190012B
:1032A000F0E0EC52FC4F8081C81719F08C2F0E947F
:1032B000D80BE0919001F0E0EC52FC4FC08310C0BD
:1032C00080919101882361F010929101E091900129
:1032D000F0E0EC52FC4F1082109241010E94571511
:1032E000809179046DE10E948F0BC82F8E3121F1FE
:1032F00080914101811130C080918F01811106C000
:10330000C0938F010E94AC0B80938E0180918E013F
:10331000833611F1E0918E01F0E0EC52FC4F808198
:10332000C81719F08C2F0E94D80BE0918E01F0E0A5
:10333000EC52FC4FC08310C080918F01882361F054
:1033400010928F01E0918E01F0E0EC52FC4F108260
:10335000109241010E945715EBEEF1E080818B7FC6
:1033600080838091670482FF4AC5E9E6F4E080E04B
:1033700090E02191DC01AD58BB4F2C930196873032
:103380009105B9F78091730468E20E948F0BC82FF2
:10339000893221F180914101811130C080918B01EE
:1033A000811106C0C0938B010E94AC0B80938A01EF
:1033B00080918A01833611F1E0918A01F0E0EC52AC
:1033C000FC4F8081C81719F08C2F0E94D80BE09118
:1033D0008A01F0E0EC52FC4FC08310C080918B0159
:1033E000882361F010928B01E0918A01F0E0EC52A9
:1033F000FC4F1082109241010E9457158091740475
:103400006DE20E948F0BC82F8E3221F18091410115
:10341000811130C080918901811106C0C09389015A
:103420000E94AC0B8093880180918801833611F152
:10343000E0918801F0E0EC52FC4F8081C81719F050
:103440008C2F0E94D80BE0918801F0E0EC52FC4FE9
:10345000C08310C080918901882361F01092890196
:10346000E0918801F0E0EC52FC4F10821092410193
:103470000E9457158091750462E30E948F0BC82F3C
:10348000833321F180914101811130C08091870106
:10349000811106C0C09387010E94AC0B8093860106
:1034A00080918601833611F1E0918601F0E0EC52C3
:1034B000FC4F8081C81719F08C2F0E94D80BE09127
:1034C0008601F0E0EC52FC4FC08310C08091870170
:1034D000882361F010928701E0918601F0E0EC52C0
:1034E000FC4F1082109241010E9457158091760482
:1034F0006AE30E948F0BC82F8B3321F18091410129
:10350000811130C080918501811106C0C093850171
:103510000E94AC0B8093840180918401833611F169
:10352000E0918401F0E0EC52FC4F8081C81719F063
:103530008C2F0E94D80BE0918401F0E0EC52FC4FFC
:10354000C08310C080918501882361F010928501AD
:10355000E0918401F0E0EC52FC4F108210924101A6
:103560000E945715809177046FE30E948F0BC82F3C
:10357000803421F180914101811130C0809183011B
:10358000811106C0C09383010E94AC0B809382011D
:1035900080918201833611F1E0918201F0E0EC52DA
:1035A000FC4F8081C81719F08C2F0E94D80BE09136
:1035B0008201F0E0EC52FC4FC08310C08091830187
:1035C000882361F010928301E0918201F0E0EC52D7
:1035D000FC4F1082109241010E945715809178048F
:1035E00067E30E948F0BC82F883321F1809141013E
:1035F000811130C080918101811106C0C093810189
:103600000E94AC0B8093800180918001833611F180
:10361000E0918001F0E0EC52FC4F8081C81719F076
:103620008C2F0E94D80BE0918001F0E0EC52FC4F0F
:10363000C08310C080918101882361F010928101C4
:10364000E0918001F0E0EC52FC4F108210924101B9
:103650000E9457158091790465E40E948F0BC82F52
:10366000863421F180914101811130C080917F0128
:10367000811106C0C0937F010E94AC0B80937E0134
:1036800080917E01833611F1E0917E01F0E0EC52F1
:10369000FC4F8081C81719F08C2F0E94D80BE09145
:1036A0007E01F0E0EC52FC4FC08310C080917F019E
:1036B000882361F010927F01E0917E01F0E0EC52EE
:1036C000FC4F1082109241010E945715E7E6F4E08A
:1036D00080818B7F80838091B80382FF95C3809126
:1036E000BA0380935303809153036FE40E948F0BBE
:1036F000C82F803521F180914101811130C0809126
:103700007B01811106C0C0937B010E94AC0B8093AA
:103710007A0180917A01833611F1E0917A01F0E02B
:10372000EC52FC4F8081C81719F08C2F0E94D80BE7
:10373000E0917A01F0E0EC52FC4FC08310C0809120
:103740007B01882361F010927B01E0917A01F0E027
:10375000EC52FC4F1082109241010E945715E8EB89
:10376000F3E080818B7F80838091ED0382FF51C3E2
:103770008091EF03809353038091530363E60E948B
:103780008F0BC82F843621F180914101811130C007
:1037900080917701811106C0C09377010E94AC0B24
:1037A0008093760180917601833611F1E091760164
:1037B000F0E0EC52FC4F8081C81719F08C2F0E946A
:1037C000D80BE0917601F0E0EC52FC4FC08310C0C2
:1037D00080917701882361F010927701E091760162
:1037E000F0E0EC52FC4F1082109241010E945715FC
:1037F000EDEEF3E080818B7F80838091120382FF66
:103800000DC3E4E1F3E080E090E02191DC01A658F3
:10381000BB4F2C93019687309105B9F780917A04BC
:103820006CE80E948F0BC82F8D3821F180914101E7
:10383000811130C080915B01811106C0C0935B0192
:103840000E94AC0B80935A0180915A01833611F18A
:10385000E0915A01F0E0EC52FC4F8081C81719F05A
:103860008C2F0E94D80BE0915A01F0E0EC52FC4FF3
:10387000C08310C080915B01882361F010925B01CE
:10388000E0915A01F0E0EC52FC4F1082109241019D
:103890000E94571580917B0461E90E948F0BC82F0D
:1038A000823921F180914101811130C0809159010B
:1038B000811106C0C09359010E94AC0B809358013E
:1038C00080915801833611F1E0915801F0E0EC52FB
:1038D000FC4F8081C81719F08C2F0E94D80BE09103
:1038E0005801F0E0EC52FC4FC08310C080915901A8
:1038F000882361F010925901E0915801F0E0EC52F8
:10390000FC4F1082109241010E94571580917C0457
:1039100066E90E948F0BC82F873921F18091410100
:10392000811130C080915701811106C0C0935701A9
:103930000E94AC0B8093560180915601833611F1A1
:10394000E0915601F0E0EC52FC4F8081C81719F06D
:103950008C2F0E94D80BE0915601F0E0EC52FC4F06
:10396000C08310C080915701882361F010925701E5
:10397000E0915601F0E0EC52FC4F108210924101B0
:103980000E94571580917D046BE90E948F0BC82F10
:103990008C3921F180914101811130C08091550114
:1039A000811106C0C09355010E94AC0B8093540155
:1039B00080915401833611F1E0915401F0E0EC5212
:1039C000FC4F8081C81719F08C2F0E94D80BE09112
:1039D0005401F0E0EC52FC4FC08310C080915501BF
:1039E000882361F010925501E0915401F0E0EC520F
:1039F000FC4F1082109241010E94571580917E0465
:103A000060EA0E948F0BC82F813A21F18091410119
:103A1000811130C080915101811106C0C0935101C4
:103A20000E94AC0B8093500180915101833611F1BB
:103A3000E0915001F0E0EC52FC4F8081C81719F082
:103A40008C2F0E94D80BE0915001F0E0EC52FC4F1B
:103A5000C08310C080915101882361F01092510100
:103A6000E0915001F0E0EC52FC4F108210924101C5
:103A70000E94571580917F0468E90E948F0BC82F20
:103A8000893921F180914101811130C08091530128
:103A9000811106C0C09353010E94AC0B8093520168
:103AA00080915301833611F1E0915201F0E0EC5224
:103AB000FC4F8081C81719F08C2F0E94D80BE09121
:103AC0005201F0E0EC52FC4FC08310C080915301D2
:103AD000882361F010925301E0915201F0E0EC5222
:103AE000FC4F1082109241010E9457158091800472
:103AF0006AEA0E948F0BC82F8B3A21F18091410115
:103B0000811130C080914F01811106C0C0934F01D7
:103B10000E94AC0B80934E0180914F01833611F1CE
:103B2000E0914E01F0E0EC52FC4F8081C81719F093
:103B30008C2F0E94D80BE0914E01F0E0EC52FC4F2C
:103B4000C08310C080914F01882361F010924F0113
:103B5000E0914E01F0E0EC52FC4F108210924101D6
:103B60000E945715E2E1F3E080818B7F8083809192
:103B7000C80382FF57C1EAECF3E080E090E02191B6
:103B8000DC01A25EBC4F2C93019685309105B9F7FC
:103B900080911E0368EC0E948F0BC82F893C21F195
:103BA00080914101811130C080914B01811106C08B
:103BB000C0934B010E94AC0B80934A0180914A0153
:103BC000833611F1E0914A01F0E0EC52FC4F808124
:103BD000C81719F08C2F0E94D80BE0914A01F0E031
:103BE000EC52FC4FC08310C080914B01882361F0E0
:103BF00010924B01E0914A01F0E0EC52FC4F108230
:103C0000109241010E94571580911F036BEC0E9496
:103C10008F0BC82F8C3C21F180914101811130C064
:103C200080914901811106C0C09349010E94AC0BEB
:103C30008093480180914801833611F1E091480159
:103C4000F0E0EC52FC4F8081C81719F08C2F0E94D5
:103C5000D80BE0914801F0E0EC52FC4FC08310C05B
:103C600080914901882361F010924901E091480157
:103C7000F0E0EC52FC4F1082109241010E94571567
:103C8000809120036EEC0E948F0BC82F8F3C21F196
:103C900080914101811130C080914701811106C09E
:103CA000C09347010E94AC0B80934601809146016E
:103CB000833611F1E0914601F0E0EC52FC4F808137
:103CC000C81719F08C2F0E94D80BE0914601F0E044
:103CD000EC52FC4FC08310C080914701882361F0F3
:103CE00010924701E0914601F0E0EC52FC4F108247
:103CF000109241010E9457158091210361ED0E94AD
:103D00008F0BC82F823D21F180914101811130C07C
:103D100080914501811106C0C09345010E94AC0B02
:103D20008093440180914401833611F1E091440174
:103D3000F0E0EC52FC4F8081C81719F08C2F0E94E4
:103D4000D80BE0914401F0E0EC52FC4FC08310C06E
:103D500080914501882361F010924501E091440172
:103D6000F0E0EC52FC4F1082109241010E94571576
:103D7000809122036CED0E948F0BC82F8D3D21F1A5
:103D800080914101811130C080914301811106C0B1
:103D9000C09343010E94AC0B809342018091420189
:103DA000833611F1E0914201F0E0EC52FC4F80814A
:103DB000C81719F08C2F0E94D80BE0914201F0E057
:103DC000EC52FC4FC08310C080914301882361F006
:103DD00010924301E0914201F0E0EC52FC4F10825E
:103DE000109241010E945715E8ECF3E080818B7F2F
:103DF000808318C08091670482FDB7CA6CCC809123
:103E0000B80382FD6CCCB0CC8091ED0382FDB0CCC8
:103E1000F4CC8091120382FDF4CCA9CE8091C8032A
:103E200082FDA9CECF910895CF93DF9310928103A5
:103E3000EAE7F3E02FE733E0DF01C4E7D3E08D9159
:103E40009FEF980F9B3820F48D8582608D870EC080
:103E500094E7980F923320F48D8588608D8706C093
:103E6000885C893118F48D8580628D87A217B3072D
:103E700031F741E853E0AAE7B3E060E020E071E009
:103E80008D91982F9F7D9330C1F1382F3F7B383033
:103E9000A1F1382F3F7E3D3081F1823171F18B32BB
:103EA00061F1C82FCF77C53341F18A3331F18534C1
:103EB00021F1CB3411F1C5E8C80FC330F0F08F37D2
:103EC000E1F0CFE7C80FC330C0F03032B1F09F3817
:103ED000A1F0982F977F933981F0883971F09DE593
:103EE000980F923050F08E3941F08D3A31F08E3C7F
:103EF00021F0813D11F08F3D11F42F5F672FA41742
:103F0000B50709F0BDCF70E090E0A1E0819182306B
:103F100009F445C0382F377F343009F440C087306A
:103F2000F1F18930E1F1382F3F773E30C1F13CEEBD
:103F3000380F3330A0F18F3191F1382F3F7E31327D
:103F400071F18A3261F13C3251F18F3241F1382FF7
:103F50003D7F343321F13FEA380F323000F18935AB
:103F6000F1F0382F3F7B3E33D1F03BE9380F323050
:103F7000B0F08D36A1F037E8380F323080F080385D
:103F800071F08A3961F08D3951F0823A41F08E3A00
:103F900031F08A3C21F08D3C11F0833D11F49F5F9C
:103FA0007A2F4E175F0709F0B1CF662349F0809151
:103FB0002D0181110FC081E080932C0182E00BC0A4
:103FC000772321F010922C0181E005C010922C0182
:103FD00080E001C082E030913E01321710F410926F
:103FE000400130913D01391710F410923F012093A8
:103FF0003E0190933D01DF91CF910895E1E9F0E01A
:1040000080818C608083E1E7F0E080818260808342
:1040100084E39CE090939900809398000895E0E8F1
:10402000F0E0808184608083E1E8F0E08081896154
:1040300080830895E1E8F0E020812160208390935F
:104040008700809386009695879590938D00809346
:104050008C002FEF84E39CE0215080409040E1F7FA
:1040600000C000000895E1E8F0E080818E7F808349
:1040700008950E941D030E94FE1F0E947700C0E069
:10408000D0E0CE0149960E9480298F3F29F0FE01A1
:10409000E75CFB4F808304C0FE01E75CFB4F1082AE
:1040A0002196CA30D10569F78AEF90E00E94CC00D2
:1040B0000E94D7090E94730A8CE892E00E946C016A
:1040C00083E493E00E946C0183E393E00E946C011F
:1040D00086EC92E00E946C0184EA93E00E946C01FD
:1040E00083E293E00E946C0189EF93E00E946C01EF
:1040F00089E08093AC02ECE3F2E01782108669E07D
:10410000CF010E9448020E940F2082E00E943803E3
:10411000811109C01092420269E08CE392E00E9492
:10412000480210922D0186E00E943803882319F07E
:1041300081E08093010185E00E943803882319F013
:1041400081E0809300010E94550F0E94100688E1D3
:1041500090E00E9480299EEF980F923018F480938F
:10416000200108C082E08093200162E088E190E0B5
:104170000E94882963E087E00E949C00BC0180E0E7
:1041800090E00E941F280E948F039093310180933A
:104190003001009739F481E090E0909331018093F1
:1041A000300108C0019631F48EEF9FEF90933101FA
:1041B00080933001909130018091310190932E01D4
:1041C00080932F01E7EDF1E0968387830E94020C34
:1041D00080E797E10E941A2088E893E10E941A2064
:1041E00080EA9FE00E941A200E9433200E9423034D
:1041F0000E94B713789406EB12E00F2EF8EECF2E44
:10420000F02D0F2EF3E0DF2EF02DC4E9D3E00F2EBA
:10421000F8E5EF2EF3E0FF2EF02D0E9443030E94FD
:104220005C030E9436040E9491046BE087ED91E0EC
:104230000E94480280919C01882339F080919E0160
:10424000811103C00E94161005C00E941610F801CB
:10425000C682D782F80196818781890F8F5F808718
:1042600066E0C8010E94480280919D01882339F0D0
:1042700080919E01811103C00E94E31104C00E943D
:10428000E311CE82DF829E818F81890F8E5F8887C6
:1042900066E0CE010E9448020E9453096AE087EF5F
:1042A00091E00E944802F701808182FF06C00E94CF
:1042B0006006F70180818B7F80830E944F1480917C
:1042C0003201811102C00E94450C0E94520D0E94D1
:1042D000F617A3CF81312EE0920790F09C01A9E858
:1042E000B8E80E945D2996958795929582958F7082
:1042F00089279F7089276CE370E00E9443290FC0D3
:104300009C01A9E8B8E80E945D2996958795929549
:1043100082958F7089279F70892760E070E09C01EB
:10432000992314F42F5F3F4F35952795CB01880FC4
:10433000991F82959295907F9827807F9827822B4E
:1043400008951F920F920FB60F9211242F933F934F
:104350004F935F938F939F93AF93BF93EF93FF938D
:104360002091ED008091E0009091E10080FFCDC0B0
:104370001092ED008091F0009091F100A091F20078
:10438000B091F300689412F8B695A7959795879524
:104390001694D1F78093FA029093FB02A093FC024B
:1043A000B093FD02893932E09307A105B105D9F038
:1043B00068F489399105A105B10509F462C089390C
:1043C0009140A105B10509F442C091C0893933E09B
:1043D0009307A105B10509F189399042A105B105FD
:1043E00009F469C084C08091680382FD80C0409157
:1043F0006903442361F0EAE6F3E050E046595C4F7C
:10440000AAEFB0E08C918193E417F507D9F7E8E6BD
:10441000F3E08081846080836AC080910D0482FD16
:1044200066C040910E04442361F0EFE0F4E050E0F8
:10443000415F5B4FAAEFB0E08C918193E417F507E1
:10444000D9F7EDE0F4E080818460808350C08091F2
:104450000B0282FD4CC040910C02442361F0EDE060
:10446000F2E050E0435F5D4FAAEFB0E08C918193A2
:10447000E417F507D9F7EBE0F2E0808184608083F0
:1044800036C08091570482FD32C0409158044423C5
:1044900061F0E9E5F4E050E0475A5B4FAAEFB0E085
:1044A0008C918193E417F507D9F7E7E5F4E0808173
:1044B000846080831CC081E08093350180918803F3
:1044C00082FD15C040918903442361F0EAE8F3E0DE
:1044D00050E046575C4FAAEFB0E08C918193E4170F
:1044E000F507D9F7E8E8F3E08081846080831092D3
:1044F000EE008091EF0084FF04C080E98093EF001C
:1045000038C280E88093EF0034C28091E00090913F
:10451000E10081FF88C080E18093ED008091F00090
:104520009091F100A091F200B091F300689412F81C
:10453000B695A795979587951694D1F78093FA022B
:104540009093FB02A093FC02B093FD02813133E013
:104550009307A105B10531F1813137E09307A1053A
:10456000B105D1F181319240A105B10509F04DC0ED
:104570008091EB0182FD49C04091EC01442361F040
:10458000EDEEF1E050E043515E4FAAEFB0E08C91C8
:1045900081934E175F07D9F7EBEEF1E080818460DD
:1045A000808333C08091670482FD2FC040916804EE
:1045B000442361F0E9E6F4E050E047595B4FAAEF8D
:1045C000B0E08C9181934E175F07D9F7E7E6F4E0EE
:1045D00080818460808319C08091C80382FD15C0EA
:1045E0004091C903442361F0EAECF3E050E0465304
:1045F0005C4FAAEFB0E08C9181934E175F07D9F71B
:10460000E8ECF3E08081846080831092EE0080917A
:10461000EF0084FF04C080E98093EF00AAC180E826
:104620008093EF00A6C18091E0009091E10082FFAD
:1046300068C080E28093ED008091F0009091F100DD
:10464000A091F200B091F300689412F8B695A79586
:10465000979587951694D1F78093FA029093FB0271
:10466000A093FC02B093FD02813131E09307A105D4
:10467000B10531F082319140A105B105D9F033C0C7
:104680008091B80382FD2FC04091B903442361F0AB
:10469000EAEBF3E050E046545C4FAAEFB0E08C91B7
:1046A0008193E417F507D9F7E8EBF3E080818460A4
:1046B000808319C08091ED0382FD15C04091EE0307
:1046C000442361F0EFEEF3E050E041515C4FAAEF7C
:1046D000B0E08C918193E417F507D9F7EDEEF3E0A4
:1046E0008081846080831092EE008091EF0084FFCF
:1046F00004C080E98093EF003CC180E88093EF0024
:1047000038C18091E0009091E10083FF61C080E3B7
:104710008093ED008091F0009091F100A091F20063
:10472000B091F300689412F8B695A7959795879580
:104730001694D1F78093FA029093FB02A093FC02A7
:10474000B093FD023091EF003F7030933B02873011
:10475000910531E0A307B10549F128F40697A1407E
:10476000B10561F027C08830910531E0A307B1059C
:1047700099F00997A140B105A1F01CC080915803A0
:1047800082FD18C080913B02813009F4FFC095B1D1
:1047900084E0892785B90EC08091EE0282FF0AC1AC
:1047A00009C08091600282FF0FC104C0809147045C
:1047B00082FFF6C01092EE008091EF0084FF04C0EB
:1047C00080E98093EF00D5C080E88093EF00D1C0EE
:1047D0008091E0009091E10095FF7FC080ED809393
:1047E000ED008091F0009091F100A091F200B09165
:1047F000F300689412F8B695A79597958795169447
:10480000D1F78093FA029093FB02A093FC02B0933D
:10481000FD023091EF003F7030933B02833033E074
:104820009307A105B10559F580913B02873009F046
:1048300046C0EFE1F4E046E254E0AAEFB0E08C912C
:104840008193E417F507D9F7E9E1F4E0818590E079
:10485000982F88273085832B9093270180932601FA
:10486000809126019091270188599A4390932701BE
:1048700080932601109225011092240120C08630D9
:104880009240A105B105D9F480913B028830B9F47A
:10489000EDE1F2E045E252E0AAEFB0E08C918193C5
:1048A000E417F507D9F78091230280718093AD0159
:1048B0008091AE01811103C081E08093AE0110921E
:1048C000EE008091EF0084FF04C080E98093EF0048
:1048D00050C080E88093EF004CC08091E000909140
:1048E000E10084FF46C080E48093ED008091F000F9
:1048F0009091F100A091F200B091F300689412F849
:10490000B695A795979587951694D1F78093FA0257
:104910009093FB02A093FC02B093FD02853090427D
:10492000A105B105C9F48091120382FD15C0409123
:104930001303442361F0E4E1F3E050E04C5E5C4F8C
:10494000AAEFB0E08C9181934E175F07D9F7E2E1AF
:10495000F3E08081846080831092EE008091EF000C
:1049600084FF04C080E98093EF0003C080E8809357
:10497000EF001092FA021092FB021092FC021092C9
:10498000FD0210923B022093ED0028C08091FA00B6
:1049900080935A03E8E5F3E08081846080830ACF46
:1049A0008091FA0080934904E7E4F4E08081846018
:1049B000808300CF8091FA008093F002EEEEF2E067
:1049C000808184608083F6CE8091FA0080936202B9
:1049D000E0E6F2E0808184608083ECCEFF91EF918D
:1049E000BF91AF919F918F915F914F913F912F9187
:1049F0000F900FBE0F901F9018951F920F920FB639
:104A00000F9211240F931F932F933F934F935F9314
:104A10006F937F938F939F93AF93BF93CF93DF93C6
:104A2000EF93FF938091EE0282FF22C0EEEEF2E060
:104A30008B7F808380E090E0FC01E75CFB4F10827D
:104A4000FC01EE0FFF1FE95DFD4F11821082019600
:104A50008A30910589F781E080930401C9E1D0E0B3
:104A600060E0CE010E9488292196C332D105C1F7AA
:104A70008091600282FF10C080916202813021F437
:104A800082E08093040103C081E080930401E0E6AA
:104A9000F2E080818B7F8083809136018F5F8093ED
:104AA0003601809136018A3081F480913B018F5F1D
:104AB00080933B0180913A018F5F80933A0180910E
:104AC00037018F5F8093370191C080913601843127
:104AD00029F080913601883209F088C0809139012F
:104AE0008F5F80933901809138018F5F8093380107
:104AF00068E089E294E00E94480280912A01909146
:104B00002B01019690932B0180932A01C0E0D0E005
:104B1000FE01EE0FFF1FE95DFD4F80819181892B22
:104B2000F9F080912A0190912B018E01000F111F45
:104B3000F801E95DFD4F20813181821B930B909339
:104B400029018093280180912801909129010E94D8
:104B50006A2190E0F801EA52FD4F9183808307C0FB
:104B6000FE01EE0FFF1FEA52FD4F118210822196C7
:104B7000CA30D10569F680910401823089F4A2E53A
:104B8000B2E085E090E0FC01EE0FFF1FEA52FD4F1E
:104B9000208131812D9301968A309105A1F710C0B3
:104BA000A2E5B2E080E090E0FC01EE0FFF1FEA52C8
:104BB000FD4F208131812D93019685309105A1F71C
:104BC00069E08CE492E00E944802809136018832CC
:104BD00069F48FE99FE00197F1F700C0000010929F
:104BE000360169E086EA92E00E9448020E94571569
:104BF000EAE7F3E080E090E0DC01AC52BC4F2C919E
:104C00002193019685309105B9F70E94141F809376
:104C10007F039091470492FF0FC0909149049150F7
:104C2000923028F491E09093400190933F01E7E4A3
:104C3000F4E090819B7F9083823059F48091400111
:104C4000811104C082E08093800316C0109280031B
:104C500013C0813059F480913F01811104C081E07B
:104C60008093800309C01092800306C0811104C0A4
:104C700010928003109240016CE084E793E00E9460
:104C8000480280910401823089F4E4E0F3E085E099
:104C900090E0DC01A75CBB4F2C91219301968A30F8
:104CA0009105B9F782E0809309032AC0E4E0F3E0BC
:104CB00080E090E0DC01A75CBB4F2C912193019632
:104CC00085309105B9F780E090E0FC01E75CFB4F8F
:104CD0002081222329F020913C012F5F20933C0169
:104CE00001968A30910589F780913C01863018F44D
:104CF0001092090303C081E08093090310923C01E4
:104D000065E08EEF92E00E9448028091220190912E
:104D100023010196813F910528F49093230180930C
:104D2000220112C01092230110922201C0E0D0E0B3
:104D3000FE01E75CFB4F6081CE0149960E94882905
:104D40002196CA30D105A1F780912D01813051F40F
:104D50008093420280912C01882331F081E080937E
:104D6000400102C01092420269E08CE392E00E948E
:104D7000480280919E01882399F10E9443030E947A
:104D800036040E9491046BE087ED91E00E94480296
:104D90000E94450C80913201811102C00E94520D87
:104DA0000E944F140E94F617E6EBF2E0D8EED6838D
:104DB000C3E0C7838CEE808766E0CF010E94480283
:104DC0008FE39FE10197F1F700C00000E4E9F3E011
:104DD000D683C7838DEE808766E0CF010E944802AC
:104DE000FF91EF91DF91CF91BF91AF919F918F9103
:104DF0007F916F915F914F913F912F911F910F91F3
:104E00000F900FBE0F901F9018955058BB27AA27E0
:104E10000E941D270C9497280E94892838F00E9430
:104E2000902820F039F49F3F19F426F40C9486283A
:104E30000EF4E095E7FB0C948028E92F0E94A82847
:104E400058F3BA17620773078407950720F079F4BF
:104E5000A6F50C94CA280EF4E0950B2EBA2FA02DBF
:104E60000B01B90190010C01CA01A0011124FF2717
:104E7000591B99F0593F50F4503E68F11A16F04012
:104E8000A22F232F342F4427585FF3CF4695379511
:104E90002795A795F0405395C9F77EF41F16BA0BD6
:104EA000620B730B840BBAF09150A1F0FF0FBB1F84
:104EB000661F771F881FC2F70EC0BA0F621F731FCD
:104EC000841F48F4879577956795B795F7959E3F2A
:104ED00008F0B0CF9395880F08F09927EE0F9795BB
:104EE000879508950E945C2808F481E008950E9447
:104EF0008B270C9497280E94902858F00E948928AC
:104F000040F029F45F3F29F00C94802851110C9453
:104F1000CB280C9486280E94A82868F39923B1F323
:104F2000552391F3951B550BBB27AA2762177307CF
:104F3000840738F09F5F5F4F220F331F441FAA1F63
:104F4000A9F335D00E2E3AF0E0E832D0915050401F
:104F5000E695001CCAF72BD0FE2F29D0660F771FCD
:104F6000881FBB1F261737074807AB07B0E809F0B3
:104F7000BB0B802DBF01FF2793585F4F3AF09E3F38
:104F8000510578F00C9480280C94CB285F3FE4F313
:104F9000983ED4F3869577956795B795F7959F5F7B
:104FA000C9F7880F911D9695879597F90895E1E0C7
:104FB000660F771F881FBB1F621773078407BA0726
:104FC00020F0621B730B840BBA0BEE1F88F7E09581
:104FD00008950E94F0276894B1110C94CB2808958D
:104FE0000E94B02888F09F5798F0B92F9927B751A1
:104FF000B0F0E1F0660F771F881F991F1AF0BA957D
:10500000C9F714C0B13091F00E94CA28B1E00895E8
:105010000C94CA28672F782F8827B85F39F0B93FDA
:10502000CCF3869577956795B395D9F73EF490952F
:105030008095709561957F4F8F4F9F4F0895E894AD
:1050400009C097FB3EF490958095709561957F4FD0
:105050008F4F9F4F9923A9F0F92F96E9BB2793957E
:10506000F695879577956795B795F111F8CFFAF48E
:10507000BB0F11F460FF1BC06F5F7F4F8F4F9F4FBF
:1050800016C0882311F096E911C0772321F09EE81D
:10509000872F762F05C0662371F096E8862F70E083
:1050A00060E02AF09A95660F771F881FDAF7880F5D
:1050B0009695879597F90895990F0008550FAA0BB3
:1050C000E0E8FEEF16161706E807F907C0F012161B
:1050D0001306E407F50798F0621B730B840B950B1E
:1050E00039F40A2661F0232B242B252B21F4089573
:1050F0000A2609F4A140A6958FEF811D811D089510
:1051000097F99F6780E870E060E008959FEF80EC7A
:10511000089500240A94161617061806090608951D
:1051200000240A9412161306140605060895092E83
:105130000394000C11F4882352F0BB0F40F4BF2BF2
:1051400011F460FF04C06F5F7F4F8F4F9F4F089532
:1051500057FD9058440F551F59F05F3F71F0479528
:10516000880F97FB991F61F09F3F79F0879508950D
:10517000121613061406551FF2CF4695F1DF08C02C
:10518000161617061806991FF1CF86957105610549
:1051900008940895E894BB2766277727CB0197F9F1
:1051A00008950E945C2808F48FEF08950E94E92872
:1051B0000C9497280E94892838F00E94902820F0AB
:1051C000952311F00C9480280C94862811240C94BB
:1051D000CB280E94A82870F3959FC1F3950F50E04B
:1051E000551F629FF001729FBB27F00DB11D639F99
:1051F000AA27F00DB11DAA1F649F6627B00DA11D3F
:10520000661F829F2227B00DA11D621F739FB00DE4
:10521000A11D621F839FA00D611D221F749F332754
:10522000A00D611D231F849F600D211D822F762FED
:105230006A2F11249F5750409AF0F1F088234AF0CA
:10524000EE0FFF1FBB1F661F771F881F9150504036
:10525000A9F79E3F510580F00C9480280C94CB2830
:105260005F3FE4F3983ED4F3869577956795B795BD
:10527000F795E7959F5FC1F7FE2B880F911D9695D7
:10528000879597F9089597FB072E16F4009407D099
:1052900077FD09D00E946C2907FC05D03EF490955B
:1052A00081959F4F0895709561957F4F0895EE0FFA
:1052B000FF1F0590F491E02D0994A29FB001B39FC8
:1052C000C001A39F700D811D1124911DB29F700D0F
:1052D000811D1124911D0895AA1BBB1B51E107C01C
:1052E000AA1FBB1FA617B70710F0A61BB70B881F76
:1052F000991F5A95A9F780959095BC01CD01089505
:10530000F999FECF92BD81BDF89A992780B508958D
:10531000262FF999FECF92BD81BD20BD0FB6F8941E
:0E532000FA9AF99A0FBE01960895F894FFCFFD
:10532E00FFFF8B060101013A02C2013A02C2010FD0
:10533E009600FE0199036500FE01990365000101C7
:02534E0002005B
:00000001FF
