:020000040040BA
:1000000088334020D1014000CD014000CD014000A7
:10001000CD014000CD014000CD01400000000000B6
:10002000000000000000000000000000CD014000C2
:10003000CD01400000000000CD014000CD01400096
:10004000CD014000CD014000CD014000CD01400078
:10005000CD014000CD014000F5164000CD0140002B
:10006000CD01400000000000611B4000CD014000B8
:1000700000000000CD014000CD0140000000000064
:10008000CD0140000000000000000000CD01400054
:10009000CD01400000000000CD014000492140009A
:1000A000CD014000CD014000000000000000000034
:1000B0000000000005134000CD014000CD014000CC
:1000C000CD014000CD014000CD014000A51A400007
:1000D000CD0140000000000000000000CD01400004
:1000E000191340000000000000000000CD01400096
:1000F000CD014000000000000000000000000000F2
:100100000000000000000000CD014000CD014000D3
:10011000CD014000000000000000000000000000D1
:10012000CD014000CD014000CD014000CD01400097
:10013000C11D4000CD01400000000000CD01400085
:10014000CD014000CD014000CD014000CD01400077
:10015000CD01400010B5054C237833B9044B13B1E1
:100160000448AFF300800123237010BD58014020E4
:1001700000000000885D40000C4B43B10C480D4965
:1001800010B5AFF300800C48036823B910BD0A48CE
:10019000036833B97047094B002BF7D0BDE8104016
:1001A0001847064B002BF5D0184700BF0000000091
:1001B000885D40005C014020885D40000000000038
:1001C00008B5014B984708BD0D044000FEE700004C
:1001D00008B5174B174A9A4210D0174B144A9A4247
:1001E0000CD2013B9B1A23F003030433134411493F
:1001F00051F8040B42F8040B9A42F9D10F4B104A04
:100200009A420AD2013B9B1A23F00303043313449E
:10021000002142F8041B9342FBD10A4A0A4B23F007
:100220007F039360094B9847094B9847FEE700BF4F
:1002300000004020885D400058014020842D40206F
:100240005801402000ED00E000004000655A4000E9
:100250000138400008B502490248034B984708BDE1
:10026000000C0E4068264020350C4000034B08224D
:100270005A611A66C3F890201A607047000E0E404B
:10028000054B1A6F42F002021A675A6F22F00202FF
:100290005A6702225A60704700140E40054BD3F88B
:1002A000083113F0805F04D14FF08052014BC3F846
:1002B0000021704700060E4008B5064B9847064BD4
:1002C0009847064B9847024605490648064B98470B
:1002D00008BD00BF9D024000810240000120400097
:1002E00000C005404C264020A10D4000184B4FF4A3
:1002F00000521A615A631A66C3F89020196F21F4EC
:1003000000511967596F21F4005159675A604FF431
:1003100080521A615A631A66C3F89020196F21F44B
:1003200080511967596F21F4805159675A604FF411
:1003300080425A611A66C3F89020196F21F48041F7
:100340001967596F21F4804159675A60704700BF9F
:10035000000E0E40054BD3F8083113F4006F04D1A2
:100360004FF40062014BC3F80021704700060E40B5
:1003700008B5044B984704490448054B9847054B7A
:10038000984708BD5503400000C00740F8264020AC
:10039000510E4000ED024000054BD3F8083113F038
:1003A000080F03D10822024BC3F80021704700BF99
:1003B00000060E400A4B1A6F22F008021A675A6FA5
:1003C00022F008025A6708225A601A6F22F00402CB
:1003D0001A675A6F22F004025A6704225A60704763
:1003E00000100E4008B5044B9847044B9847044949
:1003F0000448054B984708BD99034000B5034000E9
:100400000000034024264020C9094000F0B585B013
:10041000604B9847604B9B6913F4806F03D14FF496
:1004200080625D4B1A615C4B9B6913F4803F03D182
:100430004FF48032584B1A61584A536843F40043D2
:100440005360574B10225A611A66C3F890201A6005
:1004500020221A631A611A6080225A631A611A6094
:100460004FF480721A631A611A604FF400621A63C3
:100470001A611A604FF480025A631A611A604FF0D1
:1004800080725A631A611A604FF000625A611A66EC
:10049000C3F890201A6003F5C0634FF400125A614C
:1004A0001A66C3F890201A604FF080625A631A618E
:1004B0001A60A3F560639B6913F0005F03D14FF0EE
:1004C0000052354B1A61374D374C00230293374B9E
:1004D0000193022300930A232A4635492046354ECC
:1004E000B047102305F10C0201212046324EB047DF
:1004F000102305F11C020A212046B0474FF40012D8
:10050000274B1A60012203F500731A60A3F52063DC
:10051000D3F8083113F4807F04D14FF480721E4B5E
:10052000C3F800211F4E254D00240294244B019353
:1005300001230093234606F12C02224928461D4F31
:10054000B847102306F13002214628461A4CA0472E
:1005500002221D4B1A601D4B98471D4B98471D4B9F
:1005600098471D4B98470C4B9B6913F4000F03D120
:100570004FF40002084B1A61184B9847024618497D
:100580001848194B9847194B9847194B984705B08D
:10059000F0BD00BFC914400000060E4050180E40C8
:1005A000000E0E40740140209C264020C8264020AA
:1005B00000C003406906400015074000FC264020AB
:1005C000842640200040064000100E4055024000A6
:1005D0006D024000B9024000710340004521400017
:1005E00000C0004028274020810F4000E503400064
:1005F0009D0B400008B5836903B1984708BD08B555
:10060000C36903B1984708BD2DE9F04706460F4678
:100610009146036A5C5C04EB4404E400D0F8288053
:1006200008EB040505F1040AD1B250460C4B98477B
:1006300030460C4B9847012807D94FEA19215046FC
:10064000074B9847AB8A0133AB82AB8A0133AB824D
:1006500058F8043013B1394630469847BDE8F08762
:1006600095114000351440002DE9F84F15461C4601
:100670009DF82870DDF82C8006468946002818BFB2
:10068000002914BF012000200BD0002F18BFB8F1A3
:10069000000F14BF01200020002A0CBF002000F032
:1006A0000100DFF868B03F225946DFF864A0D04768
:1006B000601C402259468742CCBF00200120D04711
:1006C0000023FF21DAB2A9540133DAB2A242F9D9E8
:1006D000356286F8244086F82570C6F82880494699
:1006E0003046064B9847034628B9054AB260054A8A
:1006F0003260054A72601846BDE8F88F2D1340003D
:1007000009064000F5054000FF054000C45A4000BE
:10071000A11040002DE9F0470E462A4F9246984618
:10072000002A18BF002B14BF0123002305466622B0
:10073000394600280CBF002003F00100224CA047DE
:1007400095F8240067223946B04234BF00200120CA
:10075000A047296A8B5DFF2B2AD195F8240000233E
:100760001C4603E00133DAB2824206D8DAB28A5C70
:10077000FF2AF7D00134E4B2F4E795F82530A3421C
:1007800019D304EB44094FEAC909A86A4844424610
:10079000514604300D4B9847024678B92B6A9C5558
:1007A000AB6A99440023A9F814301046BDE8F087DD
:1007B0006FF00C02F9E76FF01B02F6E76FF00C0226
:1007C000F3E700BFC45A4000A110400009114000E7
:1007D000F8B50D460B4F044683223946003018BF4A
:1007E0000120094EB04794F8240084223946A842DB
:1007F00034BF00200120B04729462046034B9847CC
:100800000020F8BDC45A4000A11040002914400047
:100810002DE9F8430E4614469946DFF870800546E8
:100820009C224146003018BF0120164FB84795F86A
:1008300024009D224146B04234BF00200120B84729
:10084000012C19D02CB1022C19D06FF00C00BDE88E
:10085000F8832B6A9B5DAA6A03EB430342F833904B
:1008600019F1000318BF0123224631462846064CE1
:10087000A0470020BDE8F883C5F81890F0E7C5F858
:100880001C90EDE7A110400041144000C45A400004
:100890002DE9F04782B08A461D461C1C18BF012472
:1008A000DFF8C0909046002A0CBF002304F001033B
:1008B0000646BC22494600280CBF002003F0010078
:1008C000224FB84796F82400BD224946504534BF10
:1008D00000200120B84730461D4B984795FBF0F3A8
:1008E00003FB1050BF224946B0FA80F04009B847D8
:1008F000336A13F80AA00AEB4A0AB36A03EBCA0A7E
:1009000001A8144B98470AF104094846124B98472E
:10091000074601A8114B9847B7B1ACB100210C466E
:100920000F4E0134A4B241444846B0472146A54287
:1009300001D9A742F5D8BAF814301B1BAAF8143015
:10094000204602B0BDE8F0870024F4E7A110400083
:100950003514400091094000D51140009F09400026
:1009600051114000C45A400010B50446D622054932
:10097000003018BF0120044B98472046034B98478E
:10098000002010BDC45A4000A1104000391440009E
:10099000EFF31083036072B6BFF35F8F7047BFF34E
:1009A0005F8F036883F31088704708B5C36903B18C
:1009B000984708BD08B5036A03B1984708BD08B554
:1009C000436A03B1984708BD38B504460D46002870
:1009D00018BF002914BF0120002041220849094BFB
:1009E000984729462046084B9847034628B9074AA6
:1009F0006260074AA260074AE260184638BD00BF3D
:100A0000E05A4000A110400011174000AB0940001F
:100A1000B5094000BF09400010B504465C220549F5
:100A2000003018BF0120044B98472046034B9847DD
:100A300010BD00BFE05A4000A11040001518400052
:100A400038B504460D46002818BF002914BF012000
:100A500000206E220349044B984729462046034B49
:100A6000984738BDE05A4000A110400025184000CA
:100A700038B504460D46002818BF002914BF0120D0
:100A8000002077220349044B984729462046034B10
:100A9000984738BDE05A4000A1104000E1184000DE
:100AA00070B50C461646054681220E49003018BF27
:100AB00001200D4B9847012C0FD024B1022C0ED0F1
:100AC0006FF00C0070BD2E62321C18BF012221464F
:100AD0002846064B9847002070BDEE61F4E76E6231
:100AE000F2E700BFE05A4000A1104000DD194000CD
:100AF000F8B50D4616461F460446B8220649003092
:100B000018BF0120054B98473B46324629462046F0
:100B1000034CA047F8BD00BFE05A4000A1104000C0
:100B2000251A400010B5044B1C68044B9847014639
:100B30002046034B984710BDB4014020A914400043
:100B4000C114400010B5044B1C68044B9847014683
:100B50002046034B984710BDB4014020B514400017
:100B6000C114400070B50C4B5C68A0420ED001234C
:100B700000211E46FF2503E02B465A18520804D1D7
:100B8000A042F9D93BB13146F7E770BD024B1B6873
:100B90000BB1984770BD70BDB801402008B5054B3A
:100BA0004FF0FF325A6000221A600348034B984707
:100BB00008BD00BFB8014020650B4000051C400087
:100BC00008B50D4B5B68984206D091B10A4B1B6883
:100BD00043B16FF00C0008BD074B196029B9074BF2
:100BE000984708BD044B196058600121034B984792
:100BF00008BD6FF00C0008BDB80140207D1C40000E
:100C000008B50121014B984708BD00BF7D1C40007D
:100C100008B50021014B984708BD00BF7D1C40006E
:100C200008B5436903B1984708BD08B5836903B1A6
:100C3000984708BD38B504460D46002818BF00295E
:100C400014BF0120002038220749084B9847294645
:100C50002046074B9847034618B9064A2260064AC1
:100C60006260184638BD00BFFC5A4000A110400029
:100C70001D154000210C40002B0C40002DE9F041D7
:100C80000E4690461F46002A18BF002B14BF0123B2
:100C9000002305465622134900280CBF002003F00C
:100CA0000100114B98472846104B984704462846A8
:100CB0000F4B984700FB04F0B0420BD3BB1998428E
:100CC0000CD33B464246314628460A4CA0470020FA
:100CD000BDE8F0816FF00D00BDE8F0816FF00D0010
:100CE000BDE8F081FC5A4000A110400069154000A9
:100CF0006F154000751540002DE9F0410E469046F5
:100D00001F46002A18BF002B14BF012300230546ED
:100D10006A22184900280CBF002003F00100164B7E
:100D200098472846154B984704462846144B984741
:100D300000FB04F0B04210D3BB19984211D33146E6
:100D40002846104B984780B93B46424631462846D4
:100D50000D4CA0470020BDE8F0816FF00D00BDE80C
:100D6000F0816FF00D00BDE8F0816FF01000BDE87C
:100D7000F08100BFFC5A4000A110400069154000FE
:100D80006F154000C9164000AD15400008B5436915
:100D900003B1984708BD08B5836903B1984708BDFA
:100DA00038B504460D46002818BF002914BF01209D
:100DB000002033220649074B984729462046064B18
:100DC0009847064B2360064B6360002038BD00BF88
:100DD000145B4000A1104000D91D40008D0D400063
:100DE000970D400010B504464A220949003018BF4B
:100DF0000120084B98472046074B984720B92046CA
:100E0000064B9847002010BD6FF0100010BD00BFCA
:100E1000145B4000A1104000D51F4000251F40007A
:100E200070B50D46164604467C220649003018BFB0
:100E30000120054B9847324629462046034B9847E8
:100E4000002070BD145B4000A1104000711F4000E5
:100E500038B504460D46002818BF002914BF0120EC
:100E6000002031220349044B984729462046034B72
:100E7000984738BD2C5B4000A11040000520400081
:100E800010B504463F220549003018BF0120044B2D
:100E900098472046034B984710BD00BF2C5B40008D
:100EA000A11040003D204000F8B5844607682FB1EE
:100EB0008D683C460026C2F1010E0BE00E4B9847B0
:100EC000F8BD7344A0680344AB420AD223682646A7
:100ED00053B11C4663689342F3D8A06803449B1A3D
:100EE000F2E7A74204D034462046044B9847F8BDA9
:100EF0006046014B9847F8BDC9104000F51040000E
:100F00002DE9F0474469076901370761037E13F053
:100F1000010F13D1037E13F0020F0FD154B3636896
:100F2000FB1AA268934207D3064600F11408DFF8C3
:100F30004890DFF848A012E0BDE8F087037E43F058
:100F400002030376BDE8F0877569E3682046984799
:100F500085B12C466B68FB1AAA6893420AD34046B7
:100F6000C847237C012BEFD167603A4621464046B3
:100F7000D047E9E7BDE8F087FD104000A90E40002A
:100F800038B504460D46002818BF002914BF0120BB
:100F900000203B220549064B984729462046054B31
:100FA000984700202061044B236038BD485B400017
:100FB000A110400049204000010F400010B5044638
:100FC00053220949003018BF0120084B984720469A
:100FD000074B984720B92046064B9847002010BD84
:100FE0006FF0100010BD00BF485B4000A110400032
:100FF000192140001121400070B582B004460D4611
:10100000002818BF002914BF012000207A221D49A2
:101010001D4B9847237E43F00103237604F1140609
:1010200029463046194B984788B923696B60226975
:1010300029463046164B9847237E03F0FE0323765D
:10104000237E13F0020F0ED1002002B070BD237E6C
:1010500003F0FE0323767F220A4900200A4B9847BB
:101060006FF01100F1E701A80A4B9847237E03F0C7
:10107000FD0323762046084B984701A8074B984765
:101080000020E2E7485B4000A1104000A7104000AC
:10109000A90E400091094000252140009F09400011
:1010A00000B900BE704703684BB18B4209D01B6882
:1010B0001BB19942FBD101207047002070470020EE
:1010C000704701207047000038B504460D46064BB6
:1010D000984780F0010039220449C0B2044B984778
:1010E00023682B60256038BDA7104000605B40007E
:1010F000A110400003680B600160704703680BB1EA
:101100001A6802601846704770B50E4615460029E9
:1011100018BF002A14BF01230023044628220A49CD
:1011200000280CBF002003F00100084B98476B1EFD
:101130001D4205D163600020A060E060266070BDA4
:101140006FF00C0070BD00BF805B4000A11040003C
:1011500038B504460D46002818BF002914BF0120E9
:101160000020402209490A4B9847A368E2689A4246
:1011700009D0626813402268D35C2B70A3680133E6
:10118000A360002038BD6FF0090038BD805B4000CF
:10119000A110400038B50D46044651220B490030DD
:1011A00018BF01200A4B9847E36862681340226821
:1011B000D554E3686168A2689A1A8A4201D9591A1B
:1011C000A1600133E360002038BD00BF805B4000B8
:1011D000A110400010B5044667220549003018BF31
:1011E0000120044B9847E068A368C01A10BD00BFF7
:1011F000805B4000A11040004069064B984207D038
:1012000003F5203398420CBF28204FF0FF30704781
:101210001D20704700C0034010B4184B642202FB2D
:1012200001F15A185468446094688460D468C460BA
:10123000146904615469046594694465D469046659
:10124000146AC0F89440546AC0F8A040946AC0F888
:10125000D040D46AC0F8D440126BC0F8D8203031E6
:1012600019440023436651F8042FC26601330C2B46
:10127000F8D100205DF8044B704700BFA45B40002C
:1012800070B582B005464269116BD36A0B40019379
:10129000019B13F0806F2BD1019B13F0007F2BD1AA
:1012A000019BC3F30B030193019CB4FA84F4C4F1D2
:1012B000200414F0FF0419D00126013CE4B26B694C
:1012C0005C666B699A6EAB6892B221462846984775
:1012D000019B06FA04F423EA04040194019CB4FA85
:1012E00084F4C4F1200414F0FF04E6D102B070BD10
:1012F000036800219847CFE76B680021284698478C
:10130000CEE7000008B5024B1868024B984708BDAD
:10131000C00140208112400008B5024B5868024BC2
:10132000984708BDC00140208112400038B50C46E6
:1013300005464FF4A1723449003018BF0120334BE9
:101340009847334B9C4254D003F520339C420CD039
:10135000A7222D4900202D4B9847002120462D4BD8
:101360009847034618B1184638BD0121F6E76C616D
:10137000274B9C4245D0284B9C4231D02846274BD6
:10138000984700282FDB430900F01F00012202FAD2
:1013900000F02033224A42F82300BFF34F8FBFF3FF
:1013A0006F8F28461D4B984700281EDB430900F02D
:1013B0001F00012202FA00F06033194A42F82300AC
:1013C0002846164B9847002811DB420900F01F0001
:1013D000012303FA00F0124B43F822000023C2E776
:1013E000104B5D60CAE70023BDE70023BBE7002385
:1013F000B9E700212046074B984703460028B2D1A1
:101400006C61084B1D60B9E76C5C4000A1104000A6
:1014100000C003401912400000400640F91140008E
:1014200000E100E0C00140204269012303FA01F11C
:101430005161704702207047436902221A60704769
:101440004069012A08D0022A0FD022B9B3B901237A
:1014500003FA01F1816270471BB94FF08063836228
:1014600070474FF08063436270471BB94FF00073C1
:10147000836270474FF0007343627047012303FAA1
:1014800001F141627047000043B2002B09DB5B09A8
:1014900000F01F00012202FA00F04033014A42F836
:1014A0002300704700E100E04FF4967303FB00F067
:1014B00070470000014B03FB00F07047E09304000D
:1014C0000139FDD87047000000B583B001A80E4B6C
:1014D00098470E4AD2F8883043F47003C2F8883037
:1014E000BFF34F8FBFF36F8F01A8094B9847094A8D
:1014F000136823F4706343F4A0631360064B9847AA
:1015000003B05DF804FB00BF9109400000ED00E06E
:101510009F094000000C0E40DD1C400038B5044619
:101520000D46002818BF002914BF012000206D229D
:1015300009490A4B98472561094B1C60094B402219
:10154000C3F88020BFF34F8FBFF36F8FC3F88021A4
:101550001A60002038BD00BF845C4000A11040002C
:10156000C801402000E100E04FF4007070474FF4E4
:101570008060704770B50C4616461D46C818AB22F1
:101580000749B0F5002F2CBF00200120054B9847DC
:101590002A4604F580013046034B984770BD00BFD2
:1015A000845C4000A1104000AD5A40002DE9F04F8E
:1015B00087B004910192002B79D09A468A44514514
:1015C00075D2BAF5804F34BF4FF4007B4FF4005B07
:1015D000CBF1000205928946364B04330393364F14
:1015E000029023E05A4601990398344B9847BBF583
:1015F000007F4DD0AC4211D22E4B03F104084FF0C6
:101600000009029E4346620A49463069B84704F51C
:10161000007408F50078A542F4D80296049BEB1AF2
:10162000019A1A440192A946AA4540D9059B03EAAA
:1016300009040BEB04054C4532D21FFA89F3A5EBE4
:1016400003081FFA88F8AA4506D2B8F1000F29D07E
:10165000AAEB03081FFA88F8B8F1000FC2D05B4666
:10166000039A21460298164EB047A9EB0400424661
:101670000199039B1844114B9847BBF5007F07D095
:10168000610A41F00201029B18690E4B9847B1E7CD
:10169000039B4FEA5922012102980069B847BDE730
:1016A000AA459FD2AAEB04081FFA88F8D4E707B02E
:1016B000BDE8F08FC801402021004020AD5A400015
:1016C0007515400001004020890B0369084A5A60E3
:1016D0000269936813F0010FFBD01F2900D9D3686A
:1016E000D06801F01F01C84000F00100704700BF42
:1016F0000A00005A08B5054B186803699B6813F087
:10170000010F02D0036803B1984708BDC80140200B
:1017100010B401608B6943F001038B610268936927
:1017200013F0010FFBD0936943F002039361324B36
:10173000994212D00268936923F002039361026810
:10174000936923F0010393610268936913F0010F19
:10175000FBD100205DF8044B7047284B8361036880
:101760009A699A610368264ADA61036802F1306275
:10177000DA600268234B9BB243F44813C2F8A030EE
:1017800003680021C3F8BC100368C3F8C8100268DE
:101790001D4B9BB243F02063C2F8C03004681B4A63
:1017A00093B243F40033C4F8F03003682B24C3F839
:1017B0008040046802F110039BB243F48023C4F814
:1017C0008430046802F120039BB243F48023C4F800
:1017D00088300368C3F8901010640D4B0822C3F8DA
:1017E0008420BFF34F8FBFF36F8FC3F884215A60FB
:1017F00003680122DA659DE7000003406000402095
:10180000330A040044274020642A4020CC21402091
:1018100000E100E00268936923F001039361002076
:10182000704700000368D3F8A42012F07F0F49D05E
:10183000274A934202D06FF01B00704730B585B045
:101840001446D2F8A430C3F305231B01214AD4F86F
:10185000A400D4F8A85025F03F05C0F30520284384
:10186000C4F8A8009D1830D0985810F0804F1FD1B0
:10187000002048739858C0F38A4008609B5813F0C2
:10188000005F1CD10C46144B0FCB0DF1100E0EE96E
:101890000F006B68C3F30343734413F8102C2273D7
:1018A00005F10801A0680D4B9847002005B030BD38
:1018B000012048739858C0F31C000860DEE701233C
:1018C0000B71DFE76FF0090070476FF01B00EDE769
:1018D00000000340442740209C5C4000AD5A40007B
:1018E00038B50368D3F8C42012F4001F6AD1384A0F
:1018F000934202D06FF01B0038BDD2F8C420C2F36F
:1019000004421201334C15195FD04B7B012B1BD0C5
:101910000B689B0413510B7B082B1CD86A6863F37C
:1019200013426A6004460A7B896805F108002A4B65
:1019300098472168D1F8C420C2F3044201239340A0
:10194000C1F8D030002038BD0B681351135943F053
:1019500080431351DFE70C2B05D86B68092262F333
:1019600013436B60DEE7102B05D86B680A2262F325
:1019700013436B60D6E7142B05D86B680B2262F318
:1019800013436B60CEE7182B05D86B680C2262F30B
:1019900013436B60C6E7202B05D86B680D2262F3FA
:1019A00013436B60BEE7302B05D86B680E2262F3E1
:1019B00013436B60B6E7402BB4D86B6843F47023D5
:1019C0006B60AFE76FF01B0038BD6FF01B0038BDD8
:1019D00000000340642A4020AD5A400021B1012993
:1019E00009D0022914D0704701684B6D23F0010320
:1019F0001A434A65704701684B6D23F4007343EA4C
:101A000042224A6503684FF0FF32C3F8E020704776
:101A10000268536D23F4FF739B059B0D43F06073C5
:101A20005365E0E78069F2B9C268CBB1586842F803
:101A30002100186852F8213060F31A4342F821302F
:101A400052F82130022060F39F7342F8213052F89F
:101A50002130012060F3DD6342F82130002070471F
:101A600042F82130FAE730B4012A02D0002030BC1D
:101A70007047026902EBC1008BB11C6842F831402B
:101A800052F83140012565F35F7442F831405B68DC
:101A900043604368022262F39F734360E6E742F8C3
:101AA0003130E3E738B51D4B1D6C2B681C6D14F00D
:101AB000010F1CD114F4007F1DD114F0007F1ED142
:101AC00014F0807F20D114F4000F0AD0EA682B684C
:101AD0005B6C03F02003002B14BF02210121284678
:101AE000904714F0080F14D12B681C6538BDAB6803
:101AF00028469847DEE76B6828469847DDE7EB689D
:101B0000032128469847DBE7EB68002128469847E1
:101B1000D9E7EB68042128469847E5E7CC21402027
:101B2000D9B130B40D460438002450F8041F11F028
:101B3000010F0DD10123022211420AD152000133BB
:101B4000202BF9D10134AC42EFD14FF0FF3002E04D
:101B5000002303EB441030BC70474FF0FF30704758
:101B60002DE9F04186B0002301930293039304937F
:101B700005931F4B1868F8221E49003018BF01203A
:101B80001D4B98471D4AD36C926C134001935BB375
:101B90001B4D174FDFF86480052101A8A84744B208
:101BA000B4F1FF3F18D0012620463B6898476311E7
:101BB00006AA02EB830304F01F0406FA04F453F8A8
:101BC000142C22EA040443F8144C052101A8A84768
:101BD00044B2B4F1FF3FE7D1D8F84C30D8F84820F0
:101BE00013400193002BD7D106B0BDE8F08100BFB0
:101BF00010224020AC5C4000A1104000000E0E40BE
:101C0000211B4000F8B50746174D4FF4AA7229462C
:101C10000120164CA047E02229460120A047D222ED
:101C200029460120A047124B0822C3F8B020C3F870
:101C3000C0200026C3F8C460C3F8D060C3F8D42025
:101C4000D22229460120A0470A4B4FF48062C3F8F4
:101C50008020BFF34F8FBFF36F8FC3F880211A60CE
:101C6000054B1F603046F8BDAC5C4000A110400041
:101C7000000E0E4000E100E0102240202DE9F0416E
:101C800004460F46DFF8508040F2A11241469F28DB
:101C90008CBF002001200E4EB047E5B2C322414662
:101CA0009F2D8CBF00200120B0476D09094B03EB2D
:101CB000452504F01F0437B9012303FA04F46C64CA
:101CC0000020BDE8F081012303FA04F42C64F7E757
:101CD000A1104000000E0E40AC5C40002D490A6A85
:101CE00022F002022C4B13430B620A46936E13F050
:101CF000010FFBD0274B196A284A0A431A62996AD6
:101D0000274A0A409A62274A9A621A46936E13F04B
:101D1000020FFBD04FF471021E4BDA611A46936E2C
:101D200013F0400FFBD01B4A136B23F400531363D3
:101D3000936E13F0080FFBD0164A136B23F0700359
:101D40001363936E13F0080FFBD0124A136B23F446
:101D5000407343F480731363936E13F0080FFBD04A
:101D60000C4A136B23F0030343F002031363936ED7
:101D700013F0080FFBD040F27312064B5A651A4657
:101D8000936E13F4807FFBD04FF40052014B1A6026
:101D9000704700BF00060E40013E370000003701CB
:101DA000FFFF00F8013F1820034B044A90420CBF8C
:101DB00018460020704700BFC85C400000C00540C6
:101DC00008B5044B18680369DB6913B1036803B1F4
:101DD000984708BD14224020F8B505460C46081C5B
:101DE00018BF012040F271124849494B98472046DC
:101DF000484B98472C6183682360C368E367036995
:101E0000C4F880304369E3658369A366C369C4F895
:101E1000C030036AE366436AC4F82C34836AC4F8AA
:101E20004C34C36AFBB100231A461B01076B07EB56
:101E3000030EDEF80460F95C103149016650DEF8EB
:101E40000C60F95C103104EB41114E60DEF80810B3
:101E5000FB5C04EB4313C3F80C12013252B213467D
:101E6000C16A8A42E1D3436BDBB100231A4603EB1C
:101E70004303816B01EB830EDEF8047011F82360DD
:101E800004EB0616C6F83871DEF8086011F8233046
:101E900013331B01E650013252B21346416B8A42A2
:101EA000E5D31D4B9C422ED090F90430002B28DB4B
:101EB0005A0903F01F03012101FA03F320321749E5
:101EC00041F82230BFF34F8FBFF36F8F90F904308A
:101ED000002B16DB5A0903F01F03012101FA03F35B
:101EE00060320E4941F8223090F90430002B08DBB3
:101EF000590903F01F03012202FA03F3074A42F8CB
:101F000021300020F8BD064B1D60CDE7245D400068
:101F1000A1104000A91D400000C0054000E100E004
:101F20001422402070B504464FF4D4720D4900309D
:101F300018BF01200C4B984720690C4B9847C36A87
:101F40007BB10022134601262169056B1201AA5CB0
:101F500006FA02F24A6001335BB21A46C16A8B424A
:101F6000F2D370BD245D4000A1104000A91D4000C7
:101F7000F8B50D461646044640F2C512124900282F
:101F800018BFAE4234BF01200020104B9847206993
:101F90000F4B9847C36AB3B100221346216912015F
:101FA000076BBF5C01EB4711C1F808622169076B41
:101FB000BA5C01EB4212C2F810520133DBB21A468E
:101FC000C16A8B42EAD3F8BD245D4000A1104000F5
:101FD000A91D400010B5044640F2D1120649003058
:101FE00018BF0120054B98472369D86810F00F00EF
:101FF00018BF012010BD00BF245D4000A1104000AB
:102000000020704738B505460C46002818BF002947
:1020100014BF0120002041220649074B98472C603D
:10202000802323601123636041F2021323620020A6
:1020300038BD00BF3C5D4000A11040000368012294
:102040001A60002070470000F8B507460D462A4B7D
:102050001B68294C994218BF0024A668C1609122D0
:1020600026490120264B984716F4004F18BF46F426
:1020700014266E6063696B61A369AB61E3682B63CF
:10208000E369EB6110236B622369C5F8D8301D4BFF
:102090009D422ED094F90430002B28DB5A0903F01E
:1020A0001F03012101FA03F32032174941F82230BE
:1020B000BFF34F8FBFF36F8F94F90430002B16DB03
:1020C0005A0903F01F03012101FA03F360320E499C
:1020D00041F8223094F90430002B08DB590903F051
:1020E0001F03012202FA03F3074A42F821300020BD
:1020F000F8BD064B1F60CDE774004020545D4000E2
:10210000A110400000C0004000E100E02422402077
:10211000C36805221A607047C368186AC0F300409C
:102120007047000008B5C168044B1A68914218BF97
:1021300000231879024B984708BD00BF7400402067
:10214000891440000020704708B5054B1868C36823
:102150001B6A13F0100F00D108BD03689847FBE716
:1021600024224020704770470122014B1A707047AB
:10217000282240200D4BDB6B13F0100F0BD00C4BC3
:102180005B881BB213F1050F0FDB094A5388013B33
:102190001BB253807047064B5B881BB2052B04DCD7
:1021A000034A538801331BB253807047000E0E4020
:1021B0002822402010B50223044A00210448054C7F
:1021C000A0470122044B1A7110BD00BF202D4020F2
:1021D000FC264020910840002822402010B5022310
:1021E000044A0A210448054CA0470122044B5A71B5
:1021F00010BD00BFF42B40209C26402091084000D9
:102200002822402010B50223044A01210448054C2D
:10221000A0470122044B9A7110BD00BF182D402029
:102220009C26402091084000282240200000000009
:1022300070B582B00320524B9847524C63881AB253
:102240004FF4FA6303FB02F307EE903AF8EEE77AF5
:10225000C4ED027AD4ED027AD4ED036A94ED047AE7
:10226000494D95ED006A67EE867A95ED016A66EE56
:10227000866A77EEA67AD5ED036A27EE267A77EEA0
:10228000C77AC4ED057A94ED057AD4ED047A77EE39
:10229000677A17EE900A3D4B984737A3D3E900239E
:1022A0003B4EB0473B4B9847A061D4ED067AD4ED46
:1022B000076A94ED087A95ED046A67EE867A95EDE3
:1022C000056A66EE866A77EEA67AD5ED076A27EE8E
:1022D000267A77EEC77AC4ED097A63692361A36829
:1022E000E360636A2362A369E36194F82830022BF8
:1022F00039D9244B002283F82820D3ED097AFDEE4A
:10230000E77ACDED017ABDF90410D3ED057AFDEE43
:10231000E77ACDED017ABDF90420002A27DD90B2DD
:1023200043F6982313449BB2164C012284F82920CB
:10233000194A1070000A5070937043F30723D3704A
:102340006388137151710912917114491448154B26
:1023500098470C4B5A885A8500225A800320124B0A
:10236000984702B070BD013384F82830F1E750423D
:1023700080B2D5E7AFF30080DFE00B93A9AA50400D
:10238000110C400028224020980040205953400062
:1023900001544000C55940007C2D4020542B402062
:1023A00024264020710A4000010C400010B4524A1B
:1023B000524B9A60524B03F10801002203F8012F9F
:1023C0008B42FBD14F4A504B1360002313714F498E
:1023D000916008211173012050734D490B704B70AF
:1023E0004C4A40F201341460137191600221117360
:1023F000507349490B704B708B70CB70474A40F259
:102400000234146013719160042313735073444BAE
:10241000D91D002203F8012F8B42FBD1414B40F222
:1024200003321A6000221A713F4A9A6007221A7317
:1024300001225A733D4B03F10801002203F8012FDA
:102440008B42FBD13A4940F205330B6000230B71FC
:10245000384A8A6008220A7301224A733648027099
:10246000364940F299340C600B7188600A734A73E4
:1024700033480370437033494FF448740C600B7158
:102480008860022008734A732F480370437083707A
:10249000C3702E4940F219340C600B71886004231C
:1024A0000B734A732A4BD91D002203F8012F99425E
:1024B000FBD1284B40F211321A6000211971264AD3
:1024C0009A6007221A7301225A7324480170244B20
:1024D00040F232341C60197198601A735A732148A3
:1024E0000170214B4FF466741C60197198601A7367
:1024F0005A735DF8044B7047B42B4020542C402095
:10250000632B4020242B402007070400642B40202D
:102510002C2D4020442C4020902C4020302D402059
:102520007B2D4020542B40207C2D4020232D40200B
:10253000402D4020242D4020002D4020FC2B402009
:10254000642C4020BC2C40201C2D4020442B4020DB
:10255000672C4020342B4020682C4020142D402034
:10256000042D4020CC2C40200C2C4020F8B5094BE9
:1025700001241C6000255D60074F2246294638462D
:10258000064EB047064B1C605D602A462146384621
:10259000B047F8BD942C402024264020F10A40008A
:1025A000D02C4020F8B504460F464FF40062144B7F
:1025B0005A630120134B9847134BDC601B6913F0DF
:1025C000040F08D104260F4D0F4C3046A84723694D
:1025D00013F0040FF9D00C4BDF601B6913F0040FEC
:1025E00008D10126074D084C3046A847236913F04F
:1025F000040FF9D04FF40062014B1A63F8BD00BF1D
:10260000000E0E40250B400000C0074010B44FF4F0
:102610000062214B5A6340F08000204BD8601A467C
:10262000136913F0040FFBD000221C4BDA601A462A
:10263000136913F0040FFBD0184A136913F0010F4C
:10264000FBD0164B9868144A4FF400641463C0B270
:10265000546341F08001D9601A46136913F0040FE6
:10266000FBD000220D4BDA601A46136913F0040FF9
:10267000FBD00A4A136913F0010FFBD0074B9B688C
:102680004FF40061044A11631BB240EA032000B218
:102690005DF8044B704700BF000E0E4000C00740BD
:1026A00010B52C4B93F82C30DBB2072B12D9294BE9
:1026B00093F82D30DBB2072B1CD9264B93F82E3024
:1026C000DBB2072B26D9234B93F82F30DBB2072B35
:1026D00030D910BD1F4A92F82C40E4B2631CDBB223
:1026E00082F82C30272126201B4B98471B4B43F8A0
:1026F0002400DCE7174A92F82D40E4B2631CDBB2F9
:1027000082F82D302B212A20134B9847144B43F885
:102710002400D2E70F4A92F82E40E4B2631CDBB2E9
:1027200082F82E30292128200B4B98470D4B43F877
:102730002400C8E7074A92F82F40E4B2631CDBB2DA
:1027400082F82F302D212C20034B9847064B43F85D
:102750002400BEE7282240200D2640008C2B40207C
:102760001C2C4020542D4020D82C402010B5802116
:1027700010200B4CA0470A200A4B984740211220FA
:10278000A0470023084C1A460848094944F823206A
:1027900040F8232041F823200133082BF6D110BD47
:1027A000A5254000450B40001C2C4020542D402006
:1027B000D82C402008B5084B5A6822F001025A6014
:1027C0001A6A22F001021A621A6A22F002021A62DE
:1027D0000248034B984708BD00C00740F826402038
:1027E000810E400070B5244C0123A363234AE263A9
:1027F00084F840300A22E264214A226584F8543089
:102800000F2222661F4A626684F8683032226267AD
:102810001D4AA26784F87C304FF41672C4F88820F1
:102820001A4AC4F88C2084F890306422C4F89C20A2
:10283000174AC4F8A02084F8A430164D04F13001E2
:102840002846154EB04704F144012846B04704F12C
:1028500058012846B04704F16C012846B04704F1FE
:1028600080012846B04704F194012846B047284625
:102870000A4B984770BD00BF28224020A126400087
:10288000414940003122400069414000493F400039
:10289000A93B400028274020F90F4000BD0F400011
:1028A000784B93F8A830002B00F0EB80764B93F830
:1028B0002030002B00F0E580724B93ED2B7A734BA8
:1028C0001B8807EE903AF8EEE77AF4EEC77AF1EE5D
:1028D00010FA5FDB6B4B93F8B0305BBB694B0122A6
:1028E00083F8B0200021684A82F82110B3F9B23091
:1028F0008B4240F39D800121624A82F8B410002B84
:10290000C0F2A5805F4B93ED057ADFED617AB4EEFE
:10291000E77AF1EE10FA40F1A580002283F8B820A2
:1029200093F8B430002B40F0A7800022554B83F879
:10293000BC207047534B93F8B430A3B9514BB3F854
:10294000B630023307EE903AF8EEE77AB4EEE77A63
:10295000F1EE10FA07DD01224B4B83F82120002213
:10296000484B83F8B020474B93F8B8303BB901226D
:10297000454B83F822200022424B83F8B920414B7B
:10298000B3F9B230002B53DD3F4A92F82120002AE0
:10299000B1D04DE03F4B1B8807EE903AF8EEE77A56
:1029A000B4EEE77AF1EE10FA33DB364B93F8B93038
:1029B00043B90122334B83F8B9200022324B83F80C
:1029C0002220DCE72F4B93F8B830A3B92D4BB3F896
:1029D000BA30023B07EE903AF8EEE77AB4EEE77AC7
:1029E000F1EE10FA07D50122274B83F822200022AE
:1029F000244B83F8B920234B93F8B430002BBED17D
:102A00000122214B83F8212000221E4B83F8B020A5
:102A10000BE01D49012081F821001A4B002283F8A8
:102A2000B02081F8220083F8B920164BB3F9B230F8
:102A3000144A92ED057ADFED187AB4EEE77AF1EEFA
:102A400010FA7FF75CAF002182F8B41057E70E4B05
:102A500093F82230002B7FF455AF0122094B83F805
:102A6000B82009E0074B93F8B4302BB9054B93F825
:102A7000B830002B3FF459AF0122024B83F8BC2041
:102A8000704770472822402098004020CE2C4020DC
:102A900000009643502D40200000C8C3624BB3F89D
:102AA000B620022A62D993ED2B7A931E07EE903A54
:102AB000F8EEE77AF4EEC77AF1EE10FA07DD0021BE
:102AC0005A4B83F822100121574B83F8B910564B0B
:102AD000B3F8BA3007EE903AF8EEE77AB4EEE77A58
:102AE000F1EE10FA07DD0021504B83F8221001218E
:102AF0004D4B83F8B9104C4BB3F8BA30C3F5B471F1
:102B000002296CDD484991ED2B7A023307EE903AA9
:102B1000F8EEE77AF4EEC77AF1EE10FA4CD5002120
:102B2000424B83F8211001213F4B83F8B01007EE90
:102B3000902AF8EEE77AB4EEE77AF1EE10FA07D5CC
:102B400000223A4B83F821200122374B83F8B02032
:102B50000122354B83F8BD20334B93F8B930002B5D
:102B60005CD10022304B83F8BE2070472E4B93ED92
:102B70002B7AB3F8BA3007EE903AF8EEE77AF4EE33
:102B8000C77AF1EE10FAB6D5DFED297A37EEC77ABB
:102B9000C2F1020307EE903AF8EEE77AB4EEE77A74
:102BA000F1EE10FAA7DD0021204B83F8221001215D
:102BB0001D4B83F8B9109EE707EE902AF8EEE77AEE
:102BC000B4EEE77AF1EE10FABAD4174B93F8B030BE
:102BD000002BBDD10022144B83F8BD20BCE7124965
:102BE00091ED2B7A07EE902AF8EEE77AF4EEC77AA9
:102BF000F1EE10FAE9DDA3F5B37307EE903AF8EEC3
:102C0000E77AB4EEE77AF1EE10FADEDD0022074B48
:102C100083F82120012281F8B02099E70122024B9C
:102C200083F8BE20704700BF282240209800402033
:102C30000000B443000000002DE9F8432DED028BA5
:102C40007B4B93F82930002B67D0794B93ED057AB5
:102C5000DFED787AB4EEE77AF1EE10FA61D593F809
:102C6000B030002B59D1724C94ED058A724E68EE4B
:102C7000087A17EE900AB047704D67A3D3E9002396
:102C8000A84780468946F1EE487A17EE900AB04789
:102C900063A3D3E90023A847694D02460B4640468B
:102CA0004946A84700224FF08043A847654B984704
:102CB00085B2A4F8C05094ED097ADFED637AB4EEE2
:102CC000E77AF1EE10FA17D5606A80F00040B0475D
:102CD00055A3D3E90023594EB04706460F46284670
:102CE0005A4B984702460B4630463946544DA84742
:102CF000544B9847A4F8C0004D4BB3F8B620B3F836
:102D0000C0100A4452490A80B3F9B230002B04DBE8
:102D1000474BB3F8BA204F4B1A80BDEC028BBDE88D
:102D2000F883434B93ED057ADFED4B7AB4EEE77A07
:102D3000F1EE10FA5ADD93F8B930002BEDD13C4C8E
:102D400094ED058A3C4E68EE087A17EE900AB0477B
:102D50003A4D31A3D3E90023A8478046894618EEAF
:102D6000100AB0472EA3D3E90023A847344D0246EA
:102D70000B4640464946A84700224FF08043A847EB
:102D8000304B984785B2A4F8C05094ED097ADFED36
:102D9000337AB4EEE77AF1EE10FA15DD606AB047E7
:102DA00021A3D3E90023254EB04706460F46284607
:102DB000264B984702460B4630463946204DA847D9
:102DC000204B9847A4F8C000194BB3F8BA20B3F8C9
:102DD000C010521A1F490A80B3F9B230002B9CDC94
:102DE000134BB3F8B6201A4B1A8096E7104B93F8A2
:102DF000B03023B90E4BB3F8B620154B1A800C4BEC
:102E000093F8B930002B88D1094BB3F8BA20114B95
:102E10001A8082E7AFF3008033F5866228518F3E37
:102E2000E94338E2A0EF643FFA7E6ABC7493683FDE
:102E300028224020000020C2595340000154400085
:102E40009D5040008559400000007AC43553400031
:102E5000CE2C4020502D40200000204200007A441B
:102E6000284B9B8C834207D2264BB3F850308342C9
:102E700043D9244B586D7047224BB3F84E308342F0
:102E800008D9204BB3F8AC30834238D21D4BD3F86D
:102E9000A8007047F0B41B4C04F124034E34002208
:102EA00002E00132A34225D033F8021B8842F8D257
:102EB000571C1D88A842F4D3124B03EB820696EDF3
:102EC000156A03EB8707D7ED157A77EEC67A6D1A88
:102ED00007EE105AB8EEC77AC7EE876A401A07EEB7
:102EE000900AF8EEE77A66EEA77A77EE867A17EE22
:102EF000900A00E00020F0BC704703487047024889
:102F0000704700BF980040200000C6C2044B184420
:102F100090F8C43090F8C50043EA002000B2704732
:102F20002822402010B54FF40073034A0349044897
:102F3000044CA04710BD00BFEC22402020A1070098
:102F4000682640207D0C400010B54FF40073034A02
:102F500003490448044CA04710BD00BFEC224020A8
:102F600020A1070068264020F90C40000000000066
:102F7000A14B002283F8C42293F8C5323BB9012249
:102F80009D4B83F8C5224FF080629C4B1A639C4A8C
:102F9000936B03F48003D94301F4800111635363FD
:102FA000984B1B6841F20502934200F071832DE9B2
:102FB000F04738D9944A934200F0CB817DD841F252
:102FC0002102934200F09183B3F1011F73D18A4B28
:102FD00093F8A8301BB10122874B83F8DC22864B83
:102FE0000022A3F8BA20A3F8B620A3F8D222A3F8AF
:102FF000DE22A3F8E02283F8C42083F8C52083F8FA
:10300000C62083F8C72083F8C92083F8CA2083F834
:10301000CB2083F8CC2083F8CD2083F8CE207B4BC7
:103020009847BDE8F08740F20312934200F06881B0
:10303000B3F5827F1BD340F21112934200F03F811F
:1030400041F20102934234D16E4B9A685178137861
:103050000B440133DBB2684880F8C632907898425E
:1030600060D00022644BA3F8B220BDE8F08740F2A4
:10307000011293421BD1634B9A6850789178137870
:10308000034405330B44DBB25B4C84F8C632D4787E
:103090009C4200F0C580584B93F8CE32042B00F2CE
:1030A00008810133544A82F8CE32BDE8F087BDE88A
:1030B000F087BDE8F087BDE8F087554A934200F0FD
:1030C000FD82544A93422BD100224B4B83F8F522C8
:1030D0004C4B9B681A78012A00F01483022A00F0F6
:1030E0001F835A78002A40F029839A78002A40F0FA
:1030F0002F83DA78002A40F035831A79002A40F0CD
:103100003B835A79002A40F041839B79002B40F0A1
:103110004883394B93F8F532002B00F0D98249E30C
:10312000BDE8F087374B1B7B032B9AD1324B002035
:1031300083F8C70293F8C83223B11378E82B01D182
:10314000032935D02C4B93F8C932002B4DD151783F
:10315000137843EA0123A3F57A731BB2264AA2F837
:10316000B2302D4AB2F9AE207AB34BBB00222A4BC3
:10317000A3F8AE20204AB2F9B230B2F8CA22002138
:103180001D4A82F8CC121C4AA2F8CA3292F8CC32FC
:10319000DBB20A2B40F29C8213460022A3F8B22035
:1031A000012283F8C82205221C4B1A71BDE8F08762
:1031B000114B83F8C80293F8C812184B1971C1E774
:1031C00000220D4BA3F8B220D4E70B4AB2F8CA2272
:1031D00012B2002BD3D09342D1D1074991F8CC221F
:1031E0000132D2B281F8CC22CDE70022024BA3F803
:1031F000B220BDE8F08700BF2822402000140E4016
:10320000000E0E40542C402003000100492F4000C6
:10321000060001000609050098004020682C4020A7
:10322000AD4B1B7B042B7FF436AFAC4B83F8CD1238
:1032300071BB1946002381F8CE32137843EA00238C
:103240005B42C3F30D03A1F8D03291F8A8203AB144
:103250000A46B1F8D2125B1AC3F30D03A2F8D032BA
:103260009E4CB4F8D00207EE900AF8EE677A17EE9B
:10327000900A9B4B98479B4D00229B4BA8470022EE
:103280009A4BA8479A4B9847C4F8AC00BDE8F08722
:10329000924B93F8CE32042B05D801338F4A82F833
:1032A000CE32BDE8F08701228C4B83F8D422BDE8F2
:1032B000F0870122894B83F8D422BDE8F087864B42
:1032C0009B681B78854A82F8D53292F8A82042B1D3
:1032D0003BB10021814AA2F8B2100121854AA2F82F
:1032E000AE107E4A92F8D622002A00F0F181002B1F
:1032F00040F0EE810022794B83F8D622BDE8F087BA
:10330000764B93F8D532F3B9734B9B685A7818789B
:1033100040EA022000B207EE900AF8EEE77A17EED4
:10332000900A6F4B98476AA3D3E900236D4CA047DE
:103330000022714B714CA0476D4B9847674BC3F807
:10334000D802BDE8F0870022644BC3F8D822BDE85C
:10335000F087614B1B7B012B40F0BA815E4B9B6871
:103360001B78013B0B2B00F2B381DFE813F00C005C
:103370003100B101B101B101B10156008500B101C7
:10338000B101A200F400554B93F8D532BBB9534BB1
:1033900093F8E2329BB95A4A012313704F4B93F8CA
:1033A000A8105170D3ED2B7AFCEEE77A17EE902A35
:1033B000A3F8E422B3F8D022A3F8E62202E0002228
:1033C0004F4B1A704F495048504B9847BDE8F08713
:1033D000424B93F8D532BBB9404B93F8E2329BB9DC
:1033E000474A012313703D4B93F8A8105170D3ED59
:1033F0002B7AFCEEE77A17EE902AA3F8E822B3F8CE
:10340000D022A3F8EA2202E000223D4B1A703D4987
:103410003D483E4B9847BDE8F087304B93F8D53296
:103420000BBB2E4B93F8E232EBB92C4BB3F8BA201E
:10343000B3F8B6309A420FD0314A01231370274CAB
:1034400084F8A8305370324B984794F8A83084F829
:10345000C830304B984709E00023204A82F8A83052
:10346000274A537002E00022254B1A70254926484E
:10347000264B9847BDE8F087214B01261E70174C5C
:10348000002584F8A8505D701E491F481F4B9847BF
:10349000184B83F8226083F8216084F8B95084F8CF
:1034A000B05094F8A83084F8C8301A4B9847BDE85B
:1034B000F0870A4B93F8D53273BB084B93F8E2328E
:1034C00053BB01220E4B1A7029E000BFAFF30080FE
:1034D0007B14AE47E17A843F542C402028224020C0
:1034E0005953400001544000008076400000103FD6
:1034F000C5594000980040200000594099504000B4
:10350000642C4020BC2C402024264020710A40001E
:103510009D2A4000492F40000022A94B1A70A94C57
:1035200094F8A820A64B5A70A749A848A84B9847DA
:10353000002384F8A830A74A012182F8221082F8DB
:10354000211084F8B93084F8B03084F8C830A24B28
:103550009847BDE8F0870122994B1A70994BB3F850
:10356000E602B3F8EA62B04280F08F8000F5804353
:103570009B1B9BB206EB5303C3F30D03914CA4F8C2
:10358000D232A0EB0309C9F30D09A4F8EC92F31AA7
:10359000C3F30D05A4F8EE52DFF85CA207EE900A23
:1035A000F8EE677A17EE900AD0478C4F00228C4BCA
:1035B000B84700228B4BB847DFF84082C047A4F8D9
:1035C000DE0207EE906AF8EE677A17EE900AD047AF
:1035D0000022834BB8470022824BB847C047A4F86B
:1035E000E00207EE909AF8EE677A17EE900AD0475D
:1035F00000227B4BB84700227A4BB847C047A4F85B
:10360000B60007EE905AF8EE677A17EE900AD047A8
:103610000022734BB8470022724BB847C047A4F84A
:10362000BA0094F8A820664B5A7067496748684BFF
:103630009847B4F8B63084F8C43043F3072384F8CD
:10364000C530B4F8BA3084F8C63043F3072384F8A1
:10365000C730B4F8D23284F8C93043F3072384F872
:10366000CA30B4F8DE3284F8CB3043F3072384F851
:10367000CC30B4F8E03284F8CD3043F3072384F83B
:10368000CE30554B9847BDE8F087831B9BB271E75E
:10369000554B9B681B78012B07D0002B40F08E8088
:1036A0000022484B83F8C92270470122494BA3F8F6
:1036B000AE200022434BA3F8B22070474A4B9B68D0
:1036C0001A78012A06D0042A04D01B78092B06D0C8
:1036D000BDE8F08701213B4A82F8C912F5E70022D4
:1036E000384B83F8C922BDE8F0873F4B9868431EEA
:1036F0003E4A043013F8011F02F8011B9842F9D129
:10370000BDE8F0872F4A012182F8F512384C314884
:10371000C0F8B04082F8CF10022182F8D010E0E467
:10372000284A012182F8F51232482A49C1F8B0002E
:10373000022182F8CF1082F8D010D2E42149012072
:1037400081F8F50281F8D120022281F8D220CCE460
:103750001C49012081F8F50281F8D320022281F86A
:10376000D420C6E41749012081F8F50281F8D5205C
:10377000022281F8D620C0E41249012081F8F50226
:1037800081F8D720022281F8D820BAE40D4901201F
:1037900081F8F50281F8D920022281F8DA209B799C
:1037A00043B1084A012182F8F51282F8DB30022386
:1037B00082F8DC30084B9847BDE8F087704700BFBF
:1037C000642C402028224020BC2C4020242640206D
:1037D000710A400098004020492F400001544000E9
:1037E000008076400000103F542C402018254020D7
:1037F0008FC2753D0AD7233D59534000855940007B
:103800002DE9F843AA4B9847AA4D2846AA4B98475A
:103810000A20AA4CA047002241F270712846A84B0A
:1038200098470A20A0478022A64B1A63A64B9847C8
:10383000A64B9847A64B98470020A64EB0471FFAC4
:1038400080F8A54CA4F8B6800220B04785B2A4F851
:10385000BA500520B047A4F8D20294F8C89084F872
:10386000A8900720B04787B2A4F8DE720920B047BD
:1038700080B2A4F8E002B9F1010F07D92346002273
:1038800084F8C82084F8A820A4F8D222B8F5B47F20
:1038900098BFB5F5B47F8CBF01230023B7F5B47F83
:1038A00088BF43F0010313B9B0F5B47F09D98A4B3F
:1038B0000022A3F8E022A3F8DE22A3F8BA20A3F89E
:1038C000B620854B93F8D030022B09D1824B93F868
:1038D000CF30012B40F03A81804A814BC3F8B020B1
:1038E0007D4B93F8D230022B05D17B4B93F8D1203E
:1038F0007B4B83F8B420784B93F8D430022B05D15E
:10390000754B93F8D320764B83F8B520724B93F820
:10391000D630022B05D1704B93F8D520704B83F82D
:10392000B6206D4B93F8D830022B05D16A4B93F833
:10393000D7206B4B83F8B720674B93F8DA30022B14
:1039400005D1654B93F8D920654B83F8B820624BBD
:1039500093F8DC30022B05D15F4B93F8DB20604BF2
:1039600083F8B9205F4C604B0022012120465F4E56
:10397000B0475F4B00220A212046B0475D4D5E4BA9
:10398000002211462846B047012120465B4EB04731
:103990000A212046B04700212846B0472846584D06
:1039A000A8472046A847574B9847574B9847574C2E
:1039B000574A01212046574DA847574A0221204621
:1039C000A847564A00212046A8472046544B98470E
:1039D000434890F8B91090F8B850524A0023137039
:1039E000538091801E24D48064211181937293812D
:1039F000D58114825182D38213750A2656831424EA
:103A000094830125957790F8B7E090F8B670464A10
:103A100013705380A2F804E0D480118193729381D3
:103A2000D78116825182D3821375568394839577FA
:103A300090F8B57090F8B4603C4A1370538097804A
:103A4000D180C820108193729381D68111825082D7
:103A5000D38213755483282191839577344A137048
:103A6000538090804FF47A70D0804FF4FA611181C6
:103A700093729381AA24D48110825182D3821375C8
:103A80004FF4487353834FF4C863938303249477AC
:103A90002046284B984728492046284B9847284BD2
:103AA0009847084D274F0C4C0126DFF89C8058E0C2
:103AB000C10140004C264020E50D4000450B400070
:103AC000210E4000000E0E40B52740006D2740003B
:103AD000252F40000D2F4000282240208FC2753D29
:103AE000980040209C2640200522400011084000FC
:103AF000DD214000FC264020B5214000D1074000D8
:103B000069094000AD2340006D2540002426402077
:103B100065214000A10A4000672140006921400062
:103B2000190A40006C2B40209C2C4020042B402084
:103B3000702C4020010C400075214000C10B40005A
:103B4000E527400000140E40542C4020022B7FF447
:103B5000C7AE104A104BC3F8B020C1E632462378F6
:103B60005BB9EB6B13F0006FF8D0FB6B03F4001341
:103B7000002B14BF00220222F1E784F8F62241460E
:103B80000648074B984710B100232370E9E7054B1F
:103B90009847E6E70AD7233D980040202426402096
:103BA000410A4000712F400070B5564CB4F8DE3227
:103BB000554A1370C3F3002394F8A81043EA011385
:103BC00094F8BC1043EA81135370B4F8E032937058
:103BD000C3F30023D3704D494D484E4B984794F89A
:103BE000F732032B16D8013384F8F732454B93F89C
:103BF000FA32122B3BD80133424A82F8FA32414A58
:103C000092F8D55202F53C7302F2F522002401200D
:103C100006463AE03B4C002384F8F7323C4E3E49DE
:103C200030463C4DA8473D493046A84794F8C43239
:103C30000133DBB284F8C432032B09D994F8C532BE
:103C400033B14FF08062364B5A63002284F8C522AC
:103C50002C4B93F8F832092B04D80133294A82F807
:103C6000F832C3E70122274B83F8F922BEE7052289
:103C70002C4B1A702C492648264B98470022214B82
:103C800083F8FA22BBE7934206D013F8011B5929A7
:103C9000F9D104463546F6E7A4B91A4B93F8D63263
:103CA0007BB9184B93F8D5323BB9164B93F8D43205
:103CB0001BB9144B93F8DC321BB1124B93F8A830AC
:103CC00023B970BD0F4B83F8D552E6E70D4B0124A5
:103CD00083F8D6420022A3F8B2201449A1F8AE40DE
:103CE00083F8E24283F8A82083F8C820104B984755
:103CF000104B1C7010490648064B984702220F4B88
:103D00009A71DEE7282240201C2D4020442B4020C1
:103D100024264020710A4000FC2B4020342B4020F8
:103D200000140E40CC2C40200C2C40209800402049
:103D3000492F4000142D4020042D4020682C4020A5
:103D4000F0B583B0044607EE101A9DF824709DF874
:103D50002860FDEEC77ACDED017ABDF90410DFEDE4
:103D6000797A27EE277ABDEEC77A8DED017ABDF913
:103D7000045007EE102A67EE277AFDEEE77ACDEDC4
:103D8000017ABDF904208088814227DB60880130F8
:103D900060800EB1608AA0816088E688864229D260
:103DA000012626702689B0424ED966800220A67F61
:103DB000002E5FD195424BD1002D49D0E38A0133CB
:103DC000E382E38A628B9A4247D2012222752289DA
:103DD000934240F2B180E28203204FE0E0898142C9
:103DE00016DB608810B101386080D5E7A08901300A
:103DF000A0816088A689B4F810E0B64513D290B9C6
:103E00000120A072608A864220D9A0810120CEE7DD
:103E1000608810B101386080BEE7A0890028E8D032
:103E20000138A081E5E794F800E0BEF1000F02D070
:103E300008B10220BBE7A07A10B10EB10120B6E7AD
:103E400000202070A072B2E70220B0E70120AEE7A8
:103E5000E38A3BB1013BE382B3E7227D12B10BB1B0
:103E600003200BE023784BB9A37A3BB900222275DB
:103E7000184603E0012E03D0032E38D003B0F0BD66
:103E8000002FFBD007EE901AF8EEE77A07EE103A13
:103E9000F4EEC77AF1EE10FA06DC9DED087AF4EE46
:103EA000C77AF1EE10FA0ED5E38A0133E382E38A92
:103EB000628B9A420CD201222275228993423DD90B
:103EC000E2820320DAE7E38A3BB1013BE382EEE7DB
:103ED000227D12B10BB10320D0E72378002BCDD186
:103EE000A37A002BCAD1002222751846C6E7954254
:103EF0000FD0E38AB3B1013BE382E38A628B9A423B
:103F00000BD2012222752289934219D9E2823046CE
:103F1000B4E7E38A0133E382EFE7227D12B10BB10C
:103F20003046ABE72378002BA8D1A37A002BA5D18C
:103F3000002222751846A1E703209FE703209DE792
:103F400030469BE70000C8422DE9F04F2DED048B71
:103F500085B06A4B1A786A490A705B784B70180210
:103F600000F470601043674CC4F8FC02664B98473D
:103F700008EE100AC4F80003644B98470022644B13
:103F8000644DA8470022644B644DA847644B984792
:103F900080B2A4F80403634B9870000AD87094F8B8
:103FA0000633002B40F09280FBEE0E7AB4EEE78AE7
:103FB000F1EE10FA0FDDDFED5C7AB4EEE78AF1EE98
:103FC00010FA08D50022C4F80823C4F80C230122F3
:103FD00084F8062303E000224A4BC3F80823494C27
:103FE000D4EDC47A38EE278A84EDC08ADFF81CB19C
:103FF00018EE100AD847DFF81CA10022444BD04726
:10400000DFF818910022444BC847DFF81481C047FD
:1040100080B2A4F80403454E3070000A7070DFEDE2
:10402000448A0125029501959FED429A8DED009AF3
:1040300018EE903AD4F8142318EE101A3E483F4F69
:10404000B8473F4F3870D4F80033C4F814333D4BB1
:104050001A782B490A705B784B70180200F4706074
:104060001043C4F81803284B984708EE100AC4F808
:104070001C03D8470022264BD0470022264BC847B6
:10408000C04780B2A4F82003B070000AF070029517
:1040900001958DED009A18EE903AD4F8242318EE8D
:1040A000101A2948254DA8477870D4F81C33C4F855
:1040B000243326492648274B9847A3790BB16379C7
:1040C000ABB905B0BDEC048BBDE8F08FDFED227A13
:1040D000B4EEE78AF1EE10FA04DB0022094BC3F8D4
:1040E0000C237CE70022074BC3F80C2377E7002260
:1040F000A271627119481A4B9847E2E7F42B4020ED
:10410000F82B402028224020612E400059534000C7
:10411000000059409D5040000000244001544000E0
:1041200085594000642B40200000C842902C40205C
:1041300000002043000070C26C2B4020413D400035
:10414000682C4020182D40209C2C4020302D4020F1
:1041500024264020710A40000000A0429C264020F6
:1041600069094000000000002DE9F0432DED028BAD
:1041700087B0BB4B1878BB4A10705B78537040EA2D
:10418000032007EE900AF8EE677A17EE900AB64B16
:104190009847A9A3D3E90023B44CA0470022B44B0D
:1041A000B44CA047B44B9847B44B93ED2C7A06EE31
:1041B000900AC6EE877AB24BC3EDCA7A93F82C33D5
:1041C00083B9AF4B93F82D33092B04D80133AC4A94
:1041D00082F82D330DE0AA4B012283F82C23C3ED86
:1041E000CC7A06E0A64B93EDCC7A77EEC77AC3ED96
:1041F000CA7AA34CD4F834539B4FD4F82803B84759
:104200009A4E8FA3D3E90023B047804689462846BB
:10421000B8478DA3D3E90023B04702460B4640467A
:104220004946984EB047944B984708EE100AC4F898
:10423000280394F80633002B5AD0F1EE087A78EE72
:10424000677AF5EEC07AF1EE10FA00F1AC808C4C92
:10425000D4F80873844E17EE900AB0477CA3D3E9D4
:104260000023DFF80882C047804689463846B047B9
:1042700002460B4640464946824EB0477E4B984721
:10428000C4F80803D4EDC27AF5EEC07AF1EE10FA64
:1042900000F1A0807A4B93EDC27AD3EDC37AB4EEED
:1042A000E77AF1EE10FA03D5D3F80C23C3F808230C
:1042B000734B93EDC27ADFED747AB4EEE77AF1EEE8
:1042C00010FA01DDC3EDC27A6D4C94EDC27AD4EDE3
:1042D000C37A77EE677A17EE900A634B98475EA32E
:1042E000D3E90023614EB047634B9847C4F81003ED
:1042F000DFED667A68EE277AFCEEE77ACDED057A97
:10430000BDF814305E4CA4F83833614A13701B0AB0
:104310005370544A00231370537002930123019386
:104320005C4B00935C4B2A4618EE101A5B485C4DC0
:10433000A8475C4B9870D4EDCA7AB2EE0E7AF4EED0
:10434000C77AF1EE10FA40F3B58094ED057AB5EE38
:10435000C07AF1EE10FA41D4494B93ED057AB5EEEF
:10436000C07AF1EE10FA08DDD3ED056A9FED4E7AC2
:10437000F4EEC76AF1EE10FA07D4414B93ED057ADB
:10438000B5EE407AF1EE10FA3AD13D4BB3F83A333C
:104390001BB2112B2CDD0123394A82F83C33374AFA
:1043A000A2F8AE30A1E0B1EE047AB4EEC78AF1EE25
:1043B00010FA0CD517EE900AB84727A3D3E90023CB
:1043C0002A4CA0472C4B984707EE900A3FE7DFEDB9
:1043D000377A3CE70022C4F808235BE7D4ED056A8E
:1043E0009FED337AF4EEC76AF1EE10FACDDCB3E755
:1043F000234AB2F83A3301331BB2A2F83A3374E0DD
:104400001F4B93F83C3393B11D4BB3F83A331BB2B7
:10441000002B07DD1A4AB2F83A33013B1BB2A2F86F
:104420003A3362E00022164B83F83C235DE0002221
:10443000134BA3F83A2358E0964E0A4466664A3F67
:104440009A9999999999C93F9A9999999999E93F0E
:104450009A9999999999A93F9A9999999999B93F4E
:10446000202D4020F82B402059534000015440009B
:104470000000E03F99504000C5594000980040209E
:10448000282240209D5040000000FA440000C8420D
:104490002C2D4020000020C100000C42042B4020A5
:1044A000413D4000682C40200000484300000000CF
:1044B000000048C3244B93F83C3393B1224BB3F82C
:1044C0003A331BB2002B07DD1F4AB2F83A33013BE7
:1044D0001BB2A2F83A3308E000221B4B83F83C23BE
:1044E00003E00022184BA3F83A23174B93F83C3310
:1044F000ABB10222154B5A71134BC3EDCD7A93F831
:104500003D33012B0FD001330F4A82F83D330E4B60
:104510001B798BB907B0BDEC028BBDE8F08300229C
:104520000A4B5A71E8E70A490A480B4B98470022A0
:10453000054B83F83D23EAE70022034B1A71074835
:10454000074B9847E6E700BF28224020682C402010
:10455000442C402024264020710A4000FC264020A4
:1045600069094000000000002DE9F04F85B0CC4BF8
:1045700093F82C30002B00F0BE810023DFEDC95AE8
:10458000C948C74950F8232007EE902AF8EEE77A89
:1045900075EEA75A013391F82C20D2B29A42F1DC81
:1045A000BF4B93F82C3063B1BD4A92F82C30DBB28C
:1045B00007EE903AF8EEE77AC5EEA75A002382F8A4
:1045C0002C30B74B93F82D30002B00F0978100234F
:1045D0009FEDB46AB548B24950F8232007EE902AFF
:1045E000F8EEE77A36EE276A013391F82D20D2B241
:1045F0009A42F1DCAA4B93F82D3063B1A84A92F8A5
:104600002D30DBB207EE903AF8EEE77A86EE276AB5
:10461000002382F82D30A24B93F82E30002B00F0AF
:1046200070810023DFED9F6AA1489D4950F8232047
:1046300007EE902AF8EEE77A76EEA76A013391F852
:104640002E20D2B29A42F1DC954B93F82E3063B112
:10465000934A92F82E30DBB207EE903AF8EEE77A02
:10466000C6EEA76A002382F82E308D4B93F82F30C8
:10467000002B00F0498100239FED8A7A8D488849FC
:1046800050F8232007EE902AF8EEE77A37EE277AE3
:10469000013391F82F20D2B29A42F1DC804B93F88B
:1046A0002F3063B17E4A92F82F30DBB207EE903A9A
:1046B000F8EEE77A87EE277A002382F82F307E4BD8
:1046C00093ED004AD3ED017AD3ED034A744C94ED97
:1046D000D05A27EE855A65EE843A35EE235AD4ED4A
:1046E000D13A64EEA33A35EE635A84EDD25AD4F847
:1046F0004833C4F84433C4EDD05AD4EDD35A67EEEE
:10470000A55A26EE045A75EE855A94EDD45A24EE35
:10471000855A75EEC55AC4EDD55AD4F85433C4F849
:10472000503384EDD36A94EDD66A27EE866A66EE3E
:10473000845A36EE256AD4EDD75A64EEA55A36EE81
:10474000656A84EDD86AD4F86033C4F85C33C4ED8C
:10475000D66AD4EDD96A67EEA67A27EE044A77EED8
:10476000847AD4EDDA6A64EEA64A77EEE47AC4ED90
:10477000DB7AD4F86C33C4F8683384EDD97AD4F892
:104780004803DFF854B1D8474C4D3FA3D3E9002389
:10479000A847DFF848A10022494BD0470022494BE7
:1047A000A847DFF83C91C8471FFA80F8A4F8708347
:1047B000D4F86003D84736A3D3E90023A8470022E2
:1047C0004FF08043D04700223F4BA847C84787B2ED
:1047D000A4F87273D4F85403D8472DA3D3E9002367
:1047E000A84700224FF08043D0470022364BA8470D
:1047F000C84786B2A4F87463D4F86C03D84724A3DE
:10480000D3E90023A84700224FF08043D04700227D
:104810002D4BA847C84780B2A4F876032B4B83F8EA
:1048200000804FEA182883F801809F703F0ADF70EC
:104830001E71360A5E719871000AD87194F8783347
:10484000092B64D00133164A82F87833144CD4F81B
:104850007C53C4F88053174B18681D4B98470EA320
:10486000D3E90023154EB0471A4B98470146C4F8C8
:104870007C030123029301934FF0404300934FF0D8
:1048800080432FE0AFF30080EC51B81E85EB813FF1
:10489000D5CC5A0A48FB0F3F07F0164850FC783F2A
:1048A00028224020000000008C2B40201C2C40209F
:1048B000542D4020D82C4020980040200154400026
:1048C00000407F400000494000408F40242D4020A0
:1048D00035534000C5594000595340009D50400099
:1048E000855940002A460E480E4CA0470E4BD87002
:1048F00005B0BDE8F08FDFED0D5A51E69FED0B6A74
:1049000078E6DFED0A6A9FE69FED087AC6E6084979
:104910000848094B9847002284F8782396E700BF9F
:10492000702C4020413D4000682C402000000000D9
:10493000402D402024264020710A40000000000045
:104940002DE9F0472DED028BBD4B9847BD4B93F8F9
:10495000C732DBB20B2B00F2BF80BA4B93F8F632B2
:10496000012B00F02081022B00F02281B54B93F83F
:10497000F93233B1B34A92F8C7320133DBB282F86D
:10498000C732B04BB3F9B21001EB41025200C3F889
:10499000842393F8A830002B00F0D1810029C0F2C5
:1049A0000D81A84BB3F9B230002B34DDA54A92ED4E
:1049B0002B7AB2F8B62006EE902AF8EEE67A77EE79
:1049C000677A9FEDA16AF4EEC67AF1EE10FA22D56D
:1049D000F5EEC07AF1EE10FA1DDDF8EE666A37EEFC
:1049E000667AF3EE067A27EE277A964A82EDE27A25
:1049F00092EDE27A07EE903AF8EEE77AF4EEC77AB3
:104A0000F1EE10FA07DDD2EDE27AFDEEE77A17EE6D
:104A1000903AA2F8B2308B4CB4F9B23003EB4303B6
:104A20005B00C4F88433894B9847894B984794F8C6
:104A3000B430002B00F07381B4F9B230002BC0F217
:104A4000C482B4F8B62007EE902AB8EEE77AD4ED27
:104A50002B7A77EEC77AC4EDE37AD4EDE37AF5EEFC
:104A6000C07AF1EE10FA40F3558194F89033002BA0
:104A700040F00A81012384F89033D4F884331BB2C8
:104A8000A4F89233D4F88C33C4F89433B4F8920376
:104A900000B2D4F894836F4D07EE900AF8EEE77AEF
:104AA00017EE900AA84764A3D3E900236A4EB047E3
:104AB00006460F464046A8475FA3D3E90023674D4B
:104AC000A84702460B4630463946654DA847654B18
:104AD0009847C4F8980332E15A4B0022C3F8842364
:104AE000012283F8C82205225F4B1A715F49604892
:104AF000604B9847534AD2F88433D2F8AC239B1AC0
:104B0000002BB8BF5B421F2B0DDD4E4BD3F8842327
:104B1000D3F8AC339A424B4AD2F8AC33CCBF1F33F4
:104B20001F3BC2F88433474BD3F88433002BC0F2C9
:104B30001082444B012283F8B023D3F88423C3F8B6
:104B40008423404BD3F88433002BC0F20C823D4BBE
:104B5000D3F8842341F265739A4204DD41F2667210
:104B6000384BC3F88423374B93F8B033002B40F015
:104B7000FF812022404B5A63324CD4F8842341F207
:104B800070713E483E4B984794F8B033002B40F08C
:104B900017822C4AD2F884335B42C2F8AC33BDECA6
:104BA000028BBDE8F087374A264BC3F88423A1E780
:104BB0004FF4E162234BC3F884239BE7214BB3F806
:104BC000BA2007EE902AD3ED2B6AB8EEE77A37EEDB
:104BD000667A9FED1D6AB4EEC67AF1EE10FA7FF5A3
:104BE000E0AEB5EEC07AF1EE10FA7FF7DAAEF8EE8D
:104BF000677A77EEE67AB3EE067A67EE877AC3EDE8
:104C0000E27A93EDE27A07EE901AF8EEE77AB1EEE7
:104C1000477AF4EEC77AF1EE10FA7FF5C2AE1A4683
:104C2000D3EDE27AF1EE677AFDEEE77A17EE903A8D
:104C3000A2F8B230B5E600BF333333333333FB3F32
:104C4000694540002822402000003442392C4000B1
:104C5000A1284000595340000154400099504000A1
:104C600055564000C5594000682C4020342B402048
:104C700024264020710A4000000E0E404C264020A1
:104C8000210E4000F8F8FFFFBF4BD3F88C03BF4B59
:104C90009847B9A3D3E90023BD4CA047002834D0DE
:104CA000B94CB4F8926336B2D4F88C03D4F8947348
:104CB000D4F898A3B54DA847804689463846A847FA
:104CC000B44FADA3D3E90023B84702460B46404694
:104CD0004946DFF8E882C047804689463046AE4BF9
:104CE000984702460B4640464946AC4EB047804680
:104CF00089465046A84702460B4640464946B847B3
:104D0000A74B9847C4F8840319E000229E4BC3F8D0
:104D1000842314E000229C4BC3F884230FE09A4BB9
:104D200093F8B8302BB1984BB3F9B230002B40F365
:104D30005281954B002283F8902383F89C23924B59
:104D4000D3EDCA7AB3EE0F7AF4EEC77AF1EE10FA29
:104D5000C0F2D68093F89D331BB901228A4B83F8A9
:104D60009D23B3EE0F8A37EEC88A874C84EDE88A1C
:104D7000864DF2EE047A68EE277A17EE900AA8477D
:104D80007FA3D3E90023854EB04706460F46D4F8EB
:104D9000A403A84702460B4630463946814DA84732
:104DA000814B984707EE900AC4F8A4039FED7F7AE1
:104DB000F4EEC77AF1EE10FA77DD234683EDE97A57
:104DC000714BD3F88433002B7ADD6F4BD3F88423F7
:104DD0007749B1F9BA0007EE900AF8EEE77A93ED59
:104DE000E97A67EE877AB1F9BC1007EE101AB8EECF
:104DF000C77A27EE088A77EE887AFDEEE77A17EE13
:104E0000901A521AC3F884235F4BD3F88423C3F853
:104E1000A8236FE65C4BD3F88C035C4B984756A3F2
:104E2000D3E900235A4CA047002834D0564CB4F89C
:104E3000926336B2D4F88C03D4F89473D4F898A360
:104E4000524DA847804689463846A847514F4AA345
:104E5000D3E90023B84702460B4640464946DFF8EF
:104E60005C81C0478046894630464B4B9847024696
:104E70000B4640464946494EB04780468946504613
:104E8000A84702460B4640464946B847444B984718
:104E9000C4F8840353E700223B4BC3F884234EE756
:104EA0000022394BC3F8842349E79FED427AF4EEA0
:104EB000C77AF1EE10FA83D5334B83EDE97A7FE7B9
:104EC000314AD2F884333A49B1F9BA0007EE900A70
:104ED000F8EEE77A92EDE97A27EE877AB1F9BC101D
:104EE00007EE901AF8EEE77A67EE887A77EE277A7F
:104EF000FDEEE77A17EE901A1944C2F8841383E79F
:104F0000214B93F89D33F3B11F4BD3F88423D3F88F
:104F1000A833002AB8BF5242002BB8BF5B429A4266
:104F200005DD194BD3F8A823C3F88423E2E5164B1B
:104F3000D3F88423C3F8A823002283F89D230022FA
:104F4000C3F8A423D6E5104BD3F88423C3F8A823D1
:104F5000D0E50D4B002283F8B023D3F884235242CE
:104F6000C3F88423EDE50022074BC3F88423EEE564
:104F70002022114B1A63FFE5333333333333FB3FC6
:104F8000FCA9F1D24D62503F2822402059534000E5
:104F900021594000995040003553400001544000D1
:104FA000355940009D504000C559400000007A44EA
:104FB0009800402000007AC4000E0E405556400074
:104FC000D4F88423C4F8AC23E9E52B4B93F8B8302C
:104FD000002B3FF4AEAE284BB3F8BA2007EE902A70
:104FE000F8EEE77A93ED2B7A77EEC77AC3EDE37AA2
:104FF000D3EDE37AF5EEC07AF1EE10FA7FF750AF19
:1050000093F89C33002B7FF405AF1B4C012384F8ED
:105010009C33D4F884331BB2A4F89233D4F88C3385
:10502000C4F89433B4F8923318B2D4F89483134D7F
:1050300007EE900AF8EEE77A17EE900AA8470CA35D
:10504000D3E900230E4EB04706460F464046A84718
:1050500007A3D3E900230B4DA84702460B46304671
:105060003946094DA847094B9847C4F8980366E6A6
:10507000333333333333FB3F28224020595340002E
:10508000015440009950400055564000C559400019
:1050900081F0004102E000BF83F0004330B54FEAE9
:1050A00041044FEA430594EA050F08BF90EA020F56
:1050B0001FBF54EA000C55EA020C7FEA645C7FEAE9
:1050C000655C00F0E2804FEA5454D4EB5555B8BF0C
:1050D0006D420CDD2C4480EA020281EA030382EA7D
:1050E000000083EA010180EA020281EA0303362D0F
:1050F00088BF30BD11F0004F4FEA01314FF4801CE2
:105100004CEA113102D0404261EB410113F0004FF3
:105110004FEA03334CEA133302D0524263EB4303AA
:1051200094EA050F00F0A780A4F10104D5F1200E48
:105130000DDB02FA0EFC22FA05F2801841F10001A3
:1051400003FA0EF2801843FA05F359410EE0A5F177
:1051500020050EF1200E012A03FA0EFC28BF4CF0A8
:10516000020C43FA05F3C01851EBE37101F000455E
:1051700007D54FF0000EDCF1000C7EEB00006EEB6B
:105180000101B1F5801F1BD3B1F5001F0CD34908F5
:105190005FEA30004FEA3C0C04F101044FEA44524C
:1051A00012F5800F80F09A80BCF1004F08BF5FEAD3
:1051B000500C50F1000041EB045141EA050130BDB3
:1051C0005FEA4C0C404141EB010111F4801FA4F156
:1051D0000104E9D191F0000F04BF01460020B1FAAB
:1051E00081F308BF2033A3F10B03B3F120020CDAE3
:1051F0000C3208DD02F1140CC2F10C0201FA0CF0C1
:1052000021FA02F10CE002F11402D8BFC2F1200C25
:1052100001FA02F120FA0CFCDCBF41EA0C019040DB
:10522000E41AA2BF01EB0451294330BD6FEA040424
:105230001F3C1CDA0C340EDC04F11404C4F120020F
:1052400020FA04F001FA02F340EA030021FA04F321
:1052500045EA030130BDC4F10C04C4F1200220FA78
:1052600002F001FA04F340EA0300294630BD21FAB6
:1052700004F0294630BD94F0000F83F4801306BF7C
:1052800081F480110134013D4EE77FEA645C18BF70
:105290007FEA655C29D094EA050F08BF90EA020F07
:1052A00005D054EA000C04BF1946104630BD91EAFF
:1052B000030F1EBF0021002030BD5FEA545C05D102
:1052C0004000494128BF41F0004130BD14F5800441
:1052D0003CBF01F5801130BD01F0004545F0FE41B5
:1052E00041F470014FF0000030BD7FEA645C1ABFEA
:1052F000194610467FEA655C1CBF0B46024650EA21
:10530000013406BF52EA033591EA030F41F400214C
:1053100030BD00BF90F0000F04BF0021704730B5D2
:105320004FF4806404F132044FF000054FF00001A7
:1053300050E700BF90F0000F04BF0021704730B568
:105340004FF4806404F1320410F0004548BF40423D
:105350004FF000013EE700BF42004FEAE2014FEA92
:1053600031014FEA02701FBF12F07F4393F07F4F6D
:1053700081F06051704792F0000F14BF93F07F4F9F
:10538000704730B54FF4607401F0004521F00041E2
:1053900020E700BF50EA010208BF704730B54FF068
:1053A00000050AE050EA010208BF704730B511F06D
:1053B000004502D5404261EB41014FF4806404F1A5
:1053C00032045FEA915C3FF4DCAE4FF003025FEA27
:1053D000DC0C18BF03325FEADC0C18BF033202EBAF
:1053E000DC02C2F1200300FA03FC20FA02F001FA09
:1053F00003FE40EA0E0021FA02F11444C1E600BFA8
:1054000070B54FF0FF0C4CF4E06C1CEA11541DBF5A
:105410001CEA135594EA0C0F95EA0C0F00F0DEF825
:105420002C4481EA030621EA4C5123EA4C5350EA0A
:10543000013518BF52EA033541F4801143F480135B
:1054400038D0A0FB02CE4FF00005E1FB02E506F0EC
:105450000042E0FB03E54FF00006E1FB03569CF041
:10546000000F18BF4EF0010EA4F1FF04B6F5007F47
:1054700064F5407404D25FEA4E0E6D4146EB0606B9
:1054800042EAC62141EA55514FEAC52040EA5E5042
:105490004FEACE2EB4F1FD0C88BFBCF5E06F1ED8EC
:1054A000BEF1004F08BF5FEA500E50F1000041EB23
:1054B000045170BD06F0004646EA010140EA0200D0
:1054C00081EA0301B4EB5C04C2BFD4EB0C0541EAF2
:1054D000045170BD41F480114FF0000E013C00F307
:1054E000AB8014F1360FDEBF002001F0004170BD2B
:1054F000C4F10004203C35DA0C341BDC04F1140444
:10550000C4F1200500FA05F320FA04F001FA05F2CF
:1055100040EA020001F0004221F0004110EBD3709C
:1055200021FA04F642EB06015EEA430E08BF20EAC8
:10553000D37070BDC4F10C04C4F1200500FA04F36B
:1055400020FA05F001FA04F240EA020001F00041FD
:1055500010EBD37041F100015EEA430E08BF20EA70
:10556000D37070BDC4F1200500FA05F24EEA020EB8
:1055700020FA04F301FA05F243EA020321FA04F0E7
:1055800001F0004121FA04F220EA020000EBD3709E
:105590005EEA430E08BF20EAD37070BD94F0000F9E
:1055A0000FD101F00046400041EB010111F4801FD2
:1055B00008BF013CF7D041EA060195F0000F18BF83
:1055C000704703F00046520043EB030313F4801FBF
:1055D00008BF013DF7D043EA0603704794EA0C0F79
:1055E0000CEA135518BF95EA0C0F0CD050EA41068F
:1055F00018BF52EA4306D1D181EA030101F000410C
:105600004FF0000070BD50EA410606BF1046194633
:1056100052EA430619D094EA0C0F02D150EA01363F
:1056200013D195EA0C0F05D152EA03361CBF104680
:1056300019460AD181EA030101F0004141F0FE411F
:1056400041F470014FF0000070BD41F0FE4141F4A3
:10565000780170BD70B54FF0FF0C4CF4E06C1CEAA3
:1056600011541DBF1CEA135594EA0C0F95EA0C0F58
:1056700000F0A7F8A4EB050481EA030E52EA033513
:105680004FEA013100F088804FEA03334FF0805534
:1056900045EA131343EA12634FEA022245EA111561
:1056A00045EA10654FEA00260EF000419D4208BF12
:1056B000964244F1FD0404F5407402D25B084FEABF
:1056C0003202B61A65EB03055B084FEA32024FF46B
:1056D00080104FF4002CB6EB020E75EB030E22BFC8
:1056E000B61A754640EA0C005B084FEA3202B6EB88
:1056F000020E75EB030E22BFB61A754640EA5C0037
:105700005B084FEA3202B6EB020E75EB030E22BFC6
:10571000B61A754640EA9C005B084FEA3202B6EBC7
:10572000020E75EB030E22BFB61A754640EADC0086
:1057300055EA060E18D04FEA051545EA16754FEAE8
:1057400006164FEAC30343EA52734FEAC2025FEA06
:105750001C1CC0D111F4801F0BD141EA00014FF095
:1057600000004FF0004CB6E711F4801F04BF014366
:105770000020B4F1FD0C88BFBCF5E06F3FF6AFAE82
:10578000B5EB030C04BFB6EB020C5FEA500C50F112
:10579000000041EB045170BD0EF0004E4EEA113195
:1057A00014EB5C04C2BFD4EB0C0541EA045170BD9C
:1057B00041F480114FF0000E013C90E645EA060EE0
:1057C0008DE60CEA135594EA0C0F08BF95EA0C0F0E
:1057D0003FF43BAF94EA0C0F0AD150EA01347FF456
:1057E00034AF95EA0C0F7FF425AF104619462CE72D
:1057F00095EA0C0F06D152EA03353FF4FDAE104690
:10580000194622E750EA410618BF52EA43067FF4E0
:10581000C5AE50EA41047FF40DAF52EA43057FF470
:10582000EBAE12E74FF0FF3C06E000BF4FF0010C7B
:1058300002E000BF4FF0010C4DF804CD4FEA410CDF
:105840007FEA6C5C4FEA430C18BF7FEA6C5C1BD0AC
:1058500001B050EA410C0CBF52EA430C91EA030F2D
:1058600002BF90EA020F0020704710F1000F91EA8A
:10587000030F58BF994208BF90422CBFD8176FEA58
:10588000E37040F0010070474FEA410C7FEA6C5C26
:1058900002D150EA013C07D14FEA430C7FEA6C5C2D
:1058A000D6D152EA033CD3D05DF8040B704700BF59
:1058B0008446104662468C461946634600E000BFA7
:1058C00001B5FFF7B7FF002848BF10F1000F01BD79
:1058D0004DF808EDFFF7F4FF0CBF012000205DF844
:1058E00008FB00BF4DF808EDFFF7EAFF34BF0120C9
:1058F00000205DF808FB00BF4DF808EDFFF7E0FF62
:1059000094BF012000205DF808FB00BF4DF808EDB2
:10591000FFF7CEFF94BF012000205DF808FB00BF19
:105920004DF808EDFFF7C4FF34BF012000205DF8FB
:1059300008FB00BF4FEA410212F5001215D211D543
:105940006FF47873B3EB625212D94FEAC12343F07C
:10595000004343EA505311F0004F23FA02F018BFFE
:10596000404270474FF00000704750EA013005D1C7
:1059700011F0004008BF6FF0004070474FF000008A
:10598000704700BF4A0011D212F5001211D20DD596
:105990006FF47873B3EB62520ED44FEAC12343F035
:1059A000004343EA505323FA02F070474FF00000DF
:1059B000704750EA013002D14FF0FF3070474FF08E
:1059C000000070474FEA4102B2F1E04324BFB3F553
:1059D000001CDCF1FE5C0DD901F0004C4FEAC00266
:1059E0004CEA5070B2F1004F40EB830008BF20F04A
:1059F0000100704711F0804F21D113F13872BCBF04
:105A000001F00040704741F480114FEA5252C2F158
:105A10001802C2F1200C10FA0CF320FA02F018BFA1
:105A200040F001004FEAC1234FEAD32303FA0CFCF4
:105A300040EA0C0023FA02F34FEA4303CCE77FEA83
:105A4000625307D150EA01331EBF4FF0FE4040F4CD
:105A50004000704701F0004040F0FE4040F400007C
:105A6000704700BF70B50D4E0D4CA41BA41000254F
:105A7000A54209D10B4E0C4C00F076F9A41BA410E2
:105A80000025A54205D170BD56F82530984701354F
:105A9000EEE756F8253098470135F2E7745D40008F
:105AA000745D4000745D4000785D400010B5431E99
:105AB0000A44914200D110BD11F8014B03F8014F87
:105AC000F7E700002E2E2F68616C2F7372632F682A
:105AD000616C5F6164635F6173796E632E63000064
