:100000000C9456000C9473000C9473000C947300C1
:100010000C9473000C9473000C9473000C94730094
:100020000C9473000C9473000C9473000C94730084
:100030000C9473000C9473000C9473000C94730074
:100040000C9473000C9473000C94671B0C94730055
:100050000C9473000C9473000C9473000C94730054
:100060000C9473000C9473000C9473000C94730044
:100070000C94AD1D0C9473000C9473000C947300DD
:100080000C9473000C9473000C9473000C94730024
:100090000C9473006D0680069E06BC06CF06ED0626
:1000A0000B077707E307EE079408320911241FBEF8
:1000B000CFEFD8E0DEBFCDBF11E0A0E0B1E0E2E3DA
:1000C000F4E402C005900D92A032B107D9F723E005
:1000D000A0E2B1E001C01D92A73CB207E1F70E9487
:1000E0002F1A0C9417220C940000ECE7F0E08081AA
:1000F00080648083EAE7F0E08081876880830895E8
:10010000ECE7F0E09081987F8770892B8083EAE7A5
:10011000F0E0808180648083808184FFFDCF209126
:1001200078008091790090E0982F882788279F7227
:10013000822B0895DF92EF92FF920F931F93CF933C
:10014000DF93E62EF12C1E141F04ACF4D82EC0E071
:10015000D0E000E010E08D2D0E948000080F191FF4
:100160008FE99FE00197F1F700C000002196CE15BE
:10017000DF0589F702C000E010E0C801B7010E9466
:10018000C521CB01DF91CF911F910F91FF90EF908F
:10019000DF900895EF92FF920F931F93CF93DF9319
:1001A0008C0181E08093D8001092DB0090E06DEE2E
:1001B00070E04FEE50E0CEEED0E0A4EFB0E00F2EB6
:1001C000F0EFEF2EF12CF02D292F2295207FFB014F
:1001D0002083FA01108218821D921D921D921C929A
:1001E0001397F70110821182128213829F5F9F3052
:1001F00059F70A3F110511F13CF40436110591F14C
:100200000D37110529F138C0043FF1E01F0761F0F7
:10021000083E134089F51092E2008CE08093E300E1
:1002200086E38093E40031C082E08093E2008CE0BA
:100230008093E30087E38093E40027C086E0809307
:10024000E2008CE08093E30087E38093E4001DC02C
:100250008EE08093E2008CE08093E30087E380935C
:10026000E40013C082E18093E2008CE08093E3001D
:1002700087E38093E40009C08EE08093E2008CE085
:100280008093E30087E38093E40080EB8093DB00BE
:10029000E8EDF0E08081826080838091D90082FD6A
:1002A0000DC080E197E2E9EDF0E025E32A95F1F752
:1002B0000000208122FD02C00197B9F78091D9008A
:1002C00082FB882780F9DF91CF911F910F91FF90DA
:1002D000EF900895CF93FC01C091ED002091DC00D8
:1002E0003091DD00408181E090E0042E02C0880F53
:1002F000991F0A94E2F782239323892B09F0C3C044
:100300004295407F4093ED008185882309F451C0D8
:1003100081819281A381B481880F991FAA1FBB1F7D
:10032000880F991FAA1FBB1F880F991FAA1FBB1FE9
:100330002685822B438550E0440F551F440F551FDF
:10034000052E000C660B770B842B952BA62BB72B59
:100350008093F0009093F100A093F200B093F3002B
:1003600085819681A781B085880F991FAA1FBB1F21
:10037000880F991FAA1FBB1F880F991FAA1FBB1F99
:100380002285822B448550E0440F551F440F551F92
:10039000052E000C660B770B842B952BA62BB72B09
:1003A0008093F4009093F500A093F600B093F700CB
:1003B0004AC081819281A381B481072E75E1880FA3
:1003C000991FAA1FBB1F7A95D1F7702D2685822B06
:1003D000438550E0440F551F440F551F052E000C58
:1003E000660B770B842B952BA62BB72B8093F000F5
:1003F0009093F100A093F200B093F3008581968171
:10040000A781B085072E75E1880F991FAA1FBB1F12
:100410007A95D1F7702D2285822B448550E0440FC8
:10042000551F440F551F052E000C660B770B842BB0
:10043000952BA62BB72B8093F4009093F500A093F7
:10044000F600B093F700AEEDB0E02D913C9111971E
:1004500081E090E0008002C0880F991F0A94E2F7C3
:10046000822B932B11969C938E93818520E1829F02
:10047000C001112495859068892B8093EF00C0936B
:10048000ED0081E001C080E0CF9108951F93CF93EC
:10049000DF93DC01F8941091ED002091DC003091A5
:1004A000DD0081E090E0062E02C0880F991F0A94BB
:1004B000E2F782239323892B19F0789480E065C0BA
:1004C0006295607F6093ED0014968C91149781FF84
:1004D0001AC04D915D916D917C911397440F551FFA
:1004E000661F771F440F551F661F771F440F551F48
:1004F000661F771F4093F0005093F1006093F20065
:100500007093F30016C04D915D916D917C9113979E
:10051000032E35E1440F551F661F771F3A95D1F71B
:10052000302D4093F0005093F1006093F2007093EF
:10053000F30015968C911597882389F0FD01369666
:1005400040E050E0CAEFD0E0919198834F5F5F4F59
:1005500015962C91159730E042175307ACF3109283
:10056000EE0014968C91149781FF06C015968C911D
:1005700080658093EF0005C015968C918064809310
:10058000EF001093ED00789481E0DF91CF911F91FF
:1005900008958F92AF92CF92EF92FF920F931F9395
:1005A000CF93DF93CDB7DEB7FC0160832183328325
:1005B00043835483E582F68207831087C186A2862F
:1005C00087868C8585878D8583878E8584878F85B3
:1005D0008687DF91CF911F910F91FF90EF90CF9081
:1005E000AF908F900895EF920F93DC014D935D9340
:1005F0006D937C93139714968C91149720FB81F93B
:10060000E0FA80F914968C93149715960C9315972D
:10061000002371F0FD0136960150202F30E0295F54
:100620003F4FCD01820F931F1192E817F907E1F7B1
:100630000F91EF900895229A239A6A987298279AB8
:100640000895229A29E030E094E085B1892785B9A0
:100650004FEF51EE84E0415050408040E1F700C040
:1006600000002150310989F72A9808952CB130E013
:10067000A90102C0559547958A95E2F7CA01817094
:10068000089582E00E943603882341F0809125017D
:10069000811104C081E080932501089582E00E94C9
:1006A0003603811106C080912501813011F410922A
:1006B0002501089586E00E943603882341F0809149
:1006C00001018F3F21F481E0809301010CC086E09D
:1006D0000E943603811107C080910101813019F415
:1006E0008FEF8093010185E00E943603882341F05B
:1006F000809100018F3F21F481E0809300010895F3
:1007000085E00E943603811107C08091000181308D
:1007100019F48FEF809300010895CF92DF92EF924A
:10072000FF9220E030E040EA50E40E94582120E0AF
:1007300030E040E85AE30E9458212DEC3CEC44E9BB
:1007400051E40E94582120E030E042E852E40E9447
:10075000F91F20E03AEF4FE757E40E9458216B0160
:100760007C0120E03AEF4FE757E40E94532118162E
:100770004CF40F2EC12CFAEFDF2EFFE7EF2EF7E43B
:10078000FF2EF02DC701B6010E947220CB01FF9011
:10079000EF90DF90CF900895CF92DF92EF92FF928B
:1007A00020E030E040EA50E40E94582120E030E0B0
:1007B00040E85AE30E94582120E030E04AE754E440
:1007C0000E9458216B017C0160910201709103012C
:1007D00080E090E00E94A1209B01AC01C701B6011E
:1007E0000E94871F23E333E343E951E40E94F91F8A
:1007F00020E030E044E352E40E94F91F20E03AEFA9
:100800004FE757E40E9458216B017C0120E03EEF46
:100810004FE757E40E94532118169CF020E030E087
:1008200040E85FE3C701B6010E94F41F882394F4F7
:100830000F2EC12CD12CF0E8EF2EFFE3FF2EF02D70
:1008400009C00F2EC12CFEEFDF2EFFE7EF2EF7E4DD
:10085000FF2EF02DC701B6010E947220CB01FF9040
:10086000EF90DF90CF900895CF92DF92EF92FF92BA
:1008700063E087E00E949A00BC0180E090E00E9463
:10088000A1200E948D039093290180932801009755
:1008900039F481E090E0909329018093280108C009
:1008A000019631F48EEF9FEF9093290180932801F8
:1008B000609128017091290180E090E00E94A120C0
:1008C0002AE037ED43E25CE30E9458216B017C0192
:1008D000609126017091270180E090E00E94A120A4
:1008E00024EA30E74DE75FE30E9458219B01AC0109
:1008F000C701B6010E94881F0E94722060932801E0
:10090000709329016093260170932701E9EAF1E0D1
:1009100066837783FF90EF90DF90CF90089563E038
:1009200083E00E949A0090932C0180932B01BC01DC
:1009300080E090E00E94A1200E94CC0380932B01D4
:1009400090932C01E9EAF1E08087918708958F92D6
:100950009F92AF92BF92CF92DF92EF92FF92CF938E
:10096000DF936B017C01413009F08BC0C0910B011A
:10097000D0910C01BE010D2E000C880B990B0E942A
:10098000A3204B015C01A70196010E9453218823FB
:100990009CF060910D0170910E01072E000C880BE8
:1009A000990B0E94A3209B01AC01C701B6010E94D4
:1009B000532188230CF011C1A7019601C501B40190
:1009C0000E94F41F88231CF5A5019401C701B601FC
:1009D0000E94871F6B017C0160911A0170911B01BD
:1009E0006C1B7D0B072E000C880B990B0E94A3201B
:1009F0009B01AC01C701B6010E94F91F20E030E065
:100A00004AE754E40E9458216B017C01C8C0C091A0
:100A10000D01D0910E01BE010D2E000C880B990B1B
:100A20000E94A3204B015C019B01AC01C701B601F0
:100A30000E94F41F88230CF0B2C0A5019401C701E5
:100A4000B6010E94871F6B017C0180911C0190916F
:100A50001D01BE01681B790B072E000C880B990B3A
:100A60000E94A3209B01AC01C701B6010E94F91F9F
:100A700020E030E04AE754E40E9458216B017C01F9
:100A80008EC0423009F08BC0C0910701D09108019F
:100A9000BE010D2E000C880B990B0E94A3204B0168
:100AA0005C019B01AC01C701B6010E94F41F18163E
:100AB0009CF06091090170910A01072E000C880BCF
:100AC000990B0E94A3209B01AC01C701B6010E94B3
:100AD000532188230CF085C0A5019401C701B601FC
:100AE0000E94532118161CF5A5019401C701B601F7
:100AF0000E94871F6B017C016091140170911501A8
:100B00006C1B7D0B072E000C880B990B0E94A320F9
:100B10009B01AC01C701B6010E94F91F20E030E043
:100B20004AE754E40E9458216B017C0138C0C0910F
:100B30000901D0910A01BE010D2E000C880B990B02
:100B40000E94A3204B015C019B01AC01C701B601CF
:100B50000E94F41F88231CF5A5019401C701B6016A
:100B60000E94871F6B017C018091160190911701F3
:100B7000BE01681B790B072E000C880B990B0E9495
:100B8000A3209B01AC01C701B6010E94F91F20E020
:100B900030E04AE754E40E9458216B017C0120E0D8
:100BA00030EC49E754E4C701B6010E9453211816FE
:100BB000E4F020E030EC49E754ECC701B6010E94B4
:100BC000F41F8823DCF40F2EC12CF0ECDF2EF9E7A4
:100BD000EF2EF4ECFF2EF02D11C0C12CD12C76019C
:100BE0000DC0C12CD12C760109C00F2EC12CF0EC08
:100BF000DF2EF9E7EF2EF4E4FF2EF02DC701B6014A
:100C00000E946B20CB01DF91CF91FF90EF90DF909E
:100C1000CF90BF90AF909F908F900895CF9386E133
:100C200090E00E940222813009F046C088E090E006
:100C30000E940222C82F89E090E00E9402222C2FFD
:100C400030E0382B30930E0120930D018AE090E0C4
:100C50000E940222C82F8BE090E00E9402222C2FDB
:100C600030E0382B30930C0120930B0182E190E0AF
:100C70000E940222C82F83E190E00E9402222C2FC2
:100C800030E0382B30930A012093090184E190E091
:100C90000E940222C82F85E190E00E9402222C2FA0
:100CA00030E0382B309308012093070187E190E072
:100CB0000E94022280930F01CF910895CF93E0917B
:100CC000E7028E2F90E0FC013197EC30F10508F03F
:100CD000D4C2E65BFF4F0C94D921C1E0C0934C0312
:100CE00067E086E493E00E944602C093780165E0E5
:100CF00080E00E949A0090937A0180937901BDC2AE
:100D000081E080934C0367E086E493E00E94460212
:100D100065E080E00E949A009093860180938501AF
:100D2000843F21E092072CF490937E0180937D0113
:100D3000A4C290937C0180937B019FC281E0809349
:100D40004C0367E086E493E00E94460265E080E0A1
:100D50000E949A009093860180938501853F41E02F
:100D600094072CF090937C0180937B0186C2909332
:100D70007E0180937D0181C2C1E0C0934C0367E096
:100D800086E493E00E944602C093780165E084E027
:100D90000E949A009093800180937F016EC281E04F
:100DA00080934C0367E086E493E00E94460265E08E
:100DB00084E00E949A009093860180938501843F8D
:100DC00021E092072CF4909384018093830155C213
:100DD000909382018093810150C281E080934C0303
:100DE00067E086E493E00E94460265E084E00E94AA
:100DF0009A009093860180938501853F41E0940796
:100E00002CF0909382018093810137C290938401EA
:100E10008093830132C28091790190917A019C0183
:100E20002F5531402B32314008F04CC020917B01CE
:100E300030917C012F3E42E034070CF443C04091D6
:100E40007D0150917E014A3F5105E4F54115510560
:100E5000C9F15093170140931601909313018093A9
:100E60001201309315012093140161E081E090E0BC
:100E70000E940A22609116018CE090E00E940A22F2
:100E8000609117018DE090E00E940A2260911201AA
:100E900080E190E00E940A226091130181E190E0DC
:100EA0000E940A22609114018EE090E00E940A22C2
:100EB000609115018FE090E00E940A2282E0809309
:100EC0004C0303C083E080934C0367E086E493E027
:100ED0000E94460210927E0110927D0110927A01CA
:100EE0001092790110927C0110927B01C6C1809111
:100EF0007F01909180019C012F5531402B32314070
:100F000008F04CC020918101309182012F3E42E0D7
:100F100034070CF443C040918301509184014A3F4F
:100F20005105E4F541155105C9F150931D01409358
:100F30001C01909319018093180130931B01209399
:100F40001A0161E080E090E00E940A2260911C0199
:100F500082E090E00E940A2260911D0183E090E00F
:100F60000E940A226091180186E090E00E940A2205
:100F70006091190187E090E00E940A2260911A01B5
:100F800084E090E00E940A2260911B0185E090E0DD
:100F90000E940A2282E080934C0303C083E0809386
:100FA0004C0367E086E493E00E94460210928401BD
:100FB000109283011092800110927F0110928201A1
:100FC000109281015AC181E080934C0367E086E46E
:100FD00093E00E944602109278014FC18091100167
:100FE000909111010A9690931101809310018091C4
:100FF0000F018F5F80930F01833348F084EF91E0FE
:10100000909311018093100182E380930F01E6E435
:10101000F3E081E0868380910F01878367E0CF0151
:101020000E94460260910F0187E190E00E940A222F
:10103000809110019091110199230CF401969595DE
:1010400087956091120170911301681B790B709361
:101050000A016093090182E190E00E940A226091F6
:101060000A0183E190E00E940A22609110017091D0
:101070001101772314F46F5F7F4F75956795809109
:10108000120190911301680F791F7093080160930A
:10109000070184E190E00E940A226091080185E145
:1010A00090E00E940A2280911001909111019923F1
:1010B0000CF401969595879560911801709119012E
:1010C000681B790B70930E0160930D0188E090E02E
:1010D0000E940A2260910E0189E090E00E940A229B
:1010E0006091100170911101772314F46F5F7F4FAD
:1010F000759567958091180190911901680F791F76
:1011000070930C0160930B018AE090E00E940A2228
:1011100060910C018BE090E00E940A2261E086E180
:1011200090E00E940A22A9C080910F01803168F0EE
:1011300020911001309111012A5031093093110191
:1011400020931001815080930F01E6E4F3E081E0E9
:10115000868380910F01878367E0CF010E9446025A
:1011600060910F0187E190E00E940A2280911001B6
:101170009091110199230CF40196959587956091B2
:10118000120170911301681B790B70930A0160932F
:10119000090182E190E00E940A2260910A0183E144
:1011A00090E00E940A226091100170911101772352
:1011B00014F46F5F7F4F7595679580911201909140
:1011C0001301680F791F709308016093070184E190
:1011D00090E00E940A226091080185E190E00E945F
:1011E0000A22809110019091110199230CF401962B
:1011F000959587956091180170911901681B790B7D
:1012000070930E0160930D0188E090E00E940A2225
:1012100060910E0189E090E00E940A226091100125
:1012200070911101772314F46F5F7F4F7595679567
:101230008091180190911901680F791F70930C012A
:1012400060930B018AE090E00E940A2260910C01F9
:101250008BE090E00E940A2261E086E190E00E942B
:101260000A220BC0E6E4F3E081E0868380910F015F
:10127000878367E0CF010E944602CF9108951F93B4
:10128000CF93DF932DEC3CEC4CE45FE36091930152
:101290007091940180919501909196010E94871F11
:1012A00020E030E04AEF53E40E9458210E9472206F
:1012B000D62F60938E0120E030E048EC52E460913C
:1012C0008F017091900180919101909192010E9403
:1012D00058210E947220C62F60938D0120E030E0DB
:1012E00048EC52E460919D0170919E0180919F01B4
:1012F0009091A0010E9458210E947220162F6093A5
:10130000980120E030E048EC52E46091990170913E
:101310009A0180919B0190919C010E9458210E940A
:10132000722060939701E9ECF1E01683D783608720
:10133000C187DF91CF911F91089563E00E949A00C9
:10134000BC01990F880B990B0E94A32020E030E08C
:1013500040E85AE30E945821089563E00E949A00F1
:10136000BC01990F880B990B0E94A32020E030E06C
:1013700040EA55E40E94F91F2DEC3CEC4CE45FE39D
:101380000E94881F08958F92AF92CF92EF92FF92A2
:101390000F931F93CF931F921F921F92C1E0CF9381
:1013A0006894882482F8AA24A394CC24C394EE24BD
:1013B000EA941CEFF12E0FEF1FE129E932E040E043
:1013C00050E060E08EE392E00E94C9021F921F92FB
:1013D0001F9287E08F936894882481F8EE24EA9422
:1013E0001EEFF12E0FEF1FE121E132E040E050E06F
:1013F00061E080ED92E00E94C9021F921F921F924D
:10140000CF931CEFE12EFF24FA940FEF1FE121E1AF
:1014100031E040E050E062E080EC92E00E94C902DE
:101420001F921F921F92CF936894882482F810EF26
:10143000E12EFF24FA940FEF1FE126E030E041E0B7
:1014400050E063E081E293E00E94C9028DB79EB74D
:1014500040960FB6F8949EBF0FBE8DBFCF911F91DF
:101460000F91FF90EF90CF90AF908F900895EF92F3
:101470000F93E12C01E021E049E952E060E070E0E7
:1014800081EF92E00E94F30221E049E953E060E03D
:1014900070E086E693E00E94F30221E049E951E022
:1014A00060E070E089ED91E00E94F30221E049E9FB
:1014B00050E060E070E080EA93E00E94F30207E011
:1014C00021E041E152E060E070E089EB91E00E94B0
:1014D000F30221E041E153E060E070E080EB93E053
:1014E0000E94F30201E021E041E151E060E070E0A0
:1014F00081E393E00E94F30221E042E151E060E0E9
:1015000070E086E593E00E94F30221E046E050E0BF
:1015100061E070E081EE92E00E94F30221E047E09A
:1015200050E061E070E080E993E00E94F30221E086
:1015300048E050E061E070E08CE992E00E94F30244
:1015400021E049E050E061E070E08EE192E00E942D
:10155000F30203E021E041E050E160E070E088E662
:1015600092E00E94F30221E042E050E160E070E08E
:1015700081E193E00E94F30201E021E049E950E1BA
:1015800060E070E086E793E00E94F30203E021E070
:1015900045E050E160E070E08EEF91E00E94F302E0
:1015A00004E021E043E050E160E070E089EA91E08E
:1015B0000E94F30221E044E050E160E070E089EC39
:1015C00091E00E94F30221E047E058E064E070E01F
:1015D0008EE292E00E94F30202E021E049E150E154
:1015E00060E070E086E493E00E94F30207E021E00F
:1015F00041E250E160E070E081E093E00E94F3029C
:1016000006E021E043E250E160E070E080EB92E030
:101610000E94F30205E021E044E250E160E070E066
:101620008EE092E00E94F30201E021E048E950E1FF
:1016300060E070E088E592E00E94F3020F91EF9085
:101640000895823071F028F48823A9F0813039F0B0
:1016500010C0843051F038F0853049F00AC082E083
:101660000BC083E009C084E007C085E005C086E0C8
:1016700003C080E001C081E0860F0895809141039E
:10168000811103C0109237010895809142038111A6
:1016900004C01092370181E00895809143038111C5
:1016A00004C01092370182E00895809144038111B3
:1016B00004C01092370183E00895809145038111A1
:1016C00004C01092370184E0089581E080933701CF
:1016D00083E6089529E030E0A90141505109FA015B
:1016E000EA57FC4F9081F901EA57FC4F9083FA01C9
:1016F000EE0FFF1FE751FE4F60817181220F331FF4
:10170000F901E751FE4F718360839A014F3F5F4FAC
:1017100019F7809386038091220190912301909381
:10172000EA018093E9010895CF9363E083E00E948A
:101730009A00BC01990F880B990B0E94A32020E00E
:1017400030E040EA50E40E94582120E030E040E8D8
:101750005AE30E94582120E030E04AE754E40E9416
:1017600058210E94722070930301609302016C5D06
:101770007540693C7105C8F081E080932A018BE8CF
:1017800096E09093030180930201C0E8C0934D015D
:101790000E943E0B80934B01E0914B01F0E0EF5B28
:1017A000FC4FC08380E80E946A0BCF91089580911E
:1017B0002B0190912C0180342FE9920758F08091F1
:1017C0004601909147010196893522E0920708F081
:1017D0005AC04BC080339E4878F180914601909169
:1017E0004701009769F00197909347018093460164
:1017F00080914401909145018935924070F439C03F
:101800008091440190914501019690934501809308
:1018100044018935924008F4CBC088E592E090936A
:1018200045018093440180914601909147018F3694
:10183000910508F464C024C080914601909147014D
:10184000009731F00197909347018093460111C0B2
:101850008091440190914501009709F4A9C0019736
:101860009093450180934401A3C0909347018093D6
:10187000460180914601909147018F369105C0F154
:101880008739910530F086E990E090934701809385
:10189000460180914D01811117C081E080934C0178
:1018A0000E943E0B80934B018091370181118BC0C8
:1018B000E0914B01F0E0EF5BFC4F8FE7808380937A
:1018C0004D010E946A0B089580914C01811108C05E
:1018D0008FE70E946A0B81E080934C011092060111
:1018E000E0914B01F0E0EF5BFC4F8FE780830895C0
:1018F00020914401309145012F36310598F1873907
:10190000910530F086E990E090934701809346017D
:1019100080914D01811114C00E943E0B80934B01B8
:101920008091370181114FC0E0914B01F0E0EF5BF6
:10193000FC4F8EE7808380934D010E946A0B0895CF
:1019400080910601811106C08EE70E946A0B81E03A
:1019500080930601E0914B01F0E0EF5BFC4F8EE7D6
:101960008083089540914D01442369F1892B41F012
:10197000E0914B01F0E0EF5BFC4F8FE7808308952F
:10198000232B41F0E0914B01F0E0EF5BFC4F8EE741
:101990008083089510924D0110924C0181E0809354
:1019A0000601E0914B01F0E0EF5BFC4F10820895DF
:1019B00020914401309145012F36310508F0A8CF20
:1019C00080E090E0CFCF0895809128019091290187
:1019D00080342CEE9207A0F0809142019091430157
:1019E000019690934301809342018739910508F451
:1019F000E8C186E990E09093430180934201B9C029
:101A0000803528EE920780F1809142019091430148
:101A1000009769F001979093430180934201809170
:101A20004001909141018739910578F492C020914D
:101A30004001309141012F5F3F4F3093410120938E
:101A400040012739310508F4B3C186E990E090934D
:101A500041018093400180914201909143018C3477
:101A6000910508F4C5C07CC0813321EB9207A0F436
:101A700080913E0190913F0101968739910528F4AC
:101A800090933F0180933E0164C086E990E090937B
:101A90003F0180933E015DC08132954B18F58091E6
:101AA0003E0190913F01009731F0019790933F01E3
:101AB00080933E0109C080913C0190913D010196C7
:101AC00090933D0180933C0180913C0190913D01B8
:101AD00087399105F0F186E990E090933D0180937C
:101AE0003C0137C08091420190914301009731F051
:101AF000019790934301809342012BC020914001B4
:101B0000309141012115310539F0215031093093CF
:101B10004101209340015CC020913E0130913F0182
:101B20002115310539F02150310930933F012093BF
:101B30003E014EC020913C0130913D0121153105FF
:101B400009F446C02150310930933D0120933C01F6
:101B50003FC080914201909143018C349105C0F1C6
:101B60008739910530F086E990E0909343018093A6
:101B7000420180914A01811117C081E0809349019F
:101B80000E943E0B809348018091370181111EC154
:101B9000E0914801F0E0EF5BFC4F8BE7808380939E
:101BA0004A010E946A0B089580914901811108C081
:101BB0008BE70E946A0B81E0809349011092050136
:101BC000E0914801F0E0EF5BFC4F8BE780830895E4
:101BD00020914001309141012C343105A0F1273989
:101BE000310530F086E990E0909341018093400107
:101BF00080914A01811115C00E943E0B80934801DB
:101C000080913701811107C0E0914801F0E0EF5B5E
:101C1000FC4F89E7808389E780934A010E946A0B21
:101C2000089580910501811106C089E70E946A0B21
:101C300081E080930501E0914801F0E0EF5BFC4F0B
:101C400089E78083089540913E0150913F014C34D3
:101C50005105C0F14739510530F086E990E0909385
:101C60003F0180933E0180914A01811117C081E0BC
:101C7000809349010E943E0B809348018091370177
:101C80008111A4C0E0914801F0E0EF5BFC4F8CE7CC
:101C9000808380934A010E946A0B089580914901D4
:101CA000811108C08CE70E946A0B81E08093490192
:101CB00010920501E0914801F0E0EF5BFC4F8CE7EA
:101CC0008083089560913C0170913D016C347105F1
:101CD000A0F16739710530F086E990E090933D01FD
:101CE00080933C0180914A01811115C00E943E0BF6
:101CF0008093480180913701811107C0E09148012C
:101D0000F0E0EF5BFC4F8AE780838AE780934A012B
:101D10000E946A0B089580910501811106C08AE72F
:101D20000E946A0B81E080930501E0914801F0E098
:101D3000EF5BFC4F8AE780830895E0914A01EE2330
:101D400009F444C0892B41F0E0914801F0E0EF5BD9
:101D5000FC4F8BE780830895232B41F0E0914801ED
:101D6000F0E0EF5BFC4F89E780830895452B81F419
:101D7000672BB1F410924A011092490181E08093DF
:101D80000501E0914801F0E0EF5BFC4F10820895FF
:101D9000E0914801F0E0EF5BFC4F8CE78083089511
:101DA000E0914801F0E0EF5BFC4F8AE78083089503
:101DB00020914001309141012C34310508F443CF8A
:101DC00017CF8C34910508F403CFD3CE0895CF9369
:101DD00080E090E00E940222813081F582E090E074
:101DE0000E940222C82F83E090E00E9402222C2F42
:101DF00030E0382B30931D0120931C0184E090E0EB
:101E00000E940222C82F85E090E00E9402222C2F1F
:101E100030E0382B30931B0120931A0186E090E0CC
:101E20000E940222C82F87E090E00E9402222C2FFD
:101E300030E0382B309319012093180181E090E0B5
:101E40000E940222813081F58CE090E00E94022203
:101E5000C82F8DE090E00E9402222C2F30E0382B1A
:101E600030931701209316018EE090E00E94022229
:101E7000C82F8FE090E00E9402222C2F30E0382BF8
:101E8000309315012093140180E190E00E9402221A
:101E9000C82F81E190E00E9402222C2F30E0382BE5
:101EA0003093130120931201809118019091190130
:101EB0008F5591408B32914070F480911A0190912E
:101EC0001B018F3E92403CF080911C0190911D01BE
:101ED0008A3F910594F00E943E0B809338018091D7
:101EE0003701811107C0E0913801F0E0EF5BFC4F52
:101EF00082E8808382E80E946A0B809112019091AF
:101F000013018F5591408B32914070F480911401F0
:101F1000909115018F3E92403CF080911601909176
:101F200017018A3F910594F00E943E0B809339017E
:101F300080913701811107C0E0913901F0E0EF5B3A
:101F4000FC4F81E8808381E80E946A0BCF9108955D
:101F50008F929F92AF92BF92CF92DF92EF92FF92B9
:101F6000CF93DF9363E084E00E949A009093A801EE
:101F70008093A7018E54910981369340C8F08091D7
:101F80003B01811121C00E943E0B80933A01809158
:101F90003701811107C0E0913A01F0E0EF5BFC4F9F
:101FA0008DE780838DE780933B010E946A0B0CC014
:101FB00080913B01882341F010923B01E0913A016E
:101FC000F0E0EF5BFC4F10826091A7017091A801D7
:101FD000072E000C880B990B0E94A32041E00E9461
:101FE000A7049093A8018093A70185E00E949D0912
:101FF0006B017C016093990170939A0180939B011E
:1020000090939C016091A7017091A801072E000C8C
:10201000880B990B0E94A320A70196010E945821CA
:102020000E946B207093A8016093A70186E00E9434
:102030009D0960938F01709390018093910190931B
:102040009201409101012091A7013091A801420322
:10205000E001439FD00D112424EA30E74DE75FE310
:102060000E945321181664F484EA90E7ADE7BFE3B9
:1020700080938F0190939001A0939101B09392016E
:10208000C0908F01D0909001E0909101F09092016A
:10209000BE01DD0F880B990B0E94A3204B015C0150
:1020A000A701960160E070E080E89FE30E94871F2F
:1020B0009B01AC01C501B4010E9458214B015C0198
:1020C0006091A3017091A401072E000C880B990B5D
:1020D0000E94A320A70196010E9458219B01AC01F8
:1020E000C501B4010E94881F0E946B207093A40157
:1020F0006093A30168517C4F7093A8016093A7017E
:102100001616170674F081E090E09093A801809372
:10211000A70120918B0130918C018217930751F513
:1021200023C0603D77408CF08FEC97E09093A8013E
:102130008093A70180918B0190918C018F3C27E0C7
:10214000920791F08FEC97E015C08091A7019091D4
:10215000A80120918B0130918C018217930751F4D3
:10216000883E23E0920731F0209188012F5F209371
:10217000880102C01092880190938C0180938B019A
:1021800020918801253078F01092880120911F015C
:10219000219520931F01820F911D27FD9A95909301
:1021A000A8018093A7019091A7018091A801E8E67A
:1021B000F2E096838783DF91CF91FF90EF90DF90DD
:1021C000CF90BF90AF909F908F9008958F929F92E5
:1021D000AF92BF92CF92DF92EF92FF920F931F9335
:1021E000CF93DF9363E080E00E949A009093A60172
:1021F0008093A5018E54910981369340C8F0809157
:102200003B01811121C00E943E0B80933A018091D5
:102210003701811107C0E0913A01F0E0EF5BFC4F1C
:102220008DE780838DE780933B010E946A0B0CC091
:1022300080913B01882341F010923B01E0913A01EB
:10224000F0E0EF5BFC4F10826091A5017091A60158
:10225000072E000C880B990B0E94A32042E00E94DD
:10226000A7049093A6018093A50181E00E949D0997
:102270006B017C0160939D0170939E0180939F018F
:102280009093A0016091A5017091A601072E000C0A
:10229000880B990B0E94A320A70196010E94582148
:1022A0000E946B207093A6016093A50182E00E94BA
:1022B000AD0960939301709394018093950190937D
:1022C0009601409100012091A5013091A6014203A1
:1022D0008001439F100D112424EA30E74DE75FE3AE
:1022E0000E945321181664F484EA90E7ADE7BFE337
:1022F0008093930190939401A0939501B0939601DC
:10230000C0909301D0909401E0909501F0909601D7
:10231000C091A101D091A201B801110F880B990BB6
:102320000E94A3204B015C01A701960160E070E0D0
:1023300080E89FE30E94871F9B01AC01C501B401A7
:102340000E9458214B015C01BE010D2E000C880B30
:10235000990B0E94A320A70196010E9458219B017E
:10236000AC01C501B4010E94881F0E946B20FB01D3
:10237000AB014C1B5D0B9A0122F422273327241B4F
:10238000350B2C3431052CF47093A6016093A50114
:1023900010C0CE17DF073CF4C55BDF4FD093A6011A
:1023A000C093A50106C0CB54D109D093A601C09318
:1023B000A5018091A5019091A6019093A20180931F
:1023C000A10188519C4F9093A6018093A5011816F6
:1023D000190674F081E090E09093A6018093A50126
:1023E0002091890130918A018217930751F523C00A
:1023F000803D97408CF08FEC97E09093A6018093FE
:10240000A5018091890190918A018F3C27E0920774
:1024100091F08FEC97E015C08091A5019091A601F5
:102420002091890130918A018217930751F4883EE7
:1024300023E0920731F0209187012F5F20938701DD
:1024400002C01092870190938A01809389012091A4
:102450008701253078F01092870120911E01219587
:1024600020931E01820F911D27FD9A959093A6013E
:102470008093A5019091A5018091A601E1E1F3E08F
:1024800096838783DF91CF911F910F91FF90EF90FB
:10249000DF90CF90BF90AF909F908F9008951F9343
:1024A000CF93DF93CAE0D0E010E065E080E00E94C7
:1024B0009A00835C91408737910510F41F5F01C03B
:1024C00010E08FE19EE40197F1F700C00000219732
:1024D00061F71A3039F483E08093050281E080933C
:1024E00077014DC081E080930502109277010E9430
:1024F0003E0B8093390180913701811107C0E09133
:102500003901F0E0EF5BFC4F81E8808381E80E94B5
:102510006A0B35C065E084E00E949A00835C9140BC
:102520008737910510F41F5F01C010E08FE19EE432
:102530000197F1F700C00000219761F71A3039F4D4
:1025400081E08093760183E0809306021CC01092A4
:10255000760181E0809306020E943E0B8093380151
:1025600080913701811107C0E0913801F0E0EF5B05
:10257000FC4F82E8808382E80E946A0B04C0CAE0B4
:10258000D0E010E0C7CFDF91CF911F9108958091E7
:10259000F50282FF13C010923101809167018823F8
:1025A00041F010926701E0916601F0E0EF5BFC4FB3
:1025B0001082E5EFF2E080818B7F808380916A0357
:1025C00082FF13C01092300180915701882341F09F
:1025D00010925701E0915601F0E0EF5BFC4F108242
:1025E000EAE6F3E080818B7F80838091DD0182FFCA
:1025F00013C010922F0180915301882341F0109253
:102600005301E0915201F0E0EF5BFC4F1082EDEDE1
:10261000F1E080818B7F80838091A40382FF13C0CF
:1026200010922E0180914F01882341F010924F01AA
:10263000E0914E01F0E0EF5BFC4F1082E4EAF3E042
:1026400080818B7F8083809131018430C0F08091C4
:102650006701811114C00E943E0B80936601809136
:102660003701811107C0E0916601F0E0EF5BFC4F9C
:1026700083E2808383E2809367010E946A0B8091EA
:1026800030018430C0F080915701811114C00E9444
:102690003E0B8093560180913701811107C0E09174
:1026A0005601F0E0EF5BFC4F8BE480838BE480937A
:1026B00057010E946A0B80912F018330C0F08091F6
:1026C0005301811114C00E943E0B809352018091EE
:1026D0003701811107C0E0915201F0E0EF5BFC4F40
:1026E00089E5808389E5809353010E946A0B80917C
:1026F0002E018330C0F080914F01811114C00E94DF
:102700003E0B80934E0180913701811107C0E0910B
:102710004E01F0E0EF5BFC4F8DE680838DE6809309
:102720004F010E946A0B089580E090E072E861E832
:10273000FC01EF5BFC4F20812111A1C19C012F5FA7
:102740003F4FF901EF5BFC4F4081442309F497C1EF
:102750004091740150E04217530759F4809374017B
:10276000E0917401F0E040917501EF5BFC4F408314
:1027700082C14091720150E04217530759F480938F
:102780007201E0917201F0E040917301EF5BFC4F48
:10279000408371C14091700150E04217530759F4D2
:1027A00080937001E0917001F0E040917101EF5B66
:1027B000FC4F408360C140916E0150E042175307C7
:1027C00059F480936E01E0916E01F0E040916F0149
:1027D000EF5BFC4F40834FC140916C0150E04217CA
:1027E000530759F480936C01E0916C01F0E0409143
:1027F0006D01EF5BFC4F40833EC140916A0150E0A8
:102800004217530759F480936A01E0916A01F0E09E
:1028100040916B01EF5BFC4F40832DC140916801FB
:1028200050E04217530759F480936801E091680122
:10283000F0E040916801EF5BFC4F40831CC1409188
:10284000660150E04217530759F480936601E09106
:102850006601F0E040916701EF5BFC4F40830BC1E4
:102860004091640150E04217530759F4809364018A
:10287000E0916401F0E040916501EF5BFC4F408323
:10288000FAC04091620150E04217530759F4809317
:102890006201E0916201F0E040916301EF5BFC4F67
:1028A0004083E9C04091600150E04217530759F45A
:1028B00080936001E0916001F0E040916101EF5B85
:1028C000FC4F4083D8C040915E0150E0421753074F
:1028D00059F480935E01E0915E01F0E040915F0168
:1028E000EF5BFC4F4083C7C040915C0150E0421752
:1028F000530759F480935C01E0915C01F0E0409152
:102900005D01EF5BFC4F4083B6C040915A0150E03F
:102910004217530759F480935A01E0915A01F0E0AD
:1029200040915B01EF5BFC4F4083A5C04091580193
:1029300050E04217530759F480935801E091580131
:10294000F0E040915801EF5BFC4F408394C0409110
:10295000560150E04217530759F480935601E09115
:102960005601F0E040915701EF5BFC4F408383C07C
:102970004091540150E04217530759F48093540199
:10298000E0915401F0E040915501EF5BFC4F408332
:1029900072C04091520150E04217530759F480939E
:1029A0005201E0915201F0E040915301EF5BFC4F86
:1029B000408361C04091500150E04217530759F4E1
:1029C00080935001E0915001F0E040915101EF5BA4
:1029D000FC4F408350C040914E0150E042175307D6
:1029E00059F480934E01E0914E01F0E040914F0187
:1029F000EF5BFC4F40833FC04091390150E04217EC
:102A0000530749F480933901E0913901F0E0EF5B1D
:102A1000FC4F608330C04091380150E042175307AB
:102A200049F480933801E0913801F0E0EF5BFC4F0E
:102A3000708321C04091480150E04217530759F478
:102A400080934801E0914801F0E040914A01EF5B3A
:102A5000FC4F408310C040914B0150E04217530798
:102A600051F480934B01E0914B01F0E040914D0116
:102A7000EF5BFC4F4083F901EF5BFC4F1082019646
:102A80008430910509F054CE0895CF938091BD0113
:102A900082FF03C4EFEBF1E080E090E02191DC01E4
:102AA000A054BC4F2C93019687309105B9F78091C3
:102AB000C00360E00E94210BC82F813021F180917A
:102AC0003701811130C080917501811106C0C0931A
:102AD00075010E943E0B80937401809174018336CE
:102AE00011F1E0917401F0E0EF5BFC4F8081C817B9
:102AF00019F08C2F0E946A0BE0917401F0E0EF5BFB
:102B0000FC4FC08310C080917501882361F0109242
:102B10007501E0917401F0E0EF5BFC4F10821092C0
:102B200037010E9494138091C10365E00E94210B3C
:102B3000C82F863021F180913701811130C08091FA
:102B40007301811106C0C09373010E943E0B8093F4
:102B5000720180917201833611F1E0917201F0E00F
:102B6000EF5BFC4F8081C81719F08C2F0E946A0B15
:102B7000E0917201F0E0EF5BFC4FC08310C08091E8
:102B80007301882361F010927301E0917201F0E00B
:102B9000EF5BFC4F1082109237010E9494138091DA
:102BA000C2036AE00E94210BC82F8B3021F1809173
:102BB0003701811130C080917101811106C0C0932D
:102BC00071010E943E0B80937001809170018336E9
:102BD00011F1E0917001F0E0EF5BFC4F8081C817CC
:102BE00019F08C2F0E946A0BE0917001F0E0EF5B0E
:102BF000FC4FC08310C080917101882361F0109256
:102C00007101E0917001F0E0EF5BFC4F10821092D7
:102C100037010E9494138091C30362E10E94210B4B
:102C2000C82F833121F180913701811130C080910B
:102C30006F01811106C0C0936F010E943E0B80930B
:102C40006E0180916E01833611F1E0916E01F0E02A
:102C5000EF5BFC4F8081C81719F08C2F0E946A0B24
:102C6000E0916E01F0E0EF5BFC4FC08310C08091FB
:102C70006F01882361F010926F01E0916E01F0E026
:102C8000EF5BFC4F1082109237010E9494138091E9
:102C9000C40367E10E94210BC82F883121F1809184
:102CA0003701811130C080916D01811106C0C09340
:102CB0006D010E943E0B80936C0180916C01833604
:102CC00011F1E0916C01F0E0EF5BFC4F8081C817DF
:102CD00019F08C2F0E946A0BE0916C01F0E0EF5B21
:102CE000FC4FC08310C080916D01882361F0109269
:102CF0006D01E0916C01F0E0EF5BFC4F10821092EF
:102D000037010E9494138091C5036FE00E94210B4C
:102D1000C82F803121F180913701811130C080911D
:102D20006B01811106C0C0936B010E943E0B809322
:102D30006A0180916A01833611F1E0916A01F0E045
:102D4000EF5BFC4F8081C81719F08C2F0E946A0B33
:102D5000E0916A01F0E0EF5BFC4FC08310C080910E
:102D60006B01882361F010926B01E0916A01F0E041
:102D7000EF5BFC4F1082109237010E9494138091F8
:102D8000C6036DE10E94210BC82F8E3121F1809185
:102D90003701811130C080916901811106C0C09353
:102DA00069010E943E0B809368018091680183361F
:102DB00011F1E0916801F0E0EF5BFC4F8081C817F2
:102DC00019F08C2F0E946A0BE0916801F0E0EF5B34
:102DD000FC4FC08310C080916901882361F010927C
:102DE0006901E0916801F0E0EF5BFC4F1082109206
:102DF00037010E949413EDEBF1E080818B7F80839B
:102E00008091B40382FF4EC2E6EBF3E080E090E0F5
:102E10002191DC01A054BC4F2C9301968730910581
:102E2000B9F78091C00368E20E94210BC82F893254
:102E300021F180913701811130C0809165018111AC
:102E400006C0C09365010E943E0B8093640180918F
:102E50006401833611F1E0916401F0E0EF5BFC4F17
:102E60008081C81719F08C2F0E946A0BE0916401D1
:102E7000F0E0EF5BFC4FC08310C0809165018823B8
:102E800061F010926501E0916401F0E0EF5BFC4FAE
:102E90001082109237010E9494138091C1036DE259
:102EA0000E94210BC82F8E3221F1809137018111B0
:102EB00030C080916301811106C0C09363010E94FC
:102EC0003E0B8093620180916201833611F1E091A3
:102ED0006201F0E0EF5BFC4F8081C81719F08C2F86
:102EE0000E946A0BE0916201F0E0EF5BFC4FC0834F
:102EF00010C080916301882361F010926301E0911A
:102F00006201F0E0EF5BFC4F1082109237010E94EB
:102F100094138091C20362E30E94210BC82F833374
:102F200021F180913701811130C0809161018111BF
:102F300006C0C09361010E943E0B809360018091A6
:102F40006001833611F1E0916001F0E0EF5BFC4F2E
:102F50008081C81719F08C2F0E946A0BE0916001E4
:102F6000F0E0EF5BFC4FC08310C0809161018823CB
:102F700061F010926101E0916001F0E0EF5BFC4FC5
:102F80001082109237010E9494138091C3036AE368
:102F90000E94210BC82F8B3321F1809137018111C1
:102FA00030C080915F01811106C0C0935F010E9413
:102FB0003E0B80935E0180915E01833611F1E091BA
:102FC0005E01F0E0EF5BFC4F8081C81719F08C2F99
:102FD0000E946A0BE0915E01F0E0EF5BFC4FC08362
:102FE00010C080915F01882361F010925F01E09131
:102FF0005E01F0E0EF5BFC4F1082109237010E94FF
:1030000094138091C4036FE30E94210BC82F803476
:1030100021F180913701811130C080915D018111D2
:1030200006C0C0935D010E943E0B80935C018091BD
:103030005C01833611F1E0915C01F0E0EF5BFC4F45
:103040008081C81719F08C2F0E946A0BE0915C01F7
:10305000F0E0EF5BFC4FC08310C080915D018823DE
:1030600061F010925D01E0915C01F0E0EF5BFC4FDC
:103070001082109237010E9494138091C50367E378
:103080000E94210BC82F883321F1809137018111D3
:1030900030C080915B01811106C0C0935B010E942A
:1030A0003E0B80935A0180915A01833611F1E091D1
:1030B0005A01F0E0EF5BFC4F8081C81719F08C2FAC
:1030C0000E946A0BE0915A01F0E0EF5BFC4FC08375
:1030D00010C080915B01882361F010925B01E09148
:1030E0005A01F0E0EF5BFC4F1082109237010E9412
:1030F00094138091C60365E40E94210BC82F863487
:1031000021F180913701811130C0809159018111E5
:1031100006C0C09359010E943E0B809358018091D4
:103120005801833611F1E0915801F0E0EF5BFC4F5C
:103130008081C81719F08C2F0E946A0BE09158010A
:10314000F0E0EF5BFC4FC08310C0809159018823F1
:1031500061F010925901E0915801F0E0EF5BFC4FF3
:103160001082109237010E949413E4EBF3E0808107
:103170008B7F80838091350382FF99C080913703D4
:103180008093E0028091E0026FE40E94210BC82F3F
:10319000803521F180913701811130C08091550136
:1031A000811106C0C09355010E943E0B80935401CB
:1031B00080915401833611F1E0915401F0E0EF5B0E
:1031C000FC4F8081C81719F08C2F0E946A0BE09188
:1031D0005401F0E0EF5BFC4FC08310C080915501BB
:1031E000882361F010925501E0915401F0E0EF5B0B
:1031F000FC4F1082109237010E949413E5E3F3E034
:1032000080818B7F808380915A0382FF54C080919C
:103210005C038093E0028091E00263E60E94210B50
:10322000C82F843621F180913701811130C08091FF
:103230005101811106C0C09351010E943E0B809341
:10324000500180915001833611F1E0915001F0E07E
:10325000EF5BFC4F8081C81719F08C2F0E946A0B1E
:10326000E0915001F0E0EF5BFC4FC08310C0809113
:103270005101882361F010925101E0915001F0E07A
:10328000EF5BFC4F1082109237010E949413EAE525
:10329000F3E080818B7F80830EC08091B40382FD38
:1032A000B3CD68CF8091350382FD68CFACCF8091DC
:1032B0005A0382FDACCFCF910895E7E0F3E04DE0F3
:1032C00053E0DF0160E090E031E08D91282F2F7D09
:1032D0002330F9F0282F2F7B2830D9F0282F2F7E8C
:1032E0002D30B9F08231A9F08B3299F0853389F015
:1032F0008A3379F0853469F08B3459F075E8780FAA
:10330000733038F08F3729F08158833010F0203235
:1033100011F49F5F632FA417B507B9F670E020E0A2
:10332000A1E081918230A1F1382F377F343081F1D3
:10333000873071F1893061F18E3051F13CEE380FF8
:10334000333030F18F3121F1382F3F7E313201F1AE
:103350008A32F1F03C32E1F08F32D1F0382F3D7FEC
:103360003433B1F03FEA380F323090F0893581F0D4
:10337000382F3F7B3E3361F03BE9380F323040F06D
:103380008D3631F037E8380F323010F0803811F4D4
:103390002F5F7A2FE417F50721F6662349F0809115
:1033A000250181110FC081E08093240182E00BC0D0
:1033B000772321F01092240181E005C010922401AE
:1033C00080E001C082E030913401391710F410928E
:1033D000360130913301321710F410923501909379
:1033E0003401209333010895E1E9F0E080818C609D
:1033F0008083E1E7F0E080818260808384E39CE069
:1034000090939900809398000895E0E8F0E080811F
:1034100084608083E1E8F0E08081896180830895A1
:10342000E1E8F0E020812160208390938700809381
:1034300086009695879590938D0080938C002FEF52
:1034400084E39CE0215080409040E1F700C0000000
:103450000895E1E8F0E080818E7F808308950E94E6
:103460001B030E94F4190E9475008AEF90E00E94ED
:10347000CA000E94C3090E94370A8EE392E00E94AC
:103480006A0180ED92E00E946A0180EC92E00E9465
:103490006A0188E792E00E946A0181E293E00E945B
:1034A0006A0185E080935E02EEEFF1E017821086FC
:1034B00069E0CF010E9446020E94051A82E00E9444
:1034C0003603811109C01092040269E08EEF91E089
:1034D0000E9446021092250186E00E94360388234E
:1034E00019F081E08093010185E00E943603882372
:1034F00019F081E0809300010E94E70E0E940E0601
:1035000063E087E00E949A00BC0180E090E00E94A6
:10351000A1200E948D039093290180932801009798
:1035200039F481E090E0909329018093280108C04C
:10353000019631F48EEF9FEF90932901809328013B
:103540009091280180912901909326018093270171
:10355000E9EAF1E0968387830E94940B80E797E184
:103560000E94101A88E893E10E94101A80EA9FE0F6
:103570000E94101A0E94291A0E9421030E944F12D1
:10358000789408E612E00F2EF8EECF2EF02D0F2ED5
:10359000F3E0DF2EF02DC1E1D3E00F2EF5EEEF2E9C
:1035A000F2E0FF2EF02D0E9441030E945A030E9478
:1035B00034040E948F046BE089EA91E00E94460285
:1035C00080917601882339F080917801811103C0C0
:1035D0000E94A80F05C00E94A80FF801C682D782DA
:1035E000F80196818781890F8F5F808766E0C80127
:1035F0000E94460280917701882339F080917801FA
:10360000811103C00E94E61004C00E94E610CE8221
:10361000DF829E818F81890F8E5F888766E0CE0171
:103620000E9446020E943F096AE089EC91E00E94F4
:103630004602F701808182FF06C00E945E06F70104
:1036400080818B7F80830E94C71280912A01811123
:1036500002C00E94D70B0E94E40C0E944515A3CF24
:1036600081312EE0920790F09C01A9E8B8E80E9411
:10367000DF2196958795929582958F7089279F7007
:1036800089276CE370E00E94C5210FC09C01A9E866
:10369000B8E80E94DF2196958795929582958F7064
:1036A00089279F70892760E070E09C01992314F4BA
:1036B0002F5F3F4F35952795CB01880F991F829536
:1036C0009295907F9827807F9827822B08951F924C
:1036D0000F920FB60F9211242F933F934F935F9346
:1036E0008F939F93AF93BF93EF93FF932091ED0040
:1036F0008091E0009091E10080FFAAC01092ED005F
:103700008091F0009091F100A091F200B091F3004F
:10371000689412F8B695A795979587951694D1F762
:103720008093AC029093AD02A093AE02B093AF022F
:10373000893931E09307A105B10509F448C038F48F
:1037400089399105A105B10509F45BC073C08939B8
:1037500032E09307A105B10531F089399340A10505
:10376000B105D9F067C08091F50282FD63C0409138
:10377000F602442361F0E7EFF2E050E049505D4F7C
:10378000AAEFB0E08C9181934E175F07D9F7E5EF70
:10379000F2E08081846080834DC080916A0382FD65
:1037A00049C040916B03442361F0ECE6F3E050E044
:1037B00044595C4FAAEFB0E08C9181934E175F079C
:1037C000D9F7EAE6F3E080818460808333C080919A
:1037D000DD0182FD2FC04091DE01442361F0EFED59
:1037E000F1E050E041525E4FAAEFB0E08C9181933E
:1037F000E417F507D9F7EDEDF1E08081846080836F
:1038000019C08091A40382FD15C04091A5034423F3
:1038100061F0E6EAF3E050E04A555C4FAAEFB0E011
:103820008C918193E417F507D9F7E4EAF3E08081FE
:10383000846080831092EE008091EF0084FF04C0CA
:1038400080E98093EF0045C180E88093EF0041C19B
:103850008091E0009091E10081FF68C080E1809359
:10386000ED008091F0009091F100A091F200B091F4
:10387000F300689412F8B695A795979587951694D6
:10388000D1F78093AC029093AD02A093AE02B093B7
:10389000AF02813132E09307A105B10531F08131EA
:1038A0009340A105B105D9F033C08091BD0182FDDF
:1038B0002FC04091BE01442361F0EFEBF1E050E0F6
:1038C00041545E4FAAEFB0E08C918193E417F50765
:1038D000D9F7EDEBF1E080818460808319C080919D
:1038E000B40382FD15C04091B503442361F0E6EBBB
:1038F000F3E050E04A545C4FAAEFB0E08C91819322
:103900004E175F07D9F7E4EBF3E080818460808392
:103910001092EE008091EF0084FF04C080E9809354
:10392000EF00D7C080E88093EF00D3C08091E00023
:103930009091E10082FF68C080E28093ED00809169
:10394000F0009091F100A091F200B091F300689422
:1039500012F8B695A795979587951694D1F7809309
:10396000AC029093AD02A093AE02B093AF0281314E
:1039700031E09307A105B10531F082319140A105F5
:10398000B105D9F033C08091350382FD2FC040913D
:103990003603442361F0E7E3F3E050E0495C5C4F19
:1039A000AAEFB0E08C9181934E175F07D9F7E5E35A
:1039B000F3E080818460808319C080915A0382FD86
:1039C00015C040915B03442361F0ECE5F3E050E067
:1039D000445A5C4FAAEFB0E08C9181934E175F0779
:1039E000D9F7EAE5F3E08081846080831092EE00ED
:1039F0008091EF0084FF04C080E98093EF0069C0EC
:103A000080E88093EF0065C08091E0009091E10034
:103A100083FF5FC080E38093ED008091F000909180
:103A2000F100A091F200B091F300689412F8B695FD
:103A3000A795979587951694D1F78093AC029093AC
:103A4000AD02A093AE02B093AF023091EF003F7091
:103A50003093FD018730910531E0A307B10541F1B5
:103A600028F40697A140B10561F026C08830910581
:103A700031E0A307B10591F00997A140B10599F094
:103A80001BC08091E50282FD17C08091FD0181304D
:103A900069F195B184E0892785B90EC08091A002B3
:103AA00082FF38C009C08091220282FF3DC004C05D
:103AB0008091940382FF24C01092EE008091EF0069
:103AC00084FF04C080E98093EF0003C080E8809306
:103AD000EF001092AC021092AD021092AE02109262
:103AE000AF021092FD012093ED0028C08091FA00F2
:103AF0008093E702E5EEF2E0808184608083DCCF92
:103B00008091FA0080939603E4E9F3E08081846079
:103B10008083D2CF8091FA008093A202E0EAF2E0A3
:103B2000808184608083C8CF8091FA0080932402D2
:103B3000E2E2F2E0808184608083BECFFF91EF916A
:103B4000BF91AF919F918F915F914F913F912F9135
:103B50000F900FBE0F901F9018951F920F920FB6E7
:103B60000F9211240F931F932F933F934F935F93C3
:103B70006F937F938F939F93AF93BF93CF93DF9375
:103B8000EF93FF938091A00282FF18C0E0EAF2E079
:103B90008B7F808380E090E0FC01EA57FC4F10822D
:103BA000FC01EE0FFF1FE751FE4F118210820196BC
:103BB0008A30910589F781E0809304018091220287
:103BC00082FF10C080912402813021F482E0809332
:103BD000040103C081E080930401E2E2F2E080810D
:103BE0008B7F808380912D018F5F80932D01809149
:103BF0002D018A3059F4809131018F5F809331011A
:103C0000809130018F5F8093300191C080912D01B0
:103C1000843129F080912D01883209F088C080918B
:103C20002F018F5F80932F0180912E018F5F8093F2
:103C30002E0168E086E793E00E944602809122010F
:103C40009091230101969093230180932201C0E07B
:103C5000D0E0FE01EE0FFF1FE751FE4F8081918102
:103C6000892BF9F080912201909123018E01000FA0
:103C7000111FF801E751FE4F20813181821B930B08
:103C80009093210180932001809120019091210146
:103C90000E94301B90E0F801E857FD4F918380832C
:103CA00007C0FE01EE0FFF1FE857FD4F1182108283
:103CB0002196CA30D10569F680910401823089F4D9
:103CC000A4E1B2E085E090E0FC01EE0FFF1FE857B1
:103CD000FD4F208131812D9301968A309105A1F706
:103CE00010C0A4E1B2E080E090E0FC01EE0FFF1F05
:103CF000E857FD4F208131812D9301968530910544
:103D0000A1F769E08EE092E00E94460280912D01C9
:103D1000883269F48FE99FE00197F1F700C0000055
:103D200010922D0169E088E592E00E9446020E940F
:103D30009413E7E0F3E080E090E0DC01AF5BBC4F80
:103D40002C912193019685309105B9F70E945D1958
:103D500080930C039091940392FF0FC0909196036F
:103D60009150923028F491E0909336019093350170
:103D7000E4E9F3E090819B7F9083823059F4809155
:103D80003601811104C082E080930D0316C01092A9
:103D90000D0313C0813059F480913501811104C0A5
:103DA00081E080930D0309C010920D0306C08111BC
:103DB00004C010920D03109236016CE081E093E094
:103DC0000E94460280910401823089F4E6EBF2E021
:103DD00085E090E0DC01AA57BC4F2C91219301961D
:103DE0008A309105B9F782E08093BB022AC0E6EBE6
:103DF000F2E080E090E0DC01AA57BC4F2C912193C7
:103E0000019685309105B9F780E090E0FC01EA5712
:103E1000FC4F2081222329F0209132012F5F209333
:103E2000320101968A30910589F7809132018630FE
:103E300018F41092BB0203C081E08093BB02109281
:103E4000320165E080EB92E00E94460280912501FC
:103E5000813051F48093040280912401882331F051
:103E600081E08093360102C01092040269E08EEF77
:103E700091E00E94460280917801882399F10E9486
:103E800041030E9434040E948F046BE089EA91E0B0
:103E90000E9446020E94D70B80912A01811102C024
:103EA0000E94E40C0E94C7120E944515E8E6F2E069
:103EB000D8EED683C3E0C7838CEE808766E0CF015F
:103EC0000E9446028FE39FE10197F1F700C00000D6
:103ED000E1E1F3E0D683C7838DEE808766E0CF0112
:103EE0000E944602FF91EF91DF91CF91BF91AF9178
:103EF0009F918F917F916F915F914F913F912F9102
:103F00001F910F910F900FBE0F901F901895505852
:103F1000BB27AA270E949F1F0C9419210E940B21E6
:103F200038F00E94122120F039F49F3F19F426F452
:103F30000C9408210EF4E095E7FB0C940221E92F84
:103F40000E942A2158F3BA1762077307840795075E
:103F500020F079F4A6F50C944C210EF4E0950B2E8C
:103F6000BA2FA02D0B01B90190010C01CA01A001CB
:103F70001124FF27591B99F0593F50F4503E68F126
:103F80001A16F040A22F232F342F4427585FF3CF67
:103F9000469537952795A795F0405395C9F77EF438
:103FA0001F16BA0B620B730B840BBAF09150A1F081
:103FB000FF0FBB1F661F771F881FC2F70EC0BA0F07
:103FC000621F731F841F48F4879577956795B7958F
:103FD000F7959E3F08F0B0CF9395880F08F099278A
:103FE000EE0F9795879508950E94DE2008F481E0F2
:103FF00008950E940D200C9419210E94122158F05E
:104000000E940B2140F029F45F3F29F00C9402211B
:1040100051110C944D210C9408210E942A2168F31F
:104020009923B1F3552391F3951B550BBB27AA2771
:1040300062177307840738F09F5F5F4F220F331FAB
:10404000441FAA1FA9F335D00E2E3AF0E0E832D073
:1040500091505040E695001CCAF72BD0FE2F29D076
:10406000660F771F881FBB1F261737074807AB0748
:10407000B0E809F0BB0B802DBF01FF2793585F4FBD
:104080003AF09E3F510578F00C9402210C944D219A
:104090005F3FE4F3983ED4F3869577956795B7959F
:1040A000F7959F5FC9F7880F911D9695879597F9AA
:1040B0000895E1E0660F771F881FBB1F6217730723
:1040C0008407BA0720F0621B730B840BBA0BEE1F38
:1040D00088F7E09508950E9472206894B1110C94BD
:1040E0004D2108950E94322188F09F5798F0B92FF2
:1040F0009927B751B0F0E1F0660F771F881F991F1D
:104100001AF0BA95C9F714C0B13091F00E944C2151
:10411000B1E008950C944C21672F782F8827B85F61
:1041200039F0B93FCCF3869577956795B395D9F774
:104130003EF490958095709561957F4F8F4F9F4F7E
:104140000895E89409C097FB3EF49095809570958A
:1041500061957F4F8F4F9F4F9923A9F0F92F96E9D3
:10416000BB279395F695879577956795B795F11148
:10417000F8CFFAF4BB0F11F460FF1BC06F5F7F4FE5
:104180008F4F9F4F16C0882311F096E911C07723F7
:1041900021F09EE8872F762F05C0662371F096E800
:1041A000862F70E060E02AF09A95660F771F881FCF
:1041B000DAF7880F9695879597F90895990F000873
:1041C000550FAA0BE0E8FEEF16161706E807F907E9
:1041D000C0F012161306E407F50798F0621B730B84
:1041E000840B950B39F40A2661F0232B242B252B05
:1041F00021F408950A2609F4A140A6958FEF811DA8
:10420000811D089597F99F6780E870E060E0089548
:104210009FEF80EC089500240A94161617061806DE
:104220000906089500240A941216130614060506BA
:104230000895092E0394000C11F4882352F0BB0F4B
:1042400040F4BF2B11F460FF04C06F5F7F4F8F4FAE
:104250009F4F089557FD9058440F551F59F05F3FE9
:1042600071F04795880F97FB991F61F09F3F79F098
:1042700087950895121613061406551FF2CF46951A
:10428000F1DF08C0161617061806991FF1CF86959C
:104290007105610508940895E894BB276627772780
:1042A000CB0197F908950E94DE2008F48FEF08955E
:1042B0000E946B210C9419210E940B2138F00E945E
:1042C000122120F0952311F00C9402210C94082166
:1042D00011240C944D210E942A2170F3959FC1F363
:1042E000950F50E0551F629FF001729FBB27F00DA4
:1042F000B11D639FAA27F00DB11DAA1F649F6627F9
:10430000B00DA11D661F829F2227B00DA11D621F47
:10431000739FB00DA11D621F839FA00D611D221F01
:10432000749F3327A00D611D231F849F600D211DE5
:10433000822F762F6A2F11249F5750409AF0F1F068
:1043400088234AF0EE0FFF1FBB1F661F771F881FD1
:1043500091505040A9F79E3F510580F00C940221E6
:104360000C944D215F3FE4F3983ED4F38695779506
:104370006795B795F795E7959F5FC1F7FE2B880F77
:10438000911D9695879597F9089597FB072E16F43A
:10439000009407D077FD09D00E94EE2107FC05D0DC
:1043A0003EF4909581959F4F0895709561957F4F4C
:1043B0000895EE0FFF1F0590F491E02D0994A29F40
:1043C000B001B39FC001A39F700D811D1124911DE9
:1043D000B29F700D811D1124911D0895AA1BBB1B56
:1043E00051E107C0AA1FBB1FA617B70710F0A61BF5
:1043F000B70B881F991F5A95A9F780959095BC0116
:10440000CD010895F999FECF92BD81BDF89A992703
:1044100080B50895262FF999FECF92BD81BD20BDAC
:104420000FB6F894FA9AF99A0FBE01960895F89487
:02443000FFCFBC
:10443200FFFF8B060101013A02C2013A02C2010FDB
:104442009600FE0199036500FE01990365000101D2
:00000001FF
