:100000000C944A000C945C000C945C000C945C0012
:100010000C945C000C945C000C945C000C945C00F0
:100020000C945C000C945C000C945C000C945C00E0
:100030000C9484090C945C000C945C000C945C009F
:100040000C945C000C945C000C94E4070C945C0031
:100050000C945C000C945C000C945C000C945C00B0
:100060000C945C000C945C000C945C000C945C00A0
:100070000C942E0A0C945C000C945C000C945C00B4
:100080000C945C000C945C000C945C000C945C0080
:100090000C945C0011241FBECFEFD8E0DEBFCDBFB3
:1000A00022E0A0E0B1E001C01D92A933B207E1F760
:1000B0000E94BC040C941F0C0C940000EF92FF9261
:1000C0000F931F93CF93DF938C0181E08093D8002F
:1000D0001092DB0090E06DEE70E04FEE50E0CEEE5F
:1000E000D0E0A4EFB0E00F2EF0EFEF2EF12CF02DCA
:1000F000292F2295207FFB012083FA01108218828C
:100100001D921D921D921C921397F701108211826D
:10011000128213829F5F9F3059F70A3F110511F138
:100120003CF40436110591F10D37110529F138C061
:10013000043FF1E01F0761F0083E134089F510927B
:10014000E2008CE08093E30086E38093E40031C01A
:1001500082E08093E2008CE08093E30087E3809369
:10016000E40027C086E08093E2008CE08093E30007
:1001700087E38093E4001DC08EE08093E2008CE072
:100180008093E30087E38093E40013C082E18093CF
:10019000E2008CE08093E30087E38093E40009C0F1
:1001A0008EE08093E2008CE08093E30087E380930D
:1001B000E40080EB8093DB00E8EDF0E0808182607A
:1001C00080838091D90082FD0DC080E197E2E9ED46
:1001D000F0E025E32A95F1F70000208122FD02C01E
:1001E0000197B9F78091D90082FB882780F9DF91C8
:1001F000CF911F910F91FF90EF900895CF93FC0145
:10020000C091ED002091DC003091DD00408181E063
:1002100090E0042E02C0880F991F0A94E2F782230F
:100220009323892B09F0C3C04295407F4093ED0092
:100230008185882309F451C081819281A381B48191
:10024000880F991FAA1FBB1F880F991FAA1FBB1FCA
:10025000880F991FAA1FBB1F2685822B438550E05C
:10026000440F551F440F551F052E000C660B770BCE
:10027000842B952BA62BB72B8093F0009093F10045
:10028000A093F200B093F30085819681A781B08599
:10029000880F991FAA1FBB1F880F991FAA1FBB1F7A
:1002A000880F991FAA1FBB1F2285822B448550E00F
:1002B000440F551F440F551F052E000C660B770B7E
:1002C000842B952BA62BB72B8093F4009093F500ED
:1002D000A093F600B093F7004AC081819281A38178
:1002E000B481072E75E1880F991FAA1FBB1F7A954D
:1002F000D1F7702D2685822B438550E0440F551F82
:10030000440F551F052E000C660B770B842B952B85
:10031000A62BB72B8093F0009093F100A093F200EE
:10032000B093F30085819681A781B085072E75E192
:10033000880F991FAA1FBB1F7A95D1F7702D2285B0
:10034000822B448550E0440F551F440F551F052E46
:10035000000C660B770B842B952BA62BB72B809369
:10036000F4009093F500A093F600B093F700AEED83
:10037000B0E02D913C91119781E090E0008002C0A7
:10038000880F991F0A94E2F7822B932B11969C9366
:100390008E93818520E1829FC0011124958590680C
:1003A000892B8093EF00C093ED0081E001C080E0D5
:1003B000CF9108951F93CF93DF93DC01F8941091B0
:1003C000ED002091DC003091DD0081E090E0062E10
:1003D00002C0880F991F0A94E2F782239323892B86
:1003E00031F081B3805881BB789480E065C062951C
:1003F000607F6093ED0014968C91149781FF1AC072
:100400004D915D916D917C911397440F551F661F1F
:10041000771F440F551F661F771F440F551F661F18
:10042000771F4093F0005093F1006093F2007093B7
:10043000F30016C04D915D916D917C911397032E41
:1004400035E1440F551F661F771F3A95D1F7302DC0
:100450004093F0005093F1006093F2007093F3002A
:1004600015968C911597882389F0FD01369640E00A
:1004700050E0CAEFD0E0919198834F5F5F4F15969F
:100480002C91159730E042175307ACF31092EE0011
:1004900014968C91149781FF06C015968C918065F7
:1004A0008093EF0005C015968C9180648093EF00D7
:1004B0001093ED00789481E0DF91CF911F91089522
:1004C0008F92AF92CF92EF92FF920F931F93CF93A1
:1004D000DF93CDB7DEB7FC01608321833283438392
:1004E0005483E582F68207831087C186A2868786B9
:1004F0008C8585878D8583878E8584878F85868784
:10050000DF91CF911F910F91FF90EF90CF90AF901F
:100510008F900895EF920F93DC014D935D936D934F
:100520007C93139714968C91149720FB81F9E0FA31
:1005300080F914968C93149715960C9315970023B5
:1005400071F0FD0136960150202F30E0295F3F4FBA
:10055000CD01820F931F1192E817F907E1F70F9170
:10056000EF900895829A809A8198889A8A9A08953D
:10057000889885E08A95F1F700002FE030E040E0B0
:1005800050E061E070E08A9816BC96B59134E8F3CB
:100590008A9A16BC96B59134E8F3799B09C0CB01D1
:1005A000022E02C0880F991F0A94E2F7482B592B9C
:1005B0002150310940F7889A8A9ACA0108959B010F
:1005C000BC01621B730BCAF5883C910504F5A901B7
:1005D00048535F43483C5105D0F4BC01621B730B88
:1005E0006150704C623071050CF462C0072E000C33
:1005F000880B990B0E94110B20910D0130910E0177
:1006000040910F01509110010E949D0B08956F3F82
:100610004FEF74070CF050C0072E000C880B990B9D
:100620000E94110B20910D0130910E0140910F019C
:10063000509110010E949D0B0895161617060CF09C
:100640003FC088334FE39407FCF0283C3105E4F4C5
:10065000281B390B2150304C22303105ACF1662774
:100660007727621B730B072E000C880B990B0E94D7
:10067000110B20910D0130910E0140910F0150910D
:1006800010010E949D0B0895623071050CF1072E38
:10069000000C880B990B0E94110B20910D013091D9
:1006A0000E0140910F01509110010E949D0B089581
:1006B00060E070E0CB01089560E070E0CB01089548
:1006C00060E070E0CB01089560E070E0CB01089538
:1006D00060E070E0CB01089520E030E060E070E081
:1006E000AC01022E02C0569547950A94E2F740FFEE
:1006F00005C020FF02C07F5F01C06F5F2F5F3F4FCB
:100700002E30310569F770FF03C020E030E002C0F1
:1007100020E030E860FF30648827907C2817390794
:1007200011F082E0089580E00895CF93DF930E9456
:10073000B802EC010E946C0380930501882341F00C
:1007400080910001883278F4865F8093000107C0B1
:1007500080910001882389F081508093000180916D
:100760000001883220F082E08093040108C08431C7
:1007700020F081E08093040102C010920401DF7335
:1007800080910A01882349F080911B0190911C01FE
:10079000C81BD90BCE019F7309C080911B0190919A
:1007A0001C019C012C1B3D0BC9019F73DF91CF9154
:1007B00008950F931F93CF93DF9380910A018130A7
:1007C00009F072C08091B9019091BA01A091BB016A
:1007D000B091BC018130910521E0A207B10509F07B
:1007E00055C08091BE01813009F0C1C08091BF0128
:1007F000813009F0BCC00E94B8020E946C038111D4
:10080000B6C0C9EED1E081E08E8366E0CE010E94E1
:10081000DA011E820E94B8029F7390931C0180939C
:100820001B01F89460911C0181E090E00E94120C81
:10083000CBE1D1E0688182E090E00E94120C6091EF
:100840001C0184E090E00E94120C688185E090E039
:100850000E94120C62E083E090E00E94120C62E0C1
:1008600086E090E00E94120C78940E949503909389
:1008700022018093210190932401809323011092FF
:100880000201109201011092030171C08939E0E167
:100890009E07A105B10531F089399340A105B10545
:1008A00009F065C0409A63C08091B9019091BA0186
:1008B000A091BB01B091BC010297A140B10509F024
:1008C00056C08091BE01813009F051C08091BF01B6
:1008D000813009F04CC00E94B802EC010E946C0308
:1008E000811145C009EE11E081E0F801868366E0E0
:1008F000C8010E94DA01F8011682D05EDF73D0933E
:100900001C01C0931B01F89460911C0181E090E0F0
:100910000E94120CCBE1D1E0688182E090E00E945D
:10092000120C60911C0184E090E00E94120C68811E
:1009300085E090E00E94120C62E083E090E00E946B
:10094000120C62E086E090E00E94120C78940E9403
:100950009503909322018093210190932401809329
:100960002301109202011092010110920301DF9104
:10097000CF911F910F910895CF93DF9300D000D0B6
:10098000CDB7DEB72FEF39E668E121503040604047
:10099000E1F700C00000EDE9F1E080818B7F80830A
:1009A000879A8F98869A8E984098389A5F984F9B2E
:1009B00004C081E080930A0102C010920A010E94E3
:1009C000B20283E090E00E940A0C8230B9F586E022
:1009D00090E00E940A0C823089F581E090E00E944C
:1009E0000A0CE82FF0E03E2F22273A832983309328
:1009F0001C0120931B0182E090E00E940A0C698197
:100A00007A81682B7A83698370931C0160931B0140
:100A100084E090E00E940A0C082F10E0102F0027BD
:100A200085E090E00E940A0C082B89819A8180174A
:100A3000910739F081E08093030103C081E0809346
:100A400003018AEF90E00E945E0080910A018823F2
:100A5000D1F11F921F921F9291E09F93882483945B
:100A6000A12CCC24C394EE24EA94FE2C0FEF1FE1BA
:100A700021E030E0A90161E089E891E00E94600294
:100A80001F921F921F92E1E0EF93AA24A39429E9F9
:100A900030E140E050E064E089E291E00E946002D1
:100AA0001F921F921F92CF9229E933E040E050E05D
:100AB00069E089EA91E00E9460020FB6F894DEBF17
:100AC0000FBECDBF1CC01F921F921F9281E08F935B
:100AD00088248394A12CCC24C394EE24EA94FE2C85
:100AE0000FEF1FE122E030E041E050E061E089E8F3
:100AF00091E00E9460020F900F900F900F9089E894
:100B000091E00E94FE0080910A01882309F452C0FE
:100B100089E291E00E94FE0089EA91E00E94FE00D5
:100B200080910A01882309F445C0E12C04E021E00A
:100B300041E051E060E070E089ED91E00E948A02BE
:100B400003E021E045E051E060E070E089E092E000
:100B50000E948A0202E021E043E051E060E070E0A0
:100B600089E292E00E948A0201E021E043E151E043
:100B700060E070E089EE91E00E948A0221E041E1AC
:100B800051E060E070E089EF91E00E948A0221E08C
:100B900049E951E060E070E089EC91E00E948A024E
:100BA00021E048E951E060E070E089E791E00E94CF
:100BB0008A0244C0E12C04E021E042E051E060E020
:100BC00070E089ED91E00E948A0203E021E046E0B6
:100BD00051E060E070E089E092E00E948A0202E069
:100BE00021E044E051E060E070E089E292E00E94A0
:100BF0008A0201E021E044E151E060E070E089EE2A
:100C000091E00E948A0221E042E151E060E070E060
:100C100089EF91E00E948A0221E049E950E060E01A
:100C200070E089EC91E00E948A0221E048E950E0FE
:100C300060E070E089E791E00E948A0280910A01F9
:100C4000882369F086E595E5A0E5BFE380930D0173
:100C500090930E01A0930F01B09310010CC08BE98B
:100C600098E5A8EDBFE380930D0190930E01A0934A
:100C70000F01B0931001F89481E084BD16BC85E0AB
:100C80008093810080910A01882339F082ED90E001
:100C9000909389008093880006C084E690E090934A
:100CA000890080938800109285001092840082E071
:100CB00080936F0085E08093910080E594E19093AC
:100CC0009900809398001092950010929400E1E7AB
:100CD000F0E080818260808378940F2EF9E9EF2E16
:100CE000F1E0FF2EF02D0F2EF9EBCF2EF1E0DF2EED
:100CF000F02D0F2EFDEB2F2EF1E03F2EF02D442492
:100D000043946894552454F86894662461F8712CCF
:100D100080912801882309F4DCC0809123019091FF
:100D200024019093220180932101F89410922801CC
:100D300078940E9495039093200180931F019093D3
:100D400024018093230180910501882361F0809123
:100D50002101909122019093200180931F01909393
:100D600024018093230180911E018823A1F14091E9
:100D70000A0141110CC08091230190912401845EED
:100D8000984189339E4018F061E060930201209100
:100D90002301309124018091210190912201281793
:100DA000390730F0F901E81BF90BCF019F7303C03D
:100DB000821B930B9F7385369105C0F0442339F055
:100DC0008C399F4398F421E0209301010FC031E05A
:100DD000309301010BC080911D018A3020F48F5F98
:100DE00080931D0103C061E060931E018090150196
:100DF00090901601A0901701B090180180921101F7
:100E000090921201A0921301B0921401009123015B
:100E1000109124016091210170912201C8010E946A
:100E2000DF0220E030E040E05FE30E949D0B698339
:100E30007A838B839C8320E030E040E05FE3C50150
:100E4000B4010E949D0B9B01AC0169817A818B8169
:100E50009C810E946D0A6093150170931601809326
:100E600017019093180120E030E048EC52E40E9412
:100E70006D0A20E030E048EC52E40E949D0B0E9495
:100E8000D90A70931A01609319010530110520F4F5
:100E90007092200160921F010D3F7FE3170720F041
:100EA0007092200160921F0180910A01811111C08E
:100EB000013080E1180720F45092200140921F0178
:100EC0000115104330F0EFEFFFE2F0932001E093C3
:100ED0001F01EDE9F1E0808182FF33C0F7018081DD
:100EE0009181A281B381F60180839183A283B38330
:100EF000EDE9F1E0808186958170F101908180FBC0
:100F000091F99083F7012581F601258330E01216CF
:100F1000130674F4EFEBF1E080E090E0DC01A756FB
:100F2000BE4F16964C914193019682179307B1F7E5
:100F3000F894EDE9F1E080818B7F808378940E94C2
:100F4000D90380912601882309F4E2CEF894109207
:100F50002601789491B380E4892781BB80910401B4
:100F6000882319F08093FF010FC080910301811144
:100F700008C080910101811104C080910201882381
:100F800019F081E08093FF0162E089EF91E00E9417
:100F9000DA0181E08093CF0167E089EC91E00E9463
:100FA000DA0180912501853020F48F5F809325013F
:100FB000AFCE1092250185E080937F016AE089E73A
:100FC00091E00E94DA01A4CE1F920F920FB60F9209
:100FD00011242F933F934F938F939F93AF93BF937E
:100FE000CF93DF93EF93FF9380910A01882341F021
:100FF0001092060110920701109208011092090147
:101000004091ED008091E0009091E10081FF75C07A
:1010100080919D0182FD63C080E18093ED0080910D
:10102000EF0084FF1EC08091F0009091F100A0912C
:10103000F200B091F300689412F8B695A7959795D1
:1010400087951694D1F78093990190939A01A09374
:101050009B01B0939C01EDE9F1E080818260808387
:101060001EC08091F0009091F100A091F200B0912B
:10107000F300072E75E1B695A795979587957A9514
:10108000D1F7702D8093990190939A01A0939B01C1
:10109000B0939C01EDE9F1E080818D7F80838091A8
:1010A000EF008F70E9E9F1E085838581882391F075
:1010B00080E090E0CAEFD0E0DF012881FC01E75634
:1010C000FE4F2683019615962C91159730E08217D6
:1010D00093079CF3EDE9F1E08081846080831092B6
:1010E000EE008091EF0084FF04C080E98093EF0060
:1010F000F9C080E88093EF00F5C08091E000909106
:10110000E10084FF75C080919D0182FD63C080E491
:101110008093ED008091EF0084FF1EC08091F0006D
:101120009091F100A091F200B091F300689412F850
:10113000B695A795979587951694D1F780939901C1
:1011400090939A01A0939B01B0939C01EDE9F1E08B
:101150008081826080831EC08091F0009091F100B8
:10116000A091F200B091F300072E75E1B695A79516
:10117000979587957A95D1F7702D809399019093E3
:101180009A01A0939B01B0939C01EDE9F1E080816D
:101190008D7F80838091EF008F70E9E9F1E0858396
:1011A0008581882391F080E090E0CAEFD0E0DF01F4
:1011B0002881FC01E756FE4F2683019615962C9157
:1011C000159730E0821793079CF3EDE9F1E08081F9
:1011D000846080831092EE008091EF0084FF04C051
:1011E00080E98093EF007EC080E88093EF007AC0B2
:1011F0008091E0009091E10091FF74C080919D0189
:1012000082FD63C080E98093ED008091EF0084FF50
:101210001EC08091F0009091F100A091F200B09179
:10122000F300689412F8B695A7959795879516944C
:10123000D1F78093990190939A01A0939B01B09369
:101240009C01EDE9F1E08081826080831EC0809185
:10125000F0009091F100A091F200B091F300072E00
:1012600075E1B695A795979587957A95D1F7702DE5
:101270008093990190939A01A0939B01B0939C0154
:10128000EDE9F1E080818D7F80838091EF008F70A8
:10129000E9E9F1E085838581882391F080E090E0A1
:1012A000CAEFD0E0DF012881FC01E756FE4F26831C
:1012B000019615962C91159730E0821793079CF3B1
:1012C000EDE9F1E08081846080831092EE008091EE
:1012D000EF0084FF04C080E98093EF0003C080E842
:1012E0008093EF004093ED00FF91EF91DF91CF915C
:1012F000BF91AF919F918F914F913F912F910F90FF
:101300000FBE0F901F9018951F920F920FB60F925D
:1013100011242F933F934F935F936F937F938F93FA
:101320009F93AF93BF93EF93FF9381E08093280146
:1013300080912701813009F077C080910C018F5F87
:1013400080930C012091230180912401E9EDF1E0CB
:1013500026838783909105019087820F890F2091C2
:101360000A01222311F08B5F01C08A5F8093E201A2
:1013700020911F0180912001E9E0F2E0268387831C
:1013800090879091190180911A01E9E2F2E0968329
:10139000878360E089ED91E00E94DA0180910A0183
:1013A000882391F080910B01823041F465E089E25D
:1013B00092E00E94DA0110920B0118C080910B019B
:1013C0008F5F80930B0116C080910B01863041F432
:1013D00065E089E292E00E94DA0110920B0106C0FA
:1013E00080910B018F5F80930B0110C080910A01E7
:1013F000882361F080910C01823099F410920C01E5
:1014000068E089E092E00E94DA010BC080910C0153
:10141000843039F410920C0168E089E092E00E9477
:10142000DA011092270105C0809127018F5F809318
:1014300027011092850010928400FF91EF91BF91D7
:10144000AF919F918F917F916F915F914F913F915C
:101450002F910F900FBE0F901F9018951F920F9213
:101460000FB60F9211248F939F93AF93BF9381E098
:101470008093260180910A01882309F18091060159
:1014800090910701A0910801B09109010C97A10565
:10149000B105A0F48091060190910701A091080187
:1014A000B09109010196A11DB11D80930601909391
:1014B0000701A0930801B093090101C04098109260
:1014C000950010929400BF91AF919F918F910F90D2
:1014D0000FBE0F901F9018955058BB27AA270E9447
:1014E000840A0C94630B0E94550B38F00E945C0B2D
:1014F00020F039F49F3F19F426F40C94520B0EF4AB
:10150000E095E7FB0C944C0BE92F0E94740B58F309
:10151000BA17620773078407950720F079F4A6F5D8
:101520000C94960B0EF4E0950B2EBA2FA02D0B0108
:10153000B90190010C01CA01A0011124FF27591B18
:1015400099F0593F50F4503E68F11A16F040A22F1E
:10155000232F342F4427585FF3CF4695379527958F
:10156000A795F0405395C9F77EF41F16BA0B620B8E
:10157000730B840BBAF09150A1F0FF0FBB1F661FD5
:10158000771F881FC2F70EC0BA0F621F731F841F18
:1015900048F4879577956795B795F7959E3F08F03E
:1015A000B0CF9395880F08F09927EE0F9795879500
:1015B00008950E94E00A6894B1110C94970B089565
:1015C0000E947C0B88F09F5798F0B92F9927B7514C
:1015D000B0F0E1F0660F771F881F991F1AF0BA95D7
:1015E000C9F714C0B13091F00E94960BB1E0089594
:1015F0000C94960B672F782F8827B85F39F0B93F86
:10160000CCF3869577956795B395D9F73EF4909589
:101610008095709561957F4F8F4F9F4F0895E89407
:1016200009C097FB3EF490958095709561957F4F2A
:101630008F4F9F4F9923A9F0F92F96E9BB279395D8
:10164000F695879577956795B795F111F8CFFAF4E8
:10165000BB0F11F460FF1BC06F5F7F4F8F4F9F4F19
:1016600016C0882311F096E911C0772321F09EE877
:10167000872F762F05C0662371F096E8862F70E0DD
:1016800060E02AF09A95660F771F881FDAF7880FB7
:101690009695879597F9089597F99F6780E870E088
:1016A00060E008959FEF80EC089500240A941616D8
:1016B000170618060906089500240A941216130640
:1016C000140605060895092E0394000C11F48823CE
:1016D00052F0BB0F40F4BF2B11F460FF04C06F5FEA
:1016E0007F4F8F4F9F4F089557FD9058440F551FC0
:1016F00059F05F3F71F04795880F97FB991F61F094
:101700009F3F79F087950895121613061406551F0A
:10171000F2CF4695F1DF08C0161617061806991F76
:10172000F1CF86957105610508940895E894BB276B
:1017300066277727CB0197F908950E94B00B0C9488
:10174000630B0E94550B38F00E945C0B20F0952330
:1017500011F00C944C0B0C94520B11240C94970B1D
:101760000E94740B70F3959FC1F3950F50E0551FC5
:10177000629FF001729FBB27F00DB11D639FAA27E6
:10178000F00DB11DAA1F649F6627B00DA11D661F35
:10179000829F2227B00DA11D621F739FB00DA11D56
:1017A000621F839FA00D611D221F749F3327A00D10
:1017B000611D231F849F600D211D822F762F6A2FAC
:1017C00011249F5750409AF0F1F088234AF0EE0F11
:1017D000FF1FBB1F661F771F881F91505040A9F73E
:1017E0009E3F510580F00C944C0B0C94970B5F3F7F
:1017F000E4F3983ED4F3869577956795B795F7957A
:10180000E7959F5FC1F7FE2B880F911D96958795F1
:1018100097F90895F999FECF92BD81BDF89A99275D
:1018200080B50895262FF999FECF92BD81BD20BDC8
:101830000FB6F894FA9AF99A0FBE01960895F894A3
:02184000FFCFD8
:00000001FF
